ARM GAS  C:\Users\CHRIST~1\AppData\Local\Temp\ccV63U8T.s 			page 1


   1              		.cpu cortex-m4
   2              		.eabi_attribute 27, 1
   3              		.eabi_attribute 28, 1
   4              		.eabi_attribute 20, 1
   5              		.eabi_attribute 21, 1
   6              		.eabi_attribute 23, 3
   7              		.eabi_attribute 24, 1
   8              		.eabi_attribute 25, 1
   9              		.eabi_attribute 26, 1
  10              		.eabi_attribute 30, 1
  11              		.eabi_attribute 34, 1
  12              		.eabi_attribute 18, 4
  13              		.file	"can_lld.c"
  14              		.text
  15              	.Ltext0:
  16              		.cfi_sections	.debug_frame
  17              		.section	.text.can_lld_set_filters,"ax",%progbits
  18              		.align	1
  19              		.p2align 4,,15
  20              		.syntax unified
  21              		.thumb
  22              		.thumb_func
  23              		.fpu fpv4-sp-d16
  24              		.type	can_lld_set_filters, %function
  25              	can_lld_set_filters:
  26              	.LFB256:
  27              		.file 1 "ChibiOS_3.0.2/os/hal/ports/STM32/LLD/can_lld.c"
  28              		.loc 1 77 0
  29              		.cfi_startproc
  30              		@ args = 0, pretend = 0, frame = 0
  31              		@ frame_needed = 0, uses_anonymous_args = 0
  32              		@ link register save eliminated.
  33              	.LVL0:
  34 0000 F0B4     		push	{r4, r5, r6, r7}
  35              		.cfi_def_cfa_offset 16
  36              		.cfi_offset 4, -16
  37              		.cfi_offset 5, -12
  38              		.cfi_offset 6, -8
  39              		.cfi_offset 7, -4
  40              		.loc 1 80 0
  41 0002 4A4C     		ldr	r4, .L12
  42 0004 236C     		ldr	r3, [r4, #64]
  43 0006 43F00073 		orr	r3, r3, #33554432
  44 000a 2364     		str	r3, [r4, #64]
  45              		.loc 1 83 0
  46 000c A4F5EA34 		sub	r4, r4, #119808
  47 0010 D4F80032 		ldr	r3, [r4, #512]
  48 0014 1B0C     		lsrs	r3, r3, #16
  49 0016 1B04     		lsls	r3, r3, #16
  50 0018 43F00103 		orr	r3, r3, #1
  51 001c 43EA0023 		orr	r3, r3, r0, lsl #8
  52 0020 C4F80032 		str	r3, [r4, #512]
  53              		.loc 1 84 0
  54 0024 0029     		cmp	r1, #0
  55 0026 57D0     		beq	.L2
  56 0028 0D46     		mov	r5, r1
  57              	.LBB161:
ARM GAS  C:\Users\CHRIST~1\AppData\Local\Temp\ccV63U8T.s 			page 2


  58              		.loc 1 88 0
  59 002a 0021     		movs	r1, #0
  60              	.LVL1:
  61 002c C4F81C12 		str	r1, [r4, #540]
  62              		.loc 1 89 0
  63 0030 C4F80412 		str	r1, [r4, #516]
  64              		.loc 1 90 0
  65 0034 C4F80C12 		str	r1, [r4, #524]
  66              		.loc 1 91 0
  67 0038 C4F81412 		str	r1, [r4, #532]
  68              	.LVL2:
  69              		.loc 1 93 0
  70 003c 0846     		mov	r0, r1
  71              	.LVL3:
  72              	.L3:
  73 003e CB00     		lsls	r3, r1, #3
  74 0040 03F18043 		add	r3, r3, #1073741824
  75 0044 03F5C843 		add	r3, r3, #25600
  76              		.loc 1 93 0 is_stmt 0 discriminator 3
  77 0048 C3F84002 		str	r0, [r3, #576]
  78              		.loc 1 94 0 is_stmt 1 discriminator 3
  79 004c C3F84402 		str	r0, [r3, #580]
  80              		.loc 1 92 0 discriminator 3
  81 0050 0131     		adds	r1, r1, #1
  82              	.LVL4:
  83 0052 1C29     		cmp	r1, #28
  84 0054 F3D1     		bne	.L3
  85 0056 1032     		adds	r2, r2, #16
  86              	.LVL5:
  87              		.loc 1 98 0
  88 0058 0026     		movs	r6, #0
  89              		.loc 1 99 0
  90 005a 4FF0010C 		mov	ip, #1
  91              		.loc 1 101 0
  92 005e 344B     		ldr	r3, .L12+4
  93 0060 17E0     		b	.L7
  94              	.LVL6:
  95              	.L6:
  96              		.loc 1 106 0 discriminator 2
  97 0062 54F8101C 		ldr	r1, [r4, #-16]
  98 0066 54F8087C 		ldr	r7, [r4, #-8]
  99 006a 4831     		adds	r1, r1, #72
 100 006c 43F83170 		str	r7, [r3, r1, lsl #3]
 101              		.loc 1 107 0 discriminator 2
 102 0070 54F8101C 		ldr	r1, [r4, #-16]
 103 0074 54F8044C 		ldr	r4, [r4, #-4]
 104 0078 4831     		adds	r1, r1, #72
 105 007a 03EBC101 		add	r1, r3, r1, lsl #3
 106 007e 4C60     		str	r4, [r1, #4]
 107              		.loc 1 108 0 discriminator 2
 108 0080 D3F81C12 		ldr	r1, [r3, #540]
 109 0084 0843     		orrs	r0, r0, r1
 110              	.LVL7:
 111 0086 C3F81C02 		str	r0, [r3, #540]
 112              	.LVL8:
 113              		.loc 1 98 0 discriminator 2
 114 008a 0136     		adds	r6, r6, #1
ARM GAS  C:\Users\CHRIST~1\AppData\Local\Temp\ccV63U8T.s 			page 3


 115              	.LVL9:
 116 008c 1032     		adds	r2, r2, #16
 117              	.LVL10:
 118 008e B542     		cmp	r5, r6
 119 0090 3DD0     		beq	.L8
 120              	.LVL11:
 121              	.L7:
 122 0092 A2F11001 		sub	r1, r2, #16
 123              	.LVL12:
 124 0096 1446     		mov	r4, r2
 125              		.loc 1 99 0
 126 0098 52F8100C 		ldr	r0, [r2, #-16]
 127 009c 0CFA00F0 		lsl	r0, ip, r0
 128              	.LVL13:
 129              		.loc 1 100 0
 130 00a0 0F79     		ldrb	r7, [r1, #4]	@ zero_extendqisi2
 131 00a2 17F0010F 		tst	r7, #1
 132 00a6 04D0     		beq	.L4
 133              		.loc 1 101 0
 134 00a8 D3F80472 		ldr	r7, [r3, #516]
 135 00ac 0743     		orrs	r7, r7, r0
 136 00ae C3F80472 		str	r7, [r3, #516]
 137              	.L4:
 138              		.loc 1 102 0
 139 00b2 0F79     		ldrb	r7, [r1, #4]	@ zero_extendqisi2
 140 00b4 17F0020F 		tst	r7, #2
 141 00b8 04D0     		beq	.L5
 142              		.loc 1 103 0
 143 00ba D3F80C72 		ldr	r7, [r3, #524]
 144 00be 0743     		orrs	r7, r7, r0
 145 00c0 C3F80C72 		str	r7, [r3, #524]
 146              	.L5:
 147              		.loc 1 104 0
 148 00c4 0979     		ldrb	r1, [r1, #4]	@ zero_extendqisi2
 149              	.LVL14:
 150 00c6 11F0040F 		tst	r1, #4
 151 00ca CAD0     		beq	.L6
 152              		.loc 1 105 0
 153 00cc D3F81412 		ldr	r1, [r3, #532]
 154 00d0 0143     		orrs	r1, r1, r0
 155 00d2 C3F81412 		str	r1, [r3, #532]
 156 00d6 C4E7     		b	.L6
 157              	.LVL15:
 158              	.L2:
 159              	.LBE161:
 160              		.loc 1 115 0
 161 00d8 154B     		ldr	r3, .L12+4
 162 00da 0022     		movs	r2, #0
 163              	.LVL16:
 164 00dc C3F84022 		str	r2, [r3, #576]
 165              		.loc 1 116 0
 166 00e0 C3F84422 		str	r2, [r3, #580]
 167 00e4 C100     		lsls	r1, r0, #3
 168              	.LVL17:
 169 00e6 01F18041 		add	r1, r1, #1073741824
 170 00ea 01F5C841 		add	r1, r1, #25600
 171              		.loc 1 118 0
ARM GAS  C:\Users\CHRIST~1\AppData\Local\Temp\ccV63U8T.s 			page 4


 172 00ee C1F84022 		str	r2, [r1, #576]
 173              		.loc 1 119 0
 174 00f2 C1F84422 		str	r2, [r1, #580]
 175              		.loc 1 121 0
 176 00f6 C3F80422 		str	r2, [r3, #516]
 177              		.loc 1 122 0
 178 00fa C3F81422 		str	r2, [r3, #532]
 179              		.loc 1 124 0
 180 00fe 0122     		movs	r2, #1
 181 0100 8240     		lsls	r2, r2, r0
 182 0102 42F00102 		orr	r2, r2, #1
 183 0106 C3F80C22 		str	r2, [r3, #524]
 184              		.loc 1 125 0
 185 010a C3F81C22 		str	r2, [r3, #540]
 186              	.LVL18:
 187              	.L8:
 188              		.loc 1 131 0
 189 010e 084A     		ldr	r2, .L12+4
 190 0110 D2F80032 		ldr	r3, [r2, #512]
 191 0114 23F00103 		bic	r3, r3, #1
 192 0118 C2F80032 		str	r3, [r2, #512]
 193              		.loc 1 134 0
 194 011c 02F5EA32 		add	r2, r2, #119808
 195 0120 136C     		ldr	r3, [r2, #64]
 196 0122 23F00073 		bic	r3, r3, #33554432
 197 0126 1364     		str	r3, [r2, #64]
 198              		.loc 1 135 0
 199 0128 F0BC     		pop	{r4, r5, r6, r7}
 200              		.cfi_restore 7
 201              		.cfi_restore 6
 202              		.cfi_restore 5
 203              		.cfi_restore 4
 204              		.cfi_def_cfa_offset 0
 205 012a 7047     		bx	lr
 206              	.L13:
 207              		.align	2
 208              	.L12:
 209 012c 00380240 		.word	1073887232
 210 0130 00640040 		.word	1073767424
 211              		.cfi_endproc
 212              	.LFE256:
 213              		.size	can_lld_set_filters, .-can_lld_set_filters
 214              		.section	.text.Vector8C,"ax",%progbits
 215              		.align	1
 216              		.p2align 4,,15
 217              		.global	Vector8C
 218              		.syntax unified
 219              		.thumb
 220              		.thumb_func
 221              		.fpu fpv4-sp-d16
 222              		.type	Vector8C, %function
 223              	Vector8C:
 224              	.LFB261:
 225              		.loc 1 292 0
 226              		.cfi_startproc
 227              		@ args = 0, pretend = 0, frame = 0
 228              		@ frame_needed = 0, uses_anonymous_args = 0
ARM GAS  C:\Users\CHRIST~1\AppData\Local\Temp\ccV63U8T.s 			page 5


 229 0000 10B5     		push	{r4, lr}
 230              		.cfi_def_cfa_offset 8
 231              		.cfi_offset 4, -8
 232              		.cfi_offset 14, -4
 233              	.LVL19:
 234              	.LBB180:
 235              	.LBB181:
 236              		.loc 1 147 0
 237 0002 0B4C     		ldr	r4, .L16
 238 0004 E36A     		ldr	r3, [r4, #44]
 239 0006 0B4A     		ldr	r2, .L16+4
 240 0008 9A60     		str	r2, [r3, #8]
 241              	.LVL20:
 242              	.LBB182:
 243              	.LBB183:
 244              	.LBB184:
 245              	.LBB185:
 246              	.LBB186:
 247              	.LBB187:
 248              		.file 2 "ChibiOS_3.0.2/os/ext/CMSIS/include/core_cmFunc.h"
 249              		.loc 2 546 0
 250 000a 2023     		movs	r3, #32
 251              		.syntax unified
 252              	@ 546 "ChibiOS_3.0.2/os/ext/CMSIS/include/core_cmFunc.h" 1
 253 000c 83F31188 		MSR basepri, r3
 254              	@ 0 "" 2
 255              	.LVL21:
 256              		.thumb
 257              		.syntax unified
 258              	.LBE187:
 259              	.LBE186:
 260              	.LBE185:
 261              	.LBE184:
 262              	.LBE183:
 263              	.LBE182:
 264              	.LBB188:
 265              	.LBB189:
 266              		.file 3 "ChibiOS_3.0.2/os/hal/osal/rt/osal.h"
 267              		.loc 3 810 0
 268 0010 0021     		movs	r1, #0
 269 0012 04F10800 		add	r0, r4, #8
 270 0016 FFF7FEFF 		bl	chThdDequeueAllI
 271              	.LVL22:
 272              	.LBE189:
 273              	.LBE188:
 274              	.LBB190:
 275              	.LBB191:
 276              		.loc 3 844 0
 277 001a 0121     		movs	r1, #1
 278 001c 04F11C00 		add	r0, r4, #28
 279 0020 FFF7FEFF 		bl	chEvtBroadcastFlagsI
 280              	.LVL23:
 281              	.LBE191:
 282              	.LBE190:
 283              	.LBB192:
 284              	.LBB193:
 285              	.LBB194:
ARM GAS  C:\Users\CHRIST~1\AppData\Local\Temp\ccV63U8T.s 			page 6


 286              	.LBB195:
 287              	.LBB196:
 288              	.LBB197:
 289              		.loc 2 546 0
 290 0024 0023     		movs	r3, #0
 291              		.syntax unified
 292              	@ 546 "ChibiOS_3.0.2/os/ext/CMSIS/include/core_cmFunc.h" 1
 293 0026 83F31188 		MSR basepri, r3
 294              	@ 0 "" 2
 295              	.LVL24:
 296              		.thumb
 297              		.syntax unified
 298              	.LBE197:
 299              	.LBE196:
 300              	.LBE195:
 301              	.LBE194:
 302              	.LBE193:
 303              	.LBE192:
 304              	.LBE181:
 305              	.LBE180:
 306              		.loc 1 298 0
 307 002a FFF7FEFF 		bl	_port_irq_epilogue
 308              	.LVL25:
 309              		.loc 1 299 0
 310 002e 10BD     		pop	{r4, pc}
 311              	.L17:
 312              		.align	2
 313              	.L16:
 314 0030 00000000 		.word	.LANCHOR0
 315 0034 01010100 		.word	65793
 316              		.cfi_endproc
 317              	.LFE261:
 318              		.size	Vector8C, .-Vector8C
 319              		.section	.text.Vector90,"ax",%progbits
 320              		.align	1
 321              		.p2align 4,,15
 322              		.global	Vector90
 323              		.syntax unified
 324              		.thumb
 325              		.thumb_func
 326              		.fpu fpv4-sp-d16
 327              		.type	Vector90, %function
 328              	Vector90:
 329              	.LFB262:
 330              		.loc 1 306 0
 331              		.cfi_startproc
 332              		@ args = 0, pretend = 0, frame = 0
 333              		@ frame_needed = 0, uses_anonymous_args = 0
 334 0000 38B5     		push	{r3, r4, r5, lr}
 335              		.cfi_def_cfa_offset 16
 336              		.cfi_offset 3, -16
 337              		.cfi_offset 4, -12
 338              		.cfi_offset 5, -8
 339              		.cfi_offset 14, -4
 340              	.LVL26:
 341              	.LBB230:
 342              	.LBB231:
ARM GAS  C:\Users\CHRIST~1\AppData\Local\Temp\ccV63U8T.s 			page 7


 343              		.loc 1 164 0
 344 0002 184B     		ldr	r3, .L24
 345 0004 DB6A     		ldr	r3, [r3, #44]
 346 0006 DC68     		ldr	r4, [r3, #12]
 347              	.LVL27:
 348              		.loc 1 165 0
 349 0008 14F0030F 		tst	r4, #3
 350 000c 05D1     		bne	.L22
 351              	.L19:
 352              		.loc 1 173 0
 353 000e 14F0100F 		tst	r4, #16
 354 0012 18D1     		bne	.L23
 355              	.L20:
 356              	.LVL28:
 357              	.LBE231:
 358              	.LBE230:
 359              		.loc 1 312 0
 360 0014 FFF7FEFF 		bl	_port_irq_epilogue
 361              	.LVL29:
 362              		.loc 1 313 0
 363 0018 38BD     		pop	{r3, r4, r5, pc}
 364              	.LVL30:
 365              	.L22:
 366              	.LBB263:
 367              	.LBB262:
 368              		.loc 1 167 0
 369 001a 5A69     		ldr	r2, [r3, #20]
 370 001c 22F00202 		bic	r2, r2, #2
 371 0020 5A61     		str	r2, [r3, #20]
 372              	.LVL31:
 373              	.LBB232:
 374              	.LBB233:
 375              	.LBB234:
 376              	.LBB235:
 377              	.LBB236:
 378              	.LBB237:
 379              		.loc 2 546 0
 380 0022 2023     		movs	r3, #32
 381              		.syntax unified
 382              	@ 546 "ChibiOS_3.0.2/os/ext/CMSIS/include/core_cmFunc.h" 1
 383 0024 83F31188 		MSR basepri, r3
 384              	@ 0 "" 2
 385              	.LVL32:
 386              		.thumb
 387              		.syntax unified
 388              	.LBE237:
 389              	.LBE236:
 390              	.LBE235:
 391              	.LBE234:
 392              	.LBE233:
 393              	.LBE232:
 394              	.LBB238:
 395              	.LBB239:
 396              		.loc 3 810 0
 397 0028 0E4D     		ldr	r5, .L24
 398 002a 0021     		movs	r1, #0
 399 002c 05F11000 		add	r0, r5, #16
ARM GAS  C:\Users\CHRIST~1\AppData\Local\Temp\ccV63U8T.s 			page 8


 400 0030 FFF7FEFF 		bl	chThdDequeueAllI
 401              	.LVL33:
 402              	.LBE239:
 403              	.LBE238:
 404              	.LBB240:
 405              	.LBB241:
 406              		.loc 3 844 0
 407 0034 0121     		movs	r1, #1
 408 0036 05F11800 		add	r0, r5, #24
 409 003a FFF7FEFF 		bl	chEvtBroadcastFlagsI
 410              	.LVL34:
 411              	.LBE241:
 412              	.LBE240:
 413              	.LBB242:
 414              	.LBB243:
 415              	.LBB244:
 416              	.LBB245:
 417              	.LBB246:
 418              	.LBB247:
 419              		.loc 2 546 0
 420 003e 0023     		movs	r3, #0
 421              		.syntax unified
 422              	@ 546 "ChibiOS_3.0.2/os/ext/CMSIS/include/core_cmFunc.h" 1
 423 0040 83F31188 		MSR basepri, r3
 424              	@ 0 "" 2
 425              	.LVL35:
 426              		.thumb
 427              		.syntax unified
 428 0044 E3E7     		b	.L19
 429              	.L23:
 430              	.LBE247:
 431              	.LBE246:
 432              	.LBE245:
 433              	.LBE244:
 434              	.LBE243:
 435              	.LBE242:
 436              		.loc 1 175 0
 437 0046 0748     		ldr	r0, .L24
 438 0048 C36A     		ldr	r3, [r0, #44]
 439 004a 1021     		movs	r1, #16
 440 004c D960     		str	r1, [r3, #12]
 441              	.LVL36:
 442              	.LBB248:
 443              	.LBB249:
 444              	.LBB250:
 445              	.LBB251:
 446              	.LBB252:
 447              	.LBB253:
 448              		.loc 2 546 0
 449 004e 2023     		movs	r3, #32
 450              		.syntax unified
 451              	@ 546 "ChibiOS_3.0.2/os/ext/CMSIS/include/core_cmFunc.h" 1
 452 0050 83F31188 		MSR basepri, r3
 453              	@ 0 "" 2
 454              	.LVL37:
 455              		.thumb
 456              		.syntax unified
ARM GAS  C:\Users\CHRIST~1\AppData\Local\Temp\ccV63U8T.s 			page 9


 457              	.LBE253:
 458              	.LBE252:
 459              	.LBE251:
 460              	.LBE250:
 461              	.LBE249:
 462              	.LBE248:
 463              	.LBB254:
 464              	.LBB255:
 465              		.loc 3 844 0
 466 0054 1844     		add	r0, r0, r3
 467 0056 FFF7FEFF 		bl	chEvtBroadcastFlagsI
 468              	.LVL38:
 469              	.LBE255:
 470              	.LBE254:
 471              	.LBB256:
 472              	.LBB257:
 473              	.LBB258:
 474              	.LBB259:
 475              	.LBB260:
 476              	.LBB261:
 477              		.loc 2 546 0
 478 005a 0023     		movs	r3, #0
 479              		.syntax unified
 480              	@ 546 "ChibiOS_3.0.2/os/ext/CMSIS/include/core_cmFunc.h" 1
 481 005c 83F31188 		MSR basepri, r3
 482              	@ 0 "" 2
 483              	.LVL39:
 484              		.thumb
 485              		.syntax unified
 486 0060 D8E7     		b	.L20
 487              	.L25:
 488 0062 00BF     		.align	2
 489              	.L24:
 490 0064 00000000 		.word	.LANCHOR0
 491              	.LBE261:
 492              	.LBE260:
 493              	.LBE259:
 494              	.LBE258:
 495              	.LBE257:
 496              	.LBE256:
 497              	.LBE262:
 498              	.LBE263:
 499              		.cfi_endproc
 500              	.LFE262:
 501              		.size	Vector90, .-Vector90
 502              		.section	.text.Vector94,"ax",%progbits
 503              		.align	1
 504              		.p2align 4,,15
 505              		.global	Vector94
 506              		.syntax unified
 507              		.thumb
 508              		.thumb_func
 509              		.fpu fpv4-sp-d16
 510              		.type	Vector94, %function
 511              	Vector94:
 512              	.LFB263:
 513              		.loc 1 320 0
ARM GAS  C:\Users\CHRIST~1\AppData\Local\Temp\ccV63U8T.s 			page 10


 514              		.cfi_startproc
 515              		@ args = 0, pretend = 0, frame = 0
 516              		@ frame_needed = 0, uses_anonymous_args = 0
 517 0000 38B5     		push	{r3, r4, r5, lr}
 518              		.cfi_def_cfa_offset 16
 519              		.cfi_offset 3, -16
 520              		.cfi_offset 4, -12
 521              		.cfi_offset 5, -8
 522              		.cfi_offset 14, -4
 523              	.LVL40:
 524              	.LBB296:
 525              	.LBB297:
 526              		.loc 1 192 0
 527 0002 184B     		ldr	r3, .L32
 528 0004 DB6A     		ldr	r3, [r3, #44]
 529 0006 1C69     		ldr	r4, [r3, #16]
 530              	.LVL41:
 531              		.loc 1 193 0
 532 0008 14F0030F 		tst	r4, #3
 533 000c 05D1     		bne	.L30
 534              	.L27:
 535              		.loc 1 201 0
 536 000e 14F0100F 		tst	r4, #16
 537 0012 18D1     		bne	.L31
 538              	.L28:
 539              	.LVL42:
 540              	.LBE297:
 541              	.LBE296:
 542              		.loc 1 326 0
 543 0014 FFF7FEFF 		bl	_port_irq_epilogue
 544              	.LVL43:
 545              		.loc 1 327 0
 546 0018 38BD     		pop	{r3, r4, r5, pc}
 547              	.LVL44:
 548              	.L30:
 549              	.LBB329:
 550              	.LBB328:
 551              		.loc 1 195 0
 552 001a 5A69     		ldr	r2, [r3, #20]
 553 001c 22F01002 		bic	r2, r2, #16
 554 0020 5A61     		str	r2, [r3, #20]
 555              	.LVL45:
 556              	.LBB298:
 557              	.LBB299:
 558              	.LBB300:
 559              	.LBB301:
 560              	.LBB302:
 561              	.LBB303:
 562              		.loc 2 546 0
 563 0022 2023     		movs	r3, #32
 564              		.syntax unified
 565              	@ 546 "ChibiOS_3.0.2/os/ext/CMSIS/include/core_cmFunc.h" 1
 566 0024 83F31188 		MSR basepri, r3
 567              	@ 0 "" 2
 568              	.LVL46:
 569              		.thumb
 570              		.syntax unified
ARM GAS  C:\Users\CHRIST~1\AppData\Local\Temp\ccV63U8T.s 			page 11


 571              	.LBE303:
 572              	.LBE302:
 573              	.LBE301:
 574              	.LBE300:
 575              	.LBE299:
 576              	.LBE298:
 577              	.LBB304:
 578              	.LBB305:
 579              		.loc 3 810 0
 580 0028 0E4D     		ldr	r5, .L32
 581 002a 0021     		movs	r1, #0
 582 002c 05F11000 		add	r0, r5, #16
 583 0030 FFF7FEFF 		bl	chThdDequeueAllI
 584              	.LVL47:
 585              	.LBE305:
 586              	.LBE304:
 587              	.LBB306:
 588              	.LBB307:
 589              		.loc 3 844 0
 590 0034 0221     		movs	r1, #2
 591 0036 05F11800 		add	r0, r5, #24
 592 003a FFF7FEFF 		bl	chEvtBroadcastFlagsI
 593              	.LVL48:
 594              	.LBE307:
 595              	.LBE306:
 596              	.LBB308:
 597              	.LBB309:
 598              	.LBB310:
 599              	.LBB311:
 600              	.LBB312:
 601              	.LBB313:
 602              		.loc 2 546 0
 603 003e 0023     		movs	r3, #0
 604              		.syntax unified
 605              	@ 546 "ChibiOS_3.0.2/os/ext/CMSIS/include/core_cmFunc.h" 1
 606 0040 83F31188 		MSR basepri, r3
 607              	@ 0 "" 2
 608              	.LVL49:
 609              		.thumb
 610              		.syntax unified
 611 0044 E3E7     		b	.L27
 612              	.L31:
 613              	.LBE313:
 614              	.LBE312:
 615              	.LBE311:
 616              	.LBE310:
 617              	.LBE309:
 618              	.LBE308:
 619              		.loc 1 203 0
 620 0046 0748     		ldr	r0, .L32
 621 0048 C36A     		ldr	r3, [r0, #44]
 622 004a 1021     		movs	r1, #16
 623 004c 1961     		str	r1, [r3, #16]
 624              	.LVL50:
 625              	.LBB314:
 626              	.LBB315:
 627              	.LBB316:
ARM GAS  C:\Users\CHRIST~1\AppData\Local\Temp\ccV63U8T.s 			page 12


 628              	.LBB317:
 629              	.LBB318:
 630              	.LBB319:
 631              		.loc 2 546 0
 632 004e 2023     		movs	r3, #32
 633              		.syntax unified
 634              	@ 546 "ChibiOS_3.0.2/os/ext/CMSIS/include/core_cmFunc.h" 1
 635 0050 83F31188 		MSR basepri, r3
 636              	@ 0 "" 2
 637              	.LVL51:
 638              		.thumb
 639              		.syntax unified
 640              	.LBE319:
 641              	.LBE318:
 642              	.LBE317:
 643              	.LBE316:
 644              	.LBE315:
 645              	.LBE314:
 646              	.LBB320:
 647              	.LBB321:
 648              		.loc 3 844 0
 649 0054 1844     		add	r0, r0, r3
 650 0056 FFF7FEFF 		bl	chEvtBroadcastFlagsI
 651              	.LVL52:
 652              	.LBE321:
 653              	.LBE320:
 654              	.LBB322:
 655              	.LBB323:
 656              	.LBB324:
 657              	.LBB325:
 658              	.LBB326:
 659              	.LBB327:
 660              		.loc 2 546 0
 661 005a 0023     		movs	r3, #0
 662              		.syntax unified
 663              	@ 546 "ChibiOS_3.0.2/os/ext/CMSIS/include/core_cmFunc.h" 1
 664 005c 83F31188 		MSR basepri, r3
 665              	@ 0 "" 2
 666              	.LVL53:
 667              		.thumb
 668              		.syntax unified
 669 0060 D8E7     		b	.L28
 670              	.L33:
 671 0062 00BF     		.align	2
 672              	.L32:
 673 0064 00000000 		.word	.LANCHOR0
 674              	.LBE327:
 675              	.LBE326:
 676              	.LBE325:
 677              	.LBE324:
 678              	.LBE323:
 679              	.LBE322:
 680              	.LBE328:
 681              	.LBE329:
 682              		.cfi_endproc
 683              	.LFE263:
 684              		.size	Vector94, .-Vector94
ARM GAS  C:\Users\CHRIST~1\AppData\Local\Temp\ccV63U8T.s 			page 13


 685              		.section	.text.Vector98,"ax",%progbits
 686              		.align	1
 687              		.p2align 4,,15
 688              		.global	Vector98
 689              		.syntax unified
 690              		.thumb
 691              		.thumb_func
 692              		.fpu fpv4-sp-d16
 693              		.type	Vector98, %function
 694              	Vector98:
 695              	.LFB264:
 696              		.loc 1 334 0
 697              		.cfi_startproc
 698              		@ args = 0, pretend = 0, frame = 0
 699              		@ frame_needed = 0, uses_anonymous_args = 0
 700 0000 10B5     		push	{r4, lr}
 701              		.cfi_def_cfa_offset 8
 702              		.cfi_offset 4, -8
 703              		.cfi_offset 14, -4
 704              	.LVL54:
 705              	.LBB361:
 706              	.LBB362:
 707              		.loc 1 220 0
 708 0002 1D4B     		ldr	r3, .L40
 709 0004 DB6A     		ldr	r3, [r3, #44]
 710 0006 5C68     		ldr	r4, [r3, #4]
 711              	.LVL55:
 712              		.loc 1 221 0
 713 0008 1C22     		movs	r2, #28
 714 000a 5A60     		str	r2, [r3, #4]
 715              		.loc 1 224 0
 716 000c 14F0080F 		tst	r4, #8
 717 0010 1ED1     		bne	.L39
 718              	.L35:
 719              		.loc 1 233 0
 720 0012 14F0040F 		tst	r4, #4
 721 0016 18D0     		beq	.L36
 722              	.LBB363:
 723              		.loc 1 235 0
 724 0018 174B     		ldr	r3, .L40
 725 001a DA6A     		ldr	r2, [r3, #44]
 726 001c 9369     		ldr	r3, [r2, #24]
 727              	.LVL56:
 728              		.loc 1 237 0
 729 001e 9169     		ldr	r1, [r2, #24]
 730 0020 21F07001 		bic	r1, r1, #112
 731 0024 9161     		str	r1, [r2, #24]
 732              		.loc 1 238 0
 733 0026 03F00701 		and	r1, r3, #7
 734              	.LVL57:
 735              		.loc 1 239 0
 736 002a 13F0700F 		tst	r3, #112
 737              		.loc 1 240 0
 738 002e 18BF     		it	ne
 739 0030 41F00801 		orrne	r1, r1, #8
 740              	.LVL58:
 741              	.LBB364:
ARM GAS  C:\Users\CHRIST~1\AppData\Local\Temp\ccV63U8T.s 			page 14


 742              	.LBB365:
 743              	.LBB366:
 744              	.LBB367:
 745              	.LBB368:
 746              	.LBB369:
 747              		.loc 2 546 0
 748 0034 2022     		movs	r2, #32
 749              		.syntax unified
 750              	@ 546 "ChibiOS_3.0.2/os/ext/CMSIS/include/core_cmFunc.h" 1
 751 0036 82F31188 		MSR basepri, r2
 752              	@ 0 "" 2
 753              	.LVL59:
 754              		.thumb
 755              		.syntax unified
 756              	.LBE369:
 757              	.LBE368:
 758              	.LBE367:
 759              	.LBE366:
 760              	.LBE365:
 761              	.LBE364:
 762              	.LBB370:
 763              	.LBB371:
 764              		.loc 3 844 0
 765 003a 41EA0341 		orr	r1, r1, r3, lsl #16
 766              	.LVL60:
 767 003e 0F48     		ldr	r0, .L40+4
 768 0040 FFF7FEFF 		bl	chEvtBroadcastFlagsI
 769              	.LVL61:
 770              	.LBE371:
 771              	.LBE370:
 772              	.LBB372:
 773              	.LBB373:
 774              	.LBB374:
 775              	.LBB375:
 776              	.LBB376:
 777              	.LBB377:
 778              		.loc 2 546 0
 779 0044 0023     		movs	r3, #0
 780              		.syntax unified
 781              	@ 546 "ChibiOS_3.0.2/os/ext/CMSIS/include/core_cmFunc.h" 1
 782 0046 83F31188 		MSR basepri, r3
 783              	@ 0 "" 2
 784              	.LVL62:
 785              		.thumb
 786              		.syntax unified
 787              	.L36:
 788              	.LBE377:
 789              	.LBE376:
 790              	.LBE375:
 791              	.LBE374:
 792              	.LBE373:
 793              	.LBE372:
 794              	.LBE363:
 795              	.LBE362:
 796              	.LBE361:
 797              		.loc 1 340 0
 798 004a FFF7FEFF 		bl	_port_irq_epilogue
ARM GAS  C:\Users\CHRIST~1\AppData\Local\Temp\ccV63U8T.s 			page 15


 799              	.LVL63:
 800              		.loc 1 341 0
 801 004e 10BD     		pop	{r4, pc}
 802              	.LVL64:
 803              	.L39:
 804              	.LBB393:
 805              	.LBB392:
 806              		.loc 1 225 0
 807 0050 0948     		ldr	r0, .L40
 808 0052 0323     		movs	r3, #3
 809 0054 0370     		strb	r3, [r0]
 810              		.loc 1 226 0
 811 0056 C26A     		ldr	r2, [r0, #44]
 812 0058 1368     		ldr	r3, [r2]
 813 005a 23F00203 		bic	r3, r3, #2
 814 005e 1360     		str	r3, [r2]
 815              	.LVL65:
 816              	.LBB378:
 817              	.LBB379:
 818              	.LBB380:
 819              	.LBB381:
 820              	.LBB382:
 821              	.LBB383:
 822              		.loc 2 546 0
 823 0060 2023     		movs	r3, #32
 824              		.syntax unified
 825              	@ 546 "ChibiOS_3.0.2/os/ext/CMSIS/include/core_cmFunc.h" 1
 826 0062 83F31188 		MSR basepri, r3
 827              	@ 0 "" 2
 828              	.LVL66:
 829              		.thumb
 830              		.syntax unified
 831              	.LBE383:
 832              	.LBE382:
 833              	.LBE381:
 834              	.LBE380:
 835              	.LBE379:
 836              	.LBE378:
 837              	.LBB384:
 838              	.LBB385:
 839              		.loc 3 844 0
 840 0066 0021     		movs	r1, #0
 841 0068 2830     		adds	r0, r0, #40
 842 006a FFF7FEFF 		bl	chEvtBroadcastFlagsI
 843              	.LVL67:
 844              	.LBE385:
 845              	.LBE384:
 846              	.LBB386:
 847              	.LBB387:
 848              	.LBB388:
 849              	.LBB389:
 850              	.LBB390:
 851              	.LBB391:
 852              		.loc 2 546 0
 853 006e 0023     		movs	r3, #0
 854              		.syntax unified
 855              	@ 546 "ChibiOS_3.0.2/os/ext/CMSIS/include/core_cmFunc.h" 1
ARM GAS  C:\Users\CHRIST~1\AppData\Local\Temp\ccV63U8T.s 			page 16


 856 0070 83F31188 		MSR basepri, r3
 857              	@ 0 "" 2
 858              	.LVL68:
 859              		.thumb
 860              		.syntax unified
 861 0074 CDE7     		b	.L35
 862              	.L41:
 863 0076 00BF     		.align	2
 864              	.L40:
 865 0078 00000000 		.word	.LANCHOR0
 866 007c 20000000 		.word	.LANCHOR0+32
 867              	.LBE391:
 868              	.LBE390:
 869              	.LBE389:
 870              	.LBE388:
 871              	.LBE387:
 872              	.LBE386:
 873              	.LBE392:
 874              	.LBE393:
 875              		.cfi_endproc
 876              	.LFE264:
 877              		.size	Vector98, .-Vector98
 878              		.section	.text.can_lld_init,"ax",%progbits
 879              		.align	1
 880              		.p2align 4,,15
 881              		.global	can_lld_init
 882              		.syntax unified
 883              		.thumb
 884              		.thumb_func
 885              		.fpu fpv4-sp-d16
 886              		.type	can_lld_init, %function
 887              	can_lld_init:
 888              	.LFB265:
 889              		.loc 1 445 0
 890              		.cfi_startproc
 891              		@ args = 0, pretend = 0, frame = 0
 892              		@ frame_needed = 0, uses_anonymous_args = 0
 893 0000 10B5     		push	{r4, lr}
 894              		.cfi_def_cfa_offset 8
 895              		.cfi_offset 4, -8
 896              		.cfi_offset 14, -4
 897              		.loc 1 449 0
 898 0002 064C     		ldr	r4, .L44
 899 0004 2046     		mov	r0, r4
 900 0006 FFF7FEFF 		bl	canObjectInit
 901              	.LVL69:
 902              		.loc 1 450 0
 903 000a 054B     		ldr	r3, .L44+4
 904 000c E362     		str	r3, [r4, #44]
 905              		.loc 1 460 0
 906 000e 0022     		movs	r2, #0
 907 0010 1146     		mov	r1, r2
 908 0012 0E20     		movs	r0, #14
 909 0014 FFF7FEFF 		bl	can_lld_set_filters
 910              	.LVL70:
 911              		.loc 1 464 0
 912 0018 10BD     		pop	{r4, pc}
ARM GAS  C:\Users\CHRIST~1\AppData\Local\Temp\ccV63U8T.s 			page 17


 913              	.L45:
 914 001a 00BF     		.align	2
 915              	.L44:
 916 001c 00000000 		.word	.LANCHOR0
 917 0020 00640040 		.word	1073767424
 918              		.cfi_endproc
 919              	.LFE265:
 920              		.size	can_lld_init, .-can_lld_init
 921              		.section	.text.can_lld_start,"ax",%progbits
 922              		.align	1
 923              		.p2align 4,,15
 924              		.global	can_lld_start
 925              		.syntax unified
 926              		.thumb
 927              		.thumb_func
 928              		.fpu fpv4-sp-d16
 929              		.type	can_lld_start, %function
 930              	can_lld_start:
 931              	.LFB266:
 932              		.loc 1 473 0
 933              		.cfi_startproc
 934              		@ args = 0, pretend = 0, frame = 0
 935              		@ frame_needed = 0, uses_anonymous_args = 0
 936              	.LVL71:
 937 0000 70B5     		push	{r4, r5, r6, lr}
 938              		.cfi_def_cfa_offset 16
 939              		.cfi_offset 4, -16
 940              		.cfi_offset 5, -12
 941              		.cfi_offset 6, -8
 942              		.cfi_offset 14, -4
 943 0002 0446     		mov	r4, r0
 944              		.loc 1 477 0
 945 0004 1B4B     		ldr	r3, .L53
 946 0006 9842     		cmp	r0, r3
 947 0008 1DD0     		beq	.L52
 948              	.LVL72:
 949              	.L47:
 950              		.loc 1 507 0
 951 000a E36A     		ldr	r3, [r4, #44]
 952 000c 0122     		movs	r2, #1
 953 000e 1A60     		str	r2, [r3]
 954              		.loc 1 508 0
 955 0010 E36A     		ldr	r3, [r4, #44]
 956 0012 5A68     		ldr	r2, [r3, #4]
 957 0014 12F0010F 		tst	r2, #1
 958 0018 0AD1     		bne	.L48
 959              	.LBB394:
 960              	.LBB395:
 961              	.LBB396:
 962              		.file 4 "ChibiOS_3.0.2/os/rt/include/chthreads.h"
 963              		.loc 4 268 0
 964 001a 0126     		movs	r6, #1
 965 001c 0825     		movs	r5, #8
 966              	.L49:
 967              	.LVL73:
 968 001e 3146     		mov	r1, r6
 969 0020 2846     		mov	r0, r5
ARM GAS  C:\Users\CHRIST~1\AppData\Local\Temp\ccV63U8T.s 			page 18


 970 0022 FFF7FEFF 		bl	chSchGoSleepTimeoutS
 971              	.LVL74:
 972              	.LBE396:
 973              	.LBE395:
 974              	.LBE394:
 975              		.loc 1 508 0
 976 0026 E36A     		ldr	r3, [r4, #44]
 977 0028 5A68     		ldr	r2, [r3, #4]
 978 002a 12F0010F 		tst	r2, #1
 979 002e F6D0     		beq	.L49
 980              	.LVL75:
 981              	.L48:
 982              		.loc 1 510 0
 983 0030 6268     		ldr	r2, [r4, #4]
 984 0032 5268     		ldr	r2, [r2, #4]
 985 0034 DA61     		str	r2, [r3, #28]
 986              		.loc 1 511 0
 987 0036 E36A     		ldr	r3, [r4, #44]
 988 0038 6268     		ldr	r2, [r4, #4]
 989 003a 1268     		ldr	r2, [r2]
 990 003c 1A60     		str	r2, [r3]
 991              		.loc 1 514 0
 992 003e E36A     		ldr	r3, [r4, #44]
 993 0040 0D4A     		ldr	r2, .L53+4
 994 0042 5A61     		str	r2, [r3, #20]
 995              		.loc 1 518 0
 996 0044 70BD     		pop	{r4, r5, r6, pc}
 997              	.LVL76:
 998              	.L52:
 999              		.loc 1 481 0
 1000 0046 0B21     		movs	r1, #11
 1001 0048 1320     		movs	r0, #19
 1002              	.LVL77:
 1003 004a FFF7FEFF 		bl	nvicEnableVector
 1004              	.LVL78:
 1005              		.loc 1 482 0
 1006 004e 0B21     		movs	r1, #11
 1007 0050 1420     		movs	r0, #20
 1008 0052 FFF7FEFF 		bl	nvicEnableVector
 1009              	.LVL79:
 1010              		.loc 1 483 0
 1011 0056 0B21     		movs	r1, #11
 1012 0058 1520     		movs	r0, #21
 1013 005a FFF7FEFF 		bl	nvicEnableVector
 1014              	.LVL80:
 1015              		.loc 1 484 0
 1016 005e 0B21     		movs	r1, #11
 1017 0060 1620     		movs	r0, #22
 1018 0062 FFF7FEFF 		bl	nvicEnableVector
 1019              	.LVL81:
 1020              		.loc 1 486 0
 1021 0066 054A     		ldr	r2, .L53+8
 1022 0068 136C     		ldr	r3, [r2, #64]
 1023 006a 43F00073 		orr	r3, r3, #33554432
 1024 006e 1364     		str	r3, [r2, #64]
 1025 0070 CBE7     		b	.L47
 1026              	.L54:
ARM GAS  C:\Users\CHRIST~1\AppData\Local\Temp\ccV63U8T.s 			page 19


 1027 0072 00BF     		.align	2
 1028              	.L53:
 1029 0074 00000000 		.word	.LANCHOR0
 1030 0078 5B8F0100 		.word	102235
 1031 007c 00380240 		.word	1073887232
 1032              		.cfi_endproc
 1033              	.LFE266:
 1034              		.size	can_lld_start, .-can_lld_start
 1035              		.section	.text.can_lld_stop,"ax",%progbits
 1036              		.align	1
 1037              		.p2align 4,,15
 1038              		.global	can_lld_stop
 1039              		.syntax unified
 1040              		.thumb
 1041              		.thumb_func
 1042              		.fpu fpv4-sp-d16
 1043              		.type	can_lld_stop, %function
 1044              	can_lld_stop:
 1045              	.LFB267:
 1046              		.loc 1 527 0
 1047              		.cfi_startproc
 1048              		@ args = 0, pretend = 0, frame = 0
 1049              		@ frame_needed = 0, uses_anonymous_args = 0
 1050              	.LVL82:
 1051 0000 08B5     		push	{r3, lr}
 1052              		.cfi_def_cfa_offset 8
 1053              		.cfi_offset 3, -8
 1054              		.cfi_offset 14, -4
 1055              		.loc 1 530 0
 1056 0002 0378     		ldrb	r3, [r0]	@ zero_extendqisi2
 1057 0004 032B     		cmp	r3, #3
 1058 0006 00D0     		beq	.L58
 1059              	.LVL83:
 1060              	.L55:
 1061              		.loc 1 567 0
 1062 0008 08BD     		pop	{r3, pc}
 1063              	.LVL84:
 1064              	.L58:
 1065              		.loc 1 532 0
 1066 000a 0D4B     		ldr	r3, .L59
 1067 000c 9842     		cmp	r0, r3
 1068 000e FBD1     		bne	.L55
 1069              		.loc 1 538 0
 1070 0010 0C4B     		ldr	r3, .L59+4
 1071 0012 0D4A     		ldr	r2, .L59+8
 1072 0014 1A60     		str	r2, [r3]
 1073              		.loc 1 539 0
 1074 0016 0022     		movs	r2, #0
 1075 0018 5A61     		str	r2, [r3, #20]
 1076              		.loc 1 543 0
 1077 001a 1320     		movs	r0, #19
 1078              	.LVL85:
 1079 001c FFF7FEFF 		bl	nvicDisableVector
 1080              	.LVL86:
 1081              		.loc 1 544 0
 1082 0020 1420     		movs	r0, #20
 1083 0022 FFF7FEFF 		bl	nvicDisableVector
ARM GAS  C:\Users\CHRIST~1\AppData\Local\Temp\ccV63U8T.s 			page 20


 1084              	.LVL87:
 1085              		.loc 1 545 0
 1086 0026 1520     		movs	r0, #21
 1087 0028 FFF7FEFF 		bl	nvicDisableVector
 1088              	.LVL88:
 1089              		.loc 1 546 0
 1090 002c 1620     		movs	r0, #22
 1091 002e FFF7FEFF 		bl	nvicDisableVector
 1092              	.LVL89:
 1093              		.loc 1 548 0
 1094 0032 064A     		ldr	r2, .L59+12
 1095 0034 136C     		ldr	r3, [r2, #64]
 1096 0036 23F00073 		bic	r3, r3, #33554432
 1097 003a 1364     		str	r3, [r2, #64]
 1098              		.loc 1 567 0
 1099 003c E4E7     		b	.L55
 1100              	.L60:
 1101 003e 00BF     		.align	2
 1102              	.L59:
 1103 0040 00000000 		.word	.LANCHOR0
 1104 0044 00640040 		.word	1073767424
 1105 0048 02000100 		.word	65538
 1106 004c 00380240 		.word	1073887232
 1107              		.cfi_endproc
 1108              	.LFE267:
 1109              		.size	can_lld_stop, .-can_lld_stop
 1110              		.section	.text.can_lld_is_tx_empty,"ax",%progbits
 1111              		.align	1
 1112              		.p2align 4,,15
 1113              		.global	can_lld_is_tx_empty
 1114              		.syntax unified
 1115              		.thumb
 1116              		.thumb_func
 1117              		.fpu fpv4-sp-d16
 1118              		.type	can_lld_is_tx_empty, %function
 1119              	can_lld_is_tx_empty:
 1120              	.LFB268:
 1121              		.loc 1 581 0
 1122              		.cfi_startproc
 1123              		@ args = 0, pretend = 0, frame = 0
 1124              		@ frame_needed = 0, uses_anonymous_args = 0
 1125              		@ link register save eliminated.
 1126              	.LVL90:
 1127              		.loc 1 583 0
 1128 0000 0329     		cmp	r1, #3
 1129 0002 1AD8     		bhi	.L68
 1130 0004 DFE801F0 		tbb	[pc, r1]
 1131              	.L64:
 1132 0008 02       		.byte	(.L63-.L64)/2
 1133 0009 0A       		.byte	(.L65-.L64)/2
 1134 000a 0F       		.byte	(.L66-.L64)/2
 1135 000b 14       		.byte	(.L67-.L64)/2
 1136              		.p2align 1
 1137              	.L63:
 1138              		.loc 1 585 0
 1139 000c C36A     		ldr	r3, [r0, #44]
 1140 000e 9B68     		ldr	r3, [r3, #8]
ARM GAS  C:\Users\CHRIST~1\AppData\Local\Temp\ccV63U8T.s 			page 21


 1141 0010 13F0E05F 		tst	r3, #469762048
 1142 0014 14BF     		ite	ne
 1143 0016 0120     		movne	r0, #1
 1144              	.LVL91:
 1145 0018 0020     		moveq	r0, #0
 1146 001a 7047     		bx	lr
 1147              	.LVL92:
 1148              	.L65:
 1149              		.loc 1 587 0
 1150 001c C36A     		ldr	r3, [r0, #44]
 1151 001e 9868     		ldr	r0, [r3, #8]
 1152              	.LVL93:
 1153 0020 C0F38060 		ubfx	r0, r0, #26, #1
 1154 0024 7047     		bx	lr
 1155              	.LVL94:
 1156              	.L66:
 1157              		.loc 1 589 0
 1158 0026 C36A     		ldr	r3, [r0, #44]
 1159 0028 9868     		ldr	r0, [r3, #8]
 1160              	.LVL95:
 1161 002a C0F3C060 		ubfx	r0, r0, #27, #1
 1162 002e 7047     		bx	lr
 1163              	.LVL96:
 1164              	.L67:
 1165              		.loc 1 591 0
 1166 0030 C36A     		ldr	r3, [r0, #44]
 1167 0032 9868     		ldr	r0, [r3, #8]
 1168              	.LVL97:
 1169 0034 C0F30070 		ubfx	r0, r0, #28, #1
 1170 0038 7047     		bx	lr
 1171              	.LVL98:
 1172              	.L68:
 1173              		.loc 1 593 0
 1174 003a 0020     		movs	r0, #0
 1175              	.LVL99:
 1176              		.loc 1 595 0
 1177 003c 7047     		bx	lr
 1178              		.cfi_endproc
 1179              	.LFE268:
 1180              		.size	can_lld_is_tx_empty, .-can_lld_is_tx_empty
 1181 003e 00BF     		.section	.text.can_lld_transmit,"ax",%progbits
 1182              		.align	1
 1183              		.p2align 4,,15
 1184              		.global	can_lld_transmit
 1185              		.syntax unified
 1186              		.thumb
 1187              		.thumb_func
 1188              		.fpu fpv4-sp-d16
 1189              		.type	can_lld_transmit, %function
 1190              	can_lld_transmit:
 1191              	.LFB269:
 1192              		.loc 1 608 0
 1193              		.cfi_startproc
 1194              		@ args = 0, pretend = 0, frame = 0
 1195              		@ frame_needed = 0, uses_anonymous_args = 0
 1196              		@ link register save eliminated.
 1197              	.LVL100:
ARM GAS  C:\Users\CHRIST~1\AppData\Local\Temp\ccV63U8T.s 			page 22


 1198              		.loc 1 613 0
 1199 0000 0329     		cmp	r1, #3
 1200 0002 21D8     		bhi	.L69
 1201 0004 DFE801F0 		tbb	[pc, r1]
 1202              	.L72:
 1203 0008 02       		.byte	(.L71-.L72)/2
 1204 0009 21       		.byte	(.L73-.L72)/2
 1205 000a 25       		.byte	(.L74-.L72)/2
 1206 000b 29       		.byte	(.L75-.L72)/2
 1207              		.p2align 1
 1208              	.L71:
 1209              		.loc 1 615 0
 1210 000c C16A     		ldr	r1, [r0, #44]
 1211              	.LVL101:
 1212 000e 8B68     		ldr	r3, [r1, #8]
 1213 0010 C3F30163 		ubfx	r3, r3, #24, #2
 1214 0014 1833     		adds	r3, r3, #24
 1215 0016 01EB0311 		add	r1, r1, r3, lsl #4
 1216              	.LVL102:
 1217              	.L76:
 1218              		.loc 1 631 0
 1219 001a 1378     		ldrb	r3, [r2]	@ zero_extendqisi2
 1220 001c 13F0200F 		tst	r3, #32
 1221 0020 1FD0     		beq	.L77
 1222              		.loc 1 632 0
 1223 0022 5068     		ldr	r0, [r2, #4]
 1224              	.LVL103:
 1225 0024 C3F30013 		ubfx	r3, r3, #4, #1
 1226 0028 5B00     		lsls	r3, r3, #1
 1227 002a 43EAC003 		orr	r3, r3, r0, lsl #3
 1228 002e 43F00403 		orr	r3, r3, #4
 1229              	.LVL104:
 1230              	.L78:
 1231              		.loc 1 636 0
 1232 0032 1078     		ldrb	r0, [r2]	@ zero_extendqisi2
 1233 0034 00F00F00 		and	r0, r0, #15
 1234 0038 4860     		str	r0, [r1, #4]
 1235              		.loc 1 637 0
 1236 003a 9068     		ldr	r0, [r2, #8]
 1237 003c 8860     		str	r0, [r1, #8]
 1238              		.loc 1 638 0
 1239 003e D268     		ldr	r2, [r2, #12]
 1240              	.LVL105:
 1241 0040 CA60     		str	r2, [r1, #12]
 1242              		.loc 1 639 0
 1243 0042 43F00103 		orr	r3, r3, #1
 1244              	.LVL106:
 1245 0046 0B60     		str	r3, [r1]
 1246              	.LVL107:
 1247              	.L69:
 1248              		.loc 1 640 0
 1249 0048 7047     		bx	lr
 1250              	.LVL108:
 1251              	.L73:
 1252              		.loc 1 618 0
 1253 004a C16A     		ldr	r1, [r0, #44]
 1254              	.LVL109:
ARM GAS  C:\Users\CHRIST~1\AppData\Local\Temp\ccV63U8T.s 			page 23


 1255 004c 01F5C071 		add	r1, r1, #384
 1256              	.LVL110:
 1257              		.loc 1 619 0
 1258 0050 E3E7     		b	.L76
 1259              	.LVL111:
 1260              	.L74:
 1261              		.loc 1 621 0
 1262 0052 C16A     		ldr	r1, [r0, #44]
 1263              	.LVL112:
 1264 0054 01F5C871 		add	r1, r1, #400
 1265              	.LVL113:
 1266              		.loc 1 622 0
 1267 0058 DFE7     		b	.L76
 1268              	.LVL114:
 1269              	.L75:
 1270              		.loc 1 624 0
 1271 005a C16A     		ldr	r1, [r0, #44]
 1272              	.LVL115:
 1273 005c 01F5D071 		add	r1, r1, #416
 1274              	.LVL116:
 1275              		.loc 1 625 0
 1276 0060 DBE7     		b	.L76
 1277              	.L77:
 1278              		.loc 1 635 0
 1279 0062 9088     		ldrh	r0, [r2, #4]
 1280              	.LVL117:
 1281 0064 1378     		ldrb	r3, [r2]	@ zero_extendqisi2
 1282 0066 C3F30013 		ubfx	r3, r3, #4, #1
 1283 006a 5B00     		lsls	r3, r3, #1
 1284 006c 43EA4053 		orr	r3, r3, r0, lsl #21
 1285              	.LVL118:
 1286 0070 DFE7     		b	.L78
 1287              		.cfi_endproc
 1288              	.LFE269:
 1289              		.size	can_lld_transmit, .-can_lld_transmit
 1290 0072 00BF     		.section	.text.can_lld_is_rx_nonempty,"ax",%progbits
 1291              		.align	1
 1292              		.p2align 4,,15
 1293              		.global	can_lld_is_rx_nonempty
 1294              		.syntax unified
 1295              		.thumb
 1296              		.thumb_func
 1297              		.fpu fpv4-sp-d16
 1298              		.type	can_lld_is_rx_nonempty, %function
 1299              	can_lld_is_rx_nonempty:
 1300              	.LFB270:
 1301              		.loc 1 654 0
 1302              		.cfi_startproc
 1303              		@ args = 0, pretend = 0, frame = 0
 1304              		@ frame_needed = 0, uses_anonymous_args = 0
 1305              		@ link register save eliminated.
 1306              	.LVL119:
 1307              		.loc 1 656 0
 1308 0000 0129     		cmp	r1, #1
 1309 0002 11D0     		beq	.L81
 1310 0004 19B1     		cbz	r1, .L82
 1311 0006 0229     		cmp	r1, #2
ARM GAS  C:\Users\CHRIST~1\AppData\Local\Temp\ccV63U8T.s 			page 24


 1312 0008 15D0     		beq	.L83
 1313              		.loc 1 665 0
 1314 000a 0020     		movs	r0, #0
 1315              	.LVL120:
 1316              		.loc 1 667 0
 1317 000c 7047     		bx	lr
 1318              	.LVL121:
 1319              	.L82:
 1320              		.loc 1 658 0
 1321 000e C36A     		ldr	r3, [r0, #44]
 1322 0010 DA68     		ldr	r2, [r3, #12]
 1323 0012 12F0030F 		tst	r2, #3
 1324 0016 05D1     		bne	.L86
 1325              		.loc 1 659 0 discriminator 2
 1326 0018 1869     		ldr	r0, [r3, #16]
 1327              	.LVL122:
 1328              		.loc 1 658 0 discriminator 2
 1329 001a 10F00300 		ands	r0, r0, #3
 1330 001e 18BF     		it	ne
 1331 0020 0120     		movne	r0, #1
 1332 0022 7047     		bx	lr
 1333              	.LVL123:
 1334              	.L86:
 1335              		.loc 1 658 0 is_stmt 0
 1336 0024 0120     		movs	r0, #1
 1337              	.LVL124:
 1338 0026 7047     		bx	lr
 1339              	.LVL125:
 1340              	.L81:
 1341              		.loc 1 661 0 is_stmt 1
 1342 0028 C36A     		ldr	r3, [r0, #44]
 1343 002a D868     		ldr	r0, [r3, #12]
 1344              	.LVL126:
 1345 002c 10F00300 		ands	r0, r0, #3
 1346 0030 18BF     		it	ne
 1347 0032 0120     		movne	r0, #1
 1348 0034 7047     		bx	lr
 1349              	.LVL127:
 1350              	.L83:
 1351              		.loc 1 663 0
 1352 0036 C36A     		ldr	r3, [r0, #44]
 1353 0038 1869     		ldr	r0, [r3, #16]
 1354              	.LVL128:
 1355 003a 10F00300 		ands	r0, r0, #3
 1356 003e 18BF     		it	ne
 1357 0040 0120     		movne	r0, #1
 1358 0042 7047     		bx	lr
 1359              		.cfi_endproc
 1360              	.LFE270:
 1361              		.size	can_lld_is_rx_nonempty, .-can_lld_is_rx_nonempty
 1362              		.section	.text.can_lld_receive,"ax",%progbits
 1363              		.align	1
 1364              		.p2align 4,,15
 1365              		.global	can_lld_receive
 1366              		.syntax unified
 1367              		.thumb
 1368              		.thumb_func
ARM GAS  C:\Users\CHRIST~1\AppData\Local\Temp\ccV63U8T.s 			page 25


 1369              		.fpu fpv4-sp-d16
 1370              		.type	can_lld_receive, %function
 1371              	can_lld_receive:
 1372              	.LFB271:
 1373              		.loc 1 680 0
 1374              		.cfi_startproc
 1375              		@ args = 0, pretend = 0, frame = 0
 1376              		@ frame_needed = 0, uses_anonymous_args = 0
 1377              		@ link register save eliminated.
 1378              	.LVL129:
 1379 0000 30B4     		push	{r4, r5}
 1380              		.cfi_def_cfa_offset 8
 1381              		.cfi_offset 4, -8
 1382              		.cfi_offset 5, -4
 1383              		.loc 1 683 0
 1384 0002 49B9     		cbnz	r1, .L89
 1385              		.loc 1 684 0
 1386 0004 C36A     		ldr	r3, [r0, #44]
 1387 0006 D968     		ldr	r1, [r3, #12]
 1388              	.LVL130:
 1389 0008 11F0030F 		tst	r1, #3
 1390 000c 21D1     		bne	.L90
 1391              		.loc 1 686 0
 1392 000e 1B69     		ldr	r3, [r3, #16]
 1393 0010 13F0030F 		tst	r3, #3
 1394 0014 04D1     		bne	.L91
 1395 0016 4CE0     		b	.L88
 1396              	.LVL131:
 1397              	.L89:
 1398              		.loc 1 693 0
 1399 0018 0129     		cmp	r1, #1
 1400 001a 1AD0     		beq	.L90
 1401 001c 0229     		cmp	r1, #2
 1402 001e 48D1     		bne	.L88
 1403              	.LVL132:
 1404              	.L91:
 1405              		.loc 1 711 0
 1406 0020 C36A     		ldr	r3, [r0, #44]
 1407 0022 D3F8C041 		ldr	r4, [r3, #448]
 1408              	.LVL133:
 1409              		.loc 1 712 0
 1410 0026 D3F8C411 		ldr	r1, [r3, #452]
 1411              	.LVL134:
 1412              		.loc 1 713 0
 1413 002a D3F8C831 		ldr	r3, [r3, #456]
 1414 002e D360     		str	r3, [r2, #12]
 1415              		.loc 1 714 0
 1416 0030 C36A     		ldr	r3, [r0, #44]
 1417 0032 D3F8CC31 		ldr	r3, [r3, #460]
 1418 0036 1361     		str	r3, [r2, #16]
 1419              		.loc 1 717 0
 1420 0038 C36A     		ldr	r3, [r0, #44]
 1421 003a 2025     		movs	r5, #32
 1422 003c 1D61     		str	r5, [r3, #16]
 1423              		.loc 1 721 0
 1424 003e C36A     		ldr	r3, [r0, #44]
 1425 0040 1869     		ldr	r0, [r3, #16]
ARM GAS  C:\Users\CHRIST~1\AppData\Local\Temp\ccV63U8T.s 			page 26


 1426              	.LVL135:
 1427 0042 10F0030F 		tst	r0, #3
 1428 0046 1CD1     		bne	.L93
 1429              		.loc 1 722 0
 1430 0048 5869     		ldr	r0, [r3, #20]
 1431 004a 40F01000 		orr	r0, r0, #16
 1432 004e 5861     		str	r0, [r3, #20]
 1433 0050 17E0     		b	.L93
 1434              	.LVL136:
 1435              	.L90:
 1436              		.loc 1 696 0
 1437 0052 C36A     		ldr	r3, [r0, #44]
 1438 0054 D3F8B041 		ldr	r4, [r3, #432]
 1439              	.LVL137:
 1440              		.loc 1 697 0
 1441 0058 D3F8B411 		ldr	r1, [r3, #436]
 1442              	.LVL138:
 1443              		.loc 1 698 0
 1444 005c D3F8B831 		ldr	r3, [r3, #440]
 1445 0060 D360     		str	r3, [r2, #12]
 1446              		.loc 1 699 0
 1447 0062 C36A     		ldr	r3, [r0, #44]
 1448 0064 D3F8BC31 		ldr	r3, [r3, #444]
 1449 0068 1361     		str	r3, [r2, #16]
 1450              		.loc 1 702 0
 1451 006a C36A     		ldr	r3, [r0, #44]
 1452 006c 2025     		movs	r5, #32
 1453 006e DD60     		str	r5, [r3, #12]
 1454              		.loc 1 706 0
 1455 0070 C36A     		ldr	r3, [r0, #44]
 1456 0072 D868     		ldr	r0, [r3, #12]
 1457              	.LVL139:
 1458 0074 10F0030F 		tst	r0, #3
 1459 0078 03D1     		bne	.L93
 1460              		.loc 1 707 0
 1461 007a 5869     		ldr	r0, [r3, #20]
 1462 007c 40F00200 		orr	r0, r0, #2
 1463 0080 5861     		str	r0, [r3, #20]
 1464              	.L93:
 1465              		.loc 1 730 0
 1466 0082 6008     		lsrs	r0, r4, #1
 1467 0084 1379     		ldrb	r3, [r2, #4]	@ zero_extendqisi2
 1468 0086 60F30413 		bfi	r3, r0, #4, #1
 1469              		.loc 1 731 0
 1470 008a A008     		lsrs	r0, r4, #2
 1471 008c 60F34513 		bfi	r3, r0, #5, #1
 1472 0090 1371     		strb	r3, [r2, #4]
 1473              		.loc 1 732 0
 1474 0092 13F0200F 		tst	r3, #32
 1475 0096 0ED0     		beq	.L94
 1476              		.loc 1 733 0
 1477 0098 E408     		lsrs	r4, r4, #3
 1478              	.LVL140:
 1479 009a 9368     		ldr	r3, [r2, #8]
 1480 009c 64F31C03 		bfi	r3, r4, #0, #29
 1481 00a0 9360     		str	r3, [r2, #8]
 1482              	.L95:
ARM GAS  C:\Users\CHRIST~1\AppData\Local\Temp\ccV63U8T.s 			page 27


 1483              		.loc 1 736 0
 1484 00a2 1379     		ldrb	r3, [r2, #4]	@ zero_extendqisi2
 1485 00a4 61F30303 		bfi	r3, r1, #0, #4
 1486 00a8 1371     		strb	r3, [r2, #4]
 1487              		.loc 1 737 0
 1488 00aa 0B0A     		lsrs	r3, r1, #8
 1489 00ac 1370     		strb	r3, [r2]
 1490              		.loc 1 738 0
 1491 00ae 090C     		lsrs	r1, r1, #16
 1492              	.LVL141:
 1493 00b0 5180     		strh	r1, [r2, #2]	@ movhi
 1494              	.L88:
 1495              		.loc 1 739 0
 1496 00b2 30BC     		pop	{r4, r5}
 1497              		.cfi_remember_state
 1498              		.cfi_restore 5
 1499              		.cfi_restore 4
 1500              		.cfi_def_cfa_offset 0
 1501 00b4 7047     		bx	lr
 1502              	.LVL142:
 1503              	.L94:
 1504              		.cfi_restore_state
 1505              		.loc 1 735 0
 1506 00b6 640D     		lsrs	r4, r4, #21
 1507              	.LVL143:
 1508 00b8 1389     		ldrh	r3, [r2, #8]
 1509 00ba 64F30A03 		bfi	r3, r4, #0, #11
 1510 00be 1381     		strh	r3, [r2, #8]	@ movhi
 1511 00c0 EFE7     		b	.L95
 1512              		.cfi_endproc
 1513              	.LFE271:
 1514              		.size	can_lld_receive, .-can_lld_receive
 1515 00c2 00BF     		.section	.text.can_lld_sleep,"ax",%progbits
 1516              		.align	1
 1517              		.p2align 4,,15
 1518              		.global	can_lld_sleep
 1519              		.syntax unified
 1520              		.thumb
 1521              		.thumb_func
 1522              		.fpu fpv4-sp-d16
 1523              		.type	can_lld_sleep, %function
 1524              	can_lld_sleep:
 1525              	.LFB272:
 1526              		.loc 1 749 0
 1527              		.cfi_startproc
 1528              		@ args = 0, pretend = 0, frame = 0
 1529              		@ frame_needed = 0, uses_anonymous_args = 0
 1530              		@ link register save eliminated.
 1531              	.LVL144:
 1532              		.loc 1 751 0
 1533 0000 C26A     		ldr	r2, [r0, #44]
 1534 0002 1368     		ldr	r3, [r2]
 1535 0004 43F00203 		orr	r3, r3, #2
 1536 0008 1360     		str	r3, [r2]
 1537              		.loc 1 752 0
 1538 000a 7047     		bx	lr
 1539              		.cfi_endproc
ARM GAS  C:\Users\CHRIST~1\AppData\Local\Temp\ccV63U8T.s 			page 28


 1540              	.LFE272:
 1541              		.size	can_lld_sleep, .-can_lld_sleep
 1542              		.section	.text.can_lld_wakeup,"ax",%progbits
 1543              		.align	1
 1544              		.p2align 4,,15
 1545              		.global	can_lld_wakeup
 1546              		.syntax unified
 1547              		.thumb
 1548              		.thumb_func
 1549              		.fpu fpv4-sp-d16
 1550              		.type	can_lld_wakeup, %function
 1551              	can_lld_wakeup:
 1552              	.LFB273:
 1553              		.loc 1 761 0
 1554              		.cfi_startproc
 1555              		@ args = 0, pretend = 0, frame = 0
 1556              		@ frame_needed = 0, uses_anonymous_args = 0
 1557              		@ link register save eliminated.
 1558              	.LVL145:
 1559              		.loc 1 763 0
 1560 0000 C26A     		ldr	r2, [r0, #44]
 1561 0002 1368     		ldr	r3, [r2]
 1562 0004 23F00203 		bic	r3, r3, #2
 1563 0008 1360     		str	r3, [r2]
 1564              		.loc 1 764 0
 1565 000a 7047     		bx	lr
 1566              		.cfi_endproc
 1567              	.LFE273:
 1568              		.size	can_lld_wakeup, .-can_lld_wakeup
 1569              		.section	.text.canSTM32SetFilters,"ax",%progbits
 1570              		.align	1
 1571              		.p2align 4,,15
 1572              		.global	canSTM32SetFilters
 1573              		.syntax unified
 1574              		.thumb
 1575              		.thumb_func
 1576              		.fpu fpv4-sp-d16
 1577              		.type	canSTM32SetFilters, %function
 1578              	canSTM32SetFilters:
 1579              	.LFB274:
 1580              		.loc 1 779 0
 1581              		.cfi_startproc
 1582              		@ args = 0, pretend = 0, frame = 0
 1583              		@ frame_needed = 0, uses_anonymous_args = 0
 1584              	.LVL146:
 1585 0000 08B5     		push	{r3, lr}
 1586              		.cfi_def_cfa_offset 8
 1587              		.cfi_offset 3, -8
 1588              		.cfi_offset 14, -4
 1589              		.loc 1 791 0
 1590 0002 FFF7FEFF 		bl	can_lld_set_filters
 1591              	.LVL147:
 1592              		.loc 1 792 0
 1593 0006 08BD     		pop	{r3, pc}
 1594              		.cfi_endproc
 1595              	.LFE274:
 1596              		.size	canSTM32SetFilters, .-canSTM32SetFilters
ARM GAS  C:\Users\CHRIST~1\AppData\Local\Temp\ccV63U8T.s 			page 29


 1597              		.global	CAND1
 1598              		.section	.bss.CAND1,"aw",%nobits
 1599              		.align	2
 1600              		.set	.LANCHOR0,. + 0
 1601              		.type	CAND1, %object
 1602              		.size	CAND1, 48
 1603              	CAND1:
 1604 0000 00000000 		.space	48
 1604      00000000 
 1604      00000000 
 1604      00000000 
 1604      00000000 
 1605              		.text
 1606              	.Letext0:
 1607              		.file 5 "c:\\program files (x86)\\gnu tools arm embedded\\7 2017-q4-major\\lib\\gcc\\arm-none-eabi
 1608              		.file 6 "c:\\program files (x86)\\gnu tools arm embedded\\7 2017-q4-major\\arm-none-eabi\\include\
 1609              		.file 7 "c:\\program files (x86)\\gnu tools arm embedded\\7 2017-q4-major\\arm-none-eabi\\include\
 1610              		.file 8 "ChibiOS_3.0.2/os/rt/ports/ARMCMx/compilers/GCC/chtypes.h"
 1611              		.file 9 "ChibiOS_3.0.2/os/rt/include/chsystypes.h"
 1612              		.file 10 "ChibiOS_3.0.2/os/rt/include/chschd.h"
 1613              		.file 11 "ChibiOS_3.0.2/os/ext/CMSIS/include/core_cm4.h"
 1614              		.file 12 "ChibiOS_3.0.2/os/ext/CMSIS/ST/system_stm32f4xx.h"
 1615              		.file 13 "ChibiOS_3.0.2/os/ext/CMSIS/ST/stm32f407xx.h"
 1616              		.file 14 "ChibiOS_3.0.2/os/rt/ports/ARMCMx/chcore.h"
 1617              		.file 15 "ChibiOS_3.0.2/os/rt/ports/ARMCMx/chcore_v7m.h"
 1618              		.file 16 "ChibiOS_3.0.2/os/rt/include/chtm.h"
 1619              		.file 17 "ChibiOS_3.0.2/os/rt/include/chsem.h"
 1620              		.file 18 "ChibiOS_3.0.2/os/rt/include/chmtx.h"
 1621              		.file 19 "ChibiOS_3.0.2/os/rt/include/chregistry.h"
 1622              		.file 20 "ChibiOS_3.0.2/os/rt/include/chevents.h"
 1623              		.file 21 "ChibiOS_3.0.2/os/rt/include/chqueues.h"
 1624              		.file 22 "./conf_general.h"
 1625              		.file 23 "ChibiOS_3.0.2/os/hal/ports/STM32/STM32F4xx/stm32_dma.h"
 1626              		.file 24 "ChibiOS_3.0.2/os/hal/ports/STM32/LLD/GPIOv2/pal_lld.h"
 1627              		.file 25 "ChibiOS_3.0.2/os/hal/include/can.h"
 1628              		.file 26 "ChibiOS_3.0.2/os/hal/ports/STM32/LLD/can_lld.h"
 1629              		.file 27 "ChibiOS_3.0.2/os/hal/include/i2c.h"
 1630              		.file 28 "ChibiOS_3.0.2/os/hal/ports/STM32/LLD/I2Cv1/i2c_lld.h"
 1631              		.file 29 "ChibiOS_3.0.2/os/hal/include/icu.h"
 1632              		.file 30 "ChibiOS_3.0.2/os/hal/ports/STM32/LLD/TIMv1/icu_lld.h"
 1633              		.file 31 "ChibiOS_3.0.2/os/hal/ports/STM32/LLD/TIMv1/stm32_tim.h"
 1634              		.file 32 "ChibiOS_3.0.2/os/hal/include/spi.h"
 1635              		.file 33 "ChibiOS_3.0.2/os/hal/ports/STM32/LLD/SPIv1/spi_lld.h"
 1636              		.file 34 "ChibiOS_3.0.2/os/hal/include/uart.h"
 1637              		.file 35 "ChibiOS_3.0.2/os/hal/ports/STM32/LLD/USARTv1/uart_lld.h"
 1638              		.file 36 "ChibiOS_3.0.2/os/hal/include/usb.h"
 1639              		.file 37 "ChibiOS_3.0.2/os/hal/ports/STM32/LLD/OTGv1/usb_lld.h"
 1640              		.file 38 "ChibiOS_3.0.2/os/hal/ports/STM32/LLD/OTGv1/stm32_otg.h"
 1641              		.file 39 "ChibiOS_3.0.2/os/rt/include/chsys.h"
 1642              		.file 40 "ChibiOS_3.0.2/os/hal/ports/common/ARMCMx/nvic.h"
