ARM GAS  C:\Users\CHRIST~1\AppData\Local\Temp\cce8dDHn.s 			page 1


   1              		.cpu cortex-m4
   2              		.eabi_attribute 27, 1
   3              		.eabi_attribute 28, 1
   4              		.eabi_attribute 20, 1
   5              		.eabi_attribute 21, 1
   6              		.eabi_attribute 23, 3
   7              		.eabi_attribute 24, 1
   8              		.eabi_attribute 25, 1
   9              		.eabi_attribute 26, 1
  10              		.eabi_attribute 30, 1
  11              		.eabi_attribute 34, 1
  12              		.eabi_attribute 18, 4
  13              		.file	"chdebug.c"
  14              		.text
  15              	.Ltext0:
  16              		.cfi_sections	.debug_frame
  17              	.Letext0:
  18              		.file 1 "c:\\program files (x86)\\gnu tools arm embedded\\7 2017-q4-major\\arm-none-eabi\\include\
  19              		.file 2 "c:\\program files (x86)\\gnu tools arm embedded\\7 2017-q4-major\\arm-none-eabi\\include\
  20              		.file 3 "ChibiOS_3.0.2/os/rt/ports/ARMCMx/compilers/GCC/chtypes.h"
  21              		.file 4 "ChibiOS_3.0.2/os/rt/include/chsystypes.h"
  22              		.file 5 "ChibiOS_3.0.2/os/rt/include/chschd.h"
  23              		.file 6 "ChibiOS_3.0.2/os/ext/CMSIS/include/core_cm4.h"
  24              		.file 7 "ChibiOS_3.0.2/os/ext/CMSIS/ST/system_stm32f4xx.h"
  25              		.file 8 "ChibiOS_3.0.2/os/rt/ports/ARMCMx/chcore.h"
  26              		.file 9 "ChibiOS_3.0.2/os/rt/ports/ARMCMx/chcore_v7m.h"
  27              		.file 10 "ChibiOS_3.0.2/os/rt/include/chtm.h"
  28              		.file 11 "ChibiOS_3.0.2/os/rt/include/chsem.h"
  29              		.file 12 "ChibiOS_3.0.2/os/rt/include/chmtx.h"
  30              		.file 13 "ChibiOS_3.0.2/os/rt/include/chregistry.h"
  31              		.section	.debug_info,"",%progbits
  32              	.Ldebug_info0:
  33 0000 3B080000 		.4byte	0x83b
  34 0004 0400     		.2byte	0x4
  35 0006 00000000 		.4byte	.Ldebug_abbrev0
  36 000a 04       		.byte	0x4
  37 000b 01       		.uleb128 0x1
  38 000c 70050000 		.4byte	.LASF127
  39 0010 0C       		.byte	0xc
  40 0011 55000000 		.4byte	.LASF128
  41 0015 22010000 		.4byte	.LASF129
  42 0019 00000000 		.4byte	.Ldebug_line0
  43 001d 02       		.uleb128 0x2
  44 001e 04       		.byte	0x4
  45 001f 05       		.byte	0x5
  46 0020 696E7400 		.ascii	"int\000"
  47 0024 03       		.uleb128 0x3
  48 0025 04       		.byte	0x4
  49 0026 07       		.byte	0x7
  50 0027 EC010000 		.4byte	.LASF0
  51 002b 03       		.uleb128 0x3
  52 002c 01       		.byte	0x1
  53 002d 06       		.byte	0x6
  54 002e 06010000 		.4byte	.LASF1
  55 0032 04       		.uleb128 0x4
  56 0033 30000000 		.4byte	.LASF4
  57 0037 01       		.byte	0x1
ARM GAS  C:\Users\CHRIST~1\AppData\Local\Temp\cce8dDHn.s 			page 2


  58 0038 2B       		.byte	0x2b
  59 0039 3D000000 		.4byte	0x3d
  60 003d 03       		.uleb128 0x3
  61 003e 01       		.byte	0x1
  62 003f 08       		.byte	0x8
  63 0040 A5030000 		.4byte	.LASF2
  64 0044 03       		.uleb128 0x3
  65 0045 02       		.byte	0x2
  66 0046 05       		.byte	0x5
  67 0047 BD030000 		.4byte	.LASF3
  68 004b 04       		.uleb128 0x4
  69 004c A6040000 		.4byte	.LASF5
  70 0050 01       		.byte	0x1
  71 0051 39       		.byte	0x39
  72 0052 56000000 		.4byte	0x56
  73 0056 03       		.uleb128 0x3
  74 0057 02       		.byte	0x2
  75 0058 07       		.byte	0x7
  76 0059 4B020000 		.4byte	.LASF6
  77 005d 04       		.uleb128 0x4
  78 005e A0020000 		.4byte	.LASF7
  79 0062 01       		.byte	0x1
  80 0063 4D       		.byte	0x4d
  81 0064 68000000 		.4byte	0x68
  82 0068 03       		.uleb128 0x3
  83 0069 04       		.byte	0x4
  84 006a 05       		.byte	0x5
  85 006b 8A010000 		.4byte	.LASF8
  86 006f 04       		.uleb128 0x4
  87 0070 DF040000 		.4byte	.LASF9
  88 0074 01       		.byte	0x1
  89 0075 4F       		.byte	0x4f
  90 0076 7A000000 		.4byte	0x7a
  91 007a 03       		.uleb128 0x3
  92 007b 04       		.byte	0x4
  93 007c 07       		.byte	0x7
  94 007d 88040000 		.4byte	.LASF10
  95 0081 03       		.uleb128 0x3
  96 0082 08       		.byte	0x8
  97 0083 05       		.byte	0x5
  98 0084 F8000000 		.4byte	.LASF11
  99 0088 04       		.uleb128 0x4
 100 0089 50030000 		.4byte	.LASF12
 101 008d 01       		.byte	0x1
 102 008e 69       		.byte	0x69
 103 008f 93000000 		.4byte	0x93
 104 0093 03       		.uleb128 0x3
 105 0094 08       		.byte	0x8
 106 0095 07       		.byte	0x7
 107 0096 77000000 		.4byte	.LASF13
 108 009a 04       		.uleb128 0x4
 109 009b 31050000 		.4byte	.LASF14
 110 009f 02       		.byte	0x2
 111 00a0 18       		.byte	0x18
 112 00a1 32000000 		.4byte	0x32
 113 00a5 04       		.uleb128 0x4
 114 00a6 01020000 		.4byte	.LASF15
ARM GAS  C:\Users\CHRIST~1\AppData\Local\Temp\cce8dDHn.s 			page 3


 115 00aa 02       		.byte	0x2
 116 00ab 24       		.byte	0x24
 117 00ac 4B000000 		.4byte	0x4b
 118 00b0 04       		.uleb128 0x4
 119 00b1 9D030000 		.4byte	.LASF16
 120 00b5 02       		.byte	0x2
 121 00b6 2C       		.byte	0x2c
 122 00b7 5D000000 		.4byte	0x5d
 123 00bb 05       		.uleb128 0x5
 124 00bc B0000000 		.4byte	0xb0
 125 00c0 04       		.uleb128 0x4
 126 00c1 53040000 		.4byte	.LASF17
 127 00c5 02       		.byte	0x2
 128 00c6 30       		.byte	0x30
 129 00c7 6F000000 		.4byte	0x6f
 130 00cb 04       		.uleb128 0x4
 131 00cc 27000000 		.4byte	.LASF18
 132 00d0 02       		.byte	0x2
 133 00d1 3C       		.byte	0x3c
 134 00d2 88000000 		.4byte	0x88
 135 00d6 04       		.uleb128 0x4
 136 00d7 E2020000 		.4byte	.LASF19
 137 00db 03       		.byte	0x3
 138 00dc 45       		.byte	0x45
 139 00dd C0000000 		.4byte	0xc0
 140 00e1 04       		.uleb128 0x4
 141 00e2 EE030000 		.4byte	.LASF20
 142 00e6 03       		.byte	0x3
 143 00e7 48       		.byte	0x48
 144 00e8 9A000000 		.4byte	0x9a
 145 00ec 04       		.uleb128 0x4
 146 00ed 93010000 		.4byte	.LASF21
 147 00f1 03       		.byte	0x3
 148 00f2 49       		.byte	0x49
 149 00f3 9A000000 		.4byte	0x9a
 150 00f7 04       		.uleb128 0x4
 151 00f8 5B030000 		.4byte	.LASF22
 152 00fc 03       		.byte	0x3
 153 00fd 4A       		.byte	0x4a
 154 00fe 9A000000 		.4byte	0x9a
 155 0102 04       		.uleb128 0x4
 156 0103 76010000 		.4byte	.LASF23
 157 0107 03       		.byte	0x3
 158 0108 4B       		.byte	0x4b
 159 0109 9A000000 		.4byte	0x9a
 160 010d 04       		.uleb128 0x4
 161 010e 85030000 		.4byte	.LASF24
 162 0112 03       		.byte	0x3
 163 0113 4C       		.byte	0x4c
 164 0114 C0000000 		.4byte	0xc0
 165 0118 04       		.uleb128 0x4
 166 0119 68020000 		.4byte	.LASF25
 167 011d 03       		.byte	0x3
 168 011e 4D       		.byte	0x4d
 169 011f B0000000 		.4byte	0xb0
 170 0123 04       		.uleb128 0x4
 171 0124 94020000 		.4byte	.LASF26
ARM GAS  C:\Users\CHRIST~1\AppData\Local\Temp\cce8dDHn.s 			page 4


 172 0128 03       		.byte	0x3
 173 0129 4F       		.byte	0x4f
 174 012a C0000000 		.4byte	0xc0
 175 012e 04       		.uleb128 0x4
 176 012f E6010000 		.4byte	.LASF27
 177 0133 03       		.byte	0x3
 178 0134 51       		.byte	0x51
 179 0135 B0000000 		.4byte	0xb0
 180 0139 04       		.uleb128 0x4
 181 013a C1040000 		.4byte	.LASF28
 182 013e 04       		.byte	0x4
 183 013f 33       		.byte	0x33
 184 0140 C0000000 		.4byte	0xc0
 185 0144 05       		.uleb128 0x5
 186 0145 39010000 		.4byte	0x139
 187 0149 04       		.uleb128 0x4
 188 014a B1040000 		.4byte	.LASF29
 189 014e 04       		.byte	0x4
 190 014f 3F       		.byte	0x3f
 191 0150 54010000 		.4byte	0x154
 192 0154 06       		.uleb128 0x6
 193 0155 5E020000 		.4byte	.LASF51
 194 0159 48       		.byte	0x48
 195 015a 05       		.byte	0x5
 196 015b C2       		.byte	0xc2
 197 015c 59020000 		.4byte	0x259
 198 0160 07       		.uleb128 0x7
 199 0161 E7030000 		.4byte	.LASF30
 200 0165 05       		.byte	0x5
 201 0166 C3       		.byte	0xc3
 202 0167 64020000 		.4byte	0x264
 203 016b 00       		.byte	0
 204 016c 07       		.uleb128 0x7
 205 016d 7E030000 		.4byte	.LASF31
 206 0171 05       		.byte	0x5
 207 0172 C5       		.byte	0xc5
 208 0173 64020000 		.4byte	0x264
 209 0177 04       		.byte	0x4
 210 0178 07       		.uleb128 0x7
 211 0179 E4000000 		.4byte	.LASF32
 212 017d 05       		.byte	0x5
 213 017e C7       		.byte	0xc7
 214 017f 0D010000 		.4byte	0x10d
 215 0183 08       		.byte	0x8
 216 0184 07       		.uleb128 0x7
 217 0185 27030000 		.4byte	.LASF33
 218 0189 05       		.byte	0x5
 219 018a C8       		.byte	0xc8
 220 018b A4040000 		.4byte	0x4a4
 221 018f 0C       		.byte	0xc
 222 0190 07       		.uleb128 0x7
 223 0191 A6010000 		.4byte	.LASF34
 224 0195 05       		.byte	0x5
 225 0196 CA       		.byte	0xca
 226 0197 64020000 		.4byte	0x264
 227 019b 10       		.byte	0x10
 228 019c 07       		.uleb128 0x7
ARM GAS  C:\Users\CHRIST~1\AppData\Local\Temp\cce8dDHn.s 			page 5


 229 019d 19030000 		.4byte	.LASF35
 230 01a1 05       		.byte	0x5
 231 01a2 CB       		.byte	0xcb
 232 01a3 64020000 		.4byte	0x264
 233 01a7 14       		.byte	0x14
 234 01a8 07       		.uleb128 0x7
 235 01a9 53050000 		.4byte	.LASF36
 236 01ad 05       		.byte	0x5
 237 01ae D2       		.byte	0xd2
 238 01af E9060000 		.4byte	0x6e9
 239 01b3 18       		.byte	0x18
 240 01b4 07       		.uleb128 0x7
 241 01b5 C7030000 		.4byte	.LASF37
 242 01b9 05       		.byte	0x5
 243 01ba DD       		.byte	0xdd
 244 01bb EC000000 		.4byte	0xec
 245 01bf 1C       		.byte	0x1c
 246 01c0 07       		.uleb128 0x7
 247 01c1 05040000 		.4byte	.LASF38
 248 01c5 05       		.byte	0x5
 249 01c6 E1       		.byte	0xe1
 250 01c7 E1000000 		.4byte	0xe1
 251 01cb 1D       		.byte	0x1d
 252 01cc 07       		.uleb128 0x7
 253 01cd 24050000 		.4byte	.LASF39
 254 01d1 05       		.byte	0x5
 255 01d2 E6       		.byte	0xe6
 256 01d3 F7000000 		.4byte	0xf7
 257 01d7 1E       		.byte	0x1e
 258 01d8 07       		.uleb128 0x7
 259 01d9 CF030000 		.4byte	.LASF40
 260 01dd 05       		.byte	0x5
 261 01de EC       		.byte	0xec
 262 01df 02010000 		.4byte	0x102
 263 01e3 1F       		.byte	0x1f
 264 01e4 07       		.uleb128 0x7
 265 01e5 1A020000 		.4byte	.LASF41
 266 01e9 05       		.byte	0x5
 267 01ea F3       		.byte	0xf3
 268 01eb 44010000 		.4byte	0x144
 269 01ef 20       		.byte	0x20
 270 01f0 08       		.uleb128 0x8
 271 01f1 705F7500 		.ascii	"p_u\000"
 272 01f5 05       		.byte	0x5
 273 01f6 3101     		.2byte	0x131
 274 01f8 24060000 		.4byte	0x624
 275 01fc 24       		.byte	0x24
 276 01fd 09       		.uleb128 0x9
 277 01fe D8020000 		.4byte	.LASF42
 278 0202 05       		.byte	0x5
 279 0203 3601     		.2byte	0x136
 280 0205 6A020000 		.4byte	0x26a
 281 0209 28       		.byte	0x28
 282 020a 09       		.uleb128 0x9
 283 020b 31020000 		.4byte	.LASF43
 284 020f 05       		.byte	0x5
 285 0210 3C01     		.2byte	0x13c
ARM GAS  C:\Users\CHRIST~1\AppData\Local\Temp\cce8dDHn.s 			page 6


 286 0212 8E020000 		.4byte	0x28e
 287 0216 2C       		.byte	0x2c
 288 0217 09       		.uleb128 0x9
 289 0218 03050000 		.4byte	.LASF44
 290 021c 05       		.byte	0x5
 291 021d 4001     		.2byte	0x140
 292 021f 18010000 		.4byte	0x118
 293 0223 34       		.byte	0x34
 294 0224 09       		.uleb128 0x9
 295 0225 48040000 		.4byte	.LASF45
 296 0229 05       		.byte	0x5
 297 022a 4601     		.2byte	0x146
 298 022c 23010000 		.4byte	0x123
 299 0230 38       		.byte	0x38
 300 0231 09       		.uleb128 0x9
 301 0232 B3030000 		.4byte	.LASF46
 302 0236 05       		.byte	0x5
 303 0237 4D01     		.2byte	0x14d
 304 0239 E3060000 		.4byte	0x6e3
 305 023d 3C       		.byte	0x3c
 306 023e 09       		.uleb128 0x9
 307 023f CB040000 		.4byte	.LASF47
 308 0243 05       		.byte	0x5
 309 0244 5101     		.2byte	0x151
 310 0246 0D010000 		.4byte	0x10d
 311 024a 40       		.byte	0x40
 312 024b 09       		.uleb128 0x9
 313 024c 5F010000 		.4byte	.LASF48
 314 0250 05       		.byte	0x5
 315 0251 5801     		.2byte	0x158
 316 0253 41030000 		.4byte	0x341
 317 0257 44       		.byte	0x44
 318 0258 00       		.byte	0
 319 0259 04       		.uleb128 0x4
 320 025a 39050000 		.4byte	.LASF49
 321 025e 04       		.byte	0x4
 322 025f 44       		.byte	0x44
 323 0260 64020000 		.4byte	0x264
 324 0264 0A       		.uleb128 0xa
 325 0265 04       		.byte	0x4
 326 0266 49010000 		.4byte	0x149
 327 026a 04       		.uleb128 0x4
 328 026b B5020000 		.4byte	.LASF50
 329 026f 04       		.byte	0x4
 330 0270 49       		.byte	0x49
 331 0271 75020000 		.4byte	0x275
 332 0275 06       		.uleb128 0x6
 333 0276 70040000 		.4byte	.LASF52
 334 027a 04       		.byte	0x4
 335 027b 05       		.byte	0x5
 336 027c B0       		.byte	0xb0
 337 027d 8E020000 		.4byte	0x28e
 338 0281 07       		.uleb128 0x7
 339 0282 E7030000 		.4byte	.LASF30
 340 0286 05       		.byte	0x5
 341 0287 B1       		.byte	0xb1
 342 0288 64020000 		.4byte	0x264
ARM GAS  C:\Users\CHRIST~1\AppData\Local\Temp\cce8dDHn.s 			page 7


 343 028c 00       		.byte	0
 344 028d 00       		.byte	0
 345 028e 04       		.uleb128 0x4
 346 028f 0D040000 		.4byte	.LASF53
 347 0293 04       		.byte	0x4
 348 0294 50       		.byte	0x50
 349 0295 99020000 		.4byte	0x299
 350 0299 06       		.uleb128 0x6
 351 029a D3000000 		.4byte	.LASF54
 352 029e 08       		.byte	0x8
 353 029f 05       		.byte	0x5
 354 02a0 B7       		.byte	0xb7
 355 02a1 BE020000 		.4byte	0x2be
 356 02a5 07       		.uleb128 0x7
 357 02a6 E7030000 		.4byte	.LASF30
 358 02aa 05       		.byte	0x5
 359 02ab B8       		.byte	0xb8
 360 02ac 64020000 		.4byte	0x264
 361 02b0 00       		.byte	0
 362 02b1 07       		.uleb128 0x7
 363 02b2 7E030000 		.4byte	.LASF31
 364 02b6 05       		.byte	0x5
 365 02b7 B9       		.byte	0xb9
 366 02b8 64020000 		.4byte	0x264
 367 02bc 04       		.byte	0x4
 368 02bd 00       		.byte	0
 369 02be 04       		.uleb128 0x4
 370 02bf 0D000000 		.4byte	.LASF55
 371 02c3 04       		.byte	0x4
 372 02c4 57       		.byte	0x57
 373 02c5 C9020000 		.4byte	0x2c9
 374 02c9 0B       		.uleb128 0xb
 375 02ca 86020000 		.4byte	.LASF56
 376 02ce 1C       		.byte	0x1c
 377 02cf 05       		.byte	0x5
 378 02d0 9001     		.2byte	0x190
 379 02d2 25030000 		.4byte	0x325
 380 02d6 09       		.uleb128 0x9
 381 02d7 68040000 		.4byte	.LASF57
 382 02db 05       		.byte	0x5
 383 02dc 9101     		.2byte	0x191
 384 02de 8E020000 		.4byte	0x28e
 385 02e2 00       		.byte	0
 386 02e3 09       		.uleb128 0x9
 387 02e4 D9030000 		.4byte	.LASF58
 388 02e8 05       		.byte	0x5
 389 02e9 9201     		.2byte	0x192
 390 02eb 0D010000 		.4byte	0x10d
 391 02ef 08       		.byte	0x8
 392 02f0 09       		.uleb128 0x9
 393 02f1 21030000 		.4byte	.LASF59
 394 02f5 05       		.byte	0x5
 395 02f6 9401     		.2byte	0x194
 396 02f8 A4040000 		.4byte	0x4a4
 397 02fc 0C       		.byte	0xc
 398 02fd 09       		.uleb128 0x9
 399 02fe B6010000 		.4byte	.LASF60
ARM GAS  C:\Users\CHRIST~1\AppData\Local\Temp\cce8dDHn.s 			page 8


 400 0302 05       		.byte	0x5
 401 0303 9701     		.2byte	0x197
 402 0305 64020000 		.4byte	0x264
 403 0309 10       		.byte	0x10
 404 030a 09       		.uleb128 0x9
 405 030b 48030000 		.4byte	.LASF61
 406 030f 05       		.byte	0x5
 407 0310 9801     		.2byte	0x198
 408 0312 64020000 		.4byte	0x264
 409 0316 14       		.byte	0x14
 410 0317 09       		.uleb128 0x9
 411 0318 3E030000 		.4byte	.LASF62
 412 031c 05       		.byte	0x5
 413 031d 9B01     		.2byte	0x19b
 414 031f 64020000 		.4byte	0x264
 415 0323 18       		.byte	0x18
 416 0324 00       		.byte	0
 417 0325 04       		.uleb128 0x4
 418 0326 D6040000 		.4byte	.LASF63
 419 032a 04       		.byte	0x4
 420 032b 5C       		.byte	0x5c
 421 032c 30030000 		.4byte	0x330
 422 0330 0A       		.uleb128 0xa
 423 0331 04       		.byte	0x4
 424 0332 36030000 		.4byte	0x336
 425 0336 0C       		.uleb128 0xc
 426 0337 41030000 		.4byte	0x341
 427 033b 0D       		.uleb128 0xd
 428 033c 41030000 		.4byte	0x341
 429 0340 00       		.byte	0
 430 0341 0E       		.uleb128 0xe
 431 0342 04       		.byte	0x4
 432 0343 04       		.uleb128 0x4
 433 0344 6E030000 		.4byte	.LASF64
 434 0348 04       		.byte	0x4
 435 0349 61       		.byte	0x61
 436 034a 4E030000 		.4byte	0x34e
 437 034e 0B       		.uleb128 0xb
 438 034f 1D040000 		.4byte	.LASF65
 439 0353 14       		.byte	0x14
 440 0354 05       		.byte	0x5
 441 0355 6B01     		.2byte	0x16b
 442 0357 9D030000 		.4byte	0x39d
 443 035b 09       		.uleb128 0x9
 444 035c F9010000 		.4byte	.LASF66
 445 0360 05       		.byte	0x5
 446 0361 6C01     		.2byte	0x16c
 447 0363 00070000 		.4byte	0x700
 448 0367 00       		.byte	0
 449 0368 09       		.uleb128 0x9
 450 0369 C7010000 		.4byte	.LASF67
 451 036d 05       		.byte	0x5
 452 036e 6D01     		.2byte	0x16d
 453 0370 00070000 		.4byte	0x700
 454 0374 04       		.byte	0x4
 455 0375 09       		.uleb128 0x9
 456 0376 28020000 		.4byte	.LASF68
ARM GAS  C:\Users\CHRIST~1\AppData\Local\Temp\cce8dDHn.s 			page 9


 457 037a 05       		.byte	0x5
 458 037b 6E01     		.2byte	0x16e
 459 037d 39010000 		.4byte	0x139
 460 0381 08       		.byte	0x8
 461 0382 09       		.uleb128 0x9
 462 0383 AA060000 		.4byte	.LASF69
 463 0387 05       		.byte	0x5
 464 0388 6F01     		.2byte	0x16f
 465 038a 25030000 		.4byte	0x325
 466 038e 0C       		.byte	0xc
 467 038f 09       		.uleb128 0x9
 468 0390 09050000 		.4byte	.LASF70
 469 0394 05       		.byte	0x5
 470 0395 7101     		.2byte	0x171
 471 0397 41030000 		.4byte	0x341
 472 039b 10       		.byte	0x10
 473 039c 00       		.byte	0
 474 039d 04       		.uleb128 0x4
 475 039e B0000000 		.4byte	.LASF71
 476 03a2 04       		.byte	0x4
 477 03a3 66       		.byte	0x66
 478 03a4 A8030000 		.4byte	0x3a8
 479 03a8 0B       		.uleb128 0xb
 480 03a9 EA020000 		.4byte	.LASF72
 481 03ad 10       		.byte	0x10
 482 03ae 05       		.byte	0x5
 483 03af 7B01     		.2byte	0x17b
 484 03b1 EA030000 		.4byte	0x3ea
 485 03b5 09       		.uleb128 0x9
 486 03b6 F9010000 		.4byte	.LASF66
 487 03ba 05       		.byte	0x5
 488 03bb 7C01     		.2byte	0x17c
 489 03bd 00070000 		.4byte	0x700
 490 03c1 00       		.byte	0
 491 03c2 09       		.uleb128 0x9
 492 03c3 C7010000 		.4byte	.LASF67
 493 03c7 05       		.byte	0x5
 494 03c8 7E01     		.2byte	0x17e
 495 03ca 00070000 		.4byte	0x700
 496 03ce 04       		.byte	0x4
 497 03cf 09       		.uleb128 0x9
 498 03d0 28020000 		.4byte	.LASF68
 499 03d4 05       		.byte	0x5
 500 03d5 8001     		.2byte	0x180
 501 03d7 39010000 		.4byte	0x139
 502 03db 08       		.byte	0x8
 503 03dc 09       		.uleb128 0x9
 504 03dd 5A050000 		.4byte	.LASF73
 505 03e1 05       		.byte	0x5
 506 03e2 8201     		.2byte	0x182
 507 03e4 44010000 		.4byte	0x144
 508 03e8 0C       		.byte	0xc
 509 03e9 00       		.byte	0
 510 03ea 04       		.uleb128 0x4
 511 03eb 46000000 		.4byte	.LASF74
 512 03ef 04       		.byte	0x4
 513 03f0 6B       		.byte	0x6b
ARM GAS  C:\Users\CHRIST~1\AppData\Local\Temp\cce8dDHn.s 			page 10


 514 03f1 F5030000 		.4byte	0x3f5
 515 03f5 0B       		.uleb128 0xb
 516 03f6 8D030000 		.4byte	.LASF75
 517 03fa 04       		.byte	0x4
 518 03fb 05       		.byte	0x5
 519 03fc A201     		.2byte	0x1a2
 520 03fe 10040000 		.4byte	0x410
 521 0402 09       		.uleb128 0x9
 522 0403 EA040000 		.4byte	.LASF76
 523 0407 05       		.byte	0x5
 524 0408 AA01     		.2byte	0x1aa
 525 040a EF060000 		.4byte	0x6ef
 526 040e 00       		.byte	0
 527 040f 00       		.byte	0
 528 0410 04       		.uleb128 0x4
 529 0411 6E020000 		.4byte	.LASF77
 530 0415 04       		.byte	0x4
 531 0416 70       		.byte	0x70
 532 0417 1B040000 		.4byte	0x41b
 533 041b 0F       		.uleb128 0xf
 534 041c 80010000 		.4byte	.LASF78
 535 0420 5802     		.2byte	0x258
 536 0422 05       		.byte	0x5
 537 0423 C201     		.2byte	0x1c2
 538 0425 77040000 		.4byte	0x477
 539 0429 09       		.uleb128 0x9
 540 042a 2B050000 		.4byte	.LASF79
 541 042e 05       		.byte	0x5
 542 042f C601     		.2byte	0x1c6
 543 0431 BE020000 		.4byte	0x2be
 544 0435 00       		.byte	0
 545 0436 09       		.uleb128 0x9
 546 0437 6F010000 		.4byte	.LASF80
 547 043b 05       		.byte	0x5
 548 043c CA01     		.2byte	0x1ca
 549 043e 9D030000 		.4byte	0x39d
 550 0442 1C       		.byte	0x1c
 551 0443 08       		.uleb128 0x8
 552 0444 64626700 		.ascii	"dbg\000"
 553 0448 05       		.byte	0x5
 554 0449 CE01     		.2byte	0x1ce
 555 044b EA030000 		.4byte	0x3ea
 556 044f 2C       		.byte	0x2c
 557 0450 09       		.uleb128 0x9
 558 0451 A5000000 		.4byte	.LASF81
 559 0455 05       		.byte	0x5
 560 0456 D201     		.2byte	0x1d2
 561 0458 49010000 		.4byte	0x149
 562 045c 30       		.byte	0x30
 563 045d 08       		.uleb128 0x8
 564 045e 746D00   		.ascii	"tm\000"
 565 0461 05       		.byte	0x5
 566 0462 D701     		.2byte	0x1d7
 567 0464 19060000 		.4byte	0x619
 568 0468 78       		.byte	0x78
 569 0469 09       		.uleb128 0x9
 570 046a D7010000 		.4byte	.LASF82
ARM GAS  C:\Users\CHRIST~1\AppData\Local\Temp\cce8dDHn.s 			page 11


 571 046e 05       		.byte	0x5
 572 046f E301     		.2byte	0x1e3
 573 0471 06070000 		.4byte	0x706
 574 0475 80       		.byte	0x80
 575 0476 00       		.byte	0
 576 0477 10       		.uleb128 0x10
 577 0478 C6000000 		.4byte	.LASF83
 578 047c 06       		.byte	0x6
 579 047d A706     		.2byte	0x6a7
 580 047f BB000000 		.4byte	0xbb
 581 0483 11       		.uleb128 0x11
 582 0484 0A020000 		.4byte	.LASF84
 583 0488 07       		.byte	0x7
 584 0489 4C       		.byte	0x4c
 585 048a C0000000 		.4byte	0xc0
 586 048e 04       		.uleb128 0x4
 587 048f BE010000 		.4byte	.LASF85
 588 0493 08       		.byte	0x8
 589 0494 65       		.byte	0x65
 590 0495 41030000 		.4byte	0x341
 591 0499 04       		.uleb128 0x4
 592 049a AA020000 		.4byte	.LASF86
 593 049e 08       		.byte	0x8
 594 049f 6D       		.byte	0x6d
 595 04a0 CB000000 		.4byte	0xcb
 596 04a4 06       		.uleb128 0x6
 597 04a5 FB040000 		.4byte	.LASF87
 598 04a9 04       		.byte	0x4
 599 04aa 08       		.byte	0x8
 600 04ab 89       		.byte	0x89
 601 04ac BD040000 		.4byte	0x4bd
 602 04b0 12       		.uleb128 0x12
 603 04b1 72313300 		.ascii	"r13\000"
 604 04b5 08       		.byte	0x8
 605 04b6 8A       		.byte	0x8a
 606 04b7 FE050000 		.4byte	0x5fe
 607 04bb 00       		.byte	0
 608 04bc 00       		.byte	0
 609 04bd 06       		.uleb128 0x6
 610 04be 3A000000 		.4byte	.LASF88
 611 04c2 64       		.byte	0x64
 612 04c3 09       		.byte	0x9
 613 04c4 F4       		.byte	0xf4
 614 04c5 FE050000 		.4byte	0x5fe
 615 04c9 12       		.uleb128 0x12
 616 04ca 73313600 		.ascii	"s16\000"
 617 04ce 09       		.byte	0x9
 618 04cf F6       		.byte	0xf6
 619 04d0 8E040000 		.4byte	0x48e
 620 04d4 00       		.byte	0
 621 04d5 12       		.uleb128 0x12
 622 04d6 73313700 		.ascii	"s17\000"
 623 04da 09       		.byte	0x9
 624 04db F7       		.byte	0xf7
 625 04dc 8E040000 		.4byte	0x48e
 626 04e0 04       		.byte	0x4
 627 04e1 12       		.uleb128 0x12
ARM GAS  C:\Users\CHRIST~1\AppData\Local\Temp\cce8dDHn.s 			page 12


 628 04e2 73313800 		.ascii	"s18\000"
 629 04e6 09       		.byte	0x9
 630 04e7 F8       		.byte	0xf8
 631 04e8 8E040000 		.4byte	0x48e
 632 04ec 08       		.byte	0x8
 633 04ed 12       		.uleb128 0x12
 634 04ee 73313900 		.ascii	"s19\000"
 635 04f2 09       		.byte	0x9
 636 04f3 F9       		.byte	0xf9
 637 04f4 8E040000 		.4byte	0x48e
 638 04f8 0C       		.byte	0xc
 639 04f9 12       		.uleb128 0x12
 640 04fa 73323000 		.ascii	"s20\000"
 641 04fe 09       		.byte	0x9
 642 04ff FA       		.byte	0xfa
 643 0500 8E040000 		.4byte	0x48e
 644 0504 10       		.byte	0x10
 645 0505 12       		.uleb128 0x12
 646 0506 73323100 		.ascii	"s21\000"
 647 050a 09       		.byte	0x9
 648 050b FB       		.byte	0xfb
 649 050c 8E040000 		.4byte	0x48e
 650 0510 14       		.byte	0x14
 651 0511 12       		.uleb128 0x12
 652 0512 73323200 		.ascii	"s22\000"
 653 0516 09       		.byte	0x9
 654 0517 FC       		.byte	0xfc
 655 0518 8E040000 		.4byte	0x48e
 656 051c 18       		.byte	0x18
 657 051d 12       		.uleb128 0x12
 658 051e 73323300 		.ascii	"s23\000"
 659 0522 09       		.byte	0x9
 660 0523 FD       		.byte	0xfd
 661 0524 8E040000 		.4byte	0x48e
 662 0528 1C       		.byte	0x1c
 663 0529 12       		.uleb128 0x12
 664 052a 73323400 		.ascii	"s24\000"
 665 052e 09       		.byte	0x9
 666 052f FE       		.byte	0xfe
 667 0530 8E040000 		.4byte	0x48e
 668 0534 20       		.byte	0x20
 669 0535 12       		.uleb128 0x12
 670 0536 73323500 		.ascii	"s25\000"
 671 053a 09       		.byte	0x9
 672 053b FF       		.byte	0xff
 673 053c 8E040000 		.4byte	0x48e
 674 0540 24       		.byte	0x24
 675 0541 08       		.uleb128 0x8
 676 0542 73323600 		.ascii	"s26\000"
 677 0546 09       		.byte	0x9
 678 0547 0001     		.2byte	0x100
 679 0549 8E040000 		.4byte	0x48e
 680 054d 28       		.byte	0x28
 681 054e 08       		.uleb128 0x8
 682 054f 73323700 		.ascii	"s27\000"
 683 0553 09       		.byte	0x9
 684 0554 0101     		.2byte	0x101
ARM GAS  C:\Users\CHRIST~1\AppData\Local\Temp\cce8dDHn.s 			page 13


 685 0556 8E040000 		.4byte	0x48e
 686 055a 2C       		.byte	0x2c
 687 055b 08       		.uleb128 0x8
 688 055c 73323800 		.ascii	"s28\000"
 689 0560 09       		.byte	0x9
 690 0561 0201     		.2byte	0x102
 691 0563 8E040000 		.4byte	0x48e
 692 0567 30       		.byte	0x30
 693 0568 08       		.uleb128 0x8
 694 0569 73323900 		.ascii	"s29\000"
 695 056d 09       		.byte	0x9
 696 056e 0301     		.2byte	0x103
 697 0570 8E040000 		.4byte	0x48e
 698 0574 34       		.byte	0x34
 699 0575 08       		.uleb128 0x8
 700 0576 73333000 		.ascii	"s30\000"
 701 057a 09       		.byte	0x9
 702 057b 0401     		.2byte	0x104
 703 057d 8E040000 		.4byte	0x48e
 704 0581 38       		.byte	0x38
 705 0582 08       		.uleb128 0x8
 706 0583 73333100 		.ascii	"s31\000"
 707 0587 09       		.byte	0x9
 708 0588 0501     		.2byte	0x105
 709 058a 8E040000 		.4byte	0x48e
 710 058e 3C       		.byte	0x3c
 711 058f 08       		.uleb128 0x8
 712 0590 723400   		.ascii	"r4\000"
 713 0593 09       		.byte	0x9
 714 0594 0701     		.2byte	0x107
 715 0596 8E040000 		.4byte	0x48e
 716 059a 40       		.byte	0x40
 717 059b 08       		.uleb128 0x8
 718 059c 723500   		.ascii	"r5\000"
 719 059f 09       		.byte	0x9
 720 05a0 0801     		.2byte	0x108
 721 05a2 8E040000 		.4byte	0x48e
 722 05a6 44       		.byte	0x44
 723 05a7 08       		.uleb128 0x8
 724 05a8 723600   		.ascii	"r6\000"
 725 05ab 09       		.byte	0x9
 726 05ac 0901     		.2byte	0x109
 727 05ae 8E040000 		.4byte	0x48e
 728 05b2 48       		.byte	0x48
 729 05b3 08       		.uleb128 0x8
 730 05b4 723700   		.ascii	"r7\000"
 731 05b7 09       		.byte	0x9
 732 05b8 0A01     		.2byte	0x10a
 733 05ba 8E040000 		.4byte	0x48e
 734 05be 4C       		.byte	0x4c
 735 05bf 08       		.uleb128 0x8
 736 05c0 723800   		.ascii	"r8\000"
 737 05c3 09       		.byte	0x9
 738 05c4 0B01     		.2byte	0x10b
 739 05c6 8E040000 		.4byte	0x48e
 740 05ca 50       		.byte	0x50
 741 05cb 08       		.uleb128 0x8
ARM GAS  C:\Users\CHRIST~1\AppData\Local\Temp\cce8dDHn.s 			page 14


 742 05cc 723900   		.ascii	"r9\000"
 743 05cf 09       		.byte	0x9
 744 05d0 0C01     		.2byte	0x10c
 745 05d2 8E040000 		.4byte	0x48e
 746 05d6 54       		.byte	0x54
 747 05d7 08       		.uleb128 0x8
 748 05d8 72313000 		.ascii	"r10\000"
 749 05dc 09       		.byte	0x9
 750 05dd 0D01     		.2byte	0x10d
 751 05df 8E040000 		.4byte	0x48e
 752 05e3 58       		.byte	0x58
 753 05e4 08       		.uleb128 0x8
 754 05e5 72313100 		.ascii	"r11\000"
 755 05e9 09       		.byte	0x9
 756 05ea 0E01     		.2byte	0x10e
 757 05ec 8E040000 		.4byte	0x48e
 758 05f0 5C       		.byte	0x5c
 759 05f1 08       		.uleb128 0x8
 760 05f2 6C7200   		.ascii	"lr\000"
 761 05f5 09       		.byte	0x9
 762 05f6 0F01     		.2byte	0x10f
 763 05f8 8E040000 		.4byte	0x48e
 764 05fc 60       		.byte	0x60
 765 05fd 00       		.byte	0
 766 05fe 0A       		.uleb128 0xa
 767 05ff 04       		.byte	0x4
 768 0600 BD040000 		.4byte	0x4bd
 769 0604 13       		.uleb128 0x13
 770 0605 04       		.byte	0x4
 771 0606 0A       		.byte	0xa
 772 0607 38       		.byte	0x38
 773 0608 19060000 		.4byte	0x619
 774 060c 07       		.uleb128 0x7
 775 060d F4040000 		.4byte	.LASF89
 776 0611 0A       		.byte	0xa
 777 0612 3C       		.byte	0x3c
 778 0613 D6000000 		.4byte	0xd6
 779 0617 00       		.byte	0
 780 0618 00       		.byte	0
 781 0619 04       		.uleb128 0x4
 782 061a 2D030000 		.4byte	.LASF90
 783 061e 0A       		.byte	0xa
 784 061f 3D       		.byte	0x3d
 785 0620 04060000 		.4byte	0x604
 786 0624 14       		.uleb128 0x14
 787 0625 04       		.byte	0x4
 788 0626 05       		.byte	0x5
 789 0627 FA       		.byte	0xfa
 790 0628 81060000 		.4byte	0x681
 791 062c 15       		.uleb128 0x15
 792 062d 20000000 		.4byte	.LASF91
 793 0631 05       		.byte	0x5
 794 0632 0101     		.2byte	0x101
 795 0634 18010000 		.4byte	0x118
 796 0638 15       		.uleb128 0x15
 797 0639 9C000000 		.4byte	.LASF92
 798 063d 05       		.byte	0x5
ARM GAS  C:\Users\CHRIST~1\AppData\Local\Temp\cce8dDHn.s 			page 15


 799 063e 0801     		.2byte	0x108
 800 0640 18010000 		.4byte	0x118
 801 0644 15       		.uleb128 0x15
 802 0645 4C050000 		.4byte	.LASF93
 803 0649 05       		.byte	0x5
 804 064a 0F01     		.2byte	0x10f
 805 064c 41030000 		.4byte	0x341
 806 0650 15       		.uleb128 0x15
 807 0651 1A000000 		.4byte	.LASF94
 808 0655 05       		.byte	0x5
 809 0656 1601     		.2byte	0x116
 810 0658 81060000 		.4byte	0x681
 811 065c 15       		.uleb128 0x15
 812 065d 21020000 		.4byte	.LASF95
 813 0661 05       		.byte	0x5
 814 0662 1E01     		.2byte	0x11e
 815 0664 AC060000 		.4byte	0x6ac
 816 0668 15       		.uleb128 0x15
 817 0669 9F040000 		.4byte	.LASF96
 818 066d 05       		.byte	0x5
 819 066e 2701     		.2byte	0x127
 820 0670 E3060000 		.4byte	0x6e3
 821 0674 15       		.uleb128 0x15
 822 0675 E0030000 		.4byte	.LASF97
 823 0679 05       		.byte	0x5
 824 067a 2F01     		.2byte	0x12f
 825 067c 23010000 		.4byte	0x123
 826 0680 00       		.byte	0
 827 0681 0A       		.uleb128 0xa
 828 0682 04       		.byte	0x4
 829 0683 59020000 		.4byte	0x259
 830 0687 06       		.uleb128 0x6
 831 0688 3B040000 		.4byte	.LASF98
 832 068c 0C       		.byte	0xc
 833 068d 0B       		.byte	0xb
 834 068e 34       		.byte	0x34
 835 068f AC060000 		.4byte	0x6ac
 836 0693 07       		.uleb128 0x7
 837 0694 AE010000 		.4byte	.LASF99
 838 0698 0B       		.byte	0xb
 839 0699 35       		.byte	0x35
 840 069a 8E020000 		.4byte	0x28e
 841 069e 00       		.byte	0
 842 069f 07       		.uleb128 0x7
 843 06a0 45020000 		.4byte	.LASF100
 844 06a4 0B       		.byte	0xb
 845 06a5 37       		.byte	0x37
 846 06a6 2E010000 		.4byte	0x12e
 847 06aa 08       		.byte	0x8
 848 06ab 00       		.byte	0
 849 06ac 0A       		.uleb128 0xa
 850 06ad 04       		.byte	0x4
 851 06ae 87060000 		.4byte	0x687
 852 06b2 06       		.uleb128 0x6
 853 06b3 1B050000 		.4byte	.LASF101
 854 06b7 10       		.byte	0x10
 855 06b8 0C       		.byte	0xc
ARM GAS  C:\Users\CHRIST~1\AppData\Local\Temp\cce8dDHn.s 			page 16


 856 06b9 39       		.byte	0x39
 857 06ba E3060000 		.4byte	0x6e3
 858 06be 07       		.uleb128 0x7
 859 06bf 67010000 		.4byte	.LASF102
 860 06c3 0C       		.byte	0xc
 861 06c4 3A       		.byte	0x3a
 862 06c5 8E020000 		.4byte	0x28e
 863 06c9 00       		.byte	0
 864 06ca 07       		.uleb128 0x7
 865 06cb 94060000 		.4byte	.LASF103
 866 06cf 0C       		.byte	0xc
 867 06d0 3C       		.byte	0x3c
 868 06d1 64020000 		.4byte	0x264
 869 06d5 08       		.byte	0x8
 870 06d6 07       		.uleb128 0x7
 871 06d7 BA040000 		.4byte	.LASF104
 872 06db 0C       		.byte	0xc
 873 06dc 3E       		.byte	0x3e
 874 06dd 38080000 		.4byte	0x838
 875 06e1 0C       		.byte	0xc
 876 06e2 00       		.byte	0
 877 06e3 0A       		.uleb128 0xa
 878 06e4 04       		.byte	0x4
 879 06e5 B2060000 		.4byte	0x6b2
 880 06e9 0A       		.uleb128 0xa
 881 06ea 04       		.byte	0x4
 882 06eb FB060000 		.4byte	0x6fb
 883 06ef 05       		.uleb128 0x5
 884 06f0 E9060000 		.4byte	0x6e9
 885 06f4 03       		.uleb128 0x3
 886 06f5 01       		.byte	0x1
 887 06f6 08       		.byte	0x8
 888 06f7 9A040000 		.4byte	.LASF105
 889 06fb 16       		.uleb128 0x16
 890 06fc F4060000 		.4byte	0x6f4
 891 0700 0A       		.uleb128 0xa
 892 0701 04       		.byte	0x4
 893 0702 43030000 		.4byte	0x343
 894 0706 17       		.uleb128 0x17
 895 0707 99040000 		.4byte	0x499
 896 070b 16070000 		.4byte	0x716
 897 070f 18       		.uleb128 0x18
 898 0710 24000000 		.4byte	0x24
 899 0714 3A       		.byte	0x3a
 900 0715 00       		.byte	0
 901 0716 19       		.uleb128 0x19
 902 0717 636800   		.ascii	"ch\000"
 903 071a 05       		.byte	0x5
 904 071b 0902     		.2byte	0x209
 905 071d 10040000 		.4byte	0x410
 906 0721 13       		.uleb128 0x13
 907 0722 16       		.byte	0x16
 908 0723 0D       		.byte	0xd
 909 0724 34       		.byte	0x34
 910 0725 02080000 		.4byte	0x802
 911 0729 07       		.uleb128 0x7
 912 072a 9C060000 		.4byte	.LASF106
ARM GAS  C:\Users\CHRIST~1\AppData\Local\Temp\cce8dDHn.s 			page 17


 913 072e 0D       		.byte	0xd
 914 072f 35       		.byte	0x35
 915 0730 02080000 		.4byte	0x802
 916 0734 00       		.byte	0
 917 0735 07       		.uleb128 0x7
 918 0736 C4020000 		.4byte	.LASF107
 919 073a 0D       		.byte	0xd
 920 073b 36       		.byte	0x36
 921 073c 9A000000 		.4byte	0x9a
 922 0740 04       		.byte	0x4
 923 0741 07       		.uleb128 0x7
 924 0742 80040000 		.4byte	.LASF108
 925 0746 0D       		.byte	0xd
 926 0747 37       		.byte	0x37
 927 0748 9A000000 		.4byte	0x9a
 928 074c 05       		.byte	0x5
 929 074d 07       		.uleb128 0x7
 930 074e 65050000 		.4byte	.LASF109
 931 0752 0D       		.byte	0xd
 932 0753 38       		.byte	0x38
 933 0754 A5000000 		.4byte	0xa5
 934 0758 06       		.byte	0x6
 935 0759 07       		.uleb128 0x7
 936 075a 63030000 		.4byte	.LASF110
 937 075e 0D       		.byte	0xd
 938 075f 39       		.byte	0x39
 939 0760 9A000000 		.4byte	0x9a
 940 0764 08       		.byte	0x8
 941 0765 07       		.uleb128 0x7
 942 0766 01030000 		.4byte	.LASF111
 943 076a 0D       		.byte	0xd
 944 076b 3A       		.byte	0x3a
 945 076c 9A000000 		.4byte	0x9a
 946 0770 09       		.byte	0x9
 947 0771 07       		.uleb128 0x7
 948 0772 8E000000 		.4byte	.LASF112
 949 0776 0D       		.byte	0xd
 950 0777 3B       		.byte	0x3b
 951 0778 9A000000 		.4byte	0x9a
 952 077c 0A       		.byte	0xa
 953 077d 07       		.uleb128 0x7
 954 077e 5C040000 		.4byte	.LASF113
 955 0782 0D       		.byte	0xd
 956 0783 3C       		.byte	0x3c
 957 0784 9A000000 		.4byte	0x9a
 958 0788 0B       		.byte	0xb
 959 0789 07       		.uleb128 0x7
 960 078a 10050000 		.4byte	.LASF114
 961 078e 0D       		.byte	0xd
 962 078f 3D       		.byte	0x3d
 963 0790 9A000000 		.4byte	0x9a
 964 0794 0C       		.byte	0xc
 965 0795 07       		.uleb128 0x7
 966 0796 2E040000 		.4byte	.LASF115
 967 079a 0D       		.byte	0xd
 968 079b 3E       		.byte	0x3e
 969 079c 9A000000 		.4byte	0x9a
ARM GAS  C:\Users\CHRIST~1\AppData\Local\Temp\cce8dDHn.s 			page 18


 970 07a0 0D       		.byte	0xd
 971 07a1 07       		.uleb128 0x7
 972 07a2 00000000 		.4byte	.LASF116
 973 07a6 0D       		.byte	0xd
 974 07a7 3F       		.byte	0x3f
 975 07a8 9A000000 		.4byte	0x9a
 976 07ac 0E       		.byte	0xe
 977 07ad 07       		.uleb128 0x7
 978 07ae 0D030000 		.4byte	.LASF117
 979 07b2 0D       		.byte	0xd
 980 07b3 40       		.byte	0x40
 981 07b4 9A000000 		.4byte	0x9a
 982 07b8 0F       		.byte	0xf
 983 07b9 07       		.uleb128 0x7
 984 07ba 12010000 		.4byte	.LASF118
 985 07be 0D       		.byte	0xd
 986 07bf 41       		.byte	0x41
 987 07c0 9A000000 		.4byte	0x9a
 988 07c4 10       		.byte	0x10
 989 07c5 07       		.uleb128 0x7
 990 07c6 EB000000 		.4byte	.LASF119
 991 07ca 0D       		.byte	0xd
 992 07cb 43       		.byte	0x43
 993 07cc 9A000000 		.4byte	0x9a
 994 07d0 11       		.byte	0x11
 995 07d1 07       		.uleb128 0x7
 996 07d2 52010000 		.4byte	.LASF120
 997 07d6 0D       		.byte	0xd
 998 07d7 44       		.byte	0x44
 999 07d8 9A000000 		.4byte	0x9a
 1000 07dc 12       		.byte	0x12
 1001 07dd 07       		.uleb128 0x7
 1002 07de CC020000 		.4byte	.LASF121
 1003 07e2 0D       		.byte	0xd
 1004 07e3 45       		.byte	0x45
 1005 07e4 9A000000 		.4byte	0x9a
 1006 07e8 13       		.byte	0x13
 1007 07e9 07       		.uleb128 0x7
 1008 07ea F6030000 		.4byte	.LASF122
 1009 07ee 0D       		.byte	0xd
 1010 07ef 46       		.byte	0x46
 1011 07f0 9A000000 		.4byte	0x9a
 1012 07f4 14       		.byte	0x14
 1013 07f5 07       		.uleb128 0x7
 1014 07f6 7A020000 		.4byte	.LASF123
 1015 07fa 0D       		.byte	0xd
 1016 07fb 48       		.byte	0x48
 1017 07fc 9A000000 		.4byte	0x9a
 1018 0800 15       		.byte	0x15
 1019 0801 00       		.byte	0
 1020 0802 17       		.uleb128 0x17
 1021 0803 F4060000 		.4byte	0x6f4
 1022 0807 12080000 		.4byte	0x812
 1023 080b 18       		.uleb128 0x18
 1024 080c 24000000 		.4byte	0x24
 1025 0810 03       		.byte	0x3
 1026 0811 00       		.byte	0
ARM GAS  C:\Users\CHRIST~1\AppData\Local\Temp\cce8dDHn.s 			page 19


 1027 0812 04       		.uleb128 0x4
 1028 0813 9C010000 		.4byte	.LASF124
 1029 0817 0D       		.byte	0xd
 1030 0818 49       		.byte	0x49
 1031 0819 21070000 		.4byte	0x721
 1032 081d 16       		.uleb128 0x16
 1033 081e 12080000 		.4byte	0x812
 1034 0822 11       		.uleb128 0x11
 1035 0823 3C020000 		.4byte	.LASF125
 1036 0827 0D       		.byte	0xd
 1037 0828 6E       		.byte	0x6e
 1038 0829 1D080000 		.4byte	0x81d
 1039 082d 04       		.uleb128 0x4
 1040 082e CF010000 		.4byte	.LASF126
 1041 0832 0C       		.byte	0xc
 1042 0833 34       		.byte	0x34
 1043 0834 B2060000 		.4byte	0x6b2
 1044 0838 0A       		.uleb128 0xa
 1045 0839 04       		.byte	0x4
 1046 083a 2D080000 		.4byte	0x82d
 1047 083e 00       		.byte	0
 1048              		.section	.debug_abbrev,"",%progbits
 1049              	.Ldebug_abbrev0:
 1050 0000 01       		.uleb128 0x1
 1051 0001 11       		.uleb128 0x11
 1052 0002 01       		.byte	0x1
 1053 0003 25       		.uleb128 0x25
 1054 0004 0E       		.uleb128 0xe
 1055 0005 13       		.uleb128 0x13
 1056 0006 0B       		.uleb128 0xb
 1057 0007 03       		.uleb128 0x3
 1058 0008 0E       		.uleb128 0xe
 1059 0009 1B       		.uleb128 0x1b
 1060 000a 0E       		.uleb128 0xe
 1061 000b 10       		.uleb128 0x10
 1062 000c 17       		.uleb128 0x17
 1063 000d 00       		.byte	0
 1064 000e 00       		.byte	0
 1065 000f 02       		.uleb128 0x2
 1066 0010 24       		.uleb128 0x24
 1067 0011 00       		.byte	0
 1068 0012 0B       		.uleb128 0xb
 1069 0013 0B       		.uleb128 0xb
 1070 0014 3E       		.uleb128 0x3e
 1071 0015 0B       		.uleb128 0xb
 1072 0016 03       		.uleb128 0x3
 1073 0017 08       		.uleb128 0x8
 1074 0018 00       		.byte	0
 1075 0019 00       		.byte	0
 1076 001a 03       		.uleb128 0x3
 1077 001b 24       		.uleb128 0x24
 1078 001c 00       		.byte	0
 1079 001d 0B       		.uleb128 0xb
 1080 001e 0B       		.uleb128 0xb
 1081 001f 3E       		.uleb128 0x3e
 1082 0020 0B       		.uleb128 0xb
 1083 0021 03       		.uleb128 0x3
ARM GAS  C:\Users\CHRIST~1\AppData\Local\Temp\cce8dDHn.s 			page 20


 1084 0022 0E       		.uleb128 0xe
 1085 0023 00       		.byte	0
 1086 0024 00       		.byte	0
 1087 0025 04       		.uleb128 0x4
 1088 0026 16       		.uleb128 0x16
 1089 0027 00       		.byte	0
 1090 0028 03       		.uleb128 0x3
 1091 0029 0E       		.uleb128 0xe
 1092 002a 3A       		.uleb128 0x3a
 1093 002b 0B       		.uleb128 0xb
 1094 002c 3B       		.uleb128 0x3b
 1095 002d 0B       		.uleb128 0xb
 1096 002e 49       		.uleb128 0x49
 1097 002f 13       		.uleb128 0x13
 1098 0030 00       		.byte	0
 1099 0031 00       		.byte	0
 1100 0032 05       		.uleb128 0x5
 1101 0033 35       		.uleb128 0x35
 1102 0034 00       		.byte	0
 1103 0035 49       		.uleb128 0x49
 1104 0036 13       		.uleb128 0x13
 1105 0037 00       		.byte	0
 1106 0038 00       		.byte	0
 1107 0039 06       		.uleb128 0x6
 1108 003a 13       		.uleb128 0x13
 1109 003b 01       		.byte	0x1
 1110 003c 03       		.uleb128 0x3
 1111 003d 0E       		.uleb128 0xe
 1112 003e 0B       		.uleb128 0xb
 1113 003f 0B       		.uleb128 0xb
 1114 0040 3A       		.uleb128 0x3a
 1115 0041 0B       		.uleb128 0xb
 1116 0042 3B       		.uleb128 0x3b
 1117 0043 0B       		.uleb128 0xb
 1118 0044 01       		.uleb128 0x1
 1119 0045 13       		.uleb128 0x13
 1120 0046 00       		.byte	0
 1121 0047 00       		.byte	0
 1122 0048 07       		.uleb128 0x7
 1123 0049 0D       		.uleb128 0xd
 1124 004a 00       		.byte	0
 1125 004b 03       		.uleb128 0x3
 1126 004c 0E       		.uleb128 0xe
 1127 004d 3A       		.uleb128 0x3a
 1128 004e 0B       		.uleb128 0xb
 1129 004f 3B       		.uleb128 0x3b
 1130 0050 0B       		.uleb128 0xb
 1131 0051 49       		.uleb128 0x49
 1132 0052 13       		.uleb128 0x13
 1133 0053 38       		.uleb128 0x38
 1134 0054 0B       		.uleb128 0xb
 1135 0055 00       		.byte	0
 1136 0056 00       		.byte	0
 1137 0057 08       		.uleb128 0x8
 1138 0058 0D       		.uleb128 0xd
 1139 0059 00       		.byte	0
 1140 005a 03       		.uleb128 0x3
ARM GAS  C:\Users\CHRIST~1\AppData\Local\Temp\cce8dDHn.s 			page 21


 1141 005b 08       		.uleb128 0x8
 1142 005c 3A       		.uleb128 0x3a
 1143 005d 0B       		.uleb128 0xb
 1144 005e 3B       		.uleb128 0x3b
 1145 005f 05       		.uleb128 0x5
 1146 0060 49       		.uleb128 0x49
 1147 0061 13       		.uleb128 0x13
 1148 0062 38       		.uleb128 0x38
 1149 0063 0B       		.uleb128 0xb
 1150 0064 00       		.byte	0
 1151 0065 00       		.byte	0
 1152 0066 09       		.uleb128 0x9
 1153 0067 0D       		.uleb128 0xd
 1154 0068 00       		.byte	0
 1155 0069 03       		.uleb128 0x3
 1156 006a 0E       		.uleb128 0xe
 1157 006b 3A       		.uleb128 0x3a
 1158 006c 0B       		.uleb128 0xb
 1159 006d 3B       		.uleb128 0x3b
 1160 006e 05       		.uleb128 0x5
 1161 006f 49       		.uleb128 0x49
 1162 0070 13       		.uleb128 0x13
 1163 0071 38       		.uleb128 0x38
 1164 0072 0B       		.uleb128 0xb
 1165 0073 00       		.byte	0
 1166 0074 00       		.byte	0
 1167 0075 0A       		.uleb128 0xa
 1168 0076 0F       		.uleb128 0xf
 1169 0077 00       		.byte	0
 1170 0078 0B       		.uleb128 0xb
 1171 0079 0B       		.uleb128 0xb
 1172 007a 49       		.uleb128 0x49
 1173 007b 13       		.uleb128 0x13
 1174 007c 00       		.byte	0
 1175 007d 00       		.byte	0
 1176 007e 0B       		.uleb128 0xb
 1177 007f 13       		.uleb128 0x13
 1178 0080 01       		.byte	0x1
 1179 0081 03       		.uleb128 0x3
 1180 0082 0E       		.uleb128 0xe
 1181 0083 0B       		.uleb128 0xb
 1182 0084 0B       		.uleb128 0xb
 1183 0085 3A       		.uleb128 0x3a
 1184 0086 0B       		.uleb128 0xb
 1185 0087 3B       		.uleb128 0x3b
 1186 0088 05       		.uleb128 0x5
 1187 0089 01       		.uleb128 0x1
 1188 008a 13       		.uleb128 0x13
 1189 008b 00       		.byte	0
 1190 008c 00       		.byte	0
 1191 008d 0C       		.uleb128 0xc
 1192 008e 15       		.uleb128 0x15
 1193 008f 01       		.byte	0x1
 1194 0090 27       		.uleb128 0x27
 1195 0091 19       		.uleb128 0x19
 1196 0092 01       		.uleb128 0x1
 1197 0093 13       		.uleb128 0x13
ARM GAS  C:\Users\CHRIST~1\AppData\Local\Temp\cce8dDHn.s 			page 22


 1198 0094 00       		.byte	0
 1199 0095 00       		.byte	0
 1200 0096 0D       		.uleb128 0xd
 1201 0097 05       		.uleb128 0x5
 1202 0098 00       		.byte	0
 1203 0099 49       		.uleb128 0x49
 1204 009a 13       		.uleb128 0x13
 1205 009b 00       		.byte	0
 1206 009c 00       		.byte	0
 1207 009d 0E       		.uleb128 0xe
 1208 009e 0F       		.uleb128 0xf
 1209 009f 00       		.byte	0
 1210 00a0 0B       		.uleb128 0xb
 1211 00a1 0B       		.uleb128 0xb
 1212 00a2 00       		.byte	0
 1213 00a3 00       		.byte	0
 1214 00a4 0F       		.uleb128 0xf
 1215 00a5 13       		.uleb128 0x13
 1216 00a6 01       		.byte	0x1
 1217 00a7 03       		.uleb128 0x3
 1218 00a8 0E       		.uleb128 0xe
 1219 00a9 0B       		.uleb128 0xb
 1220 00aa 05       		.uleb128 0x5
 1221 00ab 3A       		.uleb128 0x3a
 1222 00ac 0B       		.uleb128 0xb
 1223 00ad 3B       		.uleb128 0x3b
 1224 00ae 05       		.uleb128 0x5
 1225 00af 01       		.uleb128 0x1
 1226 00b0 13       		.uleb128 0x13
 1227 00b1 00       		.byte	0
 1228 00b2 00       		.byte	0
 1229 00b3 10       		.uleb128 0x10
 1230 00b4 34       		.uleb128 0x34
 1231 00b5 00       		.byte	0
 1232 00b6 03       		.uleb128 0x3
 1233 00b7 0E       		.uleb128 0xe
 1234 00b8 3A       		.uleb128 0x3a
 1235 00b9 0B       		.uleb128 0xb
 1236 00ba 3B       		.uleb128 0x3b
 1237 00bb 05       		.uleb128 0x5
 1238 00bc 49       		.uleb128 0x49
 1239 00bd 13       		.uleb128 0x13
 1240 00be 3F       		.uleb128 0x3f
 1241 00bf 19       		.uleb128 0x19
 1242 00c0 3C       		.uleb128 0x3c
 1243 00c1 19       		.uleb128 0x19
 1244 00c2 00       		.byte	0
 1245 00c3 00       		.byte	0
 1246 00c4 11       		.uleb128 0x11
 1247 00c5 34       		.uleb128 0x34
 1248 00c6 00       		.byte	0
 1249 00c7 03       		.uleb128 0x3
 1250 00c8 0E       		.uleb128 0xe
 1251 00c9 3A       		.uleb128 0x3a
 1252 00ca 0B       		.uleb128 0xb
 1253 00cb 3B       		.uleb128 0x3b
 1254 00cc 0B       		.uleb128 0xb
ARM GAS  C:\Users\CHRIST~1\AppData\Local\Temp\cce8dDHn.s 			page 23


 1255 00cd 49       		.uleb128 0x49
 1256 00ce 13       		.uleb128 0x13
 1257 00cf 3F       		.uleb128 0x3f
 1258 00d0 19       		.uleb128 0x19
 1259 00d1 3C       		.uleb128 0x3c
 1260 00d2 19       		.uleb128 0x19
 1261 00d3 00       		.byte	0
 1262 00d4 00       		.byte	0
 1263 00d5 12       		.uleb128 0x12
 1264 00d6 0D       		.uleb128 0xd
 1265 00d7 00       		.byte	0
 1266 00d8 03       		.uleb128 0x3
 1267 00d9 08       		.uleb128 0x8
 1268 00da 3A       		.uleb128 0x3a
 1269 00db 0B       		.uleb128 0xb
 1270 00dc 3B       		.uleb128 0x3b
 1271 00dd 0B       		.uleb128 0xb
 1272 00de 49       		.uleb128 0x49
 1273 00df 13       		.uleb128 0x13
 1274 00e0 38       		.uleb128 0x38
 1275 00e1 0B       		.uleb128 0xb
 1276 00e2 00       		.byte	0
 1277 00e3 00       		.byte	0
 1278 00e4 13       		.uleb128 0x13
 1279 00e5 13       		.uleb128 0x13
 1280 00e6 01       		.byte	0x1
 1281 00e7 0B       		.uleb128 0xb
 1282 00e8 0B       		.uleb128 0xb
 1283 00e9 3A       		.uleb128 0x3a
 1284 00ea 0B       		.uleb128 0xb
 1285 00eb 3B       		.uleb128 0x3b
 1286 00ec 0B       		.uleb128 0xb
 1287 00ed 01       		.uleb128 0x1
 1288 00ee 13       		.uleb128 0x13
 1289 00ef 00       		.byte	0
 1290 00f0 00       		.byte	0
 1291 00f1 14       		.uleb128 0x14
 1292 00f2 17       		.uleb128 0x17
 1293 00f3 01       		.byte	0x1
 1294 00f4 0B       		.uleb128 0xb
 1295 00f5 0B       		.uleb128 0xb
 1296 00f6 3A       		.uleb128 0x3a
 1297 00f7 0B       		.uleb128 0xb
 1298 00f8 3B       		.uleb128 0x3b
 1299 00f9 0B       		.uleb128 0xb
 1300 00fa 01       		.uleb128 0x1
 1301 00fb 13       		.uleb128 0x13
 1302 00fc 00       		.byte	0
 1303 00fd 00       		.byte	0
 1304 00fe 15       		.uleb128 0x15
 1305 00ff 0D       		.uleb128 0xd
 1306 0100 00       		.byte	0
 1307 0101 03       		.uleb128 0x3
 1308 0102 0E       		.uleb128 0xe
 1309 0103 3A       		.uleb128 0x3a
 1310 0104 0B       		.uleb128 0xb
 1311 0105 3B       		.uleb128 0x3b
ARM GAS  C:\Users\CHRIST~1\AppData\Local\Temp\cce8dDHn.s 			page 24


 1312 0106 05       		.uleb128 0x5
 1313 0107 49       		.uleb128 0x49
 1314 0108 13       		.uleb128 0x13
 1315 0109 00       		.byte	0
 1316 010a 00       		.byte	0
 1317 010b 16       		.uleb128 0x16
 1318 010c 26       		.uleb128 0x26
 1319 010d 00       		.byte	0
 1320 010e 49       		.uleb128 0x49
 1321 010f 13       		.uleb128 0x13
 1322 0110 00       		.byte	0
 1323 0111 00       		.byte	0
 1324 0112 17       		.uleb128 0x17
 1325 0113 01       		.uleb128 0x1
 1326 0114 01       		.byte	0x1
 1327 0115 49       		.uleb128 0x49
 1328 0116 13       		.uleb128 0x13
 1329 0117 01       		.uleb128 0x1
 1330 0118 13       		.uleb128 0x13
 1331 0119 00       		.byte	0
 1332 011a 00       		.byte	0
 1333 011b 18       		.uleb128 0x18
 1334 011c 21       		.uleb128 0x21
 1335 011d 00       		.byte	0
 1336 011e 49       		.uleb128 0x49
 1337 011f 13       		.uleb128 0x13
 1338 0120 2F       		.uleb128 0x2f
 1339 0121 0B       		.uleb128 0xb
 1340 0122 00       		.byte	0
 1341 0123 00       		.byte	0
 1342 0124 19       		.uleb128 0x19
 1343 0125 34       		.uleb128 0x34
 1344 0126 00       		.byte	0
 1345 0127 03       		.uleb128 0x3
 1346 0128 08       		.uleb128 0x8
 1347 0129 3A       		.uleb128 0x3a
 1348 012a 0B       		.uleb128 0xb
 1349 012b 3B       		.uleb128 0x3b
 1350 012c 05       		.uleb128 0x5
 1351 012d 49       		.uleb128 0x49
 1352 012e 13       		.uleb128 0x13
 1353 012f 3F       		.uleb128 0x3f
 1354 0130 19       		.uleb128 0x19
 1355 0131 3C       		.uleb128 0x3c
 1356 0132 19       		.uleb128 0x19
 1357 0133 00       		.byte	0
 1358 0134 00       		.byte	0
 1359 0135 00       		.byte	0
 1360              		.section	.debug_aranges,"",%progbits
 1361 0000 14000000 		.4byte	0x14
 1362 0004 0200     		.2byte	0x2
 1363 0006 00000000 		.4byte	.Ldebug_info0
 1364 000a 04       		.byte	0x4
 1365 000b 00       		.byte	0
 1366 000c 0000     		.2byte	0
 1367 000e 0000     		.2byte	0
 1368 0010 00000000 		.4byte	0
ARM GAS  C:\Users\CHRIST~1\AppData\Local\Temp\cce8dDHn.s 			page 25


 1369 0014 00000000 		.4byte	0
 1370              		.section	.debug_line,"",%progbits
 1371              	.Ldebug_line0:
 1372 0000 34020000 		.section	.debug_str,"MS",%progbits,1
 1372      02002E02 
 1372      00000201 
 1372      FB0E0D00 
 1372      01010101 
 1373              	.LASF116:
 1374 0000 63665F6F 		.ascii	"cf_off_older\000"
 1374      66665F6F 
 1374      6C646572 
 1374      00
 1375              	.LASF55:
 1376 000d 72656164 		.ascii	"ready_list_t\000"
 1376      795F6C69 
 1376      73745F74 
 1376      00
 1377              	.LASF94:
 1378 001a 77747472 		.ascii	"wttrp\000"
 1378      7000
 1379              	.LASF91:
 1380 0020 7264796D 		.ascii	"rdymsg\000"
 1380      736700
 1381              	.LASF18:
 1382 0027 75696E74 		.ascii	"uint64_t\000"
 1382      36345F74 
 1382      00
 1383              	.LASF4:
 1384 0030 5F5F7569 		.ascii	"__uint8_t\000"
 1384      6E74385F 
 1384      7400
 1385              	.LASF88:
 1386 003a 706F7274 		.ascii	"port_intctx\000"
 1386      5F696E74 
 1386      63747800 
 1387              	.LASF74:
 1388 0046 73797374 		.ascii	"system_debug_t\000"
 1388      656D5F64 
 1388      65627567 
 1388      5F7400
 1389              	.LASF128:
 1390 0055 43686962 		.ascii	"ChibiOS_3.0.2/os/rt/src/chdebug.c\000"
 1390      694F535F 
 1390      332E302E 
 1390      322F6F73 
 1390      2F72742F 
 1391              	.LASF13:
 1392 0077 6C6F6E67 		.ascii	"long long unsigned int\000"
 1392      206C6F6E 
 1392      6720756E 
 1392      7369676E 
 1392      65642069 
 1393              	.LASF112:
 1394 008e 63685F74 		.ascii	"ch_threadsize\000"
 1394      68726561 
 1394      6473697A 
ARM GAS  C:\Users\CHRIST~1\AppData\Local\Temp\cce8dDHn.s 			page 26


 1394      6500
 1395              	.LASF92:
 1396 009c 65786974 		.ascii	"exitcode\000"
 1396      636F6465 
 1396      00
 1397              	.LASF81:
 1398 00a5 6D61696E 		.ascii	"mainthread\000"
 1398      74687265 
 1398      616400
 1399              	.LASF71:
 1400 00b0 76697274 		.ascii	"virtual_timers_list_t\000"
 1400      75616C5F 
 1400      74696D65 
 1400      72735F6C 
 1400      6973745F 
 1401              	.LASF83:
 1402 00c6 49544D5F 		.ascii	"ITM_RxBuffer\000"
 1402      52784275 
 1402      66666572 
 1402      00
 1403              	.LASF54:
 1404 00d3 63685F74 		.ascii	"ch_threads_queue\000"
 1404      68726561 
 1404      64735F71 
 1404      75657565 
 1404      00
 1405              	.LASF32:
 1406 00e4 705F7072 		.ascii	"p_prio\000"
 1406      696F00
 1407              	.LASF119:
 1408 00eb 63665F6F 		.ascii	"cf_off_state\000"
 1408      66665F73 
 1408      74617465 
 1408      00
 1409              	.LASF11:
 1410 00f8 6C6F6E67 		.ascii	"long long int\000"
 1410      206C6F6E 
 1410      6720696E 
 1410      7400
 1411              	.LASF1:
 1412 0106 7369676E 		.ascii	"signed char\000"
 1412      65642063 
 1412      68617200 
 1413              	.LASF118:
 1414 0112 63665F6F 		.ascii	"cf_off_stklimit\000"
 1414      66665F73 
 1414      746B6C69 
 1414      6D697400 
 1415              	.LASF129:
 1416 0122 433A5C55 		.ascii	"C:\\Users\\christian\\eclipse-workspace\\Custom_ESC"
 1416      73657273 
 1416      5C636872 
 1416      69737469 
 1416      616E5C65 
 1417 0151 00       		.ascii	"\000"
 1418              	.LASF120:
 1419 0152 63665F6F 		.ascii	"cf_off_flags\000"
ARM GAS  C:\Users\CHRIST~1\AppData\Local\Temp\cce8dDHn.s 			page 27


 1419      66665F66 
 1419      6C616773 
 1419      00
 1420              	.LASF48:
 1421 015f 705F6D70 		.ascii	"p_mpool\000"
 1421      6F6F6C00 
 1422              	.LASF102:
 1423 0167 6D5F7175 		.ascii	"m_queue\000"
 1423      65756500 
 1424              	.LASF80:
 1425 016f 76746C69 		.ascii	"vtlist\000"
 1425      737400
 1426              	.LASF23:
 1427 0176 74736C69 		.ascii	"tslices_t\000"
 1427      6365735F 
 1427      7400
 1428              	.LASF78:
 1429 0180 63685F73 		.ascii	"ch_system\000"
 1429      79737465 
 1429      6D00
 1430              	.LASF8:
 1431 018a 6C6F6E67 		.ascii	"long int\000"
 1431      20696E74 
 1431      00
 1432              	.LASF21:
 1433 0193 74737461 		.ascii	"tstate_t\000"
 1433      74655F74 
 1433      00
 1434              	.LASF124:
 1435 019c 63686465 		.ascii	"chdebug_t\000"
 1435      6275675F 
 1435      7400
 1436              	.LASF34:
 1437 01a6 705F6E65 		.ascii	"p_newer\000"
 1437      77657200 
 1438              	.LASF99:
 1439 01ae 735F7175 		.ascii	"s_queue\000"
 1439      65756500 
 1440              	.LASF60:
 1441 01b6 725F6E65 		.ascii	"r_newer\000"
 1441      77657200 
 1442              	.LASF85:
 1443 01be 72656761 		.ascii	"regarm_t\000"
 1443      726D5F74 
 1443      00
 1444              	.LASF67:
 1445 01c7 76745F70 		.ascii	"vt_prev\000"
 1445      72657600 
 1446              	.LASF126:
 1447 01cf 6D757465 		.ascii	"mutex_t\000"
 1447      785F7400 
 1448              	.LASF82:
 1449 01d7 69646C65 		.ascii	"idle_thread_wa\000"
 1449      5F746872 
 1449      6561645F 
 1449      776100
 1450              	.LASF27:
ARM GAS  C:\Users\CHRIST~1\AppData\Local\Temp\cce8dDHn.s 			page 28


 1451 01e6 636E745F 		.ascii	"cnt_t\000"
 1451      7400
 1452              	.LASF0:
 1453 01ec 756E7369 		.ascii	"unsigned int\000"
 1453      676E6564 
 1453      20696E74 
 1453      00
 1454              	.LASF66:
 1455 01f9 76745F6E 		.ascii	"vt_next\000"
 1455      65787400 
 1456              	.LASF15:
 1457 0201 75696E74 		.ascii	"uint16_t\000"
 1457      31365F74 
 1457      00
 1458              	.LASF84:
 1459 020a 53797374 		.ascii	"SystemCoreClock\000"
 1459      656D436F 
 1459      7265436C 
 1459      6F636B00 
 1460              	.LASF41:
 1461 021a 705F7469 		.ascii	"p_time\000"
 1461      6D6500
 1462              	.LASF95:
 1463 0221 77747365 		.ascii	"wtsemp\000"
 1463      6D7000
 1464              	.LASF68:
 1465 0228 76745F64 		.ascii	"vt_delta\000"
 1465      656C7461 
 1465      00
 1466              	.LASF43:
 1467 0231 705F6D73 		.ascii	"p_msgqueue\000"
 1467      67717565 
 1467      756500
 1468              	.LASF125:
 1469 023c 63685F64 		.ascii	"ch_debug\000"
 1469      65627567 
 1469      00
 1470              	.LASF100:
 1471 0245 735F636E 		.ascii	"s_cnt\000"
 1471      7400
 1472              	.LASF6:
 1473 024b 73686F72 		.ascii	"short unsigned int\000"
 1473      7420756E 
 1473      7369676E 
 1473      65642069 
 1473      6E7400
 1474              	.LASF51:
 1475 025e 63685F74 		.ascii	"ch_thread\000"
 1475      68726561 
 1475      6400
 1476              	.LASF25:
 1477 0268 6D73675F 		.ascii	"msg_t\000"
 1477      7400
 1478              	.LASF77:
 1479 026e 63685F73 		.ascii	"ch_system_t\000"
 1479      79737465 
 1479      6D5F7400 
ARM GAS  C:\Users\CHRIST~1\AppData\Local\Temp\cce8dDHn.s 			page 29


 1480              	.LASF123:
 1481 027a 63665F6F 		.ascii	"cf_off_time\000"
 1481      66665F74 
 1481      696D6500 
 1482              	.LASF56:
 1483 0286 63685F72 		.ascii	"ch_ready_list\000"
 1483      65616479 
 1483      5F6C6973 
 1483      7400
 1484              	.LASF26:
 1485 0294 6576656E 		.ascii	"eventmask_t\000"
 1485      746D6173 
 1485      6B5F7400 
 1486              	.LASF7:
 1487 02a0 5F5F696E 		.ascii	"__int32_t\000"
 1487      7433325F 
 1487      7400
 1488              	.LASF86:
 1489 02aa 73746B61 		.ascii	"stkalign_t\000"
 1489      6C69676E 
 1489      5F7400
 1490              	.LASF50:
 1491 02b5 74687265 		.ascii	"threads_list_t\000"
 1491      6164735F 
 1491      6C697374 
 1491      5F7400
 1492              	.LASF107:
 1493 02c4 63685F7A 		.ascii	"ch_zero\000"
 1493      65726F00 
 1494              	.LASF121:
 1495 02cc 63665F6F 		.ascii	"cf_off_refs\000"
 1495      66665F72 
 1495      65667300 
 1496              	.LASF42:
 1497 02d8 705F7761 		.ascii	"p_waiting\000"
 1497      6974696E 
 1497      6700
 1498              	.LASF19:
 1499 02e2 7274636E 		.ascii	"rtcnt_t\000"
 1499      745F7400 
 1500              	.LASF72:
 1501 02ea 63685F76 		.ascii	"ch_virtual_timers_list\000"
 1501      69727475 
 1501      616C5F74 
 1501      696D6572 
 1501      735F6C69 
 1502              	.LASF111:
 1503 0301 63685F74 		.ascii	"ch_timesize\000"
 1503      696D6573 
 1503      697A6500 
 1504              	.LASF117:
 1505 030d 63665F6F 		.ascii	"cf_off_name\000"
 1505      66665F6E 
 1505      616D6500 
 1506              	.LASF35:
 1507 0319 705F6F6C 		.ascii	"p_older\000"
 1507      64657200 
ARM GAS  C:\Users\CHRIST~1\AppData\Local\Temp\cce8dDHn.s 			page 30


 1508              	.LASF59:
 1509 0321 725F6374 		.ascii	"r_ctx\000"
 1509      7800
 1510              	.LASF33:
 1511 0327 705F6374 		.ascii	"p_ctx\000"
 1511      7800
 1512              	.LASF90:
 1513 032d 746D5F63 		.ascii	"tm_calibration_t\000"
 1513      616C6962 
 1513      72617469 
 1513      6F6E5F74 
 1513      00
 1514              	.LASF62:
 1515 033e 725F6375 		.ascii	"r_current\000"
 1515      7272656E 
 1515      7400
 1516              	.LASF61:
 1517 0348 725F6F6C 		.ascii	"r_older\000"
 1517      64657200 
 1518              	.LASF12:
 1519 0350 5F5F7569 		.ascii	"__uint64_t\000"
 1519      6E743634 
 1519      5F7400
 1520              	.LASF22:
 1521 035b 74726566 		.ascii	"trefs_t\000"
 1521      735F7400 
 1522              	.LASF110:
 1523 0363 63685F70 		.ascii	"ch_ptrsize\000"
 1523      74727369 
 1523      7A6500
 1524              	.LASF64:
 1525 036e 76697274 		.ascii	"virtual_timer_t\000"
 1525      75616C5F 
 1525      74696D65 
 1525      725F7400 
 1526              	.LASF31:
 1527 037e 705F7072 		.ascii	"p_prev\000"
 1527      657600
 1528              	.LASF24:
 1529 0385 74707269 		.ascii	"tprio_t\000"
 1529      6F5F7400 
 1530              	.LASF75:
 1531 038d 63685F73 		.ascii	"ch_system_debug\000"
 1531      79737465 
 1531      6D5F6465 
 1531      62756700 
 1532              	.LASF16:
 1533 039d 696E7433 		.ascii	"int32_t\000"
 1533      325F7400 
 1534              	.LASF2:
 1535 03a5 756E7369 		.ascii	"unsigned char\000"
 1535      676E6564 
 1535      20636861 
 1535      7200
 1536              	.LASF46:
 1537 03b3 705F6D74 		.ascii	"p_mtxlist\000"
 1537      786C6973 
ARM GAS  C:\Users\CHRIST~1\AppData\Local\Temp\cce8dDHn.s 			page 31


 1537      7400
 1538              	.LASF3:
 1539 03bd 73686F72 		.ascii	"short int\000"
 1539      7420696E 
 1539      7400
 1540              	.LASF37:
 1541 03c7 705F7374 		.ascii	"p_state\000"
 1541      61746500 
 1542              	.LASF40:
 1543 03cf 705F7072 		.ascii	"p_preempt\000"
 1543      65656D70 
 1543      7400
 1544              	.LASF58:
 1545 03d9 725F7072 		.ascii	"r_prio\000"
 1545      696F00
 1546              	.LASF97:
 1547 03e0 65776D61 		.ascii	"ewmask\000"
 1547      736B00
 1548              	.LASF30:
 1549 03e7 705F6E65 		.ascii	"p_next\000"
 1549      787400
 1550              	.LASF20:
 1551 03ee 746D6F64 		.ascii	"tmode_t\000"
 1551      655F7400 
 1552              	.LASF122:
 1553 03f6 63665F6F 		.ascii	"cf_off_preempt\000"
 1553      66665F70 
 1553      7265656D 
 1553      707400
 1554              	.LASF38:
 1555 0405 705F666C 		.ascii	"p_flags\000"
 1555      61677300 
 1556              	.LASF53:
 1557 040d 74687265 		.ascii	"threads_queue_t\000"
 1557      6164735F 
 1557      71756575 
 1557      655F7400 
 1558              	.LASF65:
 1559 041d 63685F76 		.ascii	"ch_virtual_timer\000"
 1559      69727475 
 1559      616C5F74 
 1559      696D6572 
 1559      00
 1560              	.LASF115:
 1561 042e 63665F6F 		.ascii	"cf_off_newer\000"
 1561      66665F6E 
 1561      65776572 
 1561      00
 1562              	.LASF98:
 1563 043b 63685F73 		.ascii	"ch_semaphore\000"
 1563      656D6170 
 1563      686F7265 
 1563      00
 1564              	.LASF45:
 1565 0448 705F6570 		.ascii	"p_epending\000"
 1565      656E6469 
 1565      6E6700
ARM GAS  C:\Users\CHRIST~1\AppData\Local\Temp\cce8dDHn.s 			page 32


 1566              	.LASF17:
 1567 0453 75696E74 		.ascii	"uint32_t\000"
 1567      33325F74 
 1567      00
 1568              	.LASF113:
 1569 045c 63665F6F 		.ascii	"cf_off_prio\000"
 1569      66665F70 
 1569      72696F00 
 1570              	.LASF57:
 1571 0468 725F7175 		.ascii	"r_queue\000"
 1571      65756500 
 1572              	.LASF52:
 1573 0470 63685F74 		.ascii	"ch_threads_list\000"
 1573      68726561 
 1573      64735F6C 
 1573      69737400 
 1574              	.LASF108:
 1575 0480 63685F73 		.ascii	"ch_size\000"
 1575      697A6500 
 1576              	.LASF10:
 1577 0488 6C6F6E67 		.ascii	"long unsigned int\000"
 1577      20756E73 
 1577      69676E65 
 1577      6420696E 
 1577      7400
 1578              	.LASF105:
 1579 049a 63686172 		.ascii	"char\000"
 1579      00
 1580              	.LASF96:
 1581 049f 77746D74 		.ascii	"wtmtxp\000"
 1581      787000
 1582              	.LASF5:
 1583 04a6 5F5F7569 		.ascii	"__uint16_t\000"
 1583      6E743136 
 1583      5F7400
 1584              	.LASF29:
 1585 04b1 74687265 		.ascii	"thread_t\000"
 1585      61645F74 
 1585      00
 1586              	.LASF104:
 1587 04ba 6D5F6E65 		.ascii	"m_next\000"
 1587      787400
 1588              	.LASF28:
 1589 04c1 73797374 		.ascii	"systime_t\000"
 1589      696D655F 
 1589      7400
 1590              	.LASF47:
 1591 04cb 705F7265 		.ascii	"p_realprio\000"
 1591      616C7072 
 1591      696F00
 1592              	.LASF63:
 1593 04d6 76746675 		.ascii	"vtfunc_t\000"
 1593      6E635F74 
 1593      00
 1594              	.LASF9:
 1595 04df 5F5F7569 		.ascii	"__uint32_t\000"
 1595      6E743332 
ARM GAS  C:\Users\CHRIST~1\AppData\Local\Temp\cce8dDHn.s 			page 33


 1595      5F7400
 1596              	.LASF76:
 1597 04ea 70616E69 		.ascii	"panic_msg\000"
 1597      635F6D73 
 1597      6700
 1598              	.LASF89:
 1599 04f4 6F666673 		.ascii	"offset\000"
 1599      657400
 1600              	.LASF87:
 1601 04fb 636F6E74 		.ascii	"context\000"
 1601      65787400 
 1602              	.LASF44:
 1603 0503 705F6D73 		.ascii	"p_msg\000"
 1603      6700
 1604              	.LASF70:
 1605 0509 76745F70 		.ascii	"vt_par\000"
 1605      617200
 1606              	.LASF114:
 1607 0510 63665F6F 		.ascii	"cf_off_ctx\000"
 1607      66665F63 
 1607      747800
 1608              	.LASF101:
 1609 051b 63685F6D 		.ascii	"ch_mutex\000"
 1609      75746578 
 1609      00
 1610              	.LASF39:
 1611 0524 705F7265 		.ascii	"p_refs\000"
 1611      667300
 1612              	.LASF79:
 1613 052b 726C6973 		.ascii	"rlist\000"
 1613      7400
 1614              	.LASF14:
 1615 0531 75696E74 		.ascii	"uint8_t\000"
 1615      385F7400 
 1616              	.LASF49:
 1617 0539 74687265 		.ascii	"thread_reference_t\000"
 1617      61645F72 
 1617      65666572 
 1617      656E6365 
 1617      5F7400
 1618              	.LASF93:
 1619 054c 77746F62 		.ascii	"wtobjp\000"
 1619      6A7000
 1620              	.LASF36:
 1621 0553 705F6E61 		.ascii	"p_name\000"
 1621      6D6500
 1622              	.LASF73:
 1623 055a 76745F73 		.ascii	"vt_systime\000"
 1623      79737469 
 1623      6D6500
 1624              	.LASF109:
 1625 0565 63685F76 		.ascii	"ch_version\000"
 1625      65727369 
 1625      6F6E00
 1626              	.LASF127:
 1627 0570 474E5520 		.ascii	"GNU C99 7.2.1 20170904 (release) [ARM/embedded-7-br"
 1627      43393920 
ARM GAS  C:\Users\CHRIST~1\AppData\Local\Temp\cce8dDHn.s 			page 34


 1627      372E322E 
 1627      31203230 
 1627      31373039 
 1628 05a3 616E6368 		.ascii	"anch revision 255204] -mcpu=cortex-m4 -mfloat-abi=h"
 1628      20726576 
 1628      6973696F 
 1628      6E203235 
 1628      35323034 
 1629 05d6 61726420 		.ascii	"ard -mfpu=fpv4-sp-d16 -mno-thumb-interwork -mthumb "
 1629      2D6D6670 
 1629      753D6670 
 1629      76342D73 
 1629      702D6431 
 1630 0609 2D676764 		.ascii	"-ggdb -O1 -std=gnu99 -fomit-frame-pointer -falign-f"
 1630      62202D4F 
 1630      31202D73 
 1630      74643D67 
 1630      6E753939 
 1631 063c 756E6374 		.ascii	"unctions=16 -ffunction-sections -fdata-sections -fn"
 1631      696F6E73 
 1631      3D313620 
 1631      2D666675 
 1631      6E637469 
 1632 066f 6F2D636F 		.ascii	"o-common -fsingle-precision-constant\000"
 1632      6D6D6F6E 
 1632      202D6673 
 1632      696E676C 
 1632      652D7072 
 1633              	.LASF103:
 1634 0694 6D5F6F77 		.ascii	"m_owner\000"
 1634      6E657200 
 1635              	.LASF106:
 1636 069c 63685F69 		.ascii	"ch_identifier\000"
 1636      64656E74 
 1636      69666965 
 1636      7200
 1637              	.LASF69:
 1638 06aa 76745F66 		.ascii	"vt_func\000"
 1638      756E6300 
 1639              		.ident	"GCC: (GNU Tools for Arm Embedded Processors 7-2017-q4-major) 7.2.1 20170904 (release) [ARM
ARM GAS  C:\Users\CHRIST~1\AppData\Local\Temp\cce8dDHn.s 			page 35


DEFINED SYMBOLS
                            *ABS*:00000000 chdebug.c

NO UNDEFINED SYMBOLS
