ARM GAS  C:\Users\CHRIST~1\AppData\Local\Temp\ccaxtSsx.s 			page 1


   1              		.cpu cortex-m4
   2              		.eabi_attribute 27, 1
   3              		.eabi_attribute 28, 1
   4              		.eabi_attribute 20, 1
   5              		.eabi_attribute 21, 1
   6              		.eabi_attribute 23, 3
   7              		.eabi_attribute 24, 1
   8              		.eabi_attribute 25, 1
   9              		.eabi_attribute 26, 1
  10              		.eabi_attribute 30, 1
  11              		.eabi_attribute 34, 1
  12              		.eabi_attribute 18, 4
  13              		.file	"chmtx.c"
  14              		.text
  15              	.Ltext0:
  16              		.cfi_sections	.debug_frame
  17              		.section	.text.chMtxObjectInit,"ax",%progbits
  18              		.align	1
  19              		.p2align 4,,15
  20              		.global	chMtxObjectInit
  21              		.syntax unified
  22              		.thumb
  23              		.thumb_func
  24              		.fpu fpv4-sp-d16
  25              		.type	chMtxObjectInit, %function
  26              	chMtxObjectInit:
  27              	.LFB219:
  28              		.file 1 "ChibiOS_3.0.2/os/rt/src/chmtx.c"
  29              		.loc 1 103 0
  30              		.cfi_startproc
  31              		@ args = 0, pretend = 0, frame = 0
  32              		@ frame_needed = 0, uses_anonymous_args = 0
  33              		@ link register save eliminated.
  34              	.LVL0:
  35              	.LBB101:
  36              	.LBB102:
  37              		.file 2 "ChibiOS_3.0.2/os/rt/include/chschd.h"
  38              		.loc 2 604 0
  39 0000 0060     		str	r0, [r0]
  40              		.loc 2 605 0
  41 0002 4060     		str	r0, [r0, #4]
  42              	.LVL1:
  43              	.LBE102:
  44              	.LBE101:
  45              		.loc 1 108 0
  46 0004 0023     		movs	r3, #0
  47 0006 8360     		str	r3, [r0, #8]
  48              		.loc 1 112 0
  49 0008 7047     		bx	lr
  50              		.cfi_endproc
  51              	.LFE219:
  52              		.size	chMtxObjectInit, .-chMtxObjectInit
  53 000a 00BF     		.section	.text.chMtxLockS,"ax",%progbits
  54              		.align	1
  55              		.p2align 4,,15
  56              		.global	chMtxLockS
  57              		.syntax unified
ARM GAS  C:\Users\CHRIST~1\AppData\Local\Temp\ccaxtSsx.s 			page 2


  58              		.thumb
  59              		.thumb_func
  60              		.fpu fpv4-sp-d16
  61              		.type	chMtxLockS, %function
  62              	chMtxLockS:
  63              	.LFB221:
  64              		.loc 1 139 0
  65              		.cfi_startproc
  66              		@ args = 0, pretend = 0, frame = 0
  67              		@ frame_needed = 0, uses_anonymous_args = 0
  68              	.LVL2:
  69 0000 70B5     		push	{r4, r5, r6, lr}
  70              		.cfi_def_cfa_offset 16
  71              		.cfi_offset 4, -16
  72              		.cfi_offset 5, -12
  73              		.cfi_offset 6, -8
  74              		.cfi_offset 14, -4
  75              		.loc 1 140 0
  76 0002 334B     		ldr	r3, .L26
  77 0004 9C69     		ldr	r4, [r3, #24]
  78              	.LVL3:
  79              		.loc 1 146 0
  80 0006 8368     		ldr	r3, [r0, #8]
  81 0008 002B     		cmp	r3, #0
  82 000a 5CD0     		beq	.L24
  83 000c 0646     		mov	r6, r0
  84              	.LVL4:
  85              	.LBB103:
  86              		.loc 1 165 0
  87 000e A268     		ldr	r2, [r4, #8]
  88 0010 9968     		ldr	r1, [r3, #8]
  89 0012 9142     		cmp	r1, r2
  90 0014 07D2     		bcs	.L5
  91              	.LVL5:
  92              	.L11:
  93              		.loc 1 167 0
  94 0016 9A60     		str	r2, [r3, #8]
  95              		.loc 1 170 0
  96 0018 1A7F     		ldrb	r2, [r3, #28]	@ zero_extendqisi2
  97 001a 062A     		cmp	r2, #6
  98 001c 17D0     		beq	.L6
  99 001e 072A     		cmp	r2, #7
 100 0020 31D0     		beq	.L7
 101 0022 002A     		cmp	r2, #0
 102 0024 45D0     		beq	.L25
 103              	.LVL6:
 104              	.L5:
 105              		.loc 1 212 0
 106 0026 3546     		mov	r5, r6
 107              	.LVL7:
 108              	.LBB104:
 109              	.LBB105:
 110              		.loc 2 653 0
 111 0028 3346     		mov	r3, r6
 112              	.LVL8:
 113              	.L15:
 114              		.loc 2 655 0
ARM GAS  C:\Users\CHRIST~1\AppData\Local\Temp\ccaxtSsx.s 			page 3


 115 002a 1B68     		ldr	r3, [r3]
 116              	.LVL9:
 117              		.loc 2 656 0
 118 002c 9D42     		cmp	r5, r3
 119 002e 04D0     		beq	.L14
 120 0030 9968     		ldr	r1, [r3, #8]
 121 0032 A268     		ldr	r2, [r4, #8]
 122 0034 9142     		cmp	r1, r2
 123 0036 F8D2     		bcs	.L15
 124              		.loc 2 655 0
 125 0038 1D46     		mov	r5, r3
 126              	.LVL10:
 127              	.L14:
 128              		.loc 2 657 0
 129 003a 2560     		str	r5, [r4]
 130              		.loc 2 658 0
 131 003c 6B68     		ldr	r3, [r5, #4]
 132              	.LVL11:
 133 003e 6360     		str	r3, [r4, #4]
 134              		.loc 2 659 0
 135 0040 1C60     		str	r4, [r3]
 136              		.loc 2 660 0
 137 0042 6C60     		str	r4, [r5, #4]
 138              	.LVL12:
 139              	.LBE105:
 140              	.LBE104:
 141              		.loc 1 213 0
 142 0044 6662     		str	r6, [r4, #36]
 143              		.loc 1 214 0
 144 0046 0620     		movs	r0, #6
 145 0048 FFF7FEFF 		bl	chSchGoSleepS
 146              	.LVL13:
 147              	.L2:
 148              	.LBE103:
 149              		.loc 1 236 0
 150 004c 70BD     		pop	{r4, r5, r6, pc}
 151              	.LVL14:
 152              	.L6:
 153              	.LBB116:
 154              	.LBB106:
 155              	.LBB107:
 156              		.loc 2 691 0
 157 004e 5A68     		ldr	r2, [r3, #4]
 158 0050 1968     		ldr	r1, [r3]
 159 0052 1160     		str	r1, [r2]
 160              		.loc 2 692 0
 161 0054 1A68     		ldr	r2, [r3]
 162 0056 5968     		ldr	r1, [r3, #4]
 163 0058 5160     		str	r1, [r2, #4]
 164              	.LVL15:
 165              	.LBE107:
 166              	.LBE106:
 167              		.loc 1 173 0
 168 005a 5D6A     		ldr	r5, [r3, #36]
 169              	.LVL16:
 170              	.LBB108:
 171              	.LBB109:
ARM GAS  C:\Users\CHRIST~1\AppData\Local\Temp\ccaxtSsx.s 			page 4


 172              		.loc 2 653 0
 173 005c 2A46     		mov	r2, r5
 174              	.L10:
 175              	.LVL17:
 176              		.loc 2 655 0
 177 005e 1268     		ldr	r2, [r2]
 178              	.LVL18:
 179              		.loc 2 656 0
 180 0060 9542     		cmp	r5, r2
 181 0062 04D0     		beq	.L9
 182 0064 9068     		ldr	r0, [r2, #8]
 183 0066 9968     		ldr	r1, [r3, #8]
 184 0068 8842     		cmp	r0, r1
 185 006a F8D2     		bcs	.L10
 186              		.loc 2 655 0
 187 006c 1546     		mov	r5, r2
 188              	.LVL19:
 189              	.L9:
 190              		.loc 2 657 0
 191 006e 1D60     		str	r5, [r3]
 192              		.loc 2 658 0
 193 0070 6A68     		ldr	r2, [r5, #4]
 194              	.LVL20:
 195 0072 5A60     		str	r2, [r3, #4]
 196              		.loc 2 659 0
 197 0074 1360     		str	r3, [r2]
 198              	.LVL21:
 199              		.loc 2 660 0
 200 0076 6B60     		str	r3, [r5, #4]
 201              	.LBE109:
 202              	.LBE108:
 203              		.loc 1 174 0
 204 0078 5B6A     		ldr	r3, [r3, #36]
 205              	.LVL22:
 206 007a 9B68     		ldr	r3, [r3, #8]
 207              	.LVL23:
 208              		.loc 1 165 0
 209 007c A268     		ldr	r2, [r4, #8]
 210 007e 9968     		ldr	r1, [r3, #8]
 211 0080 9142     		cmp	r1, r2
 212 0082 C8D3     		bcc	.L11
 213 0084 CFE7     		b	.L5
 214              	.L7:
 215              	.LVL24:
 216              	.LBB110:
 217              	.LBB111:
 218              		.loc 2 691 0
 219 0086 5A68     		ldr	r2, [r3, #4]
 220 0088 1968     		ldr	r1, [r3]
 221 008a 1160     		str	r1, [r2]
 222              		.loc 2 692 0
 223 008c 1A68     		ldr	r2, [r3]
 224 008e 5968     		ldr	r1, [r3, #4]
 225 0090 5160     		str	r1, [r2, #4]
 226              	.LVL25:
 227              	.LBE111:
 228              	.LBE110:
ARM GAS  C:\Users\CHRIST~1\AppData\Local\Temp\ccaxtSsx.s 			page 5


 229              		.loc 1 193 0
 230 0092 5D6A     		ldr	r5, [r3, #36]
 231              	.LVL26:
 232              	.LBB112:
 233              	.LBB113:
 234              		.loc 2 653 0
 235 0094 2A46     		mov	r2, r5
 236              	.L13:
 237              	.LVL27:
 238              		.loc 2 655 0
 239 0096 1268     		ldr	r2, [r2]
 240              	.LVL28:
 241              		.loc 2 656 0
 242 0098 9542     		cmp	r5, r2
 243 009a 04D0     		beq	.L12
 244 009c 9068     		ldr	r0, [r2, #8]
 245 009e 9968     		ldr	r1, [r3, #8]
 246 00a0 8842     		cmp	r0, r1
 247 00a2 F8D2     		bcs	.L13
 248              		.loc 2 655 0
 249 00a4 1546     		mov	r5, r2
 250              	.LVL29:
 251              	.L12:
 252              		.loc 2 657 0
 253 00a6 1D60     		str	r5, [r3]
 254              		.loc 2 658 0
 255 00a8 6A68     		ldr	r2, [r5, #4]
 256              	.LVL30:
 257 00aa 5A60     		str	r2, [r3, #4]
 258              		.loc 2 659 0
 259 00ac 1360     		str	r3, [r2]
 260              	.LVL31:
 261              		.loc 2 660 0
 262 00ae 6B60     		str	r3, [r5, #4]
 263 00b0 B9E7     		b	.L5
 264              	.L25:
 265              	.LVL32:
 266              	.LBE113:
 267              	.LBE112:
 268              	.LBB114:
 269              	.LBB115:
 270              		.loc 2 691 0
 271 00b2 5A68     		ldr	r2, [r3, #4]
 272 00b4 1968     		ldr	r1, [r3]
 273 00b6 1160     		str	r1, [r2]
 274              		.loc 2 692 0
 275 00b8 1A68     		ldr	r2, [r3]
 276 00ba 5968     		ldr	r1, [r3, #4]
 277 00bc 5160     		str	r1, [r2, #4]
 278              	.LVL33:
 279              	.LBE115:
 280              	.LBE114:
 281              		.loc 1 202 0
 282 00be 1846     		mov	r0, r3
 283 00c0 FFF7FEFF 		bl	chSchReadyI
 284              	.LVL34:
 285              		.loc 1 203 0
ARM GAS  C:\Users\CHRIST~1\AppData\Local\Temp\ccaxtSsx.s 			page 6


 286 00c4 AFE7     		b	.L5
 287              	.LVL35:
 288              	.L24:
 289              	.LBE116:
 290              		.loc 1 232 0
 291 00c6 8460     		str	r4, [r0, #8]
 292              		.loc 1 233 0
 293 00c8 E36B     		ldr	r3, [r4, #60]
 294 00ca C360     		str	r3, [r0, #12]
 295              		.loc 1 234 0
 296 00cc E063     		str	r0, [r4, #60]
 297              		.loc 1 236 0
 298 00ce BDE7     		b	.L2
 299              	.L27:
 300              		.align	2
 301              	.L26:
 302 00d0 00000000 		.word	ch
 303              		.cfi_endproc
 304              	.LFE221:
 305              		.size	chMtxLockS, .-chMtxLockS
 306              		.section	.text.chMtxLock,"ax",%progbits
 307              		.align	1
 308              		.p2align 4,,15
 309              		.global	chMtxLock
 310              		.syntax unified
 311              		.thumb
 312              		.thumb_func
 313              		.fpu fpv4-sp-d16
 314              		.type	chMtxLock, %function
 315              	chMtxLock:
 316              	.LFB220:
 317              		.loc 1 123 0
 318              		.cfi_startproc
 319              		@ args = 0, pretend = 0, frame = 0
 320              		@ frame_needed = 0, uses_anonymous_args = 0
 321              	.LVL36:
 322 0000 08B5     		push	{r3, lr}
 323              		.cfi_def_cfa_offset 8
 324              		.cfi_offset 3, -8
 325              		.cfi_offset 14, -4
 326              	.LVL37:
 327              	.LBB117:
 328              	.LBB118:
 329              	.LBB119:
 330              	.LBB120:
 331              		.file 3 "ChibiOS_3.0.2/os/ext/CMSIS/include/core_cmFunc.h"
 332              		.loc 3 546 0
 333 0002 2023     		movs	r3, #32
 334              		.syntax unified
 335              	@ 546 "ChibiOS_3.0.2/os/ext/CMSIS/include/core_cmFunc.h" 1
 336 0004 83F31188 		MSR basepri, r3
 337              	@ 0 "" 2
 338              	.LVL38:
 339              		.thumb
 340              		.syntax unified
 341              	.LBE120:
 342              	.LBE119:
ARM GAS  C:\Users\CHRIST~1\AppData\Local\Temp\ccaxtSsx.s 			page 7


 343              	.LBE118:
 344              	.LBE117:
 345              		.loc 1 126 0
 346 0008 FFF7FEFF 		bl	chMtxLockS
 347              	.LVL39:
 348              	.LBB121:
 349              	.LBB122:
 350              	.LBB123:
 351              	.LBB124:
 352              	.LBB125:
 353              		.loc 3 546 0
 354 000c 0023     		movs	r3, #0
 355              		.syntax unified
 356              	@ 546 "ChibiOS_3.0.2/os/ext/CMSIS/include/core_cmFunc.h" 1
 357 000e 83F31188 		MSR basepri, r3
 358              	@ 0 "" 2
 359              	.LVL40:
 360              		.thumb
 361              		.syntax unified
 362              	.LBE125:
 363              	.LBE124:
 364              	.LBE123:
 365              	.LBE122:
 366              	.LBE121:
 367              		.loc 1 128 0
 368 0012 08BD     		pop	{r3, pc}
 369              		.cfi_endproc
 370              	.LFE220:
 371              		.size	chMtxLock, .-chMtxLock
 372              		.section	.text.chMtxTryLockS,"ax",%progbits
 373              		.align	1
 374              		.p2align 4,,15
 375              		.global	chMtxTryLockS
 376              		.syntax unified
 377              		.thumb
 378              		.thumb_func
 379              		.fpu fpv4-sp-d16
 380              		.type	chMtxTryLockS, %function
 381              	chMtxTryLockS:
 382              	.LFB223:
 383              		.loc 1 282 0
 384              		.cfi_startproc
 385              		@ args = 0, pretend = 0, frame = 0
 386              		@ frame_needed = 0, uses_anonymous_args = 0
 387              		@ link register save eliminated.
 388              	.LVL41:
 389              		.loc 1 287 0
 390 0000 8368     		ldr	r3, [r0, #8]
 391 0002 0BB1     		cbz	r3, .L33
 392              		.loc 1 297 0
 393 0004 0020     		movs	r0, #0
 394              	.LVL42:
 395              		.loc 1 309 0
 396 0006 7047     		bx	lr
 397              	.LVL43:
 398              	.L33:
 399              		.loc 1 305 0
ARM GAS  C:\Users\CHRIST~1\AppData\Local\Temp\ccaxtSsx.s 			page 8


 400 0008 044B     		ldr	r3, .L34
 401 000a 9A69     		ldr	r2, [r3, #24]
 402 000c 8260     		str	r2, [r0, #8]
 403              		.loc 1 306 0
 404 000e 9A69     		ldr	r2, [r3, #24]
 405 0010 D26B     		ldr	r2, [r2, #60]
 406 0012 C260     		str	r2, [r0, #12]
 407              		.loc 1 307 0
 408 0014 9B69     		ldr	r3, [r3, #24]
 409 0016 D863     		str	r0, [r3, #60]
 410              		.loc 1 308 0
 411 0018 0120     		movs	r0, #1
 412              	.LVL44:
 413 001a 7047     		bx	lr
 414              	.L35:
 415              		.align	2
 416              	.L34:
 417 001c 00000000 		.word	ch
 418              		.cfi_endproc
 419              	.LFE223:
 420              		.size	chMtxTryLockS, .-chMtxTryLockS
 421              		.section	.text.chMtxTryLock,"ax",%progbits
 422              		.align	1
 423              		.p2align 4,,15
 424              		.global	chMtxTryLock
 425              		.syntax unified
 426              		.thumb
 427              		.thumb_func
 428              		.fpu fpv4-sp-d16
 429              		.type	chMtxTryLock, %function
 430              	chMtxTryLock:
 431              	.LFB222:
 432              		.loc 1 255 0
 433              		.cfi_startproc
 434              		@ args = 0, pretend = 0, frame = 0
 435              		@ frame_needed = 0, uses_anonymous_args = 0
 436              	.LVL45:
 437 0000 08B5     		push	{r3, lr}
 438              		.cfi_def_cfa_offset 8
 439              		.cfi_offset 3, -8
 440              		.cfi_offset 14, -4
 441              	.LVL46:
 442              	.LBB126:
 443              	.LBB127:
 444              	.LBB128:
 445              	.LBB129:
 446              		.loc 3 546 0
 447 0002 2023     		movs	r3, #32
 448              		.syntax unified
 449              	@ 546 "ChibiOS_3.0.2/os/ext/CMSIS/include/core_cmFunc.h" 1
 450 0004 83F31188 		MSR basepri, r3
 451              	@ 0 "" 2
 452              	.LVL47:
 453              		.thumb
 454              		.syntax unified
 455              	.LBE129:
 456              	.LBE128:
ARM GAS  C:\Users\CHRIST~1\AppData\Local\Temp\ccaxtSsx.s 			page 9


 457              	.LBE127:
 458              	.LBE126:
 459              		.loc 1 259 0
 460 0008 FFF7FEFF 		bl	chMtxTryLockS
 461              	.LVL48:
 462              	.LBB130:
 463              	.LBB131:
 464              	.LBB132:
 465              	.LBB133:
 466              	.LBB134:
 467              		.loc 3 546 0
 468 000c 0023     		movs	r3, #0
 469              		.syntax unified
 470              	@ 546 "ChibiOS_3.0.2/os/ext/CMSIS/include/core_cmFunc.h" 1
 471 000e 83F31188 		MSR basepri, r3
 472              	@ 0 "" 2
 473              	.LVL49:
 474              		.thumb
 475              		.syntax unified
 476              	.LBE134:
 477              	.LBE133:
 478              	.LBE132:
 479              	.LBE131:
 480              	.LBE130:
 481              		.loc 1 263 0
 482 0012 08BD     		pop	{r3, pc}
 483              		.cfi_endproc
 484              	.LFE222:
 485              		.size	chMtxTryLock, .-chMtxTryLock
 486              		.section	.text.chMtxUnlock,"ax",%progbits
 487              		.align	1
 488              		.p2align 4,,15
 489              		.global	chMtxUnlock
 490              		.syntax unified
 491              		.thumb
 492              		.thumb_func
 493              		.fpu fpv4-sp-d16
 494              		.type	chMtxUnlock, %function
 495              	chMtxUnlock:
 496              	.LFB224:
 497              		.loc 1 323 0
 498              		.cfi_startproc
 499              		@ args = 0, pretend = 0, frame = 0
 500              		@ frame_needed = 0, uses_anonymous_args = 0
 501              	.LVL50:
 502 0000 10B5     		push	{r4, lr}
 503              		.cfi_def_cfa_offset 8
 504              		.cfi_offset 4, -8
 505              		.cfi_offset 14, -4
 506              		.loc 1 324 0
 507 0002 164B     		ldr	r3, .L46
 508 0004 9C69     		ldr	r4, [r3, #24]
 509              	.LVL51:
 510              	.LBB135:
 511              	.LBB136:
 512              	.LBB137:
 513              	.LBB138:
ARM GAS  C:\Users\CHRIST~1\AppData\Local\Temp\ccaxtSsx.s 			page 10


 514              		.loc 3 546 0
 515 0006 2023     		movs	r3, #32
 516              		.syntax unified
 517              	@ 546 "ChibiOS_3.0.2/os/ext/CMSIS/include/core_cmFunc.h" 1
 518 0008 83F31188 		MSR basepri, r3
 519              	@ 0 "" 2
 520              	.LVL52:
 521              		.thumb
 522              		.syntax unified
 523              	.LBE138:
 524              	.LBE137:
 525              	.LBE136:
 526              	.LBE135:
 527              		.loc 1 344 0
 528 000c C368     		ldr	r3, [r0, #12]
 529 000e E363     		str	r3, [r4, #60]
 530              		.loc 1 347 0
 531 0010 0268     		ldr	r2, [r0]
 532 0012 8242     		cmp	r2, r0
 533 0014 1ED0     		beq	.L39
 534              	.LBB139:
 535              		.loc 1 352 0
 536 0016 216C     		ldr	r1, [r4, #64]
 537              	.LVL53:
 538              		.loc 1 354 0
 539 0018 A3B9     		cbnz	r3, .L42
 540              	.L40:
 541 001a 0346     		mov	r3, r0
 542              	.LVL54:
 543              		.loc 1 367 0
 544 001c A160     		str	r1, [r4, #8]
 545              	.LVL55:
 546              	.LBB140:
 547              	.LBB141:
 548              		.loc 2 672 0
 549 001e 0068     		ldr	r0, [r0]
 550              	.LVL56:
 551              		.loc 2 674 0
 552 0020 0268     		ldr	r2, [r0]
 553 0022 1A60     		str	r2, [r3]
 554              		.loc 2 675 0
 555 0024 5360     		str	r3, [r2, #4]
 556              	.LVL57:
 557              	.LBE141:
 558              	.LBE140:
 559              		.loc 1 375 0
 560 0026 9860     		str	r0, [r3, #8]
 561              		.loc 1 376 0
 562 0028 C26B     		ldr	r2, [r0, #60]
 563 002a DA60     		str	r2, [r3, #12]
 564              		.loc 1 377 0
 565 002c C363     		str	r3, [r0, #60]
 566              		.loc 1 383 0
 567 002e FFF7FEFF 		bl	chSchReadyI
 568              	.LVL58:
 569              		.loc 1 384 0
 570 0032 FFF7FEFF 		bl	chSchRescheduleS
ARM GAS  C:\Users\CHRIST~1\AppData\Local\Temp\ccaxtSsx.s 			page 11


 571              	.LVL59:
 572              	.L43:
 573              	.LBE139:
 574              	.LBB146:
 575              	.LBB147:
 576              	.LBB148:
 577              	.LBB149:
 578              	.LBB150:
 579              		.loc 3 546 0
 580 0036 0023     		movs	r3, #0
 581              		.syntax unified
 582              	@ 546 "ChibiOS_3.0.2/os/ext/CMSIS/include/core_cmFunc.h" 1
 583 0038 83F31188 		MSR basepri, r3
 584              	@ 0 "" 2
 585              	.LVL60:
 586              		.thumb
 587              		.syntax unified
 588              	.LBE150:
 589              	.LBE149:
 590              	.LBE148:
 591              	.LBE147:
 592              	.LBE146:
 593              		.loc 1 394 0
 594 003c 10BD     		pop	{r4, pc}
 595              	.LVL61:
 596              	.L41:
 597              	.LBB151:
 598              		.loc 1 362 0
 599 003e DB68     		ldr	r3, [r3, #12]
 600              	.LVL62:
 601              		.loc 1 354 0
 602 0040 002B     		cmp	r3, #0
 603 0042 EAD0     		beq	.L40
 604              	.L42:
 605              	.LVL63:
 606              	.LBB142:
 607              	.LBB143:
 608              	.LBB144:
 609              	.LBB145:
 610              		.loc 2 631 0
 611 0044 1A68     		ldr	r2, [r3]
 612              	.LVL64:
 613              	.LBE145:
 614              	.LBE144:
 615              	.LBE143:
 616              	.LBE142:
 617              		.loc 1 358 0
 618 0046 9342     		cmp	r3, r2
 619 0048 F9D0     		beq	.L41
 620 004a 9268     		ldr	r2, [r2, #8]
 621 004c 9142     		cmp	r1, r2
 622 004e 38BF     		it	cc
 623 0050 1146     		movcc	r1, r2
 624              	.LVL65:
 625 0052 F4E7     		b	.L41
 626              	.LVL66:
 627              	.L39:
ARM GAS  C:\Users\CHRIST~1\AppData\Local\Temp\ccaxtSsx.s 			page 12


 628              	.LBE151:
 629              		.loc 1 387 0
 630 0054 0023     		movs	r3, #0
 631 0056 8360     		str	r3, [r0, #8]
 632 0058 EDE7     		b	.L43
 633              	.L47:
 634 005a 00BF     		.align	2
 635              	.L46:
 636 005c 00000000 		.word	ch
 637              		.cfi_endproc
 638              	.LFE224:
 639              		.size	chMtxUnlock, .-chMtxUnlock
 640              		.section	.text.chMtxUnlockS,"ax",%progbits
 641              		.align	1
 642              		.p2align 4,,15
 643              		.global	chMtxUnlockS
 644              		.syntax unified
 645              		.thumb
 646              		.thumb_func
 647              		.fpu fpv4-sp-d16
 648              		.type	chMtxUnlockS, %function
 649              	chMtxUnlockS:
 650              	.LFB225:
 651              		.loc 1 410 0
 652              		.cfi_startproc
 653              		@ args = 0, pretend = 0, frame = 0
 654              		@ frame_needed = 0, uses_anonymous_args = 0
 655              	.LVL67:
 656 0000 10B5     		push	{r4, lr}
 657              		.cfi_def_cfa_offset 8
 658              		.cfi_offset 4, -8
 659              		.cfi_offset 14, -4
 660              		.loc 1 411 0
 661 0002 124B     		ldr	r3, .L56
 662 0004 9C69     		ldr	r4, [r3, #24]
 663              	.LVL68:
 664              		.loc 1 430 0
 665 0006 C368     		ldr	r3, [r0, #12]
 666 0008 E363     		str	r3, [r4, #60]
 667              		.loc 1 433 0
 668 000a 0268     		ldr	r2, [r0]
 669 000c 8242     		cmp	r2, r0
 670 000e 19D0     		beq	.L49
 671              	.LBB152:
 672              		.loc 1 438 0
 673 0010 216C     		ldr	r1, [r4, #64]
 674              	.LVL69:
 675              		.loc 1 440 0
 676 0012 7BB9     		cbnz	r3, .L52
 677              	.L50:
 678 0014 0346     		mov	r3, r0
 679              	.LVL70:
 680              		.loc 1 453 0
 681 0016 A160     		str	r1, [r4, #8]
 682              	.LVL71:
 683              	.LBB153:
 684              	.LBB154:
ARM GAS  C:\Users\CHRIST~1\AppData\Local\Temp\ccaxtSsx.s 			page 13


 685              		.loc 2 672 0
 686 0018 0068     		ldr	r0, [r0]
 687              	.LVL72:
 688              		.loc 2 674 0
 689 001a 0268     		ldr	r2, [r0]
 690 001c 1A60     		str	r2, [r3]
 691              		.loc 2 675 0
 692 001e 5360     		str	r3, [r2, #4]
 693              	.LVL73:
 694              	.LBE154:
 695              	.LBE153:
 696              		.loc 1 461 0
 697 0020 9860     		str	r0, [r3, #8]
 698              		.loc 1 462 0
 699 0022 C26B     		ldr	r2, [r0, #60]
 700 0024 DA60     		str	r2, [r3, #12]
 701              		.loc 1 463 0
 702 0026 C363     		str	r3, [r0, #60]
 703              		.loc 1 464 0
 704 0028 FFF7FEFF 		bl	chSchReadyI
 705              	.LVL74:
 706              	.L48:
 707              	.LBE152:
 708              		.loc 1 472 0
 709 002c 10BD     		pop	{r4, pc}
 710              	.LVL75:
 711              	.L51:
 712              	.LBB159:
 713              		.loc 1 448 0
 714 002e DB68     		ldr	r3, [r3, #12]
 715              	.LVL76:
 716              		.loc 1 440 0
 717 0030 002B     		cmp	r3, #0
 718 0032 EFD0     		beq	.L50
 719              	.L52:
 720              	.LVL77:
 721              	.LBB155:
 722              	.LBB156:
 723              	.LBB157:
 724              	.LBB158:
 725              		.loc 2 631 0
 726 0034 1A68     		ldr	r2, [r3]
 727              	.LVL78:
 728              	.LBE158:
 729              	.LBE157:
 730              	.LBE156:
 731              	.LBE155:
 732              		.loc 1 444 0
 733 0036 9342     		cmp	r3, r2
 734 0038 F9D0     		beq	.L51
 735 003a 9268     		ldr	r2, [r2, #8]
 736 003c 9142     		cmp	r1, r2
 737 003e 38BF     		it	cc
 738 0040 1146     		movcc	r1, r2
 739              	.LVL79:
 740 0042 F4E7     		b	.L51
 741              	.LVL80:
ARM GAS  C:\Users\CHRIST~1\AppData\Local\Temp\ccaxtSsx.s 			page 14


 742              	.L49:
 743              	.LBE159:
 744              		.loc 1 467 0
 745 0044 0023     		movs	r3, #0
 746 0046 8360     		str	r3, [r0, #8]
 747              		.loc 1 472 0
 748 0048 F0E7     		b	.L48
 749              	.L57:
 750 004a 00BF     		.align	2
 751              	.L56:
 752 004c 00000000 		.word	ch
 753              		.cfi_endproc
 754              	.LFE225:
 755              		.size	chMtxUnlockS, .-chMtxUnlockS
 756              		.section	.text.chMtxUnlockAll,"ax",%progbits
 757              		.align	1
 758              		.p2align 4,,15
 759              		.global	chMtxUnlockAll
 760              		.syntax unified
 761              		.thumb
 762              		.thumb_func
 763              		.fpu fpv4-sp-d16
 764              		.type	chMtxUnlockAll, %function
 765              	chMtxUnlockAll:
 766              	.LFB226:
 767              		.loc 1 485 0
 768              		.cfi_startproc
 769              		@ args = 0, pretend = 0, frame = 0
 770              		@ frame_needed = 0, uses_anonymous_args = 0
 771 0000 38B5     		push	{r3, r4, r5, lr}
 772              		.cfi_def_cfa_offset 16
 773              		.cfi_offset 3, -16
 774              		.cfi_offset 4, -12
 775              		.cfi_offset 5, -8
 776              		.cfi_offset 14, -4
 777              		.loc 1 486 0
 778 0002 124B     		ldr	r3, .L66
 779 0004 9C69     		ldr	r4, [r3, #24]
 780              	.LVL81:
 781              	.LBB160:
 782              	.LBB161:
 783              	.LBB162:
 784              	.LBB163:
 785              		.loc 3 546 0
 786 0006 2023     		movs	r3, #32
 787              		.syntax unified
 788              	@ 546 "ChibiOS_3.0.2/os/ext/CMSIS/include/core_cmFunc.h" 1
 789 0008 83F31188 		MSR basepri, r3
 790              	@ 0 "" 2
 791              	.LVL82:
 792              		.thumb
 793              		.syntax unified
 794              	.LBE163:
 795              	.LBE162:
 796              	.LBE161:
 797              	.LBE160:
 798              		.loc 1 489 0
ARM GAS  C:\Users\CHRIST~1\AppData\Local\Temp\ccaxtSsx.s 			page 15


 799 000c E36B     		ldr	r3, [r4, #60]
 800 000e C3B1     		cbz	r3, .L59
 801              	.LBB164:
 802              		.loc 1 507 0
 803 0010 0025     		movs	r5, #0
 804 0012 02E0     		b	.L62
 805              	.LVL83:
 806              	.L60:
 807 0014 9D60     		str	r5, [r3, #8]
 808              	.LVL84:
 809              	.L61:
 810              	.LBE164:
 811              		.loc 1 509 0
 812 0016 E36B     		ldr	r3, [r4, #60]
 813 0018 7BB1     		cbz	r3, .L65
 814              	.L62:
 815              	.LBB172:
 816              		.loc 1 491 0
 817 001a E36B     		ldr	r3, [r4, #60]
 818              	.LVL85:
 819              		.loc 1 492 0
 820 001c DA68     		ldr	r2, [r3, #12]
 821 001e E263     		str	r2, [r4, #60]
 822              	.LVL86:
 823              	.LBB165:
 824              	.LBB166:
 825              	.LBB167:
 826              	.LBB168:
 827              		.loc 2 631 0
 828 0020 1868     		ldr	r0, [r3]
 829              	.LVL87:
 830              	.LBE168:
 831              	.LBE167:
 832              	.LBE166:
 833              	.LBE165:
 834              		.loc 1 493 0
 835 0022 8342     		cmp	r3, r0
 836 0024 F6D0     		beq	.L60
 837              	.LVL88:
 838              	.LBB169:
 839              	.LBB170:
 840              	.LBB171:
 841              		.loc 2 674 0
 842 0026 0268     		ldr	r2, [r0]
 843 0028 1A60     		str	r2, [r3]
 844              		.loc 2 675 0
 845 002a 5360     		str	r3, [r2, #4]
 846              	.LVL89:
 847              	.LBE171:
 848              	.LBE170:
 849              		.loc 1 498 0
 850 002c 9860     		str	r0, [r3, #8]
 851              		.loc 1 499 0
 852 002e C26B     		ldr	r2, [r0, #60]
 853 0030 DA60     		str	r2, [r3, #12]
 854              		.loc 1 500 0
 855 0032 C363     		str	r3, [r0, #60]
ARM GAS  C:\Users\CHRIST~1\AppData\Local\Temp\ccaxtSsx.s 			page 16


 856              		.loc 1 501 0
 857 0034 FFF7FEFF 		bl	chSchReadyI
 858              	.LVL90:
 859              	.LBE169:
 860 0038 EDE7     		b	.L61
 861              	.L65:
 862              	.LBE172:
 863              		.loc 1 510 0
 864 003a 236C     		ldr	r3, [r4, #64]
 865 003c A360     		str	r3, [r4, #8]
 866              		.loc 1 511 0
 867 003e FFF7FEFF 		bl	chSchRescheduleS
 868              	.LVL91:
 869              	.L59:
 870              	.LBB173:
 871              	.LBB174:
 872              	.LBB175:
 873              	.LBB176:
 874              	.LBB177:
 875              		.loc 3 546 0
 876 0042 0023     		movs	r3, #0
 877              		.syntax unified
 878              	@ 546 "ChibiOS_3.0.2/os/ext/CMSIS/include/core_cmFunc.h" 1
 879 0044 83F31188 		MSR basepri, r3
 880              	@ 0 "" 2
 881              	.LVL92:
 882              		.thumb
 883              		.syntax unified
 884              	.LBE177:
 885              	.LBE176:
 886              	.LBE175:
 887              	.LBE174:
 888              	.LBE173:
 889              		.loc 1 514 0
 890 0048 38BD     		pop	{r3, r4, r5, pc}
 891              	.LVL93:
 892              	.L67:
 893 004a 00BF     		.align	2
 894              	.L66:
 895 004c 00000000 		.word	ch
 896              		.cfi_endproc
 897              	.LFE226:
 898              		.size	chMtxUnlockAll, .-chMtxUnlockAll
 899              		.text
 900              	.Letext0:
 901              		.file 4 "c:\\program files (x86)\\gnu tools arm embedded\\7 2017-q4-major\\arm-none-eabi\\include\
 902              		.file 5 "c:\\program files (x86)\\gnu tools arm embedded\\7 2017-q4-major\\arm-none-eabi\\include\
 903              		.file 6 "ChibiOS_3.0.2/os/rt/ports/ARMCMx/compilers/GCC/chtypes.h"
 904              		.file 7 "ChibiOS_3.0.2/os/rt/include/chsystypes.h"
 905              		.file 8 "ChibiOS_3.0.2/os/ext/CMSIS/include/core_cm4.h"
 906              		.file 9 "ChibiOS_3.0.2/os/ext/CMSIS/ST/system_stm32f4xx.h"
 907              		.file 10 "ChibiOS_3.0.2/os/rt/ports/ARMCMx/chcore.h"
 908              		.file 11 "ChibiOS_3.0.2/os/rt/ports/ARMCMx/chcore_v7m.h"
 909              		.file 12 "ChibiOS_3.0.2/os/rt/include/chtm.h"
 910              		.file 13 "ChibiOS_3.0.2/os/rt/include/chsem.h"
 911              		.file 14 "ChibiOS_3.0.2/os/rt/include/chmtx.h"
 912              		.file 15 "ChibiOS_3.0.2/os/rt/include/chregistry.h"
ARM GAS  C:\Users\CHRIST~1\AppData\Local\Temp\ccaxtSsx.s 			page 17


 913              		.file 16 "ChibiOS_3.0.2/os/rt/include/chsys.h"
