ARM GAS  C:\Users\CHRIST~1\AppData\Local\Temp\cc4qahC7.s 			page 1


   1              		.cpu cortex-m4
   2              		.eabi_attribute 27, 1
   3              		.eabi_attribute 28, 1
   4              		.eabi_attribute 20, 1
   5              		.eabi_attribute 21, 1
   6              		.eabi_attribute 23, 3
   7              		.eabi_attribute 24, 1
   8              		.eabi_attribute 25, 1
   9              		.eabi_attribute 26, 1
  10              		.eabi_attribute 30, 1
  11              		.eabi_attribute 34, 1
  12              		.eabi_attribute 18, 4
  13              		.file	"chschd.c"
  14              		.text
  15              	.Ltext0:
  16              		.cfi_sections	.debug_frame
  17              		.section	.text._scheduler_init,"ax",%progbits
  18              		.align	1
  19              		.p2align 4,,15
  20              		.global	_scheduler_init
  21              		.syntax unified
  22              		.thumb
  23              		.thumb_func
  24              		.fpu fpv4-sp-d16
  25              		.type	_scheduler_init, %function
  26              	_scheduler_init:
  27              	.LFB219:
  28              		.file 1 "ChibiOS_3.0.2/os/rt/src/chschd.c"
  29              		.loc 1 65 0
  30              		.cfi_startproc
  31              		@ args = 0, pretend = 0, frame = 0
  32              		@ frame_needed = 0, uses_anonymous_args = 0
  33              		@ link register save eliminated.
  34              	.LVL0:
  35              	.LBB59:
  36              	.LBB60:
  37              		.file 2 "ChibiOS_3.0.2/os/rt/include/chschd.h"
  38              		.loc 2 604 0
  39 0000 034B     		ldr	r3, .L2
  40 0002 1B60     		str	r3, [r3]
  41              		.loc 2 605 0
  42 0004 5B60     		str	r3, [r3, #4]
  43              	.LVL1:
  44              	.LBE60:
  45              	.LBE59:
  46              		.loc 1 68 0
  47 0006 0022     		movs	r2, #0
  48 0008 9A60     		str	r2, [r3, #8]
  49              		.loc 1 70 0
  50 000a 1B61     		str	r3, [r3, #16]
  51              		.loc 1 71 0
  52 000c 5B61     		str	r3, [r3, #20]
  53              		.loc 1 73 0
  54 000e 7047     		bx	lr
  55              	.L3:
  56              		.align	2
  57              	.L2:
ARM GAS  C:\Users\CHRIST~1\AppData\Local\Temp\cc4qahC7.s 			page 2


  58 0010 00000000 		.word	.LANCHOR0
  59              		.cfi_endproc
  60              	.LFE219:
  61              		.size	_scheduler_init, .-_scheduler_init
  62              		.section	.text.chSchReadyI,"ax",%progbits
  63              		.align	1
  64              		.p2align 4,,15
  65              		.global	chSchReadyI
  66              		.syntax unified
  67              		.thumb
  68              		.thumb_func
  69              		.fpu fpv4-sp-d16
  70              		.type	chSchReadyI, %function
  71              	chSchReadyI:
  72              	.LFB220:
  73              		.loc 1 218 0
  74              		.cfi_startproc
  75              		@ args = 0, pretend = 0, frame = 0
  76              		@ frame_needed = 0, uses_anonymous_args = 0
  77              		@ link register save eliminated.
  78              	.LVL2:
  79              		.loc 1 227 0
  80 0000 0023     		movs	r3, #0
  81 0002 0377     		strb	r3, [r0, #28]
  82              	.LVL3:
  83              		.loc 1 231 0
  84 0004 8168     		ldr	r1, [r0, #8]
  85              		.loc 1 228 0
  86 0006 054B     		ldr	r3, .L7
  87              	.LVL4:
  88              	.L5:
  89              		.loc 1 230 0 discriminator 1
  90 0008 1B68     		ldr	r3, [r3]
  91              	.LVL5:
  92              		.loc 1 231 0 discriminator 1
  93 000a 9A68     		ldr	r2, [r3, #8]
  94 000c 8A42     		cmp	r2, r1
  95 000e FBD2     		bcs	.L5
  96              		.loc 1 233 0
  97 0010 0360     		str	r3, [r0]
  98              		.loc 1 234 0
  99 0012 5A68     		ldr	r2, [r3, #4]
 100 0014 4260     		str	r2, [r0, #4]
 101              		.loc 1 235 0
 102 0016 1060     		str	r0, [r2]
 103              		.loc 1 236 0
 104 0018 5860     		str	r0, [r3, #4]
 105              		.loc 1 239 0
 106 001a 7047     		bx	lr
 107              	.L8:
 108              		.align	2
 109              	.L7:
 110 001c 00000000 		.word	.LANCHOR0
 111              		.cfi_endproc
 112              	.LFE220:
 113              		.size	chSchReadyI, .-chSchReadyI
 114              		.section	.text.wakeup,"ax",%progbits
ARM GAS  C:\Users\CHRIST~1\AppData\Local\Temp\cc4qahC7.s 			page 3


 115              		.align	1
 116              		.p2align 4,,15
 117              		.syntax unified
 118              		.thumb
 119              		.thumb_func
 120              		.fpu fpv4-sp-d16
 121              		.type	wakeup, %function
 122              	wakeup:
 123              	.LFB222:
 124              		.loc 1 275 0
 125              		.cfi_startproc
 126              		@ args = 0, pretend = 0, frame = 0
 127              		@ frame_needed = 0, uses_anonymous_args = 0
 128              	.LVL6:
 129 0000 08B5     		push	{r3, lr}
 130              		.cfi_def_cfa_offset 8
 131              		.cfi_offset 3, -8
 132              		.cfi_offset 14, -4
 133              	.LVL7:
 134              	.LBB61:
 135              	.LBB62:
 136              	.LBB63:
 137              	.LBB64:
 138              	.LBB65:
 139              		.file 3 "ChibiOS_3.0.2/os/ext/CMSIS/include/core_cmFunc.h"
 140              		.loc 3 546 0
 141 0002 2023     		movs	r3, #32
 142              		.syntax unified
 143              	@ 546 "ChibiOS_3.0.2/os/ext/CMSIS/include/core_cmFunc.h" 1
 144 0004 83F31188 		MSR basepri, r3
 145              	@ 0 "" 2
 146              	.LVL8:
 147              		.thumb
 148              		.syntax unified
 149              	.LBE65:
 150              	.LBE64:
 151              	.LBE63:
 152              	.LBE62:
 153              	.LBE61:
 154              		.loc 1 279 0
 155 0008 037F     		ldrb	r3, [r0, #28]	@ zero_extendqisi2
 156 000a 072B     		cmp	r3, #7
 157 000c 17D8     		bhi	.L10
 158 000e DFE803F0 		tbb	[pc, r3]
 159              	.L12:
 160 0012 04       		.byte	(.L11-.L12)/2
 161 0013 16       		.byte	(.L10-.L12)/2
 162 0014 16       		.byte	(.L10-.L12)/2
 163 0015 08       		.byte	(.L13-.L12)/2
 164 0016 10       		.byte	(.L14-.L12)/2
 165 0017 0C       		.byte	(.L15-.L12)/2
 166 0018 16       		.byte	(.L10-.L12)/2
 167 0019 10       		.byte	(.L14-.L12)/2
 168              		.p2align 1
 169              	.L11:
 170              	.LVL9:
 171              	.LBB66:
ARM GAS  C:\Users\CHRIST~1\AppData\Local\Temp\cc4qahC7.s 			page 4


 172              	.LBB67:
 173              	.LBB68:
 174              	.LBB69:
 175              	.LBB70:
 176              		.loc 3 546 0
 177 001a 0023     		movs	r3, #0
 178              		.syntax unified
 179              	@ 546 "ChibiOS_3.0.2/os/ext/CMSIS/include/core_cmFunc.h" 1
 180 001c 83F31188 		MSR basepri, r3
 181              	@ 0 "" 2
 182              	.LVL10:
 183              		.thumb
 184              		.syntax unified
 185 0020 15E0     		b	.L9
 186              	.L13:
 187              	.LBE70:
 188              	.LBE69:
 189              	.LBE68:
 190              	.LBE67:
 191              	.LBE66:
 192              		.loc 1 286 0
 193 0022 436A     		ldr	r3, [r0, #36]
 194 0024 0022     		movs	r2, #0
 195 0026 1A60     		str	r2, [r3]
 196              		.loc 1 287 0
 197 0028 09E0     		b	.L10
 198              	.L15:
 199              		.loc 1 290 0
 200 002a 426A     		ldr	r2, [r0, #36]
 201              	.LVL11:
 202              	.LBB71:
 203              	.LBB72:
 204              		.file 4 "ChibiOS_3.0.2/os/rt/include/chsem.h"
 205              		.loc 4 138 0
 206 002c 9368     		ldr	r3, [r2, #8]
 207 002e 0133     		adds	r3, r3, #1
 208 0030 9360     		str	r3, [r2, #8]
 209              	.LVL12:
 210              	.L14:
 211              	.LBE72:
 212              	.LBE71:
 213              	.LBB73:
 214              	.LBB74:
 215              		.loc 2 691 0
 216 0032 4368     		ldr	r3, [r0, #4]
 217 0034 0268     		ldr	r2, [r0]
 218 0036 1A60     		str	r2, [r3]
 219              		.loc 2 692 0
 220 0038 0368     		ldr	r3, [r0]
 221 003a 4268     		ldr	r2, [r0, #4]
 222 003c 5A60     		str	r2, [r3, #4]
 223              	.LVL13:
 224              	.L10:
 225              	.LBE74:
 226              	.LBE73:
 227              		.loc 1 304 0
 228 003e 4FF0FF33 		mov	r3, #-1
ARM GAS  C:\Users\CHRIST~1\AppData\Local\Temp\cc4qahC7.s 			page 5


 229 0042 4362     		str	r3, [r0, #36]
 230              		.loc 1 305 0
 231 0044 FFF7FEFF 		bl	chSchReadyI
 232              	.LVL14:
 233              	.LBB75:
 234              	.LBB76:
 235              	.LBB77:
 236              	.LBB78:
 237              	.LBB79:
 238              		.loc 3 546 0
 239 0048 0023     		movs	r3, #0
 240              		.syntax unified
 241              	@ 546 "ChibiOS_3.0.2/os/ext/CMSIS/include/core_cmFunc.h" 1
 242 004a 83F31188 		MSR basepri, r3
 243              	@ 0 "" 2
 244              	.LVL15:
 245              		.thumb
 246              		.syntax unified
 247              	.L9:
 248              	.LBE79:
 249              	.LBE78:
 250              	.LBE77:
 251              	.LBE76:
 252              	.LBE75:
 253              		.loc 1 307 0
 254 004e 08BD     		pop	{r3, pc}
 255              		.cfi_endproc
 256              	.LFE222:
 257              		.size	wakeup, .-wakeup
 258              		.section	.text.chSchGoSleepS,"ax",%progbits
 259              		.align	1
 260              		.p2align 4,,15
 261              		.global	chSchGoSleepS
 262              		.syntax unified
 263              		.thumb
 264              		.thumb_func
 265              		.fpu fpv4-sp-d16
 266              		.type	chSchGoSleepS, %function
 267              	chSchGoSleepS:
 268              	.LFB221:
 269              		.loc 1 250 0
 270              		.cfi_startproc
 271              		@ args = 0, pretend = 0, frame = 0
 272              		@ frame_needed = 0, uses_anonymous_args = 0
 273              	.LVL16:
 274 0000 08B5     		push	{r3, lr}
 275              		.cfi_def_cfa_offset 8
 276              		.cfi_offset 3, -8
 277              		.cfi_offset 14, -4
 278              		.loc 1 255 0
 279 0002 074B     		ldr	r3, .L20
 280 0004 9969     		ldr	r1, [r3, #24]
 281              	.LVL17:
 282              		.loc 1 256 0
 283 0006 0877     		strb	r0, [r1, #28]
 284              		.loc 1 260 0
 285 0008 0422     		movs	r2, #4
ARM GAS  C:\Users\CHRIST~1\AppData\Local\Temp\cc4qahC7.s 			page 6


 286 000a CA77     		strb	r2, [r1, #31]
 287              	.LVL18:
 288              	.LBB80:
 289              	.LBB81:
 290              		.loc 2 672 0
 291 000c 1868     		ldr	r0, [r3]
 292              	.LVL19:
 293              		.loc 2 674 0
 294 000e 0268     		ldr	r2, [r0]
 295 0010 1A60     		str	r2, [r3]
 296              		.loc 2 675 0
 297 0012 5360     		str	r3, [r2, #4]
 298              	.LVL20:
 299              	.LBE81:
 300              	.LBE80:
 301              		.loc 1 262 0
 302 0014 9861     		str	r0, [r3, #24]
 303              		.loc 1 268 0
 304 0016 0123     		movs	r3, #1
 305 0018 0377     		strb	r3, [r0, #28]
 306              		.loc 1 269 0
 307 001a FFF7FEFF 		bl	_port_switch
 308              	.LVL21:
 309              		.loc 1 270 0
 310 001e 08BD     		pop	{r3, pc}
 311              	.L21:
 312              		.align	2
 313              	.L20:
 314 0020 00000000 		.word	.LANCHOR0
 315              		.cfi_endproc
 316              	.LFE221:
 317              		.size	chSchGoSleepS, .-chSchGoSleepS
 318              		.section	.text.chSchGoSleepTimeoutS,"ax",%progbits
 319              		.align	1
 320              		.p2align 4,,15
 321              		.global	chSchGoSleepTimeoutS
 322              		.syntax unified
 323              		.thumb
 324              		.thumb_func
 325              		.fpu fpv4-sp-d16
 326              		.type	chSchGoSleepTimeoutS, %function
 327              	chSchGoSleepTimeoutS:
 328              	.LFB223:
 329              		.loc 1 330 0
 330              		.cfi_startproc
 331              		@ args = 0, pretend = 0, frame = 24
 332              		@ frame_needed = 0, uses_anonymous_args = 0
 333              	.LVL22:
 334 0000 10B5     		push	{r4, lr}
 335              		.cfi_def_cfa_offset 8
 336              		.cfi_offset 4, -8
 337              		.cfi_offset 14, -4
 338 0002 86B0     		sub	sp, sp, #24
 339              		.cfi_def_cfa_offset 32
 340 0004 0446     		mov	r4, r0
 341              		.loc 1 334 0
 342 0006 B1F1FF3F 		cmp	r1, #-1
ARM GAS  C:\Users\CHRIST~1\AppData\Local\Temp\cc4qahC7.s 			page 7


 343 000a 12D0     		beq	.L23
 344              	.LBB82:
 345              		.loc 1 337 0
 346 000c 0A4B     		ldr	r3, .L27
 347 000e 9B69     		ldr	r3, [r3, #24]
 348 0010 0A4A     		ldr	r2, .L27+4
 349 0012 01A8     		add	r0, sp, #4
 350              	.LVL23:
 351 0014 FFF7FEFF 		bl	chVTDoSetI
 352              	.LVL24:
 353              		.loc 1 338 0
 354 0018 2046     		mov	r0, r4
 355 001a FFF7FEFF 		bl	chSchGoSleepS
 356              	.LVL25:
 357              		.loc 1 339 0
 358 001e 049B     		ldr	r3, [sp, #16]
 359 0020 13B1     		cbz	r3, .L25
 360              		.loc 1 340 0
 361 0022 01A8     		add	r0, sp, #4
 362 0024 FFF7FEFF 		bl	chVTDoResetI
 363              	.LVL26:
 364              	.L25:
 365              	.LBE82:
 366              		.loc 1 347 0
 367 0028 034B     		ldr	r3, .L27
 368 002a 9B69     		ldr	r3, [r3, #24]
 369              		.loc 1 348 0
 370 002c 586A     		ldr	r0, [r3, #36]
 371 002e 06B0     		add	sp, sp, #24
 372              		.cfi_remember_state
 373              		.cfi_def_cfa_offset 8
 374              		@ sp needed
 375 0030 10BD     		pop	{r4, pc}
 376              	.LVL27:
 377              	.L23:
 378              		.cfi_restore_state
 379              		.loc 1 344 0
 380 0032 FFF7FEFF 		bl	chSchGoSleepS
 381              	.LVL28:
 382 0036 F7E7     		b	.L25
 383              	.L28:
 384              		.align	2
 385              	.L27:
 386 0038 00000000 		.word	.LANCHOR0
 387 003c 00000000 		.word	wakeup
 388              		.cfi_endproc
 389              	.LFE223:
 390              		.size	chSchGoSleepTimeoutS, .-chSchGoSleepTimeoutS
 391              		.section	.text.chSchWakeupS,"ax",%progbits
 392              		.align	1
 393              		.p2align 4,,15
 394              		.global	chSchWakeupS
 395              		.syntax unified
 396              		.thumb
 397              		.thumb_func
 398              		.fpu fpv4-sp-d16
 399              		.type	chSchWakeupS, %function
ARM GAS  C:\Users\CHRIST~1\AppData\Local\Temp\cc4qahC7.s 			page 8


 400              	chSchWakeupS:
 401              	.LFB224:
 402              		.loc 1 367 0
 403              		.cfi_startproc
 404              		@ args = 0, pretend = 0, frame = 0
 405              		@ frame_needed = 0, uses_anonymous_args = 0
 406              	.LVL29:
 407 0000 10B5     		push	{r4, lr}
 408              		.cfi_def_cfa_offset 8
 409              		.cfi_offset 4, -8
 410              		.cfi_offset 14, -4
 411 0002 0446     		mov	r4, r0
 412              		.loc 1 373 0
 413 0004 4162     		str	r1, [r0, #36]
 414              		.loc 1 379 0
 415 0006 0A4B     		ldr	r3, .L34
 416 0008 9869     		ldr	r0, [r3, #24]
 417              	.LVL30:
 418 000a A268     		ldr	r2, [r4, #8]
 419 000c 8368     		ldr	r3, [r0, #8]
 420 000e 9A42     		cmp	r2, r3
 421 0010 0AD9     		bls	.L33
 422              	.LBB83:
 423              		.loc 1 383 0
 424 0012 FFF7FEFF 		bl	chSchReadyI
 425              	.LVL31:
 426              		.loc 1 384 0
 427 0016 064B     		ldr	r3, .L34
 428 0018 9C61     		str	r4, [r3, #24]
 429              		.loc 1 390 0
 430 001a 0123     		movs	r3, #1
 431 001c 2377     		strb	r3, [r4, #28]
 432              		.loc 1 391 0
 433 001e 0146     		mov	r1, r0
 434 0020 2046     		mov	r0, r4
 435              	.LVL32:
 436 0022 FFF7FEFF 		bl	_port_switch
 437              	.LVL33:
 438              	.L29:
 439              	.LBE83:
 440              		.loc 1 393 0
 441 0026 10BD     		pop	{r4, pc}
 442              	.LVL34:
 443              	.L33:
 444              		.loc 1 380 0
 445 0028 2046     		mov	r0, r4
 446 002a FFF7FEFF 		bl	chSchReadyI
 447              	.LVL35:
 448 002e FAE7     		b	.L29
 449              	.L35:
 450              		.align	2
 451              	.L34:
 452 0030 00000000 		.word	.LANCHOR0
 453              		.cfi_endproc
 454              	.LFE224:
 455              		.size	chSchWakeupS, .-chSchWakeupS
 456              		.section	.text.chSchIsPreemptionRequired,"ax",%progbits
ARM GAS  C:\Users\CHRIST~1\AppData\Local\Temp\cc4qahC7.s 			page 9


 457              		.align	1
 458              		.p2align 4,,15
 459              		.global	chSchIsPreemptionRequired
 460              		.syntax unified
 461              		.thumb
 462              		.thumb_func
 463              		.fpu fpv4-sp-d16
 464              		.type	chSchIsPreemptionRequired, %function
 465              	chSchIsPreemptionRequired:
 466              	.LFB226:
 467              		.loc 1 424 0
 468              		.cfi_startproc
 469              		@ args = 0, pretend = 0, frame = 0
 470              		@ frame_needed = 0, uses_anonymous_args = 0
 471              		@ link register save eliminated.
 472              		.loc 1 425 0
 473 0000 084B     		ldr	r3, .L40
 474 0002 1A68     		ldr	r2, [r3]
 475 0004 9068     		ldr	r0, [r2, #8]
 476              	.LVL36:
 477              		.loc 1 426 0
 478 0006 9B69     		ldr	r3, [r3, #24]
 479 0008 9A68     		ldr	r2, [r3, #8]
 480              	.LVL37:
 481              		.loc 1 433 0
 482 000a DB7F     		ldrb	r3, [r3, #31]	@ zero_extendqisi2
 483 000c 23B9     		cbnz	r3, .L39
 484              		.loc 1 433 0 is_stmt 0 discriminator 2
 485 000e 9042     		cmp	r0, r2
 486 0010 34BF     		ite	cc
 487 0012 0020     		movcc	r0, #0
 488              	.LVL38:
 489 0014 0120     		movcs	r0, #1
 490              		.loc 1 439 0 is_stmt 1 discriminator 2
 491 0016 7047     		bx	lr
 492              	.LVL39:
 493              	.L39:
 494              		.loc 1 433 0 discriminator 1
 495 0018 9042     		cmp	r0, r2
 496 001a 94BF     		ite	ls
 497 001c 0020     		movls	r0, #0
 498              	.LVL40:
 499 001e 0120     		movhi	r0, #1
 500 0020 7047     		bx	lr
 501              	.L41:
 502 0022 00BF     		.align	2
 503              	.L40:
 504 0024 00000000 		.word	.LANCHOR0
 505              		.cfi_endproc
 506              	.LFE226:
 507              		.size	chSchIsPreemptionRequired, .-chSchIsPreemptionRequired
 508              		.section	.text.chSchDoRescheduleBehind,"ax",%progbits
 509              		.align	1
 510              		.p2align 4,,15
 511              		.global	chSchDoRescheduleBehind
 512              		.syntax unified
 513              		.thumb
ARM GAS  C:\Users\CHRIST~1\AppData\Local\Temp\cc4qahC7.s 			page 10


 514              		.thumb_func
 515              		.fpu fpv4-sp-d16
 516              		.type	chSchDoRescheduleBehind, %function
 517              	chSchDoRescheduleBehind:
 518              	.LFB227:
 519              		.loc 1 451 0
 520              		.cfi_startproc
 521              		@ args = 0, pretend = 0, frame = 0
 522              		@ frame_needed = 0, uses_anonymous_args = 0
 523 0000 38B5     		push	{r3, r4, r5, lr}
 524              		.cfi_def_cfa_offset 16
 525              		.cfi_offset 3, -16
 526              		.cfi_offset 4, -12
 527              		.cfi_offset 5, -8
 528              		.cfi_offset 14, -4
 529              		.loc 1 454 0
 530 0002 094C     		ldr	r4, .L44
 531 0004 A569     		ldr	r5, [r4, #24]
 532              	.LVL41:
 533              	.LBB84:
 534              	.LBB85:
 535              		.loc 2 672 0
 536 0006 2368     		ldr	r3, [r4]
 537              	.LVL42:
 538              		.loc 2 674 0
 539 0008 1A68     		ldr	r2, [r3]
 540 000a 2260     		str	r2, [r4]
 541              		.loc 2 675 0
 542 000c 5460     		str	r4, [r2, #4]
 543              	.LVL43:
 544              	.LBE85:
 545              	.LBE84:
 546              		.loc 1 456 0
 547 000e A361     		str	r3, [r4, #24]
 548              		.loc 1 462 0
 549 0010 0122     		movs	r2, #1
 550 0012 1A77     		strb	r2, [r3, #28]
 551              		.loc 1 464 0
 552 0014 0423     		movs	r3, #4
 553 0016 EB77     		strb	r3, [r5, #31]
 554              		.loc 1 466 0
 555 0018 2846     		mov	r0, r5
 556 001a FFF7FEFF 		bl	chSchReadyI
 557              	.LVL44:
 558              		.loc 1 467 0
 559 001e 2946     		mov	r1, r5
 560 0020 A069     		ldr	r0, [r4, #24]
 561 0022 FFF7FEFF 		bl	_port_switch
 562              	.LVL45:
 563              		.loc 1 468 0
 564 0026 38BD     		pop	{r3, r4, r5, pc}
 565              	.LVL46:
 566              	.L45:
 567              		.align	2
 568              	.L44:
 569 0028 00000000 		.word	.LANCHOR0
 570              		.cfi_endproc
ARM GAS  C:\Users\CHRIST~1\AppData\Local\Temp\cc4qahC7.s 			page 11


 571              	.LFE227:
 572              		.size	chSchDoRescheduleBehind, .-chSchDoRescheduleBehind
 573              		.section	.text.chSchDoRescheduleAhead,"ax",%progbits
 574              		.align	1
 575              		.p2align 4,,15
 576              		.global	chSchDoRescheduleAhead
 577              		.syntax unified
 578              		.thumb
 579              		.thumb_func
 580              		.fpu fpv4-sp-d16
 581              		.type	chSchDoRescheduleAhead, %function
 582              	chSchDoRescheduleAhead:
 583              	.LFB228:
 584              		.loc 1 479 0
 585              		.cfi_startproc
 586              		@ args = 0, pretend = 0, frame = 0
 587              		@ frame_needed = 0, uses_anonymous_args = 0
 588 0000 08B5     		push	{r3, lr}
 589              		.cfi_def_cfa_offset 8
 590              		.cfi_offset 3, -8
 591              		.cfi_offset 14, -4
 592              		.loc 1 482 0
 593 0002 0D4B     		ldr	r3, .L50
 594 0004 9969     		ldr	r1, [r3, #24]
 595              	.LVL47:
 596              	.LBB86:
 597              	.LBB87:
 598              		.loc 2 672 0
 599 0006 1A68     		ldr	r2, [r3]
 600              	.LVL48:
 601              		.loc 2 674 0
 602 0008 1068     		ldr	r0, [r2]
 603 000a 1860     		str	r0, [r3]
 604              		.loc 2 675 0
 605 000c 4360     		str	r3, [r0, #4]
 606              	.LVL49:
 607              	.LBE87:
 608              	.LBE86:
 609              		.loc 1 484 0
 610 000e 9A61     		str	r2, [r3, #24]
 611              		.loc 1 490 0
 612 0010 0120     		movs	r0, #1
 613 0012 1077     		strb	r0, [r2, #28]
 614              		.loc 1 492 0
 615 0014 0022     		movs	r2, #0
 616 0016 0A77     		strb	r2, [r1, #28]
 617              	.LVL50:
 618              		.loc 1 496 0
 619 0018 8868     		ldr	r0, [r1, #8]
 620              	.LVL51:
 621              	.L47:
 622              		.loc 1 495 0 discriminator 1
 623 001a 1B68     		ldr	r3, [r3]
 624              	.LVL52:
 625              		.loc 1 496 0 discriminator 1
 626 001c 9A68     		ldr	r2, [r3, #8]
 627 001e 8242     		cmp	r2, r0
ARM GAS  C:\Users\CHRIST~1\AppData\Local\Temp\cc4qahC7.s 			page 12


 628 0020 FBD8     		bhi	.L47
 629              		.loc 1 498 0
 630 0022 0B60     		str	r3, [r1]
 631              		.loc 1 499 0
 632 0024 5A68     		ldr	r2, [r3, #4]
 633 0026 4A60     		str	r2, [r1, #4]
 634              		.loc 1 500 0
 635 0028 1160     		str	r1, [r2]
 636              		.loc 1 501 0
 637 002a 5960     		str	r1, [r3, #4]
 638              		.loc 1 503 0
 639 002c 024B     		ldr	r3, .L50
 640              	.LVL53:
 641 002e 9869     		ldr	r0, [r3, #24]
 642 0030 FFF7FEFF 		bl	_port_switch
 643              	.LVL54:
 644              		.loc 1 504 0
 645 0034 08BD     		pop	{r3, pc}
 646              	.L51:
 647 0036 00BF     		.align	2
 648              	.L50:
 649 0038 00000000 		.word	.LANCHOR0
 650              		.cfi_endproc
 651              	.LFE228:
 652              		.size	chSchDoRescheduleAhead, .-chSchDoRescheduleAhead
 653              		.section	.text.chSchRescheduleS,"ax",%progbits
 654              		.align	1
 655              		.p2align 4,,15
 656              		.global	chSchRescheduleS
 657              		.syntax unified
 658              		.thumb
 659              		.thumb_func
 660              		.fpu fpv4-sp-d16
 661              		.type	chSchRescheduleS, %function
 662              	chSchRescheduleS:
 663              	.LFB225:
 664              		.loc 1 402 0
 665              		.cfi_startproc
 666              		@ args = 0, pretend = 0, frame = 0
 667              		@ frame_needed = 0, uses_anonymous_args = 0
 668 0000 08B5     		push	{r3, lr}
 669              		.cfi_def_cfa_offset 8
 670              		.cfi_offset 3, -8
 671              		.cfi_offset 14, -4
 672              	.LBB88:
 673              	.LBB89:
 674              		.loc 2 713 0
 675 0002 054B     		ldr	r3, .L56
 676 0004 1A68     		ldr	r2, [r3]
 677 0006 9B69     		ldr	r3, [r3, #24]
 678              	.LBE89:
 679              	.LBE88:
 680              		.loc 1 406 0
 681 0008 9268     		ldr	r2, [r2, #8]
 682 000a 9B68     		ldr	r3, [r3, #8]
 683 000c 9A42     		cmp	r2, r3
 684 000e 00D8     		bhi	.L55
ARM GAS  C:\Users\CHRIST~1\AppData\Local\Temp\cc4qahC7.s 			page 13


 685              	.L52:
 686              		.loc 1 409 0
 687 0010 08BD     		pop	{r3, pc}
 688              	.L55:
 689              		.loc 1 407 0
 690 0012 FFF7FEFF 		bl	chSchDoRescheduleAhead
 691              	.LVL55:
 692              		.loc 1 409 0
 693 0016 FBE7     		b	.L52
 694              	.L57:
 695              		.align	2
 696              	.L56:
 697 0018 00000000 		.word	.LANCHOR0
 698              		.cfi_endproc
 699              	.LFE225:
 700              		.size	chSchRescheduleS, .-chSchRescheduleS
 701              		.section	.text.chSchDoReschedule,"ax",%progbits
 702              		.align	1
 703              		.p2align 4,,15
 704              		.global	chSchDoReschedule
 705              		.syntax unified
 706              		.thumb
 707              		.thumb_func
 708              		.fpu fpv4-sp-d16
 709              		.type	chSchDoReschedule, %function
 710              	chSchDoReschedule:
 711              	.LFB229:
 712              		.loc 1 516 0
 713              		.cfi_startproc
 714              		@ args = 0, pretend = 0, frame = 0
 715              		@ frame_needed = 0, uses_anonymous_args = 0
 716 0000 08B5     		push	{r3, lr}
 717              		.cfi_def_cfa_offset 8
 718              		.cfi_offset 3, -8
 719              		.cfi_offset 14, -4
 720              		.loc 1 521 0
 721 0002 054B     		ldr	r3, .L63
 722 0004 9B69     		ldr	r3, [r3, #24]
 723 0006 DB7F     		ldrb	r3, [r3, #31]	@ zero_extendqisi2
 724 0008 13B1     		cbz	r3, .L62
 725              		.loc 1 529 0
 726 000a FFF7FEFF 		bl	chSchDoRescheduleAhead
 727              	.LVL56:
 728              	.L58:
 729              		.loc 1 536 0
 730 000e 08BD     		pop	{r3, pc}
 731              	.L62:
 732              		.loc 1 524 0
 733 0010 FFF7FEFF 		bl	chSchDoRescheduleBehind
 734              	.LVL57:
 735 0014 FBE7     		b	.L58
 736              	.L64:
 737 0016 00BF     		.align	2
 738              	.L63:
 739 0018 00000000 		.word	.LANCHOR0
 740              		.cfi_endproc
 741              	.LFE229:
ARM GAS  C:\Users\CHRIST~1\AppData\Local\Temp\cc4qahC7.s 			page 14


 742              		.size	chSchDoReschedule, .-chSchDoReschedule
 743              		.global	ch
 744              		.section	.bss.ch,"aw",%nobits
 745              		.align	3
 746              		.set	.LANCHOR0,. + 0
 747              		.type	ch, %object
 748              		.size	ch, 600
 749              	ch:
 750 0000 00000000 		.space	600
 750      00000000 
 750      00000000 
 750      00000000 
 750      00000000 
 751              		.text
 752              	.Letext0:
 753              		.file 5 "c:\\program files (x86)\\gnu tools arm embedded\\7 2017-q4-major\\lib\\gcc\\arm-none-eabi
 754              		.file 6 "c:\\program files (x86)\\gnu tools arm embedded\\7 2017-q4-major\\arm-none-eabi\\include\
 755              		.file 7 "c:\\program files (x86)\\gnu tools arm embedded\\7 2017-q4-major\\arm-none-eabi\\include\
 756              		.file 8 "ChibiOS_3.0.2/os/rt/ports/ARMCMx/compilers/GCC/chtypes.h"
 757              		.file 9 "ChibiOS_3.0.2/os/rt/include/chsystypes.h"
 758              		.file 10 "ChibiOS_3.0.2/os/ext/CMSIS/include/core_cm4.h"
 759              		.file 11 "ChibiOS_3.0.2/os/ext/CMSIS/ST/system_stm32f4xx.h"
 760              		.file 12 "ChibiOS_3.0.2/os/rt/ports/ARMCMx/chcore.h"
 761              		.file 13 "ChibiOS_3.0.2/os/rt/ports/ARMCMx/chcore_v7m.h"
 762              		.file 14 "ChibiOS_3.0.2/os/rt/include/chtm.h"
 763              		.file 15 "ChibiOS_3.0.2/os/rt/include/chmtx.h"
 764              		.file 16 "ChibiOS_3.0.2/os/rt/include/chregistry.h"
 765              		.file 17 "ChibiOS_3.0.2/os/rt/include/chsys.h"
 766              		.file 18 "ChibiOS_3.0.2/os/rt/include/chvt.h"
