ARM GAS  C:\Users\CHRIST~1\AppData\Local\Temp\cc1zlP7j.s 			page 1


   1              		.cpu cortex-m4
   2              		.eabi_attribute 27, 1
   3              		.eabi_attribute 28, 1
   4              		.eabi_attribute 20, 1
   5              		.eabi_attribute 21, 1
   6              		.eabi_attribute 23, 3
   7              		.eabi_attribute 24, 1
   8              		.eabi_attribute 25, 1
   9              		.eabi_attribute 26, 1
  10              		.eabi_attribute 30, 1
  11              		.eabi_attribute 34, 1
  12              		.eabi_attribute 18, 4
  13              		.file	"comm_can.c"
  14              		.text
  15              	.Ltext0:
  16              		.cfi_sections	.debug_frame
  17              		.section	.text.cancom_process_thread,"ax",%progbits
  18              		.align	1
  19              		.p2align 4,,15
  20              		.syntax unified
  21              		.thumb
  22              		.thumb_func
  23              		.fpu fpv4-sp-d16
  24              		.type	cancom_process_thread, %function
  25              	cancom_process_thread:
  26              	.LFB259:
  27              		.file 1 "comm_can.c"
  28              		.loc 1 146 0
  29              		.cfi_startproc
  30              		@ args = 0, pretend = 0, frame = 24
  31              		@ frame_needed = 0, uses_anonymous_args = 0
  32              	.LVL0:
  33 0000 2DE9F04F 		push	{r4, r5, r6, r7, r8, r9, r10, fp, lr}
  34              		.cfi_def_cfa_offset 36
  35              		.cfi_offset 4, -36
  36              		.cfi_offset 5, -32
  37              		.cfi_offset 6, -28
  38              		.cfi_offset 7, -24
  39              		.cfi_offset 8, -20
  40              		.cfi_offset 9, -16
  41              		.cfi_offset 10, -12
  42              		.cfi_offset 11, -8
  43              		.cfi_offset 14, -4
  44 0004 2DED048B 		vpush.64	{d8, d9}
  45              		.cfi_def_cfa_offset 52
  46              		.cfi_offset 80, -52
  47              		.cfi_offset 81, -48
  48              		.cfi_offset 82, -44
  49              		.cfi_offset 83, -40
  50 0008 87B0     		sub	sp, sp, #28
  51              		.cfi_def_cfa_offset 80
  52              	.LVL1:
  53              	.LBB65:
  54              	.LBB66:
  55              		.file 2 "ChibiOS_3.0.2/os/rt/include/chregistry.h"
  56              		.loc 2 135 0
  57 000a B34B     		ldr	r3, .L35
ARM GAS  C:\Users\CHRIST~1\AppData\Local\Temp\cc1zlP7j.s 			page 2


  58 000c 9A69     		ldr	r2, [r3, #24]
  59 000e B349     		ldr	r1, .L35+4
  60 0010 9161     		str	r1, [r2, #24]
  61              	.LVL2:
  62              	.LBE66:
  63              	.LBE65:
  64              		.loc 1 150 0
  65 0012 9A69     		ldr	r2, [r3, #24]
  66 0014 B24B     		ldr	r3, .L35+8
  67 0016 1A60     		str	r2, [r3]
  68              		.loc 1 152 0
  69 0018 0023     		movs	r3, #0
  70 001a 0593     		str	r3, [sp, #20]
  71              		.loc 1 162 0
  72 001c B14C     		ldr	r4, .L35+12
  73              	.LBB67:
  74              	.LBB68:
  75              	.LBB69:
  76              		.loc 1 281 0
  77 001e 9FEDB28A 		vldr.32	s16, .L35+16
  78              	.LBE69:
  79              		.loc 1 262 0
  80 0022 DFEDB28A 		vldr.32	s17, .L35+20
  81              		.loc 1 198 0
  82 0026 9FEDB29A 		vldr.32	s18, .L35+24
  83              	.LVL3:
  84              	.L28:
  85              	.LBE68:
  86              	.LBE67:
  87              		.loc 1 160 0
  88 002a 0120     		movs	r0, #1
  89 002c FFF7FEFF 		bl	chEvtWaitAny
  90              	.LVL4:
  91              		.loc 1 162 0
  92 0030 2568     		ldr	r5, [r4]
  93 0032 B04B     		ldr	r3, .L35+28
  94 0034 1B68     		ldr	r3, [r3]
  95 0036 9D42     		cmp	r5, r3
  96 0038 F7D0     		beq	.L28
  97              	.LBB87:
  98              		.loc 1 163 0
  99 003a AF4F     		ldr	r7, .L35+32
 100              		.loc 1 291 0
 101 003c DFF8CC82 		ldr	r8, .L35+52
 102 0040 7EE1     		b	.L27
 103              	.LVL5:
 104              	.L34:
 105              	.LBB85:
 106              		.loc 1 170 0 discriminator 1
 107 0042 FFF7FEFF 		bl	app_get_configuration
 108              	.LVL6:
 109 0046 0378     		ldrb	r3, [r0]	@ zero_extendqisi2
 110 0048 B342     		cmp	r3, r6
 111 004a 00F09081 		beq	.L4
 112              	.L5:
 113              		.loc 1 271 0
 114 004e EBB2     		uxtb	r3, r5
ARM GAS  C:\Users\CHRIST~1\AppData\Local\Temp\cc1zlP7j.s 			page 3


 115 0050 092B     		cmp	r3, #9
 116 0052 40F06A81 		bne	.L21
 117              	.LVL7:
 118              	.LBB83:
 119              		.loc 1 275 0
 120 0056 A94B     		ldr	r3, .L35+36
 121 0058 1B68     		ldr	r3, [r3]
 122 005a 3146     		mov	r1, r6
 123 005c B342     		cmp	r3, r6
 124 005e 00F0FB80 		beq	.L29
 125 0062 B3F1FF3F 		cmp	r3, #-1
 126 0066 00F03581 		beq	.L30
 127 006a A44B     		ldr	r3, .L35+36
 128              		.loc 1 273 0
 129 006c 0125     		movs	r5, #1
 130              	.LVL8:
 131              	.L25:
 132              		.loc 1 275 0
 133 006e 5A69     		ldr	r2, [r3, #20]
 134 0070 8A42     		cmp	r2, r1
 135 0072 00F0F280 		beq	.L23
 136              		.loc 1 275 0 is_stmt 0 discriminator 1
 137 0076 B2F1FF3F 		cmp	r2, #-1
 138 007a 00F0EE80 		beq	.L23
 139              		.loc 1 273 0 is_stmt 1 discriminator 2
 140 007e 0135     		adds	r5, r5, #1
 141              	.LVL9:
 142 0080 1433     		adds	r3, r3, #20
 143 0082 0A2D     		cmp	r5, #10
 144 0084 F3D1     		bne	.L25
 145 0086 50E1     		b	.L21
 146              	.LVL10:
 147              	.L6:
 148              	.LBE83:
 149              		.loc 1 173 0
 150 0088 06A9     		add	r1, sp, #24
 151 008a 0023     		movs	r3, #0
 152 008c 41F8043D 		str	r3, [r1, #-4]!
 153              		.loc 1 174 0
 154 0090 03A8     		add	r0, sp, #12
 155 0092 FFF7FEFF 		bl	buffer_get_int32
 156              	.LVL11:
 157 0096 07EE900A 		vmov	s15, r0	@ int
 158 009a B8EEE70A 		vcvt.f32.s32	s0, s15
 159 009e 80EE280A 		vdiv.f32	s0, s0, s17
 160 00a2 FFF7FEFF 		bl	mc_interface_set_duty
 161              	.LVL12:
 162              		.loc 1 175 0
 163 00a6 FFF7FEFF 		bl	timeout_reset
 164              	.LVL13:
 165              		.loc 1 176 0
 166 00aa 3EE1     		b	.L21
 167              	.L8:
 168              		.loc 1 179 0
 169 00ac 06A9     		add	r1, sp, #24
 170 00ae 0023     		movs	r3, #0
 171 00b0 41F8043D 		str	r3, [r1, #-4]!
ARM GAS  C:\Users\CHRIST~1\AppData\Local\Temp\cc1zlP7j.s 			page 4


 172              		.loc 1 180 0
 173 00b4 03A8     		add	r0, sp, #12
 174 00b6 FFF7FEFF 		bl	buffer_get_int32
 175              	.LVL14:
 176 00ba 07EE900A 		vmov	s15, r0	@ int
 177 00be B8EEE70A 		vcvt.f32.s32	s0, s15
 178 00c2 80EE080A 		vdiv.f32	s0, s0, s16
 179 00c6 FFF7FEFF 		bl	mc_interface_set_current
 180              	.LVL15:
 181              		.loc 1 181 0
 182 00ca FFF7FEFF 		bl	timeout_reset
 183              	.LVL16:
 184              		.loc 1 182 0
 185 00ce 2CE1     		b	.L21
 186              	.L9:
 187              		.loc 1 185 0
 188 00d0 06A9     		add	r1, sp, #24
 189 00d2 0023     		movs	r3, #0
 190 00d4 41F8043D 		str	r3, [r1, #-4]!
 191              		.loc 1 186 0
 192 00d8 03A8     		add	r0, sp, #12
 193 00da FFF7FEFF 		bl	buffer_get_int32
 194              	.LVL17:
 195 00de 07EE900A 		vmov	s15, r0	@ int
 196 00e2 B8EEE70A 		vcvt.f32.s32	s0, s15
 197 00e6 80EE080A 		vdiv.f32	s0, s0, s16
 198 00ea FFF7FEFF 		bl	mc_interface_set_brake_current
 199              	.LVL18:
 200              		.loc 1 187 0
 201 00ee FFF7FEFF 		bl	timeout_reset
 202              	.LVL19:
 203              		.loc 1 188 0
 204 00f2 1AE1     		b	.L21
 205              	.L10:
 206              		.loc 1 191 0
 207 00f4 06A9     		add	r1, sp, #24
 208 00f6 0023     		movs	r3, #0
 209 00f8 41F8043D 		str	r3, [r1, #-4]!
 210              		.loc 1 192 0
 211 00fc 03A8     		add	r0, sp, #12
 212 00fe FFF7FEFF 		bl	buffer_get_int32
 213              	.LVL20:
 214 0102 07EE900A 		vmov	s15, r0	@ int
 215 0106 B8EEE70A 		vcvt.f32.s32	s0, s15
 216 010a FFF7FEFF 		bl	mc_interface_set_pid_speed
 217              	.LVL21:
 218              		.loc 1 193 0
 219 010e FFF7FEFF 		bl	timeout_reset
 220              	.LVL22:
 221              		.loc 1 194 0
 222 0112 0AE1     		b	.L21
 223              	.L11:
 224              		.loc 1 197 0
 225 0114 06A9     		add	r1, sp, #24
 226 0116 0023     		movs	r3, #0
 227 0118 41F8043D 		str	r3, [r1, #-4]!
 228              		.loc 1 198 0
ARM GAS  C:\Users\CHRIST~1\AppData\Local\Temp\cc1zlP7j.s 			page 5


 229 011c 03A8     		add	r0, sp, #12
 230 011e FFF7FEFF 		bl	buffer_get_int32
 231              	.LVL23:
 232 0122 07EE900A 		vmov	s15, r0	@ int
 233 0126 B8EEE70A 		vcvt.f32.s32	s0, s15
 234 012a 80EE090A 		vdiv.f32	s0, s0, s18
 235 012e FFF7FEFF 		bl	mc_interface_set_pid_pos
 236              	.LVL24:
 237              		.loc 1 199 0
 238 0132 FFF7FEFF 		bl	timeout_reset
 239              	.LVL25:
 240              		.loc 1 200 0
 241 0136 F8E0     		b	.L21
 242              	.L12:
 243              		.loc 1 203 0
 244 0138 9DF80C30 		ldrb	r3, [sp, #12]	@ zero_extendqisi2
 245 013c 9DF80420 		ldrb	r2, [sp, #4]	@ zero_extendqisi2
 246 0140 02F00F02 		and	r2, r2, #15
 247 0144 013A     		subs	r2, r2, #1
 248 0146 0DF10D01 		add	r1, sp, #13
 249 014a 6D48     		ldr	r0, .L35+40
 250 014c 1844     		add	r0, r0, r3
 251 014e FFF7FEFF 		bl	memcpy
 252              	.LVL26:
 253              		.loc 1 204 0
 254 0152 EAE0     		b	.L21
 255              	.L13:
 256              		.loc 1 207 0
 257 0154 9DF80C00 		ldrb	r0, [sp, #12]	@ zero_extendqisi2
 258              	.LVL27:
 259              		.loc 1 208 0
 260 0158 9DF80D30 		ldrb	r3, [sp, #13]	@ zero_extendqisi2
 261 015c 43EA0023 		orr	r3, r3, r0, lsl #8
 262              	.LVL28:
 263              		.loc 1 209 0
 264 0160 B3F5806F 		cmp	r3, #1024
 265 0164 80F0E180 		bcs	.L21
 266              		.loc 1 210 0
 267 0168 9DF80420 		ldrb	r2, [sp, #4]	@ zero_extendqisi2
 268 016c 02F00F02 		and	r2, r2, #15
 269 0170 023A     		subs	r2, r2, #2
 270 0172 0DF10E01 		add	r1, sp, #14
 271 0176 6248     		ldr	r0, .L35+40
 272 0178 1844     		add	r0, r0, r3
 273 017a FFF7FEFF 		bl	memcpy
 274              	.LVL29:
 275 017e D4E0     		b	.L21
 276              	.L14:
 277              		.loc 1 216 0
 278 0180 9DF80C20 		ldrb	r2, [sp, #12]	@ zero_extendqisi2
 279 0184 5F4B     		ldr	r3, .L35+44
 280 0186 1A60     		str	r2, [r3]
 281              		.loc 1 217 0
 282 0188 9DF80D60 		ldrb	r6, [sp, #13]	@ zero_extendqisi2
 283              	.LVL30:
 284              		.loc 1 218 0
 285 018c 9DF80E30 		ldrb	r3, [sp, #14]	@ zero_extendqisi2
ARM GAS  C:\Users\CHRIST~1\AppData\Local\Temp\cc1zlP7j.s 			page 6


 286              	.LVL31:
 287              		.loc 1 219 0
 288 0190 0422     		movs	r2, #4
 289 0192 0592     		str	r2, [sp, #20]
 290 0194 9DF80F50 		ldrb	r5, [sp, #15]	@ zero_extendqisi2
 291              	.LVL32:
 292 0198 45EA0325 		orr	r5, r5, r3, lsl #8
 293              	.LVL33:
 294              		.loc 1 221 0
 295 019c B5F5806F 		cmp	r5, #1024
 296 01a0 00F2C380 		bhi	.L21
 297              		.loc 1 225 0
 298 01a4 9DF810A0 		ldrb	r10, [sp, #16]	@ zero_extendqisi2
 299              	.LVL34:
 300              		.loc 1 226 0
 301 01a8 0623     		movs	r3, #6
 302 01aa 0593     		str	r3, [sp, #20]
 303 01ac 9DF81190 		ldrb	r9, [sp, #17]	@ zero_extendqisi2
 304              	.LVL35:
 305              		.loc 1 228 0
 306 01b0 2946     		mov	r1, r5
 307 01b2 5348     		ldr	r0, .L35+40
 308 01b4 FFF7FEFF 		bl	crc16
 309              	.LVL36:
 310              		.loc 1 230 0
 311 01b8 49EA0A29 		orr	r9, r9, r10, lsl #8
 312              	.LVL37:
 313              		.loc 1 228 0
 314 01bc 4845     		cmp	r0, r9
 315 01be 40F0B480 		bne	.L21
 316              		.loc 1 232 0
 317 01c2 26B1     		cbz	r6, .L19
 318              		.loc 1 233 0
 319 01c4 2946     		mov	r1, r5
 320 01c6 4E48     		ldr	r0, .L35+40
 321 01c8 FFF7FEFF 		bl	commands_send_packet
 322              	.LVL38:
 323 01cc ADE0     		b	.L21
 324              	.L19:
 325              		.loc 1 235 0
 326 01ce 4E48     		ldr	r0, .L35+48
 327 01d0 FFF7FEFF 		bl	commands_set_send_func
 328              	.LVL39:
 329              		.loc 1 236 0
 330 01d4 2946     		mov	r1, r5
 331 01d6 4A48     		ldr	r0, .L35+40
 332 01d8 FFF7FEFF 		bl	commands_process_packet
 333              	.LVL40:
 334 01dc A5E0     		b	.L21
 335              	.LVL41:
 336              	.L15:
 337              		.loc 1 243 0
 338 01de 9DF80C20 		ldrb	r2, [sp, #12]	@ zero_extendqisi2
 339 01e2 484B     		ldr	r3, .L35+44
 340 01e4 1A60     		str	r2, [r3]
 341              		.loc 1 244 0
 342 01e6 0223     		movs	r3, #2
ARM GAS  C:\Users\CHRIST~1\AppData\Local\Temp\cc1zlP7j.s 			page 7


 343 01e8 0593     		str	r3, [sp, #20]
 344              	.LVL42:
 345              		.loc 1 246 0
 346 01ea 9DF80D30 		ldrb	r3, [sp, #13]	@ zero_extendqisi2
 347 01ee 4BB1     		cbz	r3, .L20
 348              		.loc 1 247 0
 349 01f0 9DF80410 		ldrb	r1, [sp, #4]	@ zero_extendqisi2
 350 01f4 01F00F01 		and	r1, r1, #15
 351 01f8 0239     		subs	r1, r1, #2
 352 01fa 0DF10E00 		add	r0, sp, #14
 353 01fe FFF7FEFF 		bl	commands_send_packet
 354              	.LVL43:
 355 0202 92E0     		b	.L21
 356              	.LVL44:
 357              	.L20:
 358              		.loc 1 249 0
 359 0204 4048     		ldr	r0, .L35+48
 360 0206 FFF7FEFF 		bl	commands_set_send_func
 361              	.LVL45:
 362              		.loc 1 250 0
 363 020a 0598     		ldr	r0, [sp, #20]
 364 020c 9DF80410 		ldrb	r1, [sp, #4]	@ zero_extendqisi2
 365 0210 01F00F01 		and	r1, r1, #15
 366 0214 091A     		subs	r1, r1, r0
 367 0216 03AB     		add	r3, sp, #12
 368 0218 1844     		add	r0, r0, r3
 369 021a FFF7FEFF 		bl	commands_process_packet
 370              	.LVL46:
 371 021e 84E0     		b	.L21
 372              	.L16:
 373              		.loc 1 255 0
 374 0220 06A9     		add	r1, sp, #24
 375 0222 0023     		movs	r3, #0
 376 0224 41F8043D 		str	r3, [r1, #-4]!
 377              		.loc 1 256 0
 378 0228 B0EE680A 		vmov.f32	s0, s17
 379 022c 03A8     		add	r0, sp, #12
 380 022e FFF7FEFF 		bl	buffer_get_float32
 381              	.LVL47:
 382 0232 FFF7FEFF 		bl	mc_interface_set_current_rel
 383              	.LVL48:
 384              		.loc 1 257 0
 385 0236 FFF7FEFF 		bl	timeout_reset
 386              	.LVL49:
 387              		.loc 1 258 0
 388 023a 76E0     		b	.L21
 389              	.L17:
 390              		.loc 1 261 0
 391 023c 06A9     		add	r1, sp, #24
 392 023e 0023     		movs	r3, #0
 393 0240 41F8043D 		str	r3, [r1, #-4]!
 394              		.loc 1 262 0
 395 0244 B0EE680A 		vmov.f32	s0, s17
 396 0248 03A8     		add	r0, sp, #12
 397 024a FFF7FEFF 		bl	buffer_get_float32
 398              	.LVL50:
 399 024e FFF7FEFF 		bl	mc_interface_set_brake_current_rel
ARM GAS  C:\Users\CHRIST~1\AppData\Local\Temp\cc1zlP7j.s 			page 8


 400              	.LVL51:
 401              		.loc 1 263 0
 402 0252 FFF7FEFF 		bl	timeout_reset
 403              	.LVL52:
 404              		.loc 1 264 0
 405 0256 68E0     		b	.L21
 406              	.LVL53:
 407              	.L29:
 408              	.LBB84:
 409              		.loc 1 273 0
 410 0258 0025     		movs	r5, #0
 411              	.LVL54:
 412              	.L23:
 413              		.loc 1 276 0
 414 025a 0023     		movs	r3, #0
 415 025c 06AA     		add	r2, sp, #24
 416 025e 1146     		mov	r1, r2
 417 0260 41F8043D 		str	r3, [r1, #-4]!
 418              		.loc 1 277 0
 419 0264 DFF89490 		ldr	r9, .L35+36
 420 0268 4FEA850A 		lsl	r10, r5, #2
 421 026c 0AEB0502 		add	r2, r10, r5
 422 0270 09EB820B 		add	fp, r9, r2, lsl #2
 423 0274 49F82260 		str	r6, [r9, r2, lsl #2]
 424              	.LVL55:
 425              	.LBB70:
 426              	.LBB71:
 427              	.LBB72:
 428              	.LBB73:
 429              	.LBB74:
 430              	.LBB75:
 431              		.file 3 "ChibiOS_3.0.2/os/ext/CMSIS/include/core_cmFunc.h"
 432              		.loc 3 546 0
 433 0278 2022     		movs	r2, #32
 434              		.syntax unified
 435              	@ 546 "ChibiOS_3.0.2/os/ext/CMSIS/include/core_cmFunc.h" 1
 436 027a 82F31188 		MSR basepri, r2
 437              	@ 0 "" 2
 438              	.LVL56:
 439              		.thumb
 440              		.syntax unified
 441              	.LBE75:
 442              	.LBE74:
 443              	.LBE73:
 444              	.LBE72:
 445              	.LBB76:
 446              	.LBB77:
 447              		.file 4 "ChibiOS_3.0.2/os/rt/include/chvt.h"
 448              		.loc 4 231 0
 449 027e 164A     		ldr	r2, .L35
 450 0280 926A     		ldr	r2, [r2, #40]
 451              	.LVL57:
 452              	.LBE77:
 453              	.LBE76:
 454              	.LBB78:
 455              	.LBB79:
 456              	.LBB80:
ARM GAS  C:\Users\CHRIST~1\AppData\Local\Temp\cc1zlP7j.s 			page 9


 457              	.LBB81:
 458              	.LBB82:
 459              		.loc 3 546 0
 460              		.syntax unified
 461              	@ 546 "ChibiOS_3.0.2/os/ext/CMSIS/include/core_cmFunc.h" 1
 462 0282 83F31188 		MSR basepri, r3
 463              	@ 0 "" 2
 464              	.LVL58:
 465              		.thumb
 466              		.syntax unified
 467              	.LBE82:
 468              	.LBE81:
 469              	.LBE80:
 470              	.LBE79:
 471              	.LBE78:
 472              	.LBE71:
 473              	.LBE70:
 474              		.loc 1 278 0
 475 0286 CBF80420 		str	r2, [fp, #4]
 476              		.loc 1 279 0
 477 028a 0E46     		mov	r6, r1
 478              	.LVL59:
 479 028c 03A8     		add	r0, sp, #12
 480 028e FFF7FEFF 		bl	buffer_get_int32
 481              	.LVL60:
 482 0292 07EE900A 		vmov	s15, r0	@ int
 483 0296 F8EEE77A 		vcvt.f32.s32	s15, s15
 484 029a CBED027A 		vstr.32	s15, [fp, #8]
 485              		.loc 1 280 0
 486 029e 3146     		mov	r1, r6
 487 02a0 03A8     		add	r0, sp, #12
 488 02a2 FFF7FEFF 		bl	buffer_get_int16
 489              	.LVL61:
 490 02a6 07EE900A 		vmov	s15, r0	@ int
 491 02aa F8EEE76A 		vcvt.f32.s32	s13, s15
 492 02ae B2EE047A 		vmov.f32	s14, #1.0e+1
 493 02b2 C6EE877A 		vdiv.f32	s15, s13, s14
 494 02b6 CBED037A 		vstr.32	s15, [fp, #12]
 495              		.loc 1 281 0
 496 02ba 3146     		mov	r1, r6
 497 02bc 03A8     		add	r0, sp, #12
 498 02be FFF7FEFF 		bl	buffer_get_int16
 499              	.LVL62:
 500 02c2 07EE900A 		vmov	s15, r0	@ int
 501 02c6 B8EEE77A 		vcvt.f32.s32	s14, s15
 502 02ca C7EE087A 		vdiv.f32	s15, s14, s16
 503 02ce CBED047A 		vstr.32	s15, [fp, #16]
 504              		.loc 1 282 0
 505 02d2 2AE0     		b	.L21
 506              	.LVL63:
 507              	.L30:
 508              		.loc 1 273 0
 509 02d4 0025     		movs	r5, #0
 510              	.LVL64:
 511 02d6 C0E7     		b	.L23
 512              	.L36:
 513              		.align	2
ARM GAS  C:\Users\CHRIST~1\AppData\Local\Temp\cc1zlP7j.s 			page 10


 514              	.L35:
 515 02d8 00000000 		.word	ch
 516 02dc 00000000 		.word	.LC0
 517 02e0 00000000 		.word	.LANCHOR0
 518 02e4 00000000 		.word	.LANCHOR1
 519 02e8 00007A44 		.word	1148846080
 520 02ec 0050C347 		.word	1203982336
 521 02f0 00247449 		.word	1232348160
 522 02f4 00000000 		.word	.LANCHOR2
 523 02f8 00000000 		.word	.LANCHOR3
 524 02fc 00000000 		.word	.LANCHOR6
 525 0300 00000000 		.word	.LANCHOR4
 526 0304 00000000 		.word	.LANCHOR5
 527 0308 00000000 		.word	send_packet_wrapper
 528 030c 00000000 		.word	.LANCHOR7
 529              	.LVL65:
 530              	.L3:
 531              	.LBE84:
 532              	.LBE85:
 533              		.loc 1 291 0
 534 0310 D8F80030 		ldr	r3, [r8]
 535 0314 4BB1     		cbz	r3, .L21
 536              		.loc 1 292 0
 537 0316 9DF80420 		ldrb	r2, [sp, #4]	@ zero_extendqisi2
 538 031a BDF80800 		ldrh	r0, [sp, #8]
 539 031e 02F00F02 		and	r2, r2, #15
 540 0322 03A9     		add	r1, sp, #12
 541 0324 C0F30A00 		ubfx	r0, r0, #0, #11
 542 0328 9847     		blx	r3
 543              	.LVL66:
 544              	.L21:
 545              		.loc 1 296 0
 546 032a 2368     		ldr	r3, [r4]
 547 032c 642B     		cmp	r3, #100
 548              		.loc 1 297 0
 549 032e 04BF     		itt	eq
 550 0330 0023     		moveq	r3, #0
 551 0332 2360     		streq	r3, [r4]
 552              	.LBE87:
 553              		.loc 1 162 0
 554 0334 2568     		ldr	r5, [r4]
 555 0336 1D4B     		ldr	r3, .L37
 556 0338 1B68     		ldr	r3, [r3]
 557 033a 9D42     		cmp	r5, r3
 558 033c 3FF475AE 		beq	.L28
 559              	.L27:
 560              	.LBB88:
 561              		.loc 1 163 0
 562 0340 6B1C     		adds	r3, r5, #1
 563 0342 2360     		str	r3, [r4]
 564 0344 05EB8505 		add	r5, r5, r5, lsl #2
 565 0348 6E46     		mov	r6, sp
 566 034a 07EB8505 		add	r5, r7, r5, lsl #2
 567 034e 0FCD     		ldmia	r5!, {r0, r1, r2, r3}
 568 0350 0FC6     		stmia	r6!, {r0, r1, r2, r3}
 569 0352 2B68     		ldr	r3, [r5]
 570 0354 3360     		str	r3, [r6]
ARM GAS  C:\Users\CHRIST~1\AppData\Local\Temp\cc1zlP7j.s 			page 11


 571              		.loc 1 165 0
 572 0356 9DF80430 		ldrb	r3, [sp, #4]	@ zero_extendqisi2
 573 035a 13F0200F 		tst	r3, #32
 574 035e D7D0     		beq	.L3
 575              	.LBB86:
 576              		.loc 1 166 0
 577 0360 C2F31C03 		ubfx	r3, r2, #0, #29
 578 0364 DEB2     		uxtb	r6, r3
 579              	.LVL67:
 580              		.loc 1 167 0
 581 0366 1D12     		asrs	r5, r3, #8
 582              	.LVL68:
 583              		.loc 1 170 0
 584 0368 FF2E     		cmp	r6, #255
 585 036a 7FF46AAE 		bne	.L34
 586              	.L4:
 587              		.loc 1 171 0
 588 036e EBB2     		uxtb	r3, r5
 589 0370 0B2B     		cmp	r3, #11
 590 0372 3FF66CAE 		bhi	.L5
 591 0376 01A2     		adr	r2, .L7
 592 0378 52F823F0 		ldr	pc, [r2, r3, lsl #2]
 593              		.p2align 2
 594              	.L7:
 595 037c 89000000 		.word	.L6+1
 596 0380 AD000000 		.word	.L8+1
 597 0384 D1000000 		.word	.L9+1
 598 0388 F5000000 		.word	.L10+1
 599 038c 15010000 		.word	.L11+1
 600 0390 39010000 		.word	.L12+1
 601 0394 55010000 		.word	.L13+1
 602 0398 81010000 		.word	.L14+1
 603 039c DF010000 		.word	.L15+1
 604 03a0 4F000000 		.word	.L5+1
 605 03a4 21020000 		.word	.L16+1
 606 03a8 3D020000 		.word	.L17+1
 607              		.p2align 1
 608              	.L38:
 609              		.align	2
 610              	.L37:
 611 03ac 00000000 		.word	.LANCHOR2
 612              	.LBE86:
 613              	.LBE88:
 614              		.cfi_endproc
 615              	.LFE259:
 616              		.size	cancom_process_thread, .-cancom_process_thread
 617              		.section	.text.cancom_status_thread,"ax",%progbits
 618              		.align	1
 619              		.p2align 4,,15
 620              		.syntax unified
 621              		.thumb
 622              		.thumb_func
 623              		.fpu fpv4-sp-d16
 624              		.type	cancom_status_thread, %function
 625              	cancom_status_thread:
 626              	.LFB260:
 627              		.loc 1 303 0
ARM GAS  C:\Users\CHRIST~1\AppData\Local\Temp\cc1zlP7j.s 			page 12


 628              		.cfi_startproc
 629              		@ args = 0, pretend = 0, frame = 16
 630              		@ frame_needed = 0, uses_anonymous_args = 0
 631              	.LVL69:
 632 0000 10B5     		push	{r4, lr}
 633              		.cfi_def_cfa_offset 8
 634              		.cfi_offset 4, -8
 635              		.cfi_offset 14, -4
 636 0002 2DED028B 		vpush.64	{d8}
 637              		.cfi_def_cfa_offset 16
 638              		.cfi_offset 80, -16
 639              		.cfi_offset 81, -12
 640 0006 84B0     		sub	sp, sp, #16
 641              		.cfi_def_cfa_offset 32
 642              	.LVL70:
 643              	.LBB89:
 644              	.LBB90:
 645              		.loc 2 135 0
 646 0008 214B     		ldr	r3, .L44
 647 000a 9B69     		ldr	r3, [r3, #24]
 648 000c 214A     		ldr	r2, .L44+4
 649 000e 9A61     		str	r2, [r3, #24]
 650              	.LBE90:
 651              	.LBE89:
 652              	.LBB91:
 653              	.LBB92:
 654              		.loc 1 310 0
 655 0010 0024     		movs	r4, #0
 656              		.loc 1 314 0
 657 0012 9FED218A 		vldr.32	s16, .L44+8
 658 0016 0BE0     		b	.L42
 659              	.LVL71:
 660              	.L40:
 661              	.LBE92:
 662              		.loc 1 319 0
 663 0018 FFF7FEFF 		bl	app_get_configuration
 664              	.LVL72:
 665 001c 0369     		ldr	r3, [r0, #16]
 666 001e 42F21070 		movw	r0, #10000
 667 0022 B0FBF3F0 		udiv	r0, r0, r3
 668              	.LVL73:
 669              		.loc 1 321 0
 670 0026 0028     		cmp	r0, #0
 671              	.LVL74:
 672              		.loc 1 324 0
 673 0028 08BF     		it	eq
 674 002a 0120     		moveq	r0, #1
 675              	.LVL75:
 676 002c FFF7FEFF 		bl	chThdSleep
 677              	.LVL76:
 678              	.L42:
 679              		.loc 1 308 0
 680 0030 FFF7FEFF 		bl	app_get_configuration
 681              	.LVL77:
 682 0034 037B     		ldrb	r3, [r0, #12]	@ zero_extendqisi2
 683 0036 002B     		cmp	r3, #0
 684 0038 EED0     		beq	.L40
ARM GAS  C:\Users\CHRIST~1\AppData\Local\Temp\cc1zlP7j.s 			page 13


 685              	.LBB93:
 686              		.loc 1 310 0
 687 003a 0194     		str	r4, [sp, #4]
 688              		.loc 1 312 0
 689 003c FFF7FEFF 		bl	mc_interface_get_rpm
 690              	.LVL78:
 691 0040 01AA     		add	r2, sp, #4
 692 0042 FDEEC07A 		vcvt.s32.f32	s15, s0
 693 0046 17EE901A 		vmov	r1, s15	@ int
 694 004a 02A8     		add	r0, sp, #8
 695 004c FFF7FEFF 		bl	buffer_append_int32
 696              	.LVL79:
 697              		.loc 1 313 0
 698 0050 FFF7FEFF 		bl	mc_interface_get_tot_current
 699              	.LVL80:
 700 0054 F2EE047A 		vmov.f32	s15, #1.0e+1
 701 0058 20EE270A 		vmul.f32	s0, s0, s15
 702 005c BDEEC00A 		vcvt.s32.f32	s0, s0
 703 0060 01AA     		add	r2, sp, #4
 704 0062 10EE103A 		vmov	r3, s0	@ int
 705 0066 19B2     		sxth	r1, r3
 706 0068 02A8     		add	r0, sp, #8
 707 006a FFF7FEFF 		bl	buffer_append_int16
 708              	.LVL81:
 709              		.loc 1 314 0
 710 006e FFF7FEFF 		bl	mc_interface_get_duty_cycle_now
 711              	.LVL82:
 712 0072 20EE080A 		vmul.f32	s0, s0, s16
 713 0076 BDEEC00A 		vcvt.s32.f32	s0, s0
 714 007a 01AA     		add	r2, sp, #4
 715 007c 10EE103A 		vmov	r3, s0	@ int
 716 0080 19B2     		sxth	r1, r3
 717 0082 02A8     		add	r0, sp, #8
 718 0084 FFF7FEFF 		bl	buffer_append_int16
 719              	.LVL83:
 720              		.loc 1 315 0
 721 0088 FFF7FEFF 		bl	app_get_configuration
 722              	.LVL84:
 723 008c C4E7     		b	.L40
 724              	.L45:
 725 008e 00BF     		.align	2
 726              	.L44:
 727 0090 00000000 		.word	ch
 728 0094 00000000 		.word	.LC1
 729 0098 00007A44 		.word	1148846080
 730              	.LBE93:
 731              	.LBE91:
 732              		.cfi_endproc
 733              	.LFE260:
 734              		.size	cancom_status_thread, .-cancom_status_thread
 735              		.section	.text.cancom_read_thread,"ax",%progbits
 736              		.align	1
 737              		.p2align 4,,15
 738              		.syntax unified
 739              		.thumb
 740              		.thumb_func
 741              		.fpu fpv4-sp-d16
ARM GAS  C:\Users\CHRIST~1\AppData\Local\Temp\cc1zlP7j.s 			page 14


 742              		.type	cancom_read_thread, %function
 743              	cancom_read_thread:
 744              	.LFB258:
 745              		.loc 1 115 0
 746              		.cfi_startproc
 747              		@ args = 0, pretend = 0, frame = 40
 748              		@ frame_needed = 0, uses_anonymous_args = 0
 749              	.LVL85:
 750 0000 2DE9F043 		push	{r4, r5, r6, r7, r8, r9, lr}
 751              		.cfi_def_cfa_offset 28
 752              		.cfi_offset 4, -28
 753              		.cfi_offset 5, -24
 754              		.cfi_offset 6, -20
 755              		.cfi_offset 7, -16
 756              		.cfi_offset 8, -12
 757              		.cfi_offset 9, -8
 758              		.cfi_offset 14, -4
 759 0004 8BB0     		sub	sp, sp, #44
 760              		.cfi_def_cfa_offset 72
 761              	.LVL86:
 762              	.LBB94:
 763              	.LBB95:
 764              		.loc 2 135 0
 765 0006 274B     		ldr	r3, .L57
 766 0008 9B69     		ldr	r3, [r3, #24]
 767 000a 274A     		ldr	r2, .L57+4
 768 000c 9A61     		str	r2, [r3, #24]
 769              	.LVL87:
 770              	.LBE95:
 771              	.LBE94:
 772              	.LBB96:
 773              	.LBB97:
 774              	.LBB98:
 775              		.file 5 "ChibiOS_3.0.2/os/rt/include/chevents.h"
 776              		.loc 5 193 0
 777 000e 4FF0FF33 		mov	r3, #-1
 778 0012 0122     		movs	r2, #1
 779 0014 05A9     		add	r1, sp, #20
 780              	.LVL88:
 781 0016 2548     		ldr	r0, .L57+8
 782              	.LVL89:
 783 0018 FFF7FEFF 		bl	chEvtRegisterMaskWithFlags
 784              	.LVL90:
 785              	.LBE98:
 786              	.LBE97:
 787              	.LBE96:
 788              	.LBB99:
 789              	.LBB100:
 790              	.LBB101:
 791              	.LBB102:
 792              		.file 6 "ChibiOS_3.0.2/os/rt/include/chthreads.h"
 793              		.loc 6 176 0
 794 001c DFF88490 		ldr	r9, .L57
 795              	.LBE102:
 796              	.LBE101:
 797              	.LBE100:
 798              	.LBE99:
ARM GAS  C:\Users\CHRIST~1\AppData\Local\Temp\cc1zlP7j.s 			page 15


 799              	.LBB104:
 800              		.loc 1 132 0
 801 0020 234E     		ldr	r6, .L57+12
 802              	.L47:
 803              		.loc 1 125 0
 804 0022 6425     		movs	r5, #100
 805 0024 4FF0FF34 		mov	r4, #-1
 806              	.L48:
 807              	.LBE104:
 808              	.LBB105:
 809              	.LBB103:
 810              		.loc 6 233 0
 811 0028 D9F81830 		ldr	r3, [r9, #24]
 812              	.LBE103:
 813              	.LBE105:
 814              		.loc 1 124 0
 815 002c 5B7F     		ldrb	r3, [r3, #29]	@ zero_extendqisi2
 816 002e 13F0040F 		tst	r3, #4
 817 0032 30D1     		bne	.L56
 818              	.LBB106:
 819              		.loc 1 125 0
 820 0034 2946     		mov	r1, r5
 821 0036 2046     		mov	r0, r4
 822 0038 FFF7FEFF 		bl	chEvtWaitAnyTimeout
 823              	.LVL91:
 824 003c 0028     		cmp	r0, #0
 825 003e F3D0     		beq	.L48
 826              		.loc 1 129 0
 827 0040 0023     		movs	r3, #0
 828 0042 6A46     		mov	r2, sp
 829 0044 1946     		mov	r1, r3
 830 0046 1B48     		ldr	r0, .L57+16
 831 0048 FFF7FEFF 		bl	canReceive
 832              	.LVL92:
 833              		.loc 1 131 0
 834 004c 0028     		cmp	r0, #0
 835 004e E8D1     		bne	.L47
 836              		.loc 1 132 0
 837 0050 DFF86880 		ldr	r8, .L57+24
 838              		.loc 1 134 0
 839 0054 0027     		movs	r7, #0
 840              	.L51:
 841              	.LVL93:
 842              		.loc 1 132 0
 843 0056 3468     		ldr	r4, [r6]
 844 0058 04F1010C 		add	ip, r4, #1
 845 005c C6F800C0 		str	ip, [r6]
 846 0060 04EB8404 		add	r4, r4, r4, lsl #2
 847 0064 08EB8404 		add	r4, r8, r4, lsl #2
 848 0068 6D46     		mov	r5, sp
 849 006a 0FCD     		ldmia	r5!, {r0, r1, r2, r3}
 850 006c 0FC4     		stmia	r4!, {r0, r1, r2, r3}
 851 006e 2B68     		ldr	r3, [r5]
 852 0070 2360     		str	r3, [r4]
 853              		.loc 1 133 0
 854 0072 BCF1640F 		cmp	ip, #100
 855              		.loc 1 134 0
ARM GAS  C:\Users\CHRIST~1\AppData\Local\Temp\cc1zlP7j.s 			page 16


 856 0076 08BF     		it	eq
 857 0078 3760     		streq	r7, [r6]
 858              		.loc 1 137 0
 859 007a 0121     		movs	r1, #1
 860 007c 0E4B     		ldr	r3, .L57+20
 861 007e 1868     		ldr	r0, [r3]
 862 0080 FFF7FEFF 		bl	chEvtSignal
 863              	.LVL94:
 864              		.loc 1 139 0
 865 0084 3B46     		mov	r3, r7
 866 0086 6A46     		mov	r2, sp
 867 0088 3946     		mov	r1, r7
 868 008a 0A48     		ldr	r0, .L57+16
 869 008c FFF7FEFF 		bl	canReceive
 870              	.LVL95:
 871              		.loc 1 131 0
 872 0090 0028     		cmp	r0, #0
 873 0092 E0D0     		beq	.L51
 874 0094 C5E7     		b	.L47
 875              	.LVL96:
 876              	.L56:
 877              	.LBE106:
 878              		.loc 1 143 0
 879 0096 05A9     		add	r1, sp, #20
 880              	.LVL97:
 881 0098 0448     		ldr	r0, .L57+8
 882              	.LVL98:
 883 009a FFF7FEFF 		bl	chEvtUnregister
 884              	.LVL99:
 885              		.loc 1 144 0
 886 009e 0BB0     		add	sp, sp, #44
 887              		.cfi_def_cfa_offset 28
 888              		@ sp needed
 889 00a0 BDE8F083 		pop	{r4, r5, r6, r7, r8, r9, pc}
 890              	.LVL100:
 891              	.L58:
 892              		.align	2
 893              	.L57:
 894 00a4 00000000 		.word	ch
 895 00a8 00000000 		.word	.LC2
 896 00ac 18000000 		.word	CAND1+24
 897 00b0 00000000 		.word	.LANCHOR2
 898 00b4 00000000 		.word	CAND1
 899 00b8 00000000 		.word	.LANCHOR0
 900 00bc 00000000 		.word	.LANCHOR3
 901              		.cfi_endproc
 902              	.LFE258:
 903              		.size	cancom_read_thread, .-cancom_read_thread
 904              		.section	.text.comm_can_init,"ax",%progbits
 905              		.align	1
 906              		.p2align 4,,15
 907              		.global	comm_can_init
 908              		.syntax unified
 909              		.thumb
 910              		.thumb_func
 911              		.fpu fpv4-sp-d16
 912              		.type	comm_can_init, %function
ARM GAS  C:\Users\CHRIST~1\AppData\Local\Temp\cc1zlP7j.s 			page 17


 913              	comm_can_init:
 914              	.LFB256:
 915              		.loc 1 76 0
 916              		.cfi_startproc
 917              		@ args = 0, pretend = 0, frame = 0
 918              		@ frame_needed = 0, uses_anonymous_args = 0
 919 0000 30B5     		push	{r4, r5, lr}
 920              		.cfi_def_cfa_offset 12
 921              		.cfi_offset 4, -12
 922              		.cfi_offset 5, -8
 923              		.cfi_offset 14, -4
 924 0002 83B0     		sub	sp, sp, #12
 925              		.cfi_def_cfa_offset 24
 926              	.LVL101:
 927 0004 1E4B     		ldr	r3, .L63
 928 0006 03F1C801 		add	r1, r3, #200
 929              	.LBB107:
 930              		.loc 1 78 0
 931 000a 4FF0FF32 		mov	r2, #-1
 932              	.LVL102:
 933              	.L60:
 934              		.loc 1 78 0 is_stmt 0 discriminator 3
 935 000e 43F8142B 		str	r2, [r3], #20
 936              		.loc 1 77 0 is_stmt 1 discriminator 3
 937 0012 8B42     		cmp	r3, r1
 938 0014 FBD1     		bne	.L60
 939              	.LBE107:
 940              		.loc 1 81 0
 941 0016 0024     		movs	r4, #0
 942 0018 1A4B     		ldr	r3, .L63+4
 943 001a 1C60     		str	r4, [r3]
 944              		.loc 1 82 0
 945 001c 1A4B     		ldr	r3, .L63+8
 946 001e 1C60     		str	r4, [r3]
 947              		.loc 1 84 0
 948 0020 1A48     		ldr	r0, .L63+12
 949 0022 FFF7FEFF 		bl	chMtxObjectInit
 950              	.LVL103:
 951              		.loc 1 86 0
 952 0026 1A4D     		ldr	r5, .L63+16
 953 0028 40F28A42 		movw	r2, #1162
 954 002c 4FF48071 		mov	r1, #256
 955 0030 2846     		mov	r0, r5
 956 0032 FFF7FEFF 		bl	_pal_lld_setgroupmode
 957              	.LVL104:
 958              		.loc 1 90 0
 959 0036 40F28A42 		movw	r2, #1162
 960 003a 4FF40071 		mov	r1, #512
 961 003e 2846     		mov	r0, r5
 962 0040 FFF7FEFF 		bl	_pal_lld_setgroupmode
 963              	.LVL105:
 964              		.loc 1 95 0
 965 0044 1349     		ldr	r1, .L63+20
 966 0046 1448     		ldr	r0, .L63+24
 967 0048 FFF7FEFF 		bl	canStart
 968              	.LVL106:
 969              		.loc 1 97 0
ARM GAS  C:\Users\CHRIST~1\AppData\Local\Temp\cc1zlP7j.s 			page 18


 970 004c 0094     		str	r4, [sp]
 971 004e 134B     		ldr	r3, .L63+28
 972 0050 4122     		movs	r2, #65
 973 0052 4FF46671 		mov	r1, #920
 974 0056 1248     		ldr	r0, .L63+32
 975 0058 FFF7FEFF 		bl	chThdCreateStatic
 976              	.LVL107:
 977              		.loc 1 99 0
 978 005c 0094     		str	r4, [sp]
 979 005e 114B     		ldr	r3, .L63+36
 980 0060 4022     		movs	r2, #64
 981 0062 4FF4B361 		mov	r1, #1432
 982 0066 1048     		ldr	r0, .L63+40
 983 0068 FFF7FEFF 		bl	chThdCreateStatic
 984              	.LVL108:
 985              		.loc 1 101 0
 986 006c 0094     		str	r4, [sp]
 987 006e 0F4B     		ldr	r3, .L63+44
 988 0070 4022     		movs	r2, #64
 989 0072 41F29811 		movw	r1, #4504
 990 0076 0E48     		ldr	r0, .L63+48
 991 0078 FFF7FEFF 		bl	chThdCreateStatic
 992              	.LVL109:
 993              		.loc 1 103 0
 994 007c 03B0     		add	sp, sp, #12
 995              		.cfi_def_cfa_offset 12
 996              		@ sp needed
 997 007e 30BD     		pop	{r4, r5, pc}
 998              	.L64:
 999              		.align	2
 1000              	.L63:
 1001 0080 00000000 		.word	.LANCHOR6
 1002 0084 00000000 		.word	.LANCHOR1
 1003 0088 00000000 		.word	.LANCHOR2
 1004 008c 00000000 		.word	.LANCHOR8
 1005 0090 00040240 		.word	1073873920
 1006 0094 00000000 		.word	.LANCHOR9
 1007 0098 00000000 		.word	CAND1
 1008 009c 00000000 		.word	cancom_read_thread
 1009 00a0 00000000 		.word	.LANCHOR10
 1010 00a4 00000000 		.word	cancom_status_thread
 1011 00a8 00000000 		.word	.LANCHOR11
 1012 00ac 00000000 		.word	cancom_process_thread
 1013 00b0 00000000 		.word	cancom_process_thread_wa
 1014              		.cfi_endproc
 1015              	.LFE256:
 1016              		.size	comm_can_init, .-comm_can_init
 1017              		.section	.text.comm_can_set_baud,"ax",%progbits
 1018              		.align	1
 1019              		.p2align 4,,15
 1020              		.global	comm_can_set_baud
 1021              		.syntax unified
 1022              		.thumb
 1023              		.thumb_func
 1024              		.fpu fpv4-sp-d16
 1025              		.type	comm_can_set_baud, %function
 1026              	comm_can_set_baud:
ARM GAS  C:\Users\CHRIST~1\AppData\Local\Temp\cc1zlP7j.s 			page 19


 1027              	.LFB257:
 1028              		.loc 1 105 0
 1029              		.cfi_startproc
 1030              		@ args = 0, pretend = 0, frame = 0
 1031              		@ frame_needed = 0, uses_anonymous_args = 0
 1032              	.LVL110:
 1033 0000 38B5     		push	{r3, r4, r5, lr}
 1034              		.cfi_def_cfa_offset 16
 1035              		.cfi_offset 3, -16
 1036              		.cfi_offset 4, -12
 1037              		.cfi_offset 5, -8
 1038              		.cfi_offset 14, -4
 1039              		.loc 1 106 0
 1040 0002 0328     		cmp	r0, #3
 1041 0004 0ED8     		bhi	.L65
 1042 0006 DFE800F0 		tbb	[pc, r0]
 1043              	.L68:
 1044 000a 02       		.byte	(.L67-.L68)/2
 1045 000b 0E       		.byte	(.L69-.L68)/2
 1046 000c 1A       		.byte	(.L70-.L68)/2
 1047 000d 26       		.byte	(.L71-.L68)/2
 1048              		.p2align 1
 1049              	.L67:
 1050              	.LVL111:
 1051              	.LBB116:
 1052              	.LBB117:
 1053              		.loc 1 587 0
 1054 000e 184D     		ldr	r5, .L73
 1055 0010 184B     		ldr	r3, .L73+4
 1056 0012 6B60     		str	r3, [r5, #4]
 1057              		.loc 1 590 0
 1058 0014 184C     		ldr	r4, .L73+8
 1059 0016 2046     		mov	r0, r4
 1060              	.LVL112:
 1061 0018 FFF7FEFF 		bl	canStop
 1062              	.LVL113:
 1063              		.loc 1 591 0
 1064 001c 2946     		mov	r1, r5
 1065 001e 2046     		mov	r0, r4
 1066 0020 FFF7FEFF 		bl	canStart
 1067              	.LVL114:
 1068              	.L65:
 1069              	.LBE117:
 1070              	.LBE116:
 1071              		.loc 1 113 0
 1072 0024 38BD     		pop	{r3, r4, r5, pc}
 1073              	.LVL115:
 1074              	.L69:
 1075              	.LBB118:
 1076              	.LBB119:
 1077              		.loc 1 587 0
 1078 0026 124D     		ldr	r5, .L73
 1079 0028 144B     		ldr	r3, .L73+12
 1080 002a 6B60     		str	r3, [r5, #4]
 1081              		.loc 1 590 0
 1082 002c 124C     		ldr	r4, .L73+8
 1083 002e 2046     		mov	r0, r4
ARM GAS  C:\Users\CHRIST~1\AppData\Local\Temp\cc1zlP7j.s 			page 20


 1084              	.LVL116:
 1085 0030 FFF7FEFF 		bl	canStop
 1086              	.LVL117:
 1087              		.loc 1 591 0
 1088 0034 2946     		mov	r1, r5
 1089 0036 2046     		mov	r0, r4
 1090 0038 FFF7FEFF 		bl	canStart
 1091              	.LVL118:
 1092 003c F2E7     		b	.L65
 1093              	.LVL119:
 1094              	.L70:
 1095              	.LBE119:
 1096              	.LBE118:
 1097              	.LBB120:
 1098              	.LBB121:
 1099              		.loc 1 587 0
 1100 003e 0C4D     		ldr	r5, .L73
 1101 0040 0F4B     		ldr	r3, .L73+16
 1102 0042 6B60     		str	r3, [r5, #4]
 1103              		.loc 1 590 0
 1104 0044 0C4C     		ldr	r4, .L73+8
 1105 0046 2046     		mov	r0, r4
 1106              	.LVL120:
 1107 0048 FFF7FEFF 		bl	canStop
 1108              	.LVL121:
 1109              		.loc 1 591 0
 1110 004c 2946     		mov	r1, r5
 1111 004e 2046     		mov	r0, r4
 1112 0050 FFF7FEFF 		bl	canStart
 1113              	.LVL122:
 1114 0054 E6E7     		b	.L65
 1115              	.LVL123:
 1116              	.L71:
 1117              	.LBE121:
 1118              	.LBE120:
 1119              	.LBB122:
 1120              	.LBB123:
 1121              		.loc 1 587 0
 1122 0056 064D     		ldr	r5, .L73
 1123 0058 0A4B     		ldr	r3, .L73+20
 1124 005a 6B60     		str	r3, [r5, #4]
 1125              		.loc 1 590 0
 1126 005c 064C     		ldr	r4, .L73+8
 1127 005e 2046     		mov	r0, r4
 1128              	.LVL124:
 1129 0060 FFF7FEFF 		bl	canStop
 1130              	.LVL125:
 1131              		.loc 1 591 0
 1132 0064 2946     		mov	r1, r5
 1133 0066 2046     		mov	r0, r4
 1134 0068 FFF7FEFF 		bl	canStart
 1135              	.LVL126:
 1136              	.LBE123:
 1137              	.LBE122:
 1138              		.loc 1 113 0
 1139 006c DAE7     		b	.L65
 1140              	.L74:
ARM GAS  C:\Users\CHRIST~1\AppData\Local\Temp\cc1zlP7j.s 			page 21


 1141 006e 00BF     		.align	2
 1142              	.L73:
 1143 0070 00000000 		.word	.LANCHOR9
 1144 0074 0F004E03 		.word	55443471
 1145 0078 00000000 		.word	CAND1
 1146 007c 07004E03 		.word	55443463
 1147 0080 05002903 		.word	53018629
 1148 0084 02002903 		.word	53018626
 1149              		.cfi_endproc
 1150              	.LFE257:
 1151              		.size	comm_can_set_baud, .-comm_can_set_baud
 1152              		.section	.text.comm_can_transmit_eid,"ax",%progbits
 1153              		.align	1
 1154              		.p2align 4,,15
 1155              		.global	comm_can_transmit_eid
 1156              		.syntax unified
 1157              		.thumb
 1158              		.thumb_func
 1159              		.fpu fpv4-sp-d16
 1160              		.type	comm_can_transmit_eid, %function
 1161              	comm_can_transmit_eid:
 1162              	.LFB261:
 1163              		.loc 1 328 0
 1164              		.cfi_startproc
 1165              		@ args = 0, pretend = 0, frame = 0
 1166              		@ frame_needed = 0, uses_anonymous_args = 0
 1167              		@ link register save eliminated.
 1168              	.LVL127:
 1169              		.loc 1 350 0
 1170 0000 7047     		bx	lr
 1171              		.cfi_endproc
 1172              	.LFE261:
 1173              		.size	comm_can_transmit_eid, .-comm_can_transmit_eid
 1174 0002 00BF     		.section	.text.comm_can_transmit_sid,"ax",%progbits
 1175              		.align	1
 1176              		.p2align 4,,15
 1177              		.global	comm_can_transmit_sid
 1178              		.syntax unified
 1179              		.thumb
 1180              		.thumb_func
 1181              		.fpu fpv4-sp-d16
 1182              		.type	comm_can_transmit_sid, %function
 1183              	comm_can_transmit_sid:
 1184              	.LFB262:
 1185              		.loc 1 352 0
 1186              		.cfi_startproc
 1187              		@ args = 0, pretend = 0, frame = 0
 1188              		@ frame_needed = 0, uses_anonymous_args = 0
 1189              		@ link register save eliminated.
 1190              	.LVL128:
 1191              		.loc 1 374 0
 1192 0000 7047     		bx	lr
 1193              		.cfi_endproc
 1194              	.LFE262:
 1195              		.size	comm_can_transmit_sid, .-comm_can_transmit_sid
 1196 0002 00BF     		.section	.text.comm_can_set_sid_rx_callback,"ax",%progbits
 1197              		.align	1
ARM GAS  C:\Users\CHRIST~1\AppData\Local\Temp\cc1zlP7j.s 			page 22


 1198              		.p2align 4,,15
 1199              		.global	comm_can_set_sid_rx_callback
 1200              		.syntax unified
 1201              		.thumb
 1202              		.thumb_func
 1203              		.fpu fpv4-sp-d16
 1204              		.type	comm_can_set_sid_rx_callback, %function
 1205              	comm_can_set_sid_rx_callback:
 1206              	.LFB263:
 1207              		.loc 1 382 0
 1208              		.cfi_startproc
 1209              		@ args = 0, pretend = 0, frame = 0
 1210              		@ frame_needed = 0, uses_anonymous_args = 0
 1211              		@ link register save eliminated.
 1212              	.LVL129:
 1213              		.loc 1 383 0
 1214 0000 014B     		ldr	r3, .L78
 1215 0002 1860     		str	r0, [r3]
 1216              		.loc 1 384 0
 1217 0004 7047     		bx	lr
 1218              	.L79:
 1219 0006 00BF     		.align	2
 1220              	.L78:
 1221 0008 00000000 		.word	.LANCHOR7
 1222              		.cfi_endproc
 1223              	.LFE263:
 1224              		.size	comm_can_set_sid_rx_callback, .-comm_can_set_sid_rx_callback
 1225              		.section	.text.comm_can_send_buffer,"ax",%progbits
 1226              		.align	1
 1227              		.p2align 4,,15
 1228              		.global	comm_can_send_buffer
 1229              		.syntax unified
 1230              		.thumb
 1231              		.thumb_func
 1232              		.fpu fpv4-sp-d16
 1233              		.type	comm_can_send_buffer, %function
 1234              	comm_can_send_buffer:
 1235              	.LFB264:
 1236              		.loc 1 404 0
 1237              		.cfi_startproc
 1238              		@ args = 0, pretend = 0, frame = 8
 1239              		@ frame_needed = 0, uses_anonymous_args = 0
 1240              	.LVL130:
 1241 0000 2DE9F041 		push	{r4, r5, r6, r7, r8, lr}
 1242              		.cfi_def_cfa_offset 24
 1243              		.cfi_offset 4, -24
 1244              		.cfi_offset 5, -20
 1245              		.cfi_offset 6, -16
 1246              		.cfi_offset 7, -12
 1247              		.cfi_offset 8, -8
 1248              		.cfi_offset 14, -4
 1249 0004 82B0     		sub	sp, sp, #8
 1250              		.cfi_def_cfa_offset 32
 1251              		.loc 1 407 0
 1252 0006 062A     		cmp	r2, #6
 1253 0008 20D9     		bls	.L81
 1254 000a 0E46     		mov	r6, r1
ARM GAS  C:\Users\CHRIST~1\AppData\Local\Temp\cc1zlP7j.s 			page 23


 1255 000c 1546     		mov	r5, r2
 1256              	.LVL131:
 1257              	.LBB124:
 1258              	.LBB125:
 1259              		.loc 1 417 0
 1260 000e 002A     		cmp	r2, #0
 1261 0010 43D0     		beq	.L91
 1262              	.LBE125:
 1263              		.loc 1 416 0
 1264 0012 0021     		movs	r1, #0
 1265              	.LVL132:
 1266              	.LBB129:
 1267              	.LBB126:
 1268              		.loc 1 418 0
 1269 0014 40F20317 		movw	r7, #259
 1270              	.LVL133:
 1271              	.L82:
 1272              		.loc 1 422 0
 1273 0018 CC1D     		adds	r4, r1, #7
 1274              	.LVL134:
 1275 001a E3B2     		uxtb	r3, r4
 1276              		.loc 1 425 0
 1277 001c DA1F     		subs	r2, r3, #7
 1278 001e 8DF80020 		strb	r2, [sp]
 1279              		.loc 1 427 0
 1280 0022 A542     		cmp	r5, r4
 1281 0024 15D3     		bcc	.L86
 1282              		.loc 1 428 0
 1283 0026 3144     		add	r1, r1, r6
 1284              	.LVL135:
 1285 0028 0B68     		ldr	r3, [r1]	@ unaligned
 1286 002a CDF80130 		str	r3, [sp, #1]	@ unaligned
 1287 002e 8A88     		ldrh	r2, [r1, #4]	@ unaligned
 1288 0030 8B79     		ldrb	r3, [r1, #6]	@ zero_extendqisi2
 1289 0032 ADF80520 		strh	r2, [sp, #5]	@ unaligned
 1290 0036 8DF80730 		strb	r3, [sp, #7]
 1291              	.LVL136:
 1292              	.L87:
 1293              	.LBE126:
 1294              		.loc 1 417 0 discriminator 1
 1295 003a A542     		cmp	r5, r4
 1296 003c 2DD9     		bls	.L91
 1297              	.LBB127:
 1298              		.loc 1 422 0
 1299 003e 2146     		mov	r1, r4
 1300              		.loc 1 418 0
 1301 0040 BC42     		cmp	r4, r7
 1302 0042 E9D1     		bne	.L82
 1303              	.LVL137:
 1304              	.LBE127:
 1305              	.LBE129:
 1306              	.LBB130:
 1307              	.LBB131:
 1308              		.loc 1 447 0
 1309 0044 05F10608 		add	r8, r5, #6
 1310 0048 B71F     		subs	r7, r6, #6
 1311 004a 16E0     		b	.L85
ARM GAS  C:\Users\CHRIST~1\AppData\Local\Temp\cc1zlP7j.s 			page 24


 1312              	.LVL138:
 1313              	.L81:
 1314              	.LBE131:
 1315              	.LBE130:
 1316              	.LBE124:
 1317              	.LBB136:
 1318              		.loc 1 409 0
 1319 004c FFF7FEFF 		bl	app_get_configuration
 1320              	.LVL139:
 1321              	.LBE136:
 1322 0050 29E0     		b	.L80
 1323              	.LVL140:
 1324              	.L86:
 1325              	.LBB137:
 1326              	.LBB134:
 1327              	.LBB128:
 1328              		.loc 1 431 0
 1329 0052 C3F10703 		rsb	r3, r3, #7
 1330              	.LVL141:
 1331 0056 5A19     		adds	r2, r3, r5
 1332 0058 D2B2     		uxtb	r2, r2
 1333 005a 3144     		add	r1, r1, r6
 1334              	.LVL142:
 1335 005c 0DF10100 		add	r0, sp, #1
 1336 0060 FFF7FEFF 		bl	memcpy
 1337              	.LVL143:
 1338 0064 E9E7     		b	.L87
 1339              	.LVL144:
 1340              	.L89:
 1341              	.LBE128:
 1342              	.LBE134:
 1343              	.LBB135:
 1344              	.LBB132:
 1345              		.loc 1 447 0
 1346 0066 A8EB0402 		sub	r2, r8, r4
 1347 006a D2B2     		uxtb	r2, r2
 1348 006c 3919     		adds	r1, r7, r4
 1349 006e 0DF10200 		add	r0, sp, #2
 1350 0072 FFF7FEFF 		bl	memcpy
 1351              	.LVL145:
 1352              	.L90:
 1353              	.LBE132:
 1354              		.loc 1 438 0 discriminator 1
 1355 0076 AC42     		cmp	r4, r5
 1356 0078 0FD2     		bcs	.L91
 1357              	.LVL146:
 1358              	.L85:
 1359              	.LBB133:
 1360              		.loc 1 440 0
 1361 007a 230A     		lsrs	r3, r4, #8
 1362 007c 8DF80030 		strb	r3, [sp]
 1363              		.loc 1 441 0
 1364 0080 8DF80140 		strb	r4, [sp, #1]
 1365              		.loc 1 443 0
 1366 0084 0634     		adds	r4, r4, #6
 1367              	.LVL147:
 1368 0086 AC42     		cmp	r4, r5
ARM GAS  C:\Users\CHRIST~1\AppData\Local\Temp\cc1zlP7j.s 			page 25


 1369 0088 EDD8     		bhi	.L89
 1370              	.LVL148:
 1371              		.loc 1 444 0
 1372 008a 3B19     		adds	r3, r7, r4
 1373 008c 1A68     		ldr	r2, [r3]	@ unaligned
 1374 008e CDF80220 		str	r2, [sp, #2]	@ unaligned
 1375 0092 9B88     		ldrh	r3, [r3, #4]	@ unaligned
 1376 0094 ADF80630 		strh	r3, [sp, #6]	@ unaligned
 1377 0098 EDE7     		b	.L90
 1378              	.LVL149:
 1379              	.L91:
 1380              	.LBE133:
 1381              	.LBE135:
 1382              		.loc 1 455 0
 1383 009a FFF7FEFF 		bl	app_get_configuration
 1384              	.LVL150:
 1385              		.loc 1 459 0
 1386 009e 2946     		mov	r1, r5
 1387 00a0 3046     		mov	r0, r6
 1388 00a2 FFF7FEFF 		bl	crc16
 1389              	.LVL151:
 1390              	.L80:
 1391              	.LBE137:
 1392              		.loc 1 466 0
 1393 00a6 02B0     		add	sp, sp, #8
 1394              		.cfi_def_cfa_offset 24
 1395              		@ sp needed
 1396 00a8 BDE8F081 		pop	{r4, r5, r6, r7, r8, pc}
 1397              		.cfi_endproc
 1398              	.LFE264:
 1399              		.size	comm_can_send_buffer, .-comm_can_send_buffer
 1400              		.section	.text.send_packet_wrapper,"ax",%progbits
 1401              		.align	1
 1402              		.p2align 4,,15
 1403              		.syntax unified
 1404              		.thumb
 1405              		.thumb_func
 1406              		.fpu fpv4-sp-d16
 1407              		.type	send_packet_wrapper, %function
 1408              	send_packet_wrapper:
 1409              	.LFB274:
 1410              		.loc 1 578 0
 1411              		.cfi_startproc
 1412              		@ args = 0, pretend = 0, frame = 0
 1413              		@ frame_needed = 0, uses_anonymous_args = 0
 1414              	.LVL152:
 1415 0000 08B5     		push	{r3, lr}
 1416              		.cfi_def_cfa_offset 8
 1417              		.cfi_offset 3, -8
 1418              		.cfi_offset 14, -4
 1419              		.loc 1 579 0
 1420 0002 0123     		movs	r3, #1
 1421 0004 0A46     		mov	r2, r1
 1422 0006 0146     		mov	r1, r0
 1423              	.LVL153:
 1424 0008 0248     		ldr	r0, .L98
 1425              	.LVL154:
ARM GAS  C:\Users\CHRIST~1\AppData\Local\Temp\cc1zlP7j.s 			page 26


 1426 000a 0078     		ldrb	r0, [r0]	@ zero_extendqisi2
 1427 000c FFF7FEFF 		bl	comm_can_send_buffer
 1428              	.LVL155:
 1429              		.loc 1 580 0
 1430 0010 08BD     		pop	{r3, pc}
 1431              	.L99:
 1432 0012 00BF     		.align	2
 1433              	.L98:
 1434 0014 00000000 		.word	.LANCHOR5
 1435              		.cfi_endproc
 1436              	.LFE274:
 1437              		.size	send_packet_wrapper, .-send_packet_wrapper
 1438              		.section	.text.comm_can_set_duty,"ax",%progbits
 1439              		.align	1
 1440              		.p2align 4,,15
 1441              		.global	comm_can_set_duty
 1442              		.syntax unified
 1443              		.thumb
 1444              		.thumb_func
 1445              		.fpu fpv4-sp-d16
 1446              		.type	comm_can_set_duty, %function
 1447              	comm_can_set_duty:
 1448              	.LFB265:
 1449              		.loc 1 468 0
 1450              		.cfi_startproc
 1451              		@ args = 0, pretend = 0, frame = 8
 1452              		@ frame_needed = 0, uses_anonymous_args = 0
 1453              	.LVL156:
 1454 0000 00B5     		push	{lr}
 1455              		.cfi_def_cfa_offset 4
 1456              		.cfi_offset 14, -4
 1457 0002 83B0     		sub	sp, sp, #12
 1458              		.cfi_def_cfa_offset 16
 1459              		.loc 1 469 0
 1460 0004 02AA     		add	r2, sp, #8
 1461 0006 0023     		movs	r3, #0
 1462 0008 42F8043D 		str	r3, [r2, #-4]!
 1463              		.loc 1 471 0
 1464 000c DFED067A 		vldr.32	s15, .L102
 1465 0010 20EE270A 		vmul.f32	s0, s0, s15
 1466              	.LVL157:
 1467 0014 FDEEC07A 		vcvt.s32.f32	s15, s0
 1468 0018 17EE901A 		vmov	r1, s15	@ int
 1469 001c 6846     		mov	r0, sp
 1470              	.LVL158:
 1471 001e FFF7FEFF 		bl	buffer_append_int32
 1472              	.LVL159:
 1473              		.loc 1 474 0
 1474 0022 03B0     		add	sp, sp, #12
 1475              		.cfi_def_cfa_offset 4
 1476              		@ sp needed
 1477 0024 5DF804FB 		ldr	pc, [sp], #4
 1478              	.L103:
 1479              		.align	2
 1480              	.L102:
 1481 0028 0050C347 		.word	1203982336
 1482              		.cfi_endproc
ARM GAS  C:\Users\CHRIST~1\AppData\Local\Temp\cc1zlP7j.s 			page 27


 1483              	.LFE265:
 1484              		.size	comm_can_set_duty, .-comm_can_set_duty
 1485              		.section	.text.comm_can_set_current,"ax",%progbits
 1486              		.align	1
 1487              		.p2align 4,,15
 1488              		.global	comm_can_set_current
 1489              		.syntax unified
 1490              		.thumb
 1491              		.thumb_func
 1492              		.fpu fpv4-sp-d16
 1493              		.type	comm_can_set_current, %function
 1494              	comm_can_set_current:
 1495              	.LFB266:
 1496              		.loc 1 476 0
 1497              		.cfi_startproc
 1498              		@ args = 0, pretend = 0, frame = 8
 1499              		@ frame_needed = 0, uses_anonymous_args = 0
 1500              	.LVL160:
 1501 0000 00B5     		push	{lr}
 1502              		.cfi_def_cfa_offset 4
 1503              		.cfi_offset 14, -4
 1504 0002 83B0     		sub	sp, sp, #12
 1505              		.cfi_def_cfa_offset 16
 1506              		.loc 1 477 0
 1507 0004 02AA     		add	r2, sp, #8
 1508 0006 0023     		movs	r3, #0
 1509 0008 42F8043D 		str	r3, [r2, #-4]!
 1510              		.loc 1 479 0
 1511 000c DFED067A 		vldr.32	s15, .L106
 1512 0010 20EE270A 		vmul.f32	s0, s0, s15
 1513              	.LVL161:
 1514 0014 FDEEC07A 		vcvt.s32.f32	s15, s0
 1515 0018 17EE901A 		vmov	r1, s15	@ int
 1516 001c 6846     		mov	r0, sp
 1517              	.LVL162:
 1518 001e FFF7FEFF 		bl	buffer_append_int32
 1519              	.LVL163:
 1520              		.loc 1 482 0
 1521 0022 03B0     		add	sp, sp, #12
 1522              		.cfi_def_cfa_offset 4
 1523              		@ sp needed
 1524 0024 5DF804FB 		ldr	pc, [sp], #4
 1525              	.L107:
 1526              		.align	2
 1527              	.L106:
 1528 0028 00007A44 		.word	1148846080
 1529              		.cfi_endproc
 1530              	.LFE266:
 1531              		.size	comm_can_set_current, .-comm_can_set_current
 1532              		.section	.text.comm_can_set_current_brake,"ax",%progbits
 1533              		.align	1
 1534              		.p2align 4,,15
 1535              		.global	comm_can_set_current_brake
 1536              		.syntax unified
 1537              		.thumb
 1538              		.thumb_func
 1539              		.fpu fpv4-sp-d16
ARM GAS  C:\Users\CHRIST~1\AppData\Local\Temp\cc1zlP7j.s 			page 28


 1540              		.type	comm_can_set_current_brake, %function
 1541              	comm_can_set_current_brake:
 1542              	.LFB267:
 1543              		.loc 1 484 0
 1544              		.cfi_startproc
 1545              		@ args = 0, pretend = 0, frame = 8
 1546              		@ frame_needed = 0, uses_anonymous_args = 0
 1547              	.LVL164:
 1548 0000 00B5     		push	{lr}
 1549              		.cfi_def_cfa_offset 4
 1550              		.cfi_offset 14, -4
 1551 0002 83B0     		sub	sp, sp, #12
 1552              		.cfi_def_cfa_offset 16
 1553              		.loc 1 485 0
 1554 0004 02AA     		add	r2, sp, #8
 1555 0006 0023     		movs	r3, #0
 1556 0008 42F8043D 		str	r3, [r2, #-4]!
 1557              		.loc 1 487 0
 1558 000c DFED067A 		vldr.32	s15, .L110
 1559 0010 20EE270A 		vmul.f32	s0, s0, s15
 1560              	.LVL165:
 1561 0014 FDEEC07A 		vcvt.s32.f32	s15, s0
 1562 0018 17EE901A 		vmov	r1, s15	@ int
 1563 001c 6846     		mov	r0, sp
 1564              	.LVL166:
 1565 001e FFF7FEFF 		bl	buffer_append_int32
 1566              	.LVL167:
 1567              		.loc 1 490 0
 1568 0022 03B0     		add	sp, sp, #12
 1569              		.cfi_def_cfa_offset 4
 1570              		@ sp needed
 1571 0024 5DF804FB 		ldr	pc, [sp], #4
 1572              	.L111:
 1573              		.align	2
 1574              	.L110:
 1575 0028 00007A44 		.word	1148846080
 1576              		.cfi_endproc
 1577              	.LFE267:
 1578              		.size	comm_can_set_current_brake, .-comm_can_set_current_brake
 1579              		.section	.text.comm_can_set_rpm,"ax",%progbits
 1580              		.align	1
 1581              		.p2align 4,,15
 1582              		.global	comm_can_set_rpm
 1583              		.syntax unified
 1584              		.thumb
 1585              		.thumb_func
 1586              		.fpu fpv4-sp-d16
 1587              		.type	comm_can_set_rpm, %function
 1588              	comm_can_set_rpm:
 1589              	.LFB268:
 1590              		.loc 1 492 0
 1591              		.cfi_startproc
 1592              		@ args = 0, pretend = 0, frame = 8
 1593              		@ frame_needed = 0, uses_anonymous_args = 0
 1594              	.LVL168:
 1595 0000 00B5     		push	{lr}
 1596              		.cfi_def_cfa_offset 4
ARM GAS  C:\Users\CHRIST~1\AppData\Local\Temp\cc1zlP7j.s 			page 29


 1597              		.cfi_offset 14, -4
 1598 0002 83B0     		sub	sp, sp, #12
 1599              		.cfi_def_cfa_offset 16
 1600              		.loc 1 493 0
 1601 0004 02AA     		add	r2, sp, #8
 1602 0006 0023     		movs	r3, #0
 1603 0008 42F8043D 		str	r3, [r2, #-4]!
 1604              		.loc 1 495 0
 1605 000c FDEEC07A 		vcvt.s32.f32	s15, s0
 1606 0010 17EE901A 		vmov	r1, s15	@ int
 1607 0014 6846     		mov	r0, sp
 1608              	.LVL169:
 1609 0016 FFF7FEFF 		bl	buffer_append_int32
 1610              	.LVL170:
 1611              		.loc 1 498 0
 1612 001a 03B0     		add	sp, sp, #12
 1613              		.cfi_def_cfa_offset 4
 1614              		@ sp needed
 1615 001c 5DF804FB 		ldr	pc, [sp], #4
 1616              		.cfi_endproc
 1617              	.LFE268:
 1618              		.size	comm_can_set_rpm, .-comm_can_set_rpm
 1619              		.section	.text.comm_can_set_pos,"ax",%progbits
 1620              		.align	1
 1621              		.p2align 4,,15
 1622              		.global	comm_can_set_pos
 1623              		.syntax unified
 1624              		.thumb
 1625              		.thumb_func
 1626              		.fpu fpv4-sp-d16
 1627              		.type	comm_can_set_pos, %function
 1628              	comm_can_set_pos:
 1629              	.LFB269:
 1630              		.loc 1 500 0
 1631              		.cfi_startproc
 1632              		@ args = 0, pretend = 0, frame = 8
 1633              		@ frame_needed = 0, uses_anonymous_args = 0
 1634              	.LVL171:
 1635 0000 00B5     		push	{lr}
 1636              		.cfi_def_cfa_offset 4
 1637              		.cfi_offset 14, -4
 1638 0002 83B0     		sub	sp, sp, #12
 1639              		.cfi_def_cfa_offset 16
 1640              		.loc 1 501 0
 1641 0004 02AA     		add	r2, sp, #8
 1642 0006 0023     		movs	r3, #0
 1643 0008 42F8043D 		str	r3, [r2, #-4]!
 1644              		.loc 1 503 0
 1645 000c DFED067A 		vldr.32	s15, .L116
 1646 0010 20EE270A 		vmul.f32	s0, s0, s15
 1647              	.LVL172:
 1648 0014 FDEEC07A 		vcvt.s32.f32	s15, s0
 1649 0018 17EE901A 		vmov	r1, s15	@ int
 1650 001c 6846     		mov	r0, sp
 1651              	.LVL173:
 1652 001e FFF7FEFF 		bl	buffer_append_int32
 1653              	.LVL174:
ARM GAS  C:\Users\CHRIST~1\AppData\Local\Temp\cc1zlP7j.s 			page 30


 1654              		.loc 1 506 0
 1655 0022 03B0     		add	sp, sp, #12
 1656              		.cfi_def_cfa_offset 4
 1657              		@ sp needed
 1658 0024 5DF804FB 		ldr	pc, [sp], #4
 1659              	.L117:
 1660              		.align	2
 1661              	.L116:
 1662 0028 00247449 		.word	1232348160
 1663              		.cfi_endproc
 1664              	.LFE269:
 1665              		.size	comm_can_set_pos, .-comm_can_set_pos
 1666              		.section	.text.comm_can_set_current_rel,"ax",%progbits
 1667              		.align	1
 1668              		.p2align 4,,15
 1669              		.global	comm_can_set_current_rel
 1670              		.syntax unified
 1671              		.thumb
 1672              		.thumb_func
 1673              		.fpu fpv4-sp-d16
 1674              		.type	comm_can_set_current_rel, %function
 1675              	comm_can_set_current_rel:
 1676              	.LFB270:
 1677              		.loc 1 517 0
 1678              		.cfi_startproc
 1679              		@ args = 0, pretend = 0, frame = 8
 1680              		@ frame_needed = 0, uses_anonymous_args = 0
 1681              	.LVL175:
 1682 0000 00B5     		push	{lr}
 1683              		.cfi_def_cfa_offset 4
 1684              		.cfi_offset 14, -4
 1685 0002 83B0     		sub	sp, sp, #12
 1686              		.cfi_def_cfa_offset 16
 1687              		.loc 1 518 0
 1688 0004 02A9     		add	r1, sp, #8
 1689 0006 0023     		movs	r3, #0
 1690 0008 41F8043D 		str	r3, [r1, #-4]!
 1691              		.loc 1 520 0
 1692 000c DFED030A 		vldr.32	s1, .L120
 1693 0010 6846     		mov	r0, sp
 1694              	.LVL176:
 1695 0012 FFF7FEFF 		bl	buffer_append_float32
 1696              	.LVL177:
 1697              		.loc 1 523 0
 1698 0016 03B0     		add	sp, sp, #12
 1699              		.cfi_def_cfa_offset 4
 1700              		@ sp needed
 1701 0018 5DF804FB 		ldr	pc, [sp], #4
 1702              	.L121:
 1703              		.align	2
 1704              	.L120:
 1705 001c 0050C347 		.word	1203982336
 1706              		.cfi_endproc
 1707              	.LFE270:
 1708              		.size	comm_can_set_current_rel, .-comm_can_set_current_rel
 1709              		.section	.text.comm_can_set_current_brake_rel,"ax",%progbits
 1710              		.align	1
ARM GAS  C:\Users\CHRIST~1\AppData\Local\Temp\cc1zlP7j.s 			page 31


 1711              		.p2align 4,,15
 1712              		.global	comm_can_set_current_brake_rel
 1713              		.syntax unified
 1714              		.thumb
 1715              		.thumb_func
 1716              		.fpu fpv4-sp-d16
 1717              		.type	comm_can_set_current_brake_rel, %function
 1718              	comm_can_set_current_brake_rel:
 1719              	.LFB271:
 1720              		.loc 1 534 0
 1721              		.cfi_startproc
 1722              		@ args = 0, pretend = 0, frame = 8
 1723              		@ frame_needed = 0, uses_anonymous_args = 0
 1724              	.LVL178:
 1725 0000 00B5     		push	{lr}
 1726              		.cfi_def_cfa_offset 4
 1727              		.cfi_offset 14, -4
 1728 0002 83B0     		sub	sp, sp, #12
 1729              		.cfi_def_cfa_offset 16
 1730              		.loc 1 535 0
 1731 0004 02A9     		add	r1, sp, #8
 1732 0006 0023     		movs	r3, #0
 1733 0008 41F8043D 		str	r3, [r1, #-4]!
 1734              		.loc 1 537 0
 1735 000c DFED030A 		vldr.32	s1, .L124
 1736 0010 6846     		mov	r0, sp
 1737              	.LVL179:
 1738 0012 FFF7FEFF 		bl	buffer_append_float32
 1739              	.LVL180:
 1740              		.loc 1 540 0
 1741 0016 03B0     		add	sp, sp, #12
 1742              		.cfi_def_cfa_offset 4
 1743              		@ sp needed
 1744 0018 5DF804FB 		ldr	pc, [sp], #4
 1745              	.L125:
 1746              		.align	2
 1747              	.L124:
 1748 001c 0050C347 		.word	1203982336
 1749              		.cfi_endproc
 1750              	.LFE271:
 1751              		.size	comm_can_set_current_brake_rel, .-comm_can_set_current_brake_rel
 1752              		.section	.text.comm_can_get_status_msg_index,"ax",%progbits
 1753              		.align	1
 1754              		.p2align 4,,15
 1755              		.global	comm_can_get_status_msg_index
 1756              		.syntax unified
 1757              		.thumb
 1758              		.thumb_func
 1759              		.fpu fpv4-sp-d16
 1760              		.type	comm_can_get_status_msg_index, %function
 1761              	comm_can_get_status_msg_index:
 1762              	.LFB272:
 1763              		.loc 1 551 0
 1764              		.cfi_startproc
 1765              		@ args = 0, pretend = 0, frame = 0
 1766              		@ frame_needed = 0, uses_anonymous_args = 0
 1767              		@ link register save eliminated.
ARM GAS  C:\Users\CHRIST~1\AppData\Local\Temp\cc1zlP7j.s 			page 32


 1768              	.LVL181:
 1769              		.loc 1 552 0
 1770 0000 0928     		cmp	r0, #9
 1771              		.loc 1 553 0
 1772 0002 DDBF     		ittte	le
 1773 0004 00EB8000 		addle	r0, r0, r0, lsl #2
 1774              	.LVL182:
 1775 0008 024B     		ldrle	r3, .L129
 1776 000a 03EB8000 		addle	r0, r3, r0, lsl #2
 1777              		.loc 1 555 0
 1778 000e 0020     		movgt	r0, #0
 1779              		.loc 1 557 0
 1780 0010 7047     		bx	lr
 1781              	.L130:
 1782 0012 00BF     		.align	2
 1783              	.L129:
 1784 0014 00000000 		.word	.LANCHOR6
 1785              		.cfi_endproc
 1786              	.LFE272:
 1787              		.size	comm_can_get_status_msg_index, .-comm_can_get_status_msg_index
 1788              		.section	.text.comm_can_get_status_msg_id,"ax",%progbits
 1789              		.align	1
 1790              		.p2align 4,,15
 1791              		.global	comm_can_get_status_msg_id
 1792              		.syntax unified
 1793              		.thumb
 1794              		.thumb_func
 1795              		.fpu fpv4-sp-d16
 1796              		.type	comm_can_get_status_msg_id, %function
 1797              	comm_can_get_status_msg_id:
 1798              	.LFB273:
 1799              		.loc 1 568 0
 1800              		.cfi_startproc
 1801              		@ args = 0, pretend = 0, frame = 0
 1802              		@ frame_needed = 0, uses_anonymous_args = 0
 1803              		@ link register save eliminated.
 1804              	.LVL183:
 1805              	.LBB138:
 1806              		.loc 1 570 0
 1807 0000 0A4B     		ldr	r3, .L138
 1808 0002 1B68     		ldr	r3, [r3]
 1809 0004 9842     		cmp	r0, r3
 1810 0006 0AD0     		beq	.L136
 1811 0008 084A     		ldr	r2, .L138
 1812              		.loc 1 569 0
 1813 000a 0123     		movs	r3, #1
 1814              	.LVL184:
 1815              	.L135:
 1816              		.loc 1 570 0
 1817 000c 5169     		ldr	r1, [r2, #20]
 1818 000e 8142     		cmp	r1, r0
 1819 0010 06D0     		beq	.L132
 1820              		.loc 1 569 0 discriminator 2
 1821 0012 0133     		adds	r3, r3, #1
 1822              	.LVL185:
 1823 0014 1432     		adds	r2, r2, #20
 1824 0016 0A2B     		cmp	r3, #10
ARM GAS  C:\Users\CHRIST~1\AppData\Local\Temp\cc1zlP7j.s 			page 33


 1825 0018 F8D1     		bne	.L135
 1826              	.LBE138:
 1827              		.loc 1 575 0
 1828 001a 0020     		movs	r0, #0
 1829              	.LVL186:
 1830              		.loc 1 576 0
 1831 001c 7047     		bx	lr
 1832              	.LVL187:
 1833              	.L136:
 1834              	.LBB139:
 1835              		.loc 1 569 0
 1836 001e 0023     		movs	r3, #0
 1837              	.LVL188:
 1838              	.L132:
 1839              		.loc 1 571 0
 1840 0020 03EB8303 		add	r3, r3, r3, lsl #2
 1841 0024 0148     		ldr	r0, .L138
 1842              	.LVL189:
 1843 0026 00EB8300 		add	r0, r0, r3, lsl #2
 1844 002a 7047     		bx	lr
 1845              	.L139:
 1846              		.align	2
 1847              	.L138:
 1848 002c 00000000 		.word	.LANCHOR6
 1849              	.LBE139:
 1850              		.cfi_endproc
 1851              	.LFE273:
 1852              		.size	comm_can_get_status_msg_id, .-comm_can_get_status_msg_id
 1853              		.section	.bss.can_mtx,"aw",%nobits
 1854              		.align	2
 1855              		.set	.LANCHOR8,. + 0
 1856              		.type	can_mtx, %object
 1857              		.size	can_mtx, 16
 1858              	can_mtx:
 1859 0000 00000000 		.space	16
 1859      00000000 
 1859      00000000 
 1859      00000000 
 1860              		.section	.bss.cancom_process_thread_wa,"aw",%nobits
 1861              		.align	3
 1862              		.type	cancom_process_thread_wa, %object
 1863              		.size	cancom_process_thread_wa, 4504
 1864              	cancom_process_thread_wa:
 1865 0000 00000000 		.space	4504
 1865      00000000 
 1865      00000000 
 1865      00000000 
 1865      00000000 
 1866              		.section	.bss.cancom_read_thread_wa,"aw",%nobits
 1867              		.align	3
 1868              		.set	.LANCHOR10,. + 0
 1869              		.type	cancom_read_thread_wa, %object
 1870              		.size	cancom_read_thread_wa, 920
 1871              	cancom_read_thread_wa:
 1872 0000 00000000 		.space	920
 1872      00000000 
 1872      00000000 
ARM GAS  C:\Users\CHRIST~1\AppData\Local\Temp\cc1zlP7j.s 			page 34


 1872      00000000 
 1872      00000000 
 1873              		.section	.bss.cancom_status_thread_wa,"aw",%nobits
 1874              		.align	3
 1875              		.set	.LANCHOR11,. + 0
 1876              		.type	cancom_status_thread_wa, %object
 1877              		.size	cancom_status_thread_wa, 1432
 1878              	cancom_status_thread_wa:
 1879 0000 00000000 		.space	1432
 1879      00000000 
 1879      00000000 
 1879      00000000 
 1879      00000000 
 1880              		.section	.bss.process_tp,"aw",%nobits
 1881              		.align	2
 1882              		.set	.LANCHOR0,. + 0
 1883              		.type	process_tp, %object
 1884              		.size	process_tp, 4
 1885              	process_tp:
 1886 0000 00000000 		.space	4
 1887              		.section	.bss.rx_buffer,"aw",%nobits
 1888              		.align	2
 1889              		.set	.LANCHOR4,. + 0
 1890              		.type	rx_buffer, %object
 1891              		.size	rx_buffer, 1024
 1892              	rx_buffer:
 1893 0000 00000000 		.space	1024
 1893      00000000 
 1893      00000000 
 1893      00000000 
 1893      00000000 
 1894              		.section	.bss.rx_buffer_last_id,"aw",%nobits
 1895              		.align	2
 1896              		.set	.LANCHOR5,. + 0
 1897              		.type	rx_buffer_last_id, %object
 1898              		.size	rx_buffer_last_id, 4
 1899              	rx_buffer_last_id:
 1900 0000 00000000 		.space	4
 1901              		.section	.bss.rx_frame_read,"aw",%nobits
 1902              		.align	2
 1903              		.set	.LANCHOR1,. + 0
 1904              		.type	rx_frame_read, %object
 1905              		.size	rx_frame_read, 4
 1906              	rx_frame_read:
 1907 0000 00000000 		.space	4
 1908              		.section	.bss.rx_frame_write,"aw",%nobits
 1909              		.align	2
 1910              		.set	.LANCHOR2,. + 0
 1911              		.type	rx_frame_write, %object
 1912              		.size	rx_frame_write, 4
 1913              	rx_frame_write:
 1914 0000 00000000 		.space	4
 1915              		.section	.bss.rx_frames,"aw",%nobits
 1916              		.align	2
 1917              		.set	.LANCHOR3,. + 0
 1918              		.type	rx_frames, %object
 1919              		.size	rx_frames, 2000
ARM GAS  C:\Users\CHRIST~1\AppData\Local\Temp\cc1zlP7j.s 			page 35


 1920              	rx_frames:
 1921 0000 00000000 		.space	2000
 1921      00000000 
 1921      00000000 
 1921      00000000 
 1921      00000000 
 1922              		.section	.bss.sid_callback,"aw",%nobits
 1923              		.align	2
 1924              		.set	.LANCHOR7,. + 0
 1925              		.type	sid_callback, %object
 1926              		.size	sid_callback, 4
 1927              	sid_callback:
 1928 0000 00000000 		.space	4
 1929              		.section	.bss.stat_msgs,"aw",%nobits
 1930              		.align	2
 1931              		.set	.LANCHOR6,. + 0
 1932              		.type	stat_msgs, %object
 1933              		.size	stat_msgs, 200
 1934              	stat_msgs:
 1935 0000 00000000 		.space	200
 1935      00000000 
 1935      00000000 
 1935      00000000 
 1935      00000000 
 1936              		.section	.data.cancfg,"aw",%progbits
 1937              		.align	2
 1938              		.set	.LANCHOR9,. + 0
 1939              		.type	cancfg, %object
 1940              		.size	cancfg, 8
 1941              	cancfg:
 1942 0000 64000000 		.word	100
 1943 0004 05002903 		.word	53018629
 1944              		.section	.rodata.cancom_process_thread.str1.4,"aMS",%progbits,1
 1945              		.align	2
 1946              	.LC0:
 1947 0000 43616E63 		.ascii	"Cancom process\000"
 1947      6F6D2070 
 1947      726F6365 
 1947      737300
 1948              		.section	.rodata.cancom_read_thread.str1.4,"aMS",%progbits,1
 1949              		.align	2
 1950              	.LC2:
 1951 0000 43414E00 		.ascii	"CAN\000"
 1952              		.section	.rodata.cancom_status_thread.str1.4,"aMS",%progbits,1
 1953              		.align	2
 1954              	.LC1:
 1955 0000 43414E20 		.ascii	"CAN status\000"
 1955      73746174 
 1955      757300
 1956              		.text
 1957              	.Letext0:
 1958              		.file 7 "c:\\program files (x86)\\gnu tools arm embedded\\7 2017-q4-major\\lib\\gcc\\arm-none-eabi
 1959              		.file 8 "c:\\program files (x86)\\gnu tools arm embedded\\7 2017-q4-major\\arm-none-eabi\\include\
 1960              		.file 9 "c:\\program files (x86)\\gnu tools arm embedded\\7 2017-q4-major\\arm-none-eabi\\include\
 1961              		.file 10 "c:\\program files (x86)\\gnu tools arm embedded\\7 2017-q4-major\\arm-none-eabi\\include
 1962              		.file 11 "c:\\program files (x86)\\gnu tools arm embedded\\7 2017-q4-major\\arm-none-eabi\\include
 1963              		.file 12 "c:\\program files (x86)\\gnu tools arm embedded\\7 2017-q4-major\\arm-none-eabi\\include
ARM GAS  C:\Users\CHRIST~1\AppData\Local\Temp\cc1zlP7j.s 			page 36


 1964              		.file 13 "c:\\program files (x86)\\gnu tools arm embedded\\7 2017-q4-major\\arm-none-eabi\\include
 1965              		.file 14 "ChibiOS_3.0.2/os/rt/ports/ARMCMx/compilers/GCC/chtypes.h"
 1966              		.file 15 "ChibiOS_3.0.2/os/rt/include/chsystypes.h"
 1967              		.file 16 "ChibiOS_3.0.2/os/rt/include/chschd.h"
 1968              		.file 17 "ChibiOS_3.0.2/os/ext/CMSIS/include/core_cm4.h"
 1969              		.file 18 "ChibiOS_3.0.2/os/ext/CMSIS/ST/system_stm32f4xx.h"
 1970              		.file 19 "ChibiOS_3.0.2/os/ext/CMSIS/ST/stm32f407xx.h"
 1971              		.file 20 "ChibiOS_3.0.2/os/rt/ports/ARMCMx/chcore.h"
 1972              		.file 21 "ChibiOS_3.0.2/os/rt/ports/ARMCMx/chcore_v7m.h"
 1973              		.file 22 "ChibiOS_3.0.2/os/rt/include/chtm.h"
 1974              		.file 23 "ChibiOS_3.0.2/os/rt/include/chsem.h"
 1975              		.file 24 "ChibiOS_3.0.2/os/rt/include/chmtx.h"
 1976              		.file 25 "ChibiOS_3.0.2/os/rt/include/chqueues.h"
 1977              		.file 26 "datatypes.h"
 1978              		.file 27 "conf_general.h"
 1979              		.file 28 "ChibiOS_3.0.2/os/hal/ports/STM32/STM32F4xx/stm32_dma.h"
 1980              		.file 29 "ChibiOS_3.0.2/os/hal/ports/STM32/LLD/GPIOv2/pal_lld.h"
 1981              		.file 30 "ChibiOS_3.0.2/os/hal/include/can.h"
 1982              		.file 31 "ChibiOS_3.0.2/os/hal/ports/STM32/LLD/can_lld.h"
 1983              		.file 32 "ChibiOS_3.0.2/os/hal/include/i2c.h"
 1984              		.file 33 "ChibiOS_3.0.2/os/hal/ports/STM32/LLD/I2Cv1/i2c_lld.h"
 1985              		.file 34 "ChibiOS_3.0.2/os/hal/include/icu.h"
 1986              		.file 35 "ChibiOS_3.0.2/os/hal/ports/STM32/LLD/TIMv1/icu_lld.h"
 1987              		.file 36 "ChibiOS_3.0.2/os/hal/ports/STM32/LLD/TIMv1/stm32_tim.h"
 1988              		.file 37 "ChibiOS_3.0.2/os/hal/include/spi.h"
 1989              		.file 38 "ChibiOS_3.0.2/os/hal/ports/STM32/LLD/SPIv1/spi_lld.h"
 1990              		.file 39 "ChibiOS_3.0.2/os/hal/include/uart.h"
 1991              		.file 40 "ChibiOS_3.0.2/os/hal/ports/STM32/LLD/USARTv1/uart_lld.h"
 1992              		.file 41 "ChibiOS_3.0.2/os/hal/include/usb.h"
 1993              		.file 42 "ChibiOS_3.0.2/os/hal/ports/STM32/LLD/OTGv1/usb_lld.h"
 1994              		.file 43 "ChibiOS_3.0.2/os/hal/ports/STM32/LLD/OTGv1/stm32_otg.h"
 1995              		.file 44 "mc_interface.h"
 1996              		.file 45 "ChibiOS_3.0.2/os/rt/include/chsys.h"
 1997              		.file 46 "buffer.h"
 1998              		.file 47 "applications/app.h"
 1999              		.file 48 "crc.h"
 2000              		.file 49 "timeout.h"
 2001              		.file 50 "commands.h"
 2002              		.file 51 "<built-in>"
