ARM GAS  C:\Users\CHRIST~1\AppData\Local\Temp\ccx2hCbj.s 			page 1


   1              		.cpu cortex-m4
   2              		.eabi_attribute 27, 1
   3              		.eabi_attribute 28, 1
   4              		.eabi_attribute 20, 1
   5              		.eabi_attribute 21, 1
   6              		.eabi_attribute 23, 3
   7              		.eabi_attribute 24, 1
   8              		.eabi_attribute 25, 1
   9              		.eabi_attribute 26, 1
  10              		.eabi_attribute 30, 1
  11              		.eabi_attribute 34, 1
  12              		.eabi_attribute 18, 4
  13              		.file	"commands.c"
  14              		.text
  15              	.Ltext0:
  16              		.cfi_sections	.debug_frame
  17              		.section	.text.commands_init,"ax",%progbits
  18              		.align	1
  19              		.p2align 4,,15
  20              		.global	commands_init
  21              		.syntax unified
  22              		.thumb
  23              		.thumb_func
  24              		.fpu fpv4-sp-d16
  25              		.type	commands_init, %function
  26              	commands_init:
  27              	.LFB259:
  28              		.file 1 "commands.c"
  29              		.loc 1 64 0
  30              		.cfi_startproc
  31              		@ args = 0, pretend = 0, frame = 0
  32              		@ frame_needed = 0, uses_anonymous_args = 0
  33 0000 00B5     		push	{lr}
  34              		.cfi_def_cfa_offset 4
  35              		.cfi_offset 14, -4
  36 0002 83B0     		sub	sp, sp, #12
  37              		.cfi_def_cfa_offset 16
  38              		.loc 1 65 0
  39 0004 0023     		movs	r3, #0
  40 0006 0093     		str	r3, [sp]
  41 0008 044B     		ldr	r3, .L3
  42 000a 4022     		movs	r2, #64
  43 000c 40F69811 		movw	r1, #2456
  44 0010 0348     		ldr	r0, .L3+4
  45 0012 FFF7FEFF 		bl	chThdCreateStatic
  46              	.LVL0:
  47              		.loc 1 66 0
  48 0016 03B0     		add	sp, sp, #12
  49              		.cfi_def_cfa_offset 4
  50              		@ sp needed
  51 0018 5DF804FB 		ldr	pc, [sp], #4
  52              	.L4:
  53              		.align	2
  54              	.L3:
  55 001c 00000000 		.word	detect_thread
  56 0020 00000000 		.word	.LANCHOR0
  57              		.cfi_endproc
ARM GAS  C:\Users\CHRIST~1\AppData\Local\Temp\ccx2hCbj.s 			page 2


  58              	.LFE259:
  59              		.size	commands_init, .-commands_init
  60              		.section	.text.commands_set_send_func,"ax",%progbits
  61              		.align	1
  62              		.p2align 4,,15
  63              		.global	commands_set_send_func
  64              		.syntax unified
  65              		.thumb
  66              		.thumb_func
  67              		.fpu fpv4-sp-d16
  68              		.type	commands_set_send_func, %function
  69              	commands_set_send_func:
  70              	.LFB260:
  71              		.loc 1 74 0
  72              		.cfi_startproc
  73              		@ args = 0, pretend = 0, frame = 0
  74              		@ frame_needed = 0, uses_anonymous_args = 0
  75              		@ link register save eliminated.
  76              	.LVL1:
  77              		.loc 1 75 0
  78 0000 014B     		ldr	r3, .L6
  79 0002 1860     		str	r0, [r3]
  80              		.loc 1 76 0
  81 0004 7047     		bx	lr
  82              	.L7:
  83 0006 00BF     		.align	2
  84              	.L6:
  85 0008 00000000 		.word	.LANCHOR1
  86              		.cfi_endproc
  87              	.LFE260:
  88              		.size	commands_set_send_func, .-commands_set_send_func
  89              		.section	.text.commands_send_packet,"ax",%progbits
  90              		.align	1
  91              		.p2align 4,,15
  92              		.global	commands_send_packet
  93              		.syntax unified
  94              		.thumb
  95              		.thumb_func
  96              		.fpu fpv4-sp-d16
  97              		.type	commands_send_packet, %function
  98              	commands_send_packet:
  99              	.LFB261:
 100              		.loc 1 87 0
 101              		.cfi_startproc
 102              		@ args = 0, pretend = 0, frame = 0
 103              		@ frame_needed = 0, uses_anonymous_args = 0
 104              	.LVL2:
 105 0000 08B5     		push	{r3, lr}
 106              		.cfi_def_cfa_offset 8
 107              		.cfi_offset 3, -8
 108              		.cfi_offset 14, -4
 109              		.loc 1 88 0
 110 0002 024B     		ldr	r3, .L11
 111 0004 1B68     		ldr	r3, [r3]
 112 0006 03B1     		cbz	r3, .L8
 113              		.loc 1 89 0
 114 0008 9847     		blx	r3
ARM GAS  C:\Users\CHRIST~1\AppData\Local\Temp\ccx2hCbj.s 			page 3


 115              	.LVL3:
 116              	.L8:
 117              		.loc 1 91 0
 118 000a 08BD     		pop	{r3, pc}
 119              	.L12:
 120              		.align	2
 121              	.L11:
 122 000c 00000000 		.word	.LANCHOR1
 123              		.cfi_endproc
 124              	.LFE261:
 125              		.size	commands_send_packet, .-commands_send_packet
 126              		.section	.text.detect_thread,"ax",%progbits
 127              		.align	1
 128              		.p2align 4,,15
 129              		.syntax unified
 130              		.thumb
 131              		.thumb_func
 132              		.fpu fpv4-sp-d16
 133              		.type	detect_thread, %function
 134              	detect_thread:
 135              	.LFB270:
 136              		.loc 1 998 0
 137              		.cfi_startproc
 138              		@ Volatile: function does not return.
 139              		@ args = 0, pretend = 0, frame = 8
 140              		@ frame_needed = 0, uses_anonymous_args = 0
 141              	.LVL4:
 142 0000 80B5     		push	{r7, lr}
 143              		.cfi_def_cfa_offset 8
 144              		.cfi_offset 7, -8
 145              		.cfi_offset 14, -4
 146 0002 82B0     		sub	sp, sp, #8
 147              		.cfi_def_cfa_offset 16
 148              	.LVL5:
 149              	.LBB14:
 150              	.LBB15:
 151              		.file 2 "ChibiOS_3.0.2/os/rt/include/chregistry.h"
 152              		.loc 2 135 0
 153 0004 304B     		ldr	r3, .L19
 154 0006 9A69     		ldr	r2, [r3, #24]
 155 0008 3049     		ldr	r1, .L19+4
 156 000a 9161     		str	r1, [r2, #24]
 157              	.LVL6:
 158              	.LBE15:
 159              	.LBE14:
 160              		.loc 1 1003 0
 161 000c 9A69     		ldr	r2, [r3, #24]
 162 000e 304B     		ldr	r3, .L19+8
 163 0010 1A60     		str	r2, [r3]
 164              	.LBB16:
 165              		.loc 1 1008 0
 166 0012 DFF8E480 		ldr	r8, .L19+48
 167 0016 2F4F     		ldr	r7, .L19+12
 168 0018 2F4E     		ldr	r6, .L19+16
 169 001a 304D     		ldr	r5, .L19+20
 170              		.loc 1 1011 0
 171 001c 4FF0000A 		mov	r10, #0
ARM GAS  C:\Users\CHRIST~1\AppData\Local\Temp\ccx2hCbj.s 			page 4


 172              		.loc 1 1017 0
 173 0020 9FED2F8A 		vldr.32	s16, .L19+24
 174 0024 33E0     		b	.L17
 175              	.LVL7:
 176              	.L14:
 177              		.loc 1 1016 0
 178 0026 0DF10809 		add	r9, sp, #8
 179 002a 0123     		movs	r3, #1
 180 002c 49F8043D 		str	r3, [r9, #-4]!
 181 0030 2C4C     		ldr	r4, .L19+28
 182 0032 1823     		movs	r3, #24
 183 0034 2370     		strb	r3, [r4]
 184              		.loc 1 1017 0
 185 0036 D5ED007A 		vldr.32	s15, [r5]
 186 003a 67EE887A 		vmul.f32	s15, s15, s16
 187 003e 4A46     		mov	r2, r9
 188 0040 FDEEE77A 		vcvt.s32.f32	s15, s15
 189 0044 17EE901A 		vmov	r1, s15	@ int
 190 0048 2046     		mov	r0, r4
 191 004a FFF7FEFF 		bl	buffer_append_int32
 192              	.LVL8:
 193              		.loc 1 1018 0
 194 004e D6ED007A 		vldr.32	s15, [r6]
 195 0052 67EE887A 		vmul.f32	s15, s15, s16
 196 0056 4A46     		mov	r2, r9
 197 0058 FDEEE77A 		vcvt.s32.f32	s15, s15
 198 005c 17EE901A 		vmov	r1, s15	@ int
 199 0060 2046     		mov	r0, r4
 200 0062 FFF7FEFF 		bl	buffer_append_int32
 201              	.LVL9:
 202              		.loc 1 1019 0
 203 0066 019B     		ldr	r3, [sp, #4]
 204 0068 04EB030C 		add	ip, r4, r3
 205 006c 3A46     		mov	r2, r7
 206 006e 03CA     		ldmia	r2!, {r0, r1}
 207 0070 E050     		str	r0, [r4, r3]	@ unaligned
 208 0072 CCF80410 		str	r1, [ip, #4]	@ unaligned
 209              		.loc 1 1021 0
 210 0076 D8F80020 		ldr	r2, [r8]
 211 007a 03F10901 		add	r1, r3, #9
 212 007e 0191     		str	r1, [sp, #4]
 213 0080 8CF80820 		strb	r2, [ip, #8]
 214              		.loc 1 1023 0
 215 0084 184B     		ldr	r3, .L19+32
 216 0086 1B68     		ldr	r3, [r3]
 217 0088 D3B1     		cbz	r3, .L15
 218              		.loc 1 1024 0
 219 008a 2046     		mov	r0, r4
 220 008c 9847     		blx	r3
 221              	.LVL10:
 222              	.L17:
 223              		.loc 1 1006 0
 224 008e 0120     		movs	r0, #1
 225 0090 FFF7FEFF 		bl	chEvtWaitAny
 226              	.LVL11:
 227              		.loc 1 1008 0
 228 0094 4346     		mov	r3, r8
ARM GAS  C:\Users\CHRIST~1\AppData\Local\Temp\ccx2hCbj.s 			page 5


 229 0096 3A46     		mov	r2, r7
 230 0098 3146     		mov	r1, r6
 231 009a 2846     		mov	r0, r5
 232 009c 134C     		ldr	r4, .L19+36
 233 009e 94ED001A 		vldr.32	s2, [r4]
 234 00a2 134C     		ldr	r4, .L19+40
 235 00a4 D4ED000A 		vldr.32	s1, [r4]
 236 00a8 124C     		ldr	r4, .L19+44
 237 00aa 94ED000A 		vldr.32	s0, [r4]
 238 00ae FFF7FEFF 		bl	conf_general_detect_motor_param
 239              	.LVL12:
 240 00b2 0028     		cmp	r0, #0
 241 00b4 B7D1     		bne	.L14
 242              		.loc 1 1011 0
 243 00b6 C5F800A0 		str	r10, [r5]	@ float
 244              		.loc 1 1012 0
 245 00ba C6F800A0 		str	r10, [r6]	@ float
 246 00be B2E7     		b	.L14
 247              	.L15:
 248              		.loc 1 1026 0
 249 00c0 0848     		ldr	r0, .L19+28
 250 00c2 FFF7FEFF 		bl	commands_send_packet
 251              	.LVL13:
 252              	.LBE16:
 253              		.loc 1 1005 0
 254 00c6 E2E7     		b	.L17
 255              	.L20:
 256              		.align	2
 257              	.L19:
 258 00c8 00000000 		.word	ch
 259 00cc 00000000 		.word	.LC0
 260 00d0 00000000 		.word	.LANCHOR2
 261 00d4 00000000 		.word	.LANCHOR4
 262 00d8 00000000 		.word	.LANCHOR5
 263 00dc 00000000 		.word	.LANCHOR6
 264 00e0 00007A44 		.word	1148846080
 265 00e4 00000000 		.word	.LANCHOR10
 266 00e8 00000000 		.word	.LANCHOR11
 267 00ec 00000000 		.word	.LANCHOR7
 268 00f0 00000000 		.word	.LANCHOR8
 269 00f4 00000000 		.word	.LANCHOR9
 270 00f8 00000000 		.word	.LANCHOR3
 271              		.cfi_endproc
 272              	.LFE270:
 273              		.size	detect_thread, .-detect_thread
 274              		.section	.text.commands_printf,"ax",%progbits
 275              		.align	1
 276              		.p2align 4,,15
 277              		.global	commands_printf
 278              		.syntax unified
 279              		.thumb
 280              		.thumb_func
 281              		.fpu fpv4-sp-d16
 282              		.type	commands_printf, %function
 283              	commands_printf:
 284              	.LFB263:
 285              		.loc 1 859 0
ARM GAS  C:\Users\CHRIST~1\AppData\Local\Temp\ccx2hCbj.s 			page 6


 286              		.cfi_startproc
 287              		@ args = 4, pretend = 16, frame = 8
 288              		@ frame_needed = 0, uses_anonymous_args = 1
 289              	.LVL14:
 290 0000 0FB4     		push	{r0, r1, r2, r3}
 291              		.cfi_def_cfa_offset 16
 292              		.cfi_offset 0, -16
 293              		.cfi_offset 1, -12
 294              		.cfi_offset 2, -8
 295              		.cfi_offset 3, -4
 296 0002 00B5     		push	{lr}
 297              		.cfi_def_cfa_offset 20
 298              		.cfi_offset 14, -20
 299 0004 83B0     		sub	sp, sp, #12
 300              		.cfi_def_cfa_offset 32
 301 0006 04AB     		add	r3, sp, #16
 302 0008 53F8042B 		ldr	r2, [r3], #4
 303              		.loc 1 861 0
 304 000c 0193     		str	r3, [sp, #4]
 305              		.loc 1 865 0
 306 000e 0A48     		ldr	r0, .L24
 307 0010 1521     		movs	r1, #21
 308 0012 00F8011B 		strb	r1, [r0], #1
 309              		.loc 1 866 0
 310 0016 FE21     		movs	r1, #254
 311 0018 FFF7FEFF 		bl	vsnprintf
 312              	.LVL15:
 313              		.loc 1 869 0
 314 001c 011E     		subs	r1, r0, #0
 315 001e 06DD     		ble	.L21
 316              		.loc 1 870 0
 317 0020 FE29     		cmp	r1, #254
 318 0022 A8BF     		it	ge
 319 0024 FE21     		movge	r1, #254
 320 0026 0131     		adds	r1, r1, #1
 321 0028 0348     		ldr	r0, .L24
 322              	.LVL16:
 323 002a FFF7FEFF 		bl	commands_send_packet
 324              	.LVL17:
 325              	.L21:
 326              		.loc 1 872 0
 327 002e 03B0     		add	sp, sp, #12
 328              		.cfi_def_cfa_offset 20
 329              		@ sp needed
 330 0030 5DF804EB 		ldr	lr, [sp], #4
 331              		.cfi_restore 14
 332              		.cfi_def_cfa_offset 16
 333 0034 04B0     		add	sp, sp, #16
 334              		.cfi_restore 3
 335              		.cfi_restore 2
 336              		.cfi_restore 1
 337              		.cfi_restore 0
 338              		.cfi_def_cfa_offset 0
 339 0036 7047     		bx	lr
 340              	.L25:
 341              		.align	2
 342              	.L24:
ARM GAS  C:\Users\CHRIST~1\AppData\Local\Temp\ccx2hCbj.s 			page 7


 343 0038 00000000 		.word	.LANCHOR12
 344              		.cfi_endproc
 345              	.LFE263:
 346              		.size	commands_printf, .-commands_printf
 347              		.section	.text.commands_send_rotor_pos,"ax",%progbits
 348              		.align	1
 349              		.p2align 4,,15
 350              		.global	commands_send_rotor_pos
 351              		.syntax unified
 352              		.thumb
 353              		.thumb_func
 354              		.fpu fpv4-sp-d16
 355              		.type	commands_send_rotor_pos, %function
 356              	commands_send_rotor_pos:
 357              	.LFB264:
 358              		.loc 1 874 0
 359              		.cfi_startproc
 360              		@ args = 0, pretend = 0, frame = 16
 361              		@ frame_needed = 0, uses_anonymous_args = 0
 362              	.LVL18:
 363 0000 00B5     		push	{lr}
 364              		.cfi_def_cfa_offset 4
 365              		.cfi_offset 14, -4
 366 0002 85B0     		sub	sp, sp, #20
 367              		.cfi_def_cfa_offset 24
 368              		.loc 1 878 0
 369 0004 0123     		movs	r3, #1
 370 0006 0193     		str	r3, [sp, #4]
 371 0008 1623     		movs	r3, #22
 372 000a 8DF80830 		strb	r3, [sp, #8]
 373              		.loc 1 879 0
 374 000e DFED097A 		vldr.32	s15, .L28
 375 0012 20EE270A 		vmul.f32	s0, s0, s15
 376              	.LVL19:
 377 0016 01AA     		add	r2, sp, #4
 378 0018 FDEEC07A 		vcvt.s32.f32	s15, s0
 379 001c 17EE901A 		vmov	r1, s15	@ int
 380 0020 02A8     		add	r0, sp, #8
 381 0022 FFF7FEFF 		bl	buffer_append_int32
 382              	.LVL20:
 383              		.loc 1 881 0
 384 0026 0199     		ldr	r1, [sp, #4]
 385 0028 02A8     		add	r0, sp, #8
 386 002a FFF7FEFF 		bl	commands_send_packet
 387              	.LVL21:
 388              		.loc 1 882 0
 389 002e 05B0     		add	sp, sp, #20
 390              		.cfi_def_cfa_offset 4
 391              		@ sp needed
 392 0030 5DF804FB 		ldr	pc, [sp], #4
 393              	.L29:
 394              		.align	2
 395              	.L28:
 396 0034 0050C347 		.word	1203982336
 397              		.cfi_endproc
 398              	.LFE264:
 399              		.size	commands_send_rotor_pos, .-commands_send_rotor_pos
ARM GAS  C:\Users\CHRIST~1\AppData\Local\Temp\ccx2hCbj.s 			page 8


 400              		.section	.text.commands_send_experiment_samples,"ax",%progbits
 401              		.align	1
 402              		.p2align 4,,15
 403              		.global	commands_send_experiment_samples
 404              		.syntax unified
 405              		.thumb
 406              		.thumb_func
 407              		.fpu fpv4-sp-d16
 408              		.type	commands_send_experiment_samples, %function
 409              	commands_send_experiment_samples:
 410              	.LFB265:
 411              		.loc 1 884 0
 412              		.cfi_startproc
 413              		@ args = 0, pretend = 0, frame = 8
 414              		@ frame_needed = 1, uses_anonymous_args = 0
 415              	.LVL22:
 416 0000 2DE9F041 		push	{r4, r5, r6, r7, r8, lr}
 417              		.cfi_def_cfa_offset 24
 418              		.cfi_offset 4, -24
 419              		.cfi_offset 5, -20
 420              		.cfi_offset 6, -16
 421              		.cfi_offset 7, -12
 422              		.cfi_offset 8, -8
 423              		.cfi_offset 14, -4
 424 0004 2DED028B 		vpush.64	{d8}
 425              		.cfi_def_cfa_offset 32
 426              		.cfi_offset 80, -32
 427              		.cfi_offset 81, -28
 428 0008 82B0     		sub	sp, sp, #8
 429              		.cfi_def_cfa_offset 40
 430 000a 00AF     		add	r7, sp, #0
 431              		.cfi_def_cfa_register 7
 432              		.loc 1 884 0
 433 000c 6E46     		mov	r6, sp
 434              		.loc 1 885 0
 435 000e 8B00     		lsls	r3, r1, #2
 436 0010 0133     		adds	r3, r3, #1
 437 0012 B3F5807F 		cmp	r3, #256
 438 0016 2ADC     		bgt	.L31
 439              	.LVL23:
 440              		.loc 1 889 0
 441 0018 0733     		adds	r3, r3, #7
 442              	.LVL24:
 443 001a 23F00703 		bic	r3, r3, #7
 444              	.LVL25:
 445 001e ADEB030D 		sub	sp, sp, r3
 446 0022 E846     		mov	r8, sp
 447              	.LVL26:
 448              		.loc 1 892 0
 449 0024 0123     		movs	r3, #1
 450 0026 7B60     		str	r3, [r7, #4]
 451 0028 1723     		movs	r3, #23
 452 002a 8DF80030 		strb	r3, [sp]
 453              	.LVL27:
 454              	.LBB17:
 455              		.loc 1 894 0
 456 002e 0029     		cmp	r1, #0
ARM GAS  C:\Users\CHRIST~1\AppData\Local\Temp\ccx2hCbj.s 			page 9


 457 0030 12DD     		ble	.L32
 458 0032 0446     		mov	r4, r0
 459 0034 00EB8105 		add	r5, r0, r1, lsl #2
 460              		.loc 1 895 0
 461 0038 9FED0E8A 		vldr.32	s16, .L37
 462              	.LVL28:
 463              	.L33:
 464              		.loc 1 895 0 is_stmt 0 discriminator 3
 465 003c F4EC017A 		vldmia.32	r4!, {s15}
 466 0040 67EE887A 		vmul.f32	s15, s15, s16
 467 0044 3A1D     		adds	r2, r7, #4
 468 0046 FDEEE77A 		vcvt.s32.f32	s15, s15
 469 004a 17EE901A 		vmov	r1, s15	@ int
 470 004e 4046     		mov	r0, r8
 471 0050 FFF7FEFF 		bl	buffer_append_int32
 472              	.LVL29:
 473              		.loc 1 894 0 is_stmt 1 discriminator 3
 474 0054 AC42     		cmp	r4, r5
 475 0056 F1D1     		bne	.L33
 476              	.L32:
 477              	.LBE17:
 478              		.loc 1 898 0
 479 0058 7968     		ldr	r1, [r7, #4]
 480 005a 4046     		mov	r0, r8
 481 005c FFF7FEFF 		bl	commands_send_packet
 482              	.LVL30:
 483 0060 B546     		mov	sp, r6
 484              	.LVL31:
 485              	.L30:
 486              		.loc 1 899 0
 487 0062 0837     		adds	r7, r7, #8
 488              		.cfi_remember_state
 489              		.cfi_def_cfa_offset 32
 490 0064 BD46     		mov	sp, r7
 491              		.cfi_def_cfa_register 13
 492              		@ sp needed
 493 0066 BDEC028B 		vldm	sp!, {d8}
 494              		.cfi_restore 80
 495              		.cfi_restore 81
 496              		.cfi_def_cfa_offset 24
 497 006a BDE8F081 		pop	{r4, r5, r6, r7, r8, pc}
 498              	.LVL32:
 499              	.L31:
 500              		.cfi_restore_state
 501 006e B546     		mov	sp, r6
 502 0070 F7E7     		b	.L30
 503              	.L38:
 504 0072 00BF     		.align	2
 505              	.L37:
 506 0074 00401C46 		.word	1176256512
 507              		.cfi_endproc
 508              	.LFE265:
 509              		.size	commands_send_experiment_samples, .-commands_send_experiment_samples
 510              		.section	.text.commands_get_disp_pos_mode,"ax",%progbits
 511              		.align	1
 512              		.p2align 4,,15
 513              		.global	commands_get_disp_pos_mode
ARM GAS  C:\Users\CHRIST~1\AppData\Local\Temp\ccx2hCbj.s 			page 10


 514              		.syntax unified
 515              		.thumb
 516              		.thumb_func
 517              		.fpu fpv4-sp-d16
 518              		.type	commands_get_disp_pos_mode, %function
 519              	commands_get_disp_pos_mode:
 520              	.LFB266:
 521              		.loc 1 901 0
 522              		.cfi_startproc
 523              		@ args = 0, pretend = 0, frame = 0
 524              		@ frame_needed = 0, uses_anonymous_args = 0
 525              		@ link register save eliminated.
 526              		.loc 1 903 0
 527 0000 014B     		ldr	r3, .L40
 528 0002 1878     		ldrb	r0, [r3]	@ zero_extendqisi2
 529 0004 7047     		bx	lr
 530              	.L41:
 531 0006 00BF     		.align	2
 532              	.L40:
 533 0008 00000000 		.word	.LANCHOR13
 534              		.cfi_endproc
 535              	.LFE266:
 536              		.size	commands_get_disp_pos_mode, .-commands_get_disp_pos_mode
 537              		.section	.text.commands_set_app_data_handler,"ax",%progbits
 538              		.align	1
 539              		.p2align 4,,15
 540              		.global	commands_set_app_data_handler
 541              		.syntax unified
 542              		.thumb
 543              		.thumb_func
 544              		.fpu fpv4-sp-d16
 545              		.type	commands_set_app_data_handler, %function
 546              	commands_set_app_data_handler:
 547              	.LFB267:
 548              		.loc 1 905 0
 549              		.cfi_startproc
 550              		@ args = 0, pretend = 0, frame = 0
 551              		@ frame_needed = 0, uses_anonymous_args = 0
 552              		@ link register save eliminated.
 553              	.LVL33:
 554              		.loc 1 906 0
 555 0000 014B     		ldr	r3, .L43
 556 0002 1860     		str	r0, [r3]
 557              		.loc 1 907 0
 558 0004 7047     		bx	lr
 559              	.L44:
 560 0006 00BF     		.align	2
 561              	.L43:
 562 0008 00000000 		.word	.LANCHOR14
 563              		.cfi_endproc
 564              	.LFE267:
 565              		.size	commands_set_app_data_handler, .-commands_set_app_data_handler
 566              		.section	.text.commands_send_app_data,"ax",%progbits
 567              		.align	1
 568              		.p2align 4,,15
 569              		.global	commands_send_app_data
 570              		.syntax unified
ARM GAS  C:\Users\CHRIST~1\AppData\Local\Temp\ccx2hCbj.s 			page 11


 571              		.thumb
 572              		.thumb_func
 573              		.fpu fpv4-sp-d16
 574              		.type	commands_send_app_data, %function
 575              	commands_send_app_data:
 576              	.LFB268:
 577              		.loc 1 909 0
 578              		.cfi_startproc
 579              		@ args = 0, pretend = 0, frame = 0
 580              		@ frame_needed = 0, uses_anonymous_args = 0
 581              	.LVL34:
 582 0000 38B5     		push	{r3, r4, r5, lr}
 583              		.cfi_def_cfa_offset 16
 584              		.cfi_offset 3, -16
 585              		.cfi_offset 4, -12
 586              		.cfi_offset 5, -8
 587              		.cfi_offset 14, -4
 588 0002 0D46     		mov	r5, r1
 589              	.LVL35:
 590              		.loc 1 912 0
 591 0004 074C     		ldr	r4, .L47
 592 0006 2346     		mov	r3, r4
 593 0008 2422     		movs	r2, #36
 594 000a 03F8012B 		strb	r2, [r3], #1
 595              		.loc 1 913 0
 596 000e 0A46     		mov	r2, r1
 597 0010 0146     		mov	r1, r0
 598              	.LVL36:
 599 0012 1846     		mov	r0, r3
 600              	.LVL37:
 601 0014 FFF7FEFF 		bl	memcpy
 602              	.LVL38:
 603              		.loc 1 916 0
 604 0018 691C     		adds	r1, r5, #1
 605              	.LVL39:
 606 001a 2046     		mov	r0, r4
 607 001c FFF7FEFF 		bl	commands_send_packet
 608              	.LVL40:
 609              		.loc 1 917 0
 610 0020 38BD     		pop	{r3, r4, r5, pc}
 611              	.LVL41:
 612              	.L48:
 613 0022 00BF     		.align	2
 614              	.L47:
 615 0024 00000000 		.word	.LANCHOR10
 616              		.cfi_endproc
 617              	.LFE268:
 618              		.size	commands_send_app_data, .-commands_send_app_data
 619              		.section	.text.commands_send_appconf,"ax",%progbits
 620              		.align	1
 621              		.p2align 4,,15
 622              		.global	commands_send_appconf
 623              		.syntax unified
 624              		.thumb
 625              		.thumb_func
 626              		.fpu fpv4-sp-d16
 627              		.type	commands_send_appconf, %function
ARM GAS  C:\Users\CHRIST~1\AppData\Local\Temp\ccx2hCbj.s 			page 12


 628              	commands_send_appconf:
 629              	.LFB269:
 630              		.loc 1 919 0
 631              		.cfi_startproc
 632              		@ args = 0, pretend = 0, frame = 8
 633              		@ frame_needed = 0, uses_anonymous_args = 0
 634              	.LVL42:
 635 0000 F0B5     		push	{r4, r5, r6, r7, lr}
 636              		.cfi_def_cfa_offset 20
 637              		.cfi_offset 4, -20
 638              		.cfi_offset 5, -16
 639              		.cfi_offset 6, -12
 640              		.cfi_offset 7, -8
 641              		.cfi_offset 14, -4
 642 0002 83B0     		sub	sp, sp, #12
 643              		.cfi_def_cfa_offset 32
 644 0004 0C46     		mov	r4, r1
 645              		.loc 1 921 0
 646 0006 AD4D     		ldr	r5, .L51
 647 0008 2870     		strb	r0, [r5]
 648              		.loc 1 922 0
 649 000a 02AE     		add	r6, sp, #8
 650 000c 0223     		movs	r3, #2
 651 000e 46F8043D 		str	r3, [r6, #-4]!
 652 0012 0B78     		ldrb	r3, [r1]	@ zero_extendqisi2
 653 0014 6B70     		strb	r3, [r5, #1]
 654              		.loc 1 923 0
 655 0016 3246     		mov	r2, r6
 656 0018 4968     		ldr	r1, [r1, #4]
 657              	.LVL43:
 658 001a 2846     		mov	r0, r5
 659              	.LVL44:
 660 001c FFF7FEFF 		bl	buffer_append_uint32
 661              	.LVL45:
 662              		.loc 1 924 0
 663 0020 3146     		mov	r1, r6
 664 0022 94ED020A 		vldr.32	s0, [r4, #8]
 665 0026 2846     		mov	r0, r5
 666 0028 FFF7FEFF 		bl	buffer_append_float32_auto
 667              	.LVL46:
 668              		.loc 1 925 0
 669 002c 227B     		ldrb	r2, [r4, #12]	@ zero_extendqisi2
 670 002e 019B     		ldr	r3, [sp, #4]
 671 0030 591C     		adds	r1, r3, #1
 672 0032 0191     		str	r1, [sp, #4]
 673 0034 EA54     		strb	r2, [r5, r3]
 674              		.loc 1 926 0
 675 0036 3246     		mov	r2, r6
 676 0038 218A     		ldrh	r1, [r4, #16]
 677 003a 2846     		mov	r0, r5
 678 003c FFF7FEFF 		bl	buffer_append_uint16
 679              	.LVL47:
 680              		.loc 1 927 0
 681 0040 019B     		ldr	r3, [sp, #4]
 682 0042 227D     		ldrb	r2, [r4, #20]	@ zero_extendqisi2
 683 0044 EA54     		strb	r2, [r5, r3]
 684              		.loc 1 929 0
ARM GAS  C:\Users\CHRIST~1\AppData\Local\Temp\ccx2hCbj.s 			page 13


 685 0046 617D     		ldrb	r1, [r4, #21]	@ zero_extendqisi2
 686 0048 EA18     		adds	r2, r5, r3
 687 004a 5170     		strb	r1, [r2, #1]
 688              		.loc 1 931 0
 689 004c 0333     		adds	r3, r3, #3
 690 004e 0193     		str	r3, [sp, #4]
 691 0050 237E     		ldrb	r3, [r4, #24]	@ zero_extendqisi2
 692 0052 9370     		strb	r3, [r2, #2]
 693              		.loc 1 932 0
 694 0054 3146     		mov	r1, r6
 695 0056 94ED070A 		vldr.32	s0, [r4, #28]
 696 005a 2846     		mov	r0, r5
 697 005c FFF7FEFF 		bl	buffer_append_float32_auto
 698              	.LVL48:
 699              		.loc 1 933 0
 700 0060 3146     		mov	r1, r6
 701 0062 94ED080A 		vldr.32	s0, [r4, #32]
 702 0066 2846     		mov	r0, r5
 703 0068 FFF7FEFF 		bl	buffer_append_float32_auto
 704              	.LVL49:
 705              		.loc 1 934 0
 706 006c 3146     		mov	r1, r6
 707 006e 94ED090A 		vldr.32	s0, [r4, #36]
 708 0072 2846     		mov	r0, r5
 709 0074 FFF7FEFF 		bl	buffer_append_float32_auto
 710              	.LVL50:
 711              		.loc 1 935 0
 712 0078 3146     		mov	r1, r6
 713 007a 94ED0A0A 		vldr.32	s0, [r4, #40]
 714 007e 2846     		mov	r0, r5
 715 0080 FFF7FEFF 		bl	buffer_append_float32_auto
 716              	.LVL51:
 717              		.loc 1 936 0
 718 0084 3146     		mov	r1, r6
 719 0086 94ED0B0A 		vldr.32	s0, [r4, #44]
 720 008a 2846     		mov	r0, r5
 721 008c FFF7FEFF 		bl	buffer_append_float32_auto
 722              	.LVL52:
 723              		.loc 1 937 0
 724 0090 019B     		ldr	r3, [sp, #4]
 725 0092 94F83020 		ldrb	r2, [r4, #48]	@ zero_extendqisi2
 726 0096 EA54     		strb	r2, [r5, r3]
 727              		.loc 1 938 0
 728 0098 94F83120 		ldrb	r2, [r4, #49]	@ zero_extendqisi2
 729 009c 991C     		adds	r1, r3, #2
 730 009e 0191     		str	r1, [sp, #4]
 731 00a0 2B44     		add	r3, r3, r5
 732 00a2 5A70     		strb	r2, [r3, #1]
 733              		.loc 1 939 0
 734 00a4 3146     		mov	r1, r6
 735 00a6 94ED0D0A 		vldr.32	s0, [r4, #52]
 736 00aa 2846     		mov	r0, r5
 737 00ac FFF7FEFF 		bl	buffer_append_float32_auto
 738              	.LVL53:
 739              		.loc 1 940 0
 740 00b0 3146     		mov	r1, r6
 741 00b2 94ED0E0A 		vldr.32	s0, [r4, #56]
ARM GAS  C:\Users\CHRIST~1\AppData\Local\Temp\ccx2hCbj.s 			page 14


 742 00b6 2846     		mov	r0, r5
 743 00b8 FFF7FEFF 		bl	buffer_append_float32_auto
 744              	.LVL54:
 745              		.loc 1 941 0
 746 00bc 019B     		ldr	r3, [sp, #4]
 747 00be 5A1C     		adds	r2, r3, #1
 748 00c0 0192     		str	r2, [sp, #4]
 749 00c2 94F83C20 		ldrb	r2, [r4, #60]	@ zero_extendqisi2
 750 00c6 EA54     		strb	r2, [r5, r3]
 751              		.loc 1 942 0
 752 00c8 3146     		mov	r1, r6
 753 00ca 94ED100A 		vldr.32	s0, [r4, #64]
 754 00ce 2846     		mov	r0, r5
 755 00d0 FFF7FEFF 		bl	buffer_append_float32_auto
 756              	.LVL55:
 757              		.loc 1 943 0
 758 00d4 3146     		mov	r1, r6
 759 00d6 94ED110A 		vldr.32	s0, [r4, #68]
 760 00da 2846     		mov	r0, r5
 761 00dc FFF7FEFF 		bl	buffer_append_float32_auto
 762              	.LVL56:
 763              		.loc 1 944 0
 764 00e0 019B     		ldr	r3, [sp, #4]
 765 00e2 94F84820 		ldrb	r2, [r4, #72]	@ zero_extendqisi2
 766 00e6 EA54     		strb	r2, [r5, r3]
 767              		.loc 1 945 0
 768 00e8 94F84920 		ldrb	r2, [r4, #73]	@ zero_extendqisi2
 769 00ec 991C     		adds	r1, r3, #2
 770 00ee 0191     		str	r1, [sp, #4]
 771 00f0 2B44     		add	r3, r3, r5
 772 00f2 5A70     		strb	r2, [r3, #1]
 773              		.loc 1 946 0
 774 00f4 3146     		mov	r1, r6
 775 00f6 94ED130A 		vldr.32	s0, [r4, #76]
 776 00fa 2846     		mov	r0, r5
 777 00fc FFF7FEFF 		bl	buffer_append_float32_auto
 778              	.LVL57:
 779              		.loc 1 948 0
 780 0100 019B     		ldr	r3, [sp, #4]
 781 0102 5A1C     		adds	r2, r3, #1
 782 0104 0192     		str	r2, [sp, #4]
 783 0106 94F85020 		ldrb	r2, [r4, #80]	@ zero_extendqisi2
 784 010a EA54     		strb	r2, [r5, r3]
 785              		.loc 1 949 0
 786 010c 3146     		mov	r1, r6
 787 010e 94ED150A 		vldr.32	s0, [r4, #84]
 788 0112 2846     		mov	r0, r5
 789 0114 FFF7FEFF 		bl	buffer_append_float32_auto
 790              	.LVL58:
 791              		.loc 1 950 0
 792 0118 3146     		mov	r1, r6
 793 011a 94ED160A 		vldr.32	s0, [r4, #88]
 794 011e 2846     		mov	r0, r5
 795 0120 FFF7FEFF 		bl	buffer_append_float32_auto
 796              	.LVL59:
 797              		.loc 1 951 0
 798 0124 3146     		mov	r1, r6
ARM GAS  C:\Users\CHRIST~1\AppData\Local\Temp\ccx2hCbj.s 			page 15


 799 0126 94ED170A 		vldr.32	s0, [r4, #92]
 800 012a 2846     		mov	r0, r5
 801 012c FFF7FEFF 		bl	buffer_append_float32_auto
 802              	.LVL60:
 803              		.loc 1 952 0
 804 0130 3146     		mov	r1, r6
 805 0132 94ED180A 		vldr.32	s0, [r4, #96]
 806 0136 2846     		mov	r0, r5
 807 0138 FFF7FEFF 		bl	buffer_append_float32_auto
 808              	.LVL61:
 809              		.loc 1 953 0
 810 013c 3146     		mov	r1, r6
 811 013e 94ED190A 		vldr.32	s0, [r4, #100]
 812 0142 2846     		mov	r0, r5
 813 0144 FFF7FEFF 		bl	buffer_append_float32_auto
 814              	.LVL62:
 815              		.loc 1 954 0
 816 0148 3146     		mov	r1, r6
 817 014a 94ED1A0A 		vldr.32	s0, [r4, #104]
 818 014e 2846     		mov	r0, r5
 819 0150 FFF7FEFF 		bl	buffer_append_float32_auto
 820              	.LVL63:
 821              		.loc 1 955 0
 822 0154 019A     		ldr	r2, [sp, #4]
 823 0156 94F86C30 		ldrb	r3, [r4, #108]	@ zero_extendqisi2
 824 015a AB54     		strb	r3, [r5, r2]
 825              		.loc 1 956 0
 826 015c AB18     		adds	r3, r5, r2
 827 015e 94F86D10 		ldrb	r1, [r4, #109]	@ zero_extendqisi2
 828 0162 5970     		strb	r1, [r3, #1]
 829              		.loc 1 957 0
 830 0164 94F86E10 		ldrb	r1, [r4, #110]	@ zero_extendqisi2
 831 0168 9970     		strb	r1, [r3, #2]
 832              		.loc 1 958 0
 833 016a 94F86F10 		ldrb	r1, [r4, #111]	@ zero_extendqisi2
 834 016e D970     		strb	r1, [r3, #3]
 835              		.loc 1 959 0
 836 0170 94F87010 		ldrb	r1, [r4, #112]	@ zero_extendqisi2
 837 0174 1971     		strb	r1, [r3, #4]
 838              		.loc 1 960 0
 839 0176 94F87110 		ldrb	r1, [r4, #113]	@ zero_extendqisi2
 840 017a 0632     		adds	r2, r2, #6
 841 017c 0192     		str	r2, [sp, #4]
 842 017e 5971     		strb	r1, [r3, #5]
 843              		.loc 1 961 0
 844 0180 3146     		mov	r1, r6
 845 0182 94ED1D0A 		vldr.32	s0, [r4, #116]
 846 0186 2846     		mov	r0, r5
 847 0188 FFF7FEFF 		bl	buffer_append_float32_auto
 848              	.LVL64:
 849              		.loc 1 962 0
 850 018c 3146     		mov	r1, r6
 851 018e 94ED1E0A 		vldr.32	s0, [r4, #120]
 852 0192 2846     		mov	r0, r5
 853 0194 FFF7FEFF 		bl	buffer_append_float32_auto
 854              	.LVL65:
 855              		.loc 1 963 0
ARM GAS  C:\Users\CHRIST~1\AppData\Local\Temp\ccx2hCbj.s 			page 16


 856 0198 019B     		ldr	r3, [sp, #4]
 857 019a 5A1C     		adds	r2, r3, #1
 858 019c 0192     		str	r2, [sp, #4]
 859 019e 94F87C20 		ldrb	r2, [r4, #124]	@ zero_extendqisi2
 860 01a2 EA54     		strb	r2, [r5, r3]
 861              		.loc 1 964 0
 862 01a4 3146     		mov	r1, r6
 863 01a6 94ED200A 		vldr.32	s0, [r4, #128]
 864 01aa 2846     		mov	r0, r5
 865 01ac FFF7FEFF 		bl	buffer_append_float32_auto
 866              	.LVL66:
 867              		.loc 1 965 0
 868 01b0 3146     		mov	r1, r6
 869 01b2 94ED210A 		vldr.32	s0, [r4, #132]
 870 01b6 2846     		mov	r0, r5
 871 01b8 FFF7FEFF 		bl	buffer_append_float32_auto
 872              	.LVL67:
 873              		.loc 1 966 0
 874 01bc 019B     		ldr	r3, [sp, #4]
 875 01be 94F88820 		ldrb	r2, [r4, #136]	@ zero_extendqisi2
 876 01c2 EA54     		strb	r2, [r5, r3]
 877              		.loc 1 967 0
 878 01c4 94F88920 		ldrb	r2, [r4, #137]	@ zero_extendqisi2
 879 01c8 991C     		adds	r1, r3, #2
 880 01ca 0191     		str	r1, [sp, #4]
 881 01cc 2B44     		add	r3, r3, r5
 882 01ce 5A70     		strb	r2, [r3, #1]
 883              		.loc 1 968 0
 884 01d0 3146     		mov	r1, r6
 885 01d2 94ED230A 		vldr.32	s0, [r4, #140]
 886 01d6 2846     		mov	r0, r5
 887 01d8 FFF7FEFF 		bl	buffer_append_float32_auto
 888              	.LVL68:
 889              		.loc 1 969 0
 890 01dc 3246     		mov	r2, r6
 891 01de B4F89010 		ldrh	r1, [r4, #144]
 892 01e2 2846     		mov	r0, r5
 893 01e4 FFF7FEFF 		bl	buffer_append_uint16
 894              	.LVL69:
 895              		.loc 1 971 0
 896 01e8 3246     		mov	r2, r6
 897 01ea D4F89410 		ldr	r1, [r4, #148]
 898 01ee 2846     		mov	r0, r5
 899 01f0 FFF7FEFF 		bl	buffer_append_uint32
 900              	.LVL70:
 901              		.loc 1 973 0
 902 01f4 019B     		ldr	r3, [sp, #4]
 903 01f6 5A1C     		adds	r2, r3, #1
 904 01f8 0192     		str	r2, [sp, #4]
 905 01fa 94F89820 		ldrb	r2, [r4, #152]	@ zero_extendqisi2
 906 01fe EA54     		strb	r2, [r5, r3]
 907              		.loc 1 974 0
 908 0200 3146     		mov	r1, r6
 909 0202 94ED270A 		vldr.32	s0, [r4, #156]
 910 0206 2846     		mov	r0, r5
 911 0208 FFF7FEFF 		bl	buffer_append_float32_auto
 912              	.LVL71:
ARM GAS  C:\Users\CHRIST~1\AppData\Local\Temp\ccx2hCbj.s 			page 17


 913              		.loc 1 975 0
 914 020c 3146     		mov	r1, r6
 915 020e 94ED280A 		vldr.32	s0, [r4, #160]
 916 0212 2846     		mov	r0, r5
 917 0214 FFF7FEFF 		bl	buffer_append_float32_auto
 918              	.LVL72:
 919              		.loc 1 976 0
 920 0218 3146     		mov	r1, r6
 921 021a 94ED290A 		vldr.32	s0, [r4, #164]
 922 021e 2846     		mov	r0, r5
 923 0220 FFF7FEFF 		bl	buffer_append_float32_auto
 924              	.LVL73:
 925              		.loc 1 977 0
 926 0224 3146     		mov	r1, r6
 927 0226 94ED2A0A 		vldr.32	s0, [r4, #168]
 928 022a 2846     		mov	r0, r5
 929 022c FFF7FEFF 		bl	buffer_append_float32_auto
 930              	.LVL74:
 931              		.loc 1 978 0
 932 0230 3146     		mov	r1, r6
 933 0232 94ED2B0A 		vldr.32	s0, [r4, #172]
 934 0236 2846     		mov	r0, r5
 935 0238 FFF7FEFF 		bl	buffer_append_float32_auto
 936              	.LVL75:
 937              		.loc 1 979 0
 938 023c 3146     		mov	r1, r6
 939 023e 94ED2C0A 		vldr.32	s0, [r4, #176]
 940 0242 2846     		mov	r0, r5
 941 0244 FFF7FEFF 		bl	buffer_append_float32_auto
 942              	.LVL76:
 943              		.loc 1 980 0
 944 0248 019B     		ldr	r3, [sp, #4]
 945 024a 94F8B420 		ldrb	r2, [r4, #180]	@ zero_extendqisi2
 946 024e EA54     		strb	r2, [r5, r3]
 947              		.loc 1 981 0
 948 0250 EA18     		adds	r2, r5, r3
 949 0252 94F8B510 		ldrb	r1, [r4, #181]	@ zero_extendqisi2
 950 0256 5170     		strb	r1, [r2, #1]
 951              		.loc 1 982 0
 952 0258 94F8B610 		ldrb	r1, [r4, #182]	@ zero_extendqisi2
 953 025c 0333     		adds	r3, r3, #3
 954 025e 0193     		str	r3, [sp, #4]
 955 0260 9170     		strb	r1, [r2, #2]
 956              		.loc 1 983 0
 957 0262 3146     		mov	r1, r6
 958 0264 94ED2E0A 		vldr.32	s0, [r4, #184]
 959 0268 2846     		mov	r0, r5
 960 026a FFF7FEFF 		bl	buffer_append_float32_auto
 961              	.LVL77:
 962              		.loc 1 985 0
 963 026e 0199     		ldr	r1, [sp, #4]
 964 0270 94F8BC30 		ldrb	r3, [r4, #188]	@ zero_extendqisi2
 965 0274 6B54     		strb	r3, [r5, r1]
 966              		.loc 1 986 0
 967 0276 94F8BD20 		ldrb	r2, [r4, #189]	@ zero_extendqisi2
 968 027a 6B18     		adds	r3, r5, r1
 969 027c 5A70     		strb	r2, [r3, #1]
ARM GAS  C:\Users\CHRIST~1\AppData\Local\Temp\ccx2hCbj.s 			page 18


 970              		.loc 1 987 0
 971 027e 94F8BE20 		ldrb	r2, [r4, #190]	@ zero_extendqisi2
 972 0282 9A70     		strb	r2, [r3, #2]
 973              		.loc 1 988 0
 974 0284 94F8BF20 		ldrb	r2, [r4, #191]	@ zero_extendqisi2
 975 0288 DA70     		strb	r2, [r3, #3]
 976              		.loc 1 989 0
 977 028a 94F8C020 		ldrb	r2, [r4, #192]	@ zero_extendqisi2
 978 028e 1A71     		strb	r2, [r3, #4]
 979              		.loc 1 990 0
 980 0290 94F8C120 		ldrb	r2, [r4, #193]	@ zero_extendqisi2
 981 0294 5A71     		strb	r2, [r3, #5]
 982 0296 881D     		adds	r0, r1, #6
 983              		.loc 1 991 0
 984 0298 2E18     		adds	r6, r5, r0
 985 029a 2246     		mov	r2, r4
 986 029c 32F8C27F 		ldrh	r7, [r2, #194]!	@ unaligned
 987 02a0 9278     		ldrb	r2, [r2, #2]	@ zero_extendqisi2
 988 02a2 2F52     		strh	r7, [r5, r0]	@ unaligned
 989 02a4 B270     		strb	r2, [r6, #2]
 990              		.loc 1 993 0
 991 02a6 94F8C520 		ldrb	r2, [r4, #197]	@ zero_extendqisi2
 992 02aa 0A31     		adds	r1, r1, #10
 993 02ac 0191     		str	r1, [sp, #4]
 994 02ae 5A72     		strb	r2, [r3, #9]
 995              		.loc 1 995 0
 996 02b0 2846     		mov	r0, r5
 997 02b2 FFF7FEFF 		bl	commands_send_packet
 998              	.LVL78:
 999              		.loc 1 996 0
 1000 02b6 03B0     		add	sp, sp, #12
 1001              		.cfi_def_cfa_offset 20
 1002              		@ sp needed
 1003 02b8 F0BD     		pop	{r4, r5, r6, r7, pc}
 1004              	.LVL79:
 1005              	.L52:
 1006 02ba 00BF     		.align	2
 1007              	.L51:
 1008 02bc 00000000 		.word	.LANCHOR10
 1009              		.cfi_endproc
 1010              	.LFE269:
 1011              		.size	commands_send_appconf, .-commands_send_appconf
 1012              		.section	.text.commands_process_packet,"ax",%progbits
 1013              		.align	1
 1014              		.p2align 4,,15
 1015              		.global	commands_process_packet
 1016              		.syntax unified
 1017              		.thumb
 1018              		.thumb_func
 1019              		.fpu fpv4-sp-d16
 1020              		.type	commands_process_packet, %function
 1021              	commands_process_packet:
 1022              	.LFB262:
 1023              		.loc 1 102 0
 1024              		.cfi_startproc
 1025              		@ args = 0, pretend = 0, frame = 248
 1026              		@ frame_needed = 0, uses_anonymous_args = 0
ARM GAS  C:\Users\CHRIST~1\AppData\Local\Temp\ccx2hCbj.s 			page 19


 1027              	.LVL80:
 1028              		.loc 1 103 0
 1029 0000 0029     		cmp	r1, #0
 1030 0002 01F01083 		beq	.L110
 1031              		.loc 1 102 0
 1032 0006 2DE9F043 		push	{r4, r5, r6, r7, r8, r9, lr}
 1033              		.cfi_def_cfa_offset 28
 1034              		.cfi_offset 4, -28
 1035              		.cfi_offset 5, -24
 1036              		.cfi_offset 6, -20
 1037              		.cfi_offset 7, -16
 1038              		.cfi_offset 8, -12
 1039              		.cfi_offset 9, -8
 1040              		.cfi_offset 14, -4
 1041 000a 2DED048B 		vpush.64	{d8, d9}
 1042              		.cfi_def_cfa_offset 44
 1043              		.cfi_offset 80, -44
 1044              		.cfi_offset 81, -40
 1045              		.cfi_offset 82, -36
 1046              		.cfi_offset 83, -32
 1047 000e BFB0     		sub	sp, sp, #252
 1048              		.cfi_def_cfa_offset 296
 1049 0010 0746     		mov	r7, r0
 1050              		.loc 1 108 0
 1051 0012 0023     		movs	r3, #0
 1052 0014 3D93     		str	r3, [sp, #244]
 1053              		.loc 1 115 0
 1054 0016 0446     		mov	r4, r0
 1055 0018 14F8015B 		ldrb	r5, [r4], #1	@ zero_extendqisi2
 1056              	.LVL81:
 1057              		.loc 1 117 0
 1058 001c 4E1E     		subs	r6, r1, #1
 1059              	.LVL82:
 1060              		.loc 1 119 0
 1061 001e 252D     		cmp	r5, #37
 1062 0020 41D8     		bhi	.L53
 1063 0022 DFE815F0 		tbh	[pc, r5, lsl #1]
 1064              	.L57:
 1065 0026 2600     		.2byte	(.L56-.L57)/2
 1066 0028 4500     		.2byte	(.L58-.L57)/2
 1067 002a 4800     		.2byte	(.L59-.L57)/2
 1068 002c 5B00     		.2byte	(.L60-.L57)/2
 1069 002e 7200     		.2byte	(.L61-.L57)/2
 1070 0030 1101     		.2byte	(.L62-.L57)/2
 1071 0032 2201     		.2byte	(.L63-.L57)/2
 1072 0034 3301     		.2byte	(.L64-.L57)/2
 1073 0036 4401     		.2byte	(.L65-.L57)/2
 1074 0038 5101     		.2byte	(.L66-.L57)/2
 1075 003a 6201     		.2byte	(.L67-.L57)/2
 1076 003c 6D01     		.2byte	(.L68-.L57)/2
 1077 003e 4000     		.2byte	(.L53-.L57)/2
 1078 0040 A301     		.2byte	(.L69-.L57)/2
 1079 0042 8504     		.2byte	(.L70-.L57)/2
 1080 0044 8504     		.2byte	(.L70-.L57)/2
 1081 0046 B906     		.2byte	(.L71-.L57)/2
 1082 0048 5C08     		.2byte	(.L72-.L57)/2
 1083 004a 5C08     		.2byte	(.L72-.L57)/2
ARM GAS  C:\Users\CHRIST~1\AppData\Local\Temp\ccx2hCbj.s 			page 20


 1084 004c 6F08     		.2byte	(.L73-.L57)/2
 1085 004e 8108     		.2byte	(.L74-.L57)/2
 1086 0050 4000     		.2byte	(.L53-.L57)/2
 1087 0052 4000     		.2byte	(.L53-.L57)/2
 1088 0054 4000     		.2byte	(.L53-.L57)/2
 1089 0056 8808     		.2byte	(.L75-.L57)/2
 1090 0058 B008     		.2byte	(.L76-.L57)/2
 1091 005a FE08     		.2byte	(.L77-.L57)/2
 1092 005c 4B09     		.2byte	(.L78-.L57)/2
 1093 005e FF09     		.2byte	(.L79-.L57)/2
 1094 0060 5E0A     		.2byte	(.L80-.L57)/2
 1095 0062 600A     		.2byte	(.L81-.L57)/2
 1096 0064 640A     		.2byte	(.L82-.L57)/2
 1097 0066 7B0A     		.2byte	(.L83-.L57)/2
 1098 0068 9C0A     		.2byte	(.L84-.L57)/2
 1099 006a B70A     		.2byte	(.L85-.L57)/2
 1100 006c BF0A     		.2byte	(.L86-.L57)/2
 1101 006e E50A     		.2byte	(.L87-.L57)/2
 1102 0070 EF0A     		.2byte	(.L88-.L57)/2
 1103              		.p2align 1
 1104              	.L56:
 1105              		.loc 1 122 0
 1106 0072 B14B     		ldr	r3, .L115
 1107 0074 0022     		movs	r2, #0
 1108 0076 1A70     		strb	r2, [r3]
 1109              		.loc 1 123 0
 1110 0078 0322     		movs	r2, #3
 1111 007a 5A70     		strb	r2, [r3, #1]
 1112              		.loc 1 124 0
 1113 007c 2222     		movs	r2, #34
 1114 007e 9A70     		strb	r2, [r3, #2]
 1115              		.loc 1 127 0
 1116 0080 AE4A     		ldr	r2, .L115+4
 1117 0082 1188     		ldrh	r1, [r2]	@ unaligned
 1118 0084 9278     		ldrb	r2, [r2, #2]	@ zero_extendqisi2
 1119 0086 A3F80310 		strh	r1, [r3, #3]	@ unaligned
 1120 008a 5A71     		strb	r2, [r3, #5]
 1121              		.loc 1 130 0
 1122 008c AC4C     		ldr	r4, .L115+8
 1123              	.LVL83:
 1124 008e 07CC     		ldmia	r4!, {r0, r1, r2}
 1125              	.LVL84:
 1126 0090 C3F80600 		str	r0, [r3, #6]	@ unaligned
 1127 0094 C3F80A10 		str	r1, [r3, #10]	@ unaligned
 1128 0098 C3F80E20 		str	r2, [r3, #14]	@ unaligned
 1129              		.loc 1 131 0
 1130 009c 1221     		movs	r1, #18
 1131 009e 3D91     		str	r1, [sp, #244]
 1132              		.loc 1 134 0
 1133 00a0 1846     		mov	r0, r3
 1134 00a2 FFF7FEFF 		bl	commands_send_packet
 1135              	.LVL85:
 1136              	.L53:
 1137              		.loc 1 857 0
 1138 00a6 3FB0     		add	sp, sp, #252
 1139              		.cfi_remember_state
 1140              		.cfi_def_cfa_offset 44
ARM GAS  C:\Users\CHRIST~1\AppData\Local\Temp\ccx2hCbj.s 			page 21


 1141              		@ sp needed
 1142 00a8 BDEC048B 		vldm	sp!, {d8-d9}
 1143              		.cfi_restore 82
 1144              		.cfi_restore 83
 1145              		.cfi_restore 80
 1146              		.cfi_restore 81
 1147              		.cfi_def_cfa_offset 28
 1148 00ac BDE8F083 		pop	{r4, r5, r6, r7, r8, r9, pc}
 1149              	.LVL86:
 1150              	.L58:
 1151              		.cfi_restore_state
 1152              		.loc 1 138 0
 1153 00b0 FFF7FEFF 		bl	flash_helper_jump_to_bootloader
 1154              	.LVL87:
 1155              		.loc 1 139 0
 1156 00b4 F7E7     		b	.L53
 1157              	.L59:
 1158              		.loc 1 143 0
 1159 00b6 3DA9     		add	r1, sp, #244
 1160 00b8 2046     		mov	r0, r4
 1161 00ba FFF7FEFF 		bl	buffer_get_uint32
 1162              	.LVL88:
 1163 00be FFF7FEFF 		bl	flash_helper_erase_new_app
 1164              	.LVL89:
 1165              		.loc 1 146 0
 1166 00c2 9D4B     		ldr	r3, .L115
 1167 00c4 0221     		movs	r1, #2
 1168 00c6 1970     		strb	r1, [r3]
 1169              		.loc 1 147 0
 1170 00c8 3D91     		str	r1, [sp, #244]
 1171 00ca 0928     		cmp	r0, #9
 1172 00cc 14BF     		ite	ne
 1173 00ce 0020     		movne	r0, #0
 1174              	.LVL90:
 1175 00d0 0120     		moveq	r0, #1
 1176 00d2 5870     		strb	r0, [r3, #1]
 1177              		.loc 1 148 0
 1178 00d4 1846     		mov	r0, r3
 1179 00d6 FFF7FEFF 		bl	commands_send_packet
 1180              	.LVL91:
 1181              		.loc 1 149 0
 1182 00da E4E7     		b	.L53
 1183              	.L60:
 1184              		.loc 1 153 0
 1185 00dc 3DA9     		add	r1, sp, #244
 1186 00de 2046     		mov	r0, r4
 1187 00e0 FFF7FEFF 		bl	buffer_get_uint32
 1188              	.LVL92:
 1189              		.loc 1 154 0
 1190 00e4 3D99     		ldr	r1, [sp, #244]
 1191 00e6 721A     		subs	r2, r6, r1
 1192 00e8 2144     		add	r1, r1, r4
 1193 00ea FFF7FEFF 		bl	flash_helper_write_new_app_data
 1194              	.LVL93:
 1195              		.loc 1 157 0
 1196 00ee 924B     		ldr	r3, .L115
 1197 00f0 0322     		movs	r2, #3
ARM GAS  C:\Users\CHRIST~1\AppData\Local\Temp\ccx2hCbj.s 			page 22


 1198 00f2 1A70     		strb	r2, [r3]
 1199              		.loc 1 158 0
 1200 00f4 0221     		movs	r1, #2
 1201 00f6 3D91     		str	r1, [sp, #244]
 1202 00f8 0928     		cmp	r0, #9
 1203 00fa 14BF     		ite	ne
 1204 00fc 0020     		movne	r0, #0
 1205              	.LVL94:
 1206 00fe 0120     		moveq	r0, #1
 1207 0100 5870     		strb	r0, [r3, #1]
 1208              		.loc 1 159 0
 1209 0102 1846     		mov	r0, r3
 1210 0104 FFF7FEFF 		bl	commands_send_packet
 1211              	.LVL95:
 1212              		.loc 1 160 0
 1213 0108 CDE7     		b	.L53
 1214              	.L61:
 1215              		.loc 1 164 0
 1216 010a 3EAD     		add	r5, sp, #248
 1217              	.LVL96:
 1218 010c 0123     		movs	r3, #1
 1219 010e 45F8043D 		str	r3, [r5, #-4]!
 1220 0112 894C     		ldr	r4, .L115
 1221              	.LVL97:
 1222 0114 0423     		movs	r3, #4
 1223 0116 2370     		strb	r3, [r4]
 1224              	.LVL98:
 1225              		.loc 1 165 0
 1226 0118 FFF7FEFF 		bl	mc_interface_temp_fet_filtered
 1227              	.LVL99:
 1228 011c 2946     		mov	r1, r5
 1229 011e F2EE040A 		vmov.f32	s1, #1.0e+1
 1230 0122 2046     		mov	r0, r4
 1231 0124 FFF7FEFF 		bl	buffer_append_float16
 1232              	.LVL100:
 1233              		.loc 1 166 0
 1234 0128 FFF7FEFF 		bl	mc_interface_temp_motor_filtered
 1235              	.LVL101:
 1236 012c 2946     		mov	r1, r5
 1237 012e F2EE040A 		vmov.f32	s1, #1.0e+1
 1238 0132 2046     		mov	r0, r4
 1239 0134 FFF7FEFF 		bl	buffer_append_float16
 1240              	.LVL102:
 1241              		.loc 1 167 0
 1242 0138 FFF7FEFF 		bl	mc_interface_read_reset_avg_motor_current
 1243              	.LVL103:
 1244 013c 9FED818A 		vldr.32	s16, .L115+12
 1245 0140 2946     		mov	r1, r5
 1246 0142 F0EE480A 		vmov.f32	s1, s16
 1247 0146 2046     		mov	r0, r4
 1248 0148 FFF7FEFF 		bl	buffer_append_float32
 1249              	.LVL104:
 1250              		.loc 1 168 0
 1251 014c FFF7FEFF 		bl	mc_interface_read_reset_avg_input_current
 1252              	.LVL105:
 1253 0150 2946     		mov	r1, r5
 1254 0152 F0EE480A 		vmov.f32	s1, s16
ARM GAS  C:\Users\CHRIST~1\AppData\Local\Temp\ccx2hCbj.s 			page 23


 1255 0156 2046     		mov	r0, r4
 1256 0158 FFF7FEFF 		bl	buffer_append_float32
 1257              	.LVL106:
 1258              		.loc 1 169 0
 1259 015c FFF7FEFF 		bl	mc_interface_read_reset_avg_id
 1260              	.LVL107:
 1261 0160 2946     		mov	r1, r5
 1262 0162 F0EE480A 		vmov.f32	s1, s16
 1263 0166 2046     		mov	r0, r4
 1264 0168 FFF7FEFF 		bl	buffer_append_float32
 1265              	.LVL108:
 1266              		.loc 1 170 0
 1267 016c FFF7FEFF 		bl	mc_interface_read_reset_avg_iq
 1268              	.LVL109:
 1269 0170 2946     		mov	r1, r5
 1270 0172 F0EE480A 		vmov.f32	s1, s16
 1271 0176 2046     		mov	r0, r4
 1272 0178 FFF7FEFF 		bl	buffer_append_float32
 1273              	.LVL110:
 1274              		.loc 1 171 0
 1275 017c FFF7FEFF 		bl	mc_interface_get_duty_cycle_now
 1276              	.LVL111:
 1277 0180 2946     		mov	r1, r5
 1278 0182 DFED710A 		vldr.32	s1, .L115+16
 1279 0186 2046     		mov	r0, r4
 1280 0188 FFF7FEFF 		bl	buffer_append_float16
 1281              	.LVL112:
 1282              		.loc 1 172 0
 1283 018c FFF7FEFF 		bl	mc_interface_get_rpm
 1284              	.LVL113:
 1285 0190 2946     		mov	r1, r5
 1286 0192 F7EE000A 		vmov.f32	s1, #1.0e+0
 1287 0196 2046     		mov	r0, r4
 1288 0198 FFF7FEFF 		bl	buffer_append_float32
 1289              	.LVL114:
 1290              		.loc 1 173 0
 1291 019c 6B4B     		ldr	r3, .L115+20
 1292 019e 1B8A     		ldrh	r3, [r3, #16]
 1293 01a0 9BB2     		uxth	r3, r3
 1294 01a2 07EE903A 		vmov	s15, r3	@ int
 1295 01a6 F8EE677A 		vcvt.f32.u32	s15, s15
 1296 01aa 9FED697A 		vldr.32	s14, .L115+24
 1297 01ae 67EE877A 		vmul.f32	s15, s15, s14
 1298 01b2 2946     		mov	r1, r5
 1299 01b4 F2EE040A 		vmov.f32	s1, #1.0e+1
 1300 01b8 9FED660A 		vldr.32	s0, .L115+28
 1301 01bc 27EE800A 		vmul.f32	s0, s15, s0
 1302 01c0 2046     		mov	r0, r4
 1303 01c2 FFF7FEFF 		bl	buffer_append_float16
 1304              	.LVL115:
 1305              		.loc 1 174 0
 1306 01c6 0020     		movs	r0, #0
 1307 01c8 FFF7FEFF 		bl	mc_interface_get_amp_hours
 1308              	.LVL116:
 1309 01cc 9FED628A 		vldr.32	s16, .L115+32
 1310 01d0 2946     		mov	r1, r5
 1311 01d2 F0EE480A 		vmov.f32	s1, s16
ARM GAS  C:\Users\CHRIST~1\AppData\Local\Temp\ccx2hCbj.s 			page 24


 1312 01d6 2046     		mov	r0, r4
 1313 01d8 FFF7FEFF 		bl	buffer_append_float32
 1314              	.LVL117:
 1315              		.loc 1 175 0
 1316 01dc 0020     		movs	r0, #0
 1317 01de FFF7FEFF 		bl	mc_interface_get_amp_hours_charged
 1318              	.LVL118:
 1319 01e2 2946     		mov	r1, r5
 1320 01e4 F0EE480A 		vmov.f32	s1, s16
 1321 01e8 2046     		mov	r0, r4
 1322 01ea FFF7FEFF 		bl	buffer_append_float32
 1323              	.LVL119:
 1324              		.loc 1 176 0
 1325 01ee 0020     		movs	r0, #0
 1326 01f0 FFF7FEFF 		bl	mc_interface_get_watt_hours
 1327              	.LVL120:
 1328 01f4 2946     		mov	r1, r5
 1329 01f6 F0EE480A 		vmov.f32	s1, s16
 1330 01fa 2046     		mov	r0, r4
 1331 01fc FFF7FEFF 		bl	buffer_append_float32
 1332              	.LVL121:
 1333              		.loc 1 177 0
 1334 0200 0020     		movs	r0, #0
 1335 0202 FFF7FEFF 		bl	mc_interface_get_watt_hours_charged
 1336              	.LVL122:
 1337 0206 2946     		mov	r1, r5
 1338 0208 F0EE480A 		vmov.f32	s1, s16
 1339 020c 2046     		mov	r0, r4
 1340 020e FFF7FEFF 		bl	buffer_append_float32
 1341              	.LVL123:
 1342              		.loc 1 178 0
 1343 0212 0020     		movs	r0, #0
 1344 0214 FFF7FEFF 		bl	mc_interface_get_tachometer_value
 1345              	.LVL124:
 1346 0218 2A46     		mov	r2, r5
 1347 021a 0146     		mov	r1, r0
 1348 021c 2046     		mov	r0, r4
 1349 021e FFF7FEFF 		bl	buffer_append_int32
 1350              	.LVL125:
 1351              		.loc 1 179 0
 1352 0222 0020     		movs	r0, #0
 1353 0224 FFF7FEFF 		bl	mc_interface_get_tachometer_abs_value
 1354              	.LVL126:
 1355 0228 2A46     		mov	r2, r5
 1356 022a 0146     		mov	r1, r0
 1357 022c 2046     		mov	r0, r4
 1358 022e FFF7FEFF 		bl	buffer_append_int32
 1359              	.LVL127:
 1360              		.loc 1 180 0
 1361 0232 3D9D     		ldr	r5, [sp, #244]
 1362 0234 6B1C     		adds	r3, r5, #1
 1363 0236 3D93     		str	r3, [sp, #244]
 1364 0238 FFF7FEFF 		bl	mc_interface_get_fault
 1365              	.LVL128:
 1366 023c 6055     		strb	r0, [r4, r5]
 1367              		.loc 1 181 0
 1368 023e 3D99     		ldr	r1, [sp, #244]
ARM GAS  C:\Users\CHRIST~1\AppData\Local\Temp\ccx2hCbj.s 			page 25


 1369 0240 2046     		mov	r0, r4
 1370 0242 FFF7FEFF 		bl	commands_send_packet
 1371              	.LVL129:
 1372              		.loc 1 182 0
 1373 0246 2EE7     		b	.L53
 1374              	.LVL130:
 1375              	.L62:
 1376              		.loc 1 186 0
 1377 0248 3DA9     		add	r1, sp, #244
 1378 024a 2046     		mov	r0, r4
 1379 024c FFF7FEFF 		bl	buffer_get_int32
 1380              	.LVL131:
 1381 0250 07EE900A 		vmov	s15, r0	@ int
 1382 0254 B8EEE70A 		vcvt.f32.s32	s0, s15
 1383 0258 DFED407A 		vldr.32	s15, .L115+36
 1384 025c 80EE270A 		vdiv.f32	s0, s0, s15
 1385 0260 FFF7FEFF 		bl	mc_interface_set_duty
 1386              	.LVL132:
 1387              		.loc 1 187 0
 1388 0264 FFF7FEFF 		bl	timeout_reset
 1389              	.LVL133:
 1390              		.loc 1 188 0
 1391 0268 1DE7     		b	.L53
 1392              	.L63:
 1393              		.loc 1 192 0
 1394 026a 3DA9     		add	r1, sp, #244
 1395 026c 2046     		mov	r0, r4
 1396 026e FFF7FEFF 		bl	buffer_get_int32
 1397              	.LVL134:
 1398 0272 07EE900A 		vmov	s15, r0	@ int
 1399 0276 B8EEE70A 		vcvt.f32.s32	s0, s15
 1400 027a DFED337A 		vldr.32	s15, .L115+16
 1401 027e 80EE270A 		vdiv.f32	s0, s0, s15
 1402 0282 FFF7FEFF 		bl	mc_interface_set_current
 1403              	.LVL135:
 1404              		.loc 1 193 0
 1405 0286 FFF7FEFF 		bl	timeout_reset
 1406              	.LVL136:
 1407              		.loc 1 194 0
 1408 028a 0CE7     		b	.L53
 1409              	.L64:
 1410              		.loc 1 198 0
 1411 028c 3DA9     		add	r1, sp, #244
 1412 028e 2046     		mov	r0, r4
 1413 0290 FFF7FEFF 		bl	buffer_get_int32
 1414              	.LVL137:
 1415 0294 07EE900A 		vmov	s15, r0	@ int
 1416 0298 B8EEE70A 		vcvt.f32.s32	s0, s15
 1417 029c DFED2A7A 		vldr.32	s15, .L115+16
 1418 02a0 80EE270A 		vdiv.f32	s0, s0, s15
 1419 02a4 FFF7FEFF 		bl	mc_interface_set_brake_current
 1420              	.LVL138:
 1421              		.loc 1 199 0
 1422 02a8 FFF7FEFF 		bl	timeout_reset
 1423              	.LVL139:
 1424              		.loc 1 200 0
 1425 02ac FBE6     		b	.L53
ARM GAS  C:\Users\CHRIST~1\AppData\Local\Temp\ccx2hCbj.s 			page 26


 1426              	.L65:
 1427              		.loc 1 204 0
 1428 02ae 3DA9     		add	r1, sp, #244
 1429 02b0 2046     		mov	r0, r4
 1430 02b2 FFF7FEFF 		bl	buffer_get_int32
 1431              	.LVL140:
 1432 02b6 07EE900A 		vmov	s15, r0	@ int
 1433 02ba B8EEE70A 		vcvt.f32.s32	s0, s15
 1434 02be FFF7FEFF 		bl	mc_interface_set_pid_speed
 1435              	.LVL141:
 1436              		.loc 1 205 0
 1437 02c2 FFF7FEFF 		bl	timeout_reset
 1438              	.LVL142:
 1439              		.loc 1 206 0
 1440 02c6 EEE6     		b	.L53
 1441              	.L66:
 1442              		.loc 1 210 0
 1443 02c8 3DA9     		add	r1, sp, #244
 1444 02ca 2046     		mov	r0, r4
 1445 02cc FFF7FEFF 		bl	buffer_get_int32
 1446              	.LVL143:
 1447 02d0 07EE900A 		vmov	s15, r0	@ int
 1448 02d4 B8EEE70A 		vcvt.f32.s32	s0, s15
 1449 02d8 DFED217A 		vldr.32	s15, .L115+40
 1450 02dc 80EE270A 		vdiv.f32	s0, s0, s15
 1451 02e0 FFF7FEFF 		bl	mc_interface_set_pid_pos
 1452              	.LVL144:
 1453              		.loc 1 211 0
 1454 02e4 FFF7FEFF 		bl	timeout_reset
 1455              	.LVL145:
 1456              		.loc 1 212 0
 1457 02e8 DDE6     		b	.L53
 1458              	.L67:
 1459              		.loc 1 216 0
 1460 02ea 3DA9     		add	r1, sp, #244
 1461 02ec 9FED160A 		vldr.32	s0, .L115+16
 1462 02f0 2046     		mov	r0, r4
 1463 02f2 FFF7FEFF 		bl	buffer_get_float32
 1464              	.LVL146:
 1465 02f6 FFF7FEFF 		bl	mc_interface_set_handbrake
 1466              	.LVL147:
 1467              		.loc 1 217 0
 1468 02fa FFF7FEFF 		bl	timeout_reset
 1469              	.LVL148:
 1470              		.loc 1 218 0
 1471 02fe D2E6     		b	.L53
 1472              	.L68:
 1473              		.loc 1 221 0
 1474 0300 FFF7FEFF 		bl	mc_interface_get_configuration
 1475              	.LVL149:
 1476 0304 174C     		ldr	r4, .L115+44
 1477              	.LVL150:
 1478 0306 4FF4BA72 		mov	r2, #372
 1479 030a 0146     		mov	r1, r0
 1480 030c 2046     		mov	r0, r4
 1481 030e FFF7FEFF 		bl	memcpy
 1482              	.LVL151:
ARM GAS  C:\Users\CHRIST~1\AppData\Local\Temp\ccx2hCbj.s 			page 27


 1483              		.loc 1 224 0
 1484 0312 0123     		movs	r3, #1
 1485 0314 3D93     		str	r3, [sp, #244]
 1486 0316 7B78     		ldrb	r3, [r7, #1]	@ zero_extendqisi2
 1487 0318 134A     		ldr	r2, .L115+48
 1488 031a 1370     		strb	r3, [r2]
 1489              		.loc 1 226 0
 1490 031c A278     		ldrb	r2, [r4, #2]	@ zero_extendqisi2
 1491 031e 12B9     		cbnz	r2, .L89
 1492              		.loc 1 227 0
 1493 0320 23B9     		cbnz	r3, .L90
 1494              		.loc 1 228 0
 1495 0322 FFF7FEFF 		bl	mc_interface_release_motor
 1496              	.LVL152:
 1497              	.L89:
 1498              		.loc 1 234 0
 1499 0326 FFF7FEFF 		bl	timeout_reset
 1500              	.LVL153:
 1501              		.loc 1 235 0
 1502 032a BCE6     		b	.L53
 1503              	.L90:
 1504              		.loc 1 229 0
 1505 032c 012B     		cmp	r3, #1
 1506 032e FAD1     		bne	.L89
 1507              		.loc 1 230 0
 1508 0330 FFF7FEFF 		bl	mcpwm_set_detect
 1509              	.LVL154:
 1510 0334 F7E7     		b	.L89
 1511              	.L116:
 1512 0336 00BF     		.align	2
 1513              	.L115:
 1514 0338 00000000 		.word	.LANCHOR10
 1515 033c 00000000 		.word	.LC1
 1516 0340 107AFF1F 		.word	536836624
 1517 0344 0000C842 		.word	1120403456
 1518 0348 00007A44 		.word	1148846080
 1519 034c 00000000 		.word	ADC_Value
 1520 0350 6740533A 		.word	978534503
 1521 0354 74D19541 		.word	1100337524
 1522 0358 00401C46 		.word	1176256512
 1523 035c 0050C347 		.word	1203982336
 1524 0360 00247449 		.word	1232348160
 1525 0364 00000000 		.word	.LANCHOR15
 1526 0368 00000000 		.word	.LANCHOR13
 1527              	.LVL155:
 1528              	.L69:
 1529              		.loc 1 249 0
 1530 036c FFF7FEFF 		bl	mc_interface_get_configuration
 1531              	.LVL156:
 1532 0370 E44D     		ldr	r5, .L117
 1533              	.LVL157:
 1534 0372 4FF4BA72 		mov	r2, #372
 1535 0376 0146     		mov	r1, r0
 1536 0378 2846     		mov	r0, r5
 1537 037a FFF7FEFF 		bl	memcpy
 1538              	.LVL158:
 1539              		.loc 1 252 0
ARM GAS  C:\Users\CHRIST~1\AppData\Local\Temp\ccx2hCbj.s 			page 28


 1540 037e 7B78     		ldrb	r3, [r7, #1]	@ zero_extendqisi2
 1541 0380 2B70     		strb	r3, [r5]
 1542              		.loc 1 253 0
 1543 0382 BB78     		ldrb	r3, [r7, #2]	@ zero_extendqisi2
 1544 0384 6B70     		strb	r3, [r5, #1]
 1545              		.loc 1 254 0
 1546 0386 FB78     		ldrb	r3, [r7, #3]	@ zero_extendqisi2
 1547 0388 AB70     		strb	r3, [r5, #2]
 1548              		.loc 1 255 0
 1549 038a 3EAE     		add	r6, sp, #248
 1550              	.LVL159:
 1551 038c 0423     		movs	r3, #4
 1552 038e 46F8043D 		str	r3, [r6, #-4]!
 1553 0392 3B79     		ldrb	r3, [r7, #4]	@ zero_extendqisi2
 1554 0394 EB70     		strb	r3, [r5, #3]
 1555              		.loc 1 257 0
 1556 0396 3146     		mov	r1, r6
 1557 0398 2046     		mov	r0, r4
 1558 039a FFF7FEFF 		bl	buffer_get_float32_auto
 1559              	.LVL160:
 1560 039e 85ED010A 		vstr.32	s0, [r5, #4]
 1561              		.loc 1 258 0
 1562 03a2 3146     		mov	r1, r6
 1563 03a4 2046     		mov	r0, r4
 1564 03a6 FFF7FEFF 		bl	buffer_get_float32_auto
 1565              	.LVL161:
 1566 03aa 85ED020A 		vstr.32	s0, [r5, #8]
 1567              		.loc 1 259 0
 1568 03ae 3146     		mov	r1, r6
 1569 03b0 2046     		mov	r0, r4
 1570 03b2 FFF7FEFF 		bl	buffer_get_float32_auto
 1571              	.LVL162:
 1572 03b6 85ED030A 		vstr.32	s0, [r5, #12]
 1573              		.loc 1 260 0
 1574 03ba 3146     		mov	r1, r6
 1575 03bc 2046     		mov	r0, r4
 1576 03be FFF7FEFF 		bl	buffer_get_float32_auto
 1577              	.LVL163:
 1578 03c2 85ED040A 		vstr.32	s0, [r5, #16]
 1579              		.loc 1 261 0
 1580 03c6 3146     		mov	r1, r6
 1581 03c8 2046     		mov	r0, r4
 1582 03ca FFF7FEFF 		bl	buffer_get_float32_auto
 1583              	.LVL164:
 1584 03ce 85ED050A 		vstr.32	s0, [r5, #20]
 1585              		.loc 1 262 0
 1586 03d2 3146     		mov	r1, r6
 1587 03d4 2046     		mov	r0, r4
 1588 03d6 FFF7FEFF 		bl	buffer_get_float32_auto
 1589              	.LVL165:
 1590 03da 85ED060A 		vstr.32	s0, [r5, #24]
 1591              		.loc 1 263 0
 1592 03de 3146     		mov	r1, r6
 1593 03e0 2046     		mov	r0, r4
 1594 03e2 FFF7FEFF 		bl	buffer_get_float32_auto
 1595              	.LVL166:
 1596 03e6 85ED070A 		vstr.32	s0, [r5, #28]
ARM GAS  C:\Users\CHRIST~1\AppData\Local\Temp\ccx2hCbj.s 			page 29


 1597              		.loc 1 264 0
 1598 03ea 3146     		mov	r1, r6
 1599 03ec 2046     		mov	r0, r4
 1600 03ee FFF7FEFF 		bl	buffer_get_float32_auto
 1601              	.LVL167:
 1602 03f2 85ED080A 		vstr.32	s0, [r5, #32]
 1603              		.loc 1 265 0
 1604 03f6 3146     		mov	r1, r6
 1605 03f8 2046     		mov	r0, r4
 1606 03fa FFF7FEFF 		bl	buffer_get_float32_auto
 1607              	.LVL168:
 1608 03fe 85ED090A 		vstr.32	s0, [r5, #36]
 1609              		.loc 1 266 0
 1610 0402 3146     		mov	r1, r6
 1611 0404 2046     		mov	r0, r4
 1612 0406 FFF7FEFF 		bl	buffer_get_float32_auto
 1613              	.LVL169:
 1614 040a 85ED0A0A 		vstr.32	s0, [r5, #40]
 1615              		.loc 1 267 0
 1616 040e 3146     		mov	r1, r6
 1617 0410 2046     		mov	r0, r4
 1618 0412 FFF7FEFF 		bl	buffer_get_float32_auto
 1619              	.LVL170:
 1620 0416 85ED0B0A 		vstr.32	s0, [r5, #44]
 1621              		.loc 1 268 0
 1622 041a 3146     		mov	r1, r6
 1623 041c 2046     		mov	r0, r4
 1624 041e FFF7FEFF 		bl	buffer_get_float32_auto
 1625              	.LVL171:
 1626 0422 85ED0C0A 		vstr.32	s0, [r5, #48]
 1627              		.loc 1 269 0
 1628 0426 3146     		mov	r1, r6
 1629 0428 2046     		mov	r0, r4
 1630 042a FFF7FEFF 		bl	buffer_get_float32_auto
 1631              	.LVL172:
 1632 042e 85ED0D0A 		vstr.32	s0, [r5, #52]
 1633              		.loc 1 270 0
 1634 0432 3146     		mov	r1, r6
 1635 0434 2046     		mov	r0, r4
 1636 0436 FFF7FEFF 		bl	buffer_get_float32_auto
 1637              	.LVL173:
 1638 043a 85ED0E0A 		vstr.32	s0, [r5, #56]
 1639              		.loc 1 271 0
 1640 043e 3D9B     		ldr	r3, [sp, #244]
 1641 0440 5A1C     		adds	r2, r3, #1
 1642 0442 3D92     		str	r2, [sp, #244]
 1643 0444 E35C     		ldrb	r3, [r4, r3]	@ zero_extendqisi2
 1644 0446 0033     		adds	r3, r3, #0
 1645 0448 18BF     		it	ne
 1646 044a 0123     		movne	r3, #1
 1647 044c 85F83C30 		strb	r3, [r5, #60]
 1648              		.loc 1 272 0
 1649 0450 3146     		mov	r1, r6
 1650 0452 2046     		mov	r0, r4
 1651 0454 FFF7FEFF 		bl	buffer_get_float32_auto
 1652              	.LVL174:
 1653 0458 85ED100A 		vstr.32	s0, [r5, #64]
ARM GAS  C:\Users\CHRIST~1\AppData\Local\Temp\ccx2hCbj.s 			page 30


 1654              		.loc 1 273 0
 1655 045c 3146     		mov	r1, r6
 1656 045e 2046     		mov	r0, r4
 1657 0460 FFF7FEFF 		bl	buffer_get_float32_auto
 1658              	.LVL175:
 1659 0464 85ED110A 		vstr.32	s0, [r5, #68]
 1660              		.loc 1 274 0
 1661 0468 3146     		mov	r1, r6
 1662 046a 2046     		mov	r0, r4
 1663 046c FFF7FEFF 		bl	buffer_get_float32_auto
 1664              	.LVL176:
 1665 0470 85ED120A 		vstr.32	s0, [r5, #72]
 1666              		.loc 1 275 0
 1667 0474 3146     		mov	r1, r6
 1668 0476 2046     		mov	r0, r4
 1669 0478 FFF7FEFF 		bl	buffer_get_float32_auto
 1670              	.LVL177:
 1671 047c 85ED130A 		vstr.32	s0, [r5, #76]
 1672              		.loc 1 276 0
 1673 0480 3146     		mov	r1, r6
 1674 0482 2046     		mov	r0, r4
 1675 0484 FFF7FEFF 		bl	buffer_get_float32_auto
 1676              	.LVL178:
 1677 0488 85ED140A 		vstr.32	s0, [r5, #80]
 1678              		.loc 1 277 0
 1679 048c 3146     		mov	r1, r6
 1680 048e 2046     		mov	r0, r4
 1681 0490 FFF7FEFF 		bl	buffer_get_float32_auto
 1682              	.LVL179:
 1683 0494 85ED150A 		vstr.32	s0, [r5, #84]
 1684              		.loc 1 278 0
 1685 0498 3146     		mov	r1, r6
 1686 049a 2046     		mov	r0, r4
 1687 049c FFF7FEFF 		bl	buffer_get_float32_auto
 1688              	.LVL180:
 1689 04a0 85ED160A 		vstr.32	s0, [r5, #88]
 1690              		.loc 1 279 0
 1691 04a4 3146     		mov	r1, r6
 1692 04a6 2046     		mov	r0, r4
 1693 04a8 FFF7FEFF 		bl	buffer_get_float32_auto
 1694              	.LVL181:
 1695 04ac 85ED170A 		vstr.32	s0, [r5, #92]
 1696              		.loc 1 280 0
 1697 04b0 3146     		mov	r1, r6
 1698 04b2 2046     		mov	r0, r4
 1699 04b4 FFF7FEFF 		bl	buffer_get_float32_auto
 1700              	.LVL182:
 1701 04b8 85ED180A 		vstr.32	s0, [r5, #96]
 1702              		.loc 1 282 0
 1703 04bc 6A68     		ldr	r2, [r5, #4]	@ float
 1704 04be 6A66     		str	r2, [r5, #100]	@ float
 1705              		.loc 1 283 0
 1706 04c0 AB68     		ldr	r3, [r5, #8]	@ float
 1707 04c2 AB66     		str	r3, [r5, #104]	@ float
 1708              		.loc 1 284 0
 1709 04c4 E968     		ldr	r1, [r5, #12]	@ float
 1710 04c6 E966     		str	r1, [r5, #108]	@ float
ARM GAS  C:\Users\CHRIST~1\AppData\Local\Temp\ccx2hCbj.s 			page 31


 1711              		.loc 1 285 0
 1712 04c8 2969     		ldr	r1, [r5, #16]	@ float
 1713 04ca 2967     		str	r1, [r5, #112]	@ float
 1714              		.loc 1 286 0
 1715 04cc 6A67     		str	r2, [r5, #116]	@ float
 1716              		.loc 1 287 0
 1717 04ce AB67     		str	r3, [r5, #120]	@ float
 1718              		.loc 1 289 0
 1719 04d0 3146     		mov	r1, r6
 1720 04d2 2046     		mov	r0, r4
 1721 04d4 FFF7FEFF 		bl	buffer_get_float32_auto
 1722              	.LVL183:
 1723 04d8 85ED1F0A 		vstr.32	s0, [r5, #124]
 1724              		.loc 1 290 0
 1725 04dc 3146     		mov	r1, r6
 1726 04de 2046     		mov	r0, r4
 1727 04e0 FFF7FEFF 		bl	buffer_get_float32_auto
 1728              	.LVL184:
 1729 04e4 85ED200A 		vstr.32	s0, [r5, #128]
 1730              		.loc 1 291 0
 1731 04e8 3146     		mov	r1, r6
 1732 04ea 2046     		mov	r0, r4
 1733 04ec FFF7FEFF 		bl	buffer_get_float32_auto
 1734              	.LVL185:
 1735 04f0 85ED210A 		vstr.32	s0, [r5, #132]
 1736              		.loc 1 292 0
 1737 04f4 3146     		mov	r1, r6
 1738 04f6 2046     		mov	r0, r4
 1739 04f8 FFF7FEFF 		bl	buffer_get_float32_auto
 1740              	.LVL186:
 1741 04fc 85ED220A 		vstr.32	s0, [r5, #136]
 1742              		.loc 1 293 0
 1743 0500 3146     		mov	r1, r6
 1744 0502 2046     		mov	r0, r4
 1745 0504 FFF7FEFF 		bl	buffer_get_float32_auto
 1746              	.LVL187:
 1747 0508 85ED230A 		vstr.32	s0, [r5, #140]
 1748              		.loc 1 294 0
 1749 050c 3146     		mov	r1, r6
 1750 050e 2046     		mov	r0, r4
 1751 0510 FFF7FEFF 		bl	buffer_get_float32_auto
 1752              	.LVL188:
 1753 0514 85ED240A 		vstr.32	s0, [r5, #144]
 1754              		.loc 1 295 0
 1755 0518 3146     		mov	r1, r6
 1756 051a 2046     		mov	r0, r4
 1757 051c FFF7FEFF 		bl	buffer_get_float32_auto
 1758              	.LVL189:
 1759 0520 85ED250A 		vstr.32	s0, [r5, #148]
 1760              		.loc 1 297 0
 1761 0524 3D9B     		ldr	r3, [sp, #244]
 1762 0526 05F19802 		add	r2, r5, #152
 1763 052a E118     		adds	r1, r4, r3
 1764 052c 0868     		ldr	r0, [r1]	@ unaligned
 1765 052e 4968     		ldr	r1, [r1, #4]	@ unaligned
 1766 0530 03C2     		stmia	r2!, {r0, r1}
 1767              		.loc 1 298 0
ARM GAS  C:\Users\CHRIST~1\AppData\Local\Temp\ccx2hCbj.s 			page 32


 1768 0532 0833     		adds	r3, r3, #8
 1769 0534 3D93     		str	r3, [sp, #244]
 1770              		.loc 1 299 0
 1771 0536 3146     		mov	r1, r6
 1772 0538 2046     		mov	r0, r4
 1773 053a FFF7FEFF 		bl	buffer_get_float32_auto
 1774              	.LVL190:
 1775 053e 85ED280A 		vstr.32	s0, [r5, #160]
 1776              		.loc 1 301 0
 1777 0542 3146     		mov	r1, r6
 1778 0544 2046     		mov	r0, r4
 1779 0546 FFF7FEFF 		bl	buffer_get_float32_auto
 1780              	.LVL191:
 1781 054a 85ED290A 		vstr.32	s0, [r5, #164]
 1782              		.loc 1 302 0
 1783 054e 3146     		mov	r1, r6
 1784 0550 2046     		mov	r0, r4
 1785 0552 FFF7FEFF 		bl	buffer_get_float32_auto
 1786              	.LVL192:
 1787 0556 85ED2A0A 		vstr.32	s0, [r5, #168]
 1788              		.loc 1 303 0
 1789 055a 3146     		mov	r1, r6
 1790 055c 2046     		mov	r0, r4
 1791 055e FFF7FEFF 		bl	buffer_get_float32_auto
 1792              	.LVL193:
 1793 0562 85ED2B0A 		vstr.32	s0, [r5, #172]
 1794              		.loc 1 304 0
 1795 0566 3146     		mov	r1, r6
 1796 0568 2046     		mov	r0, r4
 1797 056a FFF7FEFF 		bl	buffer_get_float32_auto
 1798              	.LVL194:
 1799 056e 85ED2C0A 		vstr.32	s0, [r5, #176]
 1800              		.loc 1 305 0
 1801 0572 3D9B     		ldr	r3, [sp, #244]
 1802 0574 5A1C     		adds	r2, r3, #1
 1803 0576 3D92     		str	r2, [sp, #244]
 1804 0578 E35C     		ldrb	r3, [r4, r3]	@ zero_extendqisi2
 1805 057a 0033     		adds	r3, r3, #0
 1806 057c 18BF     		it	ne
 1807 057e 0123     		movne	r3, #1
 1808 0580 85F8B830 		strb	r3, [r5, #184]
 1809              		.loc 1 306 0
 1810 0584 3146     		mov	r1, r6
 1811 0586 2046     		mov	r0, r4
 1812 0588 FFF7FEFF 		bl	buffer_get_float32_auto
 1813              	.LVL195:
 1814 058c 85ED2D0A 		vstr.32	s0, [r5, #180]
 1815              		.loc 1 307 0
 1816 0590 3146     		mov	r1, r6
 1817 0592 2046     		mov	r0, r4
 1818 0594 FFF7FEFF 		bl	buffer_get_float32_auto
 1819              	.LVL196:
 1820 0598 85ED2F0A 		vstr.32	s0, [r5, #188]
 1821              		.loc 1 308 0
 1822 059c 3D9B     		ldr	r3, [sp, #244]
 1823 059e 5A1C     		adds	r2, r3, #1
 1824 05a0 3D92     		str	r2, [sp, #244]
ARM GAS  C:\Users\CHRIST~1\AppData\Local\Temp\ccx2hCbj.s 			page 33


 1825 05a2 E35C     		ldrb	r3, [r4, r3]	@ zero_extendqisi2
 1826 05a4 85F8F830 		strb	r3, [r5, #248]
 1827              		.loc 1 309 0
 1828 05a8 3146     		mov	r1, r6
 1829 05aa 2046     		mov	r0, r4
 1830 05ac FFF7FEFF 		bl	buffer_get_float32_auto
 1831              	.LVL197:
 1832 05b0 85ED350A 		vstr.32	s0, [r5, #212]
 1833              		.loc 1 310 0
 1834 05b4 3146     		mov	r1, r6
 1835 05b6 2046     		mov	r0, r4
 1836 05b8 FFF7FEFF 		bl	buffer_get_float32_auto
 1837              	.LVL198:
 1838 05bc 85ED360A 		vstr.32	s0, [r5, #216]
 1839              		.loc 1 311 0
 1840 05c0 3146     		mov	r1, r6
 1841 05c2 2046     		mov	r0, r4
 1842 05c4 FFF7FEFF 		bl	buffer_get_float32_auto
 1843              	.LVL199:
 1844 05c8 85ED300A 		vstr.32	s0, [r5, #192]
 1845              		.loc 1 312 0
 1846 05cc 3146     		mov	r1, r6
 1847 05ce 2046     		mov	r0, r4
 1848 05d0 FFF7FEFF 		bl	buffer_get_float32_auto
 1849              	.LVL200:
 1850 05d4 85ED310A 		vstr.32	s0, [r5, #196]
 1851              		.loc 1 313 0
 1852 05d8 3146     		mov	r1, r6
 1853 05da 2046     		mov	r0, r4
 1854 05dc FFF7FEFF 		bl	buffer_get_float32_auto
 1855              	.LVL201:
 1856 05e0 85ED320A 		vstr.32	s0, [r5, #200]
 1857              		.loc 1 314 0
 1858 05e4 3146     		mov	r1, r6
 1859 05e6 2046     		mov	r0, r4
 1860 05e8 FFF7FEFF 		bl	buffer_get_float32_auto
 1861              	.LVL202:
 1862 05ec 85ED330A 		vstr.32	s0, [r5, #204]
 1863              		.loc 1 315 0
 1864 05f0 3146     		mov	r1, r6
 1865 05f2 2046     		mov	r0, r4
 1866 05f4 FFF7FEFF 		bl	buffer_get_float32_auto
 1867              	.LVL203:
 1868 05f8 85ED340A 		vstr.32	s0, [r5, #208]
 1869              		.loc 1 316 0
 1870 05fc 3146     		mov	r1, r6
 1871 05fe 2046     		mov	r0, r4
 1872 0600 FFF7FEFF 		bl	buffer_get_float32_auto
 1873              	.LVL204:
 1874 0604 85ED370A 		vstr.32	s0, [r5, #220]
 1875              		.loc 1 317 0
 1876 0608 3146     		mov	r1, r6
 1877 060a 2046     		mov	r0, r4
 1878 060c FFF7FEFF 		bl	buffer_get_float32_auto
 1879              	.LVL205:
 1880 0610 85ED380A 		vstr.32	s0, [r5, #224]
 1881              		.loc 1 318 0
ARM GAS  C:\Users\CHRIST~1\AppData\Local\Temp\ccx2hCbj.s 			page 34


 1882 0614 3146     		mov	r1, r6
 1883 0616 2046     		mov	r0, r4
 1884 0618 FFF7FEFF 		bl	buffer_get_float32_auto
 1885              	.LVL206:
 1886 061c 85ED390A 		vstr.32	s0, [r5, #228]
 1887              		.loc 1 319 0
 1888 0620 3146     		mov	r1, r6
 1889 0622 2046     		mov	r0, r4
 1890 0624 FFF7FEFF 		bl	buffer_get_float32_auto
 1891              	.LVL207:
 1892 0628 85ED3A0A 		vstr.32	s0, [r5, #232]
 1893              		.loc 1 320 0
 1894 062c 3146     		mov	r1, r6
 1895 062e 2046     		mov	r0, r4
 1896 0630 FFF7FEFF 		bl	buffer_get_float32_auto
 1897              	.LVL208:
 1898 0634 85ED3B0A 		vstr.32	s0, [r5, #236]
 1899              		.loc 1 321 0
 1900 0638 3146     		mov	r1, r6
 1901 063a 2046     		mov	r0, r4
 1902 063c FFF7FEFF 		bl	buffer_get_float32_auto
 1903              	.LVL209:
 1904 0640 85ED3C0A 		vstr.32	s0, [r5, #240]
 1905              		.loc 1 322 0
 1906 0644 3146     		mov	r1, r6
 1907 0646 2046     		mov	r0, r4
 1908 0648 FFF7FEFF 		bl	buffer_get_float32_auto
 1909              	.LVL210:
 1910 064c 85ED3D0A 		vstr.32	s0, [r5, #244]
 1911              		.loc 1 323 0
 1912 0650 3D9B     		ldr	r3, [sp, #244]
 1913 0652 E218     		adds	r2, r4, r3
 1914 0654 1168     		ldr	r1, [r2]	@ unaligned
 1915 0656 5268     		ldr	r2, [r2, #4]	@ unaligned
 1916 0658 C5F8F910 		str	r1, [r5, #249]	@ unaligned
 1917 065c C5F8FD20 		str	r2, [r5, #253]	@ unaligned
 1918              		.loc 1 324 0
 1919 0660 0833     		adds	r3, r3, #8
 1920 0662 3D93     		str	r3, [sp, #244]
 1921              		.loc 1 325 0
 1922 0664 3146     		mov	r1, r6
 1923 0666 2046     		mov	r0, r4
 1924 0668 FFF7FEFF 		bl	buffer_get_float32_auto
 1925              	.LVL211:
 1926 066c 85ED410A 		vstr.32	s0, [r5, #260]
 1927              		.loc 1 326 0
 1928 0670 3D9B     		ldr	r3, [sp, #244]
 1929 0672 E25C     		ldrb	r2, [r4, r3]	@ zero_extendqisi2
 1930 0674 0032     		adds	r2, r2, #0
 1931 0676 18BF     		it	ne
 1932 0678 0122     		movne	r2, #1
 1933 067a 85F80821 		strb	r2, [r5, #264]
 1934              		.loc 1 327 0
 1935 067e 9A1C     		adds	r2, r3, #2
 1936 0680 3D92     		str	r2, [sp, #244]
 1937 0682 2344     		add	r3, r3, r4
 1938 0684 5B78     		ldrb	r3, [r3, #1]	@ zero_extendqisi2
ARM GAS  C:\Users\CHRIST~1\AppData\Local\Temp\ccx2hCbj.s 			page 35


 1939 0686 0033     		adds	r3, r3, #0
 1940 0688 18BF     		it	ne
 1941 068a 0123     		movne	r3, #1
 1942 068c 85F80931 		strb	r3, [r5, #265]
 1943              		.loc 1 328 0
 1944 0690 3146     		mov	r1, r6
 1945 0692 2046     		mov	r0, r4
 1946 0694 FFF7FEFF 		bl	buffer_get_float32_auto
 1947              	.LVL212:
 1948 0698 85ED430A 		vstr.32	s0, [r5, #268]
 1949              		.loc 1 329 0
 1950 069c 3D9B     		ldr	r3, [sp, #244]
 1951 069e 5A1C     		adds	r2, r3, #1
 1952 06a0 3D92     		str	r2, [sp, #244]
 1953 06a2 E35C     		ldrb	r3, [r4, r3]	@ zero_extendqisi2
 1954 06a4 0033     		adds	r3, r3, #0
 1955 06a6 18BF     		it	ne
 1956 06a8 0123     		movne	r3, #1
 1957 06aa 85F81031 		strb	r3, [r5, #272]
 1958              		.loc 1 330 0
 1959 06ae 3146     		mov	r1, r6
 1960 06b0 2046     		mov	r0, r4
 1961 06b2 FFF7FEFF 		bl	buffer_get_float32_auto
 1962              	.LVL213:
 1963 06b6 85ED450A 		vstr.32	s0, [r5, #276]
 1964              		.loc 1 332 0
 1965 06ba 3146     		mov	r1, r6
 1966 06bc 2046     		mov	r0, r4
 1967 06be FFF7FEFF 		bl	buffer_get_float32_auto
 1968              	.LVL214:
 1969 06c2 85ED460A 		vstr.32	s0, [r5, #280]
 1970              		.loc 1 333 0
 1971 06c6 3146     		mov	r1, r6
 1972 06c8 2046     		mov	r0, r4
 1973 06ca FFF7FEFF 		bl	buffer_get_float32_auto
 1974              	.LVL215:
 1975 06ce 85ED470A 		vstr.32	s0, [r5, #284]
 1976              		.loc 1 334 0
 1977 06d2 3146     		mov	r1, r6
 1978 06d4 2046     		mov	r0, r4
 1979 06d6 FFF7FEFF 		bl	buffer_get_float32_auto
 1980              	.LVL216:
 1981 06da 85ED480A 		vstr.32	s0, [r5, #288]
 1982              		.loc 1 335 0
 1983 06de 3146     		mov	r1, r6
 1984 06e0 2046     		mov	r0, r4
 1985 06e2 FFF7FEFF 		bl	buffer_get_float32_auto
 1986              	.LVL217:
 1987 06e6 85ED490A 		vstr.32	s0, [r5, #292]
 1988              		.loc 1 336 0
 1989 06ea 3D9B     		ldr	r3, [sp, #244]
 1990 06ec 5A1C     		adds	r2, r3, #1
 1991 06ee 3D92     		str	r2, [sp, #244]
 1992 06f0 E35C     		ldrb	r3, [r4, r3]	@ zero_extendqisi2
 1993 06f2 0033     		adds	r3, r3, #0
 1994 06f4 18BF     		it	ne
 1995 06f6 0123     		movne	r3, #1
ARM GAS  C:\Users\CHRIST~1\AppData\Local\Temp\ccx2hCbj.s 			page 36


 1996 06f8 85F82831 		strb	r3, [r5, #296]
 1997              		.loc 1 338 0
 1998 06fc 3146     		mov	r1, r6
 1999 06fe 2046     		mov	r0, r4
 2000 0700 18E0     		b	.L118
 2001              	.L119:
 2002 0702 00BF     		.align	2
 2003              	.L117:
 2004 0704 00000000 		.word	.LANCHOR15
 2005 0708 0000C842 		.word	1120403456
 2006 070c 0000C8C2 		.word	-1027080192
 2007 0710 00000000 		.word	0
 2008 0714 00001643 		.word	1125515264
 2009 0718 00006442 		.word	1113849856
 2010 071c 00504348 		.word	1212370944
 2011 0720 005043C8 		.word	-935112704
 2012 0724 CDCCCC3D 		.word	1036831949
 2013 0728 3333733F 		.word	1064514355
 2014 072c 0000DC42 		.word	1121714176
 2015 0730 000020C2 		.word	-1038090240
 2016              	.L118:
 2017 0734 FFF7FEFF 		bl	buffer_get_float32_auto
 2018              	.LVL218:
 2019 0738 85ED4B0A 		vstr.32	s0, [r5, #300]
 2020              		.loc 1 339 0
 2021 073c 3146     		mov	r1, r6
 2022 073e 2046     		mov	r0, r4
 2023 0740 FFF7FEFF 		bl	buffer_get_float32_auto
 2024              	.LVL219:
 2025 0744 85ED4C0A 		vstr.32	s0, [r5, #304]
 2026              		.loc 1 340 0
 2027 0748 3146     		mov	r1, r6
 2028 074a 2046     		mov	r0, r4
 2029 074c FFF7FEFF 		bl	buffer_get_float32_auto
 2030              	.LVL220:
 2031 0750 85ED4D0A 		vstr.32	s0, [r5, #308]
 2032              		.loc 1 341 0
 2033 0754 3146     		mov	r1, r6
 2034 0756 2046     		mov	r0, r4
 2035 0758 FFF7FEFF 		bl	buffer_get_float32_auto
 2036              	.LVL221:
 2037 075c 85ED4E0A 		vstr.32	s0, [r5, #312]
 2038              		.loc 1 343 0
 2039 0760 3146     		mov	r1, r6
 2040 0762 2046     		mov	r0, r4
 2041 0764 FFF7FEFF 		bl	buffer_get_float32_auto
 2042              	.LVL222:
 2043 0768 85ED4F0A 		vstr.32	s0, [r5, #316]
 2044              		.loc 1 344 0
 2045 076c 3146     		mov	r1, r6
 2046 076e 2046     		mov	r0, r4
 2047 0770 FFF7FEFF 		bl	buffer_get_float32_auto
 2048              	.LVL223:
 2049 0774 85ED500A 		vstr.32	s0, [r5, #320]
 2050              		.loc 1 345 0
 2051 0778 3146     		mov	r1, r6
 2052 077a 2046     		mov	r0, r4
ARM GAS  C:\Users\CHRIST~1\AppData\Local\Temp\ccx2hCbj.s 			page 37


 2053 077c FFF7FEFF 		bl	buffer_get_float32_auto
 2054              	.LVL224:
 2055 0780 85ED510A 		vstr.32	s0, [r5, #324]
 2056              		.loc 1 346 0
 2057 0784 3146     		mov	r1, r6
 2058 0786 2046     		mov	r0, r4
 2059 0788 FFF7FEFF 		bl	buffer_get_float32_auto
 2060              	.LVL225:
 2061 078c 85ED520A 		vstr.32	s0, [r5, #328]
 2062              		.loc 1 348 0
 2063 0790 3146     		mov	r1, r6
 2064 0792 2046     		mov	r0, r4
 2065 0794 FFF7FEFF 		bl	buffer_get_int32
 2066              	.LVL226:
 2067 0798 C5F84C01 		str	r0, [r5, #332]
 2068              		.loc 1 349 0
 2069 079c 3146     		mov	r1, r6
 2070 079e 2046     		mov	r0, r4
 2071 07a0 FFF7FEFF 		bl	buffer_get_float32_auto
 2072              	.LVL227:
 2073 07a4 85ED540A 		vstr.32	s0, [r5, #336]
 2074              		.loc 1 350 0
 2075 07a8 3146     		mov	r1, r6
 2076 07aa 2046     		mov	r0, r4
 2077 07ac FFF7FEFF 		bl	buffer_get_float32_auto
 2078              	.LVL228:
 2079 07b0 85ED550A 		vstr.32	s0, [r5, #340]
 2080              		.loc 1 351 0
 2081 07b4 3146     		mov	r1, r6
 2082 07b6 2046     		mov	r0, r4
 2083 07b8 FFF7FEFF 		bl	buffer_get_uint32
 2084              	.LVL229:
 2085 07bc C5F85801 		str	r0, [r5, #344]
 2086              		.loc 1 352 0
 2087 07c0 3D9B     		ldr	r3, [sp, #244]
 2088 07c2 E25C     		ldrb	r2, [r4, r3]	@ zero_extendqisi2
 2089 07c4 85F85C21 		strb	r2, [r5, #348]
 2090              		.loc 1 353 0
 2091 07c8 E218     		adds	r2, r4, r3
 2092 07ca 5178     		ldrb	r1, [r2, #1]	@ zero_extendqisi2
 2093 07cc 0031     		adds	r1, r1, #0
 2094 07ce 18BF     		it	ne
 2095 07d0 0121     		movne	r1, #1
 2096 07d2 85F85D11 		strb	r1, [r5, #349]
 2097              		.loc 1 354 0
 2098 07d6 9178     		ldrb	r1, [r2, #2]	@ zero_extendqisi2
 2099 07d8 85F85E11 		strb	r1, [r5, #350]
 2100              		.loc 1 355 0
 2101 07dc 0433     		adds	r3, r3, #4
 2102 07de 3D93     		str	r3, [sp, #244]
 2103 07e0 D378     		ldrb	r3, [r2, #3]	@ zero_extendqisi2
 2104 07e2 C5F86031 		str	r3, [r5, #352]
 2105              		.loc 1 356 0
 2106 07e6 3146     		mov	r1, r6
 2107 07e8 2046     		mov	r0, r4
 2108 07ea FFF7FEFF 		bl	buffer_get_float32_auto
 2109              	.LVL230:
ARM GAS  C:\Users\CHRIST~1\AppData\Local\Temp\ccx2hCbj.s 			page 38


 2110 07ee 85ED590A 		vstr.32	s0, [r5, #356]
 2111              		.loc 1 357 0
 2112 07f2 3146     		mov	r1, r6
 2113 07f4 2046     		mov	r0, r4
 2114 07f6 FFF7FEFF 		bl	buffer_get_float32_auto
 2115              	.LVL231:
 2116 07fa 85ED5A0A 		vstr.32	s0, [r5, #360]
 2117              		.loc 1 358 0
 2118 07fe 3146     		mov	r1, r6
 2119 0800 2046     		mov	r0, r4
 2120 0802 FFF7FEFF 		bl	buffer_get_float32_auto
 2121              	.LVL232:
 2122 0806 85ED5B0A 		vstr.32	s0, [r5, #364]
 2123              		.loc 1 359 0
 2124 080a 3146     		mov	r1, r6
 2125 080c 2046     		mov	r0, r4
 2126 080e FFF7FEFF 		bl	buffer_get_float32_auto
 2127              	.LVL233:
 2128 0812 85ED5C0A 		vstr.32	s0, [r5, #368]
 2129              		.loc 1 364 0
 2130 0816 5FED448A 		vldr.32	s17, .L117+4
 2131 081a 1FED448A 		vldr.32	s16, .L117+8
 2132 081e F0EE680A 		vmov.f32	s1, s17
 2133 0822 B0EE480A 		vmov.f32	s0, s16
 2134 0826 281D     		adds	r0, r5, #4
 2135 0828 FFF7FEFF 		bl	utils_truncate_number
 2136              	.LVL234:
 2137              		.loc 1 365 0
 2138 082c F0EE680A 		vmov.f32	s1, s17
 2139 0830 B0EE480A 		vmov.f32	s0, s16
 2140 0834 05F10800 		add	r0, r5, #8
 2141 0838 FFF7FEFF 		bl	utils_truncate_number
 2142              	.LVL235:
 2143              		.loc 1 368 0
 2144 083c F0EE680A 		vmov.f32	s1, s17
 2145 0840 B0EE480A 		vmov.f32	s0, s16
 2146 0844 05F10C00 		add	r0, r5, #12
 2147 0848 FFF7FEFF 		bl	utils_truncate_number
 2148              	.LVL236:
 2149              		.loc 1 369 0
 2150 084c F0EE680A 		vmov.f32	s1, s17
 2151 0850 B0EE480A 		vmov.f32	s0, s16
 2152 0854 05F11000 		add	r0, r5, #16
 2153 0858 FFF7FEFF 		bl	utils_truncate_number
 2154              	.LVL237:
 2155              		.loc 1 372 0
 2156 085c 1FED548A 		vldr.32	s16, .L117+12
 2157 0860 5FED540A 		vldr.32	s1, .L117+16
 2158 0864 B0EE480A 		vmov.f32	s0, s16
 2159 0868 05F11400 		add	r0, r5, #20
 2160 086c FFF7FEFF 		bl	utils_truncate_number
 2161              	.LVL238:
 2162              		.loc 1 375 0
 2163 0870 5FED578A 		vldr.32	s17, .L117+20
 2164 0874 F0EE680A 		vmov.f32	s1, s17
 2165 0878 B1EE080A 		vmov.f32	s0, #6.0e+0
 2166 087c 05F13000 		add	r0, r5, #48
ARM GAS  C:\Users\CHRIST~1\AppData\Local\Temp\ccx2hCbj.s 			page 39


 2167 0880 FFF7FEFF 		bl	utils_truncate_number
 2168              	.LVL239:
 2169              		.loc 1 376 0
 2170 0884 F0EE680A 		vmov.f32	s1, s17
 2171 0888 B1EE080A 		vmov.f32	s0, #6.0e+0
 2172 088c 05F12C00 		add	r0, r5, #44
 2173 0890 FFF7FEFF 		bl	utils_truncate_number
 2174              	.LVL240:
 2175              		.loc 1 379 0
 2176 0894 1FED5F9A 		vldr.32	s18, .L117+24
 2177 0898 5FED5F8A 		vldr.32	s17, .L117+28
 2178 089c F0EE490A 		vmov.f32	s1, s18
 2179 08a0 B0EE680A 		vmov.f32	s0, s17
 2180 08a4 05F11C00 		add	r0, r5, #28
 2181 08a8 FFF7FEFF 		bl	utils_truncate_number
 2182              	.LVL241:
 2183              		.loc 1 380 0
 2184 08ac F0EE490A 		vmov.f32	s1, s18
 2185 08b0 B0EE680A 		vmov.f32	s0, s17
 2186 08b4 05F11800 		add	r0, r5, #24
 2187 08b8 FFF7FEFF 		bl	utils_truncate_number
 2188              	.LVL242:
 2189              		.loc 1 383 0
 2190 08bc 5FED670A 		vldr.32	s1, .L117+32
 2191 08c0 B0EE480A 		vmov.f32	s0, s16
 2192 08c4 05F15400 		add	r0, r5, #84
 2193 08c8 FFF7FEFF 		bl	utils_truncate_number
 2194              	.LVL243:
 2195              		.loc 1 386 0
 2196 08cc 5FED6A0A 		vldr.32	s1, .L117+36
 2197 08d0 B0EE480A 		vmov.f32	s0, s16
 2198 08d4 05F15800 		add	r0, r5, #88
 2199 08d8 FFF7FEFF 		bl	utils_truncate_number
 2200              	.LVL244:
 2201              		.loc 1 389 0
 2202 08dc 5FED6D8A 		vldr.32	s17, .L117+40
 2203 08e0 1FED6D8A 		vldr.32	s16, .L117+44
 2204 08e4 F0EE680A 		vmov.f32	s1, s17
 2205 08e8 B0EE480A 		vmov.f32	s0, s16
 2206 08ec 05F14000 		add	r0, r5, #64
 2207 08f0 FFF7FEFF 		bl	utils_truncate_number
 2208              	.LVL245:
 2209              		.loc 1 390 0
 2210 08f4 F0EE680A 		vmov.f32	s1, s17
 2211 08f8 B0EE480A 		vmov.f32	s0, s16
 2212 08fc 05F14400 		add	r0, r5, #68
 2213 0900 FFF7FEFF 		bl	utils_truncate_number
 2214              	.LVL246:
 2215              		.loc 1 394 0
 2216 0904 2846     		mov	r0, r5
 2217 0906 FFF7FEFF 		bl	conf_general_store_mc_configuration
 2218              	.LVL247:
 2219              		.loc 1 395 0
 2220 090a 2846     		mov	r0, r5
 2221 090c FFF7FEFF 		bl	mc_interface_set_configuration
 2222              	.LVL248:
 2223              		.loc 1 396 0
ARM GAS  C:\Users\CHRIST~1\AppData\Local\Temp\ccx2hCbj.s 			page 40


 2224 0910 4FF4FA60 		mov	r0, #2000
 2225 0914 FFF7FEFF 		bl	chThdSleep
 2226              	.LVL249:
 2227              		.loc 1 399 0
 2228 0918 0121     		movs	r1, #1
 2229 091a 3D91     		str	r1, [sp, #244]
 2230 091c 0348     		ldr	r0, .L120
 2231 091e 0D23     		movs	r3, #13
 2232 0920 0370     		strb	r3, [r0]
 2233              		.loc 1 400 0
 2234 0922 FFF7FEFF 		bl	commands_send_packet
 2235              	.LVL250:
 2236              		.loc 1 401 0
 2237 0926 FFF7BEBB 		b	.L53
 2238              	.L121:
 2239 092a 00BF     		.align	2
 2240              	.L120:
 2241 092c 00000000 		.word	.LANCHOR10
 2242              	.LVL251:
 2243              	.L70:
 2244              		.loc 1 405 0
 2245 0930 0E2D     		cmp	r5, #14
 2246 0932 00F02582 		beq	.L113
 2247              		.loc 1 408 0
 2248 0936 F248     		ldr	r0, .L122
 2249 0938 FFF7FEFF 		bl	conf_general_get_default_mc_configuration
 2250              	.LVL252:
 2251              	.L92:
 2252              		.loc 1 412 0
 2253 093c F14C     		ldr	r4, .L122+4
 2254              	.LVL253:
 2255 093e 2570     		strb	r5, [r4]
 2256              		.loc 1 414 0
 2257 0940 EF4D     		ldr	r5, .L122
 2258              	.LVL254:
 2259 0942 2B78     		ldrb	r3, [r5]	@ zero_extendqisi2
 2260 0944 6370     		strb	r3, [r4, #1]
 2261              		.loc 1 415 0
 2262 0946 6B78     		ldrb	r3, [r5, #1]	@ zero_extendqisi2
 2263 0948 A370     		strb	r3, [r4, #2]
 2264              		.loc 1 416 0
 2265 094a AB78     		ldrb	r3, [r5, #2]	@ zero_extendqisi2
 2266 094c E370     		strb	r3, [r4, #3]
 2267              		.loc 1 417 0
 2268 094e 3EAE     		add	r6, sp, #248
 2269              	.LVL255:
 2270 0950 0523     		movs	r3, #5
 2271 0952 46F8043D 		str	r3, [r6, #-4]!
 2272 0956 EB78     		ldrb	r3, [r5, #3]	@ zero_extendqisi2
 2273 0958 2371     		strb	r3, [r4, #4]
 2274              		.loc 1 419 0
 2275 095a 3146     		mov	r1, r6
 2276 095c 95ED010A 		vldr.32	s0, [r5, #4]
 2277 0960 2046     		mov	r0, r4
 2278 0962 FFF7FEFF 		bl	buffer_append_float32_auto
 2279              	.LVL256:
 2280              		.loc 1 420 0
ARM GAS  C:\Users\CHRIST~1\AppData\Local\Temp\ccx2hCbj.s 			page 41


 2281 0966 3146     		mov	r1, r6
 2282 0968 95ED020A 		vldr.32	s0, [r5, #8]
 2283 096c 2046     		mov	r0, r4
 2284 096e FFF7FEFF 		bl	buffer_append_float32_auto
 2285              	.LVL257:
 2286              		.loc 1 421 0
 2287 0972 3146     		mov	r1, r6
 2288 0974 95ED030A 		vldr.32	s0, [r5, #12]
 2289 0978 2046     		mov	r0, r4
 2290 097a FFF7FEFF 		bl	buffer_append_float32_auto
 2291              	.LVL258:
 2292              		.loc 1 422 0
 2293 097e 3146     		mov	r1, r6
 2294 0980 95ED040A 		vldr.32	s0, [r5, #16]
 2295 0984 2046     		mov	r0, r4
 2296 0986 FFF7FEFF 		bl	buffer_append_float32_auto
 2297              	.LVL259:
 2298              		.loc 1 423 0
 2299 098a 3146     		mov	r1, r6
 2300 098c 95ED050A 		vldr.32	s0, [r5, #20]
 2301 0990 2046     		mov	r0, r4
 2302 0992 FFF7FEFF 		bl	buffer_append_float32_auto
 2303              	.LVL260:
 2304              		.loc 1 424 0
 2305 0996 3146     		mov	r1, r6
 2306 0998 95ED060A 		vldr.32	s0, [r5, #24]
 2307 099c 2046     		mov	r0, r4
 2308 099e FFF7FEFF 		bl	buffer_append_float32_auto
 2309              	.LVL261:
 2310              		.loc 1 425 0
 2311 09a2 3146     		mov	r1, r6
 2312 09a4 95ED070A 		vldr.32	s0, [r5, #28]
 2313 09a8 2046     		mov	r0, r4
 2314 09aa FFF7FEFF 		bl	buffer_append_float32_auto
 2315              	.LVL262:
 2316              		.loc 1 426 0
 2317 09ae 3146     		mov	r1, r6
 2318 09b0 95ED080A 		vldr.32	s0, [r5, #32]
 2319 09b4 2046     		mov	r0, r4
 2320 09b6 FFF7FEFF 		bl	buffer_append_float32_auto
 2321              	.LVL263:
 2322              		.loc 1 427 0
 2323 09ba 3146     		mov	r1, r6
 2324 09bc 95ED090A 		vldr.32	s0, [r5, #36]
 2325 09c0 2046     		mov	r0, r4
 2326 09c2 FFF7FEFF 		bl	buffer_append_float32_auto
 2327              	.LVL264:
 2328              		.loc 1 428 0
 2329 09c6 3146     		mov	r1, r6
 2330 09c8 95ED0A0A 		vldr.32	s0, [r5, #40]
 2331 09cc 2046     		mov	r0, r4
 2332 09ce FFF7FEFF 		bl	buffer_append_float32_auto
 2333              	.LVL265:
 2334              		.loc 1 429 0
 2335 09d2 3146     		mov	r1, r6
 2336 09d4 95ED0B0A 		vldr.32	s0, [r5, #44]
 2337 09d8 2046     		mov	r0, r4
ARM GAS  C:\Users\CHRIST~1\AppData\Local\Temp\ccx2hCbj.s 			page 42


 2338 09da FFF7FEFF 		bl	buffer_append_float32_auto
 2339              	.LVL266:
 2340              		.loc 1 430 0
 2341 09de 3146     		mov	r1, r6
 2342 09e0 95ED0C0A 		vldr.32	s0, [r5, #48]
 2343 09e4 2046     		mov	r0, r4
 2344 09e6 FFF7FEFF 		bl	buffer_append_float32_auto
 2345              	.LVL267:
 2346              		.loc 1 431 0
 2347 09ea 3146     		mov	r1, r6
 2348 09ec 95ED0D0A 		vldr.32	s0, [r5, #52]
 2349 09f0 2046     		mov	r0, r4
 2350 09f2 FFF7FEFF 		bl	buffer_append_float32_auto
 2351              	.LVL268:
 2352              		.loc 1 432 0
 2353 09f6 3146     		mov	r1, r6
 2354 09f8 95ED0E0A 		vldr.32	s0, [r5, #56]
 2355 09fc 2046     		mov	r0, r4
 2356 09fe FFF7FEFF 		bl	buffer_append_float32_auto
 2357              	.LVL269:
 2358              		.loc 1 433 0
 2359 0a02 95F83C20 		ldrb	r2, [r5, #60]	@ zero_extendqisi2
 2360 0a06 3D9B     		ldr	r3, [sp, #244]
 2361 0a08 591C     		adds	r1, r3, #1
 2362 0a0a 3D91     		str	r1, [sp, #244]
 2363 0a0c E254     		strb	r2, [r4, r3]
 2364              		.loc 1 434 0
 2365 0a0e 3146     		mov	r1, r6
 2366 0a10 95ED100A 		vldr.32	s0, [r5, #64]
 2367 0a14 2046     		mov	r0, r4
 2368 0a16 FFF7FEFF 		bl	buffer_append_float32_auto
 2369              	.LVL270:
 2370              		.loc 1 435 0
 2371 0a1a 3146     		mov	r1, r6
 2372 0a1c 95ED110A 		vldr.32	s0, [r5, #68]
 2373 0a20 2046     		mov	r0, r4
 2374 0a22 FFF7FEFF 		bl	buffer_append_float32_auto
 2375              	.LVL271:
 2376              		.loc 1 436 0
 2377 0a26 3146     		mov	r1, r6
 2378 0a28 95ED120A 		vldr.32	s0, [r5, #72]
 2379 0a2c 2046     		mov	r0, r4
 2380 0a2e FFF7FEFF 		bl	buffer_append_float32_auto
 2381              	.LVL272:
 2382              		.loc 1 437 0
 2383 0a32 3146     		mov	r1, r6
 2384 0a34 95ED130A 		vldr.32	s0, [r5, #76]
 2385 0a38 2046     		mov	r0, r4
 2386 0a3a FFF7FEFF 		bl	buffer_append_float32_auto
 2387              	.LVL273:
 2388              		.loc 1 438 0
 2389 0a3e 3146     		mov	r1, r6
 2390 0a40 95ED140A 		vldr.32	s0, [r5, #80]
 2391 0a44 2046     		mov	r0, r4
 2392 0a46 FFF7FEFF 		bl	buffer_append_float32_auto
 2393              	.LVL274:
 2394              		.loc 1 439 0
ARM GAS  C:\Users\CHRIST~1\AppData\Local\Temp\ccx2hCbj.s 			page 43


 2395 0a4a 3146     		mov	r1, r6
 2396 0a4c 95ED150A 		vldr.32	s0, [r5, #84]
 2397 0a50 2046     		mov	r0, r4
 2398 0a52 FFF7FEFF 		bl	buffer_append_float32_auto
 2399              	.LVL275:
 2400              		.loc 1 440 0
 2401 0a56 3146     		mov	r1, r6
 2402 0a58 95ED160A 		vldr.32	s0, [r5, #88]
 2403 0a5c 2046     		mov	r0, r4
 2404 0a5e FFF7FEFF 		bl	buffer_append_float32_auto
 2405              	.LVL276:
 2406              		.loc 1 441 0
 2407 0a62 3146     		mov	r1, r6
 2408 0a64 95ED170A 		vldr.32	s0, [r5, #92]
 2409 0a68 2046     		mov	r0, r4
 2410 0a6a FFF7FEFF 		bl	buffer_append_float32_auto
 2411              	.LVL277:
 2412              		.loc 1 442 0
 2413 0a6e 3146     		mov	r1, r6
 2414 0a70 95ED180A 		vldr.32	s0, [r5, #96]
 2415 0a74 2046     		mov	r0, r4
 2416 0a76 FFF7FEFF 		bl	buffer_append_float32_auto
 2417              	.LVL278:
 2418              		.loc 1 444 0
 2419 0a7a 3146     		mov	r1, r6
 2420 0a7c 95ED1F0A 		vldr.32	s0, [r5, #124]
 2421 0a80 2046     		mov	r0, r4
 2422 0a82 FFF7FEFF 		bl	buffer_append_float32_auto
 2423              	.LVL279:
 2424              		.loc 1 445 0
 2425 0a86 3146     		mov	r1, r6
 2426 0a88 95ED200A 		vldr.32	s0, [r5, #128]
 2427 0a8c 2046     		mov	r0, r4
 2428 0a8e FFF7FEFF 		bl	buffer_append_float32_auto
 2429              	.LVL280:
 2430              		.loc 1 446 0
 2431 0a92 3146     		mov	r1, r6
 2432 0a94 95ED210A 		vldr.32	s0, [r5, #132]
 2433 0a98 2046     		mov	r0, r4
 2434 0a9a FFF7FEFF 		bl	buffer_append_float32_auto
 2435              	.LVL281:
 2436              		.loc 1 447 0
 2437 0a9e 3146     		mov	r1, r6
 2438 0aa0 95ED220A 		vldr.32	s0, [r5, #136]
 2439 0aa4 2046     		mov	r0, r4
 2440 0aa6 FFF7FEFF 		bl	buffer_append_float32_auto
 2441              	.LVL282:
 2442              		.loc 1 448 0
 2443 0aaa 3146     		mov	r1, r6
 2444 0aac 95ED230A 		vldr.32	s0, [r5, #140]
 2445 0ab0 2046     		mov	r0, r4
 2446 0ab2 FFF7FEFF 		bl	buffer_append_float32_auto
 2447              	.LVL283:
 2448              		.loc 1 449 0
 2449 0ab6 3146     		mov	r1, r6
 2450 0ab8 95ED240A 		vldr.32	s0, [r5, #144]
 2451 0abc 2046     		mov	r0, r4
ARM GAS  C:\Users\CHRIST~1\AppData\Local\Temp\ccx2hCbj.s 			page 44


 2452 0abe FFF7FEFF 		bl	buffer_append_float32_auto
 2453              	.LVL284:
 2454              		.loc 1 450 0
 2455 0ac2 3146     		mov	r1, r6
 2456 0ac4 95ED250A 		vldr.32	s0, [r5, #148]
 2457 0ac8 2046     		mov	r0, r4
 2458 0aca FFF7FEFF 		bl	buffer_append_float32_auto
 2459              	.LVL285:
 2460              		.loc 1 452 0
 2461 0ace 3D9B     		ldr	r3, [sp, #244]
 2462 0ad0 E718     		adds	r7, r4, r3
 2463              	.LVL286:
 2464 0ad2 05F19802 		add	r2, r5, #152
 2465 0ad6 03CA     		ldmia	r2!, {r0, r1}
 2466 0ad8 E050     		str	r0, [r4, r3]	@ unaligned
 2467 0ada 7960     		str	r1, [r7, #4]	@ unaligned
 2468              		.loc 1 453 0
 2469 0adc 0833     		adds	r3, r3, #8
 2470 0ade 3D93     		str	r3, [sp, #244]
 2471              		.loc 1 454 0
 2472 0ae0 3146     		mov	r1, r6
 2473 0ae2 95ED280A 		vldr.32	s0, [r5, #160]
 2474 0ae6 2046     		mov	r0, r4
 2475 0ae8 FFF7FEFF 		bl	buffer_append_float32_auto
 2476              	.LVL287:
 2477              		.loc 1 456 0
 2478 0aec 3146     		mov	r1, r6
 2479 0aee 95ED290A 		vldr.32	s0, [r5, #164]
 2480 0af2 2046     		mov	r0, r4
 2481 0af4 FFF7FEFF 		bl	buffer_append_float32_auto
 2482              	.LVL288:
 2483              		.loc 1 457 0
 2484 0af8 3146     		mov	r1, r6
 2485 0afa 95ED2A0A 		vldr.32	s0, [r5, #168]
 2486 0afe 2046     		mov	r0, r4
 2487 0b00 FFF7FEFF 		bl	buffer_append_float32_auto
 2488              	.LVL289:
 2489              		.loc 1 458 0
 2490 0b04 3146     		mov	r1, r6
 2491 0b06 95ED2B0A 		vldr.32	s0, [r5, #172]
 2492 0b0a 2046     		mov	r0, r4
 2493 0b0c FFF7FEFF 		bl	buffer_append_float32_auto
 2494              	.LVL290:
 2495              		.loc 1 459 0
 2496 0b10 3146     		mov	r1, r6
 2497 0b12 95ED2C0A 		vldr.32	s0, [r5, #176]
 2498 0b16 2046     		mov	r0, r4
 2499 0b18 FFF7FEFF 		bl	buffer_append_float32_auto
 2500              	.LVL291:
 2501              		.loc 1 460 0
 2502 0b1c 95F8B820 		ldrb	r2, [r5, #184]	@ zero_extendqisi2
 2503 0b20 3D9B     		ldr	r3, [sp, #244]
 2504 0b22 591C     		adds	r1, r3, #1
 2505 0b24 3D91     		str	r1, [sp, #244]
 2506 0b26 E254     		strb	r2, [r4, r3]
 2507              		.loc 1 461 0
 2508 0b28 3146     		mov	r1, r6
ARM GAS  C:\Users\CHRIST~1\AppData\Local\Temp\ccx2hCbj.s 			page 45


 2509 0b2a 95ED2D0A 		vldr.32	s0, [r5, #180]
 2510 0b2e 2046     		mov	r0, r4
 2511 0b30 FFF7FEFF 		bl	buffer_append_float32_auto
 2512              	.LVL292:
 2513              		.loc 1 462 0
 2514 0b34 3146     		mov	r1, r6
 2515 0b36 95ED2F0A 		vldr.32	s0, [r5, #188]
 2516 0b3a 2046     		mov	r0, r4
 2517 0b3c FFF7FEFF 		bl	buffer_append_float32_auto
 2518              	.LVL293:
 2519              		.loc 1 463 0
 2520 0b40 3D9B     		ldr	r3, [sp, #244]
 2521 0b42 5A1C     		adds	r2, r3, #1
 2522 0b44 3D92     		str	r2, [sp, #244]
 2523 0b46 95F8F820 		ldrb	r2, [r5, #248]	@ zero_extendqisi2
 2524 0b4a E254     		strb	r2, [r4, r3]
 2525              		.loc 1 464 0
 2526 0b4c 3146     		mov	r1, r6
 2527 0b4e 95ED350A 		vldr.32	s0, [r5, #212]
 2528 0b52 2046     		mov	r0, r4
 2529 0b54 FFF7FEFF 		bl	buffer_append_float32_auto
 2530              	.LVL294:
 2531              		.loc 1 465 0
 2532 0b58 3146     		mov	r1, r6
 2533 0b5a 95ED360A 		vldr.32	s0, [r5, #216]
 2534 0b5e 2046     		mov	r0, r4
 2535 0b60 FFF7FEFF 		bl	buffer_append_float32_auto
 2536              	.LVL295:
 2537              		.loc 1 466 0
 2538 0b64 3146     		mov	r1, r6
 2539 0b66 95ED300A 		vldr.32	s0, [r5, #192]
 2540 0b6a 2046     		mov	r0, r4
 2541 0b6c FFF7FEFF 		bl	buffer_append_float32_auto
 2542              	.LVL296:
 2543              		.loc 1 467 0
 2544 0b70 3146     		mov	r1, r6
 2545 0b72 95ED310A 		vldr.32	s0, [r5, #196]
 2546 0b76 2046     		mov	r0, r4
 2547 0b78 FFF7FEFF 		bl	buffer_append_float32_auto
 2548              	.LVL297:
 2549              		.loc 1 468 0
 2550 0b7c 3146     		mov	r1, r6
 2551 0b7e 95ED320A 		vldr.32	s0, [r5, #200]
 2552 0b82 2046     		mov	r0, r4
 2553 0b84 FFF7FEFF 		bl	buffer_append_float32_auto
 2554              	.LVL298:
 2555              		.loc 1 469 0
 2556 0b88 3146     		mov	r1, r6
 2557 0b8a 95ED330A 		vldr.32	s0, [r5, #204]
 2558 0b8e 2046     		mov	r0, r4
 2559 0b90 FFF7FEFF 		bl	buffer_append_float32_auto
 2560              	.LVL299:
 2561              		.loc 1 470 0
 2562 0b94 3146     		mov	r1, r6
 2563 0b96 95ED340A 		vldr.32	s0, [r5, #208]
 2564 0b9a 2046     		mov	r0, r4
 2565 0b9c FFF7FEFF 		bl	buffer_append_float32_auto
ARM GAS  C:\Users\CHRIST~1\AppData\Local\Temp\ccx2hCbj.s 			page 46


 2566              	.LVL300:
 2567              		.loc 1 471 0
 2568 0ba0 3146     		mov	r1, r6
 2569 0ba2 95ED370A 		vldr.32	s0, [r5, #220]
 2570 0ba6 2046     		mov	r0, r4
 2571 0ba8 FFF7FEFF 		bl	buffer_append_float32_auto
 2572              	.LVL301:
 2573              		.loc 1 472 0
 2574 0bac 3146     		mov	r1, r6
 2575 0bae 95ED380A 		vldr.32	s0, [r5, #224]
 2576 0bb2 2046     		mov	r0, r4
 2577 0bb4 FFF7FEFF 		bl	buffer_append_float32_auto
 2578              	.LVL302:
 2579              		.loc 1 473 0
 2580 0bb8 3146     		mov	r1, r6
 2581 0bba 95ED390A 		vldr.32	s0, [r5, #228]
 2582 0bbe 2046     		mov	r0, r4
 2583 0bc0 FFF7FEFF 		bl	buffer_append_float32_auto
 2584              	.LVL303:
 2585              		.loc 1 474 0
 2586 0bc4 3146     		mov	r1, r6
 2587 0bc6 95ED3A0A 		vldr.32	s0, [r5, #232]
 2588 0bca 2046     		mov	r0, r4
 2589 0bcc FFF7FEFF 		bl	buffer_append_float32_auto
 2590              	.LVL304:
 2591              		.loc 1 475 0
 2592 0bd0 3146     		mov	r1, r6
 2593 0bd2 95ED3B0A 		vldr.32	s0, [r5, #236]
 2594 0bd6 2046     		mov	r0, r4
 2595 0bd8 FFF7FEFF 		bl	buffer_append_float32_auto
 2596              	.LVL305:
 2597              		.loc 1 476 0
 2598 0bdc 3146     		mov	r1, r6
 2599 0bde 95ED3C0A 		vldr.32	s0, [r5, #240]
 2600 0be2 2046     		mov	r0, r4
 2601 0be4 FFF7FEFF 		bl	buffer_append_float32_auto
 2602              	.LVL306:
 2603              		.loc 1 477 0
 2604 0be8 3146     		mov	r1, r6
 2605 0bea 95ED3D0A 		vldr.32	s0, [r5, #244]
 2606 0bee 2046     		mov	r0, r4
 2607 0bf0 FFF7FEFF 		bl	buffer_append_float32_auto
 2608              	.LVL307:
 2609              		.loc 1 478 0
 2610 0bf4 3D9B     		ldr	r3, [sp, #244]
 2611 0bf6 E118     		adds	r1, r4, r3
 2612 0bf8 2A46     		mov	r2, r5
 2613 0bfa 52F8F90F 		ldr	r0, [r2, #249]!	@ unaligned
 2614 0bfe 5268     		ldr	r2, [r2, #4]	@ unaligned
 2615 0c00 E050     		str	r0, [r4, r3]	@ unaligned
 2616 0c02 4A60     		str	r2, [r1, #4]	@ unaligned
 2617              		.loc 1 479 0
 2618 0c04 0833     		adds	r3, r3, #8
 2619 0c06 3D93     		str	r3, [sp, #244]
 2620              		.loc 1 480 0
 2621 0c08 3146     		mov	r1, r6
 2622 0c0a 95ED410A 		vldr.32	s0, [r5, #260]
ARM GAS  C:\Users\CHRIST~1\AppData\Local\Temp\ccx2hCbj.s 			page 47


 2623 0c0e 2046     		mov	r0, r4
 2624 0c10 FFF7FEFF 		bl	buffer_append_float32_auto
 2625              	.LVL308:
 2626              		.loc 1 481 0
 2627 0c14 3D9B     		ldr	r3, [sp, #244]
 2628 0c16 95F80821 		ldrb	r2, [r5, #264]	@ zero_extendqisi2
 2629 0c1a E254     		strb	r2, [r4, r3]
 2630              		.loc 1 482 0
 2631 0c1c 95F80921 		ldrb	r2, [r5, #265]	@ zero_extendqisi2
 2632 0c20 991C     		adds	r1, r3, #2
 2633 0c22 3D91     		str	r1, [sp, #244]
 2634 0c24 2344     		add	r3, r3, r4
 2635 0c26 5A70     		strb	r2, [r3, #1]
 2636              		.loc 1 483 0
 2637 0c28 3146     		mov	r1, r6
 2638 0c2a 95ED430A 		vldr.32	s0, [r5, #268]
 2639 0c2e 2046     		mov	r0, r4
 2640 0c30 FFF7FEFF 		bl	buffer_append_float32_auto
 2641              	.LVL309:
 2642              		.loc 1 484 0
 2643 0c34 95F81021 		ldrb	r2, [r5, #272]	@ zero_extendqisi2
 2644 0c38 3D9B     		ldr	r3, [sp, #244]
 2645 0c3a 591C     		adds	r1, r3, #1
 2646 0c3c 3D91     		str	r1, [sp, #244]
 2647 0c3e E254     		strb	r2, [r4, r3]
 2648              		.loc 1 485 0
 2649 0c40 3146     		mov	r1, r6
 2650 0c42 95ED450A 		vldr.32	s0, [r5, #276]
 2651 0c46 2046     		mov	r0, r4
 2652 0c48 FFF7FEFF 		bl	buffer_append_float32_auto
 2653              	.LVL310:
 2654              		.loc 1 487 0
 2655 0c4c 3146     		mov	r1, r6
 2656 0c4e 95ED460A 		vldr.32	s0, [r5, #280]
 2657 0c52 2046     		mov	r0, r4
 2658 0c54 FFF7FEFF 		bl	buffer_append_float32_auto
 2659              	.LVL311:
 2660              		.loc 1 488 0
 2661 0c58 3146     		mov	r1, r6
 2662 0c5a 95ED470A 		vldr.32	s0, [r5, #284]
 2663 0c5e 2046     		mov	r0, r4
 2664 0c60 FFF7FEFF 		bl	buffer_append_float32_auto
 2665              	.LVL312:
 2666              		.loc 1 489 0
 2667 0c64 3146     		mov	r1, r6
 2668 0c66 95ED480A 		vldr.32	s0, [r5, #288]
 2669 0c6a 2046     		mov	r0, r4
 2670 0c6c FFF7FEFF 		bl	buffer_append_float32_auto
 2671              	.LVL313:
 2672              		.loc 1 490 0
 2673 0c70 3146     		mov	r1, r6
 2674 0c72 95ED490A 		vldr.32	s0, [r5, #292]
 2675 0c76 2046     		mov	r0, r4
 2676 0c78 FFF7FEFF 		bl	buffer_append_float32_auto
 2677              	.LVL314:
 2678              		.loc 1 491 0
 2679 0c7c 95F82821 		ldrb	r2, [r5, #296]	@ zero_extendqisi2
ARM GAS  C:\Users\CHRIST~1\AppData\Local\Temp\ccx2hCbj.s 			page 48


 2680 0c80 3D9B     		ldr	r3, [sp, #244]
 2681 0c82 591C     		adds	r1, r3, #1
 2682 0c84 3D91     		str	r1, [sp, #244]
 2683 0c86 E254     		strb	r2, [r4, r3]
 2684              		.loc 1 493 0
 2685 0c88 3146     		mov	r1, r6
 2686 0c8a 95ED4B0A 		vldr.32	s0, [r5, #300]
 2687 0c8e 2046     		mov	r0, r4
 2688 0c90 FFF7FEFF 		bl	buffer_append_float32_auto
 2689              	.LVL315:
 2690              		.loc 1 494 0
 2691 0c94 3146     		mov	r1, r6
 2692 0c96 95ED4C0A 		vldr.32	s0, [r5, #304]
 2693 0c9a 2046     		mov	r0, r4
 2694 0c9c FFF7FEFF 		bl	buffer_append_float32_auto
 2695              	.LVL316:
 2696              		.loc 1 495 0
 2697 0ca0 3146     		mov	r1, r6
 2698 0ca2 95ED4D0A 		vldr.32	s0, [r5, #308]
 2699 0ca6 2046     		mov	r0, r4
 2700 0ca8 FFF7FEFF 		bl	buffer_append_float32_auto
 2701              	.LVL317:
 2702              		.loc 1 496 0
 2703 0cac 3146     		mov	r1, r6
 2704 0cae 95ED4E0A 		vldr.32	s0, [r5, #312]
 2705 0cb2 2046     		mov	r0, r4
 2706 0cb4 FFF7FEFF 		bl	buffer_append_float32_auto
 2707              	.LVL318:
 2708              		.loc 1 498 0
 2709 0cb8 3146     		mov	r1, r6
 2710 0cba 95ED4F0A 		vldr.32	s0, [r5, #316]
 2711 0cbe 2046     		mov	r0, r4
 2712 0cc0 FFF7FEFF 		bl	buffer_append_float32_auto
 2713              	.LVL319:
 2714              		.loc 1 499 0
 2715 0cc4 3146     		mov	r1, r6
 2716 0cc6 95ED500A 		vldr.32	s0, [r5, #320]
 2717 0cca 2046     		mov	r0, r4
 2718 0ccc FFF7FEFF 		bl	buffer_append_float32_auto
 2719              	.LVL320:
 2720              		.loc 1 500 0
 2721 0cd0 3146     		mov	r1, r6
 2722 0cd2 95ED510A 		vldr.32	s0, [r5, #324]
 2723 0cd6 2046     		mov	r0, r4
 2724 0cd8 FFF7FEFF 		bl	buffer_append_float32_auto
 2725              	.LVL321:
 2726              		.loc 1 501 0
 2727 0cdc 3146     		mov	r1, r6
 2728 0cde 95ED520A 		vldr.32	s0, [r5, #328]
 2729 0ce2 2046     		mov	r0, r4
 2730 0ce4 FFF7FEFF 		bl	buffer_append_float32_auto
 2731              	.LVL322:
 2732              		.loc 1 503 0
 2733 0ce8 3246     		mov	r2, r6
 2734 0cea D5F84C11 		ldr	r1, [r5, #332]
 2735 0cee 2046     		mov	r0, r4
 2736 0cf0 FFF7FEFF 		bl	buffer_append_int32
ARM GAS  C:\Users\CHRIST~1\AppData\Local\Temp\ccx2hCbj.s 			page 49


 2737              	.LVL323:
 2738              		.loc 1 504 0
 2739 0cf4 3146     		mov	r1, r6
 2740 0cf6 95ED540A 		vldr.32	s0, [r5, #336]
 2741 0cfa 2046     		mov	r0, r4
 2742 0cfc 04E0     		b	.L123
 2743              	.L124:
 2744 0cfe 00BF     		.align	2
 2745              	.L122:
 2746 0d00 00000000 		.word	.LANCHOR15
 2747 0d04 00000000 		.word	.LANCHOR10
 2748              	.L123:
 2749 0d08 FFF7FEFF 		bl	buffer_append_float32_auto
 2750              	.LVL324:
 2751              		.loc 1 505 0
 2752 0d0c 3146     		mov	r1, r6
 2753 0d0e 95ED550A 		vldr.32	s0, [r5, #340]
 2754 0d12 2046     		mov	r0, r4
 2755 0d14 FFF7FEFF 		bl	buffer_append_float32_auto
 2756              	.LVL325:
 2757              		.loc 1 506 0
 2758 0d18 3246     		mov	r2, r6
 2759 0d1a D5F85811 		ldr	r1, [r5, #344]
 2760 0d1e 2046     		mov	r0, r4
 2761 0d20 FFF7FEFF 		bl	buffer_append_uint32
 2762              	.LVL326:
 2763              		.loc 1 507 0
 2764 0d24 3D9B     		ldr	r3, [sp, #244]
 2765 0d26 95F85C21 		ldrb	r2, [r5, #348]	@ zero_extendqisi2
 2766 0d2a E254     		strb	r2, [r4, r3]
 2767              		.loc 1 508 0
 2768 0d2c E218     		adds	r2, r4, r3
 2769 0d2e 95F85D11 		ldrb	r1, [r5, #349]	@ zero_extendqisi2
 2770 0d32 5170     		strb	r1, [r2, #1]
 2771              		.loc 1 509 0
 2772 0d34 95F85E11 		ldrb	r1, [r5, #350]	@ zero_extendqisi2
 2773 0d38 9170     		strb	r1, [r2, #2]
 2774              		.loc 1 510 0
 2775 0d3a D5F86011 		ldr	r1, [r5, #352]
 2776 0d3e 0433     		adds	r3, r3, #4
 2777 0d40 3D93     		str	r3, [sp, #244]
 2778 0d42 D170     		strb	r1, [r2, #3]
 2779              		.loc 1 511 0
 2780 0d44 3146     		mov	r1, r6
 2781 0d46 95ED590A 		vldr.32	s0, [r5, #356]
 2782 0d4a 2046     		mov	r0, r4
 2783 0d4c FFF7FEFF 		bl	buffer_append_float32_auto
 2784              	.LVL327:
 2785              		.loc 1 512 0
 2786 0d50 3146     		mov	r1, r6
 2787 0d52 95ED5A0A 		vldr.32	s0, [r5, #360]
 2788 0d56 2046     		mov	r0, r4
 2789 0d58 FFF7FEFF 		bl	buffer_append_float32_auto
 2790              	.LVL328:
 2791              		.loc 1 513 0
 2792 0d5c 3146     		mov	r1, r6
 2793 0d5e 95ED5B0A 		vldr.32	s0, [r5, #364]
ARM GAS  C:\Users\CHRIST~1\AppData\Local\Temp\ccx2hCbj.s 			page 50


 2794 0d62 2046     		mov	r0, r4
 2795 0d64 FFF7FEFF 		bl	buffer_append_float32_auto
 2796              	.LVL329:
 2797              		.loc 1 514 0
 2798 0d68 3146     		mov	r1, r6
 2799 0d6a 95ED5C0A 		vldr.32	s0, [r5, #368]
 2800 0d6e 2046     		mov	r0, r4
 2801 0d70 FFF7FEFF 		bl	buffer_append_float32_auto
 2802              	.LVL330:
 2803              		.loc 1 516 0
 2804 0d74 3D99     		ldr	r1, [sp, #244]
 2805 0d76 2046     		mov	r0, r4
 2806 0d78 FFF7FEFF 		bl	commands_send_packet
 2807              	.LVL331:
 2808              		.loc 1 517 0
 2809 0d7c FFF793B9 		b	.L53
 2810              	.LVL332:
 2811              	.L113:
 2812              		.loc 1 406 0
 2813 0d80 FFF7FEFF 		bl	mc_interface_get_configuration
 2814              	.LVL333:
 2815 0d84 4FF4BA72 		mov	r2, #372
 2816 0d88 0146     		mov	r1, r0
 2817 0d8a 0248     		ldr	r0, .L125
 2818 0d8c FFF7FEFF 		bl	memcpy
 2819              	.LVL334:
 2820 0d90 D4E5     		b	.L92
 2821              	.L126:
 2822 0d92 00BF     		.align	2
 2823              	.L125:
 2824 0d94 00000000 		.word	.LANCHOR15
 2825              	.L71:
 2826              		.loc 1 520 0
 2827 0d98 FFF7FEFF 		bl	app_get_configuration
 2828              	.LVL335:
 2829 0d9c C822     		movs	r2, #200
 2830 0d9e 0146     		mov	r1, r0
 2831 0da0 0BA8     		add	r0, sp, #44
 2832 0da2 FFF7FEFF 		bl	memcpy
 2833              	.LVL336:
 2834              		.loc 1 523 0
 2835 0da6 0125     		movs	r5, #1
 2836              	.LVL337:
 2837 0da8 3D95     		str	r5, [sp, #244]
 2838 0daa 7B78     		ldrb	r3, [r7, #1]	@ zero_extendqisi2
 2839 0dac 8DF82C30 		strb	r3, [sp, #44]
 2840              		.loc 1 524 0
 2841 0db0 3DA9     		add	r1, sp, #244
 2842 0db2 2046     		mov	r0, r4
 2843 0db4 FFF7FEFF 		bl	buffer_get_uint32
 2844              	.LVL338:
 2845 0db8 0C90     		str	r0, [sp, #48]
 2846              		.loc 1 525 0
 2847 0dba 3DA9     		add	r1, sp, #244
 2848 0dbc 2046     		mov	r0, r4
 2849 0dbe FFF7FEFF 		bl	buffer_get_float32_auto
 2850              	.LVL339:
ARM GAS  C:\Users\CHRIST~1\AppData\Local\Temp\ccx2hCbj.s 			page 51


 2851 0dc2 8DED0D0A 		vstr.32	s0, [sp, #52]
 2852              		.loc 1 526 0
 2853 0dc6 3D9B     		ldr	r3, [sp, #244]
 2854 0dc8 5A19     		adds	r2, r3, r5
 2855 0dca 3D92     		str	r2, [sp, #244]
 2856 0dcc E35C     		ldrb	r3, [r4, r3]	@ zero_extendqisi2
 2857 0dce 0033     		adds	r3, r3, #0
 2858 0dd0 18BF     		it	ne
 2859 0dd2 0123     		movne	r3, #1
 2860 0dd4 8DF83830 		strb	r3, [sp, #56]
 2861              		.loc 1 527 0
 2862 0dd8 3DA9     		add	r1, sp, #244
 2863 0dda 2046     		mov	r0, r4
 2864 0ddc FFF7FEFF 		bl	buffer_get_uint16
 2865              	.LVL340:
 2866 0de0 0F90     		str	r0, [sp, #60]
 2867              		.loc 1 528 0
 2868 0de2 3D9B     		ldr	r3, [sp, #244]
 2869 0de4 E25C     		ldrb	r2, [r4, r3]	@ zero_extendqisi2
 2870 0de6 8DF84020 		strb	r2, [sp, #64]
 2871              		.loc 1 530 0
 2872 0dea E218     		adds	r2, r4, r3
 2873 0dec 5178     		ldrb	r1, [r2, #1]	@ zero_extendqisi2
 2874 0dee 8DF84110 		strb	r1, [sp, #65]
 2875              		.loc 1 532 0
 2876 0df2 0333     		adds	r3, r3, #3
 2877 0df4 3D93     		str	r3, [sp, #244]
 2878 0df6 9378     		ldrb	r3, [r2, #2]	@ zero_extendqisi2
 2879 0df8 8DF84430 		strb	r3, [sp, #68]
 2880              		.loc 1 533 0
 2881 0dfc 3DA9     		add	r1, sp, #244
 2882 0dfe 2046     		mov	r0, r4
 2883 0e00 FFF7FEFF 		bl	buffer_get_float32_auto
 2884              	.LVL341:
 2885 0e04 8DED120A 		vstr.32	s0, [sp, #72]
 2886              		.loc 1 534 0
 2887 0e08 3DA9     		add	r1, sp, #244
 2888 0e0a 2046     		mov	r0, r4
 2889 0e0c FFF7FEFF 		bl	buffer_get_float32_auto
 2890              	.LVL342:
 2891 0e10 8DED130A 		vstr.32	s0, [sp, #76]
 2892              		.loc 1 535 0
 2893 0e14 3DA9     		add	r1, sp, #244
 2894 0e16 2046     		mov	r0, r4
 2895 0e18 FFF7FEFF 		bl	buffer_get_float32_auto
 2896              	.LVL343:
 2897 0e1c 8DED140A 		vstr.32	s0, [sp, #80]
 2898              		.loc 1 536 0
 2899 0e20 3DA9     		add	r1, sp, #244
 2900 0e22 2046     		mov	r0, r4
 2901 0e24 FFF7FEFF 		bl	buffer_get_float32_auto
 2902              	.LVL344:
 2903 0e28 8DED150A 		vstr.32	s0, [sp, #84]
 2904              		.loc 1 537 0
 2905 0e2c 3DA9     		add	r1, sp, #244
 2906 0e2e 2046     		mov	r0, r4
 2907 0e30 FFF7FEFF 		bl	buffer_get_float32_auto
ARM GAS  C:\Users\CHRIST~1\AppData\Local\Temp\ccx2hCbj.s 			page 52


 2908              	.LVL345:
 2909 0e34 8DED160A 		vstr.32	s0, [sp, #88]
 2910              		.loc 1 538 0
 2911 0e38 3D9B     		ldr	r3, [sp, #244]
 2912 0e3a E25C     		ldrb	r2, [r4, r3]	@ zero_extendqisi2
 2913 0e3c 0032     		adds	r2, r2, #0
 2914 0e3e 18BF     		it	ne
 2915 0e40 0122     		movne	r2, #1
 2916 0e42 8DF85C20 		strb	r2, [sp, #92]
 2917              		.loc 1 539 0
 2918 0e46 9A1C     		adds	r2, r3, #2
 2919 0e48 3D92     		str	r2, [sp, #244]
 2920 0e4a 2344     		add	r3, r3, r4
 2921 0e4c 5B78     		ldrb	r3, [r3, #1]	@ zero_extendqisi2
 2922 0e4e 0033     		adds	r3, r3, #0
 2923 0e50 18BF     		it	ne
 2924 0e52 0123     		movne	r3, #1
 2925 0e54 8DF85D30 		strb	r3, [sp, #93]
 2926              		.loc 1 540 0
 2927 0e58 3DA9     		add	r1, sp, #244
 2928 0e5a 2046     		mov	r0, r4
 2929 0e5c FFF7FEFF 		bl	buffer_get_float32_auto
 2930              	.LVL346:
 2931 0e60 8DED180A 		vstr.32	s0, [sp, #96]
 2932              		.loc 1 541 0
 2933 0e64 3DA9     		add	r1, sp, #244
 2934 0e66 2046     		mov	r0, r4
 2935 0e68 FFF7FEFF 		bl	buffer_get_float32_auto
 2936              	.LVL347:
 2937 0e6c 8DED190A 		vstr.32	s0, [sp, #100]
 2938              		.loc 1 542 0
 2939 0e70 3D9B     		ldr	r3, [sp, #244]
 2940 0e72 5A19     		adds	r2, r3, r5
 2941 0e74 3D92     		str	r2, [sp, #244]
 2942 0e76 E35C     		ldrb	r3, [r4, r3]	@ zero_extendqisi2
 2943 0e78 8DF86830 		strb	r3, [sp, #104]
 2944              		.loc 1 543 0
 2945 0e7c 3DA9     		add	r1, sp, #244
 2946 0e7e 2046     		mov	r0, r4
 2947 0e80 FFF7FEFF 		bl	buffer_get_float32_auto
 2948              	.LVL348:
 2949 0e84 8DED1B0A 		vstr.32	s0, [sp, #108]
 2950              		.loc 1 544 0
 2951 0e88 3DA9     		add	r1, sp, #244
 2952 0e8a 2046     		mov	r0, r4
 2953 0e8c FFF7FEFF 		bl	buffer_get_float32_auto
 2954              	.LVL349:
 2955 0e90 8DED1C0A 		vstr.32	s0, [sp, #112]
 2956              		.loc 1 545 0
 2957 0e94 3D9B     		ldr	r3, [sp, #244]
 2958 0e96 E25C     		ldrb	r2, [r4, r3]	@ zero_extendqisi2
 2959 0e98 0032     		adds	r2, r2, #0
 2960 0e9a 18BF     		it	ne
 2961 0e9c 0122     		movne	r2, #1
 2962 0e9e 8DF87420 		strb	r2, [sp, #116]
 2963              		.loc 1 546 0
 2964 0ea2 9A1C     		adds	r2, r3, #2
ARM GAS  C:\Users\CHRIST~1\AppData\Local\Temp\ccx2hCbj.s 			page 53


 2965 0ea4 3D92     		str	r2, [sp, #244]
 2966 0ea6 2344     		add	r3, r3, r4
 2967 0ea8 5B78     		ldrb	r3, [r3, #1]	@ zero_extendqisi2
 2968 0eaa 0033     		adds	r3, r3, #0
 2969 0eac 18BF     		it	ne
 2970 0eae 0123     		movne	r3, #1
 2971 0eb0 8DF87530 		strb	r3, [sp, #117]
 2972              		.loc 1 547 0
 2973 0eb4 3DA9     		add	r1, sp, #244
 2974 0eb6 2046     		mov	r0, r4
 2975 0eb8 FFF7FEFF 		bl	buffer_get_float32_auto
 2976              	.LVL350:
 2977 0ebc 8DED1E0A 		vstr.32	s0, [sp, #120]
 2978              		.loc 1 549 0
 2979 0ec0 3D9B     		ldr	r3, [sp, #244]
 2980 0ec2 5A19     		adds	r2, r3, r5
 2981 0ec4 3D92     		str	r2, [sp, #244]
 2982 0ec6 E35C     		ldrb	r3, [r4, r3]	@ zero_extendqisi2
 2983 0ec8 8DF87C30 		strb	r3, [sp, #124]
 2984              		.loc 1 550 0
 2985 0ecc 3DA9     		add	r1, sp, #244
 2986 0ece 2046     		mov	r0, r4
 2987 0ed0 FFF7FEFF 		bl	buffer_get_float32_auto
 2988              	.LVL351:
 2989 0ed4 8DED200A 		vstr.32	s0, [sp, #128]
 2990              		.loc 1 551 0
 2991 0ed8 3DA9     		add	r1, sp, #244
 2992 0eda 2046     		mov	r0, r4
 2993 0edc FFF7FEFF 		bl	buffer_get_float32_auto
 2994              	.LVL352:
 2995 0ee0 8DED210A 		vstr.32	s0, [sp, #132]
 2996              		.loc 1 552 0
 2997 0ee4 3DA9     		add	r1, sp, #244
 2998 0ee6 2046     		mov	r0, r4
 2999 0ee8 FFF7FEFF 		bl	buffer_get_float32_auto
 3000              	.LVL353:
 3001 0eec 8DED220A 		vstr.32	s0, [sp, #136]
 3002              		.loc 1 553 0
 3003 0ef0 3DA9     		add	r1, sp, #244
 3004 0ef2 2046     		mov	r0, r4
 3005 0ef4 FFF7FEFF 		bl	buffer_get_float32_auto
 3006              	.LVL354:
 3007 0ef8 8DED230A 		vstr.32	s0, [sp, #140]
 3008              		.loc 1 554 0
 3009 0efc 3DA9     		add	r1, sp, #244
 3010 0efe 2046     		mov	r0, r4
 3011 0f00 FFF7FEFF 		bl	buffer_get_float32_auto
 3012              	.LVL355:
 3013 0f04 8DED240A 		vstr.32	s0, [sp, #144]
 3014              		.loc 1 555 0
 3015 0f08 3DA9     		add	r1, sp, #244
 3016 0f0a 2046     		mov	r0, r4
 3017 0f0c FFF7FEFF 		bl	buffer_get_float32_auto
 3018              	.LVL356:
 3019 0f10 8DED250A 		vstr.32	s0, [sp, #148]
 3020              		.loc 1 556 0
 3021 0f14 3D9A     		ldr	r2, [sp, #244]
ARM GAS  C:\Users\CHRIST~1\AppData\Local\Temp\ccx2hCbj.s 			page 54


 3022 0f16 A35C     		ldrb	r3, [r4, r2]	@ zero_extendqisi2
 3023 0f18 0033     		adds	r3, r3, #0
 3024 0f1a 18BF     		it	ne
 3025 0f1c 0123     		movne	r3, #1
 3026 0f1e 8DF89830 		strb	r3, [sp, #152]
 3027              		.loc 1 557 0
 3028 0f22 A318     		adds	r3, r4, r2
 3029 0f24 5978     		ldrb	r1, [r3, #1]	@ zero_extendqisi2
 3030 0f26 0031     		adds	r1, r1, #0
 3031 0f28 18BF     		it	ne
 3032 0f2a 0121     		movne	r1, #1
 3033 0f2c 8DF89910 		strb	r1, [sp, #153]
 3034              		.loc 1 558 0
 3035 0f30 9978     		ldrb	r1, [r3, #2]	@ zero_extendqisi2
 3036 0f32 0031     		adds	r1, r1, #0
 3037 0f34 18BF     		it	ne
 3038 0f36 0121     		movne	r1, #1
 3039 0f38 8DF89A10 		strb	r1, [sp, #154]
 3040              		.loc 1 559 0
 3041 0f3c D978     		ldrb	r1, [r3, #3]	@ zero_extendqisi2
 3042 0f3e 0031     		adds	r1, r1, #0
 3043 0f40 18BF     		it	ne
 3044 0f42 0121     		movne	r1, #1
 3045 0f44 8DF89B10 		strb	r1, [sp, #155]
 3046              		.loc 1 560 0
 3047 0f48 1979     		ldrb	r1, [r3, #4]	@ zero_extendqisi2
 3048 0f4a 0031     		adds	r1, r1, #0
 3049 0f4c 18BF     		it	ne
 3050 0f4e 0121     		movne	r1, #1
 3051 0f50 8DF89C10 		strb	r1, [sp, #156]
 3052              		.loc 1 561 0
 3053 0f54 0632     		adds	r2, r2, #6
 3054 0f56 3D92     		str	r2, [sp, #244]
 3055 0f58 5B79     		ldrb	r3, [r3, #5]	@ zero_extendqisi2
 3056 0f5a 0033     		adds	r3, r3, #0
 3057 0f5c 18BF     		it	ne
 3058 0f5e 0123     		movne	r3, #1
 3059 0f60 8DF89D30 		strb	r3, [sp, #157]
 3060              		.loc 1 562 0
 3061 0f64 3DA9     		add	r1, sp, #244
 3062 0f66 2046     		mov	r0, r4
 3063 0f68 FFF7FEFF 		bl	buffer_get_float32_auto
 3064              	.LVL357:
 3065 0f6c 8DED280A 		vstr.32	s0, [sp, #160]
 3066              		.loc 1 563 0
 3067 0f70 3DA9     		add	r1, sp, #244
 3068 0f72 2046     		mov	r0, r4
 3069 0f74 FFF7FEFF 		bl	buffer_get_float32_auto
 3070              	.LVL358:
 3071 0f78 8DED290A 		vstr.32	s0, [sp, #164]
 3072              		.loc 1 564 0
 3073 0f7c 3D9B     		ldr	r3, [sp, #244]
 3074 0f7e 5A19     		adds	r2, r3, r5
 3075 0f80 3D92     		str	r2, [sp, #244]
 3076 0f82 E35C     		ldrb	r3, [r4, r3]	@ zero_extendqisi2
 3077 0f84 8DF8A830 		strb	r3, [sp, #168]
 3078              		.loc 1 565 0
ARM GAS  C:\Users\CHRIST~1\AppData\Local\Temp\ccx2hCbj.s 			page 55


 3079 0f88 3DA9     		add	r1, sp, #244
 3080 0f8a 2046     		mov	r0, r4
 3081 0f8c FFF7FEFF 		bl	buffer_get_float32_auto
 3082              	.LVL359:
 3083 0f90 8DED2B0A 		vstr.32	s0, [sp, #172]
 3084              		.loc 1 566 0
 3085 0f94 3DA9     		add	r1, sp, #244
 3086 0f96 2046     		mov	r0, r4
 3087 0f98 FFF7FEFF 		bl	buffer_get_float32_auto
 3088              	.LVL360:
 3089 0f9c 8DED2C0A 		vstr.32	s0, [sp, #176]
 3090              		.loc 1 567 0
 3091 0fa0 3D9B     		ldr	r3, [sp, #244]
 3092 0fa2 E25C     		ldrb	r2, [r4, r3]	@ zero_extendqisi2
 3093 0fa4 0032     		adds	r2, r2, #0
 3094 0fa6 18BF     		it	ne
 3095 0fa8 0122     		movne	r2, #1
 3096 0faa 8DF8B420 		strb	r2, [sp, #180]
 3097              		.loc 1 568 0
 3098 0fae 9A1C     		adds	r2, r3, #2
 3099 0fb0 3D92     		str	r2, [sp, #244]
 3100 0fb2 2344     		add	r3, r3, r4
 3101 0fb4 5B78     		ldrb	r3, [r3, #1]	@ zero_extendqisi2
 3102 0fb6 0033     		adds	r3, r3, #0
 3103 0fb8 18BF     		it	ne
 3104 0fba 0123     		movne	r3, #1
 3105 0fbc 8DF8B530 		strb	r3, [sp, #181]
 3106              		.loc 1 569 0
 3107 0fc0 3DA9     		add	r1, sp, #244
 3108 0fc2 2046     		mov	r0, r4
 3109 0fc4 FFF7FEFF 		bl	buffer_get_float32_auto
 3110              	.LVL361:
 3111 0fc8 8DED2E0A 		vstr.32	s0, [sp, #184]
 3112              		.loc 1 570 0
 3113 0fcc 3DA9     		add	r1, sp, #244
 3114 0fce 2046     		mov	r0, r4
 3115 0fd0 FFF7FEFF 		bl	buffer_get_uint16
 3116              	.LVL362:
 3117 0fd4 2F90     		str	r0, [sp, #188]
 3118              		.loc 1 572 0
 3119 0fd6 3DA9     		add	r1, sp, #244
 3120 0fd8 2046     		mov	r0, r4
 3121 0fda FFF7FEFF 		bl	buffer_get_uint32
 3122              	.LVL363:
 3123 0fde 3090     		str	r0, [sp, #192]
 3124              		.loc 1 574 0
 3125 0fe0 3D9B     		ldr	r3, [sp, #244]
 3126 0fe2 5A19     		adds	r2, r3, r5
 3127 0fe4 3D92     		str	r2, [sp, #244]
 3128 0fe6 E35C     		ldrb	r3, [r4, r3]	@ zero_extendqisi2
 3129 0fe8 8DF8C430 		strb	r3, [sp, #196]
 3130              		.loc 1 575 0
 3131 0fec 3DA9     		add	r1, sp, #244
 3132 0fee 2046     		mov	r0, r4
 3133 0ff0 FFF7FEFF 		bl	buffer_get_float32_auto
 3134              	.LVL364:
 3135 0ff4 8DED320A 		vstr.32	s0, [sp, #200]
ARM GAS  C:\Users\CHRIST~1\AppData\Local\Temp\ccx2hCbj.s 			page 56


 3136              		.loc 1 576 0
 3137 0ff8 3DA9     		add	r1, sp, #244
 3138 0ffa 2046     		mov	r0, r4
 3139 0ffc FFF7FEFF 		bl	buffer_get_float32_auto
 3140              	.LVL365:
 3141 1000 8DED330A 		vstr.32	s0, [sp, #204]
 3142              		.loc 1 577 0
 3143 1004 3DA9     		add	r1, sp, #244
 3144 1006 2046     		mov	r0, r4
 3145 1008 FFF7FEFF 		bl	buffer_get_float32_auto
 3146              	.LVL366:
 3147 100c 8DED340A 		vstr.32	s0, [sp, #208]
 3148              		.loc 1 578 0
 3149 1010 3DA9     		add	r1, sp, #244
 3150 1012 2046     		mov	r0, r4
 3151 1014 FFF7FEFF 		bl	buffer_get_float32_auto
 3152              	.LVL367:
 3153 1018 8DED350A 		vstr.32	s0, [sp, #212]
 3154              		.loc 1 579 0
 3155 101c 3DA9     		add	r1, sp, #244
 3156 101e 2046     		mov	r0, r4
 3157 1020 FFF7FEFF 		bl	buffer_get_float32_auto
 3158              	.LVL368:
 3159 1024 8DED360A 		vstr.32	s0, [sp, #216]
 3160              		.loc 1 580 0
 3161 1028 3DA9     		add	r1, sp, #244
 3162 102a 2046     		mov	r0, r4
 3163 102c FFF7FEFF 		bl	buffer_get_float32_auto
 3164              	.LVL369:
 3165 1030 8DED370A 		vstr.32	s0, [sp, #220]
 3166              		.loc 1 581 0
 3167 1034 3D9B     		ldr	r3, [sp, #244]
 3168 1036 E25C     		ldrb	r2, [r4, r3]	@ zero_extendqisi2
 3169 1038 8DF8E020 		strb	r2, [sp, #224]
 3170              		.loc 1 582 0
 3171 103c E118     		adds	r1, r4, r3
 3172 103e 4A78     		ldrb	r2, [r1, #1]	@ zero_extendqisi2
 3173 1040 0032     		adds	r2, r2, #0
 3174 1042 18BF     		it	ne
 3175 1044 0122     		movne	r2, #1
 3176 1046 8DF8E120 		strb	r2, [sp, #225]
 3177              		.loc 1 583 0
 3178 104a 0333     		adds	r3, r3, #3
 3179 104c 3D93     		str	r3, [sp, #244]
 3180 104e 8B78     		ldrb	r3, [r1, #2]	@ zero_extendqisi2
 3181 1050 0033     		adds	r3, r3, #0
 3182 1052 18BF     		it	ne
 3183 1054 0123     		movne	r3, #1
 3184 1056 8DF8E230 		strb	r3, [sp, #226]
 3185              		.loc 1 584 0
 3186 105a 3DA9     		add	r1, sp, #244
 3187 105c 2046     		mov	r0, r4
 3188 105e FFF7FEFF 		bl	buffer_get_float32_auto
 3189              	.LVL370:
 3190 1062 8DED390A 		vstr.32	s0, [sp, #228]
 3191              		.loc 1 586 0
 3192 1066 3D9B     		ldr	r3, [sp, #244]
ARM GAS  C:\Users\CHRIST~1\AppData\Local\Temp\ccx2hCbj.s 			page 57


 3193 1068 E25C     		ldrb	r2, [r4, r3]	@ zero_extendqisi2
 3194 106a 8DF8E820 		strb	r2, [sp, #232]
 3195              		.loc 1 587 0
 3196 106e 1C44     		add	r4, r4, r3
 3197              	.LVL371:
 3198 1070 6278     		ldrb	r2, [r4, #1]	@ zero_extendqisi2
 3199 1072 8DF8E920 		strb	r2, [sp, #233]
 3200              		.loc 1 588 0
 3201 1076 A278     		ldrb	r2, [r4, #2]	@ zero_extendqisi2
 3202 1078 8DF8EA20 		strb	r2, [sp, #234]
 3203              		.loc 1 589 0
 3204 107c E278     		ldrb	r2, [r4, #3]	@ zero_extendqisi2
 3205 107e 8DF8EB20 		strb	r2, [sp, #235]
 3206              		.loc 1 590 0
 3207 1082 2279     		ldrb	r2, [r4, #4]	@ zero_extendqisi2
 3208 1084 8DF8EC20 		strb	r2, [sp, #236]
 3209              		.loc 1 591 0
 3210 1088 6279     		ldrb	r2, [r4, #5]	@ zero_extendqisi2
 3211 108a 8DF8ED20 		strb	r2, [sp, #237]
 3212              		.loc 1 592 0
 3213 108e 2246     		mov	r2, r4
 3214 1090 32F8061F 		ldrh	r1, [r2, #6]!	@ unaligned
 3215 1094 9278     		ldrb	r2, [r2, #2]	@ zero_extendqisi2
 3216 1096 ADF8EE10 		strh	r1, [sp, #238]	@ unaligned
 3217 109a 8DF8F020 		strb	r2, [sp, #240]
 3218              		.loc 1 594 0
 3219 109e 0A33     		adds	r3, r3, #10
 3220 10a0 3D93     		str	r3, [sp, #244]
 3221 10a2 637A     		ldrb	r3, [r4, #9]	@ zero_extendqisi2
 3222 10a4 0033     		adds	r3, r3, #0
 3223 10a6 18BF     		it	ne
 3224 10a8 0123     		movne	r3, #1
 3225 10aa 8DF8F130 		strb	r3, [sp, #241]
 3226              		.loc 1 596 0
 3227 10ae 0BA8     		add	r0, sp, #44
 3228 10b0 FFF7FEFF 		bl	conf_general_store_app_configuration
 3229              	.LVL372:
 3230              		.loc 1 597 0
 3231 10b4 0BA8     		add	r0, sp, #44
 3232 10b6 FFF7FEFF 		bl	app_set_configuration
 3233              	.LVL373:
 3234              		.loc 1 598 0
 3235 10ba 9DED0D0A 		vldr.32	s0, [sp, #52]
 3236 10be 0C98     		ldr	r0, [sp, #48]
 3237 10c0 FFF7FEFF 		bl	timeout_configure
 3238              	.LVL374:
 3239              		.loc 1 599 0
 3240 10c4 4FF4FA60 		mov	r0, #2000
 3241 10c8 FFF7FEFF 		bl	chThdSleep
 3242              	.LVL375:
 3243              		.loc 1 602 0
 3244 10cc 3D95     		str	r5, [sp, #244]
 3245 10ce C448     		ldr	r0, .L127
 3246 10d0 1023     		movs	r3, #16
 3247 10d2 0370     		strb	r3, [r0]
 3248              		.loc 1 603 0
 3249 10d4 2946     		mov	r1, r5
ARM GAS  C:\Users\CHRIST~1\AppData\Local\Temp\ccx2hCbj.s 			page 58


 3250 10d6 FFF7FEFF 		bl	commands_send_packet
 3251              	.LVL376:
 3252              		.loc 1 604 0
 3253 10da FEF7E4BF 		b	.L53
 3254              	.LVL377:
 3255              	.L72:
 3256              		.loc 1 608 0
 3257 10de 112D     		cmp	r5, #17
 3258 10e0 08D0     		beq	.L114
 3259              		.loc 1 611 0
 3260 10e2 0BA8     		add	r0, sp, #44
 3261 10e4 FFF7FEFF 		bl	conf_general_get_default_app_configuration
 3262              	.LVL378:
 3263              	.L94:
 3264              		.loc 1 614 0
 3265 10e8 0BA9     		add	r1, sp, #44
 3266 10ea 2846     		mov	r0, r5
 3267 10ec FFF7FEFF 		bl	commands_send_appconf
 3268              	.LVL379:
 3269              		.loc 1 615 0
 3270 10f0 FEF7D9BF 		b	.L53
 3271              	.L114:
 3272              		.loc 1 609 0
 3273 10f4 FFF7FEFF 		bl	app_get_configuration
 3274              	.LVL380:
 3275 10f8 C822     		movs	r2, #200
 3276 10fa 0146     		mov	r1, r0
 3277 10fc 0BA8     		add	r0, sp, #44
 3278 10fe FFF7FEFF 		bl	memcpy
 3279              	.LVL381:
 3280 1102 F1E7     		b	.L94
 3281              	.L73:
 3282              	.LBB18:
 3283              		.loc 1 623 0
 3284 1104 3EA9     		add	r1, sp, #248
 3285 1106 0123     		movs	r3, #1
 3286 1108 41F8043D 		str	r3, [r1, #-4]!
 3287 110c 4578     		ldrb	r5, [r0, #1]	@ zero_extendqisi2
 3288              	.LVL382:
 3289              		.loc 1 624 0
 3290 110e 2046     		mov	r0, r4
 3291              	.LVL383:
 3292 1110 FFF7FEFF 		bl	buffer_get_uint16
 3293              	.LVL384:
 3294              		.loc 1 625 0
 3295 1114 3D9B     		ldr	r3, [sp, #244]
 3296 1116 5A1C     		adds	r2, r3, #1
 3297 1118 3D92     		str	r2, [sp, #244]
 3298              	.LVL385:
 3299              		.loc 1 626 0
 3300 111a E25C     		ldrb	r2, [r4, r3]	@ zero_extendqisi2
 3301 111c 0146     		mov	r1, r0
 3302 111e 2846     		mov	r0, r5
 3303              	.LVL386:
 3304 1120 FFF7FEFF 		bl	mc_interface_sample_print_data
 3305              	.LVL387:
 3306              	.LBE18:
ARM GAS  C:\Users\CHRIST~1\AppData\Local\Temp\ccx2hCbj.s 			page 59


 3307              		.loc 1 627 0
 3308 1124 FEF7BFBF 		b	.L53
 3309              	.LVL388:
 3310              	.L74:
 3311              		.loc 1 630 0
 3312 1128 0023     		movs	r3, #0
 3313 112a 4354     		strb	r3, [r0, r1]
 3314              		.loc 1 631 0
 3315 112c 2046     		mov	r0, r4
 3316 112e FFF7FEFF 		bl	terminal_process_string
 3317              	.LVL389:
 3318              		.loc 1 632 0
 3319 1132 FEF7B8BF 		b	.L53
 3320              	.L75:
 3321              		.loc 1 636 0
 3322 1136 9FEDAB8A 		vldr.32	s16, .L127+4
 3323 113a 3DA9     		add	r1, sp, #244
 3324 113c B0EE480A 		vmov.f32	s0, s16
 3325 1140 2046     		mov	r0, r4
 3326 1142 FFF7FEFF 		bl	buffer_get_float32
 3327              	.LVL390:
 3328 1146 A84B     		ldr	r3, .L127+8
 3329 1148 83ED000A 		vstr.32	s0, [r3]
 3330              		.loc 1 637 0
 3331 114c 3DA9     		add	r1, sp, #244
 3332 114e B0EE480A 		vmov.f32	s0, s16
 3333 1152 2046     		mov	r0, r4
 3334 1154 FFF7FEFF 		bl	buffer_get_float32
 3335              	.LVL391:
 3336 1158 A44B     		ldr	r3, .L127+12
 3337 115a 83ED000A 		vstr.32	s0, [r3]
 3338              		.loc 1 638 0
 3339 115e 3DA9     		add	r1, sp, #244
 3340 1160 B0EE480A 		vmov.f32	s0, s16
 3341 1164 2046     		mov	r0, r4
 3342 1166 FFF7FEFF 		bl	buffer_get_float32
 3343              	.LVL392:
 3344 116a A14B     		ldr	r3, .L127+16
 3345 116c 83ED000A 		vstr.32	s0, [r3]
 3346              		.loc 1 640 0
 3347 1170 A04B     		ldr	r3, .L127+20
 3348 1172 1A68     		ldr	r2, [r3]
 3349 1174 A04B     		ldr	r3, .L127+24
 3350 1176 1A60     		str	r2, [r3]
 3351              		.loc 1 642 0
 3352 1178 0121     		movs	r1, #1
 3353 117a A04B     		ldr	r3, .L127+28
 3354 117c 1868     		ldr	r0, [r3]
 3355 117e FFF7FEFF 		bl	chEvtSignal
 3356              	.LVL393:
 3357              		.loc 1 643 0
 3358 1182 FEF790BF 		b	.L53
 3359              	.L76:
 3360              	.LBB19:
 3361              		.loc 1 646 0
 3362 1186 FFF7FEFF 		bl	mc_interface_get_configuration
 3363              	.LVL394:
ARM GAS  C:\Users\CHRIST~1\AppData\Local\Temp\ccx2hCbj.s 			page 60


 3364 118a 9D4C     		ldr	r4, .L127+32
 3365              	.LVL395:
 3366 118c 4FF4BA76 		mov	r6, #372
 3367              	.LVL396:
 3368 1190 3246     		mov	r2, r6
 3369 1192 0146     		mov	r1, r0
 3370 1194 2046     		mov	r0, r4
 3371 1196 FFF7FEFF 		bl	memcpy
 3372              	.LVL397:
 3373              		.loc 1 647 0
 3374 119a 9A4D     		ldr	r5, .L127+36
 3375              	.LVL398:
 3376 119c 3246     		mov	r2, r6
 3377 119e 2146     		mov	r1, r4
 3378 11a0 2846     		mov	r0, r5
 3379 11a2 FFF7FEFF 		bl	memcpy
 3380              	.LVL399:
 3381              		.loc 1 649 0
 3382 11a6 934B     		ldr	r3, .L127+20
 3383 11a8 1A68     		ldr	r2, [r3]
 3384 11aa 934B     		ldr	r3, .L127+24
 3385 11ac 1A60     		str	r2, [r3]
 3386              		.loc 1 651 0
 3387 11ae 0223     		movs	r3, #2
 3388 11b0 A370     		strb	r3, [r4, #2]
 3389              		.loc 1 652 0
 3390 11b2 2046     		mov	r0, r4
 3391 11b4 FFF7FEFF 		bl	mc_interface_set_configuration
 3392              	.LVL400:
 3393              		.loc 1 654 0
 3394 11b8 0023     		movs	r3, #0
 3395 11ba 0293     		str	r3, [sp, #8]	@ float
 3396              		.loc 1 655 0
 3397 11bc 3EA9     		add	r1, sp, #248
 3398 11be 41F8EC3D 		str	r3, [r1, #-236]!	@ float
 3399              		.loc 1 656 0
 3400 11c2 02A8     		add	r0, sp, #8
 3401 11c4 FFF7FEFF 		bl	mcpwm_foc_measure_res_ind
 3402              	.LVL401:
 3403 11c8 0446     		mov	r4, r0
 3404              	.LVL402:
 3405              		.loc 1 657 0
 3406 11ca 2846     		mov	r0, r5
 3407 11cc FFF7FEFF 		bl	mc_interface_set_configuration
 3408              	.LVL403:
 3409              		.loc 1 659 0
 3410 11d0 14B9     		cbnz	r4, .L95
 3411              		.loc 1 660 0
 3412 11d2 0023     		movs	r3, #0
 3413 11d4 0293     		str	r3, [sp, #8]	@ float
 3414              		.loc 1 661 0
 3415 11d6 0393     		str	r3, [sp, #12]	@ float
 3416              	.L95:
 3417              		.loc 1 665 0
 3418 11d8 3EAC     		add	r4, sp, #248
 3419              	.LVL404:
 3420 11da 0123     		movs	r3, #1
ARM GAS  C:\Users\CHRIST~1\AppData\Local\Temp\ccx2hCbj.s 			page 61


 3421 11dc 44F8043D 		str	r3, [r4, #-4]!
 3422 11e0 7F4D     		ldr	r5, .L127
 3423 11e2 1923     		movs	r3, #25
 3424 11e4 2B70     		strb	r3, [r5]
 3425              		.loc 1 666 0
 3426 11e6 2146     		mov	r1, r4
 3427 11e8 DFED870A 		vldr.32	s1, .L127+40
 3428 11ec 9DED020A 		vldr.32	s0, [sp, #8]
 3429 11f0 2846     		mov	r0, r5
 3430 11f2 FFF7FEFF 		bl	buffer_append_float32
 3431              	.LVL405:
 3432              		.loc 1 667 0
 3433 11f6 2146     		mov	r1, r4
 3434 11f8 DFED7A0A 		vldr.32	s1, .L127+4
 3435 11fc 9DED030A 		vldr.32	s0, [sp, #12]
 3436 1200 2846     		mov	r0, r5
 3437 1202 FFF7FEFF 		bl	buffer_append_float32
 3438              	.LVL406:
 3439              		.loc 1 668 0
 3440 1206 7C4B     		ldr	r3, .L127+24
 3441 1208 1B68     		ldr	r3, [r3]
 3442 120a 23B1     		cbz	r3, .L96
 3443              		.loc 1 669 0
 3444 120c 3D99     		ldr	r1, [sp, #244]
 3445 120e 2846     		mov	r0, r5
 3446 1210 9847     		blx	r3
 3447              	.LVL407:
 3448 1212 FEF748BF 		b	.L53
 3449              	.L96:
 3450              		.loc 1 671 0
 3451 1216 3D99     		ldr	r1, [sp, #244]
 3452 1218 7148     		ldr	r0, .L127
 3453 121a FFF7FEFF 		bl	commands_send_packet
 3454              	.LVL408:
 3455              	.LBE19:
 3456              		.loc 1 674 0
 3457 121e FEF742BF 		b	.L53
 3458              	.LVL409:
 3459              	.L77:
 3460              	.LBB20:
 3461              		.loc 1 678 0
 3462 1222 9FED708A 		vldr.32	s16, .L127+4
 3463 1226 3DA9     		add	r1, sp, #244
 3464 1228 B0EE480A 		vmov.f32	s0, s16
 3465 122c 2046     		mov	r0, r4
 3466 122e FFF7FEFF 		bl	buffer_get_float32
 3467              	.LVL410:
 3468 1232 F0EE408A 		vmov.f32	s17, s0
 3469              	.LVL411:
 3470              		.loc 1 679 0
 3471 1236 3DA9     		add	r1, sp, #244
 3472 1238 B0EE480A 		vmov.f32	s0, s16
 3473              	.LVL412:
 3474 123c 2046     		mov	r0, r4
 3475 123e FFF7FEFF 		bl	buffer_get_float32
 3476              	.LVL413:
 3477 1242 B0EE409A 		vmov.f32	s18, s0
ARM GAS  C:\Users\CHRIST~1\AppData\Local\Temp\ccx2hCbj.s 			page 62


 3478              	.LVL414:
 3479              		.loc 1 680 0
 3480 1246 3DA9     		add	r1, sp, #244
 3481 1248 B0EE480A 		vmov.f32	s0, s16
 3482              	.LVL415:
 3483 124c 2046     		mov	r0, r4
 3484 124e FFF7FEFF 		bl	buffer_get_float32
 3485              	.LVL416:
 3486 1252 B0EE408A 		vmov.f32	s16, s0
 3487              	.LVL417:
 3488              		.loc 1 681 0
 3489 1256 3DA9     		add	r1, sp, #244
 3490 1258 9FED6B0A 		vldr.32	s0, .L127+40
 3491              	.LVL418:
 3492 125c 2046     		mov	r0, r4
 3493 125e FFF7FEFF 		bl	buffer_get_float32
 3494              	.LVL419:
 3495              		.loc 1 683 0
 3496 1262 644B     		ldr	r3, .L127+20
 3497 1264 1A68     		ldr	r2, [r3]
 3498 1266 644B     		ldr	r3, .L127+24
 3499 1268 1A60     		str	r2, [r3]
 3500              		.loc 1 686 0
 3501 126a 03A8     		add	r0, sp, #12
 3502 126c F0EE401A 		vmov.f32	s3, s0
 3503 1270 B0EE491A 		vmov.f32	s2, s18
 3504 1274 F0EE480A 		vmov.f32	s1, s16
 3505 1278 B0EE680A 		vmov.f32	s0, s17
 3506              	.LVL420:
 3507 127c FFF7FEFF 		bl	conf_general_measure_flux_linkage
 3508              	.LVL421:
 3509              		.loc 1 688 0
 3510 1280 08B9     		cbnz	r0, .L98
 3511              		.loc 1 689 0
 3512 1282 0023     		movs	r3, #0
 3513 1284 0393     		str	r3, [sp, #12]	@ float
 3514              	.L98:
 3515              		.loc 1 693 0
 3516 1286 3EA9     		add	r1, sp, #248
 3517 1288 0123     		movs	r3, #1
 3518 128a 41F8043D 		str	r3, [r1, #-4]!
 3519 128e 5448     		ldr	r0, .L127
 3520              	.LVL422:
 3521 1290 1A23     		movs	r3, #26
 3522 1292 0370     		strb	r3, [r0]
 3523              		.loc 1 694 0
 3524 1294 DFED5D0A 		vldr.32	s1, .L127+44
 3525 1298 9DED030A 		vldr.32	s0, [sp, #12]
 3526 129c FFF7FEFF 		bl	buffer_append_float32
 3527              	.LVL423:
 3528              		.loc 1 695 0
 3529 12a0 554B     		ldr	r3, .L127+24
 3530 12a2 1B68     		ldr	r3, [r3]
 3531 12a4 23B1     		cbz	r3, .L99
 3532              		.loc 1 696 0
 3533 12a6 3D99     		ldr	r1, [sp, #244]
 3534 12a8 4D48     		ldr	r0, .L127
ARM GAS  C:\Users\CHRIST~1\AppData\Local\Temp\ccx2hCbj.s 			page 63


 3535 12aa 9847     		blx	r3
 3536              	.LVL424:
 3537 12ac FEF7FBBE 		b	.L53
 3538              	.L99:
 3539              		.loc 1 698 0
 3540 12b0 3D99     		ldr	r1, [sp, #244]
 3541 12b2 4B48     		ldr	r0, .L127
 3542 12b4 FFF7FEFF 		bl	commands_send_packet
 3543              	.LVL425:
 3544              	.LBE20:
 3545              		.loc 1 701 0
 3546 12b8 FEF7F5BE 		b	.L53
 3547              	.LVL426:
 3548              	.L78:
 3549              		.loc 1 704 0
 3550 12bc FFF7FEFF 		bl	encoder_is_configured
 3551              	.LVL427:
 3552 12c0 0028     		cmp	r0, #0
 3553 12c2 69D0     		beq	.L101
 3554              	.LBB21:
 3555              		.loc 1 705 0
 3556 12c4 FFF7FEFF 		bl	mc_interface_get_configuration
 3557              	.LVL428:
 3558 12c8 4D4D     		ldr	r5, .L127+32
 3559              	.LVL429:
 3560 12ca 4FF4BA76 		mov	r6, #372
 3561              	.LVL430:
 3562 12ce 3246     		mov	r2, r6
 3563 12d0 0146     		mov	r1, r0
 3564 12d2 2846     		mov	r0, r5
 3565 12d4 FFF7FEFF 		bl	memcpy
 3566              	.LVL431:
 3567              		.loc 1 706 0
 3568 12d8 DFF82891 		ldr	r9, .L127+36
 3569 12dc 3246     		mov	r2, r6
 3570 12de 2946     		mov	r1, r5
 3571 12e0 4846     		mov	r0, r9
 3572 12e2 FFF7FEFF 		bl	memcpy
 3573              	.LVL432:
 3574              		.loc 1 708 0
 3575 12e6 DFF81081 		ldr	r8, .L127+24
 3576 12ea 424B     		ldr	r3, .L127+20
 3577 12ec 1B68     		ldr	r3, [r3]
 3578 12ee C8F80030 		str	r3, [r8]
 3579              		.loc 1 710 0
 3580 12f2 0027     		movs	r7, #0
 3581 12f4 3EAE     		add	r6, sp, #248
 3582 12f6 46F8047D 		str	r7, [r6, #-4]!
 3583              		.loc 1 711 0
 3584 12fa 3146     		mov	r1, r6
 3585 12fc 9FED390A 		vldr.32	s0, .L127+4
 3586 1300 2046     		mov	r0, r4
 3587 1302 FFF7FEFF 		bl	buffer_get_float32
 3588              	.LVL433:
 3589 1306 B0EE408A 		vmov.f32	s16, s0
 3590              	.LVL434:
 3591              		.loc 1 713 0
ARM GAS  C:\Users\CHRIST~1\AppData\Local\Temp\ccx2hCbj.s 			page 64


 3592 130a 0223     		movs	r3, #2
 3593 130c AB70     		strb	r3, [r5, #2]
 3594              		.loc 1 714 0
 3595 130e 404B     		ldr	r3, .L127+48
 3596 1310 C5F8AC30 		str	r3, [r5, #172]	@ float
 3597              		.loc 1 715 0
 3598 1314 3F4B     		ldr	r3, .L127+52
 3599 1316 C5F8A430 		str	r3, [r5, #164]	@ float
 3600              		.loc 1 716 0
 3601 131a 3F4B     		ldr	r3, .L127+56
 3602 131c C5F8A830 		str	r3, [r5, #168]	@ float
 3603              		.loc 1 717 0
 3604 1320 2846     		mov	r0, r5
 3605 1322 FFF7FEFF 		bl	mc_interface_set_configuration
 3606              	.LVL435:
 3607              		.loc 1 719 0
 3608 1326 0023     		movs	r3, #0
 3609 1328 0293     		str	r3, [sp, #8]	@ float
 3610              		.loc 1 720 0
 3611 132a 0393     		str	r3, [sp, #12]	@ float
 3612              		.loc 1 721 0
 3613 132c 3EAB     		add	r3, sp, #248
 3614 132e 03F8F17D 		strb	r7, [r3, #-241]!
 3615              		.loc 1 722 0
 3616 1332 03AA     		add	r2, sp, #12
 3617 1334 02A9     		add	r1, sp, #8
 3618 1336 3846     		mov	r0, r7
 3619 1338 B0EE480A 		vmov.f32	s0, s16
 3620 133c FFF7FEFF 		bl	mcpwm_foc_encoder_detect
 3621              	.LVL436:
 3622              		.loc 1 723 0
 3623 1340 4846     		mov	r0, r9
 3624 1342 FFF7FEFF 		bl	mc_interface_set_configuration
 3625              	.LVL437:
 3626              		.loc 1 726 0
 3627 1346 0123     		movs	r3, #1
 3628 1348 3D93     		str	r3, [sp, #244]
 3629 134a 254C     		ldr	r4, .L127
 3630              	.LVL438:
 3631 134c 1B23     		movs	r3, #27
 3632 134e 2370     		strb	r3, [r4]
 3633              		.loc 1 727 0
 3634 1350 9FED2D8A 		vldr.32	s16, .L127+40
 3635              	.LVL439:
 3636 1354 3146     		mov	r1, r6
 3637 1356 F0EE480A 		vmov.f32	s1, s16
 3638 135a 9DED020A 		vldr.32	s0, [sp, #8]
 3639 135e 2046     		mov	r0, r4
 3640 1360 FFF7FEFF 		bl	buffer_append_float32
 3641              	.LVL440:
 3642              		.loc 1 728 0
 3643 1364 3146     		mov	r1, r6
 3644 1366 F0EE480A 		vmov.f32	s1, s16
 3645 136a 9DED030A 		vldr.32	s0, [sp, #12]
 3646 136e 2046     		mov	r0, r4
 3647 1370 FFF7FEFF 		bl	buffer_append_float32
 3648              	.LVL441:
ARM GAS  C:\Users\CHRIST~1\AppData\Local\Temp\ccx2hCbj.s 			page 65


 3649              		.loc 1 729 0
 3650 1374 9DF80720 		ldrb	r2, [sp, #7]	@ zero_extendqisi2
 3651 1378 3D9B     		ldr	r3, [sp, #244]
 3652 137a 591C     		adds	r1, r3, #1
 3653 137c 3D91     		str	r1, [sp, #244]
 3654 137e E254     		strb	r2, [r4, r3]
 3655              		.loc 1 730 0
 3656 1380 D8F80030 		ldr	r3, [r8]
 3657 1384 1BB1     		cbz	r3, .L102
 3658              		.loc 1 731 0
 3659 1386 2046     		mov	r0, r4
 3660 1388 9847     		blx	r3
 3661              	.LVL442:
 3662 138a FEF78CBE 		b	.L53
 3663              	.L102:
 3664              		.loc 1 733 0
 3665 138e 1448     		ldr	r0, .L127
 3666 1390 FFF7FEFF 		bl	commands_send_packet
 3667              	.LVL443:
 3668 1394 FEF787BE 		b	.L53
 3669              	.LVL444:
 3670              	.L101:
 3671              	.LBE21:
 3672              		.loc 1 737 0
 3673 1398 3EAD     		add	r5, sp, #248
 3674              	.LVL445:
 3675 139a 0123     		movs	r3, #1
 3676 139c 45F8043D 		str	r3, [r5, #-4]!
 3677 13a0 0F4C     		ldr	r4, .L127
 3678              	.LVL446:
 3679 13a2 1B23     		movs	r3, #27
 3680 13a4 2370     		strb	r3, [r4]
 3681              		.loc 1 738 0
 3682 13a6 9FED188A 		vldr.32	s16, .L127+40
 3683 13aa 2946     		mov	r1, r5
 3684 13ac F0EE480A 		vmov.f32	s1, s16
 3685 13b0 9FED1A0A 		vldr.32	s0, .L127+60
 3686 13b4 2046     		mov	r0, r4
 3687 13b6 FFF7FEFF 		bl	buffer_append_float32
 3688              	.LVL447:
 3689              		.loc 1 739 0
 3690 13ba 2946     		mov	r1, r5
 3691 13bc F0EE480A 		vmov.f32	s1, s16
 3692 13c0 9FED170A 		vldr.32	s0, .L127+64
 3693 13c4 2046     		mov	r0, r4
 3694 13c6 FFF7FEFF 		bl	buffer_append_float32
 3695              	.LVL448:
 3696              		.loc 1 740 0
 3697 13ca 3D9B     		ldr	r3, [sp, #244]
 3698 13cc 591C     		adds	r1, r3, #1
 3699 13ce 3D91     		str	r1, [sp, #244]
 3700 13d0 0022     		movs	r2, #0
 3701 13d2 E254     		strb	r2, [r4, r3]
 3702              		.loc 1 741 0
 3703 13d4 2046     		mov	r0, r4
 3704 13d6 FFF7FEFF 		bl	commands_send_packet
 3705              	.LVL449:
ARM GAS  C:\Users\CHRIST~1\AppData\Local\Temp\ccx2hCbj.s 			page 66


 3706 13da FEF764BE 		b	.L53
 3707              	.L128:
 3708 13de 00BF     		.align	2
 3709              	.L127:
 3710 13e0 00000000 		.word	.LANCHOR10
 3711 13e4 00007A44 		.word	1148846080
 3712 13e8 00000000 		.word	.LANCHOR9
 3713 13ec 00000000 		.word	.LANCHOR8
 3714 13f0 00000000 		.word	.LANCHOR7
 3715 13f4 00000000 		.word	.LANCHOR1
 3716 13f8 00000000 		.word	.LANCHOR11
 3717 13fc 00000000 		.word	.LANCHOR2
 3718 1400 00000000 		.word	.LANCHOR15
 3719 1404 00000000 		.word	.LANCHOR16
 3720 1408 00247449 		.word	1232348160
 3721 140c 8096184B 		.word	1259902592
 3722 1410 00401C46 		.word	1176256512
 3723 1414 0AD7233C 		.word	1008981770
 3724 1418 00002041 		.word	1092616192
 3725 141c 00407A44 		.word	1148862464
 3726 1420 00000000 		.word	0
 3727              	.LVL450:
 3728              	.L79:
 3729              		.loc 1 747 0
 3730 1424 FFF7FEFF 		bl	mc_interface_get_configuration
 3731              	.LVL451:
 3732 1428 7F4D     		ldr	r5, .L129
 3733              	.LVL452:
 3734 142a 4FF4BA72 		mov	r2, #372
 3735 142e 0146     		mov	r1, r0
 3736 1430 2846     		mov	r0, r5
 3737 1432 FFF7FEFF 		bl	memcpy
 3738              	.LVL453:
 3739              		.loc 1 749 0
 3740 1436 95F85C31 		ldrb	r3, [r5, #348]	@ zero_extendqisi2
 3741 143a 002B     		cmp	r3, #0
 3742 143c 48D1     		bne	.L104
 3743              	.LBB22:
 3744              		.loc 1 750 0
 3745 143e 7B4F     		ldr	r7, .L129+4
 3746 1440 4FF4BA72 		mov	r2, #372
 3747 1444 2946     		mov	r1, r5
 3748 1446 3846     		mov	r0, r7
 3749 1448 FFF7FEFF 		bl	memcpy
 3750              	.LVL454:
 3751              		.loc 1 751 0
 3752 144c 3EA9     		add	r1, sp, #248
 3753 144e 0023     		movs	r3, #0
 3754 1450 41F8043D 		str	r3, [r1, #-4]!
 3755              		.loc 1 752 0
 3756 1454 9FED760A 		vldr.32	s0, .L129+8
 3757 1458 2046     		mov	r0, r4
 3758 145a FFF7FEFF 		bl	buffer_get_float32
 3759              	.LVL455:
 3760 145e B0EE408A 		vmov.f32	s16, s0
 3761              	.LVL456:
 3762              		.loc 1 754 0
ARM GAS  C:\Users\CHRIST~1\AppData\Local\Temp\ccx2hCbj.s 			page 67


 3763 1462 744E     		ldr	r6, .L129+12
 3764              	.LVL457:
 3765 1464 744B     		ldr	r3, .L129+16
 3766 1466 1B68     		ldr	r3, [r3]
 3767 1468 3360     		str	r3, [r6]
 3768              		.loc 1 756 0
 3769 146a 0223     		movs	r3, #2
 3770 146c AB70     		strb	r3, [r5, #2]
 3771              		.loc 1 757 0
 3772 146e 734B     		ldr	r3, .L129+20
 3773 1470 C5F8AC30 		str	r3, [r5, #172]	@ float
 3774              		.loc 1 758 0
 3775 1474 724B     		ldr	r3, .L129+24
 3776 1476 C5F8A430 		str	r3, [r5, #164]	@ float
 3777              		.loc 1 759 0
 3778 147a 724B     		ldr	r3, .L129+28
 3779 147c C5F8A830 		str	r3, [r5, #168]	@ float
 3780              		.loc 1 760 0
 3781 1480 2846     		mov	r0, r5
 3782 1482 FFF7FEFF 		bl	mc_interface_set_configuration
 3783              	.LVL458:
 3784              		.loc 1 763 0
 3785 1486 03A8     		add	r0, sp, #12
 3786 1488 B0EE480A 		vmov.f32	s0, s16
 3787 148c FFF7FEFF 		bl	mcpwm_foc_hall_detect
 3788              	.LVL459:
 3789 1490 0446     		mov	r4, r0
 3790              	.LVL460:
 3791              		.loc 1 764 0
 3792 1492 3846     		mov	r0, r7
 3793 1494 FFF7FEFF 		bl	mc_interface_set_configuration
 3794              	.LVL461:
 3795              		.loc 1 767 0
 3796 1498 6B4A     		ldr	r2, .L129+32
 3797 149a 1546     		mov	r5, r2
 3798 149c 1C23     		movs	r3, #28
 3799 149e 05F8013B 		strb	r3, [r5], #1
 3800              		.loc 1 768 0
 3801 14a2 03AB     		add	r3, sp, #12
 3802 14a4 03CB     		ldmia	r3!, {r0, r1}
 3803 14a6 C2F80100 		str	r0, [r2, #1]	@ unaligned
 3804 14aa 6960     		str	r1, [r5, #4]	@ unaligned
 3805              		.loc 1 770 0
 3806 14ac 0A23     		movs	r3, #10
 3807 14ae 3D93     		str	r3, [sp, #244]
 3808 14b0 84F00104 		eor	r4, r4, #1
 3809              	.LVL462:
 3810 14b4 5472     		strb	r4, [r2, #9]
 3811              		.loc 1 772 0
 3812 14b6 3368     		ldr	r3, [r6]
 3813 14b8 23B1     		cbz	r3, .L105
 3814              		.loc 1 773 0
 3815 14ba 0A21     		movs	r1, #10
 3816 14bc 1046     		mov	r0, r2
 3817 14be 9847     		blx	r3
 3818              	.LVL463:
 3819 14c0 FEF7F1BD 		b	.L53
ARM GAS  C:\Users\CHRIST~1\AppData\Local\Temp\ccx2hCbj.s 			page 68


 3820              	.L105:
 3821              		.loc 1 775 0
 3822 14c4 0A21     		movs	r1, #10
 3823 14c6 6048     		ldr	r0, .L129+32
 3824 14c8 FFF7FEFF 		bl	commands_send_packet
 3825              	.LVL464:
 3826 14cc FEF7EBBD 		b	.L53
 3827              	.LVL465:
 3828              	.L104:
 3829              	.LBE22:
 3830              		.loc 1 780 0
 3831 14d0 5D4B     		ldr	r3, .L129+32
 3832 14d2 4FF0FF32 		mov	r2, #-1
 3833 14d6 1A60     		str	r2, [r3]
 3834 14d8 5A60     		str	r2, [r3, #4]
 3835              		.loc 1 782 0
 3836 14da 0022     		movs	r2, #0
 3837 14dc 5A72     		strb	r2, [r3, #9]
 3838 14de FEF7E2BD 		b	.L53
 3839              	.LVL466:
 3840              	.L80:
 3841              	.LBB23:
 3842              	.LBB24:
 3843              		.file 3 "ChibiOS_3.0.2/os/ext/CMSIS/include/core_cmFunc.h"
 3844              		.loc 3 342 0
 3845              		.syntax unified
 3846              	@ 342 "ChibiOS_3.0.2/os/ext/CMSIS/include/core_cmFunc.h" 1
 3847 14e2 72B6     		cpsid i
 3848              	@ 0 "" 2
 3849              		.thumb
 3850              		.syntax unified
 3851              	.L107:
 3852 14e4 FEE7     		b	.L107
 3853              	.L81:
 3854              	.LBE24:
 3855              	.LBE23:
 3856              		.loc 1 794 0
 3857 14e6 FFF7FEFF 		bl	timeout_reset
 3858              	.LVL467:
 3859              		.loc 1 795 0
 3860 14ea FEF7DCBD 		b	.L53
 3861              	.L82:
 3862              		.loc 1 799 0
 3863 14ee 3EAD     		add	r5, sp, #248
 3864              	.LVL468:
 3865 14f0 0123     		movs	r3, #1
 3866 14f2 45F8043D 		str	r3, [r5, #-4]!
 3867 14f6 544C     		ldr	r4, .L129+32
 3868              	.LVL469:
 3869 14f8 1F23     		movs	r3, #31
 3870 14fa 2370     		strb	r3, [r4]
 3871              	.LVL470:
 3872              		.loc 1 800 0
 3873 14fc 2A46     		mov	r2, r5
 3874 14fe 0021     		movs	r1, #0
 3875 1500 2046     		mov	r0, r4
 3876              	.LVL471:
ARM GAS  C:\Users\CHRIST~1\AppData\Local\Temp\ccx2hCbj.s 			page 69


 3877 1502 FFF7FEFF 		bl	buffer_append_int32
 3878              	.LVL472:
 3879              		.loc 1 801 0
 3880 1506 2A46     		mov	r2, r5
 3881 1508 0021     		movs	r1, #0
 3882 150a 2046     		mov	r0, r4
 3883 150c FFF7FEFF 		bl	buffer_append_int32
 3884              	.LVL473:
 3885              		.loc 1 802 0
 3886 1510 3D99     		ldr	r1, [sp, #244]
 3887 1512 2046     		mov	r0, r4
 3888 1514 FFF7FEFF 		bl	commands_send_packet
 3889              	.LVL474:
 3890              		.loc 1 803 0
 3891 1518 FEF7C5BD 		b	.L53
 3892              	.LVL475:
 3893              	.L83:
 3894              		.loc 1 807 0
 3895 151c 3EAD     		add	r5, sp, #248
 3896              	.LVL476:
 3897 151e 0123     		movs	r3, #1
 3898 1520 45F8043D 		str	r3, [r5, #-4]!
 3899 1524 484C     		ldr	r4, .L129+32
 3900              	.LVL477:
 3901 1526 2023     		movs	r3, #32
 3902 1528 2370     		strb	r3, [r4]
 3903              	.LVL478:
 3904              		.loc 1 808 0
 3905 152a 2A46     		mov	r2, r5
 3906 152c 0021     		movs	r1, #0
 3907 152e 2046     		mov	r0, r4
 3908              	.LVL479:
 3909 1530 FFF7FEFF 		bl	buffer_append_int32
 3910              	.LVL480:
 3911              		.loc 1 809 0
 3912 1534 2A46     		mov	r2, r5
 3913 1536 0021     		movs	r1, #0
 3914 1538 2046     		mov	r0, r4
 3915 153a FFF7FEFF 		bl	buffer_append_int32
 3916              	.LVL481:
 3917              		.loc 1 810 0
 3918 153e 2A46     		mov	r2, r5
 3919 1540 0021     		movs	r1, #0
 3920 1542 2046     		mov	r0, r4
 3921 1544 FFF7FEFF 		bl	buffer_append_int32
 3922              	.LVL482:
 3923              		.loc 1 811 0
 3924 1548 2A46     		mov	r2, r5
 3925 154a 0021     		movs	r1, #0
 3926 154c 2046     		mov	r0, r4
 3927 154e FFF7FEFF 		bl	buffer_append_int32
 3928              	.LVL483:
 3929              		.loc 1 812 0
 3930 1552 3D99     		ldr	r1, [sp, #244]
 3931 1554 2046     		mov	r0, r4
 3932 1556 FFF7FEFF 		bl	commands_send_packet
 3933              	.LVL484:
ARM GAS  C:\Users\CHRIST~1\AppData\Local\Temp\ccx2hCbj.s 			page 70


 3934              		.loc 1 813 0
 3935 155a FEF7A4BD 		b	.L53
 3936              	.LVL485:
 3937              	.L84:
 3938              		.loc 1 817 0
 3939 155e 3EAD     		add	r5, sp, #248
 3940              	.LVL486:
 3941 1560 0123     		movs	r3, #1
 3942 1562 45F8043D 		str	r3, [r5, #-4]!
 3943 1566 384C     		ldr	r4, .L129+32
 3944              	.LVL487:
 3945 1568 2123     		movs	r3, #33
 3946 156a 2370     		strb	r3, [r4]
 3947              	.LVL488:
 3948              		.loc 1 818 0
 3949 156c FFF7FEFF 		bl	app_nunchuk_get_decoded_chuk
 3950              	.LVL489:
 3951 1570 DFED367A 		vldr.32	s15, .L129+36
 3952 1574 60EE277A 		vmul.f32	s15, s0, s15
 3953 1578 2A46     		mov	r2, r5
 3954 157a FDEEE77A 		vcvt.s32.f32	s15, s15
 3955 157e 17EE901A 		vmov	r1, s15	@ int
 3956 1582 2046     		mov	r0, r4
 3957 1584 FFF7FEFF 		bl	buffer_append_int32
 3958              	.LVL490:
 3959              		.loc 1 819 0
 3960 1588 3D99     		ldr	r1, [sp, #244]
 3961 158a 2046     		mov	r0, r4
 3962 158c FFF7FEFF 		bl	commands_send_packet
 3963              	.LVL491:
 3964              		.loc 1 820 0
 3965 1590 FEF789BD 		b	.L53
 3966              	.LVL492:
 3967              	.L85:
 3968              		.loc 1 823 0
 3969 1594 0023     		movs	r3, #0
 3970 1596 8A1E     		subs	r2, r1, #2
 3971 1598 811C     		adds	r1, r0, #2
 3972 159a 4078     		ldrb	r0, [r0, #1]	@ zero_extendqisi2
 3973 159c FFF7FEFF 		bl	comm_can_send_buffer
 3974              	.LVL493:
 3975              		.loc 1 824 0
 3976 15a0 FEF781BD 		b	.L53
 3977              	.L86:
 3978              		.loc 1 828 0
 3979 15a4 4378     		ldrb	r3, [r0, #1]	@ zero_extendqisi2
 3980 15a6 0593     		str	r3, [sp, #20]
 3981              		.loc 1 829 0
 3982 15a8 8378     		ldrb	r3, [r0, #2]	@ zero_extendqisi2
 3983 15aa 0693     		str	r3, [sp, #24]
 3984              		.loc 1 830 0
 3985 15ac C378     		ldrb	r3, [r0, #3]	@ zero_extendqisi2
 3986 15ae 0033     		adds	r3, r3, #0
 3987 15b0 18BF     		it	ne
 3988 15b2 0123     		movne	r3, #1
 3989 15b4 8DF82830 		strb	r3, [sp, #40]
 3990              		.loc 1 831 0
ARM GAS  C:\Users\CHRIST~1\AppData\Local\Temp\ccx2hCbj.s 			page 71


 3991 15b8 0423     		movs	r3, #4
 3992 15ba 3D93     		str	r3, [sp, #244]
 3993 15bc 0379     		ldrb	r3, [r0, #4]	@ zero_extendqisi2
 3994 15be 0033     		adds	r3, r3, #0
 3995 15c0 18BF     		it	ne
 3996 15c2 0123     		movne	r3, #1
 3997 15c4 8DF82930 		strb	r3, [sp, #41]
 3998              		.loc 1 832 0
 3999 15c8 3DA9     		add	r1, sp, #244
 4000 15ca 2046     		mov	r0, r4
 4001 15cc FFF7FEFF 		bl	buffer_get_int16
 4002              	.LVL494:
 4003 15d0 0790     		str	r0, [sp, #28]
 4004              		.loc 1 833 0
 4005 15d2 3DA9     		add	r1, sp, #244
 4006 15d4 2046     		mov	r0, r4
 4007 15d6 FFF7FEFF 		bl	buffer_get_int16
 4008              	.LVL495:
 4009 15da 0890     		str	r0, [sp, #32]
 4010              		.loc 1 834 0
 4011 15dc 3DA9     		add	r1, sp, #244
 4012 15de 2046     		mov	r0, r4
 4013 15e0 FFF7FEFF 		bl	buffer_get_int16
 4014              	.LVL496:
 4015 15e4 0990     		str	r0, [sp, #36]
 4016              		.loc 1 835 0
 4017 15e6 05A8     		add	r0, sp, #20
 4018 15e8 FFF7FEFF 		bl	app_nunchuk_update_output
 4019              	.LVL497:
 4020              		.loc 1 836 0
 4021 15ec FEF75BBD 		b	.L53
 4022              	.L87:
 4023              		.loc 1 839 0
 4024 15f0 174B     		ldr	r3, .L129+40
 4025 15f2 1B68     		ldr	r3, [r3]
 4026 15f4 002B     		cmp	r3, #0
 4027 15f6 3EF456AD 		beq	.L53
 4028              		.loc 1 840 0
 4029 15fa 3146     		mov	r1, r6
 4030 15fc 2046     		mov	r0, r4
 4031 15fe 9847     		blx	r3
 4032              	.LVL498:
 4033 1600 FEF751BD 		b	.L53
 4034              	.L88:
 4035              		.loc 1 846 0
 4036 1604 3DA9     		add	r1, sp, #244
 4037 1606 2046     		mov	r0, r4
 4038 1608 FFF7FEFF 		bl	buffer_get_int32
 4039              	.LVL499:
 4040 160c FFF7FEFF 		bl	nrf_driver_start_pairing
 4041              	.LVL500:
 4042              		.loc 1 849 0
 4043 1610 0D48     		ldr	r0, .L129+32
 4044 1612 2523     		movs	r3, #37
 4045 1614 0370     		strb	r3, [r0]
 4046              		.loc 1 850 0
 4047 1616 0221     		movs	r1, #2
ARM GAS  C:\Users\CHRIST~1\AppData\Local\Temp\ccx2hCbj.s 			page 72


 4048 1618 3D91     		str	r1, [sp, #244]
 4049 161a 0023     		movs	r3, #0
 4050 161c 4370     		strb	r3, [r0, #1]
 4051              		.loc 1 851 0
 4052 161e FFF7FEFF 		bl	commands_send_packet
 4053              	.LVL501:
 4054              		.loc 1 852 0
 4055 1622 FEF740BD 		b	.L53
 4056              	.LVL502:
 4057              	.L110:
 4058              		.cfi_def_cfa_offset 0
 4059              		.cfi_restore 4
 4060              		.cfi_restore 5
 4061              		.cfi_restore 6
 4062              		.cfi_restore 7
 4063              		.cfi_restore 8
 4064              		.cfi_restore 9
 4065              		.cfi_restore 14
 4066              		.cfi_restore 80
 4067              		.cfi_restore 81
 4068              		.cfi_restore 82
 4069              		.cfi_restore 83
 4070 1626 7047     		bx	lr
 4071              	.L130:
 4072              		.align	2
 4073              	.L129:
 4074 1628 00000000 		.word	.LANCHOR15
 4075 162c 00000000 		.word	.LANCHOR16
 4076 1630 00007A44 		.word	1148846080
 4077 1634 00000000 		.word	.LANCHOR11
 4078 1638 00000000 		.word	.LANCHOR1
 4079 163c 00401C46 		.word	1176256512
 4080 1640 0AD7233C 		.word	1008981770
 4081 1644 00002041 		.word	1092616192
 4082 1648 00000000 		.word	.LANCHOR10
 4083 164c 00247449 		.word	1232348160
 4084 1650 00000000 		.word	.LANCHOR14
 4085              		.cfi_endproc
 4086              	.LFE262:
 4087              		.size	commands_process_packet, .-commands_process_packet
 4088              		.section	.bss.appdata_func,"aw",%nobits
 4089              		.align	2
 4090              		.set	.LANCHOR14,. + 0
 4091              		.type	appdata_func, %object
 4092              		.size	appdata_func, 4
 4093              	appdata_func:
 4094 0000 00000000 		.space	4
 4095              		.section	.bss.detect_coupling_k,"aw",%nobits
 4096              		.align	2
 4097              		.set	.LANCHOR5,. + 0
 4098              		.type	detect_coupling_k, %object
 4099              		.size	detect_coupling_k, 4
 4100              	detect_coupling_k:
 4101 0000 00000000 		.space	4
 4102              		.section	.bss.detect_current,"aw",%nobits
 4103              		.align	2
 4104              		.set	.LANCHOR9,. + 0
ARM GAS  C:\Users\CHRIST~1\AppData\Local\Temp\ccx2hCbj.s 			page 73


 4105              		.type	detect_current, %object
 4106              		.size	detect_current, 4
 4107              	detect_current:
 4108 0000 00000000 		.space	4
 4109              		.section	.bss.detect_cycle_int_limit,"aw",%nobits
 4110              		.align	2
 4111              		.set	.LANCHOR6,. + 0
 4112              		.type	detect_cycle_int_limit, %object
 4113              		.size	detect_cycle_int_limit, 4
 4114              	detect_cycle_int_limit:
 4115 0000 00000000 		.space	4
 4116              		.section	.bss.detect_hall_res,"aw",%nobits
 4117              		.align	2
 4118              		.set	.LANCHOR3,. + 0
 4119              		.type	detect_hall_res, %object
 4120              		.size	detect_hall_res, 4
 4121              	detect_hall_res:
 4122 0000 00000000 		.space	4
 4123              		.section	.bss.detect_hall_table,"aw",%nobits
 4124              		.align	2
 4125              		.set	.LANCHOR4,. + 0
 4126              		.type	detect_hall_table, %object
 4127              		.size	detect_hall_table, 8
 4128              	detect_hall_table:
 4129 0000 00000000 		.space	8
 4129      00000000 
 4130              		.section	.bss.detect_low_duty,"aw",%nobits
 4131              		.align	2
 4132              		.set	.LANCHOR7,. + 0
 4133              		.type	detect_low_duty, %object
 4134              		.size	detect_low_duty, 4
 4135              	detect_low_duty:
 4136 0000 00000000 		.space	4
 4137              		.section	.bss.detect_min_rpm,"aw",%nobits
 4138              		.align	2
 4139              		.set	.LANCHOR8,. + 0
 4140              		.type	detect_min_rpm, %object
 4141              		.size	detect_min_rpm, 4
 4142              	detect_min_rpm:
 4143 0000 00000000 		.space	4
 4144              		.section	.bss.detect_thread_wa,"aw",%nobits
 4145              		.align	3
 4146              		.set	.LANCHOR0,. + 0
 4147              		.type	detect_thread_wa, %object
 4148              		.size	detect_thread_wa, 2456
 4149              	detect_thread_wa:
 4150 0000 00000000 		.space	2456
 4150      00000000 
 4150      00000000 
 4150      00000000 
 4150      00000000 
 4151              		.section	.bss.detect_tp,"aw",%nobits
 4152              		.align	2
 4153              		.set	.LANCHOR2,. + 0
 4154              		.type	detect_tp, %object
 4155              		.size	detect_tp, 4
 4156              	detect_tp:
ARM GAS  C:\Users\CHRIST~1\AppData\Local\Temp\ccx2hCbj.s 			page 74


 4157 0000 00000000 		.space	4
 4158              		.section	.bss.display_position_mode,"aw",%nobits
 4159              		.set	.LANCHOR13,. + 0
 4160              		.type	display_position_mode, %object
 4161              		.size	display_position_mode, 1
 4162              	display_position_mode:
 4163 0000 00       		.space	1
 4164              		.section	.bss.mcconf.12948,"aw",%nobits
 4165              		.align	2
 4166              		.set	.LANCHOR15,. + 0
 4167              		.type	mcconf.12948, %object
 4168              		.size	mcconf.12948, 372
 4169              	mcconf.12948:
 4170 0000 00000000 		.space	372
 4170      00000000 
 4170      00000000 
 4170      00000000 
 4170      00000000 
 4171              		.section	.bss.mcconf_old.12949,"aw",%nobits
 4172              		.align	2
 4173              		.set	.LANCHOR16,. + 0
 4174              		.type	mcconf_old.12949, %object
 4175              		.size	mcconf_old.12949, 372
 4176              	mcconf_old.12949:
 4177 0000 00000000 		.space	372
 4177      00000000 
 4177      00000000 
 4177      00000000 
 4177      00000000 
 4178              		.section	.bss.print_buffer.13016,"aw",%nobits
 4179              		.align	2
 4180              		.set	.LANCHOR12,. + 0
 4181              		.type	print_buffer.13016, %object
 4182              		.size	print_buffer.13016, 255
 4183              	print_buffer.13016:
 4184 0000 00000000 		.space	255
 4184      00000000 
 4184      00000000 
 4184      00000000 
 4184      00000000 
 4185              		.section	.bss.send_buffer,"aw",%nobits
 4186              		.align	2
 4187              		.set	.LANCHOR10,. + 0
 4188              		.type	send_buffer, %object
 4189              		.size	send_buffer, 1024
 4190              	send_buffer:
 4191 0000 00000000 		.space	1024
 4191      00000000 
 4191      00000000 
 4191      00000000 
 4191      00000000 
 4192              		.section	.bss.send_func,"aw",%nobits
 4193              		.align	2
 4194              		.set	.LANCHOR1,. + 0
 4195              		.type	send_func, %object
 4196              		.size	send_func, 4
 4197              	send_func:
ARM GAS  C:\Users\CHRIST~1\AppData\Local\Temp\ccx2hCbj.s 			page 75


 4198 0000 00000000 		.space	4
 4199              		.section	.bss.send_func_last,"aw",%nobits
 4200              		.align	2
 4201              		.set	.LANCHOR11,. + 0
 4202              		.type	send_func_last, %object
 4203              		.size	send_func_last, 4
 4204              	send_func_last:
 4205 0000 00000000 		.space	4
 4206              		.section	.rodata.commands_process_packet.str1.4,"aMS",%progbits,1
 4207              		.align	2
 4208              	.LC1:
 4209 0000 434600   		.ascii	"CF\000"
 4210              		.section	.rodata.detect_thread.str1.4,"aMS",%progbits,1
 4211              		.align	2
 4212              	.LC0:
 4213 0000 44657465 		.ascii	"Detect\000"
 4213      637400
 4214              		.text
 4215              	.Letext0:
 4216              		.file 4 "c:\\program files (x86)\\gnu tools arm embedded\\7 2017-q4-major\\arm-none-eabi\\include\
 4217              		.file 5 "c:\\program files (x86)\\gnu tools arm embedded\\7 2017-q4-major\\arm-none-eabi\\include\
 4218              		.file 6 "c:\\program files (x86)\\gnu tools arm embedded\\7 2017-q4-major\\lib\\gcc\\arm-none-eabi
 4219              		.file 7 "ChibiOS_3.0.2/os/rt/ports/ARMCMx/compilers/GCC/chtypes.h"
 4220              		.file 8 "ChibiOS_3.0.2/os/rt/include/chsystypes.h"
 4221              		.file 9 "ChibiOS_3.0.2/os/rt/include/chschd.h"
 4222              		.file 10 "ChibiOS_3.0.2/os/ext/CMSIS/include/core_cm4.h"
 4223              		.file 11 "ChibiOS_3.0.2/os/ext/CMSIS/ST/system_stm32f4xx.h"
 4224              		.file 12 "ChibiOS_3.0.2/os/ext/CMSIS/ST/stm32f407xx.h"
 4225              		.file 13 "ChibiOS_3.0.2/os/rt/ports/ARMCMx/chcore.h"
 4226              		.file 14 "ChibiOS_3.0.2/os/rt/ports/ARMCMx/chcore_v7m.h"
 4227              		.file 15 "ChibiOS_3.0.2/os/rt/include/chtm.h"
 4228              		.file 16 "ChibiOS_3.0.2/os/rt/include/chsem.h"
 4229              		.file 17 "ChibiOS_3.0.2/os/rt/include/chmtx.h"
 4230              		.file 18 "ChibiOS_3.0.2/os/rt/include/chevents.h"
 4231              		.file 19 "ChibiOS_3.0.2/os/rt/include/chqueues.h"
 4232              		.file 20 "datatypes.h"
 4233              		.file 21 "./conf_general.h"
 4234              		.file 22 "ChibiOS_3.0.2/os/hal/ports/STM32/STM32F4xx/stm32_dma.h"
 4235              		.file 23 "ChibiOS_3.0.2/os/hal/ports/STM32/LLD/GPIOv2/pal_lld.h"
 4236              		.file 24 "ChibiOS_3.0.2/os/hal/include/can.h"
 4237              		.file 25 "ChibiOS_3.0.2/os/hal/ports/STM32/LLD/can_lld.h"
 4238              		.file 26 "ChibiOS_3.0.2/os/hal/include/i2c.h"
 4239              		.file 27 "ChibiOS_3.0.2/os/hal/ports/STM32/LLD/I2Cv1/i2c_lld.h"
 4240              		.file 28 "ChibiOS_3.0.2/os/hal/include/icu.h"
 4241              		.file 29 "ChibiOS_3.0.2/os/hal/ports/STM32/LLD/TIMv1/icu_lld.h"
 4242              		.file 30 "ChibiOS_3.0.2/os/hal/ports/STM32/LLD/TIMv1/stm32_tim.h"
 4243              		.file 31 "ChibiOS_3.0.2/os/hal/include/spi.h"
 4244              		.file 32 "ChibiOS_3.0.2/os/hal/ports/STM32/LLD/SPIv1/spi_lld.h"
 4245              		.file 33 "ChibiOS_3.0.2/os/hal/include/uart.h"
 4246              		.file 34 "ChibiOS_3.0.2/os/hal/ports/STM32/LLD/USARTv1/uart_lld.h"
 4247              		.file 35 "ChibiOS_3.0.2/os/hal/include/usb.h"
 4248              		.file 36 "ChibiOS_3.0.2/os/hal/ports/STM32/LLD/OTGv1/usb_lld.h"
 4249              		.file 37 "ChibiOS_3.0.2/os/hal/ports/STM32/LLD/OTGv1/stm32_otg.h"
 4250              		.file 38 "ChibiOS_3.0.2/ext/stdperiph_stm32f4/inc/stm32f4xx_flash.h"
 4251              		.file 39 "mc_interface.h"
 4252              		.file 40 "mcpwm.h"
 4253              		.file 41 "c:\\program files (x86)\\gnu tools arm embedded\\7 2017-q4-major\\arm-none-eabi\\include
ARM GAS  C:\Users\CHRIST~1\AppData\Local\Temp\ccx2hCbj.s 			page 76


 4254              		.file 42 "c:\\program files (x86)\\gnu tools arm embedded\\7 2017-q4-major\\arm-none-eabi\\include
 4255              		.file 43 "c:\\program files (x86)\\gnu tools arm embedded\\7 2017-q4-major\\arm-none-eabi\\include
 4256              		.file 44 "c:\\program files (x86)\\gnu tools arm embedded\\7 2017-q4-major\\arm-none-eabi\\include
 4257              		.file 45 "c:\\program files (x86)\\gnu tools arm embedded\\7 2017-q4-major\\lib\\gcc\\arm-none-eab
 4258              		.file 46 "<built-in>"
 4259              		.file 47 "buffer.h"
 4260              		.file 48 "c:\\program files (x86)\\gnu tools arm embedded\\7 2017-q4-major\\arm-none-eabi\\include
 4261              		.file 49 "mcpwm_foc.h"
 4262              		.file 50 "flash_helper.h"
 4263              		.file 51 "timeout.h"
 4264              		.file 52 "utils.h"
 4265              		.file 53 "ChibiOS_3.0.2/os/rt/include/chthreads.h"
 4266              		.file 54 "applications/app.h"
 4267              		.file 55 "terminal.h"
 4268              		.file 56 "encoder.h"
 4269              		.file 57 "comm_can.h"
 4270              		.file 58 "nrf/nrf_driver.h"
