ARM GAS  C:\Users\CHRIST~1\AppData\Local\Temp\cc5NTS9k.s 			page 1


   1              		.cpu cortex-m4
   2              		.eabi_attribute 27, 1
   3              		.eabi_attribute 28, 1
   4              		.eabi_attribute 20, 1
   5              		.eabi_attribute 21, 1
   6              		.eabi_attribute 23, 3
   7              		.eabi_attribute 24, 1
   8              		.eabi_attribute 25, 1
   9              		.eabi_attribute 26, 1
  10              		.eabi_attribute 30, 1
  11              		.eabi_attribute 34, 1
  12              		.eabi_attribute 18, 4
  13              		.file	"comm_usb_serial.c"
  14              		.text
  15              	.Ltext0:
  16              		.cfi_sections	.debug_frame
  17              		.section	.text.get_descriptor,"ax",%progbits
  18              		.align	1
  19              		.p2align 4,,15
  20              		.syntax unified
  21              		.thumb
  22              		.thumb_func
  23              		.fpu fpv4-sp-d16
  24              		.type	get_descriptor, %function
  25              	get_descriptor:
  26              	.LFB256:
  27              		.file 1 "comm_usb_serial.c"
  28              		.loc 1 190 0
  29              		.cfi_startproc
  30              		@ args = 0, pretend = 0, frame = 0
  31              		@ frame_needed = 0, uses_anonymous_args = 0
  32              		@ link register save eliminated.
  33              	.LVL0:
  34              		.loc 1 194 0
  35 0000 0229     		cmp	r1, #2
  36 0002 06D0     		beq	.L3
  37 0004 0329     		cmp	r1, #3
  38 0006 06D0     		beq	.L4
  39              		.loc 1 203 0
  40 0008 0129     		cmp	r1, #1
  41 000a 0648     		ldr	r0, .L8
  42              	.LVL1:
  43 000c 18BF     		it	ne
  44 000e 0020     		movne	r0, #0
  45 0010 7047     		bx	lr
  46              	.LVL2:
  47              	.L3:
  48              		.loc 1 198 0
  49 0012 0548     		ldr	r0, .L8+4
  50              	.LVL3:
  51 0014 7047     		bx	lr
  52              	.LVL4:
  53              	.L4:
  54              		.loc 1 200 0
  55 0016 032A     		cmp	r2, #3
  56              		.loc 1 201 0
  57 0018 9ABF     		itte	ls
ARM GAS  C:\Users\CHRIST~1\AppData\Local\Temp\cc5NTS9k.s 			page 2


  58 001a 0448     		ldrls	r0, .L8+8
  59              	.LVL5:
  60 001c 00EBC200 		addls	r0, r0, r2, lsl #3
  61              		.loc 1 203 0
  62 0020 0020     		movhi	r0, #0
  63              		.loc 1 204 0
  64 0022 7047     		bx	lr
  65              	.L9:
  66              		.align	2
  67              	.L8:
  68 0024 00000000 		.word	.LANCHOR0
  69 0028 00000000 		.word	.LANCHOR1
  70 002c 00000000 		.word	.LANCHOR2
  71              		.cfi_endproc
  72              	.LFE256:
  73              		.size	get_descriptor, .-get_descriptor
  74              		.section	.text.usb_event,"ax",%progbits
  75              		.align	1
  76              		.p2align 4,,15
  77              		.syntax unified
  78              		.thumb
  79              		.thumb_func
  80              		.fpu fpv4-sp-d16
  81              		.type	usb_event, %function
  82              	usb_event:
  83              	.LFB257:
  84              		.loc 1 256 0
  85              		.cfi_startproc
  86              		@ args = 0, pretend = 0, frame = 0
  87              		@ frame_needed = 0, uses_anonymous_args = 0
  88              	.LVL6:
  89              		.loc 1 258 0
  90 0000 0229     		cmp	r1, #2
  91 0002 14D1     		bne	.L14
  92              		.loc 1 256 0
  93 0004 10B5     		push	{r4, lr}
  94              		.cfi_def_cfa_offset 8
  95              		.cfi_offset 4, -8
  96              		.cfi_offset 14, -4
  97 0006 0446     		mov	r4, r0
  98              	.LVL7:
  99              	.LBB36:
 100              	.LBB37:
 101              	.LBB38:
 102              	.LBB39:
 103              	.LBB40:
 104              		.file 2 "ChibiOS_3.0.2/os/ext/CMSIS/include/core_cmFunc.h"
 105              		.loc 2 546 0
 106 0008 2023     		movs	r3, #32
 107              		.syntax unified
 108              	@ 546 "ChibiOS_3.0.2/os/ext/CMSIS/include/core_cmFunc.h" 1
 109 000a 83F31188 		MSR basepri, r3
 110              	@ 0 "" 2
 111              	.LVL8:
 112              		.thumb
 113              		.syntax unified
 114              	.LBE40:
ARM GAS  C:\Users\CHRIST~1\AppData\Local\Temp\cc5NTS9k.s 			page 3


 115              	.LBE39:
 116              	.LBE38:
 117              	.LBE37:
 118              	.LBE36:
 119              		.loc 1 269 0
 120 000e 084A     		ldr	r2, .L17
 121 0010 0121     		movs	r1, #1
 122              	.LVL9:
 123 0012 FFF7FEFF 		bl	usbInitEndpointI
 124              	.LVL10:
 125              		.loc 1 270 0
 126 0016 074A     		ldr	r2, .L17+4
 127 0018 0221     		movs	r1, #2
 128 001a 2046     		mov	r0, r4
 129 001c FFF7FEFF 		bl	usbInitEndpointI
 130              	.LVL11:
 131              		.loc 1 273 0
 132 0020 0548     		ldr	r0, .L17+8
 133 0022 FFF7FEFF 		bl	sduConfigureHookI
 134              	.LVL12:
 135              	.LBB41:
 136              	.LBB42:
 137              	.LBB43:
 138              	.LBB44:
 139              	.LBB45:
 140              		.loc 2 546 0
 141 0026 0023     		movs	r3, #0
 142              		.syntax unified
 143              	@ 546 "ChibiOS_3.0.2/os/ext/CMSIS/include/core_cmFunc.h" 1
 144 0028 83F31188 		MSR basepri, r3
 145              	@ 0 "" 2
 146              	.LVL13:
 147              		.thumb
 148              		.syntax unified
 149              	.LBE45:
 150              	.LBE44:
 151              	.LBE43:
 152              	.LBE42:
 153              	.LBE41:
 154              		.loc 1 285 0
 155 002c 10BD     		pop	{r4, pc}
 156              	.LVL14:
 157              	.L14:
 158              		.cfi_def_cfa_offset 0
 159              		.cfi_restore 4
 160              		.cfi_restore 14
 161 002e 7047     		bx	lr
 162              	.L18:
 163              		.align	2
 164              	.L17:
 165 0030 00000000 		.word	.LANCHOR3
 166 0034 00000000 		.word	.LANCHOR4
 167 0038 00000000 		.word	.LANCHOR5
 168              		.cfi_endproc
 169              	.LFE257:
 170              		.size	usb_event, .-usb_event
 171              		.section	.text.comm_usb_serial_init,"ax",%progbits
ARM GAS  C:\Users\CHRIST~1\AppData\Local\Temp\cc5NTS9k.s 			page 4


 172              		.align	1
 173              		.p2align 4,,15
 174              		.global	comm_usb_serial_init
 175              		.syntax unified
 176              		.thumb
 177              		.thumb_func
 178              		.fpu fpv4-sp-d16
 179              		.type	comm_usb_serial_init, %function
 180              	comm_usb_serial_init:
 181              	.LFB258:
 182              		.loc 1 307 0
 183              		.cfi_startproc
 184              		@ args = 0, pretend = 0, frame = 0
 185              		@ frame_needed = 0, uses_anonymous_args = 0
 186 0000 10B5     		push	{r4, lr}
 187              		.cfi_def_cfa_offset 8
 188              		.cfi_offset 4, -8
 189              		.cfi_offset 14, -4
 190              		.loc 1 308 0
 191 0002 154C     		ldr	r4, .L21
 192 0004 40F20A52 		movw	r2, #1290
 193 0008 4FF40061 		mov	r1, #2048
 194 000c 2046     		mov	r0, r4
 195 000e FFF7FEFF 		bl	_pal_lld_setgroupmode
 196              	.LVL15:
 197              		.loc 1 312 0
 198 0012 40F20A52 		movw	r2, #1290
 199 0016 4FF48051 		mov	r1, #4096
 200 001a 2046     		mov	r0, r4
 201 001c FFF7FEFF 		bl	_pal_lld_setgroupmode
 202              	.LVL16:
 203              		.loc 1 317 0
 204 0020 0E4C     		ldr	r4, .L21+4
 205 0022 2046     		mov	r0, r4
 206 0024 FFF7FEFF 		bl	sduObjectInit
 207              	.LVL17:
 208              		.loc 1 318 0
 209 0028 0D49     		ldr	r1, .L21+8
 210 002a 2046     		mov	r0, r4
 211 002c FFF7FEFF 		bl	sduStart
 212              	.LVL18:
 213              		.loc 1 325 0
 214 0030 0C4C     		ldr	r4, .L21+12
 215 0032 226D     		ldr	r2, [r4, #80]
 216 0034 936B     		ldr	r3, [r2, #56]
 217 0036 23F40023 		bic	r3, r3, #524288
 218 003a 9363     		str	r3, [r2, #56]
 219              		.loc 1 326 0
 220 003c 43F69820 		movw	r0, #15000
 221 0040 FFF7FEFF 		bl	chThdSleep
 222              	.LVL19:
 223              		.loc 1 327 0
 224 0044 0849     		ldr	r1, .L21+16
 225 0046 2046     		mov	r0, r4
 226 0048 FFF7FEFF 		bl	usbStart
 227              	.LVL20:
 228              		.loc 1 328 0
ARM GAS  C:\Users\CHRIST~1\AppData\Local\Temp\cc5NTS9k.s 			page 5


 229 004c 226D     		ldr	r2, [r4, #80]
 230 004e 936B     		ldr	r3, [r2, #56]
 231 0050 43F40023 		orr	r3, r3, #524288
 232 0054 9363     		str	r3, [r2, #56]
 233              		.loc 1 329 0
 234 0056 10BD     		pop	{r4, pc}
 235              	.L22:
 236              		.align	2
 237              	.L21:
 238 0058 00000240 		.word	1073872896
 239 005c 00000000 		.word	.LANCHOR5
 240 0060 00000000 		.word	.LANCHOR6
 241 0064 00000000 		.word	USBD1
 242 0068 00000000 		.word	.LANCHOR7
 243              		.cfi_endproc
 244              	.LFE258:
 245              		.size	comm_usb_serial_init, .-comm_usb_serial_init
 246              		.section	.text.comm_usb_serial_is_active,"ax",%progbits
 247              		.align	1
 248              		.p2align 4,,15
 249              		.global	comm_usb_serial_is_active
 250              		.syntax unified
 251              		.thumb
 252              		.thumb_func
 253              		.fpu fpv4-sp-d16
 254              		.type	comm_usb_serial_is_active, %function
 255              	comm_usb_serial_is_active:
 256              	.LFB259:
 257              		.loc 1 331 0
 258              		.cfi_startproc
 259              		@ args = 0, pretend = 0, frame = 0
 260              		@ frame_needed = 0, uses_anonymous_args = 0
 261              		@ link register save eliminated.
 262              		.loc 1 332 0
 263 0000 044B     		ldr	r3, .L24
 264 0002 D3F85432 		ldr	r3, [r3, #596]
 265 0006 1B68     		ldr	r3, [r3]
 266 0008 1878     		ldrb	r0, [r3]	@ zero_extendqisi2
 267              		.loc 1 333 0
 268 000a 0428     		cmp	r0, #4
 269 000c 14BF     		ite	ne
 270 000e 0020     		movne	r0, #0
 271 0010 0120     		moveq	r0, #1
 272 0012 7047     		bx	lr
 273              	.L25:
 274              		.align	2
 275              	.L24:
 276 0014 00000000 		.word	.LANCHOR5
 277              		.cfi_endproc
 278              	.LFE259:
 279              		.size	comm_usb_serial_is_active, .-comm_usb_serial_is_active
 280              		.global	serusbcfg
 281              		.global	SDU1
 282              		.section	.bss.SDU1,"aw",%nobits
 283              		.align	2
 284              		.set	.LANCHOR5,. + 0
 285              		.type	SDU1, %object
ARM GAS  C:\Users\CHRIST~1\AppData\Local\Temp\cc5NTS9k.s 			page 6


 286              		.size	SDU1, 600
 287              	SDU1:
 288 0000 00000000 		.space	600
 288      00000000 
 288      00000000 
 288      00000000 
 288      00000000 
 289              		.section	.bss.ep1instate,"aw",%nobits
 290              		.align	2
 291              		.type	ep1instate, %object
 292              		.size	ep1instate, 20
 293              	ep1instate:
 294 0000 00000000 		.space	20
 294      00000000 
 294      00000000 
 294      00000000 
 294      00000000 
 295              		.section	.bss.ep1outstate,"aw",%nobits
 296              		.align	2
 297              		.type	ep1outstate, %object
 298              		.size	ep1outstate, 20
 299              	ep1outstate:
 300 0000 00000000 		.space	20
 300      00000000 
 300      00000000 
 300      00000000 
 300      00000000 
 301              		.section	.bss.ep2instate,"aw",%nobits
 302              		.align	2
 303              		.type	ep2instate, %object
 304              		.size	ep2instate, 20
 305              	ep2instate:
 306 0000 00000000 		.space	20
 306      00000000 
 306      00000000 
 306      00000000 
 306      00000000 
 307              		.section	.rodata.ep1config,"a",%progbits
 308              		.align	2
 309              		.set	.LANCHOR3,. + 0
 310              		.type	ep1config, %object
 311              		.size	ep1config, 36
 312              	ep1config:
 313 0000 02000000 		.word	2
 314 0004 00000000 		.word	0
 315 0008 00000000 		.word	sduDataTransmitted
 316 000c 00000000 		.word	sduDataReceived
 317 0010 4000     		.short	64
 318 0012 4000     		.short	64
 319 0014 00000000 		.word	ep1instate
 320 0018 00000000 		.word	ep1outstate
 321 001c 0200     		.short	2
 322 001e 0000     		.space	2
 323 0020 00000000 		.word	0
 324              		.section	.rodata.ep2config,"a",%progbits
 325              		.align	2
 326              		.set	.LANCHOR4,. + 0
ARM GAS  C:\Users\CHRIST~1\AppData\Local\Temp\cc5NTS9k.s 			page 7


 327              		.type	ep2config, %object
 328              		.size	ep2config, 36
 329              	ep2config:
 330 0000 03000000 		.word	3
 331 0004 00000000 		.word	0
 332 0008 00000000 		.word	sduInterruptTransmitted
 333 000c 00000000 		.word	0
 334 0010 1000     		.short	16
 335 0012 0000     		.short	0
 336 0014 00000000 		.word	ep2instate
 337 0018 00000000 		.word	0
 338 001c 0100     		.short	1
 339 001e 0000     		.space	2
 340 0020 00000000 		.word	0
 341              		.section	.rodata.serusbcfg,"a",%progbits
 342              		.align	2
 343              		.set	.LANCHOR6,. + 0
 344              		.type	serusbcfg, %object
 345              		.size	serusbcfg, 8
 346              	serusbcfg:
 347 0000 00000000 		.word	USBD1
 348 0004 01       		.byte	1
 349 0005 01       		.byte	1
 350 0006 02       		.byte	2
 351 0007 00       		.space	1
 352              		.section	.rodata.usbcfg,"a",%progbits
 353              		.align	2
 354              		.set	.LANCHOR7,. + 0
 355              		.type	usbcfg, %object
 356              		.size	usbcfg, 16
 357              	usbcfg:
 358 0000 00000000 		.word	usb_event
 359 0004 00000000 		.word	get_descriptor
 360 0008 00000000 		.word	sduRequestsHook
 361 000c 00000000 		.word	0
 362              		.section	.rodata.vcom_configuration_descriptor,"a",%progbits
 363              		.align	2
 364              		.set	.LANCHOR1,. + 0
 365              		.type	vcom_configuration_descriptor, %object
 366              		.size	vcom_configuration_descriptor, 8
 367              	vcom_configuration_descriptor:
 368 0000 43000000 		.word	67
 369 0004 00000000 		.word	vcom_configuration_descriptor_data
 370              		.section	.rodata.vcom_configuration_descriptor_data,"a",%progbits
 371              		.align	2
 372              		.type	vcom_configuration_descriptor_data, %object
 373              		.size	vcom_configuration_descriptor_data, 67
 374              	vcom_configuration_descriptor_data:
 375 0000 09       		.byte	9
 376 0001 02       		.byte	2
 377 0002 43       		.byte	67
 378 0003 00       		.byte	0
 379 0004 02       		.byte	2
 380 0005 01       		.byte	1
 381 0006 00       		.byte	0
 382 0007 C0       		.byte	-64
 383 0008 32       		.byte	50
ARM GAS  C:\Users\CHRIST~1\AppData\Local\Temp\cc5NTS9k.s 			page 8


 384 0009 09       		.byte	9
 385 000a 04       		.byte	4
 386 000b 00       		.byte	0
 387 000c 00       		.byte	0
 388 000d 01       		.byte	1
 389 000e 02       		.byte	2
 390 000f 02       		.byte	2
 391 0010 01       		.byte	1
 392 0011 00       		.byte	0
 393 0012 05       		.byte	5
 394 0013 24       		.byte	36
 395 0014 00       		.byte	0
 396 0015 10       		.byte	16
 397 0016 01       		.byte	1
 398 0017 05       		.byte	5
 399 0018 24       		.byte	36
 400 0019 01       		.byte	1
 401 001a 00       		.byte	0
 402 001b 01       		.byte	1
 403 001c 04       		.byte	4
 404 001d 24       		.byte	36
 405 001e 02       		.byte	2
 406 001f 02       		.byte	2
 407 0020 05       		.byte	5
 408 0021 24       		.byte	36
 409 0022 06       		.byte	6
 410 0023 00       		.byte	0
 411 0024 01       		.byte	1
 412 0025 07       		.byte	7
 413 0026 05       		.byte	5
 414 0027 82       		.byte	-126
 415 0028 03       		.byte	3
 416 0029 08       		.byte	8
 417 002a 00       		.byte	0
 418 002b FF       		.byte	-1
 419 002c 09       		.byte	9
 420 002d 04       		.byte	4
 421 002e 01       		.byte	1
 422 002f 00       		.byte	0
 423 0030 02       		.byte	2
 424 0031 0A       		.byte	10
 425 0032 00       		.byte	0
 426 0033 00       		.byte	0
 427 0034 00       		.byte	0
 428 0035 07       		.byte	7
 429 0036 05       		.byte	5
 430 0037 01       		.byte	1
 431 0038 02       		.byte	2
 432 0039 40       		.byte	64
 433 003a 00       		.byte	0
 434 003b 00       		.byte	0
 435 003c 07       		.byte	7
 436 003d 05       		.byte	5
 437 003e 81       		.byte	-127
 438 003f 02       		.byte	2
 439 0040 40       		.byte	64
 440 0041 00       		.byte	0
ARM GAS  C:\Users\CHRIST~1\AppData\Local\Temp\cc5NTS9k.s 			page 9


 441 0042 00       		.byte	0
 442              		.section	.rodata.vcom_device_descriptor,"a",%progbits
 443              		.align	2
 444              		.set	.LANCHOR0,. + 0
 445              		.type	vcom_device_descriptor, %object
 446              		.size	vcom_device_descriptor, 8
 447              	vcom_device_descriptor:
 448 0000 12000000 		.word	18
 449 0004 00000000 		.word	vcom_device_descriptor_data
 450              		.section	.rodata.vcom_device_descriptor_data,"a",%progbits
 451              		.align	2
 452              		.type	vcom_device_descriptor_data, %object
 453              		.size	vcom_device_descriptor_data, 18
 454              	vcom_device_descriptor_data:
 455 0000 12       		.byte	18
 456 0001 01       		.byte	1
 457 0002 10       		.byte	16
 458 0003 01       		.byte	1
 459 0004 02       		.byte	2
 460 0005 00       		.byte	0
 461 0006 00       		.byte	0
 462 0007 40       		.byte	64
 463 0008 83       		.byte	-125
 464 0009 04       		.byte	4
 465 000a 40       		.byte	64
 466 000b 57       		.byte	87
 467 000c 00       		.byte	0
 468 000d 02       		.byte	2
 469 000e 01       		.byte	1
 470 000f 02       		.byte	2
 471 0010 03       		.byte	3
 472 0011 01       		.byte	1
 473              		.section	.rodata.vcom_string0,"a",%progbits
 474              		.align	2
 475              		.type	vcom_string0, %object
 476              		.size	vcom_string0, 4
 477              	vcom_string0:
 478 0000 04       		.byte	4
 479 0001 03       		.byte	3
 480 0002 09       		.byte	9
 481 0003 04       		.byte	4
 482              		.section	.rodata.vcom_string1,"a",%progbits
 483              		.align	2
 484              		.type	vcom_string1, %object
 485              		.size	vcom_string1, 38
 486              	vcom_string1:
 487 0000 26       		.byte	38
 488 0001 03       		.byte	3
 489 0002 53       		.byte	83
 490 0003 00       		.byte	0
 491 0004 54       		.byte	84
 492 0005 00       		.byte	0
 493 0006 4D       		.byte	77
 494 0007 00       		.byte	0
 495 0008 69       		.byte	105
 496 0009 00       		.byte	0
 497 000a 63       		.byte	99
ARM GAS  C:\Users\CHRIST~1\AppData\Local\Temp\cc5NTS9k.s 			page 10


 498 000b 00       		.byte	0
 499 000c 72       		.byte	114
 500 000d 00       		.byte	0
 501 000e 6F       		.byte	111
 502 000f 00       		.byte	0
 503 0010 65       		.byte	101
 504 0011 00       		.byte	0
 505 0012 6C       		.byte	108
 506 0013 00       		.byte	0
 507 0014 65       		.byte	101
 508 0015 00       		.byte	0
 509 0016 63       		.byte	99
 510 0017 00       		.byte	0
 511 0018 74       		.byte	116
 512 0019 00       		.byte	0
 513 001a 72       		.byte	114
 514 001b 00       		.byte	0
 515 001c 6F       		.byte	111
 516 001d 00       		.byte	0
 517 001e 6E       		.byte	110
 518 001f 00       		.byte	0
 519 0020 69       		.byte	105
 520 0021 00       		.byte	0
 521 0022 63       		.byte	99
 522 0023 00       		.byte	0
 523 0024 73       		.byte	115
 524 0025 00       		.byte	0
 525              		.section	.rodata.vcom_string2,"a",%progbits
 526              		.align	2
 527              		.type	vcom_string2, %object
 528              		.size	vcom_string2, 56
 529              	vcom_string2:
 530 0000 38       		.byte	56
 531 0001 03       		.byte	3
 532 0002 43       		.byte	67
 533 0003 00       		.byte	0
 534 0004 68       		.byte	104
 535 0005 00       		.byte	0
 536 0006 69       		.byte	105
 537 0007 00       		.byte	0
 538 0008 62       		.byte	98
 539 0009 00       		.byte	0
 540 000a 69       		.byte	105
 541 000b 00       		.byte	0
 542 000c 4F       		.byte	79
 543 000d 00       		.byte	0
 544 000e 53       		.byte	83
 545 000f 00       		.byte	0
 546 0010 2F       		.byte	47
 547 0011 00       		.byte	0
 548 0012 52       		.byte	82
 549 0013 00       		.byte	0
 550 0014 54       		.byte	84
 551 0015 00       		.byte	0
 552 0016 20       		.byte	32
 553 0017 00       		.byte	0
 554 0018 56       		.byte	86
ARM GAS  C:\Users\CHRIST~1\AppData\Local\Temp\cc5NTS9k.s 			page 11


 555 0019 00       		.byte	0
 556 001a 69       		.byte	105
 557 001b 00       		.byte	0
 558 001c 72       		.byte	114
 559 001d 00       		.byte	0
 560 001e 74       		.byte	116
 561 001f 00       		.byte	0
 562 0020 75       		.byte	117
 563 0021 00       		.byte	0
 564 0022 61       		.byte	97
 565 0023 00       		.byte	0
 566 0024 6C       		.byte	108
 567 0025 00       		.byte	0
 568 0026 20       		.byte	32
 569 0027 00       		.byte	0
 570 0028 43       		.byte	67
 571 0029 00       		.byte	0
 572 002a 4F       		.byte	79
 573 002b 00       		.byte	0
 574 002c 4D       		.byte	77
 575 002d 00       		.byte	0
 576 002e 20       		.byte	32
 577 002f 00       		.byte	0
 578 0030 50       		.byte	80
 579 0031 00       		.byte	0
 580 0032 6F       		.byte	111
 581 0033 00       		.byte	0
 582 0034 72       		.byte	114
 583 0035 00       		.byte	0
 584 0036 74       		.byte	116
 585 0037 00       		.byte	0
 586              		.section	.rodata.vcom_string3,"a",%progbits
 587              		.align	2
 588              		.type	vcom_string3, %object
 589              		.size	vcom_string3, 8
 590              	vcom_string3:
 591 0000 08       		.byte	8
 592 0001 03       		.byte	3
 593 0002 33       		.byte	51
 594 0003 00       		.byte	0
 595 0004 30       		.byte	48
 596 0005 00       		.byte	0
 597 0006 31       		.byte	49
 598 0007 00       		.byte	0
 599              		.section	.rodata.vcom_strings,"a",%progbits
 600              		.align	2
 601              		.set	.LANCHOR2,. + 0
 602              		.type	vcom_strings, %object
 603              		.size	vcom_strings, 32
 604              	vcom_strings:
 605 0000 04000000 		.word	4
 606 0004 00000000 		.word	vcom_string0
 607 0008 26000000 		.word	38
 608 000c 00000000 		.word	vcom_string1
 609 0010 38000000 		.word	56
 610 0014 00000000 		.word	vcom_string2
 611 0018 08000000 		.word	8
ARM GAS  C:\Users\CHRIST~1\AppData\Local\Temp\cc5NTS9k.s 			page 12


 612 001c 00000000 		.word	vcom_string3
 613              		.text
 614              	.Letext0:
 615              		.file 3 "c:\\program files (x86)\\gnu tools arm embedded\\7 2017-q4-major\\lib\\gcc\\arm-none-eabi
 616              		.file 4 "c:\\program files (x86)\\gnu tools arm embedded\\7 2017-q4-major\\arm-none-eabi\\include\
 617              		.file 5 "c:\\program files (x86)\\gnu tools arm embedded\\7 2017-q4-major\\arm-none-eabi\\include\
 618              		.file 6 "ChibiOS_3.0.2/os/rt/ports/ARMCMx/compilers/GCC/chtypes.h"
 619              		.file 7 "ChibiOS_3.0.2/os/rt/include/chsystypes.h"
 620              		.file 8 "ChibiOS_3.0.2/os/rt/include/chschd.h"
 621              		.file 9 "ChibiOS_3.0.2/os/ext/CMSIS/include/core_cm4.h"
 622              		.file 10 "ChibiOS_3.0.2/os/ext/CMSIS/ST/system_stm32f4xx.h"
 623              		.file 11 "ChibiOS_3.0.2/os/ext/CMSIS/ST/stm32f407xx.h"
 624              		.file 12 "ChibiOS_3.0.2/os/rt/ports/ARMCMx/chcore.h"
 625              		.file 13 "ChibiOS_3.0.2/os/rt/ports/ARMCMx/chcore_v7m.h"
 626              		.file 14 "ChibiOS_3.0.2/os/rt/include/chtm.h"
 627              		.file 15 "ChibiOS_3.0.2/os/rt/include/chsem.h"
 628              		.file 16 "ChibiOS_3.0.2/os/rt/include/chmtx.h"
 629              		.file 17 "ChibiOS_3.0.2/os/rt/include/chregistry.h"
 630              		.file 18 "ChibiOS_3.0.2/os/rt/include/chevents.h"
 631              		.file 19 "ChibiOS_3.0.2/os/rt/include/chqueues.h"
 632              		.file 20 "./conf_general.h"
 633              		.file 21 "ChibiOS_3.0.2/os/hal/ports/STM32/STM32F4xx/stm32_dma.h"
 634              		.file 22 "ChibiOS_3.0.2/os/hal/ports/STM32/LLD/GPIOv2/pal_lld.h"
 635              		.file 23 "ChibiOS_3.0.2/os/hal/include/can.h"
 636              		.file 24 "ChibiOS_3.0.2/os/hal/ports/STM32/LLD/can_lld.h"
 637              		.file 25 "ChibiOS_3.0.2/os/hal/include/i2c.h"
 638              		.file 26 "ChibiOS_3.0.2/os/hal/ports/STM32/LLD/I2Cv1/i2c_lld.h"
 639              		.file 27 "ChibiOS_3.0.2/os/hal/include/icu.h"
 640              		.file 28 "ChibiOS_3.0.2/os/hal/ports/STM32/LLD/TIMv1/icu_lld.h"
 641              		.file 29 "ChibiOS_3.0.2/os/hal/ports/STM32/LLD/TIMv1/stm32_tim.h"
 642              		.file 30 "ChibiOS_3.0.2/os/hal/include/spi.h"
 643              		.file 31 "ChibiOS_3.0.2/os/hal/ports/STM32/LLD/SPIv1/spi_lld.h"
 644              		.file 32 "ChibiOS_3.0.2/os/hal/include/uart.h"
 645              		.file 33 "ChibiOS_3.0.2/os/hal/ports/STM32/LLD/USARTv1/uart_lld.h"
 646              		.file 34 "ChibiOS_3.0.2/os/hal/include/usb.h"
 647              		.file 35 "ChibiOS_3.0.2/os/hal/ports/STM32/LLD/OTGv1/usb_lld.h"
 648              		.file 36 "ChibiOS_3.0.2/os/hal/ports/STM32/LLD/OTGv1/stm32_otg.h"
 649              		.file 37 "ChibiOS_3.0.2/os/hal/include/serial_usb.h"
 650              		.file 38 "ChibiOS_3.0.2/os/rt/include/chsys.h"
 651              		.file 39 "ChibiOS_3.0.2/os/rt/include/chthreads.h"
