ARM GAS  C:\Users\CHRIST~1\AppData\Local\Temp\cc9n4bOt.s 			page 1


   1              		.cpu cortex-m4
   2              		.eabi_attribute 27, 1
   3              		.eabi_attribute 28, 1
   4              		.eabi_attribute 20, 1
   5              		.eabi_attribute 21, 1
   6              		.eabi_attribute 23, 3
   7              		.eabi_attribute 24, 1
   8              		.eabi_attribute 25, 1
   9              		.eabi_attribute 26, 1
  10              		.eabi_attribute 30, 1
  11              		.eabi_attribute 34, 1
  12              		.eabi_attribute 18, 4
  13              		.file	"digital_filter.c"
  14              		.text
  15              	.Ltext0:
  16              		.cfi_sections	.debug_frame
  17              		.global	__aeabi_f2d
  18              		.global	__aeabi_d2f
  19              		.section	.text.filter_fft,"ax",%progbits
  20              		.align	1
  21              		.p2align 4,,15
  22              		.global	filter_fft
  23              		.syntax unified
  24              		.thumb
  25              		.thumb_func
  26              		.fpu fpv4-sp-d16
  27              		.type	filter_fft, %function
  28              	filter_fft:
  29              	.LFB0:
  30              		.file 1 "digital_filter.c"
  31              		.loc 1 25 0
  32              		.cfi_startproc
  33              		@ args = 0, pretend = 0, frame = 16
  34              		@ frame_needed = 0, uses_anonymous_args = 0
  35              	.LVL0:
  36 0000 2DE9F04F 		push	{r4, r5, r6, r7, r8, r9, r10, fp, lr}
  37              		.cfi_def_cfa_offset 36
  38              		.cfi_offset 4, -36
  39              		.cfi_offset 5, -32
  40              		.cfi_offset 6, -28
  41              		.cfi_offset 7, -24
  42              		.cfi_offset 8, -20
  43              		.cfi_offset 9, -16
  44              		.cfi_offset 10, -12
  45              		.cfi_offset 11, -8
  46              		.cfi_offset 14, -4
  47 0004 2DED068B 		vpush.64	{d8, d9, d10}
  48              		.cfi_def_cfa_offset 60
  49              		.cfi_offset 80, -60
  50              		.cfi_offset 81, -56
  51              		.cfi_offset 82, -52
  52              		.cfi_offset 83, -48
  53              		.cfi_offset 84, -44
  54              		.cfi_offset 85, -40
  55 0008 85B0     		sub	sp, sp, #20
  56              		.cfi_def_cfa_offset 80
  57 000a 0290     		str	r0, [sp, #8]
ARM GAS  C:\Users\CHRIST~1\AppData\Local\Temp\cc9n4bOt.s 			page 2


  58 000c 0091     		str	r1, [sp]
  59 000e 0392     		str	r2, [sp, #12]
  60 0010 1846     		mov	r0, r3
  61              	.LVL1:
  62 0012 0193     		str	r3, [sp, #4]
  63              		.loc 1 30 0
  64 0014 0125     		movs	r5, #1
  65 0016 8D40     		lsls	r5, r5, r1
  66              	.LVL2:
  67              		.loc 1 35 0
  68 0018 6B1E     		subs	r3, r5, #1
  69              	.LVL3:
  70 001a 002B     		cmp	r3, #0
  71 001c 30DD     		ble	.L2
  72 001e 6E10     		asrs	r6, r5, #1
  73              	.LVL4:
  74 0020 1346     		mov	r3, r2
  75 0022 141D     		adds	r4, r2, #4
  76 0024 0430     		adds	r0, r0, #4
  77              	.LVL5:
  78 0026 6F1E     		subs	r7, r5, #1
  79              		.loc 1 34 0
  80 0028 0022     		movs	r2, #0
  81              	.LVL6:
  82              		.loc 1 35 0
  83 002a 1146     		mov	r1, r2
  84              	.LVL7:
  85 002c 9846     		mov	r8, r3
  86 002e DDF80490 		ldr	r9, [sp, #4]
  87 0032 01E0     		b	.L3
  88              	.LVL8:
  89              	.L4:
  90 0034 0434     		adds	r4, r4, #4
  91 0036 0430     		adds	r0, r0, #4
  92              	.LVL9:
  93              	.L3:
  94              		.loc 1 45 0
  95 0038 9642     		cmp	r6, r2
  96 003a 1FDC     		bgt	.L18
  97              		.loc 1 44 0
  98 003c 3346     		mov	r3, r6
  99              	.LVL10:
 100              	.L6:
 101              		.loc 1 46 0
 102 003e D21A     		subs	r2, r2, r3
 103              	.LVL11:
 104              		.loc 1 47 0
 105 0040 5B10     		asrs	r3, r3, #1
 106              	.LVL12:
 107              		.loc 1 45 0
 108 0042 9A42     		cmp	r2, r3
 109 0044 FBDA     		bge	.L6
 110              	.L5:
 111              		.loc 1 49 0 discriminator 2
 112 0046 1A44     		add	r2, r2, r3
 113              	.LVL13:
 114              		.loc 1 35 0 discriminator 2
ARM GAS  C:\Users\CHRIST~1\AppData\Local\Temp\cc9n4bOt.s 			page 3


 115 0048 0131     		adds	r1, r1, #1
 116              	.LVL14:
 117 004a B942     		cmp	r1, r7
 118 004c 18D0     		beq	.L2
 119              		.loc 1 36 0
 120 004e 8A42     		cmp	r2, r1
 121 0050 F0DD     		ble	.L4
 122              		.loc 1 37 0
 123 0052 D4F800A0 		ldr	r10, [r4]	@ float
 124              	.LVL15:
 125              		.loc 1 38 0
 126 0056 D0F800E0 		ldr	lr, [r0]	@ float
 127              	.LVL16:
 128              		.loc 1 39 0
 129 005a 9300     		lsls	r3, r2, #2
 130              	.LVL17:
 131 005c 08EB030C 		add	ip, r8, r3
 132 0060 DCF800B0 		ldr	fp, [ip]	@ float
 133 0064 C4F800B0 		str	fp, [r4]	@ float
 134              		.loc 1 40 0
 135 0068 4B44     		add	r3, r3, r9
 136 006a D3F800B0 		ldr	fp, [r3]	@ float
 137 006e C0F800B0 		str	fp, [r0]	@ float
 138              		.loc 1 41 0
 139 0072 CCF800A0 		str	r10, [ip]	@ float
 140              		.loc 1 42 0
 141 0076 C3F800E0 		str	lr, [r3]	@ float
 142 007a DBE7     		b	.L4
 143              	.LVL18:
 144              	.L18:
 145              		.loc 1 44 0
 146 007c 3346     		mov	r3, r6
 147 007e E2E7     		b	.L5
 148              	.LVL19:
 149              	.L2:
 150              		.loc 1 56 0
 151 0080 009B     		ldr	r3, [sp]
 152 0082 002B     		cmp	r3, #0
 153 0084 40F39B80 		ble	.L8
 154              		.loc 1 54 0
 155 0088 DFED5F8A 		vldr.32	s17, .L25
 156              		.loc 1 53 0
 157 008c BFEE008A 		vmov.f32	s16, #-1.0e+0
 158              		.loc 1 55 0
 159 0090 4FF0010B 		mov	fp, #1
 160              		.loc 1 56 0
 161 0094 0027     		movs	r7, #0
 162              		.loc 1 60 0
 163 0096 B0EE68AA 		vmov.f32	s20, s17
 164              		.loc 1 59 0
 165 009a B7EE009A 		vmov.f32	s18, #1.0e+0
 166              		.loc 1 75 0
 167 009e F6EE009A 		vmov.f32	s19, #5.0e-1
 168 00a2 79E0     		b	.L15
 169              	.LVL20:
 170              	.L12:
 171 00a4 09EB0A00 		add	r0, r9, r10
ARM GAS  C:\Users\CHRIST~1\AppData\Local\Temp\cc9n4bOt.s 			page 4


 172 00a8 08EB0A01 		add	r1, r8, r10
 173              		.loc 1 62 0
 174 00ac 4246     		mov	r2, r8
 175 00ae 4B46     		mov	r3, r9
 176 00b0 F446     		mov	ip, lr
 177              	.LVL21:
 178              	.L11:
 179              		.loc 1 64 0 discriminator 3
 180 00b2 90ED007A 		vldr.32	s14, [r0]
 181 00b6 D1ED007A 		vldr.32	s15, [r1]
 182 00ba 27EE256A 		vmul.f32	s12, s14, s11
 183 00be 67EE856A 		vmul.f32	s13, s15, s10
 184 00c2 76EE666A 		vsub.f32	s13, s12, s13
 185              	.LVL22:
 186              		.loc 1 65 0 discriminator 3
 187 00c6 67EEA57A 		vmul.f32	s15, s15, s11
 188 00ca 27EE057A 		vmul.f32	s14, s14, s10
 189 00ce 77EE877A 		vadd.f32	s15, s15, s14
 190              	.LVL23:
 191              		.loc 1 66 0 discriminator 3
 192 00d2 93ED007A 		vldr.32	s14, [r3]
 193 00d6 37EE667A 		vsub.f32	s14, s14, s13
 194 00da 80ED007A 		vstr.32	s14, [r0]
 195              		.loc 1 67 0 discriminator 3
 196 00de 92ED007A 		vldr.32	s14, [r2]
 197 00e2 37EE677A 		vsub.f32	s14, s14, s15
 198 00e6 81ED007A 		vstr.32	s14, [r1]
 199              		.loc 1 68 0 discriminator 3
 200 00ea 93ED007A 		vldr.32	s14, [r3]
 201 00ee 77EE266A 		vadd.f32	s13, s14, s13
 202              	.LVL24:
 203 00f2 C3ED006A 		vstr.32	s13, [r3]
 204              		.loc 1 69 0 discriminator 3
 205 00f6 92ED007A 		vldr.32	s14, [r2]
 206 00fa 77EE277A 		vadd.f32	s15, s14, s15
 207              	.LVL25:
 208 00fe C2ED007A 		vstr.32	s15, [r2]
 209              		.loc 1 62 0 discriminator 3
 210 0102 B444     		add	ip, ip, r6
 211              	.LVL26:
 212 0104 2044     		add	r0, r0, r4
 213 0106 2144     		add	r1, r1, r4
 214 0108 2344     		add	r3, r3, r4
 215 010a 2244     		add	r2, r2, r4
 216 010c 6545     		cmp	r5, ip
 217 010e D0DC     		bgt	.L11
 218              	.LVL27:
 219              	.L13:
 220              		.loc 1 71 0 discriminator 2
 221 0110 28EE257A 		vmul.f32	s14, s16, s11
 222 0114 68EE857A 		vmul.f32	s15, s17, s10
 223              	.LVL28:
 224              		.loc 1 72 0 discriminator 2
 225 0118 28EE055A 		vmul.f32	s10, s16, s10
 226              	.LVL29:
 227 011c 68EEA55A 		vmul.f32	s11, s17, s11
 228              	.LVL30:
ARM GAS  C:\Users\CHRIST~1\AppData\Local\Temp\cc9n4bOt.s 			page 5


 229 0120 35EE855A 		vadd.f32	s10, s11, s10
 230              	.LVL31:
 231              		.loc 1 61 0 discriminator 2
 232 0124 0EF1010E 		add	lr, lr, #1
 233              	.LVL32:
 234 0128 09F10409 		add	r9, r9, #4
 235 012c 08F10408 		add	r8, r8, #4
 236              		.loc 1 73 0 discriminator 2
 237 0130 77EE675A 		vsub.f32	s11, s14, s15
 238              	.LVL33:
 239              		.loc 1 61 0 discriminator 2
 240 0134 DE45     		cmp	lr, fp
 241 0136 02D0     		beq	.L9
 242              	.LVL34:
 243              	.L10:
 244              		.loc 1 62 0
 245 0138 7545     		cmp	r5, lr
 246 013a B3DC     		bgt	.L12
 247 013c E8E7     		b	.L13
 248              	.LVL35:
 249              	.L9:
 250              		.loc 1 75 0
 251 013e 79EE487A 		vsub.f32	s15, s18, s16
 252 0142 67EEA97A 		vmul.f32	s15, s15, s19
 253 0146 17EE900A 		vmov	r0, s15
 254 014a FFF7FEFF 		bl	__aeabi_f2d
 255              	.LVL36:
 256 014e 41EC100B 		vmov	d0, r0, r1
 257 0152 FFF7FEFF 		bl	sqrt
 258              	.LVL37:
 259 0156 51EC100B 		vmov	r0, r1, d0
 260 015a FFF7FEFF 		bl	__aeabi_d2f
 261              	.LVL38:
 262 015e 08EE900A 		vmov	s17, r0
 263              	.LVL39:
 264              		.loc 1 76 0
 265 0162 029B     		ldr	r3, [sp, #8]
 266 0164 0BB1     		cbz	r3, .L14
 267              		.loc 1 77 0
 268 0166 F1EE688A 		vneg.f32	s17, s17
 269              	.LVL40:
 270              	.L14:
 271              		.loc 1 79 0 discriminator 2
 272 016a 38EE098A 		vadd.f32	s16, s16, s18
 273              	.LVL41:
 274 016e 68EE297A 		vmul.f32	s15, s16, s19
 275 0172 17EE900A 		vmov	r0, s15
 276 0176 FFF7FEFF 		bl	__aeabi_f2d
 277              	.LVL42:
 278 017a 41EC100B 		vmov	d0, r0, r1
 279 017e FFF7FEFF 		bl	sqrt
 280              	.LVL43:
 281 0182 51EC100B 		vmov	r0, r1, d0
 282 0186 FFF7FEFF 		bl	__aeabi_d2f
 283              	.LVL44:
 284 018a 08EE100A 		vmov	s16, r0
 285              	.LVL45:
ARM GAS  C:\Users\CHRIST~1\AppData\Local\Temp\cc9n4bOt.s 			page 6


 286              		.loc 1 56 0 discriminator 2
 287 018e 0137     		adds	r7, r7, #1
 288              	.LVL46:
 289              		.loc 1 58 0 discriminator 2
 290 0190 B346     		mov	fp, r6
 291              	.LVL47:
 292              		.loc 1 56 0 discriminator 2
 293 0192 009B     		ldr	r3, [sp]
 294 0194 BB42     		cmp	r3, r7
 295 0196 12D0     		beq	.L8
 296              	.LVL48:
 297              	.L15:
 298              		.loc 1 58 0
 299 0198 4FEA4B06 		lsl	r6, fp, #1
 300              	.LVL49:
 301              		.loc 1 61 0
 302 019c BBF1000F 		cmp	fp, #0
 303 01a0 CDDD     		ble	.L9
 304 01a2 DDF80C90 		ldr	r9, [sp, #12]
 305 01a6 DDF80480 		ldr	r8, [sp, #4]
 306 01aa B400     		lsls	r4, r6, #2
 307 01ac 4FEA8B0A 		lsl	r10, fp, #2
 308              		.loc 1 60 0
 309 01b0 B0EE4A5A 		vmov.f32	s10, s20
 310              		.loc 1 59 0
 311 01b4 F0EE495A 		vmov.f32	s11, s18
 312              		.loc 1 61 0
 313 01b8 4FF0000E 		mov	lr, #0
 314 01bc BCE7     		b	.L10
 315              	.LVL50:
 316              	.L8:
 317              		.loc 1 83 0
 318 01be 029B     		ldr	r3, [sp, #8]
 319 01c0 E3B1     		cbz	r3, .L1
 320              	.LVL51:
 321              		.loc 1 84 0
 322 01c2 002D     		cmp	r5, #0
 323 01c4 1ADD     		ble	.L1
 324 01c6 039C     		ldr	r4, [sp, #12]
 325 01c8 2146     		mov	r1, r4
 326 01ca 019B     		ldr	r3, [sp, #4]
 327 01cc 0422     		movs	r2, #4
 328 01ce 0098     		ldr	r0, [sp]
 329 01d0 8240     		lsls	r2, r2, r0
 330 01d2 2046     		mov	r0, r4
 331 01d4 1044     		add	r0, r0, r2
 332 01d6 0246     		mov	r2, r0
 333              		.loc 1 85 0
 334 01d8 07EE905A 		vmov	s15, r5	@ int
 335 01dc F8EEE77A 		vcvt.f32.s32	s15, s15
 336              	.LVL52:
 337              	.L17:
 338              		.loc 1 85 0 is_stmt 0 discriminator 3
 339 01e0 D1ED006A 		vldr.32	s13, [r1]
 340 01e4 86EEA77A 		vdiv.f32	s14, s13, s15
 341 01e8 A1EC017A 		vstmia.32	r1!, {s14}
 342              		.loc 1 86 0 is_stmt 1 discriminator 3
ARM GAS  C:\Users\CHRIST~1\AppData\Local\Temp\cc9n4bOt.s 			page 7


 343 01ec D3ED006A 		vldr.32	s13, [r3]
 344 01f0 86EEA77A 		vdiv.f32	s14, s13, s15
 345 01f4 A3EC017A 		vstmia.32	r3!, {s14}
 346              		.loc 1 84 0 discriminator 3
 347 01f8 8A42     		cmp	r2, r1
 348 01fa F1D1     		bne	.L17
 349              	.L1:
 350              		.loc 1 89 0
 351 01fc 05B0     		add	sp, sp, #20
 352              		.cfi_def_cfa_offset 60
 353              	.LVL53:
 354              		@ sp needed
 355 01fe BDEC068B 		vldm	sp!, {d8-d10}
 356              		.cfi_restore 84
 357              		.cfi_restore 85
 358              		.cfi_restore 82
 359              		.cfi_restore 83
 360              		.cfi_restore 80
 361              		.cfi_restore 81
 362              		.cfi_def_cfa_offset 36
 363 0202 BDE8F08F 		pop	{r4, r5, r6, r7, r8, r9, r10, fp, pc}
 364              	.LVL54:
 365              	.L26:
 366 0206 00BF     		.align	2
 367              	.L25:
 368 0208 00000000 		.word	0
 369              		.cfi_endproc
 370              	.LFE0:
 371              		.size	filter_fft, .-filter_fft
 372              		.section	.text.filter_dft,"ax",%progbits
 373              		.align	1
 374              		.p2align 4,,15
 375              		.global	filter_dft
 376              		.syntax unified
 377              		.thumb
 378              		.thumb_func
 379              		.fpu fpv4-sp-d16
 380              		.type	filter_dft, %function
 381              	filter_dft:
 382              	.LFB1:
 383              		.loc 1 92 0
 384              		.cfi_startproc
 385              		@ args = 0, pretend = 0, frame = 40
 386              		@ frame_needed = 1, uses_anonymous_args = 0
 387              	.LVL55:
 388 0000 2DE9F04F 		push	{r4, r5, r6, r7, r8, r9, r10, fp, lr}
 389              		.cfi_def_cfa_offset 36
 390              		.cfi_offset 4, -36
 391              		.cfi_offset 5, -32
 392              		.cfi_offset 6, -28
 393              		.cfi_offset 7, -24
 394              		.cfi_offset 8, -20
 395              		.cfi_offset 9, -16
 396              		.cfi_offset 10, -12
 397              		.cfi_offset 11, -8
 398              		.cfi_offset 14, -4
 399 0004 2DED088B 		vpush.64	{d8, d9, d10, d11}
ARM GAS  C:\Users\CHRIST~1\AppData\Local\Temp\cc9n4bOt.s 			page 8


 400              		.cfi_def_cfa_offset 68
 401              		.cfi_offset 80, -68
 402              		.cfi_offset 81, -64
 403              		.cfi_offset 82, -60
 404              		.cfi_offset 83, -56
 405              		.cfi_offset 84, -52
 406              		.cfi_offset 85, -48
 407              		.cfi_offset 86, -44
 408              		.cfi_offset 87, -40
 409 0008 8BB0     		sub	sp, sp, #44
 410              		.cfi_def_cfa_offset 112
 411 000a 00AF     		add	r7, sp, #0
 412              		.cfi_def_cfa_register 7
 413              		.loc 1 97 0
 414 000c 60BB     		cbnz	r0, .L28
 415              	.LVL56:
 416              		.loc 1 103 0
 417 000e 8800     		lsls	r0, r1, #2
 418 0010 B860     		str	r0, [r7, #8]
 419 0012 0A30     		adds	r0, r0, #10
 420 0014 20F00700 		bic	r0, r0, #7
 421 0018 ADEB000D 		sub	sp, sp, r0
 422 001c C7F810D0 		str	sp, [r7, #16]
 423              	.LVL57:
 424              		.loc 1 104 0
 425 0020 ADEB000D 		sub	sp, sp, r0
 426              	.LVL58:
 427 0024 C7F80CD0 		str	sp, [r7, #12]
 428              	.LVL59:
 429              		.loc 1 106 0
 430 0028 0029     		cmp	r1, #0
 431 002a 40F3A880 		ble	.L27
 432              		.loc 1 100 0
 433 002e 4FF0FF30 		mov	r0, #-1
 434 0032 7861     		str	r0, [r7, #20]
 435 0034 29E0     		b	.L38
 436              	.LVL60:
 437              	.L47:
 438 0036 BB68     		ldr	r3, [r7, #8]
 439 0038 7A68     		ldr	r2, [r7, #4]
 440 003a 1344     		add	r3, r3, r2
 441              		.loc 1 121 0
 442 003c 07EE904A 		vmov	s15, r4	@ int
 443 0040 F8EEE77A 		vcvt.f32.s32	s15, s15
 444 0044 F969     		ldr	r1, [r7, #28]
 445 0046 3868     		ldr	r0, [r7]
 446 0048 BC69     		ldr	r4, [r7, #24]
 447              	.LVL61:
 448              	.L34:
 449              		.loc 1 121 0 is_stmt 0 discriminator 3
 450 004a F2EC016A 		vldmia.32	r2!, {s13}
 451 004e 86EEA77A 		vdiv.f32	s14, s13, s15
 452 0052 A4EC017A 		vstmia.32	r4!, {s14}
 453              		.loc 1 122 0 is_stmt 1 discriminator 3
 454 0056 F0EC016A 		vldmia.32	r0!, {s13}
 455 005a 86EEA77A 		vdiv.f32	s14, s13, s15
 456 005e A1EC017A 		vstmia.32	r1!, {s14}
ARM GAS  C:\Users\CHRIST~1\AppData\Local\Temp\cc9n4bOt.s 			page 9


 457              		.loc 1 120 0 discriminator 3
 458 0062 9A42     		cmp	r2, r3
 459 0064 F1D1     		bne	.L34
 460 0066 8AE0     		b	.L27
 461              	.LVL62:
 462              	.L28:
 463              		.loc 1 103 0
 464 0068 8800     		lsls	r0, r1, #2
 465 006a B860     		str	r0, [r7, #8]
 466 006c 0A30     		adds	r0, r0, #10
 467 006e 20F00700 		bic	r0, r0, #7
 468 0072 ADEB000D 		sub	sp, sp, r0
 469 0076 C7F810D0 		str	sp, [r7, #16]
 470              	.LVL63:
 471              		.loc 1 104 0
 472 007a ADEB000D 		sub	sp, sp, r0
 473              	.LVL64:
 474 007e C7F80CD0 		str	sp, [r7, #12]
 475              	.LVL65:
 476              		.loc 1 106 0
 477 0082 0029     		cmp	r1, #0
 478 0084 7BDD     		ble	.L27
 479              		.loc 1 98 0
 480 0086 0120     		movs	r0, #1
 481 0088 7861     		str	r0, [r7, #20]
 482              	.LVL66:
 483              	.L38:
 484 008a 3B62     		str	r3, [r7, #32]
 485 008c 7A62     		str	r2, [r7, #36]
 486 008e 8846     		mov	r8, r1
 487              		.loc 1 109 0
 488 0090 D7ED057A 		vldr.32	s15, [r7, #20]	@ int
 489 0094 F8EEE7AA 		vcvt.f32.s32	s21, s15
 490 0098 F1EE6AAA 		vneg.f32	s21, s21
 491 009c 7AEEAAAA 		vadd.f32	s21, s21, s21
 492 00a0 DFED3A7A 		vldr.32	s15, .L48
 493 00a4 6AEEA7AA 		vmul.f32	s21, s21, s15
 494 00a8 3B69     		ldr	r3, [r7, #16]
 495              	.LVL67:
 496 00aa 7B60     		str	r3, [r7, #4]
 497 00ac FA68     		ldr	r2, [r7, #12]
 498              	.LVL68:
 499 00ae 3A60     		str	r2, [r7]
 500 00b0 9346     		mov	fp, r2
 501 00b2 9A46     		mov	r10, r3
 502              		.loc 1 106 0
 503 00b4 4FF00009 		mov	r9, #0
 504              		.loc 1 107 0
 505 00b8 9FED35AA 		vldr.32	s20, .L48+4
 506              		.loc 1 109 0
 507 00bc 07EE901A 		vmov	s15, r1	@ int
 508 00c0 B8EEE7BA 		vcvt.f32.s32	s22, s15
 509              	.LVL69:
 510              	.L31:
 511              		.loc 1 107 0
 512 00c4 AAEC01AA 		vstmia.32	r10!, {s20}
 513              		.loc 1 108 0
ARM GAS  C:\Users\CHRIST~1\AppData\Local\Temp\cc9n4bOt.s 			page 10


 514 00c8 ABEC01AA 		vstmia.32	fp!, {s20}
 515              		.loc 1 109 0
 516 00cc 07EE909A 		vmov	s15, r9	@ int
 517 00d0 F8EEE77A 		vcvt.f32.s32	s15, s15
 518 00d4 67EEAA7A 		vmul.f32	s15, s15, s21
 519 00d8 C7EE8B9A 		vdiv.f32	s19, s15, s22
 520              	.LVL70:
 521 00dc 7D6A     		ldr	r5, [r7, #36]
 522 00de BD61     		str	r5, [r7, #24]
 523 00e0 3E6A     		ldr	r6, [r7, #32]
 524 00e2 FE61     		str	r6, [r7, #28]
 525 00e4 F0EE4A8A 		vmov.f32	s17, s20
 526 00e8 B0EE4A9A 		vmov.f32	s18, s20
 527              		.loc 1 110 0
 528 00ec 0024     		movs	r4, #0
 529              	.LVL71:
 530              	.L30:
 531              		.loc 1 111 0 discriminator 3
 532 00ee 07EE904A 		vmov	s15, r4	@ int
 533 00f2 F8EEE7BA 		vcvt.f32.s32	s23, s15
 534 00f6 6BEEA9BA 		vmul.f32	s23, s23, s19
 535 00fa B0EE6B0A 		vmov.f32	s0, s23
 536 00fe FFF7FEFF 		bl	cosf
 537              	.LVL72:
 538 0102 B0EE408A 		vmov.f32	s16, s0
 539              	.LVL73:
 540              		.loc 1 112 0 discriminator 3
 541 0106 B0EE6B0A 		vmov.f32	s0, s23
 542              	.LVL74:
 543 010a FFF7FEFF 		bl	sinf
 544              	.LVL75:
 545              		.loc 1 113 0 discriminator 3
 546 010e B5EC017A 		vldmia.32	r5!, {s14}
 547 0112 F6EC017A 		vldmia.32	r6!, {s15}
 548 0116 27EE086A 		vmul.f32	s12, s14, s16
 549 011a 67EE806A 		vmul.f32	s13, s15, s0
 550 011e 76EE666A 		vsub.f32	s13, s12, s13
 551 0122 39EE269A 		vadd.f32	s18, s18, s13
 552              		.loc 1 114 0 discriminator 3
 553 0126 27EE000A 		vmul.f32	s0, s14, s0
 554              	.LVL76:
 555 012a 27EE888A 		vmul.f32	s16, s15, s16
 556              	.LVL77:
 557 012e 30EE080A 		vadd.f32	s0, s0, s16
 558 0132 78EE808A 		vadd.f32	s17, s17, s0
 559              		.loc 1 110 0 discriminator 3
 560 0136 0134     		adds	r4, r4, #1
 561              	.LVL78:
 562 0138 A045     		cmp	r8, r4
 563 013a D8D1     		bne	.L30
 564 013c 0AED019A 		vstr.32	s18, [r10, #-4]
 565 0140 4BED018A 		vstr.32	s17, [fp, #-4]
 566              		.loc 1 106 0
 567 0144 09F10109 		add	r9, r9, #1
 568              	.LVL79:
 569 0148 A145     		cmp	r9, r4
 570 014a BBD1     		bne	.L31
ARM GAS  C:\Users\CHRIST~1\AppData\Local\Temp\cc9n4bOt.s 			page 11


 571              		.loc 1 119 0
 572 014c 7B69     		ldr	r3, [r7, #20]
 573 014e 012B     		cmp	r3, #1
 574 0150 3FF471AF 		beq	.L47
 575              	.LVL80:
 576              		.loc 1 125 0
 577 0154 B8F1000F 		cmp	r8, #0
 578 0158 11DD     		ble	.L27
 579 015a 3C69     		ldr	r4, [r7, #16]
 580              	.LVL81:
 581 015c 2146     		mov	r1, r4
 582 015e 7A6A     		ldr	r2, [r7, #36]
 583 0160 F868     		ldr	r0, [r7, #12]
 584 0162 3B6A     		ldr	r3, [r7, #32]
 585 0164 BE68     		ldr	r6, [r7, #8]
 586 0166 3444     		add	r4, r4, r6
 587 0168 2546     		mov	r5, r4
 588              	.LVL82:
 589              	.L35:
 590              		.loc 1 126 0 discriminator 3
 591 016a 51F8044B 		ldr	r4, [r1], #4	@ float
 592 016e 42F8044B 		str	r4, [r2], #4	@ float
 593              		.loc 1 127 0 discriminator 3
 594 0172 50F8044B 		ldr	r4, [r0], #4	@ float
 595 0176 43F8044B 		str	r4, [r3], #4	@ float
 596              		.loc 1 125 0 discriminator 3
 597 017a A942     		cmp	r1, r5
 598 017c F5D1     		bne	.L35
 599              	.LVL83:
 600              	.L27:
 601              		.loc 1 130 0
 602 017e 2C37     		adds	r7, r7, #44
 603              		.cfi_def_cfa_offset 68
 604              	.LVL84:
 605 0180 BD46     		mov	sp, r7
 606              		.cfi_def_cfa_register 13
 607              	.LVL85:
 608              		@ sp needed
 609 0182 BDEC088B 		vldm	sp!, {d8-d11}
 610              		.cfi_restore 86
 611              		.cfi_restore 87
 612              		.cfi_restore 84
 613              		.cfi_restore 85
 614              		.cfi_restore 82
 615              		.cfi_restore 83
 616              		.cfi_restore 80
 617              		.cfi_restore 81
 618              		.cfi_def_cfa_offset 36
 619 0186 BDE8F08F 		pop	{r4, r5, r6, r7, r8, r9, r10, fp, pc}
 620              	.L49:
 621 018a 00BF     		.align	2
 622              	.L48:
 623 018c DB0F4940 		.word	1078530011
 624 0190 00000000 		.word	0
 625              		.cfi_endproc
 626              	.LFE1:
 627              		.size	filter_dft, .-filter_dft
ARM GAS  C:\Users\CHRIST~1\AppData\Local\Temp\cc9n4bOt.s 			page 12


 628              		.section	.text.filter_fftshift,"ax",%progbits
 629              		.align	1
 630              		.p2align 4,,15
 631              		.global	filter_fftshift
 632              		.syntax unified
 633              		.thumb
 634              		.thumb_func
 635              		.fpu fpv4-sp-d16
 636              		.type	filter_fftshift, %function
 637              	filter_fftshift:
 638              	.LFB2:
 639              		.loc 1 132 0
 640              		.cfi_startproc
 641              		@ args = 0, pretend = 0, frame = 0
 642              		@ frame_needed = 0, uses_anonymous_args = 0
 643              		@ link register save eliminated.
 644              	.LVL86:
 645              	.LBB2:
 646              		.loc 1 133 0
 647 0000 01EBD171 		add	r1, r1, r1, lsr #31
 648              	.LVL87:
 649 0004 4910     		asrs	r1, r1, #1
 650 0006 0029     		cmp	r1, #0
 651 0008 0FDD     		ble	.L55
 652              	.LBE2:
 653              		.loc 1 132 0
 654 000a 10B4     		push	{r4}
 655              		.cfi_def_cfa_offset 4
 656              		.cfi_offset 4, -4
 657 000c 0346     		mov	r3, r0
 658 000e 00EB8100 		add	r0, r0, r1, lsl #2
 659              	.LVL88:
 660 0012 0446     		mov	r4, r0
 661              	.LVL89:
 662              	.L52:
 663              	.LBB4:
 664              	.LBB3:
 665              		.loc 1 134 0 discriminator 3
 666 0014 1A68     		ldr	r2, [r3]	@ float
 667              	.LVL90:
 668              		.loc 1 135 0 discriminator 3
 669 0016 0168     		ldr	r1, [r0]	@ float
 670              	.LVL91:
 671              		.loc 1 137 0 discriminator 3
 672 0018 43F8041B 		str	r1, [r3], #4	@ float
 673              		.loc 1 138 0 discriminator 3
 674 001c 40F8042B 		str	r2, [r0], #4	@ float
 675              	.LBE3:
 676              		.loc 1 133 0 discriminator 3
 677 0020 A342     		cmp	r3, r4
 678 0022 F7D1     		bne	.L52
 679              	.LBE4:
 680              		.loc 1 140 0
 681 0024 5DF8044B 		ldr	r4, [sp], #4
 682              		.cfi_restore 4
 683              		.cfi_def_cfa_offset 0
 684 0028 7047     		bx	lr
ARM GAS  C:\Users\CHRIST~1\AppData\Local\Temp\cc9n4bOt.s 			page 13


 685              	.LVL92:
 686              	.L55:
 687 002a 7047     		bx	lr
 688              		.cfi_endproc
 689              	.LFE2:
 690              		.size	filter_fftshift, .-filter_fftshift
 691              		.section	.text.filter_hamming,"ax",%progbits
 692              		.align	1
 693              		.p2align 4,,15
 694              		.global	filter_hamming
 695              		.syntax unified
 696              		.thumb
 697              		.thumb_func
 698              		.fpu fpv4-sp-d16
 699              		.type	filter_hamming, %function
 700              	filter_hamming:
 701              	.LFB3:
 702              		.loc 1 142 0
 703              		.cfi_startproc
 704              		@ args = 0, pretend = 0, frame = 0
 705              		@ frame_needed = 0, uses_anonymous_args = 0
 706              	.LVL93:
 707 0000 2DE9F041 		push	{r4, r5, r6, r7, r8, lr}
 708              		.cfi_def_cfa_offset 24
 709              		.cfi_offset 4, -24
 710              		.cfi_offset 5, -20
 711              		.cfi_offset 6, -16
 712              		.cfi_offset 7, -12
 713              		.cfi_offset 8, -8
 714              		.cfi_offset 14, -4
 715 0004 2DED068B 		vpush.64	{d8, d9, d10}
 716              		.cfi_def_cfa_offset 48
 717              		.cfi_offset 80, -48
 718              		.cfi_offset 81, -44
 719              		.cfi_offset 82, -40
 720              		.cfi_offset 83, -36
 721              		.cfi_offset 84, -32
 722              		.cfi_offset 85, -28
 723 0008 0E46     		mov	r6, r1
 724              		.loc 1 143 0
 725 000a 11F0010F 		tst	r1, #1
 726 000e 26D0     		beq	.L59
 727              	.LVL94:
 728              	.LBB5:
 729              		.loc 1 150 0
 730 0010 0029     		cmp	r1, #0
 731 0012 57DD     		ble	.L58
 732 0014 0446     		mov	r4, r0
 733 0016 0025     		movs	r5, #0
 734              		.loc 1 151 0
 735 0018 9FED2CAA 		vldr.32	s20, .L67
 736 001c 4B1E     		subs	r3, r1, #1
 737 001e 08EE903A 		vmov	s17, r3	@ int
 738 0022 F8EEE88A 		vcvt.f32.s32	s17, s17
 739 0026 DFED2A9A 		vldr.32	s19, .L67+4
 740 002a 9FED2A9A 		vldr.32	s18, .L67+8
 741              	.LVL95:
ARM GAS  C:\Users\CHRIST~1\AppData\Local\Temp\cc9n4bOt.s 			page 14


 742              	.L63:
 743              		.loc 1 151 0 is_stmt 0 discriminator 3
 744 002e 94ED008A 		vldr.32	s16, [r4]
 745 0032 07EE905A 		vmov	s15, r5	@ int
 746 0036 B8EEE70A 		vcvt.f32.s32	s0, s15
 747 003a 20EE0A0A 		vmul.f32	s0, s0, s20
 748 003e 80EE280A 		vdiv.f32	s0, s0, s17
 749 0042 FFF7FEFF 		bl	cosf
 750              	.LVL96:
 751 0046 20EE290A 		vmul.f32	s0, s0, s19
 752 004a 39EE400A 		vsub.f32	s0, s18, s0
 753 004e 20EE080A 		vmul.f32	s0, s0, s16
 754 0052 A4EC010A 		vstmia.32	r4!, {s0}
 755              		.loc 1 150 0 is_stmt 1 discriminator 3
 756 0056 0135     		adds	r5, r5, #1
 757              	.LVL97:
 758 0058 AE42     		cmp	r6, r5
 759 005a E8D1     		bne	.L63
 760 005c 32E0     		b	.L58
 761              	.LVL98:
 762              	.L59:
 763              	.LBE5:
 764              	.LBB6:
 765              		.loc 1 144 0
 766 005e 01EBD178 		add	r8, r1, r1, lsr #31
 767 0062 4FEA6808 		asr	r8, r8, #1
 768 0066 B8F1000F 		cmp	r8, #0
 769 006a 2BDD     		ble	.L58
 770 006c 0746     		mov	r7, r0
 771 006e 00EB8104 		add	r4, r0, r1, lsl #2
 772 0072 0025     		movs	r5, #0
 773              	.LBB7:
 774              		.loc 1 145 0
 775 0074 DFED159A 		vldr.32	s19, .L67
 776 0078 4E1E     		subs	r6, r1, #1
 777 007a 07EE906A 		vmov	s15, r6	@ int
 778 007e B8EEE78A 		vcvt.f32.s32	s16, s15
 779 0082 9FED139A 		vldr.32	s18, .L67+4
 780 0086 DFED138A 		vldr.32	s17, .L67+8
 781              	.LVL99:
 782              	.L62:
 783              		.loc 1 145 0 is_stmt 0 discriminator 3
 784 008a 07EE905A 		vmov	s15, r5	@ int
 785 008e B8EEE70A 		vcvt.f32.s32	s0, s15
 786 0092 20EE290A 		vmul.f32	s0, s0, s19
 787 0096 80EE080A 		vdiv.f32	s0, s0, s16
 788 009a FFF7FEFF 		bl	cosf
 789              	.LVL100:
 790 009e 20EE090A 		vmul.f32	s0, s0, s18
 791 00a2 38EEC00A 		vsub.f32	s0, s17, s0
 792              	.LVL101:
 793              		.loc 1 146 0 is_stmt 1 discriminator 3
 794 00a6 D7ED007A 		vldr.32	s15, [r7]
 795 00aa 67EE807A 		vmul.f32	s15, s15, s0
 796 00ae E7EC017A 		vstmia.32	r7!, {s15}
 797              		.loc 1 147 0 discriminator 3
 798 00b2 74ED017A 		vldmdb.32	r4!, {s15}
ARM GAS  C:\Users\CHRIST~1\AppData\Local\Temp\cc9n4bOt.s 			page 15


 799 00b6 27EE800A 		vmul.f32	s0, s15, s0
 800              	.LVL102:
 801 00ba 84ED000A 		vstr.32	s0, [r4]
 802              	.LBE7:
 803              		.loc 1 144 0 discriminator 3
 804 00be 0135     		adds	r5, r5, #1
 805              	.LVL103:
 806 00c0 4545     		cmp	r5, r8
 807 00c2 E2D1     		bne	.L62
 808              	.LVL104:
 809              	.L58:
 810              	.LBE6:
 811              		.loc 1 154 0
 812 00c4 BDEC068B 		vldm	sp!, {d8-d10}
 813              		.cfi_restore 84
 814              		.cfi_restore 85
 815              		.cfi_restore 82
 816              		.cfi_restore 83
 817              		.cfi_restore 80
 818              		.cfi_restore 81
 819              		.cfi_def_cfa_offset 24
 820 00c8 BDE8F081 		pop	{r4, r5, r6, r7, r8, pc}
 821              	.L68:
 822              		.align	2
 823              	.L67:
 824 00cc DB0FC940 		.word	1086918619
 825 00d0 1F85EB3E 		.word	1055622431
 826 00d4 713D0A3F 		.word	1057635697
 827              		.cfi_endproc
 828              	.LFE3:
 829              		.size	filter_hamming, .-filter_hamming
 830              		.section	.text.filter_zeroPad,"ax",%progbits
 831              		.align	1
 832              		.p2align 4,,15
 833              		.global	filter_zeroPad
 834              		.syntax unified
 835              		.thumb
 836              		.thumb_func
 837              		.fpu fpv4-sp-d16
 838              		.type	filter_zeroPad, %function
 839              	filter_zeroPad:
 840              	.LFB4:
 841              		.loc 1 156 0
 842              		.cfi_startproc
 843              		@ args = 0, pretend = 0, frame = 0
 844              		@ frame_needed = 0, uses_anonymous_args = 0
 845              		@ link register save eliminated.
 846              	.LVL105:
 847              	.LBB8:
 848              		.loc 1 157 0
 849 0000 002B     		cmp	r3, #0
 850 0002 0EDD     		ble	.L76
 851              	.LBE8:
 852              		.loc 1 156 0
 853 0004 70B4     		push	{r4, r5, r6}
 854              		.cfi_def_cfa_offset 12
 855              		.cfi_offset 4, -12
ARM GAS  C:\Users\CHRIST~1\AppData\Local\Temp\cc9n4bOt.s 			page 16


 856              		.cfi_offset 5, -8
 857              		.cfi_offset 6, -4
 858              	.LBB9:
 859              		.loc 1 157 0
 860 0006 0024     		movs	r4, #0
 861              		.loc 1 161 0
 862 0008 0026     		movs	r6, #0
 863              	.LVL106:
 864              	.L73:
 865              		.loc 1 158 0
 866 000a A242     		cmp	r2, r4
 867              		.loc 1 159 0
 868 000c C6BF     		itte	gt
 869 000e 0568     		ldrgt	r5, [r0]	@ float
 870 0010 0D60     		strgt	r5, [r1]	@ float
 871              		.loc 1 161 0
 872 0012 0E60     		strle	r6, [r1]	@ float
 873              		.loc 1 157 0
 874 0014 0134     		adds	r4, r4, #1
 875              	.LVL107:
 876 0016 0430     		adds	r0, r0, #4
 877 0018 0431     		adds	r1, r1, #4
 878 001a A342     		cmp	r3, r4
 879 001c F5D1     		bne	.L73
 880              	.LBE9:
 881              		.loc 1 164 0
 882 001e 70BC     		pop	{r4, r5, r6}
 883              		.cfi_restore 6
 884              		.cfi_restore 5
 885              		.cfi_restore 4
 886              		.cfi_def_cfa_offset 0
 887              	.LVL108:
 888 0020 7047     		bx	lr
 889              	.LVL109:
 890              	.L76:
 891 0022 7047     		bx	lr
 892              		.cfi_endproc
 893              	.LFE4:
 894              		.size	filter_zeroPad, .-filter_zeroPad
 895              		.section	.text.filter_create_fir_lowpass,"ax",%progbits
 896              		.align	1
 897              		.p2align 4,,15
 898              		.global	filter_create_fir_lowpass
 899              		.syntax unified
 900              		.thumb
 901              		.thumb_func
 902              		.fpu fpv4-sp-d16
 903              		.type	filter_create_fir_lowpass, %function
 904              	filter_create_fir_lowpass:
 905              	.LFB5:
 906              		.loc 1 166 0
 907              		.cfi_startproc
 908              		@ args = 0, pretend = 0, frame = 0
 909              		@ frame_needed = 1, uses_anonymous_args = 0
 910              	.LVL110:
 911 0000 2DE9F843 		push	{r3, r4, r5, r6, r7, r8, r9, lr}
 912              		.cfi_def_cfa_offset 32
ARM GAS  C:\Users\CHRIST~1\AppData\Local\Temp\cc9n4bOt.s 			page 17


 913              		.cfi_offset 3, -32
 914              		.cfi_offset 4, -28
 915              		.cfi_offset 5, -24
 916              		.cfi_offset 6, -20
 917              		.cfi_offset 7, -16
 918              		.cfi_offset 8, -12
 919              		.cfi_offset 9, -8
 920              		.cfi_offset 14, -4
 921 0004 00AF     		add	r7, sp, #0
 922              		.cfi_def_cfa_register 7
 923 0006 0546     		mov	r5, r0
 924 0008 1646     		mov	r6, r2
 925              		.loc 1 167 0
 926 000a 0124     		movs	r4, #1
 927 000c 8C40     		lsls	r4, r4, r1
 928              	.LVL111:
 929              		.loc 1 168 0
 930 000e 0423     		movs	r3, #4
 931 0010 8B40     		lsls	r3, r3, r1
 932 0012 0A33     		adds	r3, r3, #10
 933 0014 23F00703 		bic	r3, r3, #7
 934 0018 ADEB030D 		sub	sp, sp, r3
 935 001c 6B46     		mov	r3, sp
 936              	.LVL112:
 937              	.LBB10:
 938              		.loc 1 170 0
 939 001e 002C     		cmp	r4, #0
 940 0020 1BDD     		ble	.L80
 941              		.loc 1 171 0
 942 0022 07EE904A 		vmov	s15, r4	@ int
 943 0026 F8EEE77A 		vcvt.f32.s32	s15, s15
 944 002a 27EE800A 		vmul.f32	s0, s15, s0
 945              	.LVL113:
 946 002e FDEEC07A 		vcvt.s32.f32	s15, s0
 947 0032 17EE90EA 		vmov	lr, s15	@ int
 948 0036 9C46     		mov	ip, r3
 949              		.loc 1 170 0
 950 0038 0022     		movs	r2, #0
 951              	.LVL114:
 952              		.loc 1 174 0
 953 003a 4FF00008 		mov	r8, #0
 954              		.loc 1 172 0
 955 003e 4FF07E59 		mov	r9, #1065353216
 956              	.LVL115:
 957              	.L83:
 958              		.loc 1 171 0
 959 0042 9645     		cmp	lr, r2
 960              		.loc 1 172 0
 961 0044 CCBF     		ite	gt
 962 0046 C0F80090 		strgt	r9, [r0]	@ float
 963              		.loc 1 174 0
 964 004a C0F80080 		strle	r8, [r0]	@ float
 965              		.loc 1 176 0
 966 004e 4CF8048B 		str	r8, [ip], #4	@ float
 967              		.loc 1 170 0
 968 0052 0132     		adds	r2, r2, #1
 969              	.LVL116:
ARM GAS  C:\Users\CHRIST~1\AppData\Local\Temp\cc9n4bOt.s 			page 18


 970 0054 0430     		adds	r0, r0, #4
 971 0056 9442     		cmp	r4, r2
 972 0058 F3D1     		bne	.L83
 973              	.LVL117:
 974              	.L80:
 975              	.LBE10:
 976              	.LBB11:
 977              		.loc 1 180 0
 978 005a 04EBD47C 		add	ip, r4, r4, lsr #31
 979 005e 4FEA6C0C 		asr	ip, ip, #1
 980 0062 BCF1000F 		cmp	ip, #0
 981 0066 0BDD     		ble	.L84
 982 0068 2A46     		mov	r2, r5
 983 006a 0420     		movs	r0, #4
 984 006c 8840     		lsls	r0, r0, r1
 985 006e 2844     		add	r0, r0, r5
 986 0070 05EB8C0C 		add	ip, r5, ip, lsl #2
 987              	.LVL118:
 988              	.L85:
 989              		.loc 1 181 0 discriminator 3
 990 0074 52F804EB 		ldr	lr, [r2], #4	@ float
 991 0078 40F804ED 		str	lr, [r0, #-4]!	@ float
 992              		.loc 1 180 0 discriminator 3
 993 007c 6245     		cmp	r2, ip
 994 007e F9D1     		bne	.L85
 995              	.L84:
 996              	.LBE11:
 997              		.loc 1 184 0
 998 0080 2A46     		mov	r2, r5
 999 0082 0120     		movs	r0, #1
 1000 0084 FFF7FEFF 		bl	filter_fft
 1001              	.LVL119:
 1002              		.loc 1 185 0
 1003 0088 2146     		mov	r1, r4
 1004 008a 2846     		mov	r0, r5
 1005 008c FFF7FEFF 		bl	filter_fftshift
 1006              	.LVL120:
 1007              		.loc 1 187 0
 1008 0090 16B9     		cbnz	r6, .L90
 1009              	.L79:
 1010              		.loc 1 190 0
 1011 0092 BD46     		mov	sp, r7
 1012              		.cfi_remember_state
 1013              		.cfi_def_cfa_register 13
 1014              	.LVL121:
 1015              		@ sp needed
 1016 0094 BDE8F883 		pop	{r3, r4, r5, r6, r7, r8, r9, pc}
 1017              	.LVL122:
 1018              	.L90:
 1019              		.cfi_restore_state
 1020              		.loc 1 188 0
 1021 0098 2146     		mov	r1, r4
 1022 009a 2846     		mov	r0, r5
 1023 009c FFF7FEFF 		bl	filter_hamming
 1024              	.LVL123:
 1025              		.loc 1 190 0
 1026 00a0 F7E7     		b	.L79
ARM GAS  C:\Users\CHRIST~1\AppData\Local\Temp\cc9n4bOt.s 			page 19


 1027              		.cfi_endproc
 1028              	.LFE5:
 1029              		.size	filter_create_fir_lowpass, .-filter_create_fir_lowpass
 1030 00a2 00BF     		.section	.text.filter_run_fir_iteration,"ax",%progbits
 1031              		.align	1
 1032              		.p2align 4,,15
 1033              		.global	filter_run_fir_iteration
 1034              		.syntax unified
 1035              		.thumb
 1036              		.thumb_func
 1037              		.fpu fpv4-sp-d16
 1038              		.type	filter_run_fir_iteration, %function
 1039              	filter_run_fir_iteration:
 1040              	.LFB6:
 1041              		.loc 1 203 0
 1042              		.cfi_startproc
 1043              		@ args = 0, pretend = 0, frame = 0
 1044              		@ frame_needed = 0, uses_anonymous_args = 0
 1045              		@ link register save eliminated.
 1046              	.LVL124:
 1047 0000 70B4     		push	{r4, r5, r6}
 1048              		.cfi_def_cfa_offset 12
 1049              		.cfi_offset 4, -12
 1050              		.cfi_offset 5, -8
 1051              		.cfi_offset 6, -4
 1052              	.LVL125:
 1053              		.loc 1 206 0
 1054 0002 C2F12004 		rsb	r4, r2, #32
 1055 0006 4FF0FF35 		mov	r5, #-1
 1056 000a E540     		lsrs	r5, r5, r4
 1057              	.LVL126:
 1058              		.loc 1 205 0
 1059 000c 0124     		movs	r4, #1
 1060 000e 9440     		lsls	r4, r4, r2
 1061              	.LVL127:
 1062              	.LBB12:
 1063              		.loc 1 208 0
 1064 0010 002C     		cmp	r4, #0
 1065 0012 16DD     		ble	.L94
 1066 0014 0C46     		mov	r4, r1
 1067              	.LVL128:
 1068 0016 0426     		movs	r6, #4
 1069 0018 06FA02F2 		lsl	r2, r6, r2
 1070              	.LVL129:
 1071 001c 1144     		add	r1, r1, r2
 1072              	.LVL130:
 1073              	.LBE12:
 1074              		.loc 1 204 0
 1075 001e 9FED0A0A 		vldr.32	s0, .L97
 1076              	.LVL131:
 1077              	.L93:
 1078              	.LBB13:
 1079              		.loc 1 209 0 discriminator 3
 1080 0022 F4EC017A 		vldmia.32	r4!, {s15}
 1081 0026 00EB8302 		add	r2, r0, r3, lsl #2
 1082 002a 92ED007A 		vldr.32	s14, [r2]
 1083 002e 67EE877A 		vmul.f32	s15, s15, s14
ARM GAS  C:\Users\CHRIST~1\AppData\Local\Temp\cc9n4bOt.s 			page 20


 1084 0032 30EE270A 		vadd.f32	s0, s0, s15
 1085              	.LVL132:
 1086              		.loc 1 210 0 discriminator 3
 1087 0036 0133     		adds	r3, r3, #1
 1088              	.LVL133:
 1089              		.loc 1 211 0 discriminator 3
 1090 0038 2B40     		ands	r3, r3, r5
 1091              	.LVL134:
 1092              		.loc 1 208 0 discriminator 3
 1093 003a 8C42     		cmp	r4, r1
 1094 003c F1D1     		bne	.L93
 1095              	.LVL135:
 1096              	.L91:
 1097              	.LBE13:
 1098              		.loc 1 215 0
 1099 003e 70BC     		pop	{r4, r5, r6}
 1100              		.cfi_remember_state
 1101              		.cfi_restore 6
 1102              		.cfi_restore 5
 1103              		.cfi_restore 4
 1104              		.cfi_def_cfa_offset 0
 1105              	.LVL136:
 1106 0040 7047     		bx	lr
 1107              	.LVL137:
 1108              	.L94:
 1109              		.cfi_restore_state
 1110              		.loc 1 204 0
 1111 0042 9FED010A 		vldr.32	s0, .L97
 1112              		.loc 1 214 0
 1113 0046 FAE7     		b	.L91
 1114              	.L98:
 1115              		.align	2
 1116              	.L97:
 1117 0048 00000000 		.word	0
 1118              		.cfi_endproc
 1119              	.LFE6:
 1120              		.size	filter_run_fir_iteration, .-filter_run_fir_iteration
 1121              		.section	.text.filter_add_sample,"ax",%progbits
 1122              		.align	1
 1123              		.p2align 4,,15
 1124              		.global	filter_add_sample
 1125              		.syntax unified
 1126              		.thumb
 1127              		.thumb_func
 1128              		.fpu fpv4-sp-d16
 1129              		.type	filter_add_sample, %function
 1130              	filter_add_sample:
 1131              	.LFB7:
 1132              		.loc 1 229 0
 1133              		.cfi_startproc
 1134              		@ args = 0, pretend = 0, frame = 0
 1135              		@ frame_needed = 0, uses_anonymous_args = 0
 1136              		@ link register save eliminated.
 1137              	.LVL138:
 1138              		.loc 1 231 0
 1139 0000 1368     		ldr	r3, [r2]
 1140 0002 00EB8300 		add	r0, r0, r3, lsl #2
ARM GAS  C:\Users\CHRIST~1\AppData\Local\Temp\cc9n4bOt.s 			page 21


 1141              	.LVL139:
 1142 0006 80ED000A 		vstr.32	s0, [r0]
 1143              		.loc 1 232 0
 1144 000a 1368     		ldr	r3, [r2]
 1145 000c 0133     		adds	r3, r3, #1
 1146              		.loc 1 230 0
 1147 000e C1F12000 		rsb	r0, r1, #32
 1148 0012 4FF0FF31 		mov	r1, #-1
 1149              	.LVL140:
 1150 0016 C140     		lsrs	r1, r1, r0
 1151              	.LVL141:
 1152              		.loc 1 233 0
 1153 0018 0B40     		ands	r3, r3, r1
 1154 001a 1360     		str	r3, [r2]
 1155              		.loc 1 234 0
 1156 001c 7047     		bx	lr
 1157              		.cfi_endproc
 1158              	.LFE7:
 1159              		.size	filter_add_sample, .-filter_add_sample
 1160 001e 00BF     		.text
 1161              	.Letext0:
 1162              		.file 2 "c:\\program files (x86)\\gnu tools arm embedded\\7 2017-q4-major\\arm-none-eabi\\include\
 1163              		.file 3 "c:\\program files (x86)\\gnu tools arm embedded\\7 2017-q4-major\\arm-none-eabi\\include\
 1164              		.file 4 "c:\\program files (x86)\\gnu tools arm embedded\\7 2017-q4-major\\arm-none-eabi\\include\
 1165              		.file 5 "c:\\program files (x86)\\gnu tools arm embedded\\7 2017-q4-major\\arm-none-eabi\\include\
 1166              		.file 6 "c:\\program files (x86)\\gnu tools arm embedded\\7 2017-q4-major\\lib\\gcc\\arm-none-eabi
 1167              		.file 7 "c:\\program files (x86)\\gnu tools arm embedded\\7 2017-q4-major\\arm-none-eabi\\include\
 1168              		.file 8 "c:\\program files (x86)\\gnu tools arm embedded\\7 2017-q4-major\\arm-none-eabi\\include\
