ARM GAS  C:\Users\CHRIST~1\AppData\Local\Temp\ccNxYdyN.s 			page 1


   1              		.cpu cortex-m4
   2              		.eabi_attribute 27, 1
   3              		.eabi_attribute 28, 1
   4              		.eabi_attribute 20, 1
   5              		.eabi_attribute 21, 1
   6              		.eabi_attribute 23, 3
   7              		.eabi_attribute 24, 1
   8              		.eabi_attribute 25, 1
   9              		.eabi_attribute 26, 1
  10              		.eabi_attribute 30, 1
  11              		.eabi_attribute 34, 1
  12              		.eabi_attribute 18, 4
  13              		.file	"i2cdev_chibi.c"
  14              		.text
  15              	.Ltext0:
  16              		.cfi_sections	.debug_frame
  17              		.section	.text.I2CdevreadBytes,"ax",%progbits
  18              		.align	1
  19              		.p2align 4,,15
  20              		.global	I2CdevreadBytes
  21              		.syntax unified
  22              		.thumb
  23              		.thumb_func
  24              		.fpu fpv4-sp-d16
  25              		.type	I2CdevreadBytes, %function
  26              	I2CdevreadBytes:
  27              	.LFB263:
  28              		.file 1 "i2cdev_chibi.c"
  29              		.loc 1 170 0
  30              		.cfi_startproc
  31              		@ args = 4, pretend = 0, frame = 8
  32              		@ frame_needed = 0, uses_anonymous_args = 0
  33              	.LVL0:
  34 0000 F0B5     		push	{r4, r5, r6, r7, lr}
  35              		.cfi_def_cfa_offset 20
  36              		.cfi_offset 4, -20
  37              		.cfi_offset 5, -16
  38              		.cfi_offset 6, -12
  39              		.cfi_offset 7, -8
  40              		.cfi_offset 14, -4
  41 0002 87B0     		sub	sp, sp, #28
  42              		.cfi_def_cfa_offset 48
  43 0004 8DF81710 		strb	r1, [sp, #23]
  44              		.loc 1 173 0
  45 0008 402A     		cmp	r2, #64
  46 000a 02D9     		bls	.L5
  47              		.loc 1 174 0
  48 000c 0020     		movs	r0, #0
  49              	.LVL1:
  50              	.L2:
  51              		.loc 1 183 0
  52 000e 07B0     		add	sp, sp, #28
  53              		.cfi_remember_state
  54              		.cfi_def_cfa_offset 20
  55              		@ sp needed
  56 0010 F0BD     		pop	{r4, r5, r6, r7, pc}
  57              	.LVL2:
ARM GAS  C:\Users\CHRIST~1\AppData\Local\Temp\ccNxYdyN.s 			page 2


  58              	.L5:
  59              		.cfi_restore_state
  60 0012 1E46     		mov	r6, r3
  61 0014 1446     		mov	r4, r2
  62 0016 0546     		mov	r5, r0
  63              		.loc 1 176 0
  64 0018 114F     		ldr	r7, .L6
  65 001a 3846     		mov	r0, r7
  66              	.LVL3:
  67 001c FFF7FEFF 		bl	i2cAcquireBus
  68              	.LVL4:
  69              		.loc 1 177 0
  70 0020 BDF83030 		ldrh	r3, [sp, #48]
  71 0024 42F21071 		movw	r1, #10000
  72 0028 01FB03F1 		mul	r1, r1, r3
  73 002c 01F2E731 		addw	r1, r1, #999
  74 0030 0C4B     		ldr	r3, .L6+4
  75 0032 A3FB0131 		umull	r3, r1, r3, r1
  76 0036 8909     		lsrs	r1, r1, #6
  77 0038 0291     		str	r1, [sp, #8]
  78 003a 0194     		str	r4, [sp, #4]
  79 003c 0096     		str	r6, [sp]
  80 003e 0123     		movs	r3, #1
  81 0040 0DF11702 		add	r2, sp, #23
  82 0044 2946     		mov	r1, r5
  83 0046 3846     		mov	r0, r7
  84 0048 FFF7FEFF 		bl	i2cMasterTransmitTimeout
  85              	.LVL5:
  86 004c 0446     		mov	r4, r0
  87              	.LVL6:
  88              		.loc 1 178 0
  89 004e 3846     		mov	r0, r7
  90              	.LVL7:
  91 0050 FFF7FEFF 		bl	i2cReleaseBus
  92              	.LVL8:
  93              		.loc 1 174 0
  94 0054 14F1020F 		cmn	r4, #2
  95 0058 2CBF     		ite	cs
  96 005a 0020     		movcs	r0, #0
  97 005c 0120     		movcc	r0, #1
  98 005e D6E7     		b	.L2
  99              	.L7:
 100              		.align	2
 101              	.L6:
 102 0060 00000000 		.word	I2CD1
 103 0064 D34D6210 		.word	274877907
 104              		.cfi_endproc
 105              	.LFE263:
 106              		.size	I2CdevreadBytes, .-I2CdevreadBytes
 107              		.section	.text.I2CdevreadByte,"ax",%progbits
 108              		.align	1
 109              		.p2align 4,,15
 110              		.global	I2CdevreadByte
 111              		.syntax unified
 112              		.thumb
 113              		.thumb_func
 114              		.fpu fpv4-sp-d16
ARM GAS  C:\Users\CHRIST~1\AppData\Local\Temp\ccNxYdyN.s 			page 3


 115              		.type	I2CdevreadByte, %function
 116              	I2CdevreadByte:
 117              	.LFB261:
 118              		.loc 1 147 0
 119              		.cfi_startproc
 120              		@ args = 0, pretend = 0, frame = 0
 121              		@ frame_needed = 0, uses_anonymous_args = 0
 122              	.LVL9:
 123 0000 00B5     		push	{lr}
 124              		.cfi_def_cfa_offset 4
 125              		.cfi_offset 14, -4
 126 0002 83B0     		sub	sp, sp, #12
 127              		.cfi_def_cfa_offset 16
 128              		.loc 1 148 0
 129 0004 0093     		str	r3, [sp]
 130 0006 1346     		mov	r3, r2
 131              	.LVL10:
 132 0008 0122     		movs	r2, #1
 133              	.LVL11:
 134 000a FFF7FEFF 		bl	I2CdevreadBytes
 135              	.LVL12:
 136              		.loc 1 149 0
 137 000e 03B0     		add	sp, sp, #12
 138              		.cfi_def_cfa_offset 4
 139              		@ sp needed
 140 0010 5DF804FB 		ldr	pc, [sp], #4
 141              		.cfi_endproc
 142              	.LFE261:
 143              		.size	I2CdevreadByte, .-I2CdevreadByte
 144              		.section	.text.I2CdevreadBit,"ax",%progbits
 145              		.align	1
 146              		.p2align 4,,15
 147              		.global	I2CdevreadBit
 148              		.syntax unified
 149              		.thumb
 150              		.thumb_func
 151              		.fpu fpv4-sp-d16
 152              		.type	I2CdevreadBit, %function
 153              	I2CdevreadBit:
 154              	.LFB257:
 155              		.loc 1 67 0
 156              		.cfi_startproc
 157              		@ args = 4, pretend = 0, frame = 8
 158              		@ frame_needed = 0, uses_anonymous_args = 0
 159              	.LVL13:
 160 0000 30B5     		push	{r4, r5, lr}
 161              		.cfi_def_cfa_offset 12
 162              		.cfi_offset 4, -12
 163              		.cfi_offset 5, -8
 164              		.cfi_offset 14, -4
 165 0002 83B0     		sub	sp, sp, #12
 166              		.cfi_def_cfa_offset 24
 167 0004 1546     		mov	r5, r2
 168 0006 1C46     		mov	r4, r3
 169              		.loc 1 68 0
 170 0008 02AA     		add	r2, sp, #8
 171              	.LVL14:
ARM GAS  C:\Users\CHRIST~1\AppData\Local\Temp\ccNxYdyN.s 			page 4


 172 000a 0023     		movs	r3, #0
 173              	.LVL15:
 174 000c 02F8013D 		strb	r3, [r2, #-1]!
 175              		.loc 1 69 0
 176 0010 BDF81830 		ldrh	r3, [sp, #24]
 177 0014 FFF7FEFF 		bl	I2CdevreadByte
 178              	.LVL16:
 179              		.loc 1 70 0
 180 0018 0122     		movs	r2, #1
 181 001a AA40     		lsls	r2, r2, r5
 182 001c 9DF80730 		ldrb	r3, [sp, #7]	@ zero_extendqisi2
 183 0020 1A40     		ands	r2, r2, r3
 184 0022 2270     		strb	r2, [r4]
 185              		.loc 1 72 0
 186 0024 03B0     		add	sp, sp, #12
 187              		.cfi_def_cfa_offset 12
 188              		@ sp needed
 189 0026 30BD     		pop	{r4, r5, pc}
 190              		.cfi_endproc
 191              	.LFE257:
 192              		.size	I2CdevreadBit, .-I2CdevreadBit
 193              		.section	.text.I2CdevreadBits,"ax",%progbits
 194              		.align	1
 195              		.p2align 4,,15
 196              		.global	I2CdevreadBits
 197              		.syntax unified
 198              		.thumb
 199              		.thumb_func
 200              		.fpu fpv4-sp-d16
 201              		.type	I2CdevreadBits, %function
 202              	I2CdevreadBits:
 203              	.LFB259:
 204              		.loc 1 98 0
 205              		.cfi_startproc
 206              		@ args = 8, pretend = 0, frame = 8
 207              		@ frame_needed = 0, uses_anonymous_args = 0
 208              	.LVL17:
 209 0000 30B5     		push	{r4, r5, lr}
 210              		.cfi_def_cfa_offset 12
 211              		.cfi_offset 4, -12
 212              		.cfi_offset 5, -8
 213              		.cfi_offset 14, -4
 214 0002 83B0     		sub	sp, sp, #12
 215              		.cfi_def_cfa_offset 24
 216 0004 1446     		mov	r4, r2
 217 0006 1D46     		mov	r5, r3
 218              		.loc 1 104 0
 219 0008 02AA     		add	r2, sp, #8
 220              	.LVL18:
 221 000a 0023     		movs	r3, #0
 222              	.LVL19:
 223 000c 02F8013D 		strb	r3, [r2, #-1]!
 224              		.loc 1 105 0
 225 0010 BDF81C30 		ldrh	r3, [sp, #28]
 226 0014 FFF7FEFF 		bl	I2CdevreadByte
 227              	.LVL20:
 228 0018 0146     		mov	r1, r0
ARM GAS  C:\Users\CHRIST~1\AppData\Local\Temp\ccNxYdyN.s 			page 5


 229 001a 58B1     		cbz	r0, .L13
 230              	.LBB2:
 231              		.loc 1 106 0
 232 001c 621B     		subs	r2, r4, r5
 233 001e 531C     		adds	r3, r2, #1
 234              	.LVL21:
 235 0020 0122     		movs	r2, #1
 236 0022 AA40     		lsls	r2, r2, r5
 237 0024 013A     		subs	r2, r2, #1
 238 0026 9A40     		lsls	r2, r2, r3
 239              		.loc 1 107 0
 240 0028 9DF80700 		ldrb	r0, [sp, #7]	@ zero_extendqisi2
 241              	.LVL22:
 242              		.loc 1 108 0
 243 002c 0240     		ands	r2, r2, r0
 244 002e 1A41     		asrs	r2, r2, r3
 245 0030 069B     		ldr	r3, [sp, #24]
 246              	.LVL23:
 247 0032 1A70     		strb	r2, [r3]
 248              	.LVL24:
 249              	.L13:
 250              	.LBE2:
 251              		.loc 1 112 0
 252 0034 0846     		mov	r0, r1
 253 0036 03B0     		add	sp, sp, #12
 254              		.cfi_def_cfa_offset 12
 255              		@ sp needed
 256 0038 30BD     		pop	{r4, r5, pc}
 257              		.cfi_endproc
 258              	.LFE259:
 259              		.size	I2CdevreadBits, .-I2CdevreadBits
 260 003a 00BF     		.section	.text.I2CdevreadWords,"ax",%progbits
 261              		.align	1
 262              		.p2align 4,,15
 263              		.global	I2CdevreadWords
 264              		.syntax unified
 265              		.thumb
 266              		.thumb_func
 267              		.fpu fpv4-sp-d16
 268              		.type	I2CdevreadWords, %function
 269              	I2CdevreadWords:
 270              	.LFB264:
 271              		.loc 1 193 0
 272              		.cfi_startproc
 273              		@ args = 4, pretend = 0, frame = 72
 274              		@ frame_needed = 0, uses_anonymous_args = 0
 275              	.LVL25:
 276 0000 2DE9F041 		push	{r4, r5, r6, r7, r8, lr}
 277              		.cfi_def_cfa_offset 24
 278              		.cfi_offset 4, -24
 279              		.cfi_offset 5, -20
 280              		.cfi_offset 6, -16
 281              		.cfi_offset 7, -12
 282              		.cfi_offset 8, -8
 283              		.cfi_offset 14, -4
 284 0004 96B0     		sub	sp, sp, #88
 285              		.cfi_def_cfa_offset 112
ARM GAS  C:\Users\CHRIST~1\AppData\Local\Temp\ccNxYdyN.s 			page 6


 286 0006 BDF87070 		ldrh	r7, [sp, #112]
 287              		.loc 1 196 0
 288 000a 5400     		lsls	r4, r2, #1
 289 000c 402C     		cmp	r4, #64
 290 000e 67DC     		bgt	.L22
 291 0010 1D46     		mov	r5, r3
 292 0012 0646     		mov	r6, r0
 293              		.loc 1 199 0
 294 0014 8DF85410 		strb	r1, [sp, #84]
 295              	.LVL26:
 296              		.loc 1 200 0
 297 0018 002C     		cmp	r4, #0
 298 001a 3ED0     		beq	.L17
 299 001c 0022     		movs	r2, #0
 300              	.LVL27:
 301 001e 1146     		mov	r1, r2
 302              	.LVL28:
 303              		.loc 1 201 0
 304 0020 1346     		mov	r3, r2
 305              	.LVL29:
 306              	.L18:
 307              		.loc 1 201 0 is_stmt 0 discriminator 3
 308 0022 16A8     		add	r0, sp, #88
 309 0024 0144     		add	r1, r1, r0
 310 0026 01F8443C 		strb	r3, [r1, #-68]
 311              		.loc 1 200 0 is_stmt 1 discriminator 3
 312 002a 0132     		adds	r2, r2, #1
 313              	.LVL30:
 314 002c D2B2     		uxtb	r2, r2
 315              	.LVL31:
 316 002e 1146     		mov	r1, r2
 317 0030 9442     		cmp	r4, r2
 318 0032 F6DC     		bgt	.L18
 319              		.loc 1 203 0
 320 0034 DFF8BC80 		ldr	r8, .L32+4
 321 0038 4046     		mov	r0, r8
 322 003a FFF7FEFF 		bl	i2cAcquireBus
 323              	.LVL32:
 324              		.loc 1 204 0
 325 003e 42F21073 		movw	r3, #10000
 326 0042 03FB07F3 		mul	r3, r3, r7
 327 0046 03F2E733 		addw	r3, r3, #999
 328 004a 294A     		ldr	r2, .L32
 329 004c A2FB0323 		umull	r2, r3, r2, r3
 330 0050 9B09     		lsrs	r3, r3, #6
 331 0052 0293     		str	r3, [sp, #8]
 332 0054 0194     		str	r4, [sp, #4]
 333 0056 05AB     		add	r3, sp, #20
 334 0058 0093     		str	r3, [sp]
 335 005a 0123     		movs	r3, #1
 336 005c 15AA     		add	r2, sp, #84
 337 005e 3146     		mov	r1, r6
 338 0060 4046     		mov	r0, r8
 339 0062 FFF7FEFF 		bl	i2cMasterTransmitTimeout
 340              	.LVL33:
 341 0066 0646     		mov	r6, r0
 342              	.LVL34:
ARM GAS  C:\Users\CHRIST~1\AppData\Local\Temp\ccNxYdyN.s 			page 7


 343              		.loc 1 205 0
 344 0068 4046     		mov	r0, r8
 345              	.LVL35:
 346 006a FFF7FEFF 		bl	i2cReleaseBus
 347              	.LVL36:
 348              		.loc 1 206 0
 349 006e 0236     		adds	r6, r6, #2
 350              	.LVL37:
 351 0070 012E     		cmp	r6, #1
 352 0072 3BD9     		bls	.L31
 353              	.LVL38:
 354              	.L21:
 355              		.loc 1 200 0 discriminator 3
 356 0074 0022     		movs	r2, #0
 357 0076 1346     		mov	r3, r2
 358              	.L20:
 359              	.LVL39:
 360              		.loc 1 210 0 discriminator 3
 361 0078 16A9     		add	r1, sp, #88
 362 007a 0B44     		add	r3, r3, r1
 363 007c 13F8441C 		ldrb	r1, [r3, #-68]	@ zero_extendqisi2
 364 0080 13F8433C 		ldrb	r3, [r3, #-67]	@ zero_extendqisi2
 365 0084 03EB0123 		add	r3, r3, r1, lsl #8
 366 0088 25F81230 		strh	r3, [r5, r2, lsl #1]	@ movhi
 367              		.loc 1 209 0 discriminator 3
 368 008c 0232     		adds	r2, r2, #2
 369              	.LVL40:
 370 008e D2B2     		uxtb	r2, r2
 371              	.LVL41:
 372 0090 1346     		mov	r3, r2
 373 0092 9442     		cmp	r4, r2
 374 0094 F0DC     		bgt	.L20
 375              		.loc 1 212 0
 376 0096 0120     		movs	r0, #1
 377 0098 23E0     		b	.L29
 378              	.LVL42:
 379              	.L17:
 380              		.loc 1 203 0
 381 009a DFF85880 		ldr	r8, .L32+4
 382 009e 4046     		mov	r0, r8
 383              	.LVL43:
 384 00a0 FFF7FEFF 		bl	i2cAcquireBus
 385              	.LVL44:
 386              		.loc 1 204 0
 387 00a4 42F21073 		movw	r3, #10000
 388 00a8 03FB07F3 		mul	r3, r3, r7
 389 00ac 03F2E733 		addw	r3, r3, #999
 390 00b0 0F4A     		ldr	r2, .L32
 391 00b2 A2FB0323 		umull	r2, r3, r2, r3
 392 00b6 9B09     		lsrs	r3, r3, #6
 393 00b8 0293     		str	r3, [sp, #8]
 394 00ba 0194     		str	r4, [sp, #4]
 395 00bc 05AB     		add	r3, sp, #20
 396 00be 0093     		str	r3, [sp]
 397 00c0 0123     		movs	r3, #1
 398 00c2 15AA     		add	r2, sp, #84
 399 00c4 3146     		mov	r1, r6
ARM GAS  C:\Users\CHRIST~1\AppData\Local\Temp\ccNxYdyN.s 			page 8


 400 00c6 4046     		mov	r0, r8
 401 00c8 FFF7FEFF 		bl	i2cMasterTransmitTimeout
 402              	.LVL45:
 403 00cc 0646     		mov	r6, r0
 404              	.LVL46:
 405              		.loc 1 205 0
 406 00ce 4046     		mov	r0, r8
 407              	.LVL47:
 408 00d0 FFF7FEFF 		bl	i2cReleaseBus
 409              	.LVL48:
 410              		.loc 1 206 0
 411 00d4 0236     		adds	r6, r6, #2
 412              	.LVL49:
 413 00d6 012E     		cmp	r6, #1
 414 00d8 06D9     		bls	.L23
 415              		.loc 1 212 0
 416 00da 0120     		movs	r0, #1
 417              		.loc 1 209 0
 418 00dc 0CB1     		cbz	r4, .L29
 419 00de C9E7     		b	.L21
 420              	.LVL50:
 421              	.L22:
 422              		.loc 1 197 0
 423 00e0 0020     		movs	r0, #0
 424              	.LVL51:
 425              	.L29:
 426              		.loc 1 213 0
 427 00e2 16B0     		add	sp, sp, #88
 428              		.cfi_remember_state
 429              		.cfi_def_cfa_offset 24
 430              		@ sp needed
 431 00e4 BDE8F081 		pop	{r4, r5, r6, r7, r8, pc}
 432              	.LVL52:
 433              	.L23:
 434              		.cfi_restore_state
 435              		.loc 1 207 0
 436 00e8 0020     		movs	r0, #0
 437 00ea FAE7     		b	.L29
 438              	.LVL53:
 439              	.L31:
 440 00ec 0020     		movs	r0, #0
 441 00ee F8E7     		b	.L29
 442              	.L33:
 443              		.align	2
 444              	.L32:
 445 00f0 D34D6210 		.word	274877907
 446 00f4 00000000 		.word	I2CD1
 447              		.cfi_endproc
 448              	.LFE264:
 449              		.size	I2CdevreadWords, .-I2CdevreadWords
 450              		.section	.text.I2CdevreadWord,"ax",%progbits
 451              		.align	1
 452              		.p2align 4,,15
 453              		.global	I2CdevreadWord
 454              		.syntax unified
 455              		.thumb
 456              		.thumb_func
ARM GAS  C:\Users\CHRIST~1\AppData\Local\Temp\ccNxYdyN.s 			page 9


 457              		.fpu fpv4-sp-d16
 458              		.type	I2CdevreadWord, %function
 459              	I2CdevreadWord:
 460              	.LFB262:
 461              		.loc 1 158 0
 462              		.cfi_startproc
 463              		@ args = 0, pretend = 0, frame = 0
 464              		@ frame_needed = 0, uses_anonymous_args = 0
 465              	.LVL54:
 466 0000 00B5     		push	{lr}
 467              		.cfi_def_cfa_offset 4
 468              		.cfi_offset 14, -4
 469 0002 83B0     		sub	sp, sp, #12
 470              		.cfi_def_cfa_offset 16
 471              		.loc 1 159 0
 472 0004 0093     		str	r3, [sp]
 473 0006 1346     		mov	r3, r2
 474              	.LVL55:
 475 0008 0122     		movs	r2, #1
 476              	.LVL56:
 477 000a FFF7FEFF 		bl	I2CdevreadWords
 478              	.LVL57:
 479              		.loc 1 160 0
 480 000e 03B0     		add	sp, sp, #12
 481              		.cfi_def_cfa_offset 4
 482              		@ sp needed
 483 0010 5DF804FB 		ldr	pc, [sp], #4
 484              		.cfi_endproc
 485              	.LFE262:
 486              		.size	I2CdevreadWord, .-I2CdevreadWord
 487              		.section	.text.I2CdevreadBitW,"ax",%progbits
 488              		.align	1
 489              		.p2align 4,,15
 490              		.global	I2CdevreadBitW
 491              		.syntax unified
 492              		.thumb
 493              		.thumb_func
 494              		.fpu fpv4-sp-d16
 495              		.type	I2CdevreadBitW, %function
 496              	I2CdevreadBitW:
 497              	.LFB258:
 498              		.loc 1 82 0
 499              		.cfi_startproc
 500              		@ args = 4, pretend = 0, frame = 8
 501              		@ frame_needed = 0, uses_anonymous_args = 0
 502              	.LVL58:
 503 0000 30B5     		push	{r4, r5, lr}
 504              		.cfi_def_cfa_offset 12
 505              		.cfi_offset 4, -12
 506              		.cfi_offset 5, -8
 507              		.cfi_offset 14, -4
 508 0002 83B0     		sub	sp, sp, #12
 509              		.cfi_def_cfa_offset 24
 510 0004 1546     		mov	r5, r2
 511 0006 1C46     		mov	r4, r3
 512              		.loc 1 83 0
 513 0008 02AA     		add	r2, sp, #8
ARM GAS  C:\Users\CHRIST~1\AppData\Local\Temp\ccNxYdyN.s 			page 10


 514              	.LVL59:
 515 000a 0023     		movs	r3, #0
 516              	.LVL60:
 517 000c 22F8023D 		strh	r3, [r2, #-2]!	@ movhi
 518              		.loc 1 84 0
 519 0010 BDF81830 		ldrh	r3, [sp, #24]
 520 0014 FFF7FEFF 		bl	I2CdevreadWord
 521              	.LVL61:
 522              		.loc 1 85 0
 523 0018 0122     		movs	r2, #1
 524 001a AA40     		lsls	r2, r2, r5
 525 001c BDF80630 		ldrh	r3, [sp, #6]
 526 0020 1A40     		ands	r2, r2, r3
 527 0022 2280     		strh	r2, [r4]	@ movhi
 528              		.loc 1 87 0
 529 0024 03B0     		add	sp, sp, #12
 530              		.cfi_def_cfa_offset 12
 531              		@ sp needed
 532 0026 30BD     		pop	{r4, r5, pc}
 533              		.cfi_endproc
 534              	.LFE258:
 535              		.size	I2CdevreadBitW, .-I2CdevreadBitW
 536              		.section	.text.I2CdevreadBitsW,"ax",%progbits
 537              		.align	1
 538              		.p2align 4,,15
 539              		.global	I2CdevreadBitsW
 540              		.syntax unified
 541              		.thumb
 542              		.thumb_func
 543              		.fpu fpv4-sp-d16
 544              		.type	I2CdevreadBitsW, %function
 545              	I2CdevreadBitsW:
 546              	.LFB260:
 547              		.loc 1 123 0
 548              		.cfi_startproc
 549              		@ args = 8, pretend = 0, frame = 8
 550              		@ frame_needed = 0, uses_anonymous_args = 0
 551              	.LVL62:
 552 0000 30B5     		push	{r4, r5, lr}
 553              		.cfi_def_cfa_offset 12
 554              		.cfi_offset 4, -12
 555              		.cfi_offset 5, -8
 556              		.cfi_offset 14, -4
 557 0002 83B0     		sub	sp, sp, #12
 558              		.cfi_def_cfa_offset 24
 559 0004 1446     		mov	r4, r2
 560 0006 1D46     		mov	r5, r3
 561              		.loc 1 130 0
 562 0008 02AA     		add	r2, sp, #8
 563              	.LVL63:
 564 000a 0023     		movs	r3, #0
 565              	.LVL64:
 566 000c 22F8023D 		strh	r3, [r2, #-2]!	@ movhi
 567              		.loc 1 131 0
 568 0010 BDF81C30 		ldrh	r3, [sp, #28]
 569 0014 FFF7FEFF 		bl	I2CdevreadWord
 570              	.LVL65:
ARM GAS  C:\Users\CHRIST~1\AppData\Local\Temp\ccNxYdyN.s 			page 11


 571 0018 0146     		mov	r1, r0
 572 001a 58B1     		cbz	r0, .L39
 573              	.LBB3:
 574              		.loc 1 132 0
 575 001c 621B     		subs	r2, r4, r5
 576 001e 531C     		adds	r3, r2, #1
 577              	.LVL66:
 578 0020 0122     		movs	r2, #1
 579 0022 AA40     		lsls	r2, r2, r5
 580 0024 013A     		subs	r2, r2, #1
 581 0026 9A40     		lsls	r2, r2, r3
 582              		.loc 1 133 0
 583 0028 BDF80600 		ldrh	r0, [sp, #6]
 584              	.LVL67:
 585              		.loc 1 134 0
 586 002c 0240     		ands	r2, r2, r0
 587 002e 1A41     		asrs	r2, r2, r3
 588 0030 069B     		ldr	r3, [sp, #24]
 589              	.LVL68:
 590 0032 1A80     		strh	r2, [r3]	@ movhi
 591              	.LVL69:
 592              	.L39:
 593              	.LBE3:
 594              		.loc 1 138 0
 595 0034 0846     		mov	r0, r1
 596 0036 03B0     		add	sp, sp, #12
 597              		.cfi_def_cfa_offset 12
 598              		@ sp needed
 599 0038 30BD     		pop	{r4, r5, pc}
 600              		.cfi_endproc
 601              	.LFE260:
 602              		.size	I2CdevreadBitsW, .-I2CdevreadBitsW
 603 003a 00BF     		.section	.text.I2CdevwriteBytes,"ax",%progbits
 604              		.align	1
 605              		.p2align 4,,15
 606              		.global	I2CdevwriteBytes
 607              		.syntax unified
 608              		.thumb
 609              		.thumb_func
 610              		.fpu fpv4-sp-d16
 611              		.type	I2CdevwriteBytes, %function
 612              	I2CdevwriteBytes:
 613              	.LFB271:
 614              		.loc 1 328 0
 615              		.cfi_startproc
 616              		@ args = 0, pretend = 0, frame = 72
 617              		@ frame_needed = 0, uses_anonymous_args = 0
 618              	.LVL70:
 619 0000 F0B5     		push	{r4, r5, r6, r7, lr}
 620              		.cfi_def_cfa_offset 20
 621              		.cfi_offset 4, -20
 622              		.cfi_offset 5, -16
 623              		.cfi_offset 6, -12
 624              		.cfi_offset 7, -8
 625              		.cfi_offset 14, -4
 626 0002 97B0     		sub	sp, sp, #92
 627              		.cfi_def_cfa_offset 112
ARM GAS  C:\Users\CHRIST~1\AppData\Local\Temp\ccNxYdyN.s 			page 12


 628              		.loc 1 331 0
 629 0004 541C     		adds	r4, r2, #1
 630 0006 402C     		cmp	r4, #64
 631 0008 02DD     		ble	.L45
 632              		.loc 1 332 0
 633 000a 0020     		movs	r0, #0
 634              	.LVL71:
 635              	.L42:
 636              		.loc 1 344 0
 637 000c 17B0     		add	sp, sp, #92
 638              		.cfi_remember_state
 639              		.cfi_def_cfa_offset 20
 640              		@ sp needed
 641 000e F0BD     		pop	{r4, r5, r6, r7, pc}
 642              	.LVL72:
 643              	.L45:
 644              		.cfi_restore_state
 645 0010 0646     		mov	r6, r0
 646              		.loc 1 334 0
 647 0012 16AF     		add	r7, sp, #88
 648 0014 07F8401D 		strb	r1, [r7, #-64]!
 649              		.loc 1 335 0
 650 0018 1946     		mov	r1, r3
 651              	.LVL73:
 652 001a 0DF11900 		add	r0, sp, #25
 653              	.LVL74:
 654 001e FFF7FEFF 		bl	memcpy
 655              	.LVL75:
 656              		.loc 1 337 0
 657 0022 0D4D     		ldr	r5, .L46
 658 0024 2846     		mov	r0, r5
 659 0026 FFF7FEFF 		bl	i2cAcquireBus
 660              	.LVL76:
 661              		.loc 1 338 0
 662 002a 4FF0FF33 		mov	r3, #-1
 663 002e 0293     		str	r3, [sp, #8]
 664 0030 0023     		movs	r3, #0
 665 0032 0193     		str	r3, [sp, #4]
 666 0034 05AB     		add	r3, sp, #20
 667 0036 0093     		str	r3, [sp]
 668 0038 2346     		mov	r3, r4
 669 003a 3A46     		mov	r2, r7
 670 003c 3146     		mov	r1, r6
 671 003e 2846     		mov	r0, r5
 672 0040 FFF7FEFF 		bl	i2cMasterTransmitTimeout
 673              	.LVL77:
 674 0044 0446     		mov	r4, r0
 675              	.LVL78:
 676              		.loc 1 339 0
 677 0046 2846     		mov	r0, r5
 678              	.LVL79:
 679 0048 FFF7FEFF 		bl	i2cReleaseBus
 680              	.LVL80:
 681              		.loc 1 340 0
 682 004c 14F1020F 		cmn	r4, #2
 683 0050 2CBF     		ite	cs
 684 0052 0020     		movcs	r0, #0
ARM GAS  C:\Users\CHRIST~1\AppData\Local\Temp\ccNxYdyN.s 			page 13


 685 0054 0120     		movcc	r0, #1
 686 0056 D9E7     		b	.L42
 687              	.L47:
 688              		.align	2
 689              	.L46:
 690 0058 00000000 		.word	I2CD1
 691              		.cfi_endproc
 692              	.LFE271:
 693              		.size	I2CdevwriteBytes, .-I2CdevwriteBytes
 694              		.section	.text.I2CdevwriteByte,"ax",%progbits
 695              		.align	1
 696              		.p2align 4,,15
 697              		.global	I2CdevwriteByte
 698              		.syntax unified
 699              		.thumb
 700              		.thumb_func
 701              		.fpu fpv4-sp-d16
 702              		.type	I2CdevwriteByte, %function
 703              	I2CdevwriteByte:
 704              	.LFB269:
 705              		.loc 1 307 0
 706              		.cfi_startproc
 707              		@ args = 0, pretend = 0, frame = 8
 708              		@ frame_needed = 0, uses_anonymous_args = 0
 709              	.LVL81:
 710 0000 00B5     		push	{lr}
 711              		.cfi_def_cfa_offset 4
 712              		.cfi_offset 14, -4
 713 0002 83B0     		sub	sp, sp, #12
 714              		.cfi_def_cfa_offset 16
 715 0004 02AB     		add	r3, sp, #8
 716 0006 03F8012D 		strb	r2, [r3, #-1]!
 717              		.loc 1 308 0
 718 000a 0122     		movs	r2, #1
 719              	.LVL82:
 720 000c FFF7FEFF 		bl	I2CdevwriteBytes
 721              	.LVL83:
 722              		.loc 1 309 0
 723 0010 03B0     		add	sp, sp, #12
 724              		.cfi_def_cfa_offset 4
 725              		@ sp needed
 726 0012 5DF804FB 		ldr	pc, [sp], #4
 727              		.cfi_endproc
 728              	.LFE269:
 729              		.size	I2CdevwriteByte, .-I2CdevwriteByte
 730 0016 00BF     		.section	.text.I2CdevwriteBit,"ax",%progbits
 731              		.align	1
 732              		.p2align 4,,15
 733              		.global	I2CdevwriteBit
 734              		.syntax unified
 735              		.thumb
 736              		.thumb_func
 737              		.fpu fpv4-sp-d16
 738              		.type	I2CdevwriteBit, %function
 739              	I2CdevwriteBit:
 740              	.LFB265:
 741              		.loc 1 222 0
ARM GAS  C:\Users\CHRIST~1\AppData\Local\Temp\ccNxYdyN.s 			page 14


 742              		.cfi_startproc
 743              		@ args = 0, pretend = 0, frame = 8
 744              		@ frame_needed = 0, uses_anonymous_args = 0
 745              	.LVL84:
 746 0000 F0B5     		push	{r4, r5, r6, r7, lr}
 747              		.cfi_def_cfa_offset 20
 748              		.cfi_offset 4, -20
 749              		.cfi_offset 5, -16
 750              		.cfi_offset 6, -12
 751              		.cfi_offset 7, -8
 752              		.cfi_offset 14, -4
 753 0002 83B0     		sub	sp, sp, #12
 754              		.cfi_def_cfa_offset 32
 755 0004 0446     		mov	r4, r0
 756 0006 0D46     		mov	r5, r1
 757 0008 1646     		mov	r6, r2
 758 000a 1F46     		mov	r7, r3
 759              		.loc 1 223 0
 760 000c 02AA     		add	r2, sp, #8
 761              	.LVL85:
 762 000e 0023     		movs	r3, #0
 763              	.LVL86:
 764 0010 02F8013D 		strb	r3, [r2, #-1]!
 765              		.loc 1 224 0
 766 0014 4FF47A73 		mov	r3, #1000
 767 0018 FFF7FEFF 		bl	I2CdevreadByte
 768              	.LVL87:
 769              		.loc 1 225 0
 770 001c 77B9     		cbnz	r7, .L54
 771              		.loc 1 225 0 is_stmt 0 discriminator 2
 772 001e 0122     		movs	r2, #1
 773 0020 02FA06F3 		lsl	r3, r2, r6
 774 0024 9DF80720 		ldrb	r2, [sp, #7]	@ zero_extendqisi2
 775 0028 22EA0302 		bic	r2, r2, r3
 776              	.L52:
 777              		.loc 1 225 0 discriminator 4
 778 002c 8DF80720 		strb	r2, [sp, #7]
 779              		.loc 1 226 0 is_stmt 1 discriminator 4
 780 0030 2946     		mov	r1, r5
 781 0032 2046     		mov	r0, r4
 782 0034 FFF7FEFF 		bl	I2CdevwriteByte
 783              	.LVL88:
 784              		.loc 1 227 0 discriminator 4
 785 0038 03B0     		add	sp, sp, #12
 786              		.cfi_remember_state
 787              		.cfi_def_cfa_offset 20
 788              		@ sp needed
 789 003a F0BD     		pop	{r4, r5, r6, r7, pc}
 790              	.L54:
 791              		.cfi_restore_state
 792              		.loc 1 225 0 discriminator 1
 793 003c 0122     		movs	r2, #1
 794 003e B240     		lsls	r2, r2, r6
 795 0040 9DF80730 		ldrb	r3, [sp, #7]	@ zero_extendqisi2
 796 0044 1A43     		orrs	r2, r2, r3
 797 0046 D2B2     		uxtb	r2, r2
 798 0048 F0E7     		b	.L52
ARM GAS  C:\Users\CHRIST~1\AppData\Local\Temp\ccNxYdyN.s 			page 15


 799              		.cfi_endproc
 800              	.LFE265:
 801              		.size	I2CdevwriteBit, .-I2CdevwriteBit
 802 004a 00BF     		.section	.text.I2CdevwriteBits,"ax",%progbits
 803              		.align	1
 804              		.p2align 4,,15
 805              		.global	I2CdevwriteBits
 806              		.syntax unified
 807              		.thumb
 808              		.thumb_func
 809              		.fpu fpv4-sp-d16
 810              		.type	I2CdevwriteBits, %function
 811              	I2CdevwriteBits:
 812              	.LFB267:
 813              		.loc 1 251 0
 814              		.cfi_startproc
 815              		@ args = 4, pretend = 0, frame = 8
 816              		@ frame_needed = 0, uses_anonymous_args = 0
 817              	.LVL89:
 818 0000 F0B5     		push	{r4, r5, r6, r7, lr}
 819              		.cfi_def_cfa_offset 20
 820              		.cfi_offset 4, -20
 821              		.cfi_offset 5, -16
 822              		.cfi_offset 6, -12
 823              		.cfi_offset 7, -8
 824              		.cfi_offset 14, -4
 825 0002 83B0     		sub	sp, sp, #12
 826              		.cfi_def_cfa_offset 32
 827 0004 0546     		mov	r5, r0
 828 0006 0E46     		mov	r6, r1
 829 0008 1446     		mov	r4, r2
 830 000a 1F46     		mov	r7, r3
 831              		.loc 1 259 0
 832 000c 02AA     		add	r2, sp, #8
 833              	.LVL90:
 834 000e 0023     		movs	r3, #0
 835              	.LVL91:
 836 0010 02F8013D 		strb	r3, [r2, #-1]!
 837              		.loc 1 260 0
 838 0014 4FF47A73 		mov	r3, #1000
 839 0018 FFF7FEFF 		bl	I2CdevreadByte
 840              	.LVL92:
 841 001c 10B9     		cbnz	r0, .L59
 842              		.loc 1 268 0
 843 001e 0020     		movs	r0, #0
 844              	.LVL93:
 845              	.L56:
 846              		.loc 1 270 0
 847 0020 03B0     		add	sp, sp, #12
 848              		.cfi_remember_state
 849              		.cfi_def_cfa_offset 20
 850              		@ sp needed
 851 0022 F0BD     		pop	{r4, r5, r6, r7, pc}
 852              	.LVL94:
 853              	.L59:
 854              		.cfi_restore_state
 855              	.LBB4:
ARM GAS  C:\Users\CHRIST~1\AppData\Local\Temp\ccNxYdyN.s 			page 16


 856              		.loc 1 261 0
 857 0024 E41B     		subs	r4, r4, r7
 858 0026 0134     		adds	r4, r4, #1
 859 0028 0123     		movs	r3, #1
 860 002a BB40     		lsls	r3, r3, r7
 861 002c 013B     		subs	r3, r3, #1
 862 002e A340     		lsls	r3, r3, r4
 863              	.LVL95:
 864              		.loc 1 262 0
 865 0030 9DF82020 		ldrb	r2, [sp, #32]	@ zero_extendqisi2
 866 0034 02FA04F4 		lsl	r4, r2, r4
 867 0038 E4B2     		uxtb	r4, r4
 868              	.LVL96:
 869              		.loc 1 264 0
 870 003a 9DF80720 		ldrb	r2, [sp, #7]	@ zero_extendqisi2
 871 003e 22EA0302 		bic	r2, r2, r3
 872              		.loc 1 263 0
 873 0042 2340     		ands	r3, r3, r4
 874              	.LVL97:
 875              		.loc 1 265 0
 876 0044 1A43     		orrs	r2, r2, r3
 877 0046 8DF80720 		strb	r2, [sp, #7]
 878              		.loc 1 266 0
 879 004a 3146     		mov	r1, r6
 880 004c 2846     		mov	r0, r5
 881 004e FFF7FEFF 		bl	I2CdevwriteByte
 882              	.LVL98:
 883 0052 E5E7     		b	.L56
 884              	.LBE4:
 885              		.cfi_endproc
 886              	.LFE267:
 887              		.size	I2CdevwriteBits, .-I2CdevwriteBits
 888              		.section	.text.I2CdevwriteWords,"ax",%progbits
 889              		.align	1
 890              		.p2align 4,,15
 891              		.global	I2CdevwriteWords
 892              		.syntax unified
 893              		.thumb
 894              		.thumb_func
 895              		.fpu fpv4-sp-d16
 896              		.type	I2CdevwriteWords, %function
 897              	I2CdevwriteWords:
 898              	.LFB272:
 899              		.loc 1 353 0
 900              		.cfi_startproc
 901              		@ args = 0, pretend = 0, frame = 72
 902              		@ frame_needed = 0, uses_anonymous_args = 0
 903              	.LVL99:
 904 0000 F0B5     		push	{r4, r5, r6, r7, lr}
 905              		.cfi_def_cfa_offset 20
 906              		.cfi_offset 4, -20
 907              		.cfi_offset 5, -16
 908              		.cfi_offset 6, -12
 909              		.cfi_offset 7, -8
 910              		.cfi_offset 14, -4
 911 0002 97B0     		sub	sp, sp, #92
 912              		.cfi_def_cfa_offset 112
ARM GAS  C:\Users\CHRIST~1\AppData\Local\Temp\ccNxYdyN.s 			page 17


 913              		.loc 1 356 0
 914 0004 5200     		lsls	r2, r2, #1
 915              	.LVL100:
 916 0006 571C     		adds	r7, r2, #1
 917 0008 402F     		cmp	r7, #64
 918 000a 30DC     		bgt	.L64
 919              		.loc 1 359 0
 920 000c 8DF81810 		strb	r1, [sp, #24]
 921              	.LVL101:
 922              		.loc 1 360 0
 923 0010 012F     		cmp	r7, #1
 924 0012 0FDD     		ble	.L62
 925 0014 0124     		movs	r4, #1
 926 0016 2546     		mov	r5, r4
 927              	.LVL102:
 928              	.L63:
 929              		.loc 1 361 0 discriminator 3
 930 0018 33F81460 		ldrh	r6, [r3, r4, lsl #1]
 931 001c 16AA     		add	r2, sp, #88
 932 001e 1544     		add	r5, r5, r2
 933 0020 320A     		lsrs	r2, r6, #8
 934 0022 05F8402C 		strb	r2, [r5, #-64]
 935              		.loc 1 362 0 discriminator 3
 936 0026 05F83F6C 		strb	r6, [r5, #-63]
 937              		.loc 1 360 0 discriminator 3
 938 002a 0234     		adds	r4, r4, #2
 939              	.LVL103:
 940 002c E4B2     		uxtb	r4, r4
 941              	.LVL104:
 942 002e 2546     		mov	r5, r4
 943 0030 A742     		cmp	r7, r4
 944 0032 F1DC     		bgt	.L63
 945              	.LVL105:
 946              	.L62:
 947 0034 0446     		mov	r4, r0
 948              		.loc 1 364 0
 949 0036 0F4D     		ldr	r5, .L67
 950 0038 2846     		mov	r0, r5
 951              	.LVL106:
 952 003a FFF7FEFF 		bl	i2cAcquireBus
 953              	.LVL107:
 954              		.loc 1 365 0
 955 003e 4FF0FF33 		mov	r3, #-1
 956 0042 0293     		str	r3, [sp, #8]
 957 0044 0023     		movs	r3, #0
 958 0046 0193     		str	r3, [sp, #4]
 959 0048 05AB     		add	r3, sp, #20
 960 004a 0093     		str	r3, [sp]
 961 004c 3B46     		mov	r3, r7
 962 004e 06AA     		add	r2, sp, #24
 963 0050 2146     		mov	r1, r4
 964 0052 2846     		mov	r0, r5
 965 0054 FFF7FEFF 		bl	i2cMasterTransmitTimeout
 966              	.LVL108:
 967 0058 0446     		mov	r4, r0
 968              	.LVL109:
 969              		.loc 1 366 0
ARM GAS  C:\Users\CHRIST~1\AppData\Local\Temp\ccNxYdyN.s 			page 18


 970 005a 2846     		mov	r0, r5
 971              	.LVL110:
 972 005c FFF7FEFF 		bl	i2cReleaseBus
 973              	.LVL111:
 974              		.loc 1 367 0
 975 0060 14F1020F 		cmn	r4, #2
 976 0064 2CBF     		ite	cs
 977 0066 0020     		movcs	r0, #0
 978 0068 0120     		movcc	r0, #1
 979              	.LVL112:
 980              	.L61:
 981              		.loc 1 371 0
 982 006a 17B0     		add	sp, sp, #92
 983              		.cfi_remember_state
 984              		.cfi_def_cfa_offset 20
 985              		@ sp needed
 986 006c F0BD     		pop	{r4, r5, r6, r7, pc}
 987              	.LVL113:
 988              	.L64:
 989              		.cfi_restore_state
 990              		.loc 1 357 0
 991 006e 0020     		movs	r0, #0
 992              	.LVL114:
 993 0070 FBE7     		b	.L61
 994              	.L68:
 995 0072 00BF     		.align	2
 996              	.L67:
 997 0074 00000000 		.word	I2CD1
 998              		.cfi_endproc
 999              	.LFE272:
 1000              		.size	I2CdevwriteWords, .-I2CdevwriteWords
 1001              		.section	.text.I2CdevwriteWord,"ax",%progbits
 1002              		.align	1
 1003              		.p2align 4,,15
 1004              		.global	I2CdevwriteWord
 1005              		.syntax unified
 1006              		.thumb
 1007              		.thumb_func
 1008              		.fpu fpv4-sp-d16
 1009              		.type	I2CdevwriteWord, %function
 1010              	I2CdevwriteWord:
 1011              	.LFB270:
 1012              		.loc 1 317 0
 1013              		.cfi_startproc
 1014              		@ args = 0, pretend = 0, frame = 8
 1015              		@ frame_needed = 0, uses_anonymous_args = 0
 1016              	.LVL115:
 1017 0000 00B5     		push	{lr}
 1018              		.cfi_def_cfa_offset 4
 1019              		.cfi_offset 14, -4
 1020 0002 83B0     		sub	sp, sp, #12
 1021              		.cfi_def_cfa_offset 16
 1022 0004 02AB     		add	r3, sp, #8
 1023 0006 23F8022D 		strh	r2, [r3, #-2]!	@ movhi
 1024              		.loc 1 318 0
 1025 000a 0122     		movs	r2, #1
 1026              	.LVL116:
ARM GAS  C:\Users\CHRIST~1\AppData\Local\Temp\ccNxYdyN.s 			page 19


 1027 000c FFF7FEFF 		bl	I2CdevwriteWords
 1028              	.LVL117:
 1029              		.loc 1 319 0
 1030 0010 03B0     		add	sp, sp, #12
 1031              		.cfi_def_cfa_offset 4
 1032              		@ sp needed
 1033 0012 5DF804FB 		ldr	pc, [sp], #4
 1034              		.cfi_endproc
 1035              	.LFE270:
 1036              		.size	I2CdevwriteWord, .-I2CdevwriteWord
 1037 0016 00BF     		.section	.text.I2CdevwriteBitW,"ax",%progbits
 1038              		.align	1
 1039              		.p2align 4,,15
 1040              		.global	I2CdevwriteBitW
 1041              		.syntax unified
 1042              		.thumb
 1043              		.thumb_func
 1044              		.fpu fpv4-sp-d16
 1045              		.type	I2CdevwriteBitW, %function
 1046              	I2CdevwriteBitW:
 1047              	.LFB266:
 1048              		.loc 1 236 0
 1049              		.cfi_startproc
 1050              		@ args = 0, pretend = 0, frame = 8
 1051              		@ frame_needed = 0, uses_anonymous_args = 0
 1052              	.LVL118:
 1053 0000 F0B5     		push	{r4, r5, r6, r7, lr}
 1054              		.cfi_def_cfa_offset 20
 1055              		.cfi_offset 4, -20
 1056              		.cfi_offset 5, -16
 1057              		.cfi_offset 6, -12
 1058              		.cfi_offset 7, -8
 1059              		.cfi_offset 14, -4
 1060 0002 83B0     		sub	sp, sp, #12
 1061              		.cfi_def_cfa_offset 32
 1062 0004 0446     		mov	r4, r0
 1063 0006 0D46     		mov	r5, r1
 1064 0008 1646     		mov	r6, r2
 1065 000a 1F46     		mov	r7, r3
 1066              		.loc 1 237 0
 1067 000c 02AA     		add	r2, sp, #8
 1068              	.LVL119:
 1069 000e 0023     		movs	r3, #0
 1070              	.LVL120:
 1071 0010 22F8023D 		strh	r3, [r2, #-2]!	@ movhi
 1072              		.loc 1 238 0
 1073 0014 4FF47A73 		mov	r3, #1000
 1074 0018 FFF7FEFF 		bl	I2CdevreadWord
 1075              	.LVL121:
 1076              		.loc 1 239 0
 1077 001c 77B9     		cbnz	r7, .L75
 1078              		.loc 1 239 0 is_stmt 0 discriminator 2
 1079 001e 0122     		movs	r2, #1
 1080 0020 02FA06F3 		lsl	r3, r2, r6
 1081 0024 BDF80620 		ldrh	r2, [sp, #6]
 1082 0028 22EA0302 		bic	r2, r2, r3
 1083              	.L73:
ARM GAS  C:\Users\CHRIST~1\AppData\Local\Temp\ccNxYdyN.s 			page 20


 1084              		.loc 1 239 0 discriminator 4
 1085 002c ADF80620 		strh	r2, [sp, #6]	@ movhi
 1086              		.loc 1 240 0 is_stmt 1 discriminator 4
 1087 0030 2946     		mov	r1, r5
 1088 0032 2046     		mov	r0, r4
 1089 0034 FFF7FEFF 		bl	I2CdevwriteWord
 1090              	.LVL122:
 1091              		.loc 1 241 0 discriminator 4
 1092 0038 03B0     		add	sp, sp, #12
 1093              		.cfi_remember_state
 1094              		.cfi_def_cfa_offset 20
 1095              		@ sp needed
 1096 003a F0BD     		pop	{r4, r5, r6, r7, pc}
 1097              	.L75:
 1098              		.cfi_restore_state
 1099              		.loc 1 239 0 discriminator 1
 1100 003c 0122     		movs	r2, #1
 1101 003e B240     		lsls	r2, r2, r6
 1102 0040 BDF80630 		ldrh	r3, [sp, #6]
 1103 0044 1A43     		orrs	r2, r2, r3
 1104 0046 92B2     		uxth	r2, r2
 1105 0048 F0E7     		b	.L73
 1106              		.cfi_endproc
 1107              	.LFE266:
 1108              		.size	I2CdevwriteBitW, .-I2CdevwriteBitW
 1109 004a 00BF     		.section	.text.I2CdevwriteBitsW,"ax",%progbits
 1110              		.align	1
 1111              		.p2align 4,,15
 1112              		.global	I2CdevwriteBitsW
 1113              		.syntax unified
 1114              		.thumb
 1115              		.thumb_func
 1116              		.fpu fpv4-sp-d16
 1117              		.type	I2CdevwriteBitsW, %function
 1118              	I2CdevwriteBitsW:
 1119              	.LFB268:
 1120              		.loc 1 280 0
 1121              		.cfi_startproc
 1122              		@ args = 4, pretend = 0, frame = 8
 1123              		@ frame_needed = 0, uses_anonymous_args = 0
 1124              	.LVL123:
 1125 0000 F0B5     		push	{r4, r5, r6, r7, lr}
 1126              		.cfi_def_cfa_offset 20
 1127              		.cfi_offset 4, -20
 1128              		.cfi_offset 5, -16
 1129              		.cfi_offset 6, -12
 1130              		.cfi_offset 7, -8
 1131              		.cfi_offset 14, -4
 1132 0002 83B0     		sub	sp, sp, #12
 1133              		.cfi_def_cfa_offset 32
 1134 0004 0446     		mov	r4, r0
 1135 0006 0D46     		mov	r5, r1
 1136 0008 1646     		mov	r6, r2
 1137 000a 1F46     		mov	r7, r3
 1138              		.loc 1 288 0
 1139 000c 02AA     		add	r2, sp, #8
 1140              	.LVL124:
ARM GAS  C:\Users\CHRIST~1\AppData\Local\Temp\ccNxYdyN.s 			page 21


 1141 000e 0023     		movs	r3, #0
 1142              	.LVL125:
 1143 0010 22F8023D 		strh	r3, [r2, #-2]!	@ movhi
 1144              		.loc 1 289 0
 1145 0014 4FF47A73 		mov	r3, #1000
 1146 0018 FFF7FEFF 		bl	I2CdevreadWord
 1147              	.LVL126:
 1148 001c 10B9     		cbnz	r0, .L80
 1149              		.loc 1 297 0
 1150 001e 0020     		movs	r0, #0
 1151              	.LVL127:
 1152              	.L77:
 1153              		.loc 1 299 0
 1154 0020 03B0     		add	sp, sp, #12
 1155              		.cfi_remember_state
 1156              		.cfi_def_cfa_offset 20
 1157              		@ sp needed
 1158 0022 F0BD     		pop	{r4, r5, r6, r7, pc}
 1159              	.LVL128:
 1160              	.L80:
 1161              		.cfi_restore_state
 1162              	.LBB5:
 1163              		.loc 1 290 0
 1164 0024 F61B     		subs	r6, r6, r7
 1165 0026 0136     		adds	r6, r6, #1
 1166              	.LVL129:
 1167              		.loc 1 291 0
 1168 0028 BDF82030 		ldrh	r3, [sp, #32]
 1169 002c 03FA06F1 		lsl	r1, r3, r6
 1170              	.LVL130:
 1171              		.loc 1 290 0
 1172 0030 0123     		movs	r3, #1
 1173 0032 BB40     		lsls	r3, r3, r7
 1174 0034 013B     		subs	r3, r3, #1
 1175 0036 B340     		lsls	r3, r3, r6
 1176              		.loc 1 292 0
 1177 0038 DBB2     		uxtb	r3, r3
 1178              	.LVL131:
 1179              		.loc 1 293 0
 1180 003a BDF80620 		ldrh	r2, [sp, #6]
 1181 003e 22EA0302 		bic	r2, r2, r3
 1182              		.loc 1 292 0
 1183 0042 0B40     		ands	r3, r3, r1
 1184              	.LVL132:
 1185              		.loc 1 294 0
 1186 0044 1A43     		orrs	r2, r2, r3
 1187 0046 ADF80620 		strh	r2, [sp, #6]	@ movhi
 1188              		.loc 1 295 0
 1189 004a 2946     		mov	r1, r5
 1190              	.LVL133:
 1191 004c 2046     		mov	r0, r4
 1192 004e FFF7FEFF 		bl	I2CdevwriteWord
 1193              	.LVL134:
 1194 0052 E5E7     		b	.L77
 1195              	.LBE5:
 1196              		.cfi_endproc
 1197              	.LFE268:
ARM GAS  C:\Users\CHRIST~1\AppData\Local\Temp\ccNxYdyN.s 			page 22


 1198              		.size	I2CdevwriteBitsW, .-I2CdevwriteBitsW
 1199              		.text
 1200              	.Letext0:
 1201              		.file 2 "c:\\program files (x86)\\gnu tools arm embedded\\7 2017-q4-major\\lib\\gcc\\arm-none-eabi
 1202              		.file 3 "c:\\program files (x86)\\gnu tools arm embedded\\7 2017-q4-major\\arm-none-eabi\\include\
 1203              		.file 4 "c:\\program files (x86)\\gnu tools arm embedded\\7 2017-q4-major\\arm-none-eabi\\include\
 1204              		.file 5 "ChibiOS_3.0.2/os/rt/ports/ARMCMx/compilers/GCC/chtypes.h"
 1205              		.file 6 "ChibiOS_3.0.2/os/rt/include/chsystypes.h"
 1206              		.file 7 "ChibiOS_3.0.2/os/rt/include/chschd.h"
 1207              		.file 8 "ChibiOS_3.0.2/os/ext/CMSIS/include/core_cm4.h"
 1208              		.file 9 "ChibiOS_3.0.2/os/ext/CMSIS/ST/system_stm32f4xx.h"
 1209              		.file 10 "ChibiOS_3.0.2/os/ext/CMSIS/ST/stm32f407xx.h"
 1210              		.file 11 "ChibiOS_3.0.2/os/rt/ports/ARMCMx/chcore.h"
 1211              		.file 12 "ChibiOS_3.0.2/os/rt/ports/ARMCMx/chcore_v7m.h"
 1212              		.file 13 "ChibiOS_3.0.2/os/rt/include/chtm.h"
 1213              		.file 14 "ChibiOS_3.0.2/os/rt/include/chsem.h"
 1214              		.file 15 "ChibiOS_3.0.2/os/rt/include/chmtx.h"
 1215              		.file 16 "ChibiOS_3.0.2/os/rt/include/chregistry.h"
 1216              		.file 17 "ChibiOS_3.0.2/os/rt/include/chevents.h"
 1217              		.file 18 "ChibiOS_3.0.2/os/rt/include/chqueues.h"
 1218              		.file 19 "./conf_general.h"
 1219              		.file 20 "ChibiOS_3.0.2/os/hal/ports/STM32/STM32F4xx/stm32_dma.h"
 1220              		.file 21 "ChibiOS_3.0.2/os/hal/ports/STM32/LLD/GPIOv2/pal_lld.h"
 1221              		.file 22 "ChibiOS_3.0.2/os/hal/include/can.h"
 1222              		.file 23 "ChibiOS_3.0.2/os/hal/ports/STM32/LLD/can_lld.h"
 1223              		.file 24 "ChibiOS_3.0.2/os/hal/include/i2c.h"
 1224              		.file 25 "ChibiOS_3.0.2/os/hal/ports/STM32/LLD/I2Cv1/i2c_lld.h"
 1225              		.file 26 "ChibiOS_3.0.2/os/hal/include/icu.h"
 1226              		.file 27 "ChibiOS_3.0.2/os/hal/ports/STM32/LLD/TIMv1/icu_lld.h"
 1227              		.file 28 "ChibiOS_3.0.2/os/hal/ports/STM32/LLD/TIMv1/stm32_tim.h"
 1228              		.file 29 "ChibiOS_3.0.2/os/hal/include/spi.h"
 1229              		.file 30 "ChibiOS_3.0.2/os/hal/ports/STM32/LLD/SPIv1/spi_lld.h"
 1230              		.file 31 "ChibiOS_3.0.2/os/hal/include/uart.h"
 1231              		.file 32 "ChibiOS_3.0.2/os/hal/ports/STM32/LLD/USARTv1/uart_lld.h"
 1232              		.file 33 "ChibiOS_3.0.2/os/hal/include/usb.h"
 1233              		.file 34 "ChibiOS_3.0.2/os/hal/ports/STM32/LLD/OTGv1/usb_lld.h"
 1234              		.file 35 "ChibiOS_3.0.2/os/hal/ports/STM32/LLD/OTGv1/stm32_otg.h"
 1235              		.file 36 "c:\\program files (x86)\\gnu tools arm embedded\\7 2017-q4-major\\arm-none-eabi\\include
 1236              		.file 37 "c:\\program files (x86)\\gnu tools arm embedded\\7 2017-q4-major\\arm-none-eabi\\include
 1237              		.file 38 "c:\\program files (x86)\\gnu tools arm embedded\\7 2017-q4-major\\arm-none-eabi\\include
 1238              		.file 39 "<built-in>"
