ARM GAS  C:\Users\CHRIST~1\AppData\Local\Temp\ccxDlOFs.s 			page 1


   1              		.cpu cortex-m4
   2              		.eabi_attribute 27, 1
   3              		.eabi_attribute 28, 1
   4              		.eabi_attribute 20, 1
   5              		.eabi_attribute 21, 1
   6              		.eabi_attribute 23, 3
   7              		.eabi_attribute 24, 1
   8              		.eabi_attribute 25, 1
   9              		.eabi_attribute 26, 1
  10              		.eabi_attribute 30, 1
  11              		.eabi_attribute 34, 1
  12              		.eabi_attribute 18, 4
  13              		.file	"icu_lld.c"
  14              		.text
  15              	.Ltext0:
  16              		.cfi_sections	.debug_frame
  17              		.section	.text.icu_lld_wait_edge,"ax",%progbits
  18              		.align	1
  19              		.p2align 4,,15
  20              		.syntax unified
  21              		.thumb
  22              		.thumb_func
  23              		.fpu fpv4-sp-d16
  24              		.type	icu_lld_wait_edge, %function
  25              	icu_lld_wait_edge:
  26              	.LFB256:
  27              		.file 1 "ChibiOS_3.0.2/os/hal/ports/STM32/LLD/TIMv1/icu_lld.c"
  28              		.loc 1 105 0
  29              		.cfi_startproc
  30              		@ args = 0, pretend = 0, frame = 0
  31              		@ frame_needed = 0, uses_anonymous_args = 0
  32              		@ link register save eliminated.
  33              	.LVL0:
  34              	.LBB24:
  35              	.LBB25:
  36              	.LBB26:
  37              	.LBB27:
  38              	.LBB28:
  39              		.file 2 "ChibiOS_3.0.2/os/ext/CMSIS/include/core_cmFunc.h"
  40              		.loc 2 546 0
  41 0000 0023     		movs	r3, #0
  42              		.syntax unified
  43              	@ 546 "ChibiOS_3.0.2/os/ext/CMSIS/include/core_cmFunc.h" 1
  44 0002 83F31188 		MSR basepri, r3
  45              	@ 0 "" 2
  46              	.LVL1:
  47              		.thumb
  48              		.syntax unified
  49              	.LBE28:
  50              	.LBE27:
  51              	.LBE26:
  52              	.LBE25:
  53              	.LBE24:
  54              		.loc 1 114 0
  55 0006 4368     		ldr	r3, [r0, #4]
  56 0008 1B7D     		ldrb	r3, [r3, #20]	@ zero_extendqisi2
  57 000a 7BB9     		cbnz	r3, .L2
ARM GAS  C:\Users\CHRIST~1\AppData\Local\Temp\ccxDlOFs.s 			page 2


  58              		.loc 1 116 0
  59 000c C268     		ldr	r2, [r0, #12]
  60              	.L3:
  61              		.loc 1 116 0 is_stmt 0 discriminator 1
  62 000e 1369     		ldr	r3, [r2, #16]
  63              	.LVL2:
  64 0010 13F0030F 		tst	r3, #3
  65 0014 FBD0     		beq	.L3
  66              	.L4:
  67              	.LVL3:
  68              	.LBB29:
  69              	.LBB30:
  70              	.LBB31:
  71              	.LBB32:
  72              		.loc 2 546 0 is_stmt 1
  73 0016 2022     		movs	r2, #32
  74              		.syntax unified
  75              	@ 546 "ChibiOS_3.0.2/os/ext/CMSIS/include/core_cmFunc.h" 1
  76 0018 82F31188 		MSR basepri, r2
  77              	@ 0 "" 2
  78              	.LVL4:
  79              		.thumb
  80              		.syntax unified
  81              	.LBE32:
  82              	.LBE31:
  83              	.LBE30:
  84              	.LBE29:
  85              		.loc 1 134 0
  86 001c C168     		ldr	r1, [r0, #12]
  87 001e 0A69     		ldr	r2, [r1, #16]
  88 0020 22F00702 		bic	r2, r2, #7
  89 0024 0A61     		str	r2, [r1, #16]
  90              		.loc 1 139 0
  91 0026 03F00100 		and	r0, r3, #1
  92              	.LVL5:
  93 002a 7047     		bx	lr
  94              	.LVL6:
  95              	.L2:
  96              		.loc 1 122 0
  97 002c C268     		ldr	r2, [r0, #12]
  98              	.L5:
  99              		.loc 1 122 0 is_stmt 0 discriminator 1
 100 002e 1369     		ldr	r3, [r2, #16]
 101              	.LVL7:
 102 0030 13F0050F 		tst	r3, #5
 103 0034 FBD0     		beq	.L5
 104 0036 EEE7     		b	.L4
 105              		.cfi_endproc
 106              	.LFE256:
 107              		.size	icu_lld_wait_edge, .-icu_lld_wait_edge
 108              		.section	.text.VectorB4,"ax",%progbits
 109              		.align	1
 110              		.p2align 4,,15
 111              		.global	VectorB4
 112              		.syntax unified
 113              		.thumb
 114              		.thumb_func
ARM GAS  C:\Users\CHRIST~1\AppData\Local\Temp\ccxDlOFs.s 			page 3


 115              		.fpu fpv4-sp-d16
 116              		.type	VectorB4, %function
 117              	VectorB4:
 118              	.LFB258:
 119              		.loc 1 248 0 is_stmt 1
 120              		.cfi_startproc
 121              		@ args = 0, pretend = 0, frame = 0
 122              		@ frame_needed = 0, uses_anonymous_args = 0
 123 0000 10B5     		push	{r4, lr}
 124              		.cfi_def_cfa_offset 8
 125              		.cfi_offset 4, -8
 126              		.cfi_offset 14, -4
 127              	.LVL8:
 128              	.LBB35:
 129              	.LBB36:
 130              		.loc 1 149 0
 131 0002 3049     		ldr	r1, .L26
 132 0004 CB68     		ldr	r3, [r1, #12]
 133 0006 1C69     		ldr	r4, [r3, #16]
 134              	.LVL9:
 135              		.loc 1 150 0
 136 0008 DA68     		ldr	r2, [r3, #12]
 137 000a 1440     		ands	r4, r4, r2
 138              	.LVL10:
 139 000c E2B2     		uxtb	r2, r4
 140              		.loc 1 151 0
 141 000e D243     		mvns	r2, r2
 142 0010 1A61     		str	r2, [r3, #16]
 143              		.loc 1 152 0
 144 0012 4B68     		ldr	r3, [r1, #4]
 145 0014 1A7D     		ldrb	r2, [r3, #20]	@ zero_extendqisi2
 146 0016 2ABB     		cbnz	r2, .L9
 147              		.loc 1 153 0
 148 0018 14F0040F 		tst	r4, #4
 149 001c 0BD0     		beq	.L10
 150              		.loc 1 154 0
 151 001e 0A78     		ldrb	r2, [r1]	@ zero_extendqisi2
 152 0020 042A     		cmp	r2, #4
 153 0022 03D0     		beq	.L24
 154              		.loc 1 155 0
 155 0024 14F0020F 		tst	r4, #2
 156 0028 0CD1     		bne	.L14
 157 002a 0EE0     		b	.L13
 158              	.L24:
 159              		.loc 1 154 0
 160 002c 9B68     		ldr	r3, [r3, #8]
 161 002e 002B     		cmp	r3, #0
 162 0030 32D0     		beq	.L12
 163 0032 0846     		mov	r0, r1
 164 0034 9847     		blx	r3
 165              	.LVL11:
 166              	.L10:
 167              		.loc 1 155 0
 168 0036 14F0020F 		tst	r4, #2
 169 003a 06D0     		beq	.L13
 170              		.loc 1 156 0
 171 003c 214B     		ldr	r3, .L26
ARM GAS  C:\Users\CHRIST~1\AppData\Local\Temp\ccxDlOFs.s 			page 4


 172 003e 1B78     		ldrb	r3, [r3]	@ zero_extendqisi2
 173 0040 042B     		cmp	r3, #4
 174 0042 2CD0     		beq	.L20
 175              	.L14:
 176 0044 1F4B     		ldr	r3, .L26
 177 0046 0422     		movs	r2, #4
 178 0048 1A70     		strb	r2, [r3]
 179              	.L13:
 180              		.loc 1 164 0
 181 004a 14F0010F 		tst	r4, #1
 182 004e 06D0     		beq	.L19
 183              		.loc 1 165 0
 184 0050 1C4C     		ldr	r4, .L26
 185              	.LVL12:
 186 0052 6368     		ldr	r3, [r4, #4]
 187 0054 1B69     		ldr	r3, [r3, #16]
 188 0056 2046     		mov	r0, r4
 189 0058 9847     		blx	r3
 190              	.LVL13:
 191 005a 0323     		movs	r3, #3
 192 005c 2370     		strb	r3, [r4]
 193              	.L19:
 194              	.LVL14:
 195              	.LBE36:
 196              	.LBE35:
 197              		.loc 1 254 0
 198 005e FFF7FEFF 		bl	_port_irq_epilogue
 199              	.LVL15:
 200              		.loc 1 255 0
 201 0062 10BD     		pop	{r4, pc}
 202              	.LVL16:
 203              	.L9:
 204              	.LBB38:
 205              	.LBB37:
 206              		.loc 1 159 0
 207 0064 14F0020F 		tst	r4, #2
 208 0068 0BD0     		beq	.L15
 209              		.loc 1 160 0
 210 006a 164A     		ldr	r2, .L26
 211 006c 1278     		ldrb	r2, [r2]	@ zero_extendqisi2
 212 006e 042A     		cmp	r2, #4
 213 0070 03D0     		beq	.L25
 214              		.loc 1 161 0
 215 0072 14F0040F 		tst	r4, #4
 216 0076 0BD1     		bne	.L18
 217 0078 E7E7     		b	.L13
 218              	.L25:
 219              		.loc 1 160 0
 220 007a 9B68     		ldr	r3, [r3, #8]
 221 007c BBB1     		cbz	r3, .L17
 222 007e 1148     		ldr	r0, .L26
 223 0080 9847     		blx	r3
 224              	.LVL17:
 225              	.L15:
 226              		.loc 1 161 0
 227 0082 14F0040F 		tst	r4, #4
 228 0086 E0D0     		beq	.L13
ARM GAS  C:\Users\CHRIST~1\AppData\Local\Temp\ccxDlOFs.s 			page 5


 229              		.loc 1 162 0
 230 0088 0E4B     		ldr	r3, .L26
 231 008a 1B78     		ldrb	r3, [r3]	@ zero_extendqisi2
 232 008c 042B     		cmp	r3, #4
 233 008e 11D0     		beq	.L21
 234              	.L18:
 235 0090 0C4B     		ldr	r3, .L26
 236 0092 0422     		movs	r2, #4
 237 0094 1A70     		strb	r2, [r3]
 238 0096 D8E7     		b	.L13
 239              	.L12:
 240              		.loc 1 155 0
 241 0098 14F0020F 		tst	r4, #2
 242 009c D5D0     		beq	.L13
 243              	.L20:
 244              		.loc 1 156 0
 245 009e 094B     		ldr	r3, .L26
 246 00a0 5B68     		ldr	r3, [r3, #4]
 247 00a2 DB68     		ldr	r3, [r3, #12]
 248 00a4 002B     		cmp	r3, #0
 249 00a6 CDD0     		beq	.L14
 250 00a8 0648     		ldr	r0, .L26
 251 00aa 9847     		blx	r3
 252              	.LVL18:
 253 00ac CAE7     		b	.L14
 254              	.L17:
 255              		.loc 1 161 0
 256 00ae 14F0040F 		tst	r4, #4
 257 00b2 CAD0     		beq	.L13
 258              	.L21:
 259              		.loc 1 162 0
 260 00b4 034B     		ldr	r3, .L26
 261 00b6 5B68     		ldr	r3, [r3, #4]
 262 00b8 DB68     		ldr	r3, [r3, #12]
 263 00ba 002B     		cmp	r3, #0
 264 00bc E8D0     		beq	.L18
 265 00be 0148     		ldr	r0, .L26
 266 00c0 9847     		blx	r3
 267              	.LVL19:
 268 00c2 E5E7     		b	.L18
 269              	.L27:
 270              		.align	2
 271              	.L26:
 272 00c4 00000000 		.word	.LANCHOR0
 273              	.LBE37:
 274              	.LBE38:
 275              		.cfi_endproc
 276              	.LFE258:
 277              		.size	VectorB4, .-VectorB4
 278              		.section	.text.icu_lld_init,"ax",%progbits
 279              		.align	1
 280              		.p2align 4,,15
 281              		.global	icu_lld_init
 282              		.syntax unified
 283              		.thumb
 284              		.thumb_func
 285              		.fpu fpv4-sp-d16
ARM GAS  C:\Users\CHRIST~1\AppData\Local\Temp\ccxDlOFs.s 			page 6


 286              		.type	icu_lld_init, %function
 287              	icu_lld_init:
 288              	.LFB259:
 289              		.loc 1 375 0
 290              		.cfi_startproc
 291              		@ args = 0, pretend = 0, frame = 0
 292              		@ frame_needed = 0, uses_anonymous_args = 0
 293 0000 10B5     		push	{r4, lr}
 294              		.cfi_def_cfa_offset 8
 295              		.cfi_offset 4, -8
 296              		.cfi_offset 14, -4
 297              		.loc 1 391 0
 298 0002 034C     		ldr	r4, .L30
 299 0004 2046     		mov	r0, r4
 300 0006 FFF7FEFF 		bl	icuObjectInit
 301              	.LVL20:
 302              		.loc 1 392 0
 303 000a 024B     		ldr	r3, .L30+4
 304 000c E360     		str	r3, [r4, #12]
 305              		.loc 1 418 0
 306 000e 10BD     		pop	{r4, pc}
 307              	.L31:
 308              		.align	2
 309              	.L30:
 310 0010 00000000 		.word	.LANCHOR0
 311 0014 00040040 		.word	1073742848
 312              		.cfi_endproc
 313              	.LFE259:
 314              		.size	icu_lld_init, .-icu_lld_init
 315              		.section	.text.icu_lld_start,"ax",%progbits
 316              		.align	1
 317              		.p2align 4,,15
 318              		.global	icu_lld_start
 319              		.syntax unified
 320              		.thumb
 321              		.thumb_func
 322              		.fpu fpv4-sp-d16
 323              		.type	icu_lld_start, %function
 324              	icu_lld_start:
 325              	.LFB260:
 326              		.loc 1 427 0
 327              		.cfi_startproc
 328              		@ args = 0, pretend = 0, frame = 0
 329              		@ frame_needed = 0, uses_anonymous_args = 0
 330              	.LVL21:
 331 0000 10B5     		push	{r4, lr}
 332              		.cfi_def_cfa_offset 8
 333              		.cfi_offset 4, -8
 334              		.cfi_offset 14, -4
 335 0002 0446     		mov	r4, r0
 336              		.loc 1 434 0
 337 0004 0378     		ldrb	r3, [r0]	@ zero_extendqisi2
 338 0006 012B     		cmp	r3, #1
 339 0008 35D0     		beq	.L42
 340              		.loc 1 505 0
 341 000a C268     		ldr	r2, [r0, #12]
 342 000c 0023     		movs	r3, #0
ARM GAS  C:\Users\CHRIST~1\AppData\Local\Temp\ccxDlOFs.s 			page 7


 343 000e 1360     		str	r3, [r2]
 344              		.loc 1 506 0
 345 0010 C268     		ldr	r2, [r0, #12]
 346 0012 5363     		str	r3, [r2, #52]
 347              		.loc 1 507 0
 348 0014 C268     		ldr	r2, [r0, #12]
 349 0016 9363     		str	r3, [r2, #56]
 350              		.loc 1 508 0
 351 0018 C268     		ldr	r2, [r0, #12]
 352 001a 5362     		str	r3, [r2, #36]
 353              	.LVL22:
 354              	.L34:
 355              		.loc 1 512 0
 356 001c E368     		ldr	r3, [r4, #12]
 357 001e 0022     		movs	r2, #0
 358 0020 1A61     		str	r2, [r3, #16]
 359              		.loc 1 513 0
 360 0022 E268     		ldr	r2, [r4, #12]
 361 0024 6368     		ldr	r3, [r4, #4]
 362 0026 9B69     		ldr	r3, [r3, #24]
 363 0028 23F0FF03 		bic	r3, r3, #255
 364 002c D360     		str	r3, [r2, #12]
 365              		.loc 1 515 0
 366 002e 6268     		ldr	r2, [r4, #4]
 367 0030 A368     		ldr	r3, [r4, #8]
 368 0032 5268     		ldr	r2, [r2, #4]
 369 0034 B3FBF2F3 		udiv	r3, r3, r2
 370 0038 013B     		subs	r3, r3, #1
 371              	.LVL23:
 372              		.loc 1 519 0
 373 003a E268     		ldr	r2, [r4, #12]
 374 003c 9362     		str	r3, [r2, #40]
 375              		.loc 1 520 0
 376 003e E368     		ldr	r3, [r4, #12]
 377              	.LVL24:
 378 0040 4FF6FF72 		movw	r2, #65535
 379              	.LVL25:
 380 0044 DA62     		str	r2, [r3, #44]
 381              		.loc 1 522 0
 382 0046 6368     		ldr	r3, [r4, #4]
 383 0048 1B7D     		ldrb	r3, [r3, #20]	@ zero_extendqisi2
 384 004a 002B     		cmp	r3, #0
 385 004c 2DD1     		bne	.L35
 386              		.loc 1 526 0
 387 004e E368     		ldr	r3, [r4, #12]
 388 0050 40F20122 		movw	r2, #513
 389 0054 9A61     		str	r2, [r3, #24]
 390              		.loc 1 530 0
 391 0056 E368     		ldr	r3, [r4, #12]
 392 0058 5422     		movs	r2, #84
 393 005a 9A60     		str	r2, [r3, #8]
 394              		.loc 1 535 0
 395 005c 6368     		ldr	r3, [r4, #4]
 396 005e 1B78     		ldrb	r3, [r3]	@ zero_extendqisi2
 397 0060 FBB9     		cbnz	r3, .L36
 398              		.loc 1 536 0
 399 0062 E368     		ldr	r3, [r4, #12]
ARM GAS  C:\Users\CHRIST~1\AppData\Local\Temp\ccxDlOFs.s 			page 8


 400 0064 3122     		movs	r2, #49
 401 0066 1A62     		str	r2, [r3, #32]
 402              	.L37:
 403              		.loc 1 544 0
 404 0068 E368     		ldr	r3, [r4, #12]
 405 006a 03F13802 		add	r2, r3, #56
 406 006e 2261     		str	r2, [r4, #16]
 407              		.loc 1 545 0
 408 0070 3433     		adds	r3, r3, #52
 409 0072 6361     		str	r3, [r4, #20]
 410              	.L32:
 411              		.loc 1 572 0
 412 0074 10BD     		pop	{r4, pc}
 413              	.LVL26:
 414              	.L42:
 415              		.loc 1 458 0
 416 0076 194B     		ldr	r3, .L43
 417 0078 9842     		cmp	r0, r3
 418 007a CFD1     		bne	.L34
 419              		.loc 1 459 0
 420 007c 184B     		ldr	r3, .L43+4
 421 007e 1A6C     		ldr	r2, [r3, #64]
 422 0080 42F00202 		orr	r2, r2, #2
 423 0084 1A64     		str	r2, [r3, #64]
 424              		.loc 1 460 0
 425 0086 1A6A     		ldr	r2, [r3, #32]
 426 0088 42F00202 		orr	r2, r2, #2
 427 008c 1A62     		str	r2, [r3, #32]
 428 008e 0022     		movs	r2, #0
 429 0090 1A62     		str	r2, [r3, #32]
 430              		.loc 1 461 0
 431 0092 0721     		movs	r1, #7
 432 0094 1D20     		movs	r0, #29
 433              	.LVL27:
 434 0096 FFF7FEFF 		bl	nvicEnableVector
 435              	.LVL28:
 436              		.loc 1 462 0
 437 009a 104B     		ldr	r3, .L43
 438 009c 114A     		ldr	r2, .L43+8
 439 009e 9A60     		str	r2, [r3, #8]
 440 00a0 BCE7     		b	.L34
 441              	.L36:
 442              		.loc 1 539 0
 443 00a2 E368     		ldr	r3, [r4, #12]
 444 00a4 1322     		movs	r2, #19
 445 00a6 1A62     		str	r2, [r3, #32]
 446 00a8 DEE7     		b	.L37
 447              	.L35:
 448              		.loc 1 551 0
 449 00aa E368     		ldr	r3, [r4, #12]
 450 00ac 4FF48172 		mov	r2, #258
 451 00b0 9A61     		str	r2, [r3, #24]
 452              		.loc 1 555 0
 453 00b2 E368     		ldr	r3, [r4, #12]
 454 00b4 6422     		movs	r2, #100
 455 00b6 9A60     		str	r2, [r3, #8]
 456              		.loc 1 560 0
ARM GAS  C:\Users\CHRIST~1\AppData\Local\Temp\ccxDlOFs.s 			page 9


 457 00b8 6368     		ldr	r3, [r4, #4]
 458 00ba 1B78     		ldrb	r3, [r3]	@ zero_extendqisi2
 459 00bc 4BB9     		cbnz	r3, .L39
 460              		.loc 1 561 0
 461 00be E368     		ldr	r3, [r4, #12]
 462 00c0 1322     		movs	r2, #19
 463 00c2 1A62     		str	r2, [r3, #32]
 464              	.L40:
 465              		.loc 1 569 0
 466 00c4 E368     		ldr	r3, [r4, #12]
 467 00c6 03F13402 		add	r2, r3, #52
 468 00ca 2261     		str	r2, [r4, #16]
 469              		.loc 1 570 0
 470 00cc 3833     		adds	r3, r3, #56
 471 00ce 6361     		str	r3, [r4, #20]
 472              		.loc 1 572 0
 473 00d0 D0E7     		b	.L32
 474              	.L39:
 475              		.loc 1 564 0
 476 00d2 E368     		ldr	r3, [r4, #12]
 477 00d4 3122     		movs	r2, #49
 478 00d6 1A62     		str	r2, [r3, #32]
 479 00d8 F4E7     		b	.L40
 480              	.L44:
 481 00da 00BF     		.align	2
 482              	.L43:
 483 00dc 00000000 		.word	.LANCHOR0
 484 00e0 00380240 		.word	1073887232
 485 00e4 00BD0105 		.word	84000000
 486              		.cfi_endproc
 487              	.LFE260:
 488              		.size	icu_lld_start, .-icu_lld_start
 489              		.section	.text.icu_lld_stop,"ax",%progbits
 490              		.align	1
 491              		.p2align 4,,15
 492              		.global	icu_lld_stop
 493              		.syntax unified
 494              		.thumb
 495              		.thumb_func
 496              		.fpu fpv4-sp-d16
 497              		.type	icu_lld_stop, %function
 498              	icu_lld_stop:
 499              	.LFB261:
 500              		.loc 1 581 0
 501              		.cfi_startproc
 502              		@ args = 0, pretend = 0, frame = 0
 503              		@ frame_needed = 0, uses_anonymous_args = 0
 504              	.LVL29:
 505 0000 08B5     		push	{r3, lr}
 506              		.cfi_def_cfa_offset 8
 507              		.cfi_offset 3, -8
 508              		.cfi_offset 14, -4
 509              		.loc 1 583 0
 510 0002 0378     		ldrb	r3, [r0]	@ zero_extendqisi2
 511 0004 022B     		cmp	r3, #2
 512 0006 00D0     		beq	.L48
 513              	.LVL30:
ARM GAS  C:\Users\CHRIST~1\AppData\Local\Temp\ccxDlOFs.s 			page 10


 514              	.L45:
 515              		.loc 1 634 0
 516 0008 08BD     		pop	{r3, pc}
 517              	.LVL31:
 518              	.L48:
 519              		.loc 1 585 0
 520 000a C268     		ldr	r2, [r0, #12]
 521 000c 0023     		movs	r3, #0
 522 000e 1360     		str	r3, [r2]
 523              		.loc 1 586 0
 524 0010 C268     		ldr	r2, [r0, #12]
 525 0012 D360     		str	r3, [r2, #12]
 526              		.loc 1 587 0
 527 0014 C268     		ldr	r2, [r0, #12]
 528 0016 1361     		str	r3, [r2, #16]
 529              		.loc 1 603 0
 530 0018 054B     		ldr	r3, .L49
 531 001a 9842     		cmp	r0, r3
 532 001c F4D1     		bne	.L45
 533              		.loc 1 604 0
 534 001e 1D20     		movs	r0, #29
 535              	.LVL32:
 536 0020 FFF7FEFF 		bl	nvicDisableVector
 537              	.LVL33:
 538              		.loc 1 605 0
 539 0024 034A     		ldr	r2, .L49+4
 540 0026 136C     		ldr	r3, [r2, #64]
 541 0028 23F00203 		bic	r3, r3, #2
 542 002c 1364     		str	r3, [r2, #64]
 543              		.loc 1 634 0
 544 002e EBE7     		b	.L45
 545              	.L50:
 546              		.align	2
 547              	.L49:
 548 0030 00000000 		.word	.LANCHOR0
 549 0034 00380240 		.word	1073887232
 550              		.cfi_endproc
 551              	.LFE261:
 552              		.size	icu_lld_stop, .-icu_lld_stop
 553              		.section	.text.icu_lld_start_capture,"ax",%progbits
 554              		.align	1
 555              		.p2align 4,,15
 556              		.global	icu_lld_start_capture
 557              		.syntax unified
 558              		.thumb
 559              		.thumb_func
 560              		.fpu fpv4-sp-d16
 561              		.type	icu_lld_start_capture, %function
 562              	icu_lld_start_capture:
 563              	.LFB262:
 564              		.loc 1 643 0
 565              		.cfi_startproc
 566              		@ args = 0, pretend = 0, frame = 0
 567              		@ frame_needed = 0, uses_anonymous_args = 0
 568              		@ link register save eliminated.
 569              	.LVL34:
 570              		.loc 1 646 0
ARM GAS  C:\Users\CHRIST~1\AppData\Local\Temp\ccxDlOFs.s 			page 11


 571 0000 C268     		ldr	r2, [r0, #12]
 572 0002 5369     		ldr	r3, [r2, #20]
 573 0004 43F00103 		orr	r3, r3, #1
 574 0008 5361     		str	r3, [r2, #20]
 575              		.loc 1 647 0
 576 000a C368     		ldr	r3, [r0, #12]
 577 000c 0022     		movs	r2, #0
 578 000e 1A61     		str	r2, [r3, #16]
 579              		.loc 1 650 0
 580 0010 C368     		ldr	r3, [r0, #12]
 581 0012 0522     		movs	r2, #5
 582 0014 1A60     		str	r2, [r3]
 583              		.loc 1 651 0
 584 0016 7047     		bx	lr
 585              		.cfi_endproc
 586              	.LFE262:
 587              		.size	icu_lld_start_capture, .-icu_lld_start_capture
 588              		.section	.text.icu_lld_wait_capture,"ax",%progbits
 589              		.align	1
 590              		.p2align 4,,15
 591              		.global	icu_lld_wait_capture
 592              		.syntax unified
 593              		.thumb
 594              		.thumb_func
 595              		.fpu fpv4-sp-d16
 596              		.type	icu_lld_wait_capture, %function
 597              	icu_lld_wait_capture:
 598              	.LFB263:
 599              		.loc 1 665 0
 600              		.cfi_startproc
 601              		@ args = 0, pretend = 0, frame = 0
 602              		@ frame_needed = 0, uses_anonymous_args = 0
 603              	.LVL35:
 604 0000 10B5     		push	{r4, lr}
 605              		.cfi_def_cfa_offset 8
 606              		.cfi_offset 4, -8
 607              		.cfi_offset 14, -4
 608 0002 0446     		mov	r4, r0
 609              		.loc 1 669 0
 610 0004 0378     		ldrb	r3, [r0]	@ zero_extendqisi2
 611 0006 032B     		cmp	r3, #3
 612 0008 05D0     		beq	.L56
 613              	.LVL36:
 614              	.L53:
 615              		.loc 1 674 0
 616 000a 2046     		mov	r0, r4
 617 000c FFF7FEFF 		bl	icu_lld_wait_edge
 618              	.LVL37:
 619 0010 0346     		mov	r3, r0
 620              	.L54:
 621              		.loc 1 675 0
 622 0012 1846     		mov	r0, r3
 623 0014 10BD     		pop	{r4, pc}
 624              	.LVL38:
 625              	.L56:
 626              		.loc 1 670 0
 627 0016 FFF7FEFF 		bl	icu_lld_wait_edge
ARM GAS  C:\Users\CHRIST~1\AppData\Local\Temp\ccxDlOFs.s 			page 12


 628              	.LVL39:
 629 001a 0346     		mov	r3, r0
 630 001c 0028     		cmp	r0, #0
 631 001e F4D0     		beq	.L53
 632 0020 F7E7     		b	.L54
 633              		.cfi_endproc
 634              	.LFE263:
 635              		.size	icu_lld_wait_capture, .-icu_lld_wait_capture
 636 0022 00BF     		.section	.text.icu_lld_stop_capture,"ax",%progbits
 637              		.align	1
 638              		.p2align 4,,15
 639              		.global	icu_lld_stop_capture
 640              		.syntax unified
 641              		.thumb
 642              		.thumb_func
 643              		.fpu fpv4-sp-d16
 644              		.type	icu_lld_stop_capture, %function
 645              	icu_lld_stop_capture:
 646              	.LFB264:
 647              		.loc 1 684 0
 648              		.cfi_startproc
 649              		@ args = 0, pretend = 0, frame = 0
 650              		@ frame_needed = 0, uses_anonymous_args = 0
 651              		@ link register save eliminated.
 652              	.LVL40:
 653              		.loc 1 687 0
 654 0000 C368     		ldr	r3, [r0, #12]
 655 0002 0022     		movs	r2, #0
 656 0004 1A60     		str	r2, [r3]
 657              		.loc 1 690 0
 658 0006 C268     		ldr	r2, [r0, #12]
 659 0008 D368     		ldr	r3, [r2, #12]
 660 000a 23F0FF03 		bic	r3, r3, #255
 661 000e D360     		str	r3, [r2, #12]
 662              		.loc 1 691 0
 663 0010 7047     		bx	lr
 664              		.cfi_endproc
 665              	.LFE264:
 666              		.size	icu_lld_stop_capture, .-icu_lld_stop_capture
 667 0012 00BF     		.section	.text.icu_lld_enable_notifications,"ax",%progbits
 668              		.align	1
 669              		.p2align 4,,15
 670              		.global	icu_lld_enable_notifications
 671              		.syntax unified
 672              		.thumb
 673              		.thumb_func
 674              		.fpu fpv4-sp-d16
 675              		.type	icu_lld_enable_notifications, %function
 676              	icu_lld_enable_notifications:
 677              	.LFB265:
 678              		.loc 1 702 0
 679              		.cfi_startproc
 680              		@ args = 0, pretend = 0, frame = 0
 681              		@ frame_needed = 0, uses_anonymous_args = 0
 682              		@ link register save eliminated.
 683              	.LVL41:
 684              		.loc 1 703 0
ARM GAS  C:\Users\CHRIST~1\AppData\Local\Temp\ccxDlOFs.s 			page 13


 685 0000 C268     		ldr	r2, [r0, #12]
 686 0002 D368     		ldr	r3, [r2, #12]
 687              	.LVL42:
 688              		.loc 1 708 0
 689 0004 13F0FF0F 		tst	r3, #255
 690 0008 0ED1     		bne	.L58
 691              		.loc 1 710 0
 692 000a 0021     		movs	r1, #0
 693 000c 1161     		str	r1, [r2, #16]
 694              		.loc 1 712 0
 695 000e 4268     		ldr	r2, [r0, #4]
 696 0010 117D     		ldrb	r1, [r2, #20]	@ zero_extendqisi2
 697 0012 69B9     		cbnz	r1, .L60
 698              	.LVL43:
 699              		.loc 1 717 0
 700 0014 9168     		ldr	r1, [r2, #8]
 701 0016 41B1     		cbz	r1, .L65
 702              		.loc 1 718 0
 703 0018 43F00603 		orr	r3, r3, #6
 704              	.LVL44:
 705              	.L62:
 706              		.loc 1 731 0
 707 001c 1269     		ldr	r2, [r2, #16]
 708 001e 0AB1     		cbz	r2, .L64
 709              		.loc 1 732 0
 710 0020 43F00103 		orr	r3, r3, #1
 711              	.LVL45:
 712              	.L64:
 713              		.loc 1 735 0
 714 0024 C268     		ldr	r2, [r0, #12]
 715 0026 D360     		str	r3, [r2, #12]
 716              	.L58:
 717              		.loc 1 737 0
 718 0028 7047     		bx	lr
 719              	.LVL46:
 720              	.L65:
 721              		.loc 1 714 0
 722 002a 43F00203 		orr	r3, r3, #2
 723              	.LVL47:
 724 002e F5E7     		b	.L62
 725              	.LVL48:
 726              	.L60:
 727              		.loc 1 725 0
 728 0030 9168     		ldr	r1, [r2, #8]
 729 0032 11B1     		cbz	r1, .L66
 730              		.loc 1 726 0
 731 0034 43F00603 		orr	r3, r3, #6
 732              	.LVL49:
 733 0038 F0E7     		b	.L62
 734              	.LVL50:
 735              	.L66:
 736              		.loc 1 722 0
 737 003a 43F00403 		orr	r3, r3, #4
 738              	.LVL51:
 739 003e EDE7     		b	.L62
 740              		.cfi_endproc
 741              	.LFE265:
ARM GAS  C:\Users\CHRIST~1\AppData\Local\Temp\ccxDlOFs.s 			page 14


 742              		.size	icu_lld_enable_notifications, .-icu_lld_enable_notifications
 743              		.section	.text.icu_lld_disable_notifications,"ax",%progbits
 744              		.align	1
 745              		.p2align 4,,15
 746              		.global	icu_lld_disable_notifications
 747              		.syntax unified
 748              		.thumb
 749              		.thumb_func
 750              		.fpu fpv4-sp-d16
 751              		.type	icu_lld_disable_notifications, %function
 752              	icu_lld_disable_notifications:
 753              	.LFB266:
 754              		.loc 1 748 0
 755              		.cfi_startproc
 756              		@ args = 0, pretend = 0, frame = 0
 757              		@ frame_needed = 0, uses_anonymous_args = 0
 758              		@ link register save eliminated.
 759              	.LVL52:
 760              		.loc 1 751 0
 761 0000 C268     		ldr	r2, [r0, #12]
 762 0002 D368     		ldr	r3, [r2, #12]
 763 0004 23F0FF03 		bic	r3, r3, #255
 764 0008 D360     		str	r3, [r2, #12]
 765              		.loc 1 752 0
 766 000a 7047     		bx	lr
 767              		.cfi_endproc
 768              	.LFE266:
 769              		.size	icu_lld_disable_notifications, .-icu_lld_disable_notifications
 770              		.global	ICUD3
 771              		.section	.bss.ICUD3,"aw",%nobits
 772              		.align	2
 773              		.set	.LANCHOR0,. + 0
 774              		.type	ICUD3, %object
 775              		.size	ICUD3, 24
 776              	ICUD3:
 777 0000 00000000 		.space	24
 777      00000000 
 777      00000000 
 777      00000000 
 777      00000000 
 778              		.text
 779              	.Letext0:
 780              		.file 3 "c:\\program files (x86)\\gnu tools arm embedded\\7 2017-q4-major\\lib\\gcc\\arm-none-eabi
 781              		.file 4 "c:\\program files (x86)\\gnu tools arm embedded\\7 2017-q4-major\\arm-none-eabi\\include\
 782              		.file 5 "c:\\program files (x86)\\gnu tools arm embedded\\7 2017-q4-major\\arm-none-eabi\\include\
 783              		.file 6 "ChibiOS_3.0.2/os/rt/ports/ARMCMx/compilers/GCC/chtypes.h"
 784              		.file 7 "ChibiOS_3.0.2/os/rt/include/chsystypes.h"
 785              		.file 8 "ChibiOS_3.0.2/os/rt/include/chschd.h"
 786              		.file 9 "ChibiOS_3.0.2/os/ext/CMSIS/include/core_cm4.h"
 787              		.file 10 "ChibiOS_3.0.2/os/ext/CMSIS/ST/system_stm32f4xx.h"
 788              		.file 11 "ChibiOS_3.0.2/os/ext/CMSIS/ST/stm32f407xx.h"
 789              		.file 12 "ChibiOS_3.0.2/os/rt/ports/ARMCMx/chcore.h"
 790              		.file 13 "ChibiOS_3.0.2/os/rt/ports/ARMCMx/chcore_v7m.h"
 791              		.file 14 "ChibiOS_3.0.2/os/rt/include/chtm.h"
 792              		.file 15 "ChibiOS_3.0.2/os/rt/include/chsem.h"
 793              		.file 16 "ChibiOS_3.0.2/os/rt/include/chmtx.h"
 794              		.file 17 "ChibiOS_3.0.2/os/rt/include/chregistry.h"
ARM GAS  C:\Users\CHRIST~1\AppData\Local\Temp\ccxDlOFs.s 			page 15


 795              		.file 18 "ChibiOS_3.0.2/os/rt/include/chevents.h"
 796              		.file 19 "ChibiOS_3.0.2/os/rt/include/chqueues.h"
 797              		.file 20 "./conf_general.h"
 798              		.file 21 "ChibiOS_3.0.2/os/hal/ports/STM32/STM32F4xx/stm32_dma.h"
 799              		.file 22 "ChibiOS_3.0.2/os/hal/ports/STM32/LLD/GPIOv2/pal_lld.h"
 800              		.file 23 "ChibiOS_3.0.2/os/hal/include/can.h"
 801              		.file 24 "ChibiOS_3.0.2/os/hal/ports/STM32/LLD/can_lld.h"
 802              		.file 25 "ChibiOS_3.0.2/os/hal/include/i2c.h"
 803              		.file 26 "ChibiOS_3.0.2/os/hal/ports/STM32/LLD/I2Cv1/i2c_lld.h"
 804              		.file 27 "ChibiOS_3.0.2/os/hal/include/icu.h"
 805              		.file 28 "ChibiOS_3.0.2/os/hal/ports/STM32/LLD/TIMv1/icu_lld.h"
 806              		.file 29 "ChibiOS_3.0.2/os/hal/ports/STM32/LLD/TIMv1/stm32_tim.h"
 807              		.file 30 "ChibiOS_3.0.2/os/hal/include/spi.h"
 808              		.file 31 "ChibiOS_3.0.2/os/hal/ports/STM32/LLD/SPIv1/spi_lld.h"
 809              		.file 32 "ChibiOS_3.0.2/os/hal/include/uart.h"
 810              		.file 33 "ChibiOS_3.0.2/os/hal/ports/STM32/LLD/USARTv1/uart_lld.h"
 811              		.file 34 "ChibiOS_3.0.2/os/hal/include/usb.h"
 812              		.file 35 "ChibiOS_3.0.2/os/hal/ports/STM32/LLD/OTGv1/usb_lld.h"
 813              		.file 36 "ChibiOS_3.0.2/os/hal/ports/STM32/LLD/OTGv1/stm32_otg.h"
 814              		.file 37 "ChibiOS_3.0.2/os/rt/include/chsys.h"
 815              		.file 38 "ChibiOS_3.0.2/os/hal/ports/common/ARMCMx/nvic.h"
