ARM GAS  C:\Users\CHRIST~1\AppData\Local\Temp\ccaHZkky.s 			page 1


   1              		.cpu cortex-m4
   2              		.eabi_attribute 27, 1
   3              		.eabi_attribute 28, 1
   4              		.eabi_attribute 20, 1
   5              		.eabi_attribute 21, 1
   6              		.eabi_attribute 23, 3
   7              		.eabi_attribute 24, 1
   8              		.eabi_attribute 25, 1
   9              		.eabi_attribute 26, 1
  10              		.eabi_attribute 30, 1
  11              		.eabi_attribute 34, 1
  12              		.eabi_attribute 18, 4
  13              		.file	"imu.c"
  14              		.text
  15              	.Ltext0:
  16              		.cfi_sections	.debug_frame
  17              		.global	__aeabi_f2d
  18              		.global	__aeabi_i2d
  19              		.global	__aeabi_ddiv
  20              		.global	__aeabi_dmul
  21              		.global	__aeabi_dadd
  22              		.global	__aeabi_dcmple
  23              		.global	__aeabi_dsub
  24              		.section	.text.i2c_thread,"ax",%progbits
  25              		.align	1
  26              		.p2align 4,,15
  27              		.syntax unified
  28              		.thumb
  29              		.thumb_func
  30              		.fpu fpv4-sp-d16
  31              		.type	i2c_thread, %function
  32              	i2c_thread:
  33              	.LFB256:
  34              		.file 1 "imu.c"
  35              		.loc 1 20 0
  36              		.cfi_startproc
  37              		@ args = 0, pretend = 0, frame = 48
  38              		@ frame_needed = 0, uses_anonymous_args = 0
  39              	.LVL0:
  40 0000 2DE9F04F 		push	{r4, r5, r6, r7, r8, r9, r10, fp, lr}
  41              		.cfi_def_cfa_offset 36
  42              		.cfi_offset 4, -36
  43              		.cfi_offset 5, -32
  44              		.cfi_offset 6, -28
  45              		.cfi_offset 7, -24
  46              		.cfi_offset 8, -20
  47              		.cfi_offset 9, -16
  48              		.cfi_offset 10, -12
  49              		.cfi_offset 11, -8
  50              		.cfi_offset 14, -4
  51 0004 2DED068B 		vpush.64	{d8, d9, d10}
  52              		.cfi_def_cfa_offset 60
  53              		.cfi_offset 80, -60
  54              		.cfi_offset 81, -56
  55              		.cfi_offset 82, -52
  56              		.cfi_offset 83, -48
  57              		.cfi_offset 84, -44
ARM GAS  C:\Users\CHRIST~1\AppData\Local\Temp\ccaHZkky.s 			page 2


  58              		.cfi_offset 85, -40
  59 0008 8FB0     		sub	sp, sp, #60
  60              		.cfi_def_cfa_offset 120
  61              	.LVL1:
  62              	.LBB5:
  63              	.LBB6:
  64              		.file 2 "ChibiOS_3.0.2/os/rt/include/chregistry.h"
  65              		.loc 2 135 0
  66 000a 874B     		ldr	r3, .L11+8
  67 000c 9B69     		ldr	r3, [r3, #24]
  68 000e 874A     		ldr	r2, .L11+12
  69 0010 9A61     		str	r2, [r3, #24]
  70              	.LVL2:
  71              	.LBE6:
  72              	.LBE5:
  73              		.loc 1 24 0
  74 0012 8749     		ldr	r1, .L11+16
  75 0014 8748     		ldr	r0, .L11+20
  76              	.LVL3:
  77 0016 FFF7FEFF 		bl	i2cStart
  78              	.LVL4:
  79              		.loc 1 25 0
  80 001a 4FF47A70 		mov	r0, #1000
  81 001e FFF7FEFF 		bl	chThdSleep
  82              	.LVL5:
  83              		.loc 1 27 0
  84 0022 6820     		movs	r0, #104
  85 0024 FFF7FEFF 		bl	MPU6050
  86              	.LVL6:
  87              		.loc 1 28 0
  88 0028 FFF7FEFF 		bl	MPUinitialize
  89              	.LVL7:
  90              		.loc 1 29 0
  91 002c 6420     		movs	r0, #100
  92 002e FFF7FEFF 		bl	chThdSleep
  93              	.LVL8:
  94              		.loc 1 31 0
  95 0032 814B     		ldr	r3, .L11+24
  96 0034 0022     		movs	r2, #0
  97 0036 1A80     		strh	r2, [r3]	@ movhi
  98              		.loc 1 32 0
  99 0038 DA80     		strh	r2, [r3, #6]	@ movhi
 100              		.loc 1 33 0
 101 003a 5A80     		strh	r2, [r3, #2]	@ movhi
 102              		.loc 1 34 0
 103 003c 1A81     		strh	r2, [r3, #8]	@ movhi
 104              		.loc 1 35 0
 105 003e 9A80     		strh	r2, [r3, #4]	@ movhi
 106              		.loc 1 36 0
 107 0040 5A81     		strh	r2, [r3, #10]	@ movhi
 108              		.loc 1 37 0
 109 0042 7E4A     		ldr	r2, .L11+28
 110 0044 DA60     		str	r2, [r3, #12]	@ float
 111              		.loc 1 38 0
 112 0046 4FF08D42 		mov	r2, #1182793728
 113 004a 1A61     		str	r2, [r3, #16]	@ float
 114              		.loc 1 39 0
ARM GAS  C:\Users\CHRIST~1\AppData\Local\Temp\ccaHZkky.s 			page 3


 115 004c 0020     		movs	r0, #0
 116 004e 0021     		movs	r1, #0
 117 0050 C3E90601 		strd	r0, [r3, #24]
 118              		.loc 1 40 0
 119 0054 C3E90A01 		strd	r0, [r3, #40]
 120              		.loc 1 41 0
 121 0058 C3E90801 		strd	r0, [r3, #32]
 122              	.LVL9:
 123 005c 6427     		movs	r7, #100
 124              		.loc 1 60 0
 125 005e CDE90C01 		strd	r0, [sp, #48]
 126              		.loc 1 59 0
 127 0062 CDE90801 		strd	r0, [sp, #32]
 128              		.loc 1 58 0
 129 0066 CDE90A01 		strd	r0, [sp, #40]
 130              	.LBB7:
 131              		.loc 1 69 0
 132 006a 1E46     		mov	r6, r3
 133              	.LVL10:
 134              	.L2:
 135              		.loc 1 68 0 discriminator 3
 136 006c 6420     		movs	r0, #100
 137 006e FFF7FEFF 		bl	chThdSleep
 138              	.LVL11:
 139              		.loc 1 69 0 discriminator 3
 140 0072 06F10A03 		add	r3, r6, #10
 141 0076 0193     		str	r3, [sp, #4]
 142 0078 06F10803 		add	r3, r6, #8
 143 007c 0093     		str	r3, [sp]
 144 007e 023B     		subs	r3, r3, #2
 145 0080 321D     		adds	r2, r6, #4
 146 0082 B11C     		adds	r1, r6, #2
 147 0084 3046     		mov	r0, r6
 148 0086 FFF7FEFF 		bl	MPUgetMotion6
 149              	.LVL12:
 150              		.loc 1 71 0 discriminator 3
 151 008a 3069     		ldr	r0, [r6, #16]	@ float
 152 008c FFF7FEFF 		bl	__aeabi_f2d
 153              	.LVL13:
 154 0090 0446     		mov	r4, r0
 155 0092 0D46     		mov	r5, r1
 156 0094 B6F90000 		ldrsh	r0, [r6]
 157 0098 FFF7FEFF 		bl	__aeabi_i2d
 158              	.LVL14:
 159 009c 2246     		mov	r2, r4
 160 009e 2B46     		mov	r3, r5
 161 00a0 FFF7FEFF 		bl	__aeabi_ddiv
 162              	.LVL15:
 163 00a4 8046     		mov	r8, r0
 164 00a6 8946     		mov	r9, r1
 165              	.LVL16:
 166              		.loc 1 72 0 discriminator 3
 167 00a8 B6F90200 		ldrsh	r0, [r6, #2]
 168 00ac FFF7FEFF 		bl	__aeabi_i2d
 169              	.LVL17:
 170 00b0 2246     		mov	r2, r4
 171 00b2 2B46     		mov	r3, r5
ARM GAS  C:\Users\CHRIST~1\AppData\Local\Temp\ccaHZkky.s 			page 4


 172 00b4 FFF7FEFF 		bl	__aeabi_ddiv
 173              	.LVL18:
 174 00b8 8246     		mov	r10, r0
 175 00ba 8B46     		mov	fp, r1
 176              	.LVL19:
 177              		.loc 1 73 0 discriminator 3
 178 00bc B6F90400 		ldrsh	r0, [r6, #4]
 179 00c0 FFF7FEFF 		bl	__aeabi_i2d
 180              	.LVL20:
 181 00c4 2246     		mov	r2, r4
 182 00c6 2B46     		mov	r3, r5
 183 00c8 FFF7FEFF 		bl	__aeabi_ddiv
 184              	.LVL21:
 185 00cc CDE90201 		strd	r0, [sp, #8]
 186              	.LVL22:
 187              		.loc 1 77 0 discriminator 3
 188 00d0 4246     		mov	r2, r8
 189 00d2 4B46     		mov	r3, r9
 190 00d4 4046     		mov	r0, r8
 191              	.LVL23:
 192 00d6 4946     		mov	r1, r9
 193 00d8 FFF7FEFF 		bl	__aeabi_dmul
 194              	.LVL24:
 195 00dc 0446     		mov	r4, r0
 196 00de 0D46     		mov	r5, r1
 197 00e0 5246     		mov	r2, r10
 198 00e2 5B46     		mov	r3, fp
 199 00e4 5046     		mov	r0, r10
 200 00e6 5946     		mov	r1, fp
 201 00e8 FFF7FEFF 		bl	__aeabi_dmul
 202              	.LVL25:
 203 00ec 0246     		mov	r2, r0
 204 00ee 0B46     		mov	r3, r1
 205 00f0 2046     		mov	r0, r4
 206 00f2 2946     		mov	r1, r5
 207 00f4 FFF7FEFF 		bl	__aeabi_dadd
 208              	.LVL26:
 209 00f8 0446     		mov	r4, r0
 210 00fa 0D46     		mov	r5, r1
 211 00fc DDE90201 		ldrd	r0, [sp, #8]
 212 0100 0246     		mov	r2, r0
 213 0102 0B46     		mov	r3, r1
 214 0104 FFF7FEFF 		bl	__aeabi_dmul
 215              	.LVL27:
 216 0108 0246     		mov	r2, r0
 217 010a 0B46     		mov	r3, r1
 218 010c 2046     		mov	r0, r4
 219 010e 2946     		mov	r1, r5
 220 0110 FFF7FEFF 		bl	__aeabi_dadd
 221              	.LVL28:
 222 0114 41EC100B 		vmov	d0, r0, r1
 223 0118 FFF7FEFF 		bl	sqrt
 224              	.LVL29:
 225 011c 55EC104B 		vmov	r4, r5, d0
 226              	.LVL30:
 227              		.loc 1 78 0 discriminator 3
 228 0120 10EE102A 		vmov	r2, s0	@ int
ARM GAS  C:\Users\CHRIST~1\AppData\Local\Temp\ccaHZkky.s 			page 5


 229 0124 2B46     		mov	r3, r5
 230 0126 4046     		mov	r0, r8
 231 0128 4946     		mov	r1, r9
 232 012a FFF7FEFF 		bl	__aeabi_ddiv
 233              	.LVL31:
 234 012e 41EC190B 		vmov	d9, r0, r1
 235              	.LVL32:
 236              		.loc 1 79 0 discriminator 3
 237 0132 2246     		mov	r2, r4
 238 0134 2B46     		mov	r3, r5
 239 0136 5046     		mov	r0, r10
 240              	.LVL33:
 241 0138 5946     		mov	r1, fp
 242 013a FFF7FEFF 		bl	__aeabi_ddiv
 243              	.LVL34:
 244 013e 41EC180B 		vmov	d8, r0, r1
 245              	.LVL35:
 246              		.loc 1 80 0 discriminator 3
 247 0142 2246     		mov	r2, r4
 248 0144 2B46     		mov	r3, r5
 249 0146 DDE90201 		ldrd	r0, [sp, #8]
 250              	.LVL36:
 251 014a FFF7FEFF 		bl	__aeabi_ddiv
 252              	.LVL37:
 253 014e 41EC1A0B 		vmov	d10, r0, r1
 254              	.LVL38:
 255              		.loc 1 81 0 discriminator 3
 256 0152 41EC110B 		vmov	d1, r0, r1
 257 0156 B0EE480A 		vmov.f32	s0, s16
 258 015a F0EE680A 		vmov.f32	s1, s17
 259 015e FFF7FEFF 		bl	atan2
 260              	.LVL39:
 261 0162 2FA3     		adr	r3, .L11
 262 0164 D3E90023 		ldrd	r2, [r3]
 263 0168 51EC100B 		vmov	r0, r1, d0
 264 016c FFF7FEFF 		bl	__aeabi_dmul
 265              	.LVL40:
 266 0170 0246     		mov	r2, r0
 267 0172 0B46     		mov	r3, r1
 268 0174 DDE90801 		ldrd	r0, [sp, #32]
 269 0178 FFF7FEFF 		bl	__aeabi_dadd
 270              	.LVL41:
 271 017c CDE90801 		strd	r0, [sp, #32]
 272              	.LVL42:
 273              		.loc 1 82 0 discriminator 3
 274 0180 B0EE4A1A 		vmov.f32	s2, s20
 275 0184 F0EE6A1A 		vmov.f32	s3, s21
 276 0188 B0EE490A 		vmov.f32	s0, s18
 277 018c F0EE690A 		vmov.f32	s1, s19
 278 0190 FFF7FEFF 		bl	atan2
 279              	.LVL43:
 280 0194 22A3     		adr	r3, .L11
 281 0196 D3E90023 		ldrd	r2, [r3]
 282 019a 51EC100B 		vmov	r0, r1, d0
 283 019e FFF7FEFF 		bl	__aeabi_dmul
 284              	.LVL44:
 285 01a2 0246     		mov	r2, r0
ARM GAS  C:\Users\CHRIST~1\AppData\Local\Temp\ccaHZkky.s 			page 6


 286 01a4 0B46     		mov	r3, r1
 287 01a6 DDE90A01 		ldrd	r0, [sp, #40]
 288 01aa FFF7FEFF 		bl	__aeabi_dadd
 289              	.LVL45:
 290 01ae CDE90A01 		strd	r0, [sp, #40]
 291              	.LVL46:
 292              		.loc 1 83 0 discriminator 3
 293 01b2 B0EE491A 		vmov.f32	s2, s18
 294 01b6 F0EE691A 		vmov.f32	s3, s19
 295 01ba B0EE480A 		vmov.f32	s0, s16
 296 01be F0EE680A 		vmov.f32	s1, s17
 297 01c2 FFF7FEFF 		bl	atan2
 298              	.LVL47:
 299 01c6 16A3     		adr	r3, .L11
 300 01c8 D3E90023 		ldrd	r2, [r3]
 301 01cc 51EC100B 		vmov	r0, r1, d0
 302 01d0 FFF7FEFF 		bl	__aeabi_dmul
 303              	.LVL48:
 304 01d4 0246     		mov	r2, r0
 305 01d6 0B46     		mov	r3, r1
 306 01d8 DDE90C01 		ldrd	r0, [sp, #48]
 307 01dc FFF7FEFF 		bl	__aeabi_dadd
 308              	.LVL49:
 309 01e0 CDE90C01 		strd	r0, [sp, #48]
 310              	.LVL50:
 311              		.loc 1 67 0 discriminator 3
 312 01e4 013F     		subs	r7, r7, #1
 313              	.LVL51:
 314 01e6 7FF441AF 		bne	.L2
 315              	.LBE7:
 316              		.loc 1 85 0
 317 01ea 134C     		ldr	r4, .L11+24
 318              	.LVL52:
 319 01ec 0022     		movs	r2, #0
 320 01ee 144B     		ldr	r3, .L11+32
 321 01f0 FFF7FEFF 		bl	__aeabi_ddiv
 322              	.LVL53:
 323 01f4 C4E90601 		strd	r0, [r4, #24]
 324              		.loc 1 86 0
 325 01f8 0022     		movs	r2, #0
 326 01fa 114B     		ldr	r3, .L11+32
 327 01fc DDE90A01 		ldrd	r0, [sp, #40]
 328 0200 FFF7FEFF 		bl	__aeabi_ddiv
 329              	.LVL54:
 330 0204 C4E90A01 		strd	r0, [r4, #40]
 331              		.loc 1 87 0
 332 0208 0022     		movs	r2, #0
 333 020a 0D4B     		ldr	r3, .L11+32
 334 020c DDE90801 		ldrd	r0, [sp, #32]
 335 0210 FFF7FEFF 		bl	__aeabi_ddiv
 336              	.LVL55:
 337 0214 C4E90801 		strd	r0, [r4, #32]
 338              		.loc 1 91 0
 339 0218 A246     		mov	r10, r4
 340              	.LVL56:
 341 021a 66E0     		b	.L7
 342              	.L12:
ARM GAS  C:\Users\CHRIST~1\AppData\Local\Temp\ccaHZkky.s 			page 7


 343 021c AFF30080 		.align	3
 344              	.L11:
 345 0220 000000C0 		.word	-1073741824
 346 0224 DC254B40 		.word	1078666716
 347 0228 00000000 		.word	ch
 348 022c 00000000 		.word	.LC0
 349 0230 00000000 		.word	.LANCHOR0
 350 0234 00000000 		.word	I2CD1
 351 0238 00000000 		.word	.LANCHOR1
 352 023c 00000343 		.word	1124270080
 353 0240 00005940 		.word	1079574528
 354              	.LVL57:
 355              	.L3:
 356              		.loc 1 107 0
 357 0244 AAA3     		adr	r3, .L13
 358 0246 D3E90023 		ldrd	r2, [r3]
 359 024a DDE90C01 		ldrd	r0, [sp, #48]
 360 024e FFF7FEFF 		bl	__aeabi_dmul
 361              	.LVL58:
 362 0252 0246     		mov	r2, r0
 363 0254 0B46     		mov	r3, r1
 364 0256 DAE90601 		ldrd	r0, [r10, #24]
 365 025a FFF7FEFF 		bl	__aeabi_dsub
 366              	.LVL59:
 367 025e CAE90601 		strd	r0, [r10, #24]
 368              	.LVL60:
 369              	.L6:
 370              		.loc 1 112 0
 371 0262 A3A3     		adr	r3, .L13
 372 0264 D3E90023 		ldrd	r2, [r3]
 373 0268 DDE90801 		ldrd	r0, [sp, #32]
 374 026c FFF7FEFF 		bl	__aeabi_dmul
 375              	.LVL61:
 376 0270 DAE90823 		ldrd	r2, [r10, #32]
 377 0274 FFF7FEFF 		bl	__aeabi_dadd
 378              	.LVL62:
 379 0278 9FA3     		adr	r3, .L13+8
 380 027a D3E90023 		ldrd	r2, [r3]
 381 027e FFF7FEFF 		bl	__aeabi_dmul
 382              	.LVL63:
 383 0282 0646     		mov	r6, r0
 384 0284 0F46     		mov	r7, r1
 385 0286 9EA3     		adr	r3, .L13+16
 386 0288 D3E90023 		ldrd	r2, [r3]
 387 028c 2046     		mov	r0, r4
 388 028e 2946     		mov	r1, r5
 389 0290 FFF7FEFF 		bl	__aeabi_dmul
 390              	.LVL64:
 391 0294 0246     		mov	r2, r0
 392 0296 0B46     		mov	r3, r1
 393 0298 3046     		mov	r0, r6
 394 029a 3946     		mov	r1, r7
 395 029c FFF7FEFF 		bl	__aeabi_dadd
 396              	.LVL65:
 397 02a0 CAE90801 		strd	r0, [r10, #32]
 398              		.loc 1 113 0
 399 02a4 92A3     		adr	r3, .L13
ARM GAS  C:\Users\CHRIST~1\AppData\Local\Temp\ccaHZkky.s 			page 8


 400 02a6 D3E90023 		ldrd	r2, [r3]
 401 02aa DDE90A01 		ldrd	r0, [sp, #40]
 402 02ae FFF7FEFF 		bl	__aeabi_dmul
 403              	.LVL66:
 404 02b2 0246     		mov	r2, r0
 405 02b4 0B46     		mov	r3, r1
 406 02b6 DAE90A01 		ldrd	r0, [r10, #40]
 407 02ba FFF7FEFF 		bl	__aeabi_dsub
 408              	.LVL67:
 409 02be 8EA3     		adr	r3, .L13+8
 410 02c0 D3E90023 		ldrd	r2, [r3]
 411 02c4 FFF7FEFF 		bl	__aeabi_dmul
 412              	.LVL68:
 413 02c8 0446     		mov	r4, r0
 414              	.LVL69:
 415 02ca 0D46     		mov	r5, r1
 416 02cc 8CA3     		adr	r3, .L13+16
 417 02ce D3E90023 		ldrd	r2, [r3]
 418 02d2 DDE90201 		ldrd	r0, [sp, #8]
 419 02d6 FFF7FEFF 		bl	__aeabi_dmul
 420              	.LVL70:
 421 02da 0246     		mov	r2, r0
 422 02dc 0B46     		mov	r3, r1
 423 02de 2046     		mov	r0, r4
 424 02e0 2946     		mov	r1, r5
 425 02e2 FFF7FEFF 		bl	__aeabi_dadd
 426              	.LVL71:
 427 02e6 CAE90A01 		strd	r0, [r10, #40]
 428              	.LVL72:
 429              	.L7:
 430              		.loc 1 90 0
 431 02ea 6420     		movs	r0, #100
 432 02ec FFF7FEFF 		bl	chThdSleep
 433              	.LVL73:
 434              		.loc 1 91 0
 435 02f0 0AF10A03 		add	r3, r10, #10
 436 02f4 0193     		str	r3, [sp, #4]
 437 02f6 0AF10803 		add	r3, r10, #8
 438 02fa 0093     		str	r3, [sp]
 439 02fc 023B     		subs	r3, r3, #2
 440 02fe 0AF10402 		add	r2, r10, #4
 441 0302 0AF10201 		add	r1, r10, #2
 442 0306 5046     		mov	r0, r10
 443 0308 FFF7FEFF 		bl	MPUgetMotion6
 444              	.LVL74:
 445              		.loc 1 92 0
 446 030c DAF81000 		ldr	r0, [r10, #16]	@ float
 447 0310 FFF7FEFF 		bl	__aeabi_f2d
 448              	.LVL75:
 449 0314 0446     		mov	r4, r0
 450 0316 0D46     		mov	r5, r1
 451 0318 BAF90000 		ldrsh	r0, [r10]
 452 031c FFF7FEFF 		bl	__aeabi_i2d
 453              	.LVL76:
 454 0320 2246     		mov	r2, r4
 455 0322 2B46     		mov	r3, r5
 456 0324 FFF7FEFF 		bl	__aeabi_ddiv
ARM GAS  C:\Users\CHRIST~1\AppData\Local\Temp\ccaHZkky.s 			page 9


 457              	.LVL77:
 458 0328 8046     		mov	r8, r0
 459 032a 8946     		mov	r9, r1
 460              	.LVL78:
 461              		.loc 1 93 0
 462 032c BAF90200 		ldrsh	r0, [r10, #2]
 463 0330 FFF7FEFF 		bl	__aeabi_i2d
 464              	.LVL79:
 465 0334 2246     		mov	r2, r4
 466 0336 2B46     		mov	r3, r5
 467 0338 FFF7FEFF 		bl	__aeabi_ddiv
 468              	.LVL80:
 469 033c 0646     		mov	r6, r0
 470 033e 0F46     		mov	r7, r1
 471              	.LVL81:
 472              		.loc 1 94 0
 473 0340 BAF90400 		ldrsh	r0, [r10, #4]
 474 0344 FFF7FEFF 		bl	__aeabi_i2d
 475              	.LVL82:
 476 0348 2246     		mov	r2, r4
 477 034a 2B46     		mov	r3, r5
 478 034c FFF7FEFF 		bl	__aeabi_ddiv
 479              	.LVL83:
 480 0350 CDE90201 		strd	r0, [sp, #8]
 481              	.LVL84:
 482              		.loc 1 95 0
 483 0354 DAF80C00 		ldr	r0, [r10, #12]	@ float
 484              	.LVL85:
 485 0358 FFF7FEFF 		bl	__aeabi_f2d
 486              	.LVL86:
 487 035c 0446     		mov	r4, r0
 488 035e 0D46     		mov	r5, r1
 489 0360 BAF90600 		ldrsh	r0, [r10, #6]
 490 0364 FFF7FEFF 		bl	__aeabi_i2d
 491              	.LVL87:
 492 0368 2246     		mov	r2, r4
 493 036a 2B46     		mov	r3, r5
 494 036c FFF7FEFF 		bl	__aeabi_ddiv
 495              	.LVL88:
 496 0370 CDE90801 		strd	r0, [sp, #32]
 497              	.LVL89:
 498              		.loc 1 96 0
 499 0374 BAF90800 		ldrsh	r0, [r10, #8]
 500              	.LVL90:
 501 0378 FFF7FEFF 		bl	__aeabi_i2d
 502              	.LVL91:
 503 037c 2246     		mov	r2, r4
 504 037e 2B46     		mov	r3, r5
 505 0380 FFF7FEFF 		bl	__aeabi_ddiv
 506              	.LVL92:
 507 0384 CDE90A01 		strd	r0, [sp, #40]
 508              	.LVL93:
 509              		.loc 1 97 0
 510 0388 BAF90A00 		ldrsh	r0, [r10, #10]
 511              	.LVL94:
 512 038c FFF7FEFF 		bl	__aeabi_i2d
 513              	.LVL95:
ARM GAS  C:\Users\CHRIST~1\AppData\Local\Temp\ccaHZkky.s 			page 10


 514 0390 2246     		mov	r2, r4
 515 0392 2B46     		mov	r3, r5
 516 0394 FFF7FEFF 		bl	__aeabi_ddiv
 517              	.LVL96:
 518 0398 CDE90C01 		strd	r0, [sp, #48]
 519              	.LVL97:
 520              		.loc 1 98 0
 521 039c 4246     		mov	r2, r8
 522 039e 4B46     		mov	r3, r9
 523 03a0 4046     		mov	r0, r8
 524              	.LVL98:
 525 03a2 4946     		mov	r1, r9
 526 03a4 FFF7FEFF 		bl	__aeabi_dmul
 527              	.LVL99:
 528 03a8 0446     		mov	r4, r0
 529 03aa 0D46     		mov	r5, r1
 530 03ac 3246     		mov	r2, r6
 531 03ae 3B46     		mov	r3, r7
 532 03b0 3046     		mov	r0, r6
 533 03b2 3946     		mov	r1, r7
 534 03b4 FFF7FEFF 		bl	__aeabi_dmul
 535              	.LVL100:
 536 03b8 0246     		mov	r2, r0
 537 03ba 0B46     		mov	r3, r1
 538 03bc 2046     		mov	r0, r4
 539 03be 2946     		mov	r1, r5
 540 03c0 FFF7FEFF 		bl	__aeabi_dadd
 541              	.LVL101:
 542 03c4 0446     		mov	r4, r0
 543 03c6 0D46     		mov	r5, r1
 544 03c8 DDE90201 		ldrd	r0, [sp, #8]
 545 03cc 0246     		mov	r2, r0
 546 03ce 0B46     		mov	r3, r1
 547 03d0 FFF7FEFF 		bl	__aeabi_dmul
 548              	.LVL102:
 549 03d4 0246     		mov	r2, r0
 550 03d6 0B46     		mov	r3, r1
 551 03d8 2046     		mov	r0, r4
 552 03da 2946     		mov	r1, r5
 553 03dc FFF7FEFF 		bl	__aeabi_dadd
 554              	.LVL103:
 555 03e0 41EC100B 		vmov	d0, r0, r1
 556 03e4 FFF7FEFF 		bl	sqrt
 557              	.LVL104:
 558 03e8 55EC104B 		vmov	r4, r5, d0
 559              	.LVL105:
 560              		.loc 1 100 0
 561 03ec 10EE102A 		vmov	r2, s0	@ int
 562 03f0 2B46     		mov	r3, r5
 563 03f2 4046     		mov	r0, r8
 564 03f4 4946     		mov	r1, r9
 565 03f6 FFF7FEFF 		bl	__aeabi_ddiv
 566              	.LVL106:
 567 03fa 8046     		mov	r8, r0
 568              	.LVL107:
 569 03fc 8946     		mov	r9, r1
 570              	.LVL108:
ARM GAS  C:\Users\CHRIST~1\AppData\Local\Temp\ccaHZkky.s 			page 11


 571              		.loc 1 101 0
 572 03fe 2246     		mov	r2, r4
 573 0400 2B46     		mov	r3, r5
 574 0402 3046     		mov	r0, r6
 575 0404 3946     		mov	r1, r7
 576 0406 FFF7FEFF 		bl	__aeabi_ddiv
 577              	.LVL109:
 578 040a 0646     		mov	r6, r0
 579              	.LVL110:
 580 040c 0F46     		mov	r7, r1
 581              	.LVL111:
 582              		.loc 1 102 0
 583 040e 2246     		mov	r2, r4
 584 0410 2B46     		mov	r3, r5
 585 0412 DDE90201 		ldrd	r0, [sp, #8]
 586 0416 FFF7FEFF 		bl	__aeabi_ddiv
 587              	.LVL112:
 588 041a 41EC180B 		vmov	d8, r0, r1
 589              	.LVL113:
 590              		.loc 1 103 0
 591 041e 41EC110B 		vmov	d1, r0, r1
 592 0422 47EC106B 		vmov	d0, r6, r7
 593 0426 FFF7FEFF 		bl	atan2
 594              	.LVL114:
 595 042a 37A3     		adr	r3, .L13+24
 596 042c D3E90023 		ldrd	r2, [r3]
 597 0430 51EC100B 		vmov	r0, r1, d0
 598 0434 FFF7FEFF 		bl	__aeabi_dmul
 599              	.LVL115:
 600 0438 0446     		mov	r4, r0
 601              	.LVL116:
 602 043a 0D46     		mov	r5, r1
 603              	.LVL117:
 604              		.loc 1 104 0
 605 043c B0EE481A 		vmov.f32	s2, s16
 606 0440 F0EE681A 		vmov.f32	s3, s17
 607 0444 49EC108B 		vmov	d0, r8, r9
 608 0448 FFF7FEFF 		bl	atan2
 609              	.LVL118:
 610 044c 2EA3     		adr	r3, .L13+24
 611 044e D3E90023 		ldrd	r2, [r3]
 612 0452 51EC100B 		vmov	r0, r1, d0
 613 0456 FFF7FEFF 		bl	__aeabi_dmul
 614              	.LVL119:
 615 045a CDE90201 		strd	r0, [sp, #8]
 616              	.LVL120:
 617              		.loc 1 105 0
 618 045e CDF81080 		str	r8, [sp, #16]
 619 0462 09F10043 		add	r3, r9, #-2147483648
 620 0466 0593     		str	r3, [sp, #20]
 621 0468 0696     		str	r6, [sp, #24]
 622 046a 07F10043 		add	r3, r7, #-2147483648
 623 046e 0793     		str	r3, [sp, #28]
 624 0470 9DED041B 		vldr.64	d1, [sp, #16]
 625 0474 9DED060B 		vldr.64	d0, [sp, #24]
 626 0478 FFF7FEFF 		bl	atan2
 627              	.LVL121:
ARM GAS  C:\Users\CHRIST~1\AppData\Local\Temp\ccaHZkky.s 			page 12


 628              		.loc 1 106 0
 629 047c 24A3     		adr	r3, .L13+32
 630 047e D3E90023 		ldrd	r2, [r3]
 631 0482 3046     		mov	r0, r6
 632 0484 3946     		mov	r1, r7
 633 0486 FFF7FEFF 		bl	__aeabi_dcmple
 634              	.LVL122:
 635 048a 0028     		cmp	r0, #0
 636 048c 7FF4DAAE 		bne	.L3
 637              		.loc 1 106 0 is_stmt 0 discriminator 1
 638 0490 1FA3     		adr	r3, .L13+32
 639 0492 D3E90023 		ldrd	r2, [r3]
 640 0496 4046     		mov	r0, r8
 641 0498 4946     		mov	r1, r9
 642 049a FFF7FEFF 		bl	__aeabi_dcmple
 643              	.LVL123:
 644 049e 0028     		cmp	r0, #0
 645 04a0 7FF4D0AE 		bne	.L3
 646              		.loc 1 110 0 is_stmt 1
 647 04a4 12A3     		adr	r3, .L13
 648 04a6 D3E90023 		ldrd	r2, [r3]
 649 04aa DDE90C01 		ldrd	r0, [sp, #48]
 650 04ae FFF7FEFF 		bl	__aeabi_dmul
 651              	.LVL124:
 652 04b2 0246     		mov	r2, r0
 653 04b4 0B46     		mov	r3, r1
 654 04b6 DAE90601 		ldrd	r0, [r10, #24]
 655 04ba FFF7FEFF 		bl	__aeabi_dsub
 656              	.LVL125:
 657 04be 0EA3     		adr	r3, .L13+8
 658 04c0 D3E90023 		ldrd	r2, [r3]
 659 04c4 FFF7FEFF 		bl	__aeabi_dmul
 660              	.LVL126:
 661 04c8 0646     		mov	r6, r0
 662              	.LVL127:
 663 04ca 0F46     		mov	r7, r1
 664 04cc 0CA3     		adr	r3, .L13+16
 665 04ce D3E90023 		ldrd	r2, [r3]
 666 04d2 2046     		mov	r0, r4
 667 04d4 2946     		mov	r1, r5
 668 04d6 FFF7FEFF 		bl	__aeabi_dmul
 669              	.LVL128:
 670 04da 0246     		mov	r2, r0
 671 04dc 0B46     		mov	r3, r1
 672 04de 3046     		mov	r0, r6
 673 04e0 3946     		mov	r1, r7
 674 04e2 FFF7FEFF 		bl	__aeabi_dadd
 675              	.LVL129:
 676 04e6 CAE90601 		strd	r0, [r10, #24]
 677 04ea BAE6     		b	.L6
 678              	.L14:
 679 04ec AFF30080 		.align	3
 680              	.L13:
 681 04f0 00000040 		.word	1073741824
 682 04f4 E17A843F 		.word	1065646817
 683 04f8 00000000 		.word	0
 684 04fc 295CEF3F 		.word	1072651305
ARM GAS  C:\Users\CHRIST~1\AppData\Local\Temp\ccaHZkky.s 			page 13


 685 0500 00000040 		.word	1073741824
 686 0504 E17A943F 		.word	1066695393
 687 0508 000000C0 		.word	-1073741824
 688 050c DC254B40 		.word	1078666716
 689 0510 000000A0 		.word	-1610612736
 690 0514 9999B93F 		.word	1069128089
 691              		.cfi_endproc
 692              	.LFE256:
 693              		.size	i2c_thread, .-i2c_thread
 694              		.section	.text.imu_init,"ax",%progbits
 695              		.align	1
 696              		.p2align 4,,15
 697              		.global	imu_init
 698              		.syntax unified
 699              		.thumb
 700              		.thumb_func
 701              		.fpu fpv4-sp-d16
 702              		.type	imu_init, %function
 703              	imu_init:
 704              	.LFB257:
 705              		.loc 1 121 0
 706              		.cfi_startproc
 707              		@ args = 0, pretend = 0, frame = 0
 708              		@ frame_needed = 0, uses_anonymous_args = 0
 709 0000 10B5     		push	{r4, lr}
 710              		.cfi_def_cfa_offset 8
 711              		.cfi_offset 4, -8
 712              		.cfi_offset 14, -4
 713 0002 82B0     		sub	sp, sp, #8
 714              		.cfi_def_cfa_offset 16
 715              		.loc 1 122 0
 716 0004 FFF7FEFF 		bl	i2cInit
 717              	.LVL130:
 718              		.loc 1 123 0
 719 0008 0D4C     		ldr	r4, .L17
 720 000a 40F22E22 		movw	r2, #558
 721 000e 4FF48071 		mov	r1, #256
 722 0012 2046     		mov	r0, r4
 723 0014 FFF7FEFF 		bl	_pal_lld_setgroupmode
 724              	.LVL131:
 725              		.loc 1 129 0
 726 0018 40F22E22 		movw	r2, #558
 727 001c 4FF40071 		mov	r1, #512
 728 0020 2046     		mov	r0, r4
 729 0022 FFF7FEFF 		bl	_pal_lld_setgroupmode
 730              	.LVL132:
 731              		.loc 1 134 0
 732 0026 0023     		movs	r3, #0
 733 0028 0093     		str	r3, [sp]
 734 002a 064B     		ldr	r3, .L17+4
 735 002c 4022     		movs	r2, #64
 736 002e 4FF4B361 		mov	r1, #1432
 737 0032 0548     		ldr	r0, .L17+8
 738 0034 FFF7FEFF 		bl	chThdCreateStatic
 739              	.LVL133:
 740              		.loc 1 136 0
 741 0038 0120     		movs	r0, #1
ARM GAS  C:\Users\CHRIST~1\AppData\Local\Temp\ccaHZkky.s 			page 14


 742 003a 02B0     		add	sp, sp, #8
 743              		.cfi_def_cfa_offset 8
 744              		@ sp needed
 745 003c 10BD     		pop	{r4, pc}
 746              	.L18:
 747 003e 00BF     		.align	2
 748              	.L17:
 749 0040 00040240 		.word	1073873920
 750 0044 00000000 		.word	i2c_thread
 751 0048 00000000 		.word	.LANCHOR2
 752              		.cfi_endproc
 753              	.LFE257:
 754              		.size	imu_init, .-imu_init
 755              		.global	__aeabi_d2f
 756              		.section	.text.get_Axy,"ax",%progbits
 757              		.align	1
 758              		.p2align 4,,15
 759              		.global	get_Axy
 760              		.syntax unified
 761              		.thumb
 762              		.thumb_func
 763              		.fpu fpv4-sp-d16
 764              		.type	get_Axy, %function
 765              	get_Axy:
 766              	.LFB258:
 767              		.loc 1 138 0
 768              		.cfi_startproc
 769              		@ args = 0, pretend = 0, frame = 0
 770              		@ frame_needed = 0, uses_anonymous_args = 0
 771 0000 08B5     		push	{r3, lr}
 772              		.cfi_def_cfa_offset 8
 773              		.cfi_offset 3, -8
 774              		.cfi_offset 14, -4
 775              		.loc 1 139 0
 776 0002 044B     		ldr	r3, .L21
 777 0004 D3E90601 		ldrd	r0, [r3, #24]
 778 0008 FFF7FEFF 		bl	__aeabi_d2f
 779              	.LVL134:
 780              		.loc 1 140 0
 781 000c 00EE100A 		vmov	s0, r0
 782 0010 08BD     		pop	{r3, pc}
 783              	.L22:
 784 0012 00BF     		.align	2
 785              	.L21:
 786 0014 00000000 		.word	.LANCHOR1
 787              		.cfi_endproc
 788              	.LFE258:
 789              		.size	get_Axy, .-get_Axy
 790              		.section	.text.get_Axz,"ax",%progbits
 791              		.align	1
 792              		.p2align 4,,15
 793              		.global	get_Axz
 794              		.syntax unified
 795              		.thumb
 796              		.thumb_func
 797              		.fpu fpv4-sp-d16
 798              		.type	get_Axz, %function
ARM GAS  C:\Users\CHRIST~1\AppData\Local\Temp\ccaHZkky.s 			page 15


 799              	get_Axz:
 800              	.LFB259:
 801              		.loc 1 142 0
 802              		.cfi_startproc
 803              		@ args = 0, pretend = 0, frame = 0
 804              		@ frame_needed = 0, uses_anonymous_args = 0
 805 0000 08B5     		push	{r3, lr}
 806              		.cfi_def_cfa_offset 8
 807              		.cfi_offset 3, -8
 808              		.cfi_offset 14, -4
 809              		.loc 1 143 0
 810 0002 044B     		ldr	r3, .L25
 811 0004 D3E90A01 		ldrd	r0, [r3, #40]
 812 0008 FFF7FEFF 		bl	__aeabi_d2f
 813              	.LVL135:
 814              		.loc 1 144 0
 815 000c 00EE100A 		vmov	s0, r0
 816 0010 08BD     		pop	{r3, pc}
 817              	.L26:
 818 0012 00BF     		.align	2
 819              	.L25:
 820 0014 00000000 		.word	.LANCHOR1
 821              		.cfi_endproc
 822              	.LFE259:
 823              		.size	get_Axz, .-get_Axz
 824              		.section	.text.get_Ayz,"ax",%progbits
 825              		.align	1
 826              		.p2align 4,,15
 827              		.global	get_Ayz
 828              		.syntax unified
 829              		.thumb
 830              		.thumb_func
 831              		.fpu fpv4-sp-d16
 832              		.type	get_Ayz, %function
 833              	get_Ayz:
 834              	.LFB260:
 835              		.loc 1 146 0
 836              		.cfi_startproc
 837              		@ args = 0, pretend = 0, frame = 0
 838              		@ frame_needed = 0, uses_anonymous_args = 0
 839 0000 08B5     		push	{r3, lr}
 840              		.cfi_def_cfa_offset 8
 841              		.cfi_offset 3, -8
 842              		.cfi_offset 14, -4
 843              		.loc 1 147 0
 844 0002 044B     		ldr	r3, .L29
 845 0004 D3E90801 		ldrd	r0, [r3, #32]
 846 0008 FFF7FEFF 		bl	__aeabi_d2f
 847              	.LVL136:
 848              		.loc 1 148 0
 849 000c 00EE100A 		vmov	s0, r0
 850 0010 08BD     		pop	{r3, pc}
 851              	.L30:
 852 0012 00BF     		.align	2
 853              	.L29:
 854 0014 00000000 		.word	.LANCHOR1
 855              		.cfi_endproc
ARM GAS  C:\Users\CHRIST~1\AppData\Local\Temp\ccaHZkky.s 			page 16


 856              	.LFE260:
 857              		.size	get_Ayz, .-get_Ayz
 858              		.section	.text.get_IMU,"ax",%progbits
 859              		.align	1
 860              		.p2align 4,,15
 861              		.global	get_IMU
 862              		.syntax unified
 863              		.thumb
 864              		.thumb_func
 865              		.fpu fpv4-sp-d16
 866              		.type	get_IMU, %function
 867              	get_IMU:
 868              	.LFB261:
 869              		.loc 1 150 0
 870              		.cfi_startproc
 871              		@ args = 0, pretend = 0, frame = 0
 872              		@ frame_needed = 0, uses_anonymous_args = 0
 873              		@ link register save eliminated.
 874              	.LVL137:
 875 0000 70B4     		push	{r4, r5, r6}
 876              		.cfi_def_cfa_offset 12
 877              		.cfi_offset 4, -12
 878              		.cfi_offset 5, -8
 879              		.cfi_offset 6, -4
 880 0002 0646     		mov	r6, r0
 881              		.loc 1 151 0
 882 0004 0446     		mov	r4, r0
 883 0006 064D     		ldr	r5, .L33
 884 0008 0FCD     		ldmia	r5!, {r0, r1, r2, r3}
 885              	.LVL138:
 886 000a 0FC4     		stmia	r4!, {r0, r1, r2, r3}
 887              	.LVL139:
 888 000c 0FCD     		ldmia	r5!, {r0, r1, r2, r3}
 889 000e 0FC4     		stmia	r4!, {r0, r1, r2, r3}
 890 0010 95E80F00 		ldm	r5, {r0, r1, r2, r3}
 891 0014 84E80F00 		stm	r4, {r0, r1, r2, r3}
 892              		.loc 1 152 0
 893 0018 3046     		mov	r0, r6
 894 001a 70BC     		pop	{r4, r5, r6}
 895              		.cfi_restore 6
 896              		.cfi_restore 5
 897              		.cfi_restore 4
 898              		.cfi_def_cfa_offset 0
 899              	.LVL140:
 900 001c 7047     		bx	lr
 901              	.L34:
 902 001e 00BF     		.align	2
 903              	.L33:
 904 0020 00000000 		.word	.LANCHOR1
 905              		.cfi_endproc
 906              	.LFE261:
 907              		.size	get_IMU, .-get_IMU
 908              		.global	mpu
 909              		.section	.bss.ic2_1,"aw",%nobits
 910              		.align	3
 911              		.set	.LANCHOR2,. + 0
 912              		.type	ic2_1, %object
ARM GAS  C:\Users\CHRIST~1\AppData\Local\Temp\ccaHZkky.s 			page 17


 913              		.size	ic2_1, 1432
 914              	ic2_1:
 915 0000 00000000 		.space	1432
 915      00000000 
 915      00000000 
 915      00000000 
 915      00000000 
 916              		.section	.bss.mpu,"aw",%nobits
 917              		.align	3
 918              		.set	.LANCHOR1,. + 0
 919              		.type	mpu, %object
 920              		.size	mpu, 48
 921              	mpu:
 922 0000 00000000 		.space	48
 922      00000000 
 922      00000000 
 922      00000000 
 922      00000000 
 923              		.section	.rodata.i2c_thread.str1.4,"aMS",%progbits,1
 924              		.align	2
 925              	.LC0:
 926 0000 49433200 		.ascii	"IC2\000"
 927              		.section	.rodata.i2cfg,"a",%progbits
 928              		.align	2
 929              		.set	.LANCHOR0,. + 0
 930              		.type	i2cfg, %object
 931              		.size	i2cfg, 12
 932              	i2cfg:
 933 0000 01       		.byte	1
 934 0001 000000   		.space	3
 935 0004 A0860100 		.word	100000
 936 0008 01       		.byte	1
 937 0009 000000   		.space	3
 938              		.text
 939              	.Letext0:
 940              		.file 3 "c:\\program files (x86)\\gnu tools arm embedded\\7 2017-q4-major\\arm-none-eabi\\include\
 941              		.file 4 "c:\\program files (x86)\\gnu tools arm embedded\\7 2017-q4-major\\arm-none-eabi\\include\
 942              		.file 5 "c:\\program files (x86)\\gnu tools arm embedded\\7 2017-q4-major\\lib\\gcc\\arm-none-eabi
 943              		.file 6 "ChibiOS_3.0.2/os/rt/ports/ARMCMx/compilers/GCC/chtypes.h"
 944              		.file 7 "ChibiOS_3.0.2/os/rt/include/chsystypes.h"
 945              		.file 8 "ChibiOS_3.0.2/os/rt/include/chschd.h"
 946              		.file 9 "ChibiOS_3.0.2/os/ext/CMSIS/include/core_cm4.h"
 947              		.file 10 "ChibiOS_3.0.2/os/ext/CMSIS/ST/system_stm32f4xx.h"
 948              		.file 11 "ChibiOS_3.0.2/os/ext/CMSIS/ST/stm32f407xx.h"
 949              		.file 12 "ChibiOS_3.0.2/os/rt/ports/ARMCMx/chcore.h"
 950              		.file 13 "ChibiOS_3.0.2/os/rt/ports/ARMCMx/chcore_v7m.h"
 951              		.file 14 "ChibiOS_3.0.2/os/rt/include/chtm.h"
 952              		.file 15 "ChibiOS_3.0.2/os/rt/include/chsem.h"
 953              		.file 16 "ChibiOS_3.0.2/os/rt/include/chmtx.h"
 954              		.file 17 "ChibiOS_3.0.2/os/rt/include/chevents.h"
 955              		.file 18 "ChibiOS_3.0.2/os/rt/include/chqueues.h"
 956              		.file 19 "datatypes.h"
 957              		.file 20 "./conf_general.h"
 958              		.file 21 "ChibiOS_3.0.2/os/hal/ports/STM32/STM32F4xx/stm32_dma.h"
 959              		.file 22 "ChibiOS_3.0.2/os/hal/ports/STM32/LLD/GPIOv2/pal_lld.h"
 960              		.file 23 "ChibiOS_3.0.2/os/hal/include/can.h"
 961              		.file 24 "ChibiOS_3.0.2/os/hal/ports/STM32/LLD/can_lld.h"
ARM GAS  C:\Users\CHRIST~1\AppData\Local\Temp\ccaHZkky.s 			page 18


 962              		.file 25 "ChibiOS_3.0.2/os/hal/include/i2c.h"
 963              		.file 26 "ChibiOS_3.0.2/os/hal/ports/STM32/LLD/I2Cv1/i2c_lld.h"
 964              		.file 27 "ChibiOS_3.0.2/os/hal/include/icu.h"
 965              		.file 28 "ChibiOS_3.0.2/os/hal/ports/STM32/LLD/TIMv1/icu_lld.h"
 966              		.file 29 "ChibiOS_3.0.2/os/hal/ports/STM32/LLD/TIMv1/stm32_tim.h"
 967              		.file 30 "ChibiOS_3.0.2/os/hal/include/spi.h"
 968              		.file 31 "ChibiOS_3.0.2/os/hal/ports/STM32/LLD/SPIv1/spi_lld.h"
 969              		.file 32 "ChibiOS_3.0.2/os/hal/include/uart.h"
 970              		.file 33 "ChibiOS_3.0.2/os/hal/ports/STM32/LLD/USARTv1/uart_lld.h"
 971              		.file 34 "ChibiOS_3.0.2/os/hal/include/usb.h"
 972              		.file 35 "ChibiOS_3.0.2/os/hal/ports/STM32/LLD/OTGv1/usb_lld.h"
 973              		.file 36 "ChibiOS_3.0.2/os/hal/ports/STM32/LLD/OTGv1/stm32_otg.h"
 974              		.file 37 "mpu6050.h"
 975              		.file 38 "c:\\program files (x86)\\gnu tools arm embedded\\7 2017-q4-major\\arm-none-eabi\\include
 976              		.file 39 "c:\\program files (x86)\\gnu tools arm embedded\\7 2017-q4-major\\arm-none-eabi\\include
 977              		.file 40 "c:\\program files (x86)\\gnu tools arm embedded\\7 2017-q4-major\\arm-none-eabi\\include
 978              		.file 41 "c:\\program files (x86)\\gnu tools arm embedded\\7 2017-q4-major\\arm-none-eabi\\include
 979              		.file 42 "ChibiOS_3.0.2/os/rt/include/chthreads.h"
