ARM GAS  C:\Users\CHRIST~1\AppData\Local\Temp\ccTNSWKS.s 			page 1


   1              		.cpu cortex-m4
   2              		.eabi_attribute 27, 1
   3              		.eabi_attribute 28, 1
   4              		.eabi_attribute 20, 1
   5              		.eabi_attribute 21, 1
   6              		.eabi_attribute 23, 3
   7              		.eabi_attribute 24, 1
   8              		.eabi_attribute 25, 1
   9              		.eabi_attribute 26, 1
  10              		.eabi_attribute 30, 1
  11              		.eabi_attribute 34, 1
  12              		.eabi_attribute 18, 4
  13              		.file	"mc_interface.c"
  14              		.text
  15              	.Ltext0:
  16              		.cfi_sections	.debug_frame
  17              		.section	.text.sample_send_thread,"ax",%progbits
  18              		.align	1
  19              		.p2align 4,,15
  20              		.syntax unified
  21              		.thumb
  22              		.thumb_func
  23              		.fpu fpv4-sp-d16
  24              		.type	sample_send_thread, %function
  25              	sample_send_thread:
  26              	.LFB311:
  27              		.file 1 "mc_interface.c"
  28              		.loc 1 1495 0
  29              		.cfi_startproc
  30              		@ args = 0, pretend = 0, frame = 48
  31              		@ frame_needed = 0, uses_anonymous_args = 0
  32              	.LVL0:
  33 0000 2DE9F047 		push	{r4, r5, r6, r7, r8, r9, r10, lr}
  34              		.cfi_def_cfa_offset 32
  35              		.cfi_offset 4, -32
  36              		.cfi_offset 5, -28
  37              		.cfi_offset 6, -24
  38              		.cfi_offset 7, -20
  39              		.cfi_offset 8, -16
  40              		.cfi_offset 9, -12
  41              		.cfi_offset 10, -8
  42              		.cfi_offset 14, -4
  43 0004 2DED068B 		vpush.64	{d8, d9, d10}
  44              		.cfi_def_cfa_offset 56
  45              		.cfi_offset 80, -56
  46              		.cfi_offset 81, -52
  47              		.cfi_offset 82, -48
  48              		.cfi_offset 83, -44
  49              		.cfi_offset 84, -40
  50              		.cfi_offset 85, -36
  51 0008 8CB0     		sub	sp, sp, #48
  52              		.cfi_def_cfa_offset 104
  53              	.LVL1:
  54              	.LBB86:
  55              	.LBB87:
  56              		.file 2 "ChibiOS_3.0.2/os/rt/include/chregistry.h"
  57              		.loc 2 135 0
ARM GAS  C:\Users\CHRIST~1\AppData\Local\Temp\ccTNSWKS.s 			page 2


  58 000a 7A4B     		ldr	r3, .L19
  59 000c 9A69     		ldr	r2, [r3, #24]
  60 000e 7A49     		ldr	r1, .L19+4
  61 0010 9161     		str	r1, [r2, #24]
  62              	.LVL2:
  63              	.LBE87:
  64              	.LBE86:
  65              		.loc 1 1500 0
  66 0012 9A69     		ldr	r2, [r3, #24]
  67 0014 794B     		ldr	r3, .L19+8
  68 0016 1A60     		str	r2, [r3]
  69              	.LBB88:
  70              		.loc 1 1508 0
  71 0018 DFF81CA2 		ldr	r10, .L19+68
  72              	.LBB89:
  73              	.LBB90:
  74              		.loc 1 1540 0
  75 001c DFED789A 		vldr.32	s19, .L19+12
  76              		.loc 1 1542 0
  77 0020 9FED789A 		vldr.32	s18, .L19+16
  78 0024 DFED788A 		vldr.32	s17, .L19+20
  79 0028 9FED788A 		vldr.32	s16, .L19+24
  80              		.loc 1 1546 0
  81 002c 9FED78AA 		vldr.32	s20, .L19+28
  82 0030 BDE0     		b	.L13
  83              	.LVL3:
  84              	.L3:
  85              	.LBE90:
  86              	.LBE89:
  87              		.loc 1 1511 0
  88 0032 784B     		ldr	r3, .L19+32
  89 0034 D3F80090 		ldr	r9, [r3]
  90              	.LVL4:
  91              	.L2:
  92              	.LBB92:
  93              		.loc 1 1526 0
  94 0038 B9F1000F 		cmp	r9, #0
  95 003c 40F3B780 		ble	.L13
  96 0040 0026     		movs	r6, #0
  97              	.LVL5:
  98              	.L6:
  99 0042 0027     		movs	r7, #0
 100              	.LBB91:
 101              		.loc 1 1540 0
 102 0044 DFF8F481 		ldr	r8, .L19+72
 103              	.LVL6:
 104              	.L12:
 105              		.loc 1 1529 0
 106 0048 3446     		mov	r4, r6
 107              	.LVL7:
 108              		.loc 1 1531 0
 109 004a B6F5FA6F 		cmp	r6, #2000
 110 004e 04DB     		blt	.L8
 111              	.L9:
 112              		.loc 1 1532 0
 113 0050 A4F5FA64 		sub	r4, r4, #2000
 114              	.LVL8:
ARM GAS  C:\Users\CHRIST~1\AppData\Local\Temp\ccTNSWKS.s 			page 3


 115              		.loc 1 1531 0
 116 0054 B4F5FA6F 		cmp	r4, #2000
 117 0058 FADA     		bge	.L9
 118              	.L8:
 119              		.loc 1 1535 0
 120 005a 002C     		cmp	r4, #0
 121 005c 02DA     		bge	.L10
 122              	.L11:
 123              	.LVL9:
 124 005e 14F5FA64 		adds	r4, r4, #2000
 125              	.LVL10:
 126 0062 FCD4     		bmi	.L11
 127              	.L10:
 128              		.loc 1 1539 0 discriminator 2
 129 0064 0123     		movs	r3, #1
 130 0066 0193     		str	r3, [sp, #4]
 131 0068 1323     		movs	r3, #19
 132 006a 8DF80830 		strb	r3, [sp, #8]
 133              		.loc 1 1540 0 discriminator 2
 134 006e 38F81430 		ldrh	r3, [r8, r4, lsl #1]
 135 0072 1BB2     		sxth	r3, r3
 136 0074 00EE103A 		vmov	s0, r3	@ int
 137 0078 B8EEC00A 		vcvt.f32.s32	s0, s0
 138 007c 01A9     		add	r1, sp, #4
 139 007e 20EE290A 		vmul.f32	s0, s0, s19
 140 0082 02A8     		add	r0, sp, #8
 141 0084 FFF7FEFF 		bl	buffer_append_float32_auto
 142              	.LVL11:
 143              		.loc 1 1541 0 discriminator 2
 144 0088 6500     		lsls	r5, r4, #1
 145 008a 08EB0503 		add	r3, r8, r5
 146 008e B3F8A03F 		ldrh	r3, [r3, #4000]
 147 0092 1BB2     		sxth	r3, r3
 148 0094 00EE103A 		vmov	s0, r3	@ int
 149 0098 B8EEC00A 		vcvt.f32.s32	s0, s0
 150 009c 01A9     		add	r1, sp, #4
 151 009e 20EE290A 		vmul.f32	s0, s0, s19
 152 00a2 02A8     		add	r0, sp, #8
 153 00a4 FFF7FEFF 		bl	buffer_append_float32_auto
 154              	.LVL12:
 155              		.loc 1 1542 0 discriminator 2
 156 00a8 5B4B     		ldr	r3, .L19+36
 157 00aa 2B44     		add	r3, r3, r5
 158 00ac B3F8483E 		ldrh	r3, [r3, #3656]
 159 00b0 1BB2     		sxth	r3, r3
 160 00b2 00EE103A 		vmov	s0, r3	@ int
 161 00b6 B8EEC00A 		vcvt.f32.s32	s0, s0
 162 00ba 20EE090A 		vmul.f32	s0, s0, s18
 163 00be 20EE280A 		vmul.f32	s0, s0, s17
 164 00c2 01A9     		add	r1, sp, #4
 165 00c4 20EE080A 		vmul.f32	s0, s0, s16
 166 00c8 02A8     		add	r0, sp, #8
 167 00ca FFF7FEFF 		bl	buffer_append_float32_auto
 168              	.LVL13:
 169              		.loc 1 1543 0 discriminator 2
 170 00ce 534B     		ldr	r3, .L19+40
 171 00d0 2B44     		add	r3, r3, r5
ARM GAS  C:\Users\CHRIST~1\AppData\Local\Temp\ccTNSWKS.s 			page 4


 172 00d2 B3F8F03C 		ldrh	r3, [r3, #3312]
 173 00d6 1BB2     		sxth	r3, r3
 174 00d8 00EE103A 		vmov	s0, r3	@ int
 175 00dc B8EEC00A 		vcvt.f32.s32	s0, s0
 176 00e0 20EE090A 		vmul.f32	s0, s0, s18
 177 00e4 20EE280A 		vmul.f32	s0, s0, s17
 178 00e8 01A9     		add	r1, sp, #4
 179 00ea 20EE080A 		vmul.f32	s0, s0, s16
 180 00ee 02A8     		add	r0, sp, #8
 181 00f0 FFF7FEFF 		bl	buffer_append_float32_auto
 182              	.LVL14:
 183              		.loc 1 1544 0 discriminator 2
 184 00f4 4A4B     		ldr	r3, .L19+44
 185 00f6 2B44     		add	r3, r3, r5
 186 00f8 B3F8983B 		ldrh	r3, [r3, #2968]
 187 00fc 1BB2     		sxth	r3, r3
 188 00fe 00EE103A 		vmov	s0, r3	@ int
 189 0102 B8EEC00A 		vcvt.f32.s32	s0, s0
 190 0106 20EE090A 		vmul.f32	s0, s0, s18
 191 010a 20EE280A 		vmul.f32	s0, s0, s17
 192 010e 01A9     		add	r1, sp, #4
 193 0110 20EE080A 		vmul.f32	s0, s0, s16
 194 0114 02A8     		add	r0, sp, #8
 195 0116 FFF7FEFF 		bl	buffer_append_float32_auto
 196              	.LVL15:
 197              		.loc 1 1545 0 discriminator 2
 198 011a 424B     		ldr	r3, .L19+48
 199 011c 2B44     		add	r3, r3, r5
 200 011e B3F8403A 		ldrh	r3, [r3, #2624]
 201 0122 1BB2     		sxth	r3, r3
 202 0124 00EE103A 		vmov	s0, r3	@ int
 203 0128 B8EEC00A 		vcvt.f32.s32	s0, s0
 204 012c 20EE090A 		vmul.f32	s0, s0, s18
 205 0130 20EE280A 		vmul.f32	s0, s0, s17
 206 0134 01A9     		add	r1, sp, #4
 207 0136 20EE080A 		vmul.f32	s0, s0, s16
 208 013a 02A8     		add	r0, sp, #8
 209 013c FFF7FEFF 		bl	buffer_append_float32_auto
 210              	.LVL16:
 211              		.loc 1 1546 0 discriminator 2
 212 0140 394B     		ldr	r3, .L19+52
 213 0142 2B44     		add	r3, r3, r5
 214 0144 B3F8E838 		ldrh	r3, [r3, #2280]
 215 0148 1BB2     		sxth	r3, r3
 216 014a 00EE103A 		vmov	s0, r3	@ int
 217 014e B8EEC00A 		vcvt.f32.s32	s0, s0
 218 0152 01A9     		add	r1, sp, #4
 219 0154 80EE0A0A 		vdiv.f32	s0, s0, s20
 220 0158 02A8     		add	r0, sp, #8
 221 015a FFF7FEFF 		bl	buffer_append_float32_auto
 222              	.LVL17:
 223              		.loc 1 1547 0 discriminator 2
 224 015e 334B     		ldr	r3, .L19+56
 225 0160 1D44     		add	r5, r5, r3
 226 0162 B5F89037 		ldrh	r3, [r5, #1936]
 227 0166 1BB2     		sxth	r3, r3
 228 0168 07EE903A 		vmov	s15, r3	@ int
ARM GAS  C:\Users\CHRIST~1\AppData\Local\Temp\ccTNSWKS.s 			page 5


 229 016c F8EEE77A 		vcvt.f32.s32	s15, s15
 230 0170 01A9     		add	r1, sp, #4
 231 0172 B2EE040A 		vmov.f32	s0, #1.0e+1
 232 0176 27EE800A 		vmul.f32	s0, s15, s0
 233 017a 02A8     		add	r0, sp, #8
 234 017c FFF7FEFF 		bl	buffer_append_float32_auto
 235              	.LVL18:
 236              		.loc 1 1548 0 discriminator 2
 237 0180 0199     		ldr	r1, [sp, #4]
 238 0182 2B4B     		ldr	r3, .L19+60
 239 0184 1C44     		add	r4, r4, r3
 240              	.LVL19:
 241 0186 94F83826 		ldrb	r2, [r4, #1592]	@ zero_extendqisi2
 242 018a 0CAB     		add	r3, sp, #48
 243 018c 0B44     		add	r3, r3, r1
 244 018e 03F8282C 		strb	r2, [r3, #-40]
 245              		.loc 1 1549 0 discriminator 2
 246 0192 94F8082E 		ldrb	r2, [r4, #3592]	@ zero_extendqisi2
 247 0196 0231     		adds	r1, r1, #2
 248 0198 0191     		str	r1, [sp, #4]
 249 019a 03F8272C 		strb	r2, [r3, #-39]
 250              		.loc 1 1551 0 discriminator 2
 251 019e 02A8     		add	r0, sp, #8
 252 01a0 FFF7FEFF 		bl	commands_send_packet
 253              	.LVL20:
 254              	.LBE91:
 255              		.loc 1 1526 0 discriminator 2
 256 01a4 0137     		adds	r7, r7, #1
 257              	.LVL21:
 258 01a6 0136     		adds	r6, r6, #1
 259 01a8 B945     		cmp	r9, r7
 260 01aa 3FF74DAF 		bgt	.L12
 261              	.LVL22:
 262              	.L13:
 263              	.LBE92:
 264              		.loc 1 1503 0
 265 01ae 0120     		movs	r0, #1
 266 01b0 FFF7FEFF 		bl	chEvtWaitAny
 267              	.LVL23:
 268              		.loc 1 1508 0
 269 01b4 9AF80030 		ldrb	r3, [r10]	@ zero_extendqisi2
 270 01b8 013B     		subs	r3, r3, #1
 271 01ba 052B     		cmp	r3, #5
 272 01bc 16D8     		bhi	.L14
 273 01be 01A2     		adr	r2, .L4
 274 01c0 52F823F0 		ldr	pc, [r2, r3, lsl #2]
 275              		.p2align 2
 276              	.L4:
 277 01c4 33000000 		.word	.L3+1
 278 01c8 33000000 		.word	.L3+1
 279 01cc DD010000 		.word	.L5+1
 280 01d0 DD010000 		.word	.L5+1
 281 01d4 DD010000 		.word	.L5+1
 282 01d8 DD010000 		.word	.L5+1
 283              		.p2align 1
 284              	.L5:
 285              	.LVL24:
ARM GAS  C:\Users\CHRIST~1\AppData\Local\Temp\ccTNSWKS.s 			page 6


 286              		.loc 1 1519 0
 287 01dc 154B     		ldr	r3, .L19+64
 288 01de 1E68     		ldr	r6, [r3]
 289 01e0 0C4B     		ldr	r3, .L19+32
 290 01e2 1B68     		ldr	r3, [r3]
 291 01e4 F61A     		subs	r6, r6, r3
 292              	.LVL25:
 293              		.loc 1 1518 0
 294 01e6 4FF4FA69 		mov	r9, #2000
 295 01ea 2AE7     		b	.L6
 296              	.LVL26:
 297              	.L14:
 298              		.loc 1 1505 0
 299 01ec 4FF00009 		mov	r9, #0
 300 01f0 22E7     		b	.L2
 301              	.L20:
 302 01f2 00BF     		.align	2
 303              	.L19:
 304 01f4 00000000 		.word	ch
 305 01f8 00000000 		.word	.LC0
 306 01fc 00000000 		.word	.LANCHOR0
 307 0200 500AA53D 		.word	1034226256
 308 0204 00008039 		.word	964689920
 309 0208 33335340 		.word	1079194419
 310 020c 74D19541 		.word	1100337524
 311 0210 A48BC642 		.word	1120308132
 312 0214 00000000 		.word	.LANCHOR2
 313 0218 F8100000 		.word	.LANCHOR5
 314 021c F0210000 		.word	.LANCHOR6
 315 0220 E8320000 		.word	.LANCHOR7
 316 0224 E0430000 		.word	.LANCHOR8
 317 0228 D8540000 		.word	.LANCHOR9
 318 022c D0650000 		.word	.LANCHOR10
 319 0230 C8760000 		.word	.LANCHOR11
 320 0234 00000000 		.word	.LANCHOR3
 321 0238 00000000 		.word	.LANCHOR1
 322 023c 00000000 		.word	.LANCHOR4
 323              	.LBE88:
 324              		.cfi_endproc
 325              	.LFE311:
 326              		.size	sample_send_thread, .-sample_send_thread
 327              		.section	.text.mc_interface_init,"ax",%progbits
 328              		.align	1
 329              		.p2align 4,,15
 330              		.global	mc_interface_init
 331              		.syntax unified
 332              		.thumb
 333              		.thumb_func
 334              		.fpu fpv4-sp-d16
 335              		.type	mc_interface_init, %function
 336              	mc_interface_init:
 337              	.LFB256:
 338              		.loc 1 98 0
 339              		.cfi_startproc
 340              		@ args = 0, pretend = 0, frame = 0
 341              		@ frame_needed = 0, uses_anonymous_args = 0
 342              	.LVL27:
ARM GAS  C:\Users\CHRIST~1\AppData\Local\Temp\ccTNSWKS.s 			page 7


 343 0000 30B5     		push	{r4, r5, lr}
 344              		.cfi_def_cfa_offset 12
 345              		.cfi_offset 4, -12
 346              		.cfi_offset 5, -8
 347              		.cfi_offset 14, -4
 348 0002 83B0     		sub	sp, sp, #12
 349              		.cfi_def_cfa_offset 24
 350              		.loc 1 99 0
 351 0004 394D     		ldr	r5, .L29
 352 0006 4FF4BA72 		mov	r2, #372
 353 000a 0146     		mov	r1, r0
 354 000c 2846     		mov	r0, r5
 355              	.LVL28:
 356 000e FFF7FEFF 		bl	memcpy
 357              	.LVL29:
 358              		.loc 1 100 0
 359 0012 0024     		movs	r4, #0
 360 0014 364B     		ldr	r3, .L29+4
 361 0016 1C70     		strb	r4, [r3]
 362              		.loc 1 101 0
 363 0018 364B     		ldr	r3, .L29+8
 364 001a 1C60     		str	r4, [r3]
 365              		.loc 1 102 0
 366 001c 364B     		ldr	r3, .L29+12
 367 001e 1C60     		str	r4, [r3]
 368              		.loc 1 103 0
 369 0020 364B     		ldr	r3, .L29+16
 370 0022 1C70     		strb	r4, [r3]
 371              		.loc 1 104 0
 372 0024 364B     		ldr	r3, .L29+20
 373 0026 1C70     		strb	r4, [r3]
 374              		.loc 1 105 0
 375 0028 0023     		movs	r3, #0
 376 002a 364A     		ldr	r2, .L29+24
 377 002c 1360     		str	r3, [r2]	@ float
 378              		.loc 1 106 0
 379 002e 364A     		ldr	r2, .L29+28
 380 0030 1360     		str	r3, [r2]	@ float
 381              		.loc 1 107 0
 382 0032 364A     		ldr	r2, .L29+32
 383 0034 1360     		str	r3, [r2]	@ float
 384              		.loc 1 108 0
 385 0036 364A     		ldr	r2, .L29+36
 386 0038 1360     		str	r3, [r2]	@ float
 387              		.loc 1 109 0
 388 003a 364A     		ldr	r2, .L29+40
 389 003c 1360     		str	r3, [r2]	@ float
 390              		.loc 1 110 0
 391 003e 364A     		ldr	r2, .L29+44
 392 0040 1360     		str	r3, [r2]	@ float
 393              		.loc 1 111 0
 394 0042 364A     		ldr	r2, .L29+48
 395 0044 1360     		str	r3, [r2]	@ float
 396              		.loc 1 112 0
 397 0046 364A     		ldr	r2, .L29+52
 398 0048 1360     		str	r3, [r2]	@ float
 399              		.loc 1 113 0
ARM GAS  C:\Users\CHRIST~1\AppData\Local\Temp\ccTNSWKS.s 			page 8


 400 004a 364A     		ldr	r2, .L29+56
 401 004c 1360     		str	r3, [r2]	@ float
 402              		.loc 1 114 0
 403 004e 364A     		ldr	r2, .L29+60
 404 0050 1360     		str	r3, [r2]	@ float
 405              		.loc 1 115 0
 406 0052 364A     		ldr	r2, .L29+64
 407 0054 1360     		str	r3, [r2]	@ float
 408              		.loc 1 116 0
 409 0056 364A     		ldr	r2, .L29+68
 410 0058 1360     		str	r3, [r2]	@ float
 411              		.loc 1 117 0
 412 005a 364A     		ldr	r2, .L29+72
 413 005c 1360     		str	r3, [r2]	@ float
 414              		.loc 1 118 0
 415 005e 364A     		ldr	r2, .L29+76
 416 0060 1360     		str	r3, [r2]	@ float
 417              		.loc 1 119 0
 418 0062 364A     		ldr	r2, .L29+80
 419 0064 1360     		str	r3, [r2]	@ float
 420              		.loc 1 120 0
 421 0066 364A     		ldr	r2, .L29+84
 422 0068 1360     		str	r3, [r2]	@ float
 423              		.loc 1 122 0
 424 006a 364B     		ldr	r3, .L29+88
 425 006c 4FF47A72 		mov	r2, #1000
 426 0070 1A60     		str	r2, [r3]
 427              		.loc 1 123 0
 428 0072 354B     		ldr	r3, .L29+92
 429 0074 0122     		movs	r2, #1
 430 0076 1A60     		str	r2, [r3]
 431              		.loc 1 124 0
 432 0078 344B     		ldr	r3, .L29+96
 433 007a 1C60     		str	r4, [r3]
 434              		.loc 1 125 0
 435 007c 344B     		ldr	r3, .L29+100
 436 007e 1C60     		str	r4, [r3]
 437              		.loc 1 126 0
 438 0080 344B     		ldr	r3, .L29+104
 439 0082 1C70     		strb	r4, [r3]
 440              		.loc 1 127 0
 441 0084 344B     		ldr	r3, .L29+108
 442 0086 1C70     		strb	r4, [r3]
 443              		.loc 1 130 0
 444 0088 0094     		str	r4, [sp]
 445 008a 344B     		ldr	r3, .L29+112
 446 008c 4022     		movs	r2, #64
 447 008e 4FF4B361 		mov	r1, #1432
 448 0092 3348     		ldr	r0, .L29+116
 449 0094 FFF7FEFF 		bl	chThdCreateStatic
 450              	.LVL30:
 451              		.loc 1 131 0
 452 0098 0094     		str	r4, [sp]
 453 009a 324B     		ldr	r3, .L29+120
 454 009c 3F22     		movs	r2, #63
 455 009e 4FF4B361 		mov	r1, #1432
 456 00a2 3148     		ldr	r0, .L29+124
ARM GAS  C:\Users\CHRIST~1\AppData\Local\Temp\ccTNSWKS.s 			page 9


 457 00a4 FFF7FEFF 		bl	chThdCreateStatic
 458              	.LVL31:
 459              		.loc 1 140 0
 460 00a8 95F85C31 		ldrb	r3, [r5, #348]	@ zero_extendqisi2
 461 00ac DBB2     		uxtb	r3, r3
 462 00ae 012B     		cmp	r3, #1
 463 00b0 0AD0     		beq	.L23
 464 00b2 022B     		cmp	r3, #2
 465 00b4 0ED0     		beq	.L24
 466              	.L22:
 467              		.loc 1 155 0
 468 00b6 0D4B     		ldr	r3, .L29
 469 00b8 9B78     		ldrb	r3, [r3, #2]	@ zero_extendqisi2
 470 00ba DBB2     		uxtb	r3, r3
 471 00bc 012B     		cmp	r3, #1
 472 00be 0CD9     		bls	.L26
 473 00c0 022B     		cmp	r3, #2
 474 00c2 0ED0     		beq	.L27
 475              	.L21:
 476              		.loc 1 168 0
 477 00c4 03B0     		add	sp, sp, #12
 478              		.cfi_remember_state
 479              		.cfi_def_cfa_offset 12
 480              		@ sp needed
 481 00c6 30BD     		pop	{r4, r5, pc}
 482              	.L23:
 483              		.cfi_restore_state
 484              		.loc 1 142 0
 485 00c8 084B     		ldr	r3, .L29
 486 00ca D3F85801 		ldr	r0, [r3, #344]
 487 00ce FFF7FEFF 		bl	encoder_init_abi
 488              	.LVL32:
 489              		.loc 1 143 0
 490 00d2 F0E7     		b	.L22
 491              	.L24:
 492              		.loc 1 146 0
 493 00d4 FFF7FEFF 		bl	encoder_init_as5047p_spi
 494              	.LVL33:
 495              		.loc 1 147 0
 496 00d8 EDE7     		b	.L22
 497              	.L26:
 498              		.loc 1 158 0
 499 00da 0448     		ldr	r0, .L29
 500 00dc FFF7FEFF 		bl	mcpwm_init
 501              	.LVL34:
 502              		.loc 1 159 0
 503 00e0 F0E7     		b	.L21
 504              	.L27:
 505              		.loc 1 162 0
 506 00e2 0248     		ldr	r0, .L29
 507 00e4 FFF7FEFF 		bl	mcpwm_foc_init
 508              	.LVL35:
 509              		.loc 1 168 0
 510 00e8 ECE7     		b	.L21
 511              	.L30:
 512 00ea 00BF     		.align	2
 513              	.L29:
ARM GAS  C:\Users\CHRIST~1\AppData\Local\Temp\ccTNSWKS.s 			page 10


 514 00ec 00000000 		.word	.LANCHOR12
 515 00f0 00000000 		.word	.LANCHOR13
 516 00f4 00000000 		.word	.LANCHOR14
 517 00f8 00000000 		.word	.LANCHOR15
 518 00fc 00000000 		.word	.LANCHOR16
 519 0100 00000000 		.word	.LANCHOR17
 520 0104 00000000 		.word	.LANCHOR18
 521 0108 00000000 		.word	.LANCHOR19
 522 010c 00000000 		.word	.LANCHOR20
 523 0110 00000000 		.word	.LANCHOR21
 524 0114 00000000 		.word	.LANCHOR22
 525 0118 00000000 		.word	.LANCHOR23
 526 011c 00000000 		.word	.LANCHOR24
 527 0120 00000000 		.word	.LANCHOR25
 528 0124 00000000 		.word	.LANCHOR26
 529 0128 00000000 		.word	.LANCHOR27
 530 012c 00000000 		.word	.LANCHOR28
 531 0130 00000000 		.word	.LANCHOR29
 532 0134 00000000 		.word	.LANCHOR30
 533 0138 00000000 		.word	.LANCHOR31
 534 013c 00000000 		.word	.LANCHOR32
 535 0140 00000000 		.word	.LANCHOR33
 536 0144 00000000 		.word	.LANCHOR2
 537 0148 00000000 		.word	.LANCHOR34
 538 014c 00000000 		.word	.LANCHOR35
 539 0150 00000000 		.word	.LANCHOR3
 540 0154 00000000 		.word	.LANCHOR36
 541 0158 00000000 		.word	.LANCHOR1
 542 015c 00000000 		.word	timer_thread
 543 0160 00000000 		.word	.LANCHOR37
 544 0164 00000000 		.word	sample_send_thread
 545 0168 00000000 		.word	.LANCHOR38
 546              		.cfi_endproc
 547              	.LFE256:
 548              		.size	mc_interface_init, .-mc_interface_init
 549              		.section	.text.mc_interface_get_configuration,"ax",%progbits
 550              		.align	1
 551              		.p2align 4,,15
 552              		.global	mc_interface_get_configuration
 553              		.syntax unified
 554              		.thumb
 555              		.thumb_func
 556              		.fpu fpv4-sp-d16
 557              		.type	mc_interface_get_configuration, %function
 558              	mc_interface_get_configuration:
 559              	.LFB257:
 560              		.loc 1 170 0
 561              		.cfi_startproc
 562              		@ args = 0, pretend = 0, frame = 0
 563              		@ frame_needed = 0, uses_anonymous_args = 0
 564              		@ link register save eliminated.
 565              		.loc 1 172 0
 566 0000 0048     		ldr	r0, .L32
 567 0002 7047     		bx	lr
 568              	.L33:
 569              		.align	2
 570              	.L32:
ARM GAS  C:\Users\CHRIST~1\AppData\Local\Temp\ccTNSWKS.s 			page 11


 571 0004 00000000 		.word	.LANCHOR12
 572              		.cfi_endproc
 573              	.LFE257:
 574              		.size	mc_interface_get_configuration, .-mc_interface_get_configuration
 575              		.section	.text.mc_interface_dccal_done,"ax",%progbits
 576              		.align	1
 577              		.p2align 4,,15
 578              		.global	mc_interface_dccal_done
 579              		.syntax unified
 580              		.thumb
 581              		.thumb_func
 582              		.fpu fpv4-sp-d16
 583              		.type	mc_interface_dccal_done, %function
 584              	mc_interface_dccal_done:
 585              	.LFB259:
 586              		.loc 1 233 0
 587              		.cfi_startproc
 588              		@ args = 0, pretend = 0, frame = 0
 589              		@ frame_needed = 0, uses_anonymous_args = 0
 590 0000 08B5     		push	{r3, lr}
 591              		.cfi_def_cfa_offset 8
 592              		.cfi_offset 3, -8
 593              		.cfi_offset 14, -4
 594              	.LVL36:
 595              		.loc 1 235 0
 596 0002 074B     		ldr	r3, .L41
 597 0004 9B78     		ldrb	r3, [r3, #2]	@ zero_extendqisi2
 598 0006 DBB2     		uxtb	r3, r3
 599 0008 012B     		cmp	r3, #1
 600 000a 03D9     		bls	.L36
 601 000c 022B     		cmp	r3, #2
 602 000e 04D0     		beq	.L37
 603              		.loc 1 234 0
 604 0010 0020     		movs	r0, #0
 605 0012 01E0     		b	.L35
 606              	.L36:
 607              		.loc 1 238 0
 608 0014 FFF7FEFF 		bl	mcpwm_is_dccal_done
 609              	.LVL37:
 610              	.L35:
 611              		.loc 1 250 0
 612 0018 08BD     		pop	{r3, pc}
 613              	.LVL38:
 614              	.L37:
 615              		.loc 1 242 0
 616 001a FFF7FEFF 		bl	mcpwm_foc_is_dccal_done
 617              	.LVL39:
 618              		.loc 1 243 0
 619 001e FBE7     		b	.L35
 620              	.L42:
 621              		.align	2
 622              	.L41:
 623 0020 00000000 		.word	.LANCHOR12
 624              		.cfi_endproc
 625              	.LFE259:
 626              		.size	mc_interface_dccal_done, .-mc_interface_dccal_done
 627              		.section	.text.mc_interface_set_pwm_callback,"ax",%progbits
ARM GAS  C:\Users\CHRIST~1\AppData\Local\Temp\ccTNSWKS.s 			page 12


 628              		.align	1
 629              		.p2align 4,,15
 630              		.global	mc_interface_set_pwm_callback
 631              		.syntax unified
 632              		.thumb
 633              		.thumb_func
 634              		.fpu fpv4-sp-d16
 635              		.type	mc_interface_set_pwm_callback, %function
 636              	mc_interface_set_pwm_callback:
 637              	.LFB260:
 638              		.loc 1 258 0
 639              		.cfi_startproc
 640              		@ args = 0, pretend = 0, frame = 0
 641              		@ frame_needed = 0, uses_anonymous_args = 0
 642              		@ link register save eliminated.
 643              	.LVL40:
 644              		.loc 1 259 0
 645 0000 014B     		ldr	r3, .L44
 646 0002 1860     		str	r0, [r3]
 647              		.loc 1 260 0
 648 0004 7047     		bx	lr
 649              	.L45:
 650 0006 00BF     		.align	2
 651              	.L44:
 652 0008 00000000 		.word	.LANCHOR39
 653              		.cfi_endproc
 654              	.LFE260:
 655              		.size	mc_interface_set_pwm_callback, .-mc_interface_set_pwm_callback
 656              		.section	.text.mc_interface_lock,"ax",%progbits
 657              		.align	1
 658              		.p2align 4,,15
 659              		.global	mc_interface_lock
 660              		.syntax unified
 661              		.thumb
 662              		.thumb_func
 663              		.fpu fpv4-sp-d16
 664              		.type	mc_interface_lock, %function
 665              	mc_interface_lock:
 666              	.LFB261:
 667              		.loc 1 265 0
 668              		.cfi_startproc
 669              		@ args = 0, pretend = 0, frame = 0
 670              		@ frame_needed = 0, uses_anonymous_args = 0
 671              		@ link register save eliminated.
 672              		.loc 1 266 0
 673 0000 014B     		ldr	r3, .L47
 674 0002 0122     		movs	r2, #1
 675 0004 1A70     		strb	r2, [r3]
 676              		.loc 1 267 0
 677 0006 7047     		bx	lr
 678              	.L48:
 679              		.align	2
 680              	.L47:
 681 0008 00000000 		.word	.LANCHOR16
 682              		.cfi_endproc
 683              	.LFE261:
 684              		.size	mc_interface_lock, .-mc_interface_lock
ARM GAS  C:\Users\CHRIST~1\AppData\Local\Temp\ccTNSWKS.s 			page 13


 685              		.section	.text.mc_interface_unlock,"ax",%progbits
 686              		.align	1
 687              		.p2align 4,,15
 688              		.global	mc_interface_unlock
 689              		.syntax unified
 690              		.thumb
 691              		.thumb_func
 692              		.fpu fpv4-sp-d16
 693              		.type	mc_interface_unlock, %function
 694              	mc_interface_unlock:
 695              	.LFB262:
 696              		.loc 1 272 0
 697              		.cfi_startproc
 698              		@ args = 0, pretend = 0, frame = 0
 699              		@ frame_needed = 0, uses_anonymous_args = 0
 700              		@ link register save eliminated.
 701              		.loc 1 273 0
 702 0000 014B     		ldr	r3, .L50
 703 0002 0022     		movs	r2, #0
 704 0004 1A70     		strb	r2, [r3]
 705              		.loc 1 274 0
 706 0006 7047     		bx	lr
 707              	.L51:
 708              		.align	2
 709              	.L50:
 710 0008 00000000 		.word	.LANCHOR16
 711              		.cfi_endproc
 712              	.LFE262:
 713              		.size	mc_interface_unlock, .-mc_interface_unlock
 714              		.section	.text.mc_interface_lock_override_once,"ax",%progbits
 715              		.align	1
 716              		.p2align 4,,15
 717              		.global	mc_interface_lock_override_once
 718              		.syntax unified
 719              		.thumb
 720              		.thumb_func
 721              		.fpu fpv4-sp-d16
 722              		.type	mc_interface_lock_override_once, %function
 723              	mc_interface_lock_override_once:
 724              	.LFB263:
 725              		.loc 1 279 0
 726              		.cfi_startproc
 727              		@ args = 0, pretend = 0, frame = 0
 728              		@ frame_needed = 0, uses_anonymous_args = 0
 729              		@ link register save eliminated.
 730              		.loc 1 280 0
 731 0000 014B     		ldr	r3, .L53
 732 0002 0122     		movs	r2, #1
 733 0004 1A70     		strb	r2, [r3]
 734              		.loc 1 281 0
 735 0006 7047     		bx	lr
 736              	.L54:
 737              		.align	2
 738              	.L53:
 739 0008 00000000 		.word	.LANCHOR17
 740              		.cfi_endproc
 741              	.LFE263:
ARM GAS  C:\Users\CHRIST~1\AppData\Local\Temp\ccTNSWKS.s 			page 14


 742              		.size	mc_interface_lock_override_once, .-mc_interface_lock_override_once
 743              		.section	.text.mc_interface_get_fault,"ax",%progbits
 744              		.align	1
 745              		.p2align 4,,15
 746              		.global	mc_interface_get_fault
 747              		.syntax unified
 748              		.thumb
 749              		.thumb_func
 750              		.fpu fpv4-sp-d16
 751              		.type	mc_interface_get_fault, %function
 752              	mc_interface_get_fault:
 753              	.LFB264:
 754              		.loc 1 283 0
 755              		.cfi_startproc
 756              		@ args = 0, pretend = 0, frame = 0
 757              		@ frame_needed = 0, uses_anonymous_args = 0
 758              		@ link register save eliminated.
 759              		.loc 1 285 0
 760 0000 014B     		ldr	r3, .L56
 761 0002 1878     		ldrb	r0, [r3]	@ zero_extendqisi2
 762 0004 7047     		bx	lr
 763              	.L57:
 764 0006 00BF     		.align	2
 765              	.L56:
 766 0008 00000000 		.word	.LANCHOR13
 767              		.cfi_endproc
 768              	.LFE264:
 769              		.size	mc_interface_get_fault, .-mc_interface_get_fault
 770              		.section	.text.mc_interface_fault_to_string,"ax",%progbits
 771              		.align	1
 772              		.p2align 4,,15
 773              		.global	mc_interface_fault_to_string
 774              		.syntax unified
 775              		.thumb
 776              		.thumb_func
 777              		.fpu fpv4-sp-d16
 778              		.type	mc_interface_fault_to_string, %function
 779              	mc_interface_fault_to_string:
 780              	.LFB265:
 781              		.loc 1 287 0
 782              		.cfi_startproc
 783              		@ args = 0, pretend = 0, frame = 0
 784              		@ frame_needed = 0, uses_anonymous_args = 0
 785              		@ link register save eliminated.
 786              	.LVL41:
 787              		.loc 1 288 0
 788 0000 0628     		cmp	r0, #6
 789 0002 11D8     		bhi	.L59
 790 0004 DFE800F0 		tbb	[pc, r0]
 791              	.L61:
 792 0008 12       		.byte	(.L68-.L61)/2
 793 0009 04       		.byte	(.L62-.L61)/2
 794 000a 06       		.byte	(.L63-.L61)/2
 795 000b 08       		.byte	(.L64-.L61)/2
 796 000c 0A       		.byte	(.L65-.L61)/2
 797 000d 0C       		.byte	(.L66-.L61)/2
 798 000e 0E       		.byte	(.L67-.L61)/2
ARM GAS  C:\Users\CHRIST~1\AppData\Local\Temp\ccTNSWKS.s 			page 15


 799 000f 00       		.p2align 1
 800              	.L62:
 801              		.loc 1 290 0
 802 0010 0748     		ldr	r0, .L69
 803              	.LVL42:
 804 0012 7047     		bx	lr
 805              	.LVL43:
 806              	.L63:
 807              		.loc 1 291 0
 808 0014 0748     		ldr	r0, .L69+4
 809              	.LVL44:
 810 0016 7047     		bx	lr
 811              	.LVL45:
 812              	.L64:
 813              		.loc 1 292 0
 814 0018 0748     		ldr	r0, .L69+8
 815              	.LVL46:
 816 001a 7047     		bx	lr
 817              	.LVL47:
 818              	.L65:
 819              		.loc 1 293 0
 820 001c 0748     		ldr	r0, .L69+12
 821              	.LVL48:
 822 001e 7047     		bx	lr
 823              	.LVL49:
 824              	.L66:
 825              		.loc 1 294 0
 826 0020 0748     		ldr	r0, .L69+16
 827              	.LVL50:
 828 0022 7047     		bx	lr
 829              	.LVL51:
 830              	.L67:
 831              		.loc 1 295 0
 832 0024 0748     		ldr	r0, .L69+20
 833              	.LVL52:
 834 0026 7047     		bx	lr
 835              	.LVL53:
 836              	.L59:
 837              		.loc 1 296 0
 838 0028 0748     		ldr	r0, .L69+24
 839              	.LVL54:
 840 002a 7047     		bx	lr
 841              	.LVL55:
 842              	.L68:
 843              		.loc 1 289 0
 844 002c 0748     		ldr	r0, .L69+28
 845              	.LVL56:
 846              		.loc 1 298 0
 847 002e 7047     		bx	lr
 848              	.L70:
 849              		.align	2
 850              	.L69:
 851 0030 10000000 		.word	.LC2
 852 0034 28000000 		.word	.LC3
 853 0038 44000000 		.word	.LC4
 854 003c 54000000 		.word	.LC5
 855 0040 70000000 		.word	.LC6
ARM GAS  C:\Users\CHRIST~1\AppData\Local\Temp\ccTNSWKS.s 			page 16


 856 0044 8C000000 		.word	.LC7
 857 0048 A8000000 		.word	.LC8
 858 004c 00000000 		.word	.LC1
 859              		.cfi_endproc
 860              	.LFE265:
 861              		.size	mc_interface_fault_to_string, .-mc_interface_fault_to_string
 862              		.section	.text.mc_interface_get_state,"ax",%progbits
 863              		.align	1
 864              		.p2align 4,,15
 865              		.global	mc_interface_get_state
 866              		.syntax unified
 867              		.thumb
 868              		.thumb_func
 869              		.fpu fpv4-sp-d16
 870              		.type	mc_interface_get_state, %function
 871              	mc_interface_get_state:
 872              	.LFB266:
 873              		.loc 1 300 0
 874              		.cfi_startproc
 875              		@ args = 0, pretend = 0, frame = 0
 876              		@ frame_needed = 0, uses_anonymous_args = 0
 877 0000 08B5     		push	{r3, lr}
 878              		.cfi_def_cfa_offset 8
 879              		.cfi_offset 3, -8
 880              		.cfi_offset 14, -4
 881              	.LVL57:
 882              		.loc 1 302 0
 883 0002 074B     		ldr	r3, .L78
 884 0004 9B78     		ldrb	r3, [r3, #2]	@ zero_extendqisi2
 885 0006 DBB2     		uxtb	r3, r3
 886 0008 012B     		cmp	r3, #1
 887 000a 03D9     		bls	.L73
 888 000c 022B     		cmp	r3, #2
 889 000e 04D0     		beq	.L74
 890              		.loc 1 301 0
 891 0010 0020     		movs	r0, #0
 892 0012 01E0     		b	.L72
 893              	.L73:
 894              		.loc 1 305 0
 895 0014 FFF7FEFF 		bl	mcpwm_get_state
 896              	.LVL58:
 897              	.L72:
 898              		.loc 1 317 0
 899 0018 08BD     		pop	{r3, pc}
 900              	.LVL59:
 901              	.L74:
 902              		.loc 1 309 0
 903 001a FFF7FEFF 		bl	mcpwm_foc_get_state
 904              	.LVL60:
 905              		.loc 1 310 0
 906 001e FBE7     		b	.L72
 907              	.L79:
 908              		.align	2
 909              	.L78:
 910 0020 00000000 		.word	.LANCHOR12
 911              		.cfi_endproc
 912              	.LFE266:
ARM GAS  C:\Users\CHRIST~1\AppData\Local\Temp\ccTNSWKS.s 			page 17


 913              		.size	mc_interface_get_state, .-mc_interface_get_state
 914              		.section	.text.mc_interface_get_duty_cycle_set,"ax",%progbits
 915              		.align	1
 916              		.p2align 4,,15
 917              		.global	mc_interface_get_duty_cycle_set
 918              		.syntax unified
 919              		.thumb
 920              		.thumb_func
 921              		.fpu fpv4-sp-d16
 922              		.type	mc_interface_get_duty_cycle_set, %function
 923              	mc_interface_get_duty_cycle_set:
 924              	.LFB278:
 925              		.loc 1 500 0
 926              		.cfi_startproc
 927              		@ args = 0, pretend = 0, frame = 0
 928              		@ frame_needed = 0, uses_anonymous_args = 0
 929 0000 08B5     		push	{r3, lr}
 930              		.cfi_def_cfa_offset 8
 931              		.cfi_offset 3, -8
 932              		.cfi_offset 14, -4
 933              	.LVL61:
 934              		.loc 1 503 0
 935 0002 0F4B     		ldr	r3, .L89
 936 0004 9B78     		ldrb	r3, [r3, #2]	@ zero_extendqisi2
 937 0006 DBB2     		uxtb	r3, r3
 938 0008 012B     		cmp	r3, #1
 939 000a 04D9     		bls	.L82
 940 000c 022B     		cmp	r3, #2
 941 000e 13D0     		beq	.L83
 942              		.loc 1 501 0
 943 0010 9FED0C0A 		vldr.32	s0, .L89+4
 944 0014 01E0     		b	.L81
 945              	.L82:
 946              		.loc 1 506 0
 947 0016 FFF7FEFF 		bl	mcpwm_get_duty_cycle_set
 948              	.LVL62:
 949              	.L81:
 950              		.loc 1 517 0
 951 001a 094B     		ldr	r3, .L89
 952 001c 93F85D31 		ldrb	r3, [r3, #349]	@ zero_extendqisi2
 953 0020 DBB2     		uxtb	r3, r3
 954 0022 002B     		cmp	r3, #0
 955 0024 FFEE007A 		vmov.f32	s15, #-1.0e+0
 956 0028 B7EE007A 		vmov.f32	s14, #1.0e+0
 957 002c 08BF     		it	eq
 958 002e F0EE477A 		vmoveq.f32	s15, s14
 959              		.loc 1 518 0
 960 0032 20EE270A 		vmul.f32	s0, s0, s15
 961              	.LVL63:
 962 0036 08BD     		pop	{r3, pc}
 963              	.LVL64:
 964              	.L83:
 965              		.loc 1 510 0
 966 0038 FFF7FEFF 		bl	mcpwm_foc_get_duty_cycle_set
 967              	.LVL65:
 968              		.loc 1 511 0
 969 003c EDE7     		b	.L81
ARM GAS  C:\Users\CHRIST~1\AppData\Local\Temp\ccTNSWKS.s 			page 18


 970              	.L90:
 971 003e 00BF     		.align	2
 972              	.L89:
 973 0040 00000000 		.word	.LANCHOR12
 974 0044 00000000 		.word	0
 975              		.cfi_endproc
 976              	.LFE278:
 977              		.size	mc_interface_get_duty_cycle_set, .-mc_interface_get_duty_cycle_set
 978              		.section	.text.mc_interface_get_duty_cycle_now,"ax",%progbits
 979              		.align	1
 980              		.p2align 4,,15
 981              		.global	mc_interface_get_duty_cycle_now
 982              		.syntax unified
 983              		.thumb
 984              		.thumb_func
 985              		.fpu fpv4-sp-d16
 986              		.type	mc_interface_get_duty_cycle_now, %function
 987              	mc_interface_get_duty_cycle_now:
 988              	.LFB279:
 989              		.loc 1 520 0
 990              		.cfi_startproc
 991              		@ args = 0, pretend = 0, frame = 0
 992              		@ frame_needed = 0, uses_anonymous_args = 0
 993 0000 08B5     		push	{r3, lr}
 994              		.cfi_def_cfa_offset 8
 995              		.cfi_offset 3, -8
 996              		.cfi_offset 14, -4
 997              	.LVL66:
 998              		.loc 1 523 0
 999 0002 0F4B     		ldr	r3, .L100
 1000 0004 9B78     		ldrb	r3, [r3, #2]	@ zero_extendqisi2
 1001 0006 DBB2     		uxtb	r3, r3
 1002 0008 012B     		cmp	r3, #1
 1003 000a 04D9     		bls	.L93
 1004 000c 022B     		cmp	r3, #2
 1005 000e 13D0     		beq	.L94
 1006              		.loc 1 521 0
 1007 0010 9FED0C0A 		vldr.32	s0, .L100+4
 1008 0014 01E0     		b	.L92
 1009              	.L93:
 1010              		.loc 1 526 0
 1011 0016 FFF7FEFF 		bl	mcpwm_get_duty_cycle_now
 1012              	.LVL67:
 1013              	.L92:
 1014              		.loc 1 537 0
 1015 001a 094B     		ldr	r3, .L100
 1016 001c 93F85D31 		ldrb	r3, [r3, #349]	@ zero_extendqisi2
 1017 0020 DBB2     		uxtb	r3, r3
 1018 0022 002B     		cmp	r3, #0
 1019 0024 FFEE007A 		vmov.f32	s15, #-1.0e+0
 1020 0028 B7EE007A 		vmov.f32	s14, #1.0e+0
 1021 002c 08BF     		it	eq
 1022 002e F0EE477A 		vmoveq.f32	s15, s14
 1023              		.loc 1 538 0
 1024 0032 20EE270A 		vmul.f32	s0, s0, s15
 1025              	.LVL68:
 1026 0036 08BD     		pop	{r3, pc}
ARM GAS  C:\Users\CHRIST~1\AppData\Local\Temp\ccTNSWKS.s 			page 19


 1027              	.LVL69:
 1028              	.L94:
 1029              		.loc 1 530 0
 1030 0038 FFF7FEFF 		bl	mcpwm_foc_get_duty_cycle_now
 1031              	.LVL70:
 1032              		.loc 1 531 0
 1033 003c EDE7     		b	.L92
 1034              	.L101:
 1035 003e 00BF     		.align	2
 1036              	.L100:
 1037 0040 00000000 		.word	.LANCHOR12
 1038 0044 00000000 		.word	0
 1039              		.cfi_endproc
 1040              	.LFE279:
 1041              		.size	mc_interface_get_duty_cycle_now, .-mc_interface_get_duty_cycle_now
 1042              		.section	.text.mc_interface_get_sampling_frequency_now,"ax",%progbits
 1043              		.align	1
 1044              		.p2align 4,,15
 1045              		.global	mc_interface_get_sampling_frequency_now
 1046              		.syntax unified
 1047              		.thumb
 1048              		.thumb_func
 1049              		.fpu fpv4-sp-d16
 1050              		.type	mc_interface_get_sampling_frequency_now, %function
 1051              	mc_interface_get_sampling_frequency_now:
 1052              	.LFB280:
 1053              		.loc 1 540 0
 1054              		.cfi_startproc
 1055              		@ args = 0, pretend = 0, frame = 0
 1056              		@ frame_needed = 0, uses_anonymous_args = 0
 1057 0000 08B5     		push	{r3, lr}
 1058              		.cfi_def_cfa_offset 8
 1059              		.cfi_offset 3, -8
 1060              		.cfi_offset 14, -4
 1061              	.LVL71:
 1062              		.loc 1 543 0
 1063 0002 084B     		ldr	r3, .L109
 1064 0004 9B78     		ldrb	r3, [r3, #2]	@ zero_extendqisi2
 1065 0006 DBB2     		uxtb	r3, r3
 1066 0008 012B     		cmp	r3, #1
 1067 000a 04D9     		bls	.L104
 1068 000c 022B     		cmp	r3, #2
 1069 000e 05D0     		beq	.L105
 1070              		.loc 1 541 0
 1071 0010 9FED050A 		vldr.32	s0, .L109+4
 1072              		.loc 1 557 0
 1073 0014 01E0     		b	.L102
 1074              	.L104:
 1075              		.loc 1 546 0
 1076 0016 FFF7FEFF 		bl	mcpwm_get_switching_frequency_now
 1077              	.LVL72:
 1078              	.L102:
 1079              		.loc 1 558 0
 1080 001a 08BD     		pop	{r3, pc}
 1081              	.LVL73:
 1082              	.L105:
 1083              		.loc 1 550 0
ARM GAS  C:\Users\CHRIST~1\AppData\Local\Temp\ccTNSWKS.s 			page 20


 1084 001c FFF7FEFF 		bl	mcpwm_foc_get_sampling_frequency_now
 1085              	.LVL74:
 1086              		.loc 1 551 0
 1087 0020 FBE7     		b	.L102
 1088              	.L110:
 1089 0022 00BF     		.align	2
 1090              	.L109:
 1091 0024 00000000 		.word	.LANCHOR12
 1092 0028 00000000 		.word	0
 1093              		.cfi_endproc
 1094              	.LFE280:
 1095              		.size	mc_interface_get_sampling_frequency_now, .-mc_interface_get_sampling_frequency_now
 1096              		.section	.text.mc_interface_get_rpm,"ax",%progbits
 1097              		.align	1
 1098              		.p2align 4,,15
 1099              		.global	mc_interface_get_rpm
 1100              		.syntax unified
 1101              		.thumb
 1102              		.thumb_func
 1103              		.fpu fpv4-sp-d16
 1104              		.type	mc_interface_get_rpm, %function
 1105              	mc_interface_get_rpm:
 1106              	.LFB281:
 1107              		.loc 1 560 0
 1108              		.cfi_startproc
 1109              		@ args = 0, pretend = 0, frame = 0
 1110              		@ frame_needed = 0, uses_anonymous_args = 0
 1111 0000 08B5     		push	{r3, lr}
 1112              		.cfi_def_cfa_offset 8
 1113              		.cfi_offset 3, -8
 1114              		.cfi_offset 14, -4
 1115              	.LVL75:
 1116              		.loc 1 563 0
 1117 0002 0F4B     		ldr	r3, .L120
 1118 0004 9B78     		ldrb	r3, [r3, #2]	@ zero_extendqisi2
 1119 0006 DBB2     		uxtb	r3, r3
 1120 0008 012B     		cmp	r3, #1
 1121 000a 04D9     		bls	.L113
 1122 000c 022B     		cmp	r3, #2
 1123 000e 13D0     		beq	.L114
 1124              		.loc 1 561 0
 1125 0010 9FED0C0A 		vldr.32	s0, .L120+4
 1126 0014 01E0     		b	.L112
 1127              	.L113:
 1128              		.loc 1 566 0
 1129 0016 FFF7FEFF 		bl	mcpwm_get_rpm
 1130              	.LVL76:
 1131              	.L112:
 1132              		.loc 1 577 0
 1133 001a 094B     		ldr	r3, .L120
 1134 001c 93F85D31 		ldrb	r3, [r3, #349]	@ zero_extendqisi2
 1135 0020 DBB2     		uxtb	r3, r3
 1136 0022 002B     		cmp	r3, #0
 1137 0024 FFEE007A 		vmov.f32	s15, #-1.0e+0
 1138 0028 B7EE007A 		vmov.f32	s14, #1.0e+0
 1139 002c 08BF     		it	eq
 1140 002e F0EE477A 		vmoveq.f32	s15, s14
ARM GAS  C:\Users\CHRIST~1\AppData\Local\Temp\ccTNSWKS.s 			page 21


 1141              		.loc 1 578 0
 1142 0032 20EE270A 		vmul.f32	s0, s0, s15
 1143              	.LVL77:
 1144 0036 08BD     		pop	{r3, pc}
 1145              	.LVL78:
 1146              	.L114:
 1147              		.loc 1 570 0
 1148 0038 FFF7FEFF 		bl	mcpwm_foc_get_rpm
 1149              	.LVL79:
 1150              		.loc 1 571 0
 1151 003c EDE7     		b	.L112
 1152              	.L121:
 1153 003e 00BF     		.align	2
 1154              	.L120:
 1155 0040 00000000 		.word	.LANCHOR12
 1156 0044 00000000 		.word	0
 1157              		.cfi_endproc
 1158              	.LFE281:
 1159              		.size	mc_interface_get_rpm, .-mc_interface_get_rpm
 1160              		.section	.text.mc_interface_get_amp_hours,"ax",%progbits
 1161              		.align	1
 1162              		.p2align 4,,15
 1163              		.global	mc_interface_get_amp_hours
 1164              		.syntax unified
 1165              		.thumb
 1166              		.thumb_func
 1167              		.fpu fpv4-sp-d16
 1168              		.type	mc_interface_get_amp_hours, %function
 1169              	mc_interface_get_amp_hours:
 1170              	.LFB282:
 1171              		.loc 1 589 0
 1172              		.cfi_startproc
 1173              		@ args = 0, pretend = 0, frame = 0
 1174              		@ frame_needed = 0, uses_anonymous_args = 0
 1175              		@ link register save eliminated.
 1176              	.LVL80:
 1177              		.loc 1 590 0
 1178 0000 054B     		ldr	r3, .L124
 1179 0002 93ED007A 		vldr.32	s14, [r3]
 1180 0006 DFED057A 		vldr.32	s15, .L124+4
 1181 000a 87EE270A 		vdiv.f32	s0, s14, s15
 1182              	.LVL81:
 1183              		.loc 1 592 0
 1184 000e 08B1     		cbz	r0, .L122
 1185              		.loc 1 593 0
 1186 0010 0022     		movs	r2, #0
 1187 0012 1A60     		str	r2, [r3]	@ float
 1188              	.L122:
 1189              		.loc 1 597 0
 1190 0014 7047     		bx	lr
 1191              	.L125:
 1192 0016 00BF     		.align	2
 1193              	.L124:
 1194 0018 00000000 		.word	.LANCHOR26
 1195 001c 00006145 		.word	1163984896
 1196              		.cfi_endproc
 1197              	.LFE282:
ARM GAS  C:\Users\CHRIST~1\AppData\Local\Temp\ccTNSWKS.s 			page 22


 1198              		.size	mc_interface_get_amp_hours, .-mc_interface_get_amp_hours
 1199              		.section	.text.mc_interface_get_amp_hours_charged,"ax",%progbits
 1200              		.align	1
 1201              		.p2align 4,,15
 1202              		.global	mc_interface_get_amp_hours_charged
 1203              		.syntax unified
 1204              		.thumb
 1205              		.thumb_func
 1206              		.fpu fpv4-sp-d16
 1207              		.type	mc_interface_get_amp_hours_charged, %function
 1208              	mc_interface_get_amp_hours_charged:
 1209              	.LFB283:
 1210              		.loc 1 608 0
 1211              		.cfi_startproc
 1212              		@ args = 0, pretend = 0, frame = 0
 1213              		@ frame_needed = 0, uses_anonymous_args = 0
 1214              		@ link register save eliminated.
 1215              	.LVL82:
 1216              		.loc 1 609 0
 1217 0000 054B     		ldr	r3, .L128
 1218 0002 93ED007A 		vldr.32	s14, [r3]
 1219 0006 DFED057A 		vldr.32	s15, .L128+4
 1220 000a 87EE270A 		vdiv.f32	s0, s14, s15
 1221              	.LVL83:
 1222              		.loc 1 611 0
 1223 000e 08B1     		cbz	r0, .L126
 1224              		.loc 1 612 0
 1225 0010 0022     		movs	r2, #0
 1226 0012 1A60     		str	r2, [r3]	@ float
 1227              	.L126:
 1228              		.loc 1 616 0
 1229 0014 7047     		bx	lr
 1230              	.L129:
 1231 0016 00BF     		.align	2
 1232              	.L128:
 1233 0018 00000000 		.word	.LANCHOR27
 1234 001c 00006145 		.word	1163984896
 1235              		.cfi_endproc
 1236              	.LFE283:
 1237              		.size	mc_interface_get_amp_hours_charged, .-mc_interface_get_amp_hours_charged
 1238              		.section	.text.mc_interface_get_watt_hours,"ax",%progbits
 1239              		.align	1
 1240              		.p2align 4,,15
 1241              		.global	mc_interface_get_watt_hours
 1242              		.syntax unified
 1243              		.thumb
 1244              		.thumb_func
 1245              		.fpu fpv4-sp-d16
 1246              		.type	mc_interface_get_watt_hours, %function
 1247              	mc_interface_get_watt_hours:
 1248              	.LFB284:
 1249              		.loc 1 627 0
 1250              		.cfi_startproc
 1251              		@ args = 0, pretend = 0, frame = 0
 1252              		@ frame_needed = 0, uses_anonymous_args = 0
 1253              		@ link register save eliminated.
 1254              	.LVL84:
ARM GAS  C:\Users\CHRIST~1\AppData\Local\Temp\ccTNSWKS.s 			page 23


 1255              		.loc 1 628 0
 1256 0000 054B     		ldr	r3, .L132
 1257 0002 93ED007A 		vldr.32	s14, [r3]
 1258 0006 DFED057A 		vldr.32	s15, .L132+4
 1259 000a 87EE270A 		vdiv.f32	s0, s14, s15
 1260              	.LVL85:
 1261              		.loc 1 630 0
 1262 000e 08B1     		cbz	r0, .L130
 1263              		.loc 1 631 0
 1264 0010 0022     		movs	r2, #0
 1265 0012 1A60     		str	r2, [r3]	@ float
 1266              	.L130:
 1267              		.loc 1 635 0
 1268 0014 7047     		bx	lr
 1269              	.L133:
 1270 0016 00BF     		.align	2
 1271              	.L132:
 1272 0018 00000000 		.word	.LANCHOR28
 1273 001c 00006145 		.word	1163984896
 1274              		.cfi_endproc
 1275              	.LFE284:
 1276              		.size	mc_interface_get_watt_hours, .-mc_interface_get_watt_hours
 1277              		.section	.text.mc_interface_get_watt_hours_charged,"ax",%progbits
 1278              		.align	1
 1279              		.p2align 4,,15
 1280              		.global	mc_interface_get_watt_hours_charged
 1281              		.syntax unified
 1282              		.thumb
 1283              		.thumb_func
 1284              		.fpu fpv4-sp-d16
 1285              		.type	mc_interface_get_watt_hours_charged, %function
 1286              	mc_interface_get_watt_hours_charged:
 1287              	.LFB285:
 1288              		.loc 1 646 0
 1289              		.cfi_startproc
 1290              		@ args = 0, pretend = 0, frame = 0
 1291              		@ frame_needed = 0, uses_anonymous_args = 0
 1292              		@ link register save eliminated.
 1293              	.LVL86:
 1294              		.loc 1 647 0
 1295 0000 054B     		ldr	r3, .L136
 1296 0002 93ED007A 		vldr.32	s14, [r3]
 1297 0006 DFED057A 		vldr.32	s15, .L136+4
 1298 000a 87EE270A 		vdiv.f32	s0, s14, s15
 1299              	.LVL87:
 1300              		.loc 1 649 0
 1301 000e 08B1     		cbz	r0, .L134
 1302              		.loc 1 650 0
 1303 0010 0022     		movs	r2, #0
 1304 0012 1A60     		str	r2, [r3]	@ float
 1305              	.L134:
 1306              		.loc 1 654 0
 1307 0014 7047     		bx	lr
 1308              	.L137:
 1309 0016 00BF     		.align	2
 1310              	.L136:
 1311 0018 00000000 		.word	.LANCHOR29
ARM GAS  C:\Users\CHRIST~1\AppData\Local\Temp\ccTNSWKS.s 			page 24


 1312 001c 00006145 		.word	1163984896
 1313              		.cfi_endproc
 1314              	.LFE285:
 1315              		.size	mc_interface_get_watt_hours_charged, .-mc_interface_get_watt_hours_charged
 1316              		.section	.text.mc_interface_get_tot_current,"ax",%progbits
 1317              		.align	1
 1318              		.p2align 4,,15
 1319              		.global	mc_interface_get_tot_current
 1320              		.syntax unified
 1321              		.thumb
 1322              		.thumb_func
 1323              		.fpu fpv4-sp-d16
 1324              		.type	mc_interface_get_tot_current, %function
 1325              	mc_interface_get_tot_current:
 1326              	.LFB286:
 1327              		.loc 1 656 0
 1328              		.cfi_startproc
 1329              		@ args = 0, pretend = 0, frame = 0
 1330              		@ frame_needed = 0, uses_anonymous_args = 0
 1331 0000 08B5     		push	{r3, lr}
 1332              		.cfi_def_cfa_offset 8
 1333              		.cfi_offset 3, -8
 1334              		.cfi_offset 14, -4
 1335              	.LVL88:
 1336              		.loc 1 659 0
 1337 0002 084B     		ldr	r3, .L145
 1338 0004 9B78     		ldrb	r3, [r3, #2]	@ zero_extendqisi2
 1339 0006 DBB2     		uxtb	r3, r3
 1340 0008 012B     		cmp	r3, #1
 1341 000a 04D9     		bls	.L140
 1342 000c 022B     		cmp	r3, #2
 1343 000e 05D0     		beq	.L141
 1344              		.loc 1 657 0
 1345 0010 9FED050A 		vldr.32	s0, .L145+4
 1346              		.loc 1 673 0
 1347 0014 01E0     		b	.L138
 1348              	.L140:
 1349              		.loc 1 662 0
 1350 0016 FFF7FEFF 		bl	mcpwm_get_tot_current
 1351              	.LVL89:
 1352              	.L138:
 1353              		.loc 1 674 0
 1354 001a 08BD     		pop	{r3, pc}
 1355              	.LVL90:
 1356              	.L141:
 1357              		.loc 1 666 0
 1358 001c FFF7FEFF 		bl	mcpwm_foc_get_tot_current
 1359              	.LVL91:
 1360              		.loc 1 667 0
 1361 0020 FBE7     		b	.L138
 1362              	.L146:
 1363 0022 00BF     		.align	2
 1364              	.L145:
 1365 0024 00000000 		.word	.LANCHOR12
 1366 0028 00000000 		.word	0
 1367              		.cfi_endproc
 1368              	.LFE286:
ARM GAS  C:\Users\CHRIST~1\AppData\Local\Temp\ccTNSWKS.s 			page 25


 1369              		.size	mc_interface_get_tot_current, .-mc_interface_get_tot_current
 1370              		.section	.text.mc_interface_get_tot_current_filtered,"ax",%progbits
 1371              		.align	1
 1372              		.p2align 4,,15
 1373              		.global	mc_interface_get_tot_current_filtered
 1374              		.syntax unified
 1375              		.thumb
 1376              		.thumb_func
 1377              		.fpu fpv4-sp-d16
 1378              		.type	mc_interface_get_tot_current_filtered, %function
 1379              	mc_interface_get_tot_current_filtered:
 1380              	.LFB287:
 1381              		.loc 1 676 0
 1382              		.cfi_startproc
 1383              		@ args = 0, pretend = 0, frame = 0
 1384              		@ frame_needed = 0, uses_anonymous_args = 0
 1385 0000 08B5     		push	{r3, lr}
 1386              		.cfi_def_cfa_offset 8
 1387              		.cfi_offset 3, -8
 1388              		.cfi_offset 14, -4
 1389              	.LVL92:
 1390              		.loc 1 679 0
 1391 0002 084B     		ldr	r3, .L154
 1392 0004 9B78     		ldrb	r3, [r3, #2]	@ zero_extendqisi2
 1393 0006 DBB2     		uxtb	r3, r3
 1394 0008 012B     		cmp	r3, #1
 1395 000a 04D9     		bls	.L149
 1396 000c 022B     		cmp	r3, #2
 1397 000e 05D0     		beq	.L150
 1398              		.loc 1 677 0
 1399 0010 9FED050A 		vldr.32	s0, .L154+4
 1400              		.loc 1 693 0
 1401 0014 01E0     		b	.L147
 1402              	.L149:
 1403              		.loc 1 682 0
 1404 0016 FFF7FEFF 		bl	mcpwm_get_tot_current_filtered
 1405              	.LVL93:
 1406              	.L147:
 1407              		.loc 1 694 0
 1408 001a 08BD     		pop	{r3, pc}
 1409              	.LVL94:
 1410              	.L150:
 1411              		.loc 1 686 0
 1412 001c FFF7FEFF 		bl	mcpwm_foc_get_tot_current_filtered
 1413              	.LVL95:
 1414              		.loc 1 687 0
 1415 0020 FBE7     		b	.L147
 1416              	.L155:
 1417 0022 00BF     		.align	2
 1418              	.L154:
 1419 0024 00000000 		.word	.LANCHOR12
 1420 0028 00000000 		.word	0
 1421              		.cfi_endproc
 1422              	.LFE287:
 1423              		.size	mc_interface_get_tot_current_filtered, .-mc_interface_get_tot_current_filtered
 1424              		.section	.text.mc_interface_get_tot_current_directional,"ax",%progbits
 1425              		.align	1
ARM GAS  C:\Users\CHRIST~1\AppData\Local\Temp\ccTNSWKS.s 			page 26


 1426              		.p2align 4,,15
 1427              		.global	mc_interface_get_tot_current_directional
 1428              		.syntax unified
 1429              		.thumb
 1430              		.thumb_func
 1431              		.fpu fpv4-sp-d16
 1432              		.type	mc_interface_get_tot_current_directional, %function
 1433              	mc_interface_get_tot_current_directional:
 1434              	.LFB288:
 1435              		.loc 1 696 0
 1436              		.cfi_startproc
 1437              		@ args = 0, pretend = 0, frame = 0
 1438              		@ frame_needed = 0, uses_anonymous_args = 0
 1439 0000 08B5     		push	{r3, lr}
 1440              		.cfi_def_cfa_offset 8
 1441              		.cfi_offset 3, -8
 1442              		.cfi_offset 14, -4
 1443              	.LVL96:
 1444              		.loc 1 699 0
 1445 0002 0F4B     		ldr	r3, .L165
 1446 0004 9B78     		ldrb	r3, [r3, #2]	@ zero_extendqisi2
 1447 0006 DBB2     		uxtb	r3, r3
 1448 0008 012B     		cmp	r3, #1
 1449 000a 04D9     		bls	.L158
 1450 000c 022B     		cmp	r3, #2
 1451 000e 13D0     		beq	.L159
 1452              		.loc 1 697 0
 1453 0010 9FED0C0A 		vldr.32	s0, .L165+4
 1454 0014 01E0     		b	.L157
 1455              	.L158:
 1456              		.loc 1 702 0
 1457 0016 FFF7FEFF 		bl	mcpwm_get_tot_current_directional
 1458              	.LVL97:
 1459              	.L157:
 1460              		.loc 1 713 0
 1461 001a 094B     		ldr	r3, .L165
 1462 001c 93F85D31 		ldrb	r3, [r3, #349]	@ zero_extendqisi2
 1463 0020 DBB2     		uxtb	r3, r3
 1464 0022 002B     		cmp	r3, #0
 1465 0024 FFEE007A 		vmov.f32	s15, #-1.0e+0
 1466 0028 B7EE007A 		vmov.f32	s14, #1.0e+0
 1467 002c 08BF     		it	eq
 1468 002e F0EE477A 		vmoveq.f32	s15, s14
 1469              		.loc 1 714 0
 1470 0032 20EE270A 		vmul.f32	s0, s0, s15
 1471              	.LVL98:
 1472 0036 08BD     		pop	{r3, pc}
 1473              	.LVL99:
 1474              	.L159:
 1475              		.loc 1 706 0
 1476 0038 FFF7FEFF 		bl	mcpwm_foc_get_tot_current_directional
 1477              	.LVL100:
 1478              		.loc 1 707 0
 1479 003c EDE7     		b	.L157
 1480              	.L166:
 1481 003e 00BF     		.align	2
 1482              	.L165:
ARM GAS  C:\Users\CHRIST~1\AppData\Local\Temp\ccTNSWKS.s 			page 27


 1483 0040 00000000 		.word	.LANCHOR12
 1484 0044 00000000 		.word	0
 1485              		.cfi_endproc
 1486              	.LFE288:
 1487              		.size	mc_interface_get_tot_current_directional, .-mc_interface_get_tot_current_directional
 1488              		.section	.text.mc_interface_get_tot_current_directional_filtered,"ax",%progbits
 1489              		.align	1
 1490              		.p2align 4,,15
 1491              		.global	mc_interface_get_tot_current_directional_filtered
 1492              		.syntax unified
 1493              		.thumb
 1494              		.thumb_func
 1495              		.fpu fpv4-sp-d16
 1496              		.type	mc_interface_get_tot_current_directional_filtered, %function
 1497              	mc_interface_get_tot_current_directional_filtered:
 1498              	.LFB289:
 1499              		.loc 1 716 0
 1500              		.cfi_startproc
 1501              		@ args = 0, pretend = 0, frame = 0
 1502              		@ frame_needed = 0, uses_anonymous_args = 0
 1503 0000 08B5     		push	{r3, lr}
 1504              		.cfi_def_cfa_offset 8
 1505              		.cfi_offset 3, -8
 1506              		.cfi_offset 14, -4
 1507              	.LVL101:
 1508              		.loc 1 719 0
 1509 0002 0F4B     		ldr	r3, .L176
 1510 0004 9B78     		ldrb	r3, [r3, #2]	@ zero_extendqisi2
 1511 0006 DBB2     		uxtb	r3, r3
 1512 0008 012B     		cmp	r3, #1
 1513 000a 04D9     		bls	.L169
 1514 000c 022B     		cmp	r3, #2
 1515 000e 13D0     		beq	.L170
 1516              		.loc 1 717 0
 1517 0010 9FED0C0A 		vldr.32	s0, .L176+4
 1518 0014 01E0     		b	.L168
 1519              	.L169:
 1520              		.loc 1 722 0
 1521 0016 FFF7FEFF 		bl	mcpwm_get_tot_current_directional_filtered
 1522              	.LVL102:
 1523              	.L168:
 1524              		.loc 1 733 0
 1525 001a 094B     		ldr	r3, .L176
 1526 001c 93F85D31 		ldrb	r3, [r3, #349]	@ zero_extendqisi2
 1527 0020 DBB2     		uxtb	r3, r3
 1528 0022 002B     		cmp	r3, #0
 1529 0024 FFEE007A 		vmov.f32	s15, #-1.0e+0
 1530 0028 B7EE007A 		vmov.f32	s14, #1.0e+0
 1531 002c 08BF     		it	eq
 1532 002e F0EE477A 		vmoveq.f32	s15, s14
 1533              		.loc 1 734 0
 1534 0032 20EE270A 		vmul.f32	s0, s0, s15
 1535              	.LVL103:
 1536 0036 08BD     		pop	{r3, pc}
 1537              	.LVL104:
 1538              	.L170:
 1539              		.loc 1 726 0
ARM GAS  C:\Users\CHRIST~1\AppData\Local\Temp\ccTNSWKS.s 			page 28


 1540 0038 FFF7FEFF 		bl	mcpwm_foc_get_tot_current_directional_filtered
 1541              	.LVL105:
 1542              		.loc 1 727 0
 1543 003c EDE7     		b	.L168
 1544              	.L177:
 1545 003e 00BF     		.align	2
 1546              	.L176:
 1547 0040 00000000 		.word	.LANCHOR12
 1548 0044 00000000 		.word	0
 1549              		.cfi_endproc
 1550              	.LFE289:
 1551              		.size	mc_interface_get_tot_current_directional_filtered, .-mc_interface_get_tot_current_directiona
 1552              		.section	.text.mc_interface_get_tot_current_in,"ax",%progbits
 1553              		.align	1
 1554              		.p2align 4,,15
 1555              		.global	mc_interface_get_tot_current_in
 1556              		.syntax unified
 1557              		.thumb
 1558              		.thumb_func
 1559              		.fpu fpv4-sp-d16
 1560              		.type	mc_interface_get_tot_current_in, %function
 1561              	mc_interface_get_tot_current_in:
 1562              	.LFB290:
 1563              		.loc 1 736 0
 1564              		.cfi_startproc
 1565              		@ args = 0, pretend = 0, frame = 0
 1566              		@ frame_needed = 0, uses_anonymous_args = 0
 1567 0000 08B5     		push	{r3, lr}
 1568              		.cfi_def_cfa_offset 8
 1569              		.cfi_offset 3, -8
 1570              		.cfi_offset 14, -4
 1571              	.LVL106:
 1572              		.loc 1 739 0
 1573 0002 084B     		ldr	r3, .L185
 1574 0004 9B78     		ldrb	r3, [r3, #2]	@ zero_extendqisi2
 1575 0006 DBB2     		uxtb	r3, r3
 1576 0008 012B     		cmp	r3, #1
 1577 000a 04D9     		bls	.L180
 1578 000c 022B     		cmp	r3, #2
 1579 000e 05D0     		beq	.L181
 1580              		.loc 1 737 0
 1581 0010 9FED050A 		vldr.32	s0, .L185+4
 1582              		.loc 1 753 0
 1583 0014 01E0     		b	.L178
 1584              	.L180:
 1585              		.loc 1 742 0
 1586 0016 FFF7FEFF 		bl	mcpwm_get_tot_current_in
 1587              	.LVL107:
 1588              	.L178:
 1589              		.loc 1 754 0
 1590 001a 08BD     		pop	{r3, pc}
 1591              	.LVL108:
 1592              	.L181:
 1593              		.loc 1 746 0
 1594 001c FFF7FEFF 		bl	mcpwm_foc_get_tot_current_in
 1595              	.LVL109:
 1596              		.loc 1 747 0
ARM GAS  C:\Users\CHRIST~1\AppData\Local\Temp\ccTNSWKS.s 			page 29


 1597 0020 FBE7     		b	.L178
 1598              	.L186:
 1599 0022 00BF     		.align	2
 1600              	.L185:
 1601 0024 00000000 		.word	.LANCHOR12
 1602 0028 00000000 		.word	0
 1603              		.cfi_endproc
 1604              	.LFE290:
 1605              		.size	mc_interface_get_tot_current_in, .-mc_interface_get_tot_current_in
 1606              		.section	.text.mc_interface_get_tot_current_in_filtered,"ax",%progbits
 1607              		.align	1
 1608              		.p2align 4,,15
 1609              		.global	mc_interface_get_tot_current_in_filtered
 1610              		.syntax unified
 1611              		.thumb
 1612              		.thumb_func
 1613              		.fpu fpv4-sp-d16
 1614              		.type	mc_interface_get_tot_current_in_filtered, %function
 1615              	mc_interface_get_tot_current_in_filtered:
 1616              	.LFB291:
 1617              		.loc 1 756 0
 1618              		.cfi_startproc
 1619              		@ args = 0, pretend = 0, frame = 0
 1620              		@ frame_needed = 0, uses_anonymous_args = 0
 1621 0000 08B5     		push	{r3, lr}
 1622              		.cfi_def_cfa_offset 8
 1623              		.cfi_offset 3, -8
 1624              		.cfi_offset 14, -4
 1625              	.LVL110:
 1626              		.loc 1 759 0
 1627 0002 084B     		ldr	r3, .L194
 1628 0004 9B78     		ldrb	r3, [r3, #2]	@ zero_extendqisi2
 1629 0006 DBB2     		uxtb	r3, r3
 1630 0008 012B     		cmp	r3, #1
 1631 000a 04D9     		bls	.L189
 1632 000c 022B     		cmp	r3, #2
 1633 000e 05D0     		beq	.L190
 1634              		.loc 1 757 0
 1635 0010 9FED050A 		vldr.32	s0, .L194+4
 1636              		.loc 1 773 0
 1637 0014 01E0     		b	.L187
 1638              	.L189:
 1639              		.loc 1 762 0
 1640 0016 FFF7FEFF 		bl	mcpwm_get_tot_current_in_filtered
 1641              	.LVL111:
 1642              	.L187:
 1643              		.loc 1 774 0
 1644 001a 08BD     		pop	{r3, pc}
 1645              	.LVL112:
 1646              	.L190:
 1647              		.loc 1 766 0
 1648 001c FFF7FEFF 		bl	mcpwm_foc_get_tot_current_in_filtered
 1649              	.LVL113:
 1650              		.loc 1 767 0
 1651 0020 FBE7     		b	.L187
 1652              	.L195:
 1653 0022 00BF     		.align	2
ARM GAS  C:\Users\CHRIST~1\AppData\Local\Temp\ccTNSWKS.s 			page 30


 1654              	.L194:
 1655 0024 00000000 		.word	.LANCHOR12
 1656 0028 00000000 		.word	0
 1657              		.cfi_endproc
 1658              	.LFE291:
 1659              		.size	mc_interface_get_tot_current_in_filtered, .-mc_interface_get_tot_current_in_filtered
 1660              		.section	.text.mc_interface_get_tachometer_value,"ax",%progbits
 1661              		.align	1
 1662              		.p2align 4,,15
 1663              		.global	mc_interface_get_tachometer_value
 1664              		.syntax unified
 1665              		.thumb
 1666              		.thumb_func
 1667              		.fpu fpv4-sp-d16
 1668              		.type	mc_interface_get_tachometer_value, %function
 1669              	mc_interface_get_tachometer_value:
 1670              	.LFB292:
 1671              		.loc 1 776 0
 1672              		.cfi_startproc
 1673              		@ args = 0, pretend = 0, frame = 0
 1674              		@ frame_needed = 0, uses_anonymous_args = 0
 1675              	.LVL114:
 1676 0000 08B5     		push	{r3, lr}
 1677              		.cfi_def_cfa_offset 8
 1678              		.cfi_offset 3, -8
 1679              		.cfi_offset 14, -4
 1680              	.LVL115:
 1681              		.loc 1 779 0
 1682 0002 144B     		ldr	r3, .L205
 1683 0004 9B78     		ldrb	r3, [r3, #2]	@ zero_extendqisi2
 1684 0006 DBB2     		uxtb	r3, r3
 1685 0008 012B     		cmp	r3, #1
 1686 000a 04D9     		bls	.L198
 1687 000c 022B     		cmp	r3, #2
 1688 000e 1BD0     		beq	.L199
 1689              		.loc 1 777 0
 1690 0010 DFED117A 		vldr.32	s15, .L205+4	@ int
 1691 0014 03E0     		b	.L197
 1692              	.L198:
 1693              		.loc 1 782 0
 1694 0016 FFF7FEFF 		bl	mcpwm_get_tachometer_value
 1695              	.LVL116:
 1696 001a 07EE900A 		vmov	s15, r0	@ int
 1697              	.LVL117:
 1698              	.L197:
 1699              		.loc 1 793 0
 1700 001e 0D4B     		ldr	r3, .L205
 1701 0020 93F85D31 		ldrb	r3, [r3, #349]	@ zero_extendqisi2
 1702 0024 DBB2     		uxtb	r3, r3
 1703 0026 002B     		cmp	r3, #0
 1704 0028 BFEE007A 		vmov.f32	s14, #-1.0e+0
 1705 002c F7EE006A 		vmov.f32	s13, #1.0e+0
 1706 0030 08BF     		it	eq
 1707 0032 B0EE667A 		vmoveq.f32	s14, s13
 1708 0036 F8EEE77A 		vcvt.f32.s32	s15, s15
 1709              	.LVL118:
 1710 003a 67EE877A 		vmul.f32	s15, s15, s14
ARM GAS  C:\Users\CHRIST~1\AppData\Local\Temp\ccTNSWKS.s 			page 31


 1711              		.loc 1 794 0
 1712 003e FDEEE77A 		vcvt.s32.f32	s15, s15
 1713 0042 17EE900A 		vmov	r0, s15	@ int
 1714 0046 08BD     		pop	{r3, pc}
 1715              	.LVL119:
 1716              	.L199:
 1717              		.loc 1 786 0
 1718 0048 FFF7FEFF 		bl	mcpwm_foc_get_tachometer_value
 1719              	.LVL120:
 1720 004c 07EE900A 		vmov	s15, r0	@ int
 1721              	.LVL121:
 1722              		.loc 1 787 0
 1723 0050 E5E7     		b	.L197
 1724              	.L206:
 1725 0052 00BF     		.align	2
 1726              	.L205:
 1727 0054 00000000 		.word	.LANCHOR12
 1728 0058 00000000 		.word	0
 1729              		.cfi_endproc
 1730              	.LFE292:
 1731              		.size	mc_interface_get_tachometer_value, .-mc_interface_get_tachometer_value
 1732              		.section	.text.mc_interface_get_tachometer_abs_value,"ax",%progbits
 1733              		.align	1
 1734              		.p2align 4,,15
 1735              		.global	mc_interface_get_tachometer_abs_value
 1736              		.syntax unified
 1737              		.thumb
 1738              		.thumb_func
 1739              		.fpu fpv4-sp-d16
 1740              		.type	mc_interface_get_tachometer_abs_value, %function
 1741              	mc_interface_get_tachometer_abs_value:
 1742              	.LFB293:
 1743              		.loc 1 796 0
 1744              		.cfi_startproc
 1745              		@ args = 0, pretend = 0, frame = 0
 1746              		@ frame_needed = 0, uses_anonymous_args = 0
 1747              	.LVL122:
 1748 0000 08B5     		push	{r3, lr}
 1749              		.cfi_def_cfa_offset 8
 1750              		.cfi_offset 3, -8
 1751              		.cfi_offset 14, -4
 1752              	.LVL123:
 1753              		.loc 1 799 0
 1754 0002 074B     		ldr	r3, .L214
 1755 0004 9B78     		ldrb	r3, [r3, #2]	@ zero_extendqisi2
 1756 0006 DBB2     		uxtb	r3, r3
 1757 0008 012B     		cmp	r3, #1
 1758 000a 03D9     		bls	.L209
 1759 000c 022B     		cmp	r3, #2
 1760 000e 04D0     		beq	.L210
 1761              		.loc 1 797 0
 1762 0010 0020     		movs	r0, #0
 1763              	.LVL124:
 1764              		.loc 1 813 0
 1765 0012 01E0     		b	.L207
 1766              	.LVL125:
 1767              	.L209:
ARM GAS  C:\Users\CHRIST~1\AppData\Local\Temp\ccTNSWKS.s 			page 32


 1768              		.loc 1 802 0
 1769 0014 FFF7FEFF 		bl	mcpwm_get_tachometer_abs_value
 1770              	.LVL126:
 1771              	.L207:
 1772              		.loc 1 814 0
 1773 0018 08BD     		pop	{r3, pc}
 1774              	.LVL127:
 1775              	.L210:
 1776              		.loc 1 806 0
 1777 001a FFF7FEFF 		bl	mcpwm_foc_get_tachometer_abs_value
 1778              	.LVL128:
 1779              		.loc 1 807 0
 1780 001e FBE7     		b	.L207
 1781              	.L215:
 1782              		.align	2
 1783              	.L214:
 1784 0020 00000000 		.word	.LANCHOR12
 1785              		.cfi_endproc
 1786              	.LFE293:
 1787              		.size	mc_interface_get_tachometer_abs_value, .-mc_interface_get_tachometer_abs_value
 1788              		.section	.text.mc_interface_get_last_inj_adc_isr_duration,"ax",%progbits
 1789              		.align	1
 1790              		.p2align 4,,15
 1791              		.global	mc_interface_get_last_inj_adc_isr_duration
 1792              		.syntax unified
 1793              		.thumb
 1794              		.thumb_func
 1795              		.fpu fpv4-sp-d16
 1796              		.type	mc_interface_get_last_inj_adc_isr_duration, %function
 1797              	mc_interface_get_last_inj_adc_isr_duration:
 1798              	.LFB294:
 1799              		.loc 1 816 0
 1800              		.cfi_startproc
 1801              		@ args = 0, pretend = 0, frame = 0
 1802              		@ frame_needed = 0, uses_anonymous_args = 0
 1803 0000 08B5     		push	{r3, lr}
 1804              		.cfi_def_cfa_offset 8
 1805              		.cfi_offset 3, -8
 1806              		.cfi_offset 14, -4
 1807              	.LVL129:
 1808              		.loc 1 819 0
 1809 0002 084B     		ldr	r3, .L223
 1810 0004 9B78     		ldrb	r3, [r3, #2]	@ zero_extendqisi2
 1811 0006 DBB2     		uxtb	r3, r3
 1812 0008 012B     		cmp	r3, #1
 1813 000a 04D9     		bls	.L218
 1814 000c 022B     		cmp	r3, #2
 1815 000e 05D0     		beq	.L219
 1816              		.loc 1 817 0
 1817 0010 9FED050A 		vldr.32	s0, .L223+4
 1818              		.loc 1 833 0
 1819 0014 01E0     		b	.L216
 1820              	.L218:
 1821              		.loc 1 822 0
 1822 0016 FFF7FEFF 		bl	mcpwm_get_last_inj_adc_isr_duration
 1823              	.LVL130:
 1824              	.L216:
ARM GAS  C:\Users\CHRIST~1\AppData\Local\Temp\ccTNSWKS.s 			page 33


 1825              		.loc 1 834 0
 1826 001a 08BD     		pop	{r3, pc}
 1827              	.LVL131:
 1828              	.L219:
 1829              		.loc 1 826 0
 1830 001c FFF7FEFF 		bl	mcpwm_foc_get_last_inj_adc_isr_duration
 1831              	.LVL132:
 1832              		.loc 1 827 0
 1833 0020 FBE7     		b	.L216
 1834              	.L224:
 1835 0022 00BF     		.align	2
 1836              	.L223:
 1837 0024 00000000 		.word	.LANCHOR12
 1838 0028 00000000 		.word	0
 1839              		.cfi_endproc
 1840              	.LFE294:
 1841              		.size	mc_interface_get_last_inj_adc_isr_duration, .-mc_interface_get_last_inj_adc_isr_duration
 1842              		.section	.text.mc_interface_read_reset_avg_motor_current,"ax",%progbits
 1843              		.align	1
 1844              		.p2align 4,,15
 1845              		.global	mc_interface_read_reset_avg_motor_current
 1846              		.syntax unified
 1847              		.thumb
 1848              		.thumb_func
 1849              		.fpu fpv4-sp-d16
 1850              		.type	mc_interface_read_reset_avg_motor_current, %function
 1851              	mc_interface_read_reset_avg_motor_current:
 1852              	.LFB295:
 1853              		.loc 1 836 0
 1854              		.cfi_startproc
 1855              		@ args = 0, pretend = 0, frame = 0
 1856              		@ frame_needed = 0, uses_anonymous_args = 0
 1857              		@ link register save eliminated.
 1858              		.loc 1 837 0
 1859 0000 0549     		ldr	r1, .L226
 1860 0002 91ED000A 		vldr.32	s0, [r1]
 1861 0006 054B     		ldr	r3, .L226+4
 1862 0008 D3ED007A 		vldr.32	s15, [r3]
 1863              	.LVL133:
 1864              		.loc 1 838 0
 1865 000c 0022     		movs	r2, #0
 1866 000e 0A60     		str	r2, [r1]	@ float
 1867              		.loc 1 839 0
 1868 0010 1A60     		str	r2, [r3]	@ float
 1869              		.loc 1 841 0
 1870 0012 80EE270A 		vdiv.f32	s0, s0, s15
 1871              	.LVL134:
 1872 0016 7047     		bx	lr
 1873              	.L227:
 1874              		.align	2
 1875              	.L226:
 1876 0018 00000000 		.word	.LANCHOR18
 1877 001c 00000000 		.word	.LANCHOR20
 1878              		.cfi_endproc
 1879              	.LFE295:
 1880              		.size	mc_interface_read_reset_avg_motor_current, .-mc_interface_read_reset_avg_motor_current
 1881              		.section	.text.mc_interface_read_reset_avg_input_current,"ax",%progbits
ARM GAS  C:\Users\CHRIST~1\AppData\Local\Temp\ccTNSWKS.s 			page 34


 1882              		.align	1
 1883              		.p2align 4,,15
 1884              		.global	mc_interface_read_reset_avg_input_current
 1885              		.syntax unified
 1886              		.thumb
 1887              		.thumb_func
 1888              		.fpu fpv4-sp-d16
 1889              		.type	mc_interface_read_reset_avg_input_current, %function
 1890              	mc_interface_read_reset_avg_input_current:
 1891              	.LFB296:
 1892              		.loc 1 843 0
 1893              		.cfi_startproc
 1894              		@ args = 0, pretend = 0, frame = 0
 1895              		@ frame_needed = 0, uses_anonymous_args = 0
 1896              		@ link register save eliminated.
 1897              		.loc 1 844 0
 1898 0000 0549     		ldr	r1, .L229
 1899 0002 91ED000A 		vldr.32	s0, [r1]
 1900 0006 054B     		ldr	r3, .L229+4
 1901 0008 D3ED007A 		vldr.32	s15, [r3]
 1902              	.LVL135:
 1903              		.loc 1 845 0
 1904 000c 0022     		movs	r2, #0
 1905 000e 0A60     		str	r2, [r1]	@ float
 1906              		.loc 1 846 0
 1907 0010 1A60     		str	r2, [r3]	@ float
 1908              		.loc 1 848 0
 1909 0012 80EE270A 		vdiv.f32	s0, s0, s15
 1910              	.LVL136:
 1911 0016 7047     		bx	lr
 1912              	.L230:
 1913              		.align	2
 1914              	.L229:
 1915 0018 00000000 		.word	.LANCHOR19
 1916 001c 00000000 		.word	.LANCHOR21
 1917              		.cfi_endproc
 1918              	.LFE296:
 1919              		.size	mc_interface_read_reset_avg_input_current, .-mc_interface_read_reset_avg_input_current
 1920              		.section	.text.mc_interface_read_reset_avg_id,"ax",%progbits
 1921              		.align	1
 1922              		.p2align 4,,15
 1923              		.global	mc_interface_read_reset_avg_id
 1924              		.syntax unified
 1925              		.thumb
 1926              		.thumb_func
 1927              		.fpu fpv4-sp-d16
 1928              		.type	mc_interface_read_reset_avg_id, %function
 1929              	mc_interface_read_reset_avg_id:
 1930              	.LFB297:
 1931              		.loc 1 856 0
 1932              		.cfi_startproc
 1933              		@ args = 0, pretend = 0, frame = 0
 1934              		@ frame_needed = 0, uses_anonymous_args = 0
 1935              		@ link register save eliminated.
 1936              		.loc 1 857 0
 1937 0000 0C49     		ldr	r1, .L234
 1938 0002 91ED007A 		vldr.32	s14, [r1]
ARM GAS  C:\Users\CHRIST~1\AppData\Local\Temp\ccTNSWKS.s 			page 35


 1939 0006 0C4B     		ldr	r3, .L234+4
 1940 0008 D3ED007A 		vldr.32	s15, [r3]
 1941 000c 87EE270A 		vdiv.f32	s0, s14, s15
 1942              	.LVL137:
 1943              		.loc 1 858 0
 1944 0010 0022     		movs	r2, #0
 1945 0012 0A60     		str	r2, [r1]	@ float
 1946              		.loc 1 859 0
 1947 0014 1A60     		str	r2, [r3]	@ float
 1948              		.loc 1 860 0
 1949 0016 094B     		ldr	r3, .L234+8
 1950 0018 93F85D31 		ldrb	r3, [r3, #349]	@ zero_extendqisi2
 1951 001c DBB2     		uxtb	r3, r3
 1952 001e 002B     		cmp	r3, #0
 1953 0020 FFEE007A 		vmov.f32	s15, #-1.0e+0
 1954 0024 B7EE007A 		vmov.f32	s14, #1.0e+0
 1955 0028 08BF     		it	eq
 1956 002a F0EE477A 		vmoveq.f32	s15, s14
 1957              		.loc 1 861 0
 1958 002e 27EE800A 		vmul.f32	s0, s15, s0
 1959              	.LVL138:
 1960 0032 7047     		bx	lr
 1961              	.L235:
 1962              		.align	2
 1963              	.L234:
 1964 0034 00000000 		.word	.LANCHOR22
 1965 0038 00000000 		.word	.LANCHOR24
 1966 003c 00000000 		.word	.LANCHOR12
 1967              		.cfi_endproc
 1968              	.LFE297:
 1969              		.size	mc_interface_read_reset_avg_id, .-mc_interface_read_reset_avg_id
 1970              		.section	.text.mc_interface_read_reset_avg_iq,"ax",%progbits
 1971              		.align	1
 1972              		.p2align 4,,15
 1973              		.global	mc_interface_read_reset_avg_iq
 1974              		.syntax unified
 1975              		.thumb
 1976              		.thumb_func
 1977              		.fpu fpv4-sp-d16
 1978              		.type	mc_interface_read_reset_avg_iq, %function
 1979              	mc_interface_read_reset_avg_iq:
 1980              	.LFB298:
 1981              		.loc 1 869 0
 1982              		.cfi_startproc
 1983              		@ args = 0, pretend = 0, frame = 0
 1984              		@ frame_needed = 0, uses_anonymous_args = 0
 1985              		@ link register save eliminated.
 1986              		.loc 1 870 0
 1987 0000 0C49     		ldr	r1, .L239
 1988 0002 91ED007A 		vldr.32	s14, [r1]
 1989 0006 0C4B     		ldr	r3, .L239+4
 1990 0008 D3ED007A 		vldr.32	s15, [r3]
 1991 000c 87EE270A 		vdiv.f32	s0, s14, s15
 1992              	.LVL139:
 1993              		.loc 1 871 0
 1994 0010 0022     		movs	r2, #0
 1995 0012 0A60     		str	r2, [r1]	@ float
ARM GAS  C:\Users\CHRIST~1\AppData\Local\Temp\ccTNSWKS.s 			page 36


 1996              		.loc 1 872 0
 1997 0014 1A60     		str	r2, [r3]	@ float
 1998              		.loc 1 873 0
 1999 0016 094B     		ldr	r3, .L239+8
 2000 0018 93F85D31 		ldrb	r3, [r3, #349]	@ zero_extendqisi2
 2001 001c DBB2     		uxtb	r3, r3
 2002 001e 002B     		cmp	r3, #0
 2003 0020 FFEE007A 		vmov.f32	s15, #-1.0e+0
 2004 0024 B7EE007A 		vmov.f32	s14, #1.0e+0
 2005 0028 08BF     		it	eq
 2006 002a F0EE477A 		vmoveq.f32	s15, s14
 2007              		.loc 1 874 0
 2008 002e 27EE800A 		vmul.f32	s0, s15, s0
 2009              	.LVL140:
 2010 0032 7047     		bx	lr
 2011              	.L240:
 2012              		.align	2
 2013              	.L239:
 2014 0034 00000000 		.word	.LANCHOR23
 2015 0038 00000000 		.word	.LANCHOR25
 2016 003c 00000000 		.word	.LANCHOR12
 2017              		.cfi_endproc
 2018              	.LFE298:
 2019              		.size	mc_interface_read_reset_avg_iq, .-mc_interface_read_reset_avg_iq
 2020              		.section	.text.mc_interface_get_pid_pos_set,"ax",%progbits
 2021              		.align	1
 2022              		.p2align 4,,15
 2023              		.global	mc_interface_get_pid_pos_set
 2024              		.syntax unified
 2025              		.thumb
 2026              		.thumb_func
 2027              		.fpu fpv4-sp-d16
 2028              		.type	mc_interface_get_pid_pos_set, %function
 2029              	mc_interface_get_pid_pos_set:
 2030              	.LFB299:
 2031              		.loc 1 876 0
 2032              		.cfi_startproc
 2033              		@ args = 0, pretend = 0, frame = 0
 2034              		@ frame_needed = 0, uses_anonymous_args = 0
 2035              		@ link register save eliminated.
 2036              		.loc 1 877 0
 2037 0000 014B     		ldr	r3, .L242
 2038 0002 93ED000A 		vldr.32	s0, [r3]
 2039              		.loc 1 878 0
 2040 0006 7047     		bx	lr
 2041              	.L243:
 2042              		.align	2
 2043              	.L242:
 2044 0008 00000000 		.word	.LANCHOR30
 2045              		.cfi_endproc
 2046              	.LFE299:
 2047              		.size	mc_interface_get_pid_pos_set, .-mc_interface_get_pid_pos_set
 2048              		.section	.text.mc_interface_get_pid_pos_now,"ax",%progbits
 2049              		.align	1
 2050              		.p2align 4,,15
 2051              		.global	mc_interface_get_pid_pos_now
 2052              		.syntax unified
ARM GAS  C:\Users\CHRIST~1\AppData\Local\Temp\ccTNSWKS.s 			page 37


 2053              		.thumb
 2054              		.thumb_func
 2055              		.fpu fpv4-sp-d16
 2056              		.type	mc_interface_get_pid_pos_now, %function
 2057              	mc_interface_get_pid_pos_now:
 2058              	.LFB300:
 2059              		.loc 1 880 0
 2060              		.cfi_startproc
 2061              		@ args = 0, pretend = 0, frame = 0
 2062              		@ frame_needed = 0, uses_anonymous_args = 0
 2063 0000 08B5     		push	{r3, lr}
 2064              		.cfi_def_cfa_offset 8
 2065              		.cfi_offset 3, -8
 2066              		.cfi_offset 14, -4
 2067              	.LVL141:
 2068              		.loc 1 883 0
 2069 0002 0F4B     		ldr	r3, .L253
 2070 0004 9B78     		ldrb	r3, [r3, #2]	@ zero_extendqisi2
 2071 0006 DBB2     		uxtb	r3, r3
 2072 0008 012B     		cmp	r3, #1
 2073 000a 04D9     		bls	.L246
 2074 000c 022B     		cmp	r3, #2
 2075 000e 13D0     		beq	.L247
 2076              		.loc 1 881 0
 2077 0010 9FED0C0A 		vldr.32	s0, .L253+4
 2078 0014 01E0     		b	.L245
 2079              	.L246:
 2080              		.loc 1 886 0
 2081 0016 FFF7FEFF 		bl	encoder_read_deg
 2082              	.LVL142:
 2083              	.L245:
 2084              		.loc 1 897 0
 2085 001a 094B     		ldr	r3, .L253
 2086 001c 93F85D31 		ldrb	r3, [r3, #349]	@ zero_extendqisi2
 2087 0020 DBB2     		uxtb	r3, r3
 2088 0022 002B     		cmp	r3, #0
 2089 0024 FFEE007A 		vmov.f32	s15, #-1.0e+0
 2090 0028 B7EE007A 		vmov.f32	s14, #1.0e+0
 2091 002c 08BF     		it	eq
 2092 002e F0EE477A 		vmoveq.f32	s15, s14
 2093              		.loc 1 898 0
 2094 0032 20EE270A 		vmul.f32	s0, s0, s15
 2095              	.LVL143:
 2096 0036 08BD     		pop	{r3, pc}
 2097              	.LVL144:
 2098              	.L247:
 2099              		.loc 1 890 0
 2100 0038 FFF7FEFF 		bl	mcpwm_foc_get_pid_pos_now
 2101              	.LVL145:
 2102              		.loc 1 891 0
 2103 003c EDE7     		b	.L245
 2104              	.L254:
 2105 003e 00BF     		.align	2
 2106              	.L253:
 2107 0040 00000000 		.word	.LANCHOR12
 2108 0044 00000000 		.word	0
 2109              		.cfi_endproc
ARM GAS  C:\Users\CHRIST~1\AppData\Local\Temp\ccTNSWKS.s 			page 38


 2110              	.LFE300:
 2111              		.size	mc_interface_get_pid_pos_now, .-mc_interface_get_pid_pos_now
 2112              		.section	.text.mc_interface_get_last_sample_adc_isr_duration,"ax",%progbits
 2113              		.align	1
 2114              		.p2align 4,,15
 2115              		.global	mc_interface_get_last_sample_adc_isr_duration
 2116              		.syntax unified
 2117              		.thumb
 2118              		.thumb_func
 2119              		.fpu fpv4-sp-d16
 2120              		.type	mc_interface_get_last_sample_adc_isr_duration, %function
 2121              	mc_interface_get_last_sample_adc_isr_duration:
 2122              	.LFB301:
 2123              		.loc 1 900 0
 2124              		.cfi_startproc
 2125              		@ args = 0, pretend = 0, frame = 0
 2126              		@ frame_needed = 0, uses_anonymous_args = 0
 2127              		@ link register save eliminated.
 2128              		.loc 1 901 0
 2129 0000 014B     		ldr	r3, .L256
 2130 0002 93ED000A 		vldr.32	s0, [r3]
 2131              		.loc 1 902 0
 2132 0006 7047     		bx	lr
 2133              	.L257:
 2134              		.align	2
 2135              	.L256:
 2136 0008 00000000 		.word	.LANCHOR31
 2137              		.cfi_endproc
 2138              	.LFE301:
 2139              		.size	mc_interface_get_last_sample_adc_isr_duration, .-mc_interface_get_last_sample_adc_isr_durati
 2140              		.section	.text.mc_interface_sample_print_data,"ax",%progbits
 2141              		.align	1
 2142              		.p2align 4,,15
 2143              		.global	mc_interface_sample_print_data
 2144              		.syntax unified
 2145              		.thumb
 2146              		.thumb_func
 2147              		.fpu fpv4-sp-d16
 2148              		.type	mc_interface_sample_print_data, %function
 2149              	mc_interface_sample_print_data:
 2150              	.LFB302:
 2151              		.loc 1 904 0
 2152              		.cfi_startproc
 2153              		@ args = 0, pretend = 0, frame = 0
 2154              		@ frame_needed = 0, uses_anonymous_args = 0
 2155              	.LVL146:
 2156 0000 10B5     		push	{r4, lr}
 2157              		.cfi_def_cfa_offset 8
 2158              		.cfi_offset 4, -8
 2159              		.cfi_offset 14, -4
 2160 0002 B1F5FA6F 		cmp	r1, #2000
 2161 0006 28BF     		it	cs
 2162 0008 4FF4FA61 		movcs	r1, #2000
 2163              	.LVL147:
 2164              		.loc 1 909 0
 2165 000c 0728     		cmp	r0, #7
 2166 000e 0DD0     		beq	.L262
ARM GAS  C:\Users\CHRIST~1\AppData\Local\Temp\ccTNSWKS.s 			page 39


 2167              		.loc 1 912 0
 2168 0010 094B     		ldr	r3, .L263
 2169 0012 4FF0FF34 		mov	r4, #-1
 2170 0016 1C60     		str	r4, [r3]
 2171              		.loc 1 913 0
 2172 0018 084B     		ldr	r3, .L263+4
 2173 001a 0024     		movs	r4, #0
 2174 001c 1C60     		str	r4, [r3]
 2175              		.loc 1 914 0
 2176 001e 084B     		ldr	r3, .L263+8
 2177 0020 1960     		str	r1, [r3]
 2178              		.loc 1 915 0
 2179 0022 084B     		ldr	r3, .L263+12
 2180 0024 1A60     		str	r2, [r3]
 2181              		.loc 1 916 0
 2182 0026 084B     		ldr	r3, .L263+16
 2183 0028 1870     		strb	r0, [r3]
 2184              	.LVL148:
 2185              	.L258:
 2186              		.loc 1 918 0
 2187 002a 10BD     		pop	{r4, pc}
 2188              	.LVL149:
 2189              	.L262:
 2190              		.loc 1 910 0
 2191 002c 0121     		movs	r1, #1
 2192              	.LVL150:
 2193 002e 074B     		ldr	r3, .L263+20
 2194 0030 1868     		ldr	r0, [r3]
 2195              	.LVL151:
 2196 0032 FFF7FEFF 		bl	chEvtSignal
 2197              	.LVL152:
 2198 0036 F8E7     		b	.L258
 2199              	.L264:
 2200              		.align	2
 2201              	.L263:
 2202 0038 00000000 		.word	.LANCHOR3
 2203 003c 00000000 		.word	.LANCHOR35
 2204 0040 00000000 		.word	.LANCHOR2
 2205 0044 00000000 		.word	.LANCHOR34
 2206 0048 00000000 		.word	.LANCHOR36
 2207 004c 00000000 		.word	.LANCHOR0
 2208              		.cfi_endproc
 2209              	.LFE302:
 2210              		.size	mc_interface_sample_print_data, .-mc_interface_sample_print_data
 2211              		.section	.text.mc_interface_temp_fet_filtered,"ax",%progbits
 2212              		.align	1
 2213              		.p2align 4,,15
 2214              		.global	mc_interface_temp_fet_filtered
 2215              		.syntax unified
 2216              		.thumb
 2217              		.thumb_func
 2218              		.fpu fpv4-sp-d16
 2219              		.type	mc_interface_temp_fet_filtered, %function
 2220              	mc_interface_temp_fet_filtered:
 2221              	.LFB303:
 2222              		.loc 1 927 0
 2223              		.cfi_startproc
ARM GAS  C:\Users\CHRIST~1\AppData\Local\Temp\ccTNSWKS.s 			page 40


 2224              		@ args = 0, pretend = 0, frame = 0
 2225              		@ frame_needed = 0, uses_anonymous_args = 0
 2226              		@ link register save eliminated.
 2227              		.loc 1 928 0
 2228 0000 014B     		ldr	r3, .L266
 2229 0002 93ED000A 		vldr.32	s0, [r3]
 2230              		.loc 1 929 0
 2231 0006 7047     		bx	lr
 2232              	.L267:
 2233              		.align	2
 2234              	.L266:
 2235 0008 00000000 		.word	.LANCHOR32
 2236              		.cfi_endproc
 2237              	.LFE303:
 2238              		.size	mc_interface_temp_fet_filtered, .-mc_interface_temp_fet_filtered
 2239              		.section	.text.mc_interface_temp_motor_filtered,"ax",%progbits
 2240              		.align	1
 2241              		.p2align 4,,15
 2242              		.global	mc_interface_temp_motor_filtered
 2243              		.syntax unified
 2244              		.thumb
 2245              		.thumb_func
 2246              		.fpu fpv4-sp-d16
 2247              		.type	mc_interface_temp_motor_filtered, %function
 2248              	mc_interface_temp_motor_filtered:
 2249              	.LFB304:
 2250              		.loc 1 938 0
 2251              		.cfi_startproc
 2252              		@ args = 0, pretend = 0, frame = 0
 2253              		@ frame_needed = 0, uses_anonymous_args = 0
 2254              		@ link register save eliminated.
 2255              		.loc 1 939 0
 2256 0000 014B     		ldr	r3, .L269
 2257 0002 93ED000A 		vldr.32	s0, [r3]
 2258              		.loc 1 940 0
 2259 0006 7047     		bx	lr
 2260              	.L270:
 2261              		.align	2
 2262              	.L269:
 2263 0008 00000000 		.word	.LANCHOR33
 2264              		.cfi_endproc
 2265              	.LFE304:
 2266              		.size	mc_interface_temp_motor_filtered, .-mc_interface_temp_motor_filtered
 2267              		.section	.text.mc_interface_try_input,"ax",%progbits
 2268              		.align	1
 2269              		.p2align 4,,15
 2270              		.global	mc_interface_try_input
 2271              		.syntax unified
 2272              		.thumb
 2273              		.thumb_func
 2274              		.fpu fpv4-sp-d16
 2275              		.type	mc_interface_try_input, %function
 2276              	mc_interface_try_input:
 2277              	.LFB305:
 2278              		.loc 1 952 0
 2279              		.cfi_startproc
 2280              		@ args = 0, pretend = 0, frame = 0
ARM GAS  C:\Users\CHRIST~1\AppData\Local\Temp\ccTNSWKS.s 			page 41


 2281              		@ frame_needed = 0, uses_anonymous_args = 0
 2282 0000 10B5     		push	{r4, lr}
 2283              		.cfi_def_cfa_offset 8
 2284              		.cfi_offset 4, -8
 2285              		.cfi_offset 14, -4
 2286              		.loc 1 954 0
 2287 0002 FFF7FEFF 		bl	mc_interface_get_state
 2288              	.LVL153:
 2289 0006 0128     		cmp	r0, #1
 2290 0008 0CD0     		beq	.L279
 2291              		.loc 1 959 0
 2292 000a 154B     		ldr	r3, .L280
 2293 000c 1C68     		ldr	r4, [r3]
 2294              	.LVL154:
 2295              		.loc 1 961 0
 2296 000e 7CB9     		cbnz	r4, .L273
 2297              		.loc 1 961 0 is_stmt 0 discriminator 1
 2298 0010 144B     		ldr	r3, .L280+4
 2299 0012 1B78     		ldrb	r3, [r3]	@ zero_extendqisi2
 2300 0014 63B1     		cbz	r3, .L273
 2301              		.loc 1 962 0 is_stmt 1
 2302 0016 144B     		ldr	r3, .L280+8
 2303 0018 1B78     		ldrb	r3, [r3]	@ zero_extendqisi2
 2304 001a 93B1     		cbz	r3, .L277
 2305              		.loc 1 965 0
 2306 001c 124B     		ldr	r3, .L280+8
 2307 001e 0022     		movs	r2, #0
 2308 0020 1A70     		strb	r2, [r3]
 2309 0022 05E0     		b	.L273
 2310              	.LVL155:
 2311              	.L279:
 2312              		.loc 1 955 0
 2313 0024 FFF7FEFF 		bl	mcpwm_stop_pwm
 2314              	.LVL156:
 2315              		.loc 1 956 0
 2316 0028 4FF4FA74 		mov	r4, #500
 2317 002c 0C4B     		ldr	r3, .L280
 2318 002e 1C60     		str	r4, [r3]
 2319              	.LVL157:
 2320              	.L273:
 2321              		.loc 1 969 0
 2322 0030 0E4B     		ldr	r3, .L280+12
 2323 0032 9B78     		ldrb	r3, [r3, #2]	@ zero_extendqisi2
 2324 0034 DBB2     		uxtb	r3, r3
 2325 0036 012B     		cmp	r3, #1
 2326 0038 05D9     		bls	.L275
 2327 003a 022B     		cmp	r3, #2
 2328 003c 09D0     		beq	.L276
 2329              	.LVL158:
 2330              	.L271:
 2331              		.loc 1 988 0
 2332 003e 2046     		mov	r0, r4
 2333 0040 10BD     		pop	{r4, pc}
 2334              	.LVL159:
 2335              	.L277:
 2336              		.loc 1 963 0
 2337 0042 0124     		movs	r4, #1
ARM GAS  C:\Users\CHRIST~1\AppData\Local\Temp\ccTNSWKS.s 			page 42


 2338              	.LVL160:
 2339 0044 F4E7     		b	.L273
 2340              	.LVL161:
 2341              	.L275:
 2342              		.loc 1 972 0
 2343 0046 FFF7FEFF 		bl	mcpwm_init_done
 2344              	.LVL162:
 2345 004a 0028     		cmp	r0, #0
 2346              		.loc 1 973 0
 2347 004c 08BF     		it	eq
 2348 004e 0124     		moveq	r4, #1
 2349              	.LVL163:
 2350 0050 F5E7     		b	.L271
 2351              	.LVL164:
 2352              	.L276:
 2353              		.loc 1 978 0
 2354 0052 FFF7FEFF 		bl	mcpwm_foc_init_done
 2355              	.LVL165:
 2356 0056 0028     		cmp	r0, #0
 2357              		.loc 1 979 0
 2358 0058 08BF     		it	eq
 2359 005a 0124     		moveq	r4, #1
 2360              	.LVL166:
 2361 005c EFE7     		b	.L271
 2362              	.L281:
 2363 005e 00BF     		.align	2
 2364              	.L280:
 2365 0060 00000000 		.word	.LANCHOR14
 2366 0064 00000000 		.word	.LANCHOR16
 2367 0068 00000000 		.word	.LANCHOR17
 2368 006c 00000000 		.word	.LANCHOR12
 2369              		.cfi_endproc
 2370              	.LFE305:
 2371              		.size	mc_interface_try_input, .-mc_interface_try_input
 2372              		.section	.text.mc_interface_set_duty,"ax",%progbits
 2373              		.align	1
 2374              		.p2align 4,,15
 2375              		.global	mc_interface_set_duty
 2376              		.syntax unified
 2377              		.thumb
 2378              		.thumb_func
 2379              		.fpu fpv4-sp-d16
 2380              		.type	mc_interface_set_duty, %function
 2381              	mc_interface_set_duty:
 2382              	.LFB267:
 2383              		.loc 1 319 0
 2384              		.cfi_startproc
 2385              		@ args = 0, pretend = 0, frame = 0
 2386              		@ frame_needed = 0, uses_anonymous_args = 0
 2387              	.LVL167:
 2388 0000 08B5     		push	{r3, lr}
 2389              		.cfi_def_cfa_offset 8
 2390              		.cfi_offset 3, -8
 2391              		.cfi_offset 14, -4
 2392 0002 2DED028B 		vpush.64	{d8}
 2393              		.cfi_def_cfa_offset 16
 2394              		.cfi_offset 80, -16
ARM GAS  C:\Users\CHRIST~1\AppData\Local\Temp\ccTNSWKS.s 			page 43


 2395              		.cfi_offset 81, -12
 2396 0006 B0EE408A 		vmov.f32	s16, s0
 2397              		.loc 1 320 0
 2398 000a FFF7FEFF 		bl	mc_interface_try_input
 2399              	.LVL168:
 2400 000e 30B9     		cbnz	r0, .L282
 2401              		.loc 1 324 0
 2402 0010 154B     		ldr	r3, .L291
 2403 0012 9B78     		ldrb	r3, [r3, #2]	@ zero_extendqisi2
 2404 0014 DBB2     		uxtb	r3, r3
 2405 0016 012B     		cmp	r3, #1
 2406 0018 04D9     		bls	.L284
 2407 001a 022B     		cmp	r3, #2
 2408 001c 13D0     		beq	.L285
 2409              	.L282:
 2410              		.loc 1 337 0
 2411 001e BDEC028B 		vldm	sp!, {d8}
 2412              		.cfi_remember_state
 2413              		.cfi_restore 80
 2414              		.cfi_restore 81
 2415              		.cfi_def_cfa_offset 8
 2416              	.LVL169:
 2417 0022 08BD     		pop	{r3, pc}
 2418              	.LVL170:
 2419              	.L284:
 2420              		.cfi_restore_state
 2421              		.loc 1 327 0
 2422 0024 104B     		ldr	r3, .L291
 2423 0026 93F85D31 		ldrb	r3, [r3, #349]	@ zero_extendqisi2
 2424 002a DBB2     		uxtb	r3, r3
 2425 002c 002B     		cmp	r3, #0
 2426 002e BFEE000A 		vmov.f32	s0, #-1.0e+0
 2427 0032 F7EE007A 		vmov.f32	s15, #1.0e+0
 2428 0036 08BF     		it	eq
 2429 0038 B0EE670A 		vmoveq.f32	s0, s15
 2430 003c 20EE080A 		vmul.f32	s0, s0, s16
 2431 0040 FFF7FEFF 		bl	mcpwm_set_duty
 2432              	.LVL171:
 2433              		.loc 1 328 0
 2434 0044 EBE7     		b	.L282
 2435              	.L285:
 2436              		.loc 1 331 0
 2437 0046 084B     		ldr	r3, .L291
 2438 0048 93F85D31 		ldrb	r3, [r3, #349]	@ zero_extendqisi2
 2439 004c DBB2     		uxtb	r3, r3
 2440 004e 002B     		cmp	r3, #0
 2441 0050 BFEE000A 		vmov.f32	s0, #-1.0e+0
 2442 0054 F7EE007A 		vmov.f32	s15, #1.0e+0
 2443 0058 08BF     		it	eq
 2444 005a B0EE670A 		vmoveq.f32	s0, s15
 2445 005e 20EE080A 		vmul.f32	s0, s0, s16
 2446 0062 FFF7FEFF 		bl	mcpwm_foc_set_duty
 2447              	.LVL172:
 2448              		.loc 1 332 0
 2449 0066 DAE7     		b	.L282
 2450              	.L292:
 2451              		.align	2
ARM GAS  C:\Users\CHRIST~1\AppData\Local\Temp\ccTNSWKS.s 			page 44


 2452              	.L291:
 2453 0068 00000000 		.word	.LANCHOR12
 2454              		.cfi_endproc
 2455              	.LFE267:
 2456              		.size	mc_interface_set_duty, .-mc_interface_set_duty
 2457              		.section	.text.mc_interface_brake_now,"ax",%progbits
 2458              		.align	1
 2459              		.p2align 4,,15
 2460              		.global	mc_interface_brake_now
 2461              		.syntax unified
 2462              		.thumb
 2463              		.thumb_func
 2464              		.fpu fpv4-sp-d16
 2465              		.type	mc_interface_brake_now, %function
 2466              	mc_interface_brake_now:
 2467              	.LFB276:
 2468              		.loc 1 486 0
 2469              		.cfi_startproc
 2470              		@ args = 0, pretend = 0, frame = 0
 2471              		@ frame_needed = 0, uses_anonymous_args = 0
 2472 0000 08B5     		push	{r3, lr}
 2473              		.cfi_def_cfa_offset 8
 2474              		.cfi_offset 3, -8
 2475              		.cfi_offset 14, -4
 2476              		.loc 1 487 0
 2477 0002 9FED020A 		vldr.32	s0, .L295
 2478 0006 FFF7FEFF 		bl	mc_interface_set_duty
 2479              	.LVL173:
 2480              		.loc 1 488 0
 2481 000a 08BD     		pop	{r3, pc}
 2482              	.L296:
 2483              		.align	2
 2484              	.L295:
 2485 000c 00000000 		.word	0
 2486              		.cfi_endproc
 2487              	.LFE276:
 2488              		.size	mc_interface_brake_now, .-mc_interface_brake_now
 2489              		.section	.text.mc_interface_set_duty_noramp,"ax",%progbits
 2490              		.align	1
 2491              		.p2align 4,,15
 2492              		.global	mc_interface_set_duty_noramp
 2493              		.syntax unified
 2494              		.thumb
 2495              		.thumb_func
 2496              		.fpu fpv4-sp-d16
 2497              		.type	mc_interface_set_duty_noramp, %function
 2498              	mc_interface_set_duty_noramp:
 2499              	.LFB268:
 2500              		.loc 1 339 0
 2501              		.cfi_startproc
 2502              		@ args = 0, pretend = 0, frame = 0
 2503              		@ frame_needed = 0, uses_anonymous_args = 0
 2504              	.LVL174:
 2505 0000 08B5     		push	{r3, lr}
 2506              		.cfi_def_cfa_offset 8
 2507              		.cfi_offset 3, -8
 2508              		.cfi_offset 14, -4
ARM GAS  C:\Users\CHRIST~1\AppData\Local\Temp\ccTNSWKS.s 			page 45


 2509 0002 2DED028B 		vpush.64	{d8}
 2510              		.cfi_def_cfa_offset 16
 2511              		.cfi_offset 80, -16
 2512              		.cfi_offset 81, -12
 2513 0006 B0EE408A 		vmov.f32	s16, s0
 2514              		.loc 1 340 0
 2515 000a FFF7FEFF 		bl	mc_interface_try_input
 2516              	.LVL175:
 2517 000e 30B9     		cbnz	r0, .L297
 2518              		.loc 1 344 0
 2519 0010 154B     		ldr	r3, .L306
 2520 0012 9B78     		ldrb	r3, [r3, #2]	@ zero_extendqisi2
 2521 0014 DBB2     		uxtb	r3, r3
 2522 0016 012B     		cmp	r3, #1
 2523 0018 04D9     		bls	.L299
 2524 001a 022B     		cmp	r3, #2
 2525 001c 13D0     		beq	.L300
 2526              	.L297:
 2527              		.loc 1 357 0
 2528 001e BDEC028B 		vldm	sp!, {d8}
 2529              		.cfi_remember_state
 2530              		.cfi_restore 80
 2531              		.cfi_restore 81
 2532              		.cfi_def_cfa_offset 8
 2533              	.LVL176:
 2534 0022 08BD     		pop	{r3, pc}
 2535              	.LVL177:
 2536              	.L299:
 2537              		.cfi_restore_state
 2538              		.loc 1 347 0
 2539 0024 104B     		ldr	r3, .L306
 2540 0026 93F85D31 		ldrb	r3, [r3, #349]	@ zero_extendqisi2
 2541 002a DBB2     		uxtb	r3, r3
 2542 002c 002B     		cmp	r3, #0
 2543 002e BFEE000A 		vmov.f32	s0, #-1.0e+0
 2544 0032 F7EE007A 		vmov.f32	s15, #1.0e+0
 2545 0036 08BF     		it	eq
 2546 0038 B0EE670A 		vmoveq.f32	s0, s15
 2547 003c 20EE080A 		vmul.f32	s0, s0, s16
 2548 0040 FFF7FEFF 		bl	mcpwm_set_duty_noramp
 2549              	.LVL178:
 2550              		.loc 1 348 0
 2551 0044 EBE7     		b	.L297
 2552              	.L300:
 2553              		.loc 1 351 0
 2554 0046 084B     		ldr	r3, .L306
 2555 0048 93F85D31 		ldrb	r3, [r3, #349]	@ zero_extendqisi2
 2556 004c DBB2     		uxtb	r3, r3
 2557 004e 002B     		cmp	r3, #0
 2558 0050 BFEE000A 		vmov.f32	s0, #-1.0e+0
 2559 0054 F7EE007A 		vmov.f32	s15, #1.0e+0
 2560 0058 08BF     		it	eq
 2561 005a B0EE670A 		vmoveq.f32	s0, s15
 2562 005e 20EE080A 		vmul.f32	s0, s0, s16
 2563 0062 FFF7FEFF 		bl	mcpwm_foc_set_duty_noramp
 2564              	.LVL179:
 2565              		.loc 1 352 0
ARM GAS  C:\Users\CHRIST~1\AppData\Local\Temp\ccTNSWKS.s 			page 46


 2566 0066 DAE7     		b	.L297
 2567              	.L307:
 2568              		.align	2
 2569              	.L306:
 2570 0068 00000000 		.word	.LANCHOR12
 2571              		.cfi_endproc
 2572              	.LFE268:
 2573              		.size	mc_interface_set_duty_noramp, .-mc_interface_set_duty_noramp
 2574              		.section	.text.mc_interface_set_pid_speed,"ax",%progbits
 2575              		.align	1
 2576              		.p2align 4,,15
 2577              		.global	mc_interface_set_pid_speed
 2578              		.syntax unified
 2579              		.thumb
 2580              		.thumb_func
 2581              		.fpu fpv4-sp-d16
 2582              		.type	mc_interface_set_pid_speed, %function
 2583              	mc_interface_set_pid_speed:
 2584              	.LFB269:
 2585              		.loc 1 359 0
 2586              		.cfi_startproc
 2587              		@ args = 0, pretend = 0, frame = 0
 2588              		@ frame_needed = 0, uses_anonymous_args = 0
 2589              	.LVL180:
 2590 0000 08B5     		push	{r3, lr}
 2591              		.cfi_def_cfa_offset 8
 2592              		.cfi_offset 3, -8
 2593              		.cfi_offset 14, -4
 2594 0002 2DED028B 		vpush.64	{d8}
 2595              		.cfi_def_cfa_offset 16
 2596              		.cfi_offset 80, -16
 2597              		.cfi_offset 81, -12
 2598 0006 B0EE408A 		vmov.f32	s16, s0
 2599              		.loc 1 360 0
 2600 000a FFF7FEFF 		bl	mc_interface_try_input
 2601              	.LVL181:
 2602 000e 30B9     		cbnz	r0, .L308
 2603              		.loc 1 364 0
 2604 0010 154B     		ldr	r3, .L317
 2605 0012 9B78     		ldrb	r3, [r3, #2]	@ zero_extendqisi2
 2606 0014 DBB2     		uxtb	r3, r3
 2607 0016 012B     		cmp	r3, #1
 2608 0018 04D9     		bls	.L310
 2609 001a 022B     		cmp	r3, #2
 2610 001c 13D0     		beq	.L311
 2611              	.L308:
 2612              		.loc 1 377 0
 2613 001e BDEC028B 		vldm	sp!, {d8}
 2614              		.cfi_remember_state
 2615              		.cfi_restore 80
 2616              		.cfi_restore 81
 2617              		.cfi_def_cfa_offset 8
 2618              	.LVL182:
 2619 0022 08BD     		pop	{r3, pc}
 2620              	.LVL183:
 2621              	.L310:
 2622              		.cfi_restore_state
ARM GAS  C:\Users\CHRIST~1\AppData\Local\Temp\ccTNSWKS.s 			page 47


 2623              		.loc 1 367 0
 2624 0024 104B     		ldr	r3, .L317
 2625 0026 93F85D31 		ldrb	r3, [r3, #349]	@ zero_extendqisi2
 2626 002a DBB2     		uxtb	r3, r3
 2627 002c 002B     		cmp	r3, #0
 2628 002e BFEE000A 		vmov.f32	s0, #-1.0e+0
 2629 0032 F7EE007A 		vmov.f32	s15, #1.0e+0
 2630 0036 08BF     		it	eq
 2631 0038 B0EE670A 		vmoveq.f32	s0, s15
 2632 003c 20EE080A 		vmul.f32	s0, s0, s16
 2633 0040 FFF7FEFF 		bl	mcpwm_set_pid_speed
 2634              	.LVL184:
 2635              		.loc 1 368 0
 2636 0044 EBE7     		b	.L308
 2637              	.L311:
 2638              		.loc 1 371 0
 2639 0046 084B     		ldr	r3, .L317
 2640 0048 93F85D31 		ldrb	r3, [r3, #349]	@ zero_extendqisi2
 2641 004c DBB2     		uxtb	r3, r3
 2642 004e 002B     		cmp	r3, #0
 2643 0050 BFEE000A 		vmov.f32	s0, #-1.0e+0
 2644 0054 F7EE007A 		vmov.f32	s15, #1.0e+0
 2645 0058 08BF     		it	eq
 2646 005a B0EE670A 		vmoveq.f32	s0, s15
 2647 005e 20EE080A 		vmul.f32	s0, s0, s16
 2648 0062 FFF7FEFF 		bl	mcpwm_foc_set_pid_speed
 2649              	.LVL185:
 2650              		.loc 1 372 0
 2651 0066 DAE7     		b	.L308
 2652              	.L318:
 2653              		.align	2
 2654              	.L317:
 2655 0068 00000000 		.word	.LANCHOR12
 2656              		.cfi_endproc
 2657              	.LFE269:
 2658              		.size	mc_interface_set_pid_speed, .-mc_interface_set_pid_speed
 2659              		.section	.text.mc_interface_set_pid_pos,"ax",%progbits
 2660              		.align	1
 2661              		.p2align 4,,15
 2662              		.global	mc_interface_set_pid_pos
 2663              		.syntax unified
 2664              		.thumb
 2665              		.thumb_func
 2666              		.fpu fpv4-sp-d16
 2667              		.type	mc_interface_set_pid_pos, %function
 2668              	mc_interface_set_pid_pos:
 2669              	.LFB270:
 2670              		.loc 1 379 0
 2671              		.cfi_startproc
 2672              		@ args = 0, pretend = 0, frame = 0
 2673              		@ frame_needed = 0, uses_anonymous_args = 0
 2674              	.LVL186:
 2675 0000 08B5     		push	{r3, lr}
 2676              		.cfi_def_cfa_offset 8
 2677              		.cfi_offset 3, -8
 2678              		.cfi_offset 14, -4
 2679 0002 2DED028B 		vpush.64	{d8}
ARM GAS  C:\Users\CHRIST~1\AppData\Local\Temp\ccTNSWKS.s 			page 48


 2680              		.cfi_def_cfa_offset 16
 2681              		.cfi_offset 80, -16
 2682              		.cfi_offset 81, -12
 2683 0006 B0EE408A 		vmov.f32	s16, s0
 2684              		.loc 1 380 0
 2685 000a FFF7FEFF 		bl	mc_interface_try_input
 2686              	.LVL187:
 2687 000e 48B9     		cbnz	r0, .L319
 2688              		.loc 1 384 0
 2689 0010 1A4B     		ldr	r3, .L328
 2690 0012 83ED008A 		vstr.32	s16, [r3]
 2691              		.loc 1 386 0
 2692 0016 1A4B     		ldr	r3, .L328+4
 2693 0018 9B78     		ldrb	r3, [r3, #2]	@ zero_extendqisi2
 2694 001a DBB2     		uxtb	r3, r3
 2695 001c 012B     		cmp	r3, #1
 2696 001e 04D9     		bls	.L321
 2697 0020 022B     		cmp	r3, #2
 2698 0022 16D0     		beq	.L322
 2699              	.L319:
 2700              		.loc 1 399 0
 2701 0024 BDEC028B 		vldm	sp!, {d8}
 2702              		.cfi_remember_state
 2703              		.cfi_restore 80
 2704              		.cfi_restore 81
 2705              		.cfi_def_cfa_offset 8
 2706              	.LVL188:
 2707 0028 08BD     		pop	{r3, pc}
 2708              	.LVL189:
 2709              	.L321:
 2710              		.cfi_restore_state
 2711              		.loc 1 389 0
 2712 002a 154B     		ldr	r3, .L328+4
 2713 002c 93F85D31 		ldrb	r3, [r3, #349]	@ zero_extendqisi2
 2714 0030 DBB2     		uxtb	r3, r3
 2715 0032 002B     		cmp	r3, #0
 2716 0034 FFEE007A 		vmov.f32	s15, #-1.0e+0
 2717 0038 B7EE000A 		vmov.f32	s0, #1.0e+0
 2718 003c 08BF     		it	eq
 2719 003e F0EE407A 		vmoveq.f32	s15, s0
 2720 0042 0E4B     		ldr	r3, .L328
 2721 0044 93ED000A 		vldr.32	s0, [r3]
 2722 0048 20EE270A 		vmul.f32	s0, s0, s15
 2723 004c FFF7FEFF 		bl	mcpwm_set_pid_pos
 2724              	.LVL190:
 2725              		.loc 1 390 0
 2726 0050 E8E7     		b	.L319
 2727              	.L322:
 2728              		.loc 1 393 0
 2729 0052 0B4B     		ldr	r3, .L328+4
 2730 0054 93F85D31 		ldrb	r3, [r3, #349]	@ zero_extendqisi2
 2731 0058 DBB2     		uxtb	r3, r3
 2732 005a 002B     		cmp	r3, #0
 2733 005c FFEE007A 		vmov.f32	s15, #-1.0e+0
 2734 0060 B7EE000A 		vmov.f32	s0, #1.0e+0
 2735 0064 08BF     		it	eq
 2736 0066 F0EE407A 		vmoveq.f32	s15, s0
ARM GAS  C:\Users\CHRIST~1\AppData\Local\Temp\ccTNSWKS.s 			page 49


 2737 006a 044B     		ldr	r3, .L328
 2738 006c 93ED000A 		vldr.32	s0, [r3]
 2739 0070 20EE270A 		vmul.f32	s0, s0, s15
 2740 0074 FFF7FEFF 		bl	mcpwm_foc_set_pid_pos
 2741              	.LVL191:
 2742              		.loc 1 394 0
 2743 0078 D4E7     		b	.L319
 2744              	.L329:
 2745 007a 00BF     		.align	2
 2746              	.L328:
 2747 007c 00000000 		.word	.LANCHOR30
 2748 0080 00000000 		.word	.LANCHOR12
 2749              		.cfi_endproc
 2750              	.LFE270:
 2751              		.size	mc_interface_set_pid_pos, .-mc_interface_set_pid_pos
 2752              		.section	.text.mc_interface_set_current,"ax",%progbits
 2753              		.align	1
 2754              		.p2align 4,,15
 2755              		.global	mc_interface_set_current
 2756              		.syntax unified
 2757              		.thumb
 2758              		.thumb_func
 2759              		.fpu fpv4-sp-d16
 2760              		.type	mc_interface_set_current, %function
 2761              	mc_interface_set_current:
 2762              	.LFB271:
 2763              		.loc 1 401 0
 2764              		.cfi_startproc
 2765              		@ args = 0, pretend = 0, frame = 0
 2766              		@ frame_needed = 0, uses_anonymous_args = 0
 2767              	.LVL192:
 2768 0000 08B5     		push	{r3, lr}
 2769              		.cfi_def_cfa_offset 8
 2770              		.cfi_offset 3, -8
 2771              		.cfi_offset 14, -4
 2772 0002 2DED028B 		vpush.64	{d8}
 2773              		.cfi_def_cfa_offset 16
 2774              		.cfi_offset 80, -16
 2775              		.cfi_offset 81, -12
 2776 0006 B0EE408A 		vmov.f32	s16, s0
 2777              		.loc 1 402 0
 2778 000a FFF7FEFF 		bl	mc_interface_try_input
 2779              	.LVL193:
 2780 000e 30B9     		cbnz	r0, .L330
 2781              		.loc 1 406 0
 2782 0010 154B     		ldr	r3, .L339
 2783 0012 9B78     		ldrb	r3, [r3, #2]	@ zero_extendqisi2
 2784 0014 DBB2     		uxtb	r3, r3
 2785 0016 012B     		cmp	r3, #1
 2786 0018 04D9     		bls	.L332
 2787 001a 022B     		cmp	r3, #2
 2788 001c 13D0     		beq	.L333
 2789              	.L330:
 2790              		.loc 1 419 0
 2791 001e BDEC028B 		vldm	sp!, {d8}
 2792              		.cfi_remember_state
 2793              		.cfi_restore 80
ARM GAS  C:\Users\CHRIST~1\AppData\Local\Temp\ccTNSWKS.s 			page 50


 2794              		.cfi_restore 81
 2795              		.cfi_def_cfa_offset 8
 2796              	.LVL194:
 2797 0022 08BD     		pop	{r3, pc}
 2798              	.LVL195:
 2799              	.L332:
 2800              		.cfi_restore_state
 2801              		.loc 1 409 0
 2802 0024 104B     		ldr	r3, .L339
 2803 0026 93F85D31 		ldrb	r3, [r3, #349]	@ zero_extendqisi2
 2804 002a DBB2     		uxtb	r3, r3
 2805 002c 002B     		cmp	r3, #0
 2806 002e BFEE000A 		vmov.f32	s0, #-1.0e+0
 2807 0032 F7EE007A 		vmov.f32	s15, #1.0e+0
 2808 0036 08BF     		it	eq
 2809 0038 B0EE670A 		vmoveq.f32	s0, s15
 2810 003c 20EE080A 		vmul.f32	s0, s0, s16
 2811 0040 FFF7FEFF 		bl	mcpwm_set_current
 2812              	.LVL196:
 2813              		.loc 1 410 0
 2814 0044 EBE7     		b	.L330
 2815              	.L333:
 2816              		.loc 1 413 0
 2817 0046 084B     		ldr	r3, .L339
 2818 0048 93F85D31 		ldrb	r3, [r3, #349]	@ zero_extendqisi2
 2819 004c DBB2     		uxtb	r3, r3
 2820 004e 002B     		cmp	r3, #0
 2821 0050 BFEE000A 		vmov.f32	s0, #-1.0e+0
 2822 0054 F7EE007A 		vmov.f32	s15, #1.0e+0
 2823 0058 08BF     		it	eq
 2824 005a B0EE670A 		vmoveq.f32	s0, s15
 2825 005e 20EE080A 		vmul.f32	s0, s0, s16
 2826 0062 FFF7FEFF 		bl	mcpwm_foc_set_current
 2827              	.LVL197:
 2828              		.loc 1 414 0
 2829 0066 DAE7     		b	.L330
 2830              	.L340:
 2831              		.align	2
 2832              	.L339:
 2833 0068 00000000 		.word	.LANCHOR12
 2834              		.cfi_endproc
 2835              	.LFE271:
 2836              		.size	mc_interface_set_current, .-mc_interface_set_current
 2837              		.section	.text.mc_interface_set_current_rel,"ax",%progbits
 2838              		.align	1
 2839              		.p2align 4,,15
 2840              		.global	mc_interface_set_current_rel
 2841              		.syntax unified
 2842              		.thumb
 2843              		.thumb_func
 2844              		.fpu fpv4-sp-d16
 2845              		.type	mc_interface_set_current_rel, %function
 2846              	mc_interface_set_current_rel:
 2847              	.LFB273:
 2848              		.loc 1 447 0
 2849              		.cfi_startproc
 2850              		@ args = 0, pretend = 0, frame = 0
ARM GAS  C:\Users\CHRIST~1\AppData\Local\Temp\ccTNSWKS.s 			page 51


 2851              		@ frame_needed = 0, uses_anonymous_args = 0
 2852              	.LVL198:
 2853 0000 08B5     		push	{r3, lr}
 2854              		.cfi_def_cfa_offset 8
 2855              		.cfi_offset 3, -8
 2856              		.cfi_offset 14, -4
 2857              		.loc 1 448 0
 2858 0002 B5EEC00A 		vcmpe.f32	s0, #0
 2859 0006 F1EE10FA 		vmrs	APSR_nzcv, FPSCR
 2860              		.loc 1 449 0
 2861 000a 064B     		ldr	r3, .L348
 2862 000c CEBF     		itee	gt
 2863 000e D3ED1D7A 		vldrgt.32	s15, [r3, #116]
 2864              		.loc 1 451 0
 2865 0012 D3ED1E7A 		vldrle.32	s15, [r3, #120]
 2866 0016 F0EEE77A 		vabsle.f32	s15, s15
 2867 001a 27EE800A 		vmul.f32	s0, s15, s0
 2868              	.LVL199:
 2869 001e FFF7FEFF 		bl	mc_interface_set_current
 2870              	.LVL200:
 2871              		.loc 1 453 0
 2872 0022 08BD     		pop	{r3, pc}
 2873              	.L349:
 2874              		.align	2
 2875              	.L348:
 2876 0024 00000000 		.word	.LANCHOR12
 2877              		.cfi_endproc
 2878              	.LFE273:
 2879              		.size	mc_interface_set_current_rel, .-mc_interface_set_current_rel
 2880              		.section	.text.mc_interface_release_motor,"ax",%progbits
 2881              		.align	1
 2882              		.p2align 4,,15
 2883              		.global	mc_interface_release_motor
 2884              		.syntax unified
 2885              		.thumb
 2886              		.thumb_func
 2887              		.fpu fpv4-sp-d16
 2888              		.type	mc_interface_release_motor, %function
 2889              	mc_interface_release_motor:
 2890              	.LFB277:
 2891              		.loc 1 493 0
 2892              		.cfi_startproc
 2893              		@ args = 0, pretend = 0, frame = 0
 2894              		@ frame_needed = 0, uses_anonymous_args = 0
 2895 0000 08B5     		push	{r3, lr}
 2896              		.cfi_def_cfa_offset 8
 2897              		.cfi_offset 3, -8
 2898              		.cfi_offset 14, -4
 2899              		.loc 1 494 0
 2900 0002 9FED020A 		vldr.32	s0, .L352
 2901 0006 FFF7FEFF 		bl	mc_interface_set_current
 2902              	.LVL201:
 2903              		.loc 1 495 0
 2904 000a 08BD     		pop	{r3, pc}
 2905              	.L353:
 2906              		.align	2
 2907              	.L352:
ARM GAS  C:\Users\CHRIST~1\AppData\Local\Temp\ccTNSWKS.s 			page 52


 2908 000c 00000000 		.word	0
 2909              		.cfi_endproc
 2910              	.LFE277:
 2911              		.size	mc_interface_release_motor, .-mc_interface_release_motor
 2912              		.section	.text.mc_interface_set_brake_current,"ax",%progbits
 2913              		.align	1
 2914              		.p2align 4,,15
 2915              		.global	mc_interface_set_brake_current
 2916              		.syntax unified
 2917              		.thumb
 2918              		.thumb_func
 2919              		.fpu fpv4-sp-d16
 2920              		.type	mc_interface_set_brake_current, %function
 2921              	mc_interface_set_brake_current:
 2922              	.LFB272:
 2923              		.loc 1 421 0
 2924              		.cfi_startproc
 2925              		@ args = 0, pretend = 0, frame = 0
 2926              		@ frame_needed = 0, uses_anonymous_args = 0
 2927              	.LVL202:
 2928 0000 08B5     		push	{r3, lr}
 2929              		.cfi_def_cfa_offset 8
 2930              		.cfi_offset 3, -8
 2931              		.cfi_offset 14, -4
 2932 0002 2DED028B 		vpush.64	{d8}
 2933              		.cfi_def_cfa_offset 16
 2934              		.cfi_offset 80, -16
 2935              		.cfi_offset 81, -12
 2936 0006 B0EE408A 		vmov.f32	s16, s0
 2937              		.loc 1 422 0
 2938 000a FFF7FEFF 		bl	mc_interface_try_input
 2939              	.LVL203:
 2940 000e 30B9     		cbnz	r0, .L354
 2941              		.loc 1 426 0
 2942 0010 154B     		ldr	r3, .L363
 2943 0012 9B78     		ldrb	r3, [r3, #2]	@ zero_extendqisi2
 2944 0014 DBB2     		uxtb	r3, r3
 2945 0016 012B     		cmp	r3, #1
 2946 0018 04D9     		bls	.L356
 2947 001a 022B     		cmp	r3, #2
 2948 001c 13D0     		beq	.L357
 2949              	.L354:
 2950              		.loc 1 439 0
 2951 001e BDEC028B 		vldm	sp!, {d8}
 2952              		.cfi_remember_state
 2953              		.cfi_restore 80
 2954              		.cfi_restore 81
 2955              		.cfi_def_cfa_offset 8
 2956              	.LVL204:
 2957 0022 08BD     		pop	{r3, pc}
 2958              	.LVL205:
 2959              	.L356:
 2960              		.cfi_restore_state
 2961              		.loc 1 429 0
 2962 0024 104B     		ldr	r3, .L363
 2963 0026 93F85D31 		ldrb	r3, [r3, #349]	@ zero_extendqisi2
 2964 002a DBB2     		uxtb	r3, r3
ARM GAS  C:\Users\CHRIST~1\AppData\Local\Temp\ccTNSWKS.s 			page 53


 2965 002c 002B     		cmp	r3, #0
 2966 002e BFEE000A 		vmov.f32	s0, #-1.0e+0
 2967 0032 F7EE007A 		vmov.f32	s15, #1.0e+0
 2968 0036 08BF     		it	eq
 2969 0038 B0EE670A 		vmoveq.f32	s0, s15
 2970 003c 20EE080A 		vmul.f32	s0, s0, s16
 2971 0040 FFF7FEFF 		bl	mcpwm_set_brake_current
 2972              	.LVL206:
 2973              		.loc 1 430 0
 2974 0044 EBE7     		b	.L354
 2975              	.L357:
 2976              		.loc 1 433 0
 2977 0046 084B     		ldr	r3, .L363
 2978 0048 93F85D31 		ldrb	r3, [r3, #349]	@ zero_extendqisi2
 2979 004c DBB2     		uxtb	r3, r3
 2980 004e 002B     		cmp	r3, #0
 2981 0050 BFEE000A 		vmov.f32	s0, #-1.0e+0
 2982 0054 F7EE007A 		vmov.f32	s15, #1.0e+0
 2983 0058 08BF     		it	eq
 2984 005a B0EE670A 		vmoveq.f32	s0, s15
 2985 005e 20EE080A 		vmul.f32	s0, s0, s16
 2986 0062 FFF7FEFF 		bl	mcpwm_foc_set_brake_current
 2987              	.LVL207:
 2988              		.loc 1 434 0
 2989 0066 DAE7     		b	.L354
 2990              	.L364:
 2991              		.align	2
 2992              	.L363:
 2993 0068 00000000 		.word	.LANCHOR12
 2994              		.cfi_endproc
 2995              	.LFE272:
 2996              		.size	mc_interface_set_brake_current, .-mc_interface_set_brake_current
 2997              		.section	.text.mc_interface_set_brake_current_rel,"ax",%progbits
 2998              		.align	1
 2999              		.p2align 4,,15
 3000              		.global	mc_interface_set_brake_current_rel
 3001              		.syntax unified
 3002              		.thumb
 3003              		.thumb_func
 3004              		.fpu fpv4-sp-d16
 3005              		.type	mc_interface_set_brake_current_rel, %function
 3006              	mc_interface_set_brake_current_rel:
 3007              	.LFB274:
 3008              		.loc 1 461 0
 3009              		.cfi_startproc
 3010              		@ args = 0, pretend = 0, frame = 0
 3011              		@ frame_needed = 0, uses_anonymous_args = 0
 3012              	.LVL208:
 3013 0000 08B5     		push	{r3, lr}
 3014              		.cfi_def_cfa_offset 8
 3015              		.cfi_offset 3, -8
 3016              		.cfi_offset 14, -4
 3017              		.loc 1 462 0
 3018 0002 044B     		ldr	r3, .L367
 3019 0004 D3ED1D7A 		vldr.32	s15, [r3, #116]
 3020 0008 27EE800A 		vmul.f32	s0, s15, s0
 3021              	.LVL209:
ARM GAS  C:\Users\CHRIST~1\AppData\Local\Temp\ccTNSWKS.s 			page 54


 3022 000c FFF7FEFF 		bl	mc_interface_set_brake_current
 3023              	.LVL210:
 3024              		.loc 1 463 0
 3025 0010 08BD     		pop	{r3, pc}
 3026              	.L368:
 3027 0012 00BF     		.align	2
 3028              	.L367:
 3029 0014 00000000 		.word	.LANCHOR12
 3030              		.cfi_endproc
 3031              	.LFE274:
 3032              		.size	mc_interface_set_brake_current_rel, .-mc_interface_set_brake_current_rel
 3033              		.section	.text.mc_interface_set_handbrake,"ax",%progbits
 3034              		.align	1
 3035              		.p2align 4,,15
 3036              		.global	mc_interface_set_handbrake
 3037              		.syntax unified
 3038              		.thumb
 3039              		.thumb_func
 3040              		.fpu fpv4-sp-d16
 3041              		.type	mc_interface_set_handbrake, %function
 3042              	mc_interface_set_handbrake:
 3043              	.LFB275:
 3044              		.loc 1 465 0
 3045              		.cfi_startproc
 3046              		@ args = 0, pretend = 0, frame = 0
 3047              		@ frame_needed = 0, uses_anonymous_args = 0
 3048              	.LVL211:
 3049 0000 08B5     		push	{r3, lr}
 3050              		.cfi_def_cfa_offset 8
 3051              		.cfi_offset 3, -8
 3052              		.cfi_offset 14, -4
 3053 0002 2DED028B 		vpush.64	{d8}
 3054              		.cfi_def_cfa_offset 16
 3055              		.cfi_offset 80, -16
 3056              		.cfi_offset 81, -12
 3057 0006 B0EE408A 		vmov.f32	s16, s0
 3058              		.loc 1 466 0
 3059 000a FFF7FEFF 		bl	mc_interface_try_input
 3060              	.LVL212:
 3061 000e 30B9     		cbnz	r0, .L369
 3062              		.loc 1 470 0
 3063 0010 094B     		ldr	r3, .L374
 3064 0012 9B78     		ldrb	r3, [r3, #2]	@ zero_extendqisi2
 3065 0014 DBB2     		uxtb	r3, r3
 3066 0016 012B     		cmp	r3, #1
 3067 0018 04D9     		bls	.L371
 3068 001a 022B     		cmp	r3, #2
 3069 001c 07D0     		beq	.L372
 3070              	.L369:
 3071              		.loc 1 484 0
 3072 001e BDEC028B 		vldm	sp!, {d8}
 3073              		.cfi_remember_state
 3074              		.cfi_restore 80
 3075              		.cfi_restore 81
 3076              		.cfi_def_cfa_offset 8
 3077              	.LVL213:
 3078 0022 08BD     		pop	{r3, pc}
ARM GAS  C:\Users\CHRIST~1\AppData\Local\Temp\ccTNSWKS.s 			page 55


 3079              	.LVL214:
 3080              	.L371:
 3081              		.cfi_restore_state
 3082              		.loc 1 474 0
 3083 0024 B0EE480A 		vmov.f32	s0, s16
 3084 0028 FFF7FEFF 		bl	mcpwm_set_brake_current
 3085              	.LVL215:
 3086              		.loc 1 475 0
 3087 002c F7E7     		b	.L369
 3088              	.L372:
 3089              		.loc 1 478 0
 3090 002e B0EE480A 		vmov.f32	s0, s16
 3091 0032 FFF7FEFF 		bl	mcpwm_foc_set_handbrake
 3092              	.LVL216:
 3093              		.loc 1 479 0
 3094 0036 F2E7     		b	.L369
 3095              	.L375:
 3096              		.align	2
 3097              	.L374:
 3098 0038 00000000 		.word	.LANCHOR12
 3099              		.cfi_endproc
 3100              	.LFE275:
 3101              		.size	mc_interface_set_handbrake, .-mc_interface_set_handbrake
 3102              		.section	.text.mc_interface_fault_stop,"ax",%progbits
 3103              		.align	1
 3104              		.p2align 4,,15
 3105              		.global	mc_interface_fault_stop
 3106              		.syntax unified
 3107              		.thumb
 3108              		.thumb_func
 3109              		.fpu fpv4-sp-d16
 3110              		.type	mc_interface_fault_stop, %function
 3111              	mc_interface_fault_stop:
 3112              	.LFB306:
 3113              		.loc 1 990 0
 3114              		.cfi_startproc
 3115              		@ args = 0, pretend = 0, frame = 72
 3116              		@ frame_needed = 0, uses_anonymous_args = 0
 3117              	.LVL217:
 3118              		.loc 1 991 0
 3119 0000 474B     		ldr	r3, .L388
 3120 0002 1B78     		ldrb	r3, [r3]	@ zero_extendqisi2
 3121 0004 8342     		cmp	r3, r0
 3122 0006 17D0     		beq	.L386
 3123              		.loc 1 990 0
 3124 0008 30B5     		push	{r4, r5, lr}
 3125              		.cfi_def_cfa_offset 12
 3126              		.cfi_offset 4, -12
 3127              		.cfi_offset 5, -8
 3128              		.cfi_offset 14, -4
 3129 000a 93B0     		sub	sp, sp, #76
 3130              		.cfi_def_cfa_offset 88
 3131 000c 0446     		mov	r4, r0
 3132              		.loc 1 996 0
 3133 000e FFF7FEFF 		bl	mc_interface_dccal_done
 3134              	.LVL218:
 3135 0012 10B1     		cbz	r0, .L379
ARM GAS  C:\Users\CHRIST~1\AppData\Local\Temp\ccTNSWKS.s 			page 56


 3136              		.loc 1 996 0 is_stmt 0 discriminator 1
 3137 0014 424B     		ldr	r3, .L388
 3138 0016 1B78     		ldrb	r3, [r3]	@ zero_extendqisi2
 3139 0018 A3B1     		cbz	r3, .L387
 3140              	.L379:
 3141              		.loc 1 1027 0 is_stmt 1
 3142 001a 424B     		ldr	r3, .L388+4
 3143 001c D3F84C11 		ldr	r1, [r3, #332]
 3144 0020 414A     		ldr	r2, .L388+8
 3145 0022 1160     		str	r1, [r2]
 3146              		.loc 1 1029 0
 3147 0024 9B78     		ldrb	r3, [r3, #2]	@ zero_extendqisi2
 3148 0026 DBB2     		uxtb	r3, r3
 3149 0028 012B     		cmp	r3, #1
 3150 002a 72D9     		bls	.L381
 3151 002c 022B     		cmp	r3, #2
 3152 002e 73D0     		beq	.L382
 3153              	.L380:
 3154              		.loc 1 1043 0
 3155 0030 3B4B     		ldr	r3, .L388
 3156 0032 1C70     		strb	r4, [r3]
 3157              		.loc 1 1044 0
 3158 0034 13B0     		add	sp, sp, #76
 3159              		.cfi_def_cfa_offset 12
 3160              		@ sp needed
 3161 0036 30BD     		pop	{r4, r5, pc}
 3162              	.LVL219:
 3163              	.L386:
 3164              		.cfi_def_cfa_offset 0
 3165              		.cfi_restore 4
 3166              		.cfi_restore 5
 3167              		.cfi_restore 14
 3168              		.loc 1 992 0
 3169 0038 3A4B     		ldr	r3, .L388+4
 3170 003a D3F84C21 		ldr	r2, [r3, #332]
 3171 003e 3A4B     		ldr	r3, .L388+8
 3172 0040 1A60     		str	r2, [r3]
 3173 0042 7047     		bx	lr
 3174              	.LVL220:
 3175              	.L387:
 3176              		.cfi_def_cfa_offset 88
 3177              		.cfi_offset 4, -12
 3178              		.cfi_offset 5, -8
 3179              		.cfi_offset 14, -4
 3180              	.LBB93:
 3181              		.loc 1 999 0
 3182 0044 FFF7FEFF 		bl	utils_sys_lock_cnt
 3183              	.LVL221:
 3184              		.loc 1 1000 0
 3185 0048 384B     		ldr	r3, .L388+12
 3186 004a 5B6B     		ldr	r3, [r3, #52]
 3187 004c 0193     		str	r3, [sp, #4]
 3188              		.loc 1 1001 0
 3189 004e 384B     		ldr	r3, .L388+16
 3190 0050 1A6C     		ldr	r2, [r3, #64]
 3191 0052 0292     		str	r2, [sp, #8]
 3192              		.loc 1 1002 0
ARM GAS  C:\Users\CHRIST~1\AppData\Local\Temp\ccTNSWKS.s 			page 57


 3193 0054 DB6A     		ldr	r3, [r3, #44]
 3194 0056 0393     		str	r3, [sp, #12]
 3195              		.loc 1 1003 0
 3196 0058 FFF7FEFF 		bl	utils_sys_unlock_cnt
 3197              	.LVL222:
 3198              		.loc 1 1006 0
 3199 005c 8DF81040 		strb	r4, [sp, #16]
 3200              		.loc 1 1007 0
 3201 0060 FFF7FEFF 		bl	mc_interface_get_tot_current
 3202              	.LVL223:
 3203 0064 8DED050A 		vstr.32	s0, [sp, #20]
 3204              		.loc 1 1008 0
 3205 0068 FFF7FEFF 		bl	mc_interface_get_tot_current_filtered
 3206              	.LVL224:
 3207 006c 8DED060A 		vstr.32	s0, [sp, #24]
 3208              		.loc 1 1009 0
 3209 0070 304D     		ldr	r5, .L388+20
 3210 0072 2B8A     		ldrh	r3, [r5, #16]
 3211 0074 9BB2     		uxth	r3, r3
 3212 0076 07EE903A 		vmov	s15, r3	@ int
 3213 007a F8EE677A 		vcvt.f32.u32	s15, s15
 3214 007e 9FED2E7A 		vldr.32	s14, .L388+24
 3215 0082 67EE877A 		vmul.f32	s15, s15, s14
 3216 0086 9FED2D7A 		vldr.32	s14, .L388+28
 3217 008a 67EE877A 		vmul.f32	s15, s15, s14
 3218 008e CDED077A 		vstr.32	s15, [sp, #28]
 3219              		.loc 1 1010 0
 3220 0092 FFF7FEFF 		bl	mc_interface_get_duty_cycle_now
 3221              	.LVL225:
 3222 0096 8DED080A 		vstr.32	s0, [sp, #32]
 3223              		.loc 1 1011 0
 3224 009a FFF7FEFF 		bl	mc_interface_get_rpm
 3225              	.LVL226:
 3226 009e 8DED090A 		vstr.32	s0, [sp, #36]
 3227              		.loc 1 1012 0
 3228 00a2 0020     		movs	r0, #0
 3229 00a4 FFF7FEFF 		bl	mc_interface_get_tachometer_value
 3230              	.LVL227:
 3231 00a8 0A90     		str	r0, [sp, #40]
 3232              		.loc 1 1013 0
 3233 00aa 254B     		ldr	r3, .L388+32
 3234 00ac 1B68     		ldr	r3, [r3]
 3235 00ae 0B93     		str	r3, [sp, #44]
 3236              		.loc 1 1014 0
 3237 00b0 019B     		ldr	r3, [sp, #4]
 3238 00b2 0C93     		str	r3, [sp, #48]
 3239              		.loc 1 1015 0
 3240 00b4 029B     		ldr	r3, [sp, #8]
 3241 00b6 0D93     		str	r3, [sp, #52]
 3242              		.loc 1 1016 0
 3243 00b8 039B     		ldr	r3, [sp, #12]
 3244 00ba 0E93     		str	r3, [sp, #56]
 3245              		.loc 1 1017 0
 3246 00bc FFF7FEFF 		bl	mcpwm_get_comm_step
 3247              	.LVL228:
 3248 00c0 0F90     		str	r0, [sp, #60]
 3249              		.loc 1 1018 0
ARM GAS  C:\Users\CHRIST~1\AppData\Local\Temp\ccTNSWKS.s 			page 58


 3250 00c2 6B89     		ldrh	r3, [r5, #10]
 3251 00c4 9BB2     		uxth	r3, r3
 3252 00c6 07EE903A 		vmov	s15, r3	@ int
 3253 00ca F8EEE77A 		vcvt.f32.s32	s15, s15
 3254 00ce DFED1D6A 		vldr.32	s13, .L388+36
 3255 00d2 86EEA77A 		vdiv.f32	s14, s13, s15
 3256 00d6 9FED1C0A 		vldr.32	s0, .L388+40
 3257 00da 37EE407A 		vsub.f32	s14, s14, s0
 3258 00de 87EE000A 		vdiv.f32	s0, s14, s0
 3259 00e2 FFF7FEFF 		bl	logf
 3260              	.LVL229:
 3261 00e6 DFED197A 		vldr.32	s15, .L388+44
 3262 00ea 80EE270A 		vdiv.f32	s0, s0, s15
 3263 00ee DFED187A 		vldr.32	s15, .L388+48
 3264 00f2 30EE270A 		vadd.f32	s0, s0, s15
 3265 00f6 B7EE007A 		vmov.f32	s14, #1.0e+0
 3266 00fa C7EE007A 		vdiv.f32	s15, s14, s0
 3267 00fe 9FED157A 		vldr.32	s14, .L388+52
 3268 0102 77EEC77A 		vsub.f32	s15, s15, s14
 3269 0106 CDED107A 		vstr.32	s15, [sp, #64]
 3270              		.loc 1 1024 0
 3271 010a 04A8     		add	r0, sp, #16
 3272 010c FFF7FEFF 		bl	terminal_add_fault_data
 3273              	.LVL230:
 3274 0110 83E7     		b	.L379
 3275              	.L381:
 3276              	.LBE93:
 3277              		.loc 1 1032 0
 3278 0112 FFF7FEFF 		bl	mcpwm_stop_pwm
 3279              	.LVL231:
 3280              		.loc 1 1033 0
 3281 0116 8BE7     		b	.L380
 3282              	.L382:
 3283              		.loc 1 1036 0
 3284 0118 FFF7FEFF 		bl	mcpwm_foc_stop_pwm
 3285              	.LVL232:
 3286              		.loc 1 1037 0
 3287 011c 88E7     		b	.L380
 3288              	.L389:
 3289 011e 00BF     		.align	2
 3290              	.L388:
 3291 0120 00000000 		.word	.LANCHOR13
 3292 0124 00000000 		.word	.LANCHOR12
 3293 0128 00000000 		.word	.LANCHOR14
 3294 012c 00040140 		.word	1073808384
 3295 0130 00000140 		.word	1073807360
 3296 0134 00000000 		.word	.LANCHOR40
 3297 0138 6740533A 		.word	978534503
 3298 013c 74D19541 		.word	1100337524
 3299 0140 00000000 		.word	.LANCHOR15
 3300 0144 3C361C4C 		.word	1276917308
 3301 0148 00401C46 		.word	1176256512
 3302 014c 00A05645 		.word	1163304960
 3303 0150 0FCF5B3B 		.word	995872527
 3304 0154 33938843 		.word	1133024051
 3305              		.cfi_endproc
 3306              	.LFE306:
ARM GAS  C:\Users\CHRIST~1\AppData\Local\Temp\ccTNSWKS.s 			page 59


 3307              		.size	mc_interface_fault_stop, .-mc_interface_fault_stop
 3308              		.section	.text.update_override_limits,"ax",%progbits
 3309              		.align	1
 3310              		.p2align 4,,15
 3311              		.syntax unified
 3312              		.thumb
 3313              		.thumb_func
 3314              		.fpu fpv4-sp-d16
 3315              		.type	update_override_limits, %function
 3316              	update_override_limits:
 3317              	.LFB309:
 3318              		.loc 1 1300 0
 3319              		.cfi_startproc
 3320              		@ args = 0, pretend = 0, frame = 0
 3321              		@ frame_needed = 0, uses_anonymous_args = 0
 3322              	.LVL233:
 3323 0000 F8B5     		push	{r3, r4, r5, r6, r7, lr}
 3324              		.cfi_def_cfa_offset 24
 3325              		.cfi_offset 3, -24
 3326              		.cfi_offset 4, -20
 3327              		.cfi_offset 5, -16
 3328              		.cfi_offset 6, -12
 3329              		.cfi_offset 7, -8
 3330              		.cfi_offset 14, -4
 3331 0002 2DED0A8B 		vpush.64	{d8, d9, d10, d11, d12}
 3332              		.cfi_def_cfa_offset 64
 3333              		.cfi_offset 80, -64
 3334              		.cfi_offset 81, -60
 3335              		.cfi_offset 82, -56
 3336              		.cfi_offset 83, -52
 3337              		.cfi_offset 84, -48
 3338              		.cfi_offset 85, -44
 3339              		.cfi_offset 86, -40
 3340              		.cfi_offset 87, -36
 3341              		.cfi_offset 88, -32
 3342              		.cfi_offset 89, -28
 3343 0006 0446     		mov	r4, r0
 3344              		.loc 1 1301 0
 3345 0008 D64F     		ldr	r7, .L486
 3346 000a 3B8A     		ldrh	r3, [r7, #16]
 3347 000c 9BB2     		uxth	r3, r3
 3348 000e 08EE103A 		vmov	s16, r3	@ int
 3349 0012 B8EE488A 		vcvt.f32.u32	s16, s16
 3350 0016 DFEDD47A 		vldr.32	s15, .L486+4
 3351 001a 28EE278A 		vmul.f32	s16, s16, s15
 3352 001e DFEDD37A 		vldr.32	s15, .L486+8
 3353 0022 28EE278A 		vmul.f32	s16, s16, s15
 3354              	.LVL234:
 3355              		.loc 1 1302 0
 3356 0026 FFF7FEFF 		bl	mc_interface_get_rpm
 3357              	.LVL235:
 3358 002a B0EE40AA 		vmov.f32	s20, s0
 3359              	.LVL236:
 3360              		.loc 1 1304 0
 3361 002e D04D     		ldr	r5, .L486+12
 3362 0030 95ED009A 		vldr.32	s18, [r5]
 3363 0034 7B89     		ldrh	r3, [r7, #10]
ARM GAS  C:\Users\CHRIST~1\AppData\Local\Temp\ccTNSWKS.s 			page 60


 3364 0036 9BB2     		uxth	r3, r3
 3365 0038 07EE903A 		vmov	s15, r3	@ int
 3366 003c F8EEE77A 		vcvt.f32.s32	s15, s15
 3367 0040 9FEDCC7A 		vldr.32	s14, .L486+16
 3368 0044 87EE270A 		vdiv.f32	s0, s14, s15
 3369              	.LVL237:
 3370 0048 DFEDCB9A 		vldr.32	s19, .L486+20
 3371 004c 30EE690A 		vsub.f32	s0, s0, s19
 3372 0050 80EE290A 		vdiv.f32	s0, s0, s19
 3373 0054 FFF7FEFF 		bl	logf
 3374              	.LVL238:
 3375 0058 D5ED007A 		vldr.32	s15, [r5]
 3376 005c 9FEDC77A 		vldr.32	s14, .L486+24
 3377 0060 80EE070A 		vdiv.f32	s0, s0, s14
 3378 0064 9FEDC6CA 		vldr.32	s24, .L486+28
 3379 0068 30EE0C0A 		vadd.f32	s0, s0, s24
 3380 006c F7EE00AA 		vmov.f32	s21, #1.0e+0
 3381 0070 8AEE807A 		vdiv.f32	s14, s21, s0
 3382 0074 DFEDC3BA 		vldr.32	s23, .L486+32
 3383 0078 37EE6B7A 		vsub.f32	s14, s14, s23
 3384 007c 39EE479A 		vsub.f32	s18, s18, s14
 3385 0080 9FEDC1BA 		vldr.32	s22, .L486+36
 3386 0084 29EE0B9A 		vmul.f32	s18, s18, s22
 3387 0088 37EEC99A 		vsub.f32	s18, s15, s18
 3388 008c 85ED009A 		vstr.32	s18, [r5]
 3389              		.loc 1 1305 0
 3390 0090 BE4E     		ldr	r6, .L486+40
 3391 0092 D6ED008A 		vldr.32	s17, [r6]
 3392 0096 FB8A     		ldrh	r3, [r7, #22]
 3393 0098 9BB2     		uxth	r3, r3
 3394 009a 07EE903A 		vmov	s15, r3	@ int
 3395 009e F8EE677A 		vcvt.f32.u32	s15, s15
 3396 00a2 DFEDBB6A 		vldr.32	s13, .L486+44
 3397 00a6 86EEA77A 		vdiv.f32	s14, s13, s15
 3398 00aa 77EE6A7A 		vsub.f32	s15, s14, s21
 3399 00ae 89EEA70A 		vdiv.f32	s0, s19, s15
 3400 00b2 80EE290A 		vdiv.f32	s0, s0, s19
 3401 00b6 FFF7FEFF 		bl	logf
 3402              	.LVL239:
 3403 00ba 94ED5C7A 		vldr.32	s14, [r4, #368]
 3404 00be D6ED007A 		vldr.32	s15, [r6]
 3405 00c2 80EE070A 		vdiv.f32	s0, s0, s14
 3406 00c6 30EE0C0A 		vadd.f32	s0, s0, s24
 3407 00ca 8AEE807A 		vdiv.f32	s14, s21, s0
 3408 00ce 37EE6B7A 		vsub.f32	s14, s14, s23
 3409 00d2 78EEC78A 		vsub.f32	s17, s17, s14
 3410 00d6 68EE8B8A 		vmul.f32	s17, s17, s22
 3411 00da 77EEE88A 		vsub.f32	s17, s15, s17
 3412 00de C6ED008A 		vstr.32	s17, [r6]
 3413              	.LVL240:
 3414              		.loc 1 1310 0
 3415 00e2 94ED107A 		vldr.32	s14, [r4, #64]
 3416 00e6 D5ED007A 		vldr.32	s15, [r5]
 3417 00ea B4EEE77A 		vcmpe.f32	s14, s15
 3418 00ee F1EE10FA 		vmrs	APSR_nzcv, FPSCR
 3419 00f2 40F3D280 		ble	.L464
 3420              		.loc 1 1311 0
ARM GAS  C:\Users\CHRIST~1\AppData\Local\Temp\ccTNSWKS.s 			page 61


 3421 00f6 94ED029A 		vldr.32	s18, [r4, #8]
 3422              	.LVL241:
 3423              		.loc 1 1312 0
 3424 00fa D4ED01AA 		vldr.32	s21, [r4, #4]
 3425              	.LVL242:
 3426              	.L393:
 3427              		.loc 1 1337 0
 3428 00fe 94ED127A 		vldr.32	s14, [r4, #72]
 3429 0102 A24B     		ldr	r3, .L486+40
 3430 0104 D3ED007A 		vldr.32	s15, [r3]
 3431 0108 B4EEE77A 		vcmpe.f32	s14, s15
 3432 010c F1EE10FA 		vmrs	APSR_nzcv, FPSCR
 3433 0110 40F34281 		ble	.L468
 3434              		.loc 1 1338 0
 3435 0114 D4ED029A 		vldr.32	s19, [r4, #8]
 3436              	.LVL243:
 3437              		.loc 1 1339 0
 3438 0118 94ED01BA 		vldr.32	s22, [r4, #4]
 3439              	.LVL244:
 3440              	.L405:
 3441              		.loc 1 1363 0
 3442 011c 94ED140A 		vldr.32	s0, [r4, #80]
 3443 0120 D4ED101A 		vldr.32	s3, [r4, #64]
 3444 0124 DFED9B8A 		vldr.32	s17, .L486+48
 3445 0128 B3EE092A 		vmov.f32	s4, #2.5e+1
 3446 012c B7EE001A 		vmov.f32	s2, #1.0e+0
 3447 0130 F0EE680A 		vmov.f32	s1, s17
 3448 0134 FFF7FEFF 		bl	utils_map
 3449              	.LVL245:
 3450 0138 B0EE40CA 		vmov.f32	s24, s0
 3451              	.LVL246:
 3452              		.loc 1 1364 0
 3453 013c 94ED140A 		vldr.32	s0, [r4, #80]
 3454              	.LVL247:
 3455 0140 D4ED111A 		vldr.32	s3, [r4, #68]
 3456 0144 B3EE092A 		vmov.f32	s4, #2.5e+1
 3457 0148 B7EE001A 		vmov.f32	s2, #1.0e+0
 3458 014c F0EE680A 		vmov.f32	s1, s17
 3459 0150 FFF7FEFF 		bl	utils_map
 3460              	.LVL248:
 3461 0154 F0EE40CA 		vmov.f32	s25, s0
 3462              	.LVL249:
 3463              		.loc 1 1365 0
 3464 0158 94ED140A 		vldr.32	s0, [r4, #80]
 3465              	.LVL250:
 3466 015c D4ED121A 		vldr.32	s3, [r4, #72]
 3467 0160 B3EE092A 		vmov.f32	s4, #2.5e+1
 3468 0164 B7EE001A 		vmov.f32	s2, #1.0e+0
 3469 0168 F0EE680A 		vmov.f32	s1, s17
 3470 016c FFF7FEFF 		bl	utils_map
 3471              	.LVL251:
 3472 0170 F0EE40BA 		vmov.f32	s23, s0
 3473              	.LVL252:
 3474              		.loc 1 1366 0
 3475 0174 94ED140A 		vldr.32	s0, [r4, #80]
 3476              	.LVL253:
 3477 0178 D4ED131A 		vldr.32	s3, [r4, #76]
ARM GAS  C:\Users\CHRIST~1\AppData\Local\Temp\ccTNSWKS.s 			page 62


 3478 017c B3EE092A 		vmov.f32	s4, #2.5e+1
 3479 0180 B7EE001A 		vmov.f32	s2, #1.0e+0
 3480 0184 F0EE680A 		vmov.f32	s1, s17
 3481 0188 FFF7FEFF 		bl	utils_map
 3482              	.LVL254:
 3483 018c F0EE408A 		vmov.f32	s17, s0
 3484              	.LVL255:
 3485              		.loc 1 1369 0
 3486 0190 774B     		ldr	r3, .L486+12
 3487 0192 D3ED007A 		vldr.32	s15, [r3]
 3488 0196 F4EECC7A 		vcmpe.f32	s15, s24
 3489 019a F1EE10FA 		vmrs	APSR_nzcv, FPSCR
 3490 019e 40F16081 		bpl	.L472
 3491              		.loc 1 1370 0
 3492 01a2 94ED01CA 		vldr.32	s24, [r4, #4]
 3493              	.LVL256:
 3494              	.L417:
 3495              		.loc 1 1379 0
 3496 01a6 794B     		ldr	r3, .L486+40
 3497 01a8 D3ED007A 		vldr.32	s15, [r3]
 3498 01ac F4EEEB7A 		vcmpe.f32	s15, s23
 3499 01b0 F1EE10FA 		vmrs	APSR_nzcv, FPSCR
 3500 01b4 40F16F81 		bpl	.L473
 3501              		.loc 1 1380 0
 3502 01b8 D4ED01BA 		vldr.32	s23, [r4, #4]
 3503              	.LVL257:
 3504              	.L420:
 3505              		.loc 1 1390 0
 3506 01bc D4ED070A 		vldr.32	s1, [r4, #28]
 3507 01c0 D4ED087A 		vldr.32	s15, [r4, #32]
 3508 01c4 60EEA70A 		vmul.f32	s1, s1, s15
 3509              	.LVL258:
 3510              		.loc 1 1391 0
 3511 01c8 94ED071A 		vldr.32	s2, [r4, #28]
 3512              	.LVL259:
 3513              		.loc 1 1392 0
 3514 01cc B4EEE0AA 		vcmpe.f32	s20, s1
 3515 01d0 F1EE10FA 		vmrs	APSR_nzcv, FPSCR
 3516 01d4 40F17981 		bpl	.L474
 3517              		.loc 1 1393 0
 3518 01d8 D4ED01CA 		vldr.32	s25, [r4, #4]
 3519              	.LVL260:
 3520              	.L423:
 3521              		.loc 1 1402 0
 3522 01dc D4ED060A 		vldr.32	s1, [r4, #24]
 3523 01e0 D4ED087A 		vldr.32	s15, [r4, #32]
 3524 01e4 60EEA70A 		vmul.f32	s1, s1, s15
 3525              	.LVL261:
 3526              		.loc 1 1403 0
 3527 01e8 94ED061A 		vldr.32	s2, [r4, #24]
 3528              	.LVL262:
 3529              		.loc 1 1404 0
 3530 01ec B4EEE0AA 		vcmpe.f32	s20, s1
 3531 01f0 F1EE10FA 		vmrs	APSR_nzcv, FPSCR
 3532 01f4 40F37C81 		ble	.L475
 3533              		.loc 1 1405 0
 3534 01f8 94ED01AA 		vldr.32	s20, [r4, #4]
ARM GAS  C:\Users\CHRIST~1\AppData\Local\Temp\ccTNSWKS.s 			page 63


 3535              	.LVL263:
 3536              	.L426:
 3537              		.loc 1 1412 0
 3538 01fc F0EE4B0A 		vmov.f32	s1, s22
 3539 0200 B0EE6A0A 		vmov.f32	s0, s21
 3540 0204 FFF7FEFF 		bl	utils_min_abs
 3541              	.LVL264:
 3542 0208 F0EE40AA 		vmov.f32	s21, s0
 3543              	.LVL265:
 3544              		.loc 1 1413 0
 3545 020c F0EE690A 		vmov.f32	s1, s19
 3546 0210 B0EE490A 		vmov.f32	s0, s18
 3547              	.LVL266:
 3548 0214 FFF7FEFF 		bl	utils_min_abs
 3549              	.LVL267:
 3550 0218 F0EE408A 		vmov.f32	s17, s0
 3551              	.LVL268:
 3552              		.loc 1 1415 0
 3553 021c F0EE6C0A 		vmov.f32	s1, s25
 3554 0220 B0EE6A0A 		vmov.f32	s0, s21
 3555              	.LVL269:
 3556 0224 FFF7FEFF 		bl	utils_min_abs
 3557              	.LVL270:
 3558              		.loc 1 1416 0
 3559 0228 F0EE4A0A 		vmov.f32	s1, s20
 3560 022c FFF7FEFF 		bl	utils_min_abs
 3561              	.LVL271:
 3562              		.loc 1 1417 0
 3563 0230 F0EE4C0A 		vmov.f32	s1, s24
 3564 0234 FFF7FEFF 		bl	utils_min_abs
 3565              	.LVL272:
 3566              		.loc 1 1418 0
 3567 0238 F0EE6B0A 		vmov.f32	s1, s23
 3568 023c FFF7FEFF 		bl	utils_min_abs
 3569              	.LVL273:
 3570              		.loc 1 1420 0
 3571 0240 D4ED507A 		vldr.32	s15, [r4, #320]
 3572 0244 F4EEC07A 		vcmpe.f32	s15, s0
 3573 0248 F1EE10FA 		vmrs	APSR_nzcv, FPSCR
 3574              		.loc 1 1421 0
 3575 024c C8BF     		it	gt
 3576 024e 94ED500A 		vldrgt.32	s0, [r4, #320]
 3577              	.LVL274:
 3578              		.loc 1 1424 0
 3579 0252 D4ED507A 		vldr.32	s15, [r4, #320]
 3580 0256 F1EE677A 		vneg.f32	s15, s15
 3581 025a F4EEE87A 		vcmpe.f32	s15, s17
 3582 025e F1EE10FA 		vmrs	APSR_nzcv, FPSCR
 3583              		.loc 1 1425 0
 3584 0262 44BF     		itt	mi
 3585 0264 D4ED508A 		vldrmi.32	s17, [r4, #320]
 3586              	.LVL275:
 3587 0268 F1EE688A 		vnegmi.f32	s17, s17
 3588              	.LVL276:
 3589              		.loc 1 1428 0
 3590 026c 84ED190A 		vstr.32	s0, [r4, #100]
 3591              		.loc 1 1429 0
ARM GAS  C:\Users\CHRIST~1\AppData\Local\Temp\ccTNSWKS.s 			page 64


 3592 0270 C4ED1A8A 		vstr.32	s17, [r4, #104]
 3593              	.LVL277:
 3594              		.loc 1 1433 0
 3595 0274 D4ED0D7A 		vldr.32	s15, [r4, #52]
 3596 0278 F4EEC87A 		vcmpe.f32	s15, s16
 3597 027c F1EE10FA 		vmrs	APSR_nzcv, FPSCR
 3598 0280 00F14981 		bmi	.L478
 3599              		.loc 1 1435 0
 3600 0284 D4ED0E7A 		vldr.32	s15, [r4, #56]
 3601 0288 F4EEC87A 		vcmpe.f32	s15, s16
 3602 028c F1EE10FA 		vmrs	APSR_nzcv, FPSCR
 3603 0290 40F36681 		ble	.L479
 3604              		.loc 1 1436 0
 3605 0294 DFED3F0A 		vldr.32	s1, .L486+48
 3606 0298 3FE1     		b	.L433
 3607              	.LVL278:
 3608              	.L464:
 3609              		.loc 1 1313 0
 3610 029a 94ED117A 		vldr.32	s14, [r4, #68]
 3611 029e 344B     		ldr	r3, .L486+12
 3612 02a0 D3ED007A 		vldr.32	s15, [r3]
 3613 02a4 B4EEE77A 		vcmpe.f32	s14, s15
 3614 02a8 F1EE10FA 		vmrs	APSR_nzcv, FPSCR
 3615 02ac 4CD4     		bmi	.L480
 3616              	.LBB94:
 3617              		.loc 1 1318 0
 3618 02ae D4ED011A 		vldr.32	s3, [r4, #4]
 3619 02b2 F0EEE11A 		vabs.f32	s3, s3
 3620              	.LVL279:
 3621              		.loc 1 1319 0
 3622 02b6 D4ED027A 		vldr.32	s15, [r4, #8]
 3623 02ba F0EEE77A 		vabs.f32	s15, s15
 3624 02be F4EEE17A 		vcmpe.f32	s15, s3
 3625 02c2 F1EE10FA 		vmrs	APSR_nzcv, FPSCR
 3626              		.loc 1 1320 0
 3627 02c6 C4BF     		itt	gt
 3628 02c8 D4ED021A 		vldrgt.32	s3, [r4, #8]
 3629              	.LVL280:
 3630 02cc F0EEE11A 		vabsgt.f32	s3, s3
 3631              	.LVL281:
 3632              		.loc 1 1323 0
 3633 02d0 274B     		ldr	r3, .L486+12
 3634 02d2 93ED000A 		vldr.32	s0, [r3]
 3635 02d6 D4ED100A 		vldr.32	s1, [r4, #64]
 3636 02da 94ED111A 		vldr.32	s2, [r4, #68]
 3637 02de 9FED2D2A 		vldr.32	s4, .L486+48
 3638 02e2 FFF7FEFF 		bl	utils_map
 3639              	.LVL282:
 3640              		.loc 1 1325 0
 3641 02e6 D4ED017A 		vldr.32	s15, [r4, #4]
 3642 02ea F0EEE77A 		vabs.f32	s15, s15
 3643 02ee F4EEC07A 		vcmpe.f32	s15, s0
 3644 02f2 F1EE10FA 		vmrs	APSR_nzcv, FPSCR
 3645 02f6 2FDD     		ble	.L466
 3646              		.loc 1 1326 0
 3647 02f8 D4ED017A 		vldr.32	s15, [r4, #4]
 3648 02fc F5EEC07A 		vcmpe.f32	s15, #0
ARM GAS  C:\Users\CHRIST~1\AppData\Local\Temp\ccTNSWKS.s 			page 65


 3649 0300 F1EE10FA 		vmrs	APSR_nzcv, FPSCR
 3650 0304 FFEE00AA 		vmov.f32	s21, #-1.0e+0
 3651 0308 F7EE007A 		vmov.f32	s15, #1.0e+0
 3652 030c 58BF     		it	pl
 3653 030e F0EE67AA 		vmovpl.f32	s21, s15
 3654 0312 6AEE80AA 		vmul.f32	s21, s21, s0
 3655              	.LVL283:
 3656              	.L398:
 3657              		.loc 1 1329 0
 3658 0316 D4ED027A 		vldr.32	s15, [r4, #8]
 3659 031a F0EEE77A 		vabs.f32	s15, s15
 3660 031e F4EEC07A 		vcmpe.f32	s15, s0
 3661 0322 F1EE10FA 		vmrs	APSR_nzcv, FPSCR
 3662 0326 1ADD     		ble	.L467
 3663              		.loc 1 1330 0
 3664 0328 D4ED027A 		vldr.32	s15, [r4, #8]
 3665 032c F5EEC07A 		vcmpe.f32	s15, #0
 3666 0330 F1EE10FA 		vmrs	APSR_nzcv, FPSCR
 3667 0334 BFEE009A 		vmov.f32	s18, #-1.0e+0
 3668 0338 F7EE007A 		vmov.f32	s15, #1.0e+0
 3669 033c 58BF     		it	pl
 3670 033e B0EE679A 		vmovpl.f32	s18, s15
 3671 0342 29EE009A 		vmul.f32	s18, s18, s0
 3672              	.LVL284:
 3673 0346 DAE6     		b	.L393
 3674              	.LVL285:
 3675              	.L480:
 3676              	.LBE94:
 3677              		.loc 1 1316 0
 3678 0348 0520     		movs	r0, #5
 3679 034a FFF7FEFF 		bl	mc_interface_fault_stop
 3680              	.LVL286:
 3681              		.loc 1 1314 0
 3682 034e 9FED119A 		vldr.32	s18, .L486+48
 3683              		.loc 1 1315 0
 3684 0352 F0EE49AA 		vmov.f32	s21, s18
 3685 0356 D2E6     		b	.L393
 3686              	.LVL287:
 3687              	.L466:
 3688              		.loc 1 1308 0
 3689 0358 DFED0EAA 		vldr.32	s21, .L486+48
 3690 035c DBE7     		b	.L398
 3691              	.LVL288:
 3692              	.L467:
 3693              		.loc 1 1309 0
 3694 035e 9FED0D9A 		vldr.32	s18, .L486+48
 3695 0362 CCE6     		b	.L393
 3696              	.L487:
 3697              		.align	2
 3698              	.L486:
 3699 0364 00000000 		.word	.LANCHOR40
 3700 0368 6740533A 		.word	978534503
 3701 036c 74D19541 		.word	1100337524
 3702 0370 00000000 		.word	.LANCHOR32
 3703 0374 3C361C4C 		.word	1276917308
 3704 0378 00401C46 		.word	1176256512
 3705 037c 00A05645 		.word	1163304960
ARM GAS  C:\Users\CHRIST~1\AppData\Local\Temp\ccTNSWKS.s 			page 66


 3706 0380 0FCF5B3B 		.word	995872527
 3707 0384 33938843 		.word	1133024051
 3708 0388 CDCCCC3D 		.word	1036831949
 3709 038c 00000000 		.word	.LANCHOR33
 3710 0390 00F07F45 		.word	1166012416
 3711 0394 00000000 		.word	0
 3712              	.LVL289:
 3713              	.L468:
 3714              		.loc 1 1340 0
 3715 0398 94ED137A 		vldr.32	s14, [r4, #76]
 3716 039c 784B     		ldr	r3, .L488
 3717 039e D3ED007A 		vldr.32	s15, [r3]
 3718 03a2 B4EEE77A 		vcmpe.f32	s14, s15
 3719 03a6 F1EE10FA 		vmrs	APSR_nzcv, FPSCR
 3720 03aa 4CD4     		bmi	.L481
 3721              	.LBB95:
 3722              		.loc 1 1345 0
 3723 03ac D4ED011A 		vldr.32	s3, [r4, #4]
 3724 03b0 F0EEE11A 		vabs.f32	s3, s3
 3725              	.LVL290:
 3726              		.loc 1 1346 0
 3727 03b4 D4ED027A 		vldr.32	s15, [r4, #8]
 3728 03b8 F0EEE77A 		vabs.f32	s15, s15
 3729 03bc F4EEE17A 		vcmpe.f32	s15, s3
 3730 03c0 F1EE10FA 		vmrs	APSR_nzcv, FPSCR
 3731              		.loc 1 1347 0
 3732 03c4 C4BF     		itt	gt
 3733 03c6 D4ED021A 		vldrgt.32	s3, [r4, #8]
 3734              	.LVL291:
 3735 03ca F0EEE11A 		vabsgt.f32	s3, s3
 3736              	.LVL292:
 3737              		.loc 1 1350 0
 3738 03ce 6C4B     		ldr	r3, .L488
 3739 03d0 93ED000A 		vldr.32	s0, [r3]
 3740 03d4 D4ED120A 		vldr.32	s1, [r4, #72]
 3741 03d8 94ED131A 		vldr.32	s2, [r4, #76]
 3742 03dc 9FED692A 		vldr.32	s4, .L488+4
 3743 03e0 FFF7FEFF 		bl	utils_map
 3744              	.LVL293:
 3745              		.loc 1 1352 0
 3746 03e4 D4ED017A 		vldr.32	s15, [r4, #4]
 3747 03e8 F0EEE77A 		vabs.f32	s15, s15
 3748 03ec F4EEC07A 		vcmpe.f32	s15, s0
 3749 03f0 F1EE10FA 		vmrs	APSR_nzcv, FPSCR
 3750 03f4 2FDD     		ble	.L470
 3751              		.loc 1 1353 0
 3752 03f6 D4ED017A 		vldr.32	s15, [r4, #4]
 3753 03fa F5EEC07A 		vcmpe.f32	s15, #0
 3754 03fe F1EE10FA 		vmrs	APSR_nzcv, FPSCR
 3755 0402 BFEE00BA 		vmov.f32	s22, #-1.0e+0
 3756 0406 F7EE007A 		vmov.f32	s15, #1.0e+0
 3757 040a 58BF     		it	pl
 3758 040c B0EE67BA 		vmovpl.f32	s22, s15
 3759 0410 2BEE00BA 		vmul.f32	s22, s22, s0
 3760              	.LVL294:
 3761              	.L410:
 3762              		.loc 1 1356 0
ARM GAS  C:\Users\CHRIST~1\AppData\Local\Temp\ccTNSWKS.s 			page 67


 3763 0414 D4ED027A 		vldr.32	s15, [r4, #8]
 3764 0418 F0EEE77A 		vabs.f32	s15, s15
 3765 041c F4EEC07A 		vcmpe.f32	s15, s0
 3766 0420 F1EE10FA 		vmrs	APSR_nzcv, FPSCR
 3767 0424 1ADD     		ble	.L471
 3768              		.loc 1 1357 0
 3769 0426 D4ED027A 		vldr.32	s15, [r4, #8]
 3770 042a F5EEC07A 		vcmpe.f32	s15, #0
 3771 042e F1EE10FA 		vmrs	APSR_nzcv, FPSCR
 3772 0432 FFEE009A 		vmov.f32	s19, #-1.0e+0
 3773 0436 F7EE007A 		vmov.f32	s15, #1.0e+0
 3774 043a 58BF     		it	pl
 3775 043c F0EE679A 		vmovpl.f32	s19, s15
 3776 0440 69EE809A 		vmul.f32	s19, s19, s0
 3777              	.LVL295:
 3778 0444 6AE6     		b	.L405
 3779              	.LVL296:
 3780              	.L481:
 3781              	.LBE95:
 3782              		.loc 1 1343 0
 3783 0446 0620     		movs	r0, #6
 3784 0448 FFF7FEFF 		bl	mc_interface_fault_stop
 3785              	.LVL297:
 3786              		.loc 1 1341 0
 3787 044c DFED4D9A 		vldr.32	s19, .L488+4
 3788              		.loc 1 1342 0
 3789 0450 B0EE69BA 		vmov.f32	s22, s19
 3790 0454 62E6     		b	.L405
 3791              	.LVL298:
 3792              	.L470:
 3793              		.loc 1 1335 0
 3794 0456 9FED4BBA 		vldr.32	s22, .L488+4
 3795 045a DBE7     		b	.L410
 3796              	.LVL299:
 3797              	.L471:
 3798              		.loc 1 1336 0
 3799 045c DFED499A 		vldr.32	s19, .L488+4
 3800 0460 5CE6     		b	.L405
 3801              	.LVL300:
 3802              	.L472:
 3803              		.loc 1 1371 0
 3804 0462 494B     		ldr	r3, .L488+8
 3805 0464 D3ED007A 		vldr.32	s15, [r3]
 3806 0468 F4EEEC7A 		vcmpe.f32	s15, s25
 3807 046c F1EE10FA 		vmrs	APSR_nzcv, FPSCR
 3808 0470 02DD     		ble	.L482
 3809              		.loc 1 1372 0
 3810 0472 9FED44CA 		vldr.32	s24, .L488+4
 3811              	.LVL301:
 3812 0476 96E6     		b	.L417
 3813              	.LVL302:
 3814              	.L482:
 3815              		.loc 1 1374 0
 3816 0478 93ED000A 		vldr.32	s0, [r3]
 3817              	.LVL303:
 3818 047c D4ED011A 		vldr.32	s3, [r4, #4]
 3819 0480 9FED402A 		vldr.32	s4, .L488+4
ARM GAS  C:\Users\CHRIST~1\AppData\Local\Temp\ccTNSWKS.s 			page 68


 3820 0484 B0EE6C1A 		vmov.f32	s2, s25
 3821 0488 F0EE4C0A 		vmov.f32	s1, s24
 3822 048c FFF7FEFF 		bl	utils_map
 3823              	.LVL304:
 3824 0490 B0EE40CA 		vmov.f32	s24, s0
 3825              	.LVL305:
 3826 0494 87E6     		b	.L417
 3827              	.LVL306:
 3828              	.L473:
 3829              		.loc 1 1381 0
 3830 0496 3A4B     		ldr	r3, .L488
 3831 0498 D3ED007A 		vldr.32	s15, [r3]
 3832 049c F4EEE87A 		vcmpe.f32	s15, s17
 3833 04a0 F1EE10FA 		vmrs	APSR_nzcv, FPSCR
 3834 04a4 02DD     		ble	.L483
 3835              		.loc 1 1382 0
 3836 04a6 DFED37BA 		vldr.32	s23, .L488+4
 3837              	.LVL307:
 3838 04aa 87E6     		b	.L420
 3839              	.LVL308:
 3840              	.L483:
 3841              		.loc 1 1384 0
 3842 04ac 93ED000A 		vldr.32	s0, [r3]
 3843 04b0 D4ED011A 		vldr.32	s3, [r4, #4]
 3844 04b4 9FED332A 		vldr.32	s4, .L488+4
 3845 04b8 B0EE681A 		vmov.f32	s2, s17
 3846 04bc F0EE6B0A 		vmov.f32	s1, s23
 3847 04c0 FFF7FEFF 		bl	utils_map
 3848              	.LVL309:
 3849 04c4 F0EE40BA 		vmov.f32	s23, s0
 3850              	.LVL310:
 3851 04c8 78E6     		b	.L420
 3852              	.LVL311:
 3853              	.L474:
 3854              		.loc 1 1394 0
 3855 04ca B4EEC1AA 		vcmpe.f32	s20, s2
 3856 04ce F1EE10FA 		vmrs	APSR_nzcv, FPSCR
 3857 04d2 02DD     		ble	.L484
 3858              		.loc 1 1395 0
 3859 04d4 DFED2BCA 		vldr.32	s25, .L488+4
 3860              	.LVL312:
 3861 04d8 80E6     		b	.L423
 3862              	.LVL313:
 3863              	.L484:
 3864              		.loc 1 1397 0
 3865 04da D4ED011A 		vldr.32	s3, [r4, #4]
 3866 04de 9FED292A 		vldr.32	s4, .L488+4
 3867 04e2 B0EE4A0A 		vmov.f32	s0, s20
 3868 04e6 FFF7FEFF 		bl	utils_map
 3869              	.LVL314:
 3870 04ea F0EE40CA 		vmov.f32	s25, s0
 3871              	.LVL315:
 3872 04ee 75E6     		b	.L423
 3873              	.LVL316:
 3874              	.L475:
 3875              		.loc 1 1406 0
 3876 04f0 B4EEC1AA 		vcmpe.f32	s20, s2
ARM GAS  C:\Users\CHRIST~1\AppData\Local\Temp\ccTNSWKS.s 			page 69


 3877 04f4 F1EE10FA 		vmrs	APSR_nzcv, FPSCR
 3878 04f8 02D5     		bpl	.L485
 3879              		.loc 1 1407 0
 3880 04fa 9FED22AA 		vldr.32	s20, .L488+4
 3881              	.LVL317:
 3882 04fe 7DE6     		b	.L426
 3883              	.LVL318:
 3884              	.L485:
 3885              		.loc 1 1409 0
 3886 0500 D4ED011A 		vldr.32	s3, [r4, #4]
 3887 0504 9FED1F2A 		vldr.32	s4, .L488+4
 3888 0508 B0EE4A0A 		vmov.f32	s0, s20
 3889 050c FFF7FEFF 		bl	utils_map
 3890              	.LVL319:
 3891 0510 B0EE40AA 		vmov.f32	s20, s0
 3892              	.LVL320:
 3893 0514 72E6     		b	.L426
 3894              	.LVL321:
 3895              	.L478:
 3896              		.loc 1 1434 0
 3897 0516 D4ED030A 		vldr.32	s1, [r4, #12]
 3898              	.LVL322:
 3899              	.L433:
 3900              		.loc 1 1443 0
 3901 051a 94ED170A 		vldr.32	s0, [r4, #92]
 3902              	.LVL323:
 3903              		.loc 1 1444 0
 3904 051e 94ED187A 		vldr.32	s14, [r4, #96]
 3905 0522 C7EE088A 		vdiv.f32	s17, s14, s16
 3906              	.LVL324:
 3907              		.loc 1 1446 0
 3908 0526 80EE080A 		vdiv.f32	s0, s0, s16
 3909              	.LVL325:
 3910 052a FFF7FEFF 		bl	utils_min_abs
 3911              	.LVL326:
 3912              		.loc 1 1449 0
 3913 052e D4ED037A 		vldr.32	s15, [r4, #12]
 3914 0532 F0EE400A 		vmov.f32	s1, s0
 3915 0536 B0EE670A 		vmov.f32	s0, s15
 3916              	.LVL327:
 3917 053a FFF7FEFF 		bl	utils_min_abs
 3918              	.LVL328:
 3919 053e 84ED1B0A 		vstr.32	s0, [r4, #108]
 3920              		.loc 1 1450 0
 3921 0542 94ED040A 		vldr.32	s0, [r4, #16]
 3922 0546 F0EE680A 		vmov.f32	s1, s17
 3923 054a FFF7FEFF 		bl	utils_min_abs
 3924              	.LVL329:
 3925 054e 84ED1C0A 		vstr.32	s0, [r4, #112]
 3926              		.loc 1 1470 0
 3927 0552 636E     		ldr	r3, [r4, #100]	@ float
 3928 0554 6367     		str	r3, [r4, #116]	@ float
 3929              		.loc 1 1471 0
 3930 0556 A36E     		ldr	r3, [r4, #104]	@ float
 3931 0558 A367     		str	r3, [r4, #120]	@ float
 3932              		.loc 1 1472 0
 3933 055a BDEC0A8B 		vldm	sp!, {d8-d12}
ARM GAS  C:\Users\CHRIST~1\AppData\Local\Temp\ccTNSWKS.s 			page 70


 3934              		.cfi_remember_state
 3935              		.cfi_restore 88
 3936              		.cfi_restore 89
 3937              		.cfi_restore 86
 3938              		.cfi_restore 87
 3939              		.cfi_restore 84
 3940              		.cfi_restore 85
 3941              		.cfi_restore 82
 3942              		.cfi_restore 83
 3943              		.cfi_restore 80
 3944              		.cfi_restore 81
 3945              		.cfi_def_cfa_offset 24
 3946              	.LVL330:
 3947 055e F8BD     		pop	{r3, r4, r5, r6, r7, pc}
 3948              	.LVL331:
 3949              	.L479:
 3950              		.cfi_restore_state
 3951              		.loc 1 1438 0
 3952 0560 D4ED0D0A 		vldr.32	s1, [r4, #52]
 3953 0564 94ED0E1A 		vldr.32	s2, [r4, #56]
 3954 0568 D4ED031A 		vldr.32	s3, [r4, #12]
 3955 056c 9FED052A 		vldr.32	s4, .L488+4
 3956 0570 B0EE480A 		vmov.f32	s0, s16
 3957              	.LVL332:
 3958 0574 FFF7FEFF 		bl	utils_map
 3959              	.LVL333:
 3960 0578 F0EE400A 		vmov.f32	s1, s0
 3961              	.LVL334:
 3962 057c CDE7     		b	.L433
 3963              	.L489:
 3964 057e 00BF     		.align	2
 3965              	.L488:
 3966 0580 00000000 		.word	.LANCHOR33
 3967 0584 00000000 		.word	0
 3968 0588 00000000 		.word	.LANCHOR32
 3969              		.cfi_endproc
 3970              	.LFE309:
 3971              		.size	update_override_limits, .-update_override_limits
 3972              		.section	.text.timer_thread,"ax",%progbits
 3973              		.align	1
 3974              		.p2align 4,,15
 3975              		.syntax unified
 3976              		.thumb
 3977              		.thumb_func
 3978              		.fpu fpv4-sp-d16
 3979              		.type	timer_thread, %function
 3980              	timer_thread:
 3981              	.LFB310:
 3982              		.loc 1 1474 0
 3983              		.cfi_startproc
 3984              		@ Volatile: function does not return.
 3985              		@ args = 0, pretend = 0, frame = 0
 3986              		@ frame_needed = 0, uses_anonymous_args = 0
 3987              	.LVL335:
 3988 0000 08B5     		push	{r3, lr}
 3989              		.cfi_def_cfa_offset 8
 3990              		.cfi_offset 3, -8
ARM GAS  C:\Users\CHRIST~1\AppData\Local\Temp\ccTNSWKS.s 			page 71


 3991              		.cfi_offset 14, -4
 3992              	.LVL336:
 3993              	.LBB96:
 3994              	.LBB97:
 3995              		.loc 2 135 0
 3996 0002 0D4B     		ldr	r3, .L495
 3997 0004 9B69     		ldr	r3, [r3, #24]
 3998 0006 0D4A     		ldr	r2, .L495+4
 3999 0008 9A61     		str	r2, [r3, #24]
 4000              	.LBE97:
 4001              	.LBE96:
 4002              		.loc 1 1481 0
 4003 000a 0D4C     		ldr	r4, .L495+8
 4004              		.loc 1 1484 0
 4005 000c 0D4D     		ldr	r5, .L495+12
 4006              		.loc 1 1485 0
 4007 000e 0E4E     		ldr	r6, .L495+16
 4008 0010 0BE0     		b	.L493
 4009              	.LVL337:
 4010              	.L491:
 4011              		.loc 1 1484 0
 4012 0012 2B69     		ldr	r3, [r5, #16]
 4013 0014 13F4805F 		tst	r3, #4096
 4014              		.loc 1 1485 0
 4015 0018 1CBF     		itt	ne
 4016 001a 0023     		movne	r3, #0
 4017 001c 3370     		strbne	r3, [r6]
 4018              	.L492:
 4019              		.loc 1 1489 0
 4020 001e 0B48     		ldr	r0, .L495+20
 4021 0020 FFF7FEFF 		bl	update_override_limits
 4022              	.LVL338:
 4023              		.loc 1 1491 0
 4024 0024 0A20     		movs	r0, #10
 4025 0026 FFF7FEFF 		bl	chThdSleep
 4026              	.LVL339:
 4027              	.L493:
 4028              		.loc 1 1481 0
 4029 002a 2368     		ldr	r3, [r4]
 4030 002c 002B     		cmp	r3, #0
 4031 002e F0DD     		ble	.L491
 4032              		.loc 1 1482 0
 4033 0030 013B     		subs	r3, r3, #1
 4034 0032 2360     		str	r3, [r4]
 4035 0034 F3E7     		b	.L492
 4036              	.L496:
 4037 0036 00BF     		.align	2
 4038              	.L495:
 4039 0038 00000000 		.word	ch
 4040 003c 00000000 		.word	.LC9
 4041 0040 00000000 		.word	.LANCHOR14
 4042 0044 00080240 		.word	1073874944
 4043 0048 00000000 		.word	.LANCHOR13
 4044 004c 00000000 		.word	.LANCHOR12
 4045              		.cfi_endproc
 4046              	.LFE310:
 4047              		.size	timer_thread, .-timer_thread
ARM GAS  C:\Users\CHRIST~1\AppData\Local\Temp\ccTNSWKS.s 			page 72


 4048              		.section	.text.mc_interface_set_configuration,"ax",%progbits
 4049              		.align	1
 4050              		.p2align 4,,15
 4051              		.global	mc_interface_set_configuration
 4052              		.syntax unified
 4053              		.thumb
 4054              		.thumb_func
 4055              		.fpu fpv4-sp-d16
 4056              		.type	mc_interface_set_configuration, %function
 4057              	mc_interface_set_configuration:
 4058              	.LFB258:
 4059              		.loc 1 174 0
 4060              		.cfi_startproc
 4061              		@ args = 0, pretend = 0, frame = 0
 4062              		@ frame_needed = 0, uses_anonymous_args = 0
 4063              	.LVL340:
 4064 0000 38B5     		push	{r3, r4, r5, lr}
 4065              		.cfi_def_cfa_offset 16
 4066              		.cfi_offset 3, -16
 4067              		.cfi_offset 4, -12
 4068              		.cfi_offset 5, -8
 4069              		.cfi_offset 14, -4
 4070 0002 0446     		mov	r4, r0
 4071              		.loc 1 176 0
 4072 0004 344B     		ldr	r3, .L515
 4073 0006 93F85C31 		ldrb	r3, [r3, #348]	@ zero_extendqisi2
 4074 000a DBB2     		uxtb	r3, r3
 4075 000c 90F85C21 		ldrb	r2, [r0, #348]	@ zero_extendqisi2
 4076 0010 9A42     		cmp	r2, r3
 4077 0012 21D1     		bne	.L511
 4078              	.LVL341:
 4079              	.L498:
 4080              		.loc 1 192 0
 4081 0014 94F85C31 		ldrb	r3, [r4, #348]	@ zero_extendqisi2
 4082 0018 012B     		cmp	r3, #1
 4083 001a 2DD0     		beq	.L512
 4084              	.L501:
 4085              		.loc 1 202 0
 4086 001c 2E4B     		ldr	r3, .L515
 4087 001e 9B78     		ldrb	r3, [r3, #2]	@ zero_extendqisi2
 4088 0020 DBB2     		uxtb	r3, r3
 4089 0022 022B     		cmp	r3, #2
 4090 0024 2DD0     		beq	.L513
 4091              		.loc 1 207 0
 4092 0026 2C4B     		ldr	r3, .L515
 4093 0028 9B78     		ldrb	r3, [r3, #2]	@ zero_extendqisi2
 4094 002a DBB2     		uxtb	r3, r3
 4095 002c 022B     		cmp	r3, #2
 4096 002e 02D0     		beq	.L505
 4097              		.loc 1 208 0
 4098 0030 A378     		ldrb	r3, [r4, #2]	@ zero_extendqisi2
 4099 0032 022B     		cmp	r3, #2
 4100 0034 2DD0     		beq	.L509
 4101              	.L505:
 4102              		.loc 1 213 0
 4103 0036 4FF4BA72 		mov	r2, #372
 4104 003a 2146     		mov	r1, r4
ARM GAS  C:\Users\CHRIST~1\AppData\Local\Temp\ccTNSWKS.s 			page 73


 4105 003c 2648     		ldr	r0, .L515
 4106 003e FFF7FEFF 		bl	memcpy
 4107              	.LVL342:
 4108              	.L504:
 4109              		.loc 1 216 0
 4110 0042 254C     		ldr	r4, .L515
 4111              	.LVL343:
 4112 0044 2046     		mov	r0, r4
 4113 0046 FFF7FEFF 		bl	update_override_limits
 4114              	.LVL344:
 4115              		.loc 1 218 0
 4116 004a A378     		ldrb	r3, [r4, #2]	@ zero_extendqisi2
 4117 004c DBB2     		uxtb	r3, r3
 4118 004e 012B     		cmp	r3, #1
 4119 0050 39D9     		bls	.L507
 4120 0052 022B     		cmp	r3, #2
 4121 0054 3BD0     		beq	.L508
 4122              	.L497:
 4123              		.loc 1 231 0
 4124 0056 38BD     		pop	{r3, r4, r5, pc}
 4125              	.LVL345:
 4126              	.L511:
 4127              		.loc 1 177 0
 4128 0058 FFF7FEFF 		bl	encoder_deinit
 4129              	.LVL346:
 4130              		.loc 1 178 0
 4131 005c 94F85C31 		ldrb	r3, [r4, #348]	@ zero_extendqisi2
 4132 0060 012B     		cmp	r3, #1
 4133 0062 04D0     		beq	.L499
 4134 0064 022B     		cmp	r3, #2
 4135 0066 D5D1     		bne	.L498
 4136              		.loc 1 184 0
 4137 0068 FFF7FEFF 		bl	encoder_init_as5047p_spi
 4138              	.LVL347:
 4139              		.loc 1 185 0
 4140 006c D2E7     		b	.L498
 4141              	.L499:
 4142              		.loc 1 180 0
 4143 006e D4F85801 		ldr	r0, [r4, #344]
 4144 0072 FFF7FEFF 		bl	encoder_init_abi
 4145              	.LVL348:
 4146              		.loc 1 181 0
 4147 0076 CDE7     		b	.L498
 4148              	.L512:
 4149              		.loc 1 193 0
 4150 0078 D4F85801 		ldr	r0, [r4, #344]
 4151 007c FFF7FEFF 		bl	encoder_set_counts
 4152              	.LVL349:
 4153 0080 CCE7     		b	.L501
 4154              	.L513:
 4155              		.loc 1 203 0
 4156 0082 A378     		ldrb	r3, [r4, #2]	@ zero_extendqisi2
 4157 0084 022B     		cmp	r3, #2
 4158 0086 11D1     		bne	.L514
 4159              		.loc 1 207 0
 4160 0088 134B     		ldr	r3, .L515
 4161 008a 9B78     		ldrb	r3, [r3, #2]	@ zero_extendqisi2
ARM GAS  C:\Users\CHRIST~1\AppData\Local\Temp\ccTNSWKS.s 			page 74


 4162 008c DBB2     		uxtb	r3, r3
 4163 008e 022B     		cmp	r3, #2
 4164 0090 D1D0     		beq	.L505
 4165              	.L509:
 4166              		.loc 1 209 0
 4167 0092 FFF7FEFF 		bl	mcpwm_deinit
 4168              	.LVL350:
 4169              		.loc 1 210 0
 4170 0096 104D     		ldr	r5, .L515
 4171 0098 4FF4BA72 		mov	r2, #372
 4172 009c 2146     		mov	r1, r4
 4173 009e 2846     		mov	r0, r5
 4174 00a0 FFF7FEFF 		bl	memcpy
 4175              	.LVL351:
 4176              		.loc 1 211 0
 4177 00a4 2846     		mov	r0, r5
 4178 00a6 FFF7FEFF 		bl	mcpwm_foc_init
 4179              	.LVL352:
 4180 00aa CAE7     		b	.L504
 4181              	.L514:
 4182              		.loc 1 204 0
 4183 00ac FFF7FEFF 		bl	mcpwm_foc_deinit
 4184              	.LVL353:
 4185              		.loc 1 205 0
 4186 00b0 094D     		ldr	r5, .L515
 4187 00b2 4FF4BA72 		mov	r2, #372
 4188 00b6 2146     		mov	r1, r4
 4189 00b8 2846     		mov	r0, r5
 4190 00ba FFF7FEFF 		bl	memcpy
 4191              	.LVL354:
 4192              		.loc 1 206 0
 4193 00be 2846     		mov	r0, r5
 4194 00c0 FFF7FEFF 		bl	mcpwm_init
 4195              	.LVL355:
 4196 00c4 BDE7     		b	.L504
 4197              	.LVL356:
 4198              	.L507:
 4199              		.loc 1 221 0
 4200 00c6 0448     		ldr	r0, .L515
 4201 00c8 FFF7FEFF 		bl	mcpwm_set_configuration
 4202              	.LVL357:
 4203              		.loc 1 222 0
 4204 00cc C3E7     		b	.L497
 4205              	.L508:
 4206              		.loc 1 225 0
 4207 00ce 0248     		ldr	r0, .L515
 4208 00d0 FFF7FEFF 		bl	mcpwm_foc_set_configuration
 4209              	.LVL358:
 4210              		.loc 1 231 0
 4211 00d4 BFE7     		b	.L497
 4212              	.L516:
 4213 00d6 00BF     		.align	2
 4214              	.L515:
 4215 00d8 00000000 		.word	.LANCHOR12
 4216              		.cfi_endproc
 4217              	.LFE258:
 4218              		.size	mc_interface_set_configuration, .-mc_interface_set_configuration
ARM GAS  C:\Users\CHRIST~1\AppData\Local\Temp\ccTNSWKS.s 			page 75


 4219              		.section	.text.mc_interface_mc_timer_isr,"ax",%progbits
 4220              		.align	1
 4221              		.p2align 4,,15
 4222              		.global	mc_interface_mc_timer_isr
 4223              		.syntax unified
 4224              		.thumb
 4225              		.thumb_func
 4226              		.fpu fpv4-sp-d16
 4227              		.type	mc_interface_mc_timer_isr, %function
 4228              	mc_interface_mc_timer_isr:
 4229              	.LFB307:
 4230              		.loc 1 1046 0
 4231              		.cfi_startproc
 4232              		@ args = 0, pretend = 0, frame = 8
 4233              		@ frame_needed = 0, uses_anonymous_args = 0
 4234 0000 70B5     		push	{r4, r5, r6, lr}
 4235              		.cfi_def_cfa_offset 16
 4236              		.cfi_offset 4, -16
 4237              		.cfi_offset 5, -12
 4238              		.cfi_offset 6, -8
 4239              		.cfi_offset 14, -4
 4240 0002 2DED048B 		vpush.64	{d8, d9}
 4241              		.cfi_def_cfa_offset 32
 4242              		.cfi_offset 80, -32
 4243              		.cfi_offset 81, -28
 4244              		.cfi_offset 82, -24
 4245              		.cfi_offset 83, -20
 4246 0006 82B0     		sub	sp, sp, #8
 4247              		.cfi_def_cfa_offset 40
 4248              		.loc 1 1047 0
 4249 0008 FFF7FEFF 		bl	ledpwm_update_pwm
 4250              	.LVL359:
 4251              		.loc 1 1049 0
 4252 000c 944B     		ldr	r3, .L599
 4253 000e 1B8A     		ldrh	r3, [r3, #16]
 4254 0010 9BB2     		uxth	r3, r3
 4255 0012 08EE103A 		vmov	s16, r3	@ int
 4256 0016 B8EE488A 		vcvt.f32.u32	s16, s16
 4257 001a DFED927A 		vldr.32	s15, .L599+4
 4258 001e 28EE278A 		vmul.f32	s16, s16, s15
 4259 0022 DFED917A 		vldr.32	s15, .L599+8
 4260 0026 28EE278A 		vmul.f32	s16, s16, s15
 4261              	.LVL360:
 4262              		.loc 1 1053 0
 4263 002a 904B     		ldr	r3, .L599+12
 4264 002c D3ED0B7A 		vldr.32	s15, [r3, #44]
 4265 0030 F4EEC87A 		vcmpe.f32	s15, s16
 4266 0034 F1EE10FA 		vmrs	APSR_nzcv, FPSCR
 4267 0038 07DC     		bgt	.L518
 4268              		.loc 1 1054 0 discriminator 1
 4269 003a D3ED0C7A 		vldr.32	s15, [r3, #48]
 4270              		.loc 1 1053 0 discriminator 1
 4271 003e F4EEC87A 		vcmpe.f32	s15, s16
 4272 0042 F1EE10FA 		vmrs	APSR_nzcv, FPSCR
 4273 0046 40F1D380 		bpl	.L581
 4274              	.L518:
 4275              		.loc 1 1055 0
ARM GAS  C:\Users\CHRIST~1\AppData\Local\Temp\ccTNSWKS.s 			page 76


 4276 004a 894A     		ldr	r2, .L599+16
 4277 004c 1368     		ldr	r3, [r2]
 4278 004e 0133     		adds	r3, r3, #1
 4279 0050 1360     		str	r3, [r2]
 4280              		.loc 1 1057 0
 4281 0052 072B     		cmp	r3, #7
 4282 0054 0BDD     		ble	.L521
 4283              		.loc 1 1058 0
 4284 0056 854B     		ldr	r3, .L599+12
 4285 0058 D3ED0B7A 		vldr.32	s15, [r3, #44]
 4286 005c F4EEC87A 		vcmpe.f32	s15, s16
 4287 0060 F1EE10FA 		vmrs	APSR_nzcv, FPSCR
 4288 0064 CCBF     		ite	gt
 4289 0066 0220     		movgt	r0, #2
 4290 0068 0120     		movle	r0, #1
 4291 006a FFF7FEFF 		bl	mc_interface_fault_stop
 4292              	.LVL361:
 4293              	.L521:
 4294              		.loc 1 1065 0
 4295 006e FFF7FEFF 		bl	mc_interface_get_state
 4296              	.LVL362:
 4297 0072 0228     		cmp	r0, #2
 4298 0074 00F0C080 		beq	.L585
 4299              		.loc 1 1068 0
 4300 0078 7E4B     		ldr	r3, .L599+20
 4301 007a 0022     		movs	r2, #0
 4302 007c 1A60     		str	r2, [r3]
 4303              	.L524:
 4304              		.loc 1 1071 0
 4305 007e 7E4B     		ldr	r3, .L599+24
 4306 0080 1B68     		ldr	r3, [r3]
 4307 0082 03B1     		cbz	r3, .L525
 4308              		.loc 1 1072 0
 4309 0084 9847     		blx	r3
 4310              	.LVL363:
 4311              	.L525:
 4312              		.loc 1 1075 0
 4313 0086 FFF7FEFF 		bl	mc_interface_get_tot_current_filtered
 4314              	.LVL364:
 4315 008a F0EE408A 		vmov.f32	s17, s0
 4316              	.LVL365:
 4317              		.loc 1 1076 0
 4318 008e FFF7FEFF 		bl	mc_interface_get_tot_current_in_filtered
 4319              	.LVL366:
 4320 0092 F0EE409A 		vmov.f32	s19, s0
 4321              	.LVL367:
 4322              		.loc 1 1077 0
 4323 0096 794B     		ldr	r3, .L599+28
 4324 0098 D3ED007A 		vldr.32	s15, [r3]
 4325 009c 77EEA87A 		vadd.f32	s15, s15, s17
 4326 00a0 C3ED007A 		vstr.32	s15, [r3]
 4327              		.loc 1 1078 0
 4328 00a4 764B     		ldr	r3, .L599+32
 4329 00a6 D3ED007A 		vldr.32	s15, [r3]
 4330 00aa 77EE807A 		vadd.f32	s15, s15, s0
 4331 00ae C3ED007A 		vstr.32	s15, [r3]
 4332              		.loc 1 1079 0
ARM GAS  C:\Users\CHRIST~1\AppData\Local\Temp\ccTNSWKS.s 			page 77


 4333 00b2 744B     		ldr	r3, .L599+36
 4334 00b4 D3ED007A 		vldr.32	s15, [r3]
 4335 00b8 B7EE009A 		vmov.f32	s18, #1.0e+0
 4336 00bc 77EE897A 		vadd.f32	s15, s15, s18
 4337 00c0 C3ED007A 		vstr.32	s15, [r3]
 4338              		.loc 1 1080 0
 4339 00c4 704B     		ldr	r3, .L599+40
 4340 00c6 D3ED007A 		vldr.32	s15, [r3]
 4341 00ca 77EE897A 		vadd.f32	s15, s15, s18
 4342 00ce C3ED007A 		vstr.32	s15, [r3]
 4343              		.loc 1 1082 0
 4344 00d2 FFF7FEFF 		bl	mcpwm_foc_get_id
 4345              	.LVL368:
 4346 00d6 6D4B     		ldr	r3, .L599+44
 4347 00d8 D3ED007A 		vldr.32	s15, [r3]
 4348 00dc 37EE800A 		vadd.f32	s0, s15, s0
 4349 00e0 83ED000A 		vstr.32	s0, [r3]
 4350              		.loc 1 1083 0
 4351 00e4 FFF7FEFF 		bl	mcpwm_foc_get_iq
 4352              	.LVL369:
 4353 00e8 694B     		ldr	r3, .L599+48
 4354 00ea D3ED007A 		vldr.32	s15, [r3]
 4355 00ee 37EE800A 		vadd.f32	s0, s15, s0
 4356 00f2 83ED000A 		vstr.32	s0, [r3]
 4357              		.loc 1 1084 0
 4358 00f6 674B     		ldr	r3, .L599+52
 4359 00f8 D3ED007A 		vldr.32	s15, [r3]
 4360 00fc 77EE897A 		vadd.f32	s15, s15, s18
 4361 0100 C3ED007A 		vstr.32	s15, [r3]
 4362              		.loc 1 1085 0
 4363 0104 644B     		ldr	r3, .L599+56
 4364 0106 D3ED007A 		vldr.32	s15, [r3]
 4365 010a 37EE899A 		vadd.f32	s18, s15, s18
 4366 010e 83ED009A 		vstr.32	s18, [r3]
 4367              		.loc 1 1087 0
 4368 0112 FFF7FEFF 		bl	mc_interface_get_tot_current
 4369              	.LVL370:
 4370 0116 B0EE409A 		vmov.f32	s18, s0
 4371              	.LVL371:
 4372              		.loc 1 1089 0
 4373 011a 544B     		ldr	r3, .L599+12
 4374 011c 9B78     		ldrb	r3, [r3, #2]	@ zero_extendqisi2
 4375 011e DBB2     		uxtb	r3, r3
 4376 0120 022B     		cmp	r3, #2
 4377 0122 6ED0     		beq	.L586
 4378              		.loc 1 1088 0
 4379 0124 B0EE680A 		vmov.f32	s0, s17
 4380              	.LVL372:
 4381              	.L526:
 4382              		.loc 1 1096 0
 4383 0128 504B     		ldr	r3, .L599+12
 4384 012a 93F83C30 		ldrb	r3, [r3, #60]	@ zero_extendqisi2
 4385 012e 002B     		cmp	r3, #0
 4386 0130 72D0     		beq	.L527
 4387              		.loc 1 1097 0
 4388 0132 4E4B     		ldr	r3, .L599+12
 4389 0134 D3ED057A 		vldr.32	s15, [r3, #20]
ARM GAS  C:\Users\CHRIST~1\AppData\Local\Temp\ccTNSWKS.s 			page 78


 4390 0138 B0EEC00A 		vabs.f32	s0, s0
 4391              	.LVL373:
 4392 013c B4EEE70A 		vcmpe.f32	s0, s15
 4393 0140 F1EE10FA 		vmrs	APSR_nzcv, FPSCR
 4394 0144 64DC     		bgt	.L587
 4395              	.LVL374:
 4396              	.L528:
 4397              		.loc 1 1107 0
 4398 0146 554B     		ldr	r3, .L599+60
 4399 0148 1B69     		ldr	r3, [r3, #16]
 4400 014a 13F4805F 		tst	r3, #4096
 4401 014e 71D0     		beq	.L588
 4402              	.L531:
 4403              		.loc 1 1112 0
 4404 0150 FFF7FEFF 		bl	mc_interface_get_sampling_frequency_now
 4405              	.LVL375:
 4406 0154 B0EE409A 		vmov.f32	s18, s0
 4407              	.LVL376:
 4408              		.loc 1 1113 0
 4409 0158 F0EEE88A 		vabs.f32	s17, s17
 4410              	.LVL377:
 4411 015c F7EE007A 		vmov.f32	s15, #1.0e+0
 4412 0160 F4EEE78A 		vcmpe.f32	s17, s15
 4413 0164 F1EE10FA 		vmrs	APSR_nzcv, FPSCR
 4414 0168 34DD     		ble	.L532
 4415              	.LBB145:
 4416              		.loc 1 1118 0
 4417 016a C9EE807A 		vdiv.f32	s15, s19, s0
 4418 016e 4C4B     		ldr	r3, .L599+64
 4419 0170 93ED007A 		vldr.32	s14, [r3]
 4420 0174 77EE877A 		vadd.f32	s15, s15, s14
 4421 0178 C3ED007A 		vstr.32	s15, [r3]
 4422              		.loc 1 1119 0
 4423 017c F7EE006A 		vmov.f32	s13, #1.0e+0
 4424 0180 86EE807A 		vdiv.f32	s14, s13, s0
 4425 0184 474B     		ldr	r3, .L599+68
 4426 0186 D3ED006A 		vldr.32	s13, [r3]
 4427 018a 37EE267A 		vadd.f32	s14, s14, s13
 4428 018e 83ED007A 		vstr.32	s14, [r3]
 4429              		.loc 1 1121 0
 4430 0192 DFED456A 		vldr.32	s13, .L599+72
 4431 0196 B4EEE67A 		vcmpe.f32	s14, s13
 4432 019a F1EE10FA 		vmrs	APSR_nzcv, FPSCR
 4433 019e 19DB     		blt	.L532
 4434              		.loc 1 1122 0
 4435 01a0 F5EEC07A 		vcmpe.f32	s15, #0
 4436 01a4 F1EE10FA 		vmrs	APSR_nzcv, FPSCR
 4437 01a8 48DD     		ble	.L582
 4438              		.loc 1 1123 0
 4439 01aa 404B     		ldr	r3, .L599+76
 4440 01ac 93ED007A 		vldr.32	s14, [r3]
 4441 01b0 37EE877A 		vadd.f32	s14, s15, s14
 4442 01b4 83ED007A 		vstr.32	s14, [r3]
 4443              		.loc 1 1124 0
 4444 01b8 3D4B     		ldr	r3, .L599+80
 4445 01ba 93ED007A 		vldr.32	s14, [r3]
 4446 01be 27EE888A 		vmul.f32	s16, s15, s16
ARM GAS  C:\Users\CHRIST~1\AppData\Local\Temp\ccTNSWKS.s 			page 79


 4447              	.LVL378:
 4448 01c2 38EE078A 		vadd.f32	s16, s16, s14
 4449 01c6 83ED008A 		vstr.32	s16, [r3]
 4450              	.L537:
 4451              		.loc 1 1130 0
 4452 01ca 0023     		movs	r3, #0
 4453 01cc 354A     		ldr	r2, .L599+68
 4454 01ce 1360     		str	r3, [r2]	@ float
 4455              		.loc 1 1131 0
 4456 01d0 334A     		ldr	r2, .L599+64
 4457 01d2 1360     		str	r3, [r2]	@ float
 4458              	.L532:
 4459              	.LVL379:
 4460              	.LBE145:
 4461              		.loc 1 1137 0
 4462 01d4 374B     		ldr	r3, .L599+84
 4463 01d6 1B78     		ldrb	r3, [r3]	@ zero_extendqisi2
 4464 01d8 013B     		subs	r3, r3, #1
 4465 01da 052B     		cmp	r3, #5
 4466 01dc 00F20681 		bhi	.L517
 4467 01e0 DFE813F0 		tbh	[pc, r3, lsl #1]
 4468              	.L540:
 4469 01e4 6E00     		.2byte	(.L539-.L540)/2
 4470 01e6 1801     		.2byte	(.L541-.L540)/2
 4471 01e8 3D01     		.2byte	(.L542-.L540)/2
 4472 01ea 8301     		.2byte	(.L543-.L540)/2
 4473 01ec 3D01     		.2byte	(.L542-.L540)/2
 4474 01ee 8301     		.2byte	(.L543-.L540)/2
 4475              	.LVL380:
 4476              		.p2align 1
 4477              	.L581:
 4478              		.loc 1 1062 0
 4479 01f0 1F4B     		ldr	r3, .L599+16
 4480 01f2 0022     		movs	r2, #0
 4481 01f4 1A60     		str	r2, [r3]
 4482 01f6 3AE7     		b	.L521
 4483              	.L585:
 4484              		.loc 1 1066 0
 4485 01f8 1E4A     		ldr	r2, .L599+20
 4486 01fa 1368     		ldr	r3, [r2]
 4487 01fc 0133     		adds	r3, r3, #1
 4488 01fe 1360     		str	r3, [r2]
 4489 0200 3DE7     		b	.L524
 4490              	.LVL381:
 4491              	.L586:
 4492              		.loc 1 1091 0
 4493 0202 FFF7FEFF 		bl	mcpwm_foc_get_abs_motor_current
 4494              	.LVL382:
 4495 0206 B0EE409A 		vmov.f32	s18, s0
 4496              	.LVL383:
 4497              		.loc 1 1092 0
 4498 020a FFF7FEFF 		bl	mcpwm_foc_get_abs_motor_current_filtered
 4499              	.LVL384:
 4500 020e 8BE7     		b	.L526
 4501              	.LVL385:
 4502              	.L587:
 4503              		.loc 1 1098 0
ARM GAS  C:\Users\CHRIST~1\AppData\Local\Temp\ccTNSWKS.s 			page 80


 4504 0210 0420     		movs	r0, #4
 4505 0212 FFF7FEFF 		bl	mc_interface_fault_stop
 4506              	.LVL386:
 4507 0216 96E7     		b	.L528
 4508              	.LVL387:
 4509              	.L527:
 4510              		.loc 1 1101 0
 4511 0218 144B     		ldr	r3, .L599+12
 4512 021a D3ED057A 		vldr.32	s15, [r3, #20]
 4513 021e B0EEC99A 		vabs.f32	s18, s18
 4514              	.LVL388:
 4515 0222 B4EEE79A 		vcmpe.f32	s18, s15
 4516 0226 F1EE10FA 		vmrs	APSR_nzcv, FPSCR
 4517 022a 8CDD     		ble	.L528
 4518              		.loc 1 1102 0
 4519 022c 0420     		movs	r0, #4
 4520 022e FFF7FEFF 		bl	mc_interface_fault_stop
 4521              	.LVL389:
 4522 0232 88E7     		b	.L528
 4523              	.L588:
 4524              		.loc 1 1108 0
 4525 0234 0320     		movs	r0, #3
 4526 0236 FFF7FEFF 		bl	mc_interface_fault_stop
 4527              	.LVL390:
 4528 023a 89E7     		b	.L531
 4529              	.LVL391:
 4530              	.L582:
 4531              	.LBB146:
 4532              		.loc 1 1126 0
 4533 023c 1E4B     		ldr	r3, .L599+88
 4534 023e 93ED007A 		vldr.32	s14, [r3]
 4535 0242 37EE677A 		vsub.f32	s14, s14, s15
 4536 0246 83ED007A 		vstr.32	s14, [r3]
 4537              		.loc 1 1127 0
 4538 024a 1C4B     		ldr	r3, .L599+92
 4539 024c 93ED007A 		vldr.32	s14, [r3]
 4540 0250 27EE888A 		vmul.f32	s16, s15, s16
 4541              	.LVL392:
 4542 0254 37EE488A 		vsub.f32	s16, s14, s16
 4543 0258 83ED008A 		vstr.32	s16, [r3]
 4544 025c B5E7     		b	.L537
 4545              	.L600:
 4546 025e 00BF     		.align	2
 4547              	.L599:
 4548 0260 00000000 		.word	.LANCHOR40
 4549 0264 6740533A 		.word	978534503
 4550 0268 74D19541 		.word	1100337524
 4551 026c 00000000 		.word	.LANCHOR12
 4552 0270 00000000 		.word	.LANCHOR41
 4553 0274 00000000 		.word	.LANCHOR15
 4554 0278 00000000 		.word	.LANCHOR39
 4555 027c 00000000 		.word	.LANCHOR18
 4556 0280 00000000 		.word	.LANCHOR19
 4557 0284 00000000 		.word	.LANCHOR20
 4558 0288 00000000 		.word	.LANCHOR21
 4559 028c 00000000 		.word	.LANCHOR22
 4560 0290 00000000 		.word	.LANCHOR23
ARM GAS  C:\Users\CHRIST~1\AppData\Local\Temp\ccTNSWKS.s 			page 81


 4561 0294 00000000 		.word	.LANCHOR24
 4562 0298 00000000 		.word	.LANCHOR25
 4563 029c 00080240 		.word	1073874944
 4564 02a0 00000000 		.word	.LANCHOR42
 4565 02a4 00000000 		.word	.LANCHOR43
 4566 02a8 0AD7233C 		.word	1008981770
 4567 02ac 00000000 		.word	.LANCHOR26
 4568 02b0 00000000 		.word	.LANCHOR28
 4569 02b4 00000000 		.word	.LANCHOR36
 4570 02b8 00000000 		.word	.LANCHOR27
 4571 02bc 00000000 		.word	.LANCHOR29
 4572              	.LVL393:
 4573              	.L539:
 4574              	.LBE146:
 4575              		.loc 1 1139 0
 4576 02c0 A84B     		ldr	r3, .L601
 4577 02c2 1A68     		ldr	r2, [r3]
 4578 02c4 A84B     		ldr	r3, .L601+4
 4579 02c6 1B68     		ldr	r3, [r3]
 4580 02c8 9A42     		cmp	r2, r3
 4581 02ca 00F09380 		beq	.L589
 4582              	.LVL394:
 4583              	.L544:
 4584              	.LBB147:
 4585              		.loc 1 1230 0
 4586 02ce A74A     		ldr	r2, .L601+8
 4587 02d0 1368     		ldr	r3, [r2]
 4588 02d2 0133     		adds	r3, r3, #1
 4589 02d4 1360     		str	r3, [r2]
 4590              		.loc 1 1232 0
 4591 02d6 A64A     		ldr	r2, .L601+12
 4592 02d8 1268     		ldr	r2, [r2]
 4593 02da 9342     		cmp	r3, r2
 4594 02dc C0F28680 		blt	.L517
 4595              	.LBB148:
 4596              		.loc 1 1233 0
 4597 02e0 A24B     		ldr	r3, .L601+8
 4598 02e2 0022     		movs	r2, #0
 4599 02e4 1A60     		str	r2, [r3]
 4600              		.loc 1 1235 0
 4601 02e6 9F4B     		ldr	r3, .L601
 4602 02e8 1B68     		ldr	r3, [r3]
 4603 02ea B3F5FA6F 		cmp	r3, #2000
 4604              		.loc 1 1236 0
 4605 02ee A4BF     		itt	ge
 4606 02f0 9C4B     		ldrge	r3, .L601
 4607 02f2 1A60     		strge	r2, [r3]
 4608              		.loc 1 1240 0
 4609 02f4 9F4B     		ldr	r3, .L601+16
 4610 02f6 9B78     		ldrb	r3, [r3, #2]	@ zero_extendqisi2
 4611 02f8 DBB2     		uxtb	r3, r3
 4612 02fa 022B     		cmp	r3, #2
 4613 02fc 00F06C81 		beq	.L590
 4614              		.loc 1 1247 0
 4615 0300 9D4B     		ldr	r3, .L601+20
 4616 0302 1D68     		ldr	r5, [r3]
 4617 0304 2DB2     		sxth	r5, r5
ARM GAS  C:\Users\CHRIST~1\AppData\Local\Temp\ccTNSWKS.s 			page 82


 4618              	.LVL395:
 4619              		.loc 1 1248 0
 4620 0306 974B     		ldr	r3, .L601
 4621 0308 1A68     		ldr	r2, [r3]
 4622 030a 9C4B     		ldr	r3, .L601+24
 4623 030c 1344     		add	r3, r3, r2
 4624 030e 0022     		movs	r2, #0
 4625 0310 83F8082E 		strb	r2, [r3, #3592]
 4626              	.L558:
 4627              		.loc 1 1251 0
 4628 0314 FFF7FEFF 		bl	mc_interface_get_state
 4629              	.LVL396:
 4630 0318 0128     		cmp	r0, #1
 4631 031a 00F07E81 		beq	.L591
 4632              		.loc 1 1259 0
 4633 031e 9848     		ldr	r0, .L601+28
 4634 0320 0268     		ldr	r2, [r0]
 4635 0322 9049     		ldr	r1, .L601
 4636 0324 0C68     		ldr	r4, [r1]
 4637 0326 12B2     		sxth	r2, r2
 4638 0328 964B     		ldr	r3, .L601+32
 4639 032a 23F81420 		strh	r2, [r3, r4, lsl #1]	@ movhi
 4640              		.loc 1 1260 0
 4641 032e 4268     		ldr	r2, [r0, #4]
 4642 0330 0868     		ldr	r0, [r1]
 4643 0332 12B2     		sxth	r2, r2
 4644 0334 03EB4003 		add	r3, r3, r0, lsl #1
 4645 0338 A3F8A02F 		strh	r2, [r3, #4000]	@ movhi
 4646              		.loc 1 1262 0
 4647 033c 924C     		ldr	r4, .L601+36
 4648 033e A088     		ldrh	r0, [r4, #4]
 4649 0340 ABB2     		uxth	r3, r5
 4650 0342 0E68     		ldr	r6, [r1]
 4651 0344 1A46     		mov	r2, r3
 4652 0346 C31A     		subs	r3, r0, r3
 4653 0348 1BB2     		sxth	r3, r3
 4654 034a 9048     		ldr	r0, .L601+40
 4655 034c 00EB4600 		add	r0, r0, r6, lsl #1
 4656 0350 A0F8483E 		strh	r3, [r0, #3656]	@ movhi
 4657              		.loc 1 1263 0
 4658 0354 6388     		ldrh	r3, [r4, #2]
 4659 0356 0E68     		ldr	r6, [r1]
 4660 0358 9B1A     		subs	r3, r3, r2
 4661 035a 1BB2     		sxth	r3, r3
 4662 035c 8C48     		ldr	r0, .L601+44
 4663 035e 00EB4600 		add	r0, r0, r6, lsl #1
 4664 0362 A0F8F03C 		strh	r3, [r0, #3312]	@ movhi
 4665              		.loc 1 1264 0
 4666 0366 2388     		ldrh	r3, [r4]
 4667 0368 0968     		ldr	r1, [r1]
 4668 036a 9B1A     		subs	r3, r3, r2
 4669 036c 1BB2     		sxth	r3, r3
 4670 036e 894A     		ldr	r2, .L601+48
 4671 0370 02EB4102 		add	r2, r2, r1, lsl #1
 4672 0374 A2F8983B 		strh	r3, [r2, #2968]	@ movhi
 4673              	.L560:
 4674              		.loc 1 1267 0
ARM GAS  C:\Users\CHRIST~1\AppData\Local\Temp\ccTNSWKS.s 			page 83


 4675 0378 7A4C     		ldr	r4, .L601
 4676 037a 2268     		ldr	r2, [r4]
 4677 037c 864B     		ldr	r3, .L601+52
 4678 037e 03EB4203 		add	r3, r3, r2, lsl #1
 4679 0382 A3F8405A 		strh	r5, [r3, #2624]	@ movhi
 4680              		.loc 1 1268 0
 4681 0386 FFF7FEFF 		bl	mc_interface_get_tot_current
 4682              	.LVL397:
 4683 038a 2168     		ldr	r1, [r4]
 4684 038c DFED837A 		vldr.32	s15, .L601+56
 4685 0390 20EE270A 		vmul.f32	s0, s0, s15
 4686 0394 BDEEC00A 		vcvt.s32.f32	s0, s0
 4687 0398 10EE103A 		vmov	r3, s0	@ int
 4688 039c 1BB2     		sxth	r3, r3
 4689 039e 804A     		ldr	r2, .L601+60
 4690 03a0 02EB4102 		add	r2, r2, r1, lsl #1
 4691 03a4 A2F8E838 		strh	r3, [r2, #2280]	@ movhi
 4692              		.loc 1 1269 0
 4693 03a8 2168     		ldr	r1, [r4]
 4694 03aa B2EE047A 		vmov.f32	s14, #1.0e+1
 4695 03ae C9EE077A 		vdiv.f32	s15, s18, s14
 4696 03b2 FDEEE77A 		vcvt.s32.f32	s15, s15
 4697 03b6 17EE903A 		vmov	r3, s15	@ int
 4698 03ba 1BB2     		sxth	r3, r3
 4699 03bc 794A     		ldr	r2, .L601+64
 4700 03be 02EB4102 		add	r2, r2, r1, lsl #1
 4701 03c2 A2F89037 		strh	r3, [r2, #1936]	@ movhi
 4702              		.loc 1 1270 0
 4703 03c6 FFF7FEFF 		bl	mcpwm_get_comm_step
 4704              	.LVL398:
 4705 03ca 0546     		mov	r5, r0
 4706              	.LVL399:
 4707 03cc FFF7FEFF 		bl	mcpwm_read_hall_phase
 4708              	.LVL400:
 4709 03d0 2268     		ldr	r2, [r4]
 4710 03d2 45EAC000 		orr	r0, r5, r0, lsl #3
 4711 03d6 C0B2     		uxtb	r0, r0
 4712 03d8 684B     		ldr	r3, .L601+24
 4713 03da 1344     		add	r3, r3, r2
 4714 03dc 83F83806 		strb	r0, [r3, #1592]
 4715              		.loc 1 1272 0
 4716 03e0 2368     		ldr	r3, [r4]
 4717 03e2 0133     		adds	r3, r3, #1
 4718 03e4 2360     		str	r3, [r4]
 4719              	.LBB149:
 4720              	.LBB150:
 4721              		.loc 1 901 0
 4722 03e6 704B     		ldr	r3, .L601+68
 4723 03e8 1A68     		ldr	r2, [r3]	@ float
 4724              	.LBE150:
 4725              	.LBE149:
 4726              		.loc 1 1274 0
 4727 03ea 1A60     		str	r2, [r3]	@ float
 4728              	.L517:
 4729              	.LBE148:
 4730              	.LBE147:
 4731              		.loc 1 1277 0
ARM GAS  C:\Users\CHRIST~1\AppData\Local\Temp\ccTNSWKS.s 			page 84


 4732 03ec 02B0     		add	sp, sp, #8
 4733              		.cfi_remember_state
 4734              		.cfi_def_cfa_offset 32
 4735              		@ sp needed
 4736 03ee BDEC048B 		vldm	sp!, {d8-d9}
 4737              		.cfi_restore 82
 4738              		.cfi_restore 83
 4739              		.cfi_restore 80
 4740              		.cfi_restore 81
 4741              		.cfi_def_cfa_offset 16
 4742              	.LVL401:
 4743 03f2 70BD     		pop	{r4, r5, r6, pc}
 4744              	.LVL402:
 4745              	.L589:
 4746              		.cfi_restore_state
 4747              		.loc 1 1140 0
 4748 03f4 0024     		movs	r4, #0
 4749 03f6 6D4B     		ldr	r3, .L601+72
 4750 03f8 1C70     		strb	r4, [r3]
 4751              		.loc 1 1141 0
 4752 03fa 0121     		movs	r1, #1
 4753 03fc 6C4B     		ldr	r3, .L601+76
 4754 03fe 1970     		strb	r1, [r3]
 4755              	.LVL403:
 4756              	.LBB152:
 4757              	.LBB153:
 4758              	.LBB154:
 4759              	.LBB155:
 4760              	.LBB156:
 4761              		.file 3 "ChibiOS_3.0.2/os/ext/CMSIS/include/core_cmFunc.h"
 4762              		.loc 3 546 0
 4763 0400 2023     		movs	r3, #32
 4764              		.syntax unified
 4765              	@ 546 "ChibiOS_3.0.2/os/ext/CMSIS/include/core_cmFunc.h" 1
 4766 0402 83F31188 		MSR basepri, r3
 4767              	@ 0 "" 2
 4768              	.LVL404:
 4769              		.thumb
 4770              		.syntax unified
 4771              	.LBE156:
 4772              	.LBE155:
 4773              	.LBE154:
 4774              	.LBE153:
 4775              	.LBE152:
 4776              		.loc 1 1143 0
 4777 0406 6B4B     		ldr	r3, .L601+80
 4778 0408 1868     		ldr	r0, [r3]
 4779 040a FFF7FEFF 		bl	chEvtSignalI
 4780              	.LVL405:
 4781              	.LBB157:
 4782              	.LBB158:
 4783              	.LBB159:
 4784              	.LBB160:
 4785              	.LBB161:
 4786              		.loc 3 546 0
 4787              		.syntax unified
 4788              	@ 546 "ChibiOS_3.0.2/os/ext/CMSIS/include/core_cmFunc.h" 1
ARM GAS  C:\Users\CHRIST~1\AppData\Local\Temp\ccTNSWKS.s 			page 85


 4789 040e 84F31188 		MSR basepri, r4
 4790              	@ 0 "" 2
 4791              	.LVL406:
 4792              		.thumb
 4793              		.syntax unified
 4794 0412 EBE7     		b	.L517
 4795              	.LVL407:
 4796              	.L541:
 4797              	.LBE161:
 4798              	.LBE160:
 4799              	.LBE159:
 4800              	.LBE158:
 4801              	.LBE157:
 4802              		.loc 1 1151 0
 4803 0414 FFF7FEFF 		bl	mc_interface_get_state
 4804              	.LVL408:
 4805 0418 0228     		cmp	r0, #2
 4806 041a 04D0     		beq	.L545
 4807              		.loc 1 1151 0 is_stmt 0 discriminator 1
 4808 041c 514B     		ldr	r3, .L601
 4809 041e 1B68     		ldr	r3, [r3]
 4810 0420 002B     		cmp	r3, #0
 4811 0422 40F34781 		ble	.L592
 4812              	.L545:
 4813              	.LVL409:
 4814              		.loc 1 1155 0 is_stmt 1
 4815 0426 4F4B     		ldr	r3, .L601
 4816 0428 1A68     		ldr	r2, [r3]
 4817 042a 4F4B     		ldr	r3, .L601+4
 4818 042c 1B68     		ldr	r3, [r3]
 4819 042e 9A42     		cmp	r2, r3
 4820 0430 7FF44DAF 		bne	.L544
 4821 0434 0124     		movs	r4, #1
 4822              	.LVL410:
 4823              	.L561:
 4824              		.loc 1 1156 0
 4825 0436 5D4A     		ldr	r2, .L601+72
 4826 0438 1378     		ldrb	r3, [r2]	@ zero_extendqisi2
 4827 043a DBB2     		uxtb	r3, r3
 4828 043c 5C49     		ldr	r1, .L601+76
 4829 043e 0B70     		strb	r3, [r1]
 4830              		.loc 1 1157 0
 4831 0440 0025     		movs	r5, #0
 4832 0442 1570     		strb	r5, [r2]
 4833              	.LVL411:
 4834              	.LBB162:
 4835              	.LBB163:
 4836              	.LBB164:
 4837              	.LBB165:
 4838              	.LBB166:
 4839              		.loc 3 546 0
 4840 0444 2023     		movs	r3, #32
 4841              		.syntax unified
 4842              	@ 546 "ChibiOS_3.0.2/os/ext/CMSIS/include/core_cmFunc.h" 1
 4843 0446 83F31188 		MSR basepri, r3
 4844              	@ 0 "" 2
 4845              	.LVL412:
ARM GAS  C:\Users\CHRIST~1\AppData\Local\Temp\ccTNSWKS.s 			page 86


 4846              		.thumb
 4847              		.syntax unified
 4848              	.LBE166:
 4849              	.LBE165:
 4850              	.LBE164:
 4851              	.LBE163:
 4852              	.LBE162:
 4853              		.loc 1 1159 0
 4854 044a 0121     		movs	r1, #1
 4855 044c 594B     		ldr	r3, .L601+80
 4856 044e 1868     		ldr	r0, [r3]
 4857 0450 FFF7FEFF 		bl	chEvtSignalI
 4858              	.LVL413:
 4859              	.LBB167:
 4860              	.LBB168:
 4861              	.LBB169:
 4862              	.LBB170:
 4863              	.LBB171:
 4864              		.loc 3 546 0
 4865              		.syntax unified
 4866              	@ 546 "ChibiOS_3.0.2/os/ext/CMSIS/include/core_cmFunc.h" 1
 4867 0454 85F31188 		MSR basepri, r5
 4868              	@ 0 "" 2
 4869              	.LVL414:
 4870              		.thumb
 4871              		.syntax unified
 4872              	.L547:
 4873              	.LBE171:
 4874              	.LBE170:
 4875              	.LBE169:
 4876              	.LBE168:
 4877              	.LBE167:
 4878              		.loc 1 1228 0
 4879 0458 002C     		cmp	r4, #0
 4880 045a C7D0     		beq	.L517
 4881 045c 37E7     		b	.L544
 4882              	.LVL415:
 4883              	.L542:
 4884              	.LBB172:
 4885              		.loc 1 1169 0
 4886 045e 564B     		ldr	r3, .L601+84
 4887 0460 1B68     		ldr	r3, [r3]
 4888 0462 002B     		cmp	r3, #0
 4889 0464 1CDB     		blt	.L568
 4890              		.loc 1 1170 0
 4891 0466 544B     		ldr	r3, .L601+84
 4892 0468 1B68     		ldr	r3, [r3]
 4893 046a 3F4A     		ldr	r2, .L601+4
 4894 046c 1268     		ldr	r2, [r2]
 4895              	.LVL416:
 4896              		.loc 1 1171 0
 4897 046e 9B1A     		subs	r3, r3, r2
 4898              	.LVL417:
 4899 0470 13D4     		bmi	.L593
 4900              	.LVL418:
 4901              	.L548:
 4902              		.loc 1 1176 0
ARM GAS  C:\Users\CHRIST~1\AppData\Local\Temp\ccTNSWKS.s 			page 87


 4903 0472 3C4A     		ldr	r2, .L601
 4904 0474 1268     		ldr	r2, [r2]
 4905 0476 9A42     		cmp	r2, r3
 4906 0478 15D0     		beq	.L594
 4907              		.loc 1 1189 0
 4908 047a FFF7FEFF 		bl	mc_interface_get_state
 4909              	.LVL419:
 4910 047e 0228     		cmp	r0, #2
 4911 0480 7FF425AF 		bne	.L544
 4912 0484 4C4B     		ldr	r3, .L601+84
 4913 0486 1B68     		ldr	r3, [r3]
 4914 0488 002B     		cmp	r3, #0
 4915 048a BFF620AF 		bge	.L544
 4916              		.loc 1 1166 0
 4917 048e 0124     		movs	r4, #1
 4918              	.LVL420:
 4919              	.L564:
 4920              		.loc 1 1190 0
 4921 0490 344B     		ldr	r3, .L601
 4922 0492 1A68     		ldr	r2, [r3]
 4923 0494 484B     		ldr	r3, .L601+84
 4924 0496 1A60     		str	r2, [r3]
 4925 0498 DEE7     		b	.L547
 4926              	.LVL421:
 4927              	.L593:
 4928              		.loc 1 1172 0
 4929 049a 03F5FA63 		add	r3, r3, #2000
 4930              	.LVL422:
 4931 049e E8E7     		b	.L548
 4932              	.LVL423:
 4933              	.L568:
 4934              		.loc 1 1168 0
 4935 04a0 4FF0FF33 		mov	r3, #-1
 4936 04a4 E5E7     		b	.L548
 4937              	.LVL424:
 4938              	.L594:
 4939              		.loc 1 1177 0
 4940 04a6 414A     		ldr	r2, .L601+72
 4941 04a8 1378     		ldrb	r3, [r2]	@ zero_extendqisi2
 4942              	.LVL425:
 4943 04aa DBB2     		uxtb	r3, r3
 4944 04ac 4049     		ldr	r1, .L601+76
 4945 04ae 0B70     		strb	r3, [r1]
 4946              	.LVL426:
 4947              		.loc 1 1180 0
 4948 04b0 1378     		ldrb	r3, [r2]	@ zero_extendqisi2
 4949 04b2 DBB2     		uxtb	r3, r3
 4950 04b4 032B     		cmp	r3, #3
 4951 04b6 0CD0     		beq	.L595
 4952              	.LVL427:
 4953              	.L550:
 4954              		.loc 1 1186 0
 4955 04b8 3C4B     		ldr	r3, .L601+72
 4956 04ba 0022     		movs	r2, #0
 4957 04bc 1A70     		strb	r2, [r3]
 4958              		.loc 1 1189 0
 4959 04be FFF7FEFF 		bl	mc_interface_get_state
ARM GAS  C:\Users\CHRIST~1\AppData\Local\Temp\ccTNSWKS.s 			page 88


 4960              	.LVL428:
 4961 04c2 0228     		cmp	r0, #2
 4962 04c4 92D1     		bne	.L517
 4963 04c6 3C4B     		ldr	r3, .L601+84
 4964 04c8 1B68     		ldr	r3, [r3]
 4965 04ca 002B     		cmp	r3, #0
 4966 04cc 8EDA     		bge	.L517
 4967              		.loc 1 1178 0
 4968 04ce 0024     		movs	r4, #0
 4969 04d0 DEE7     		b	.L564
 4970              	.LVL429:
 4971              	.L595:
 4972              	.LBB173:
 4973              	.LBB174:
 4974              	.LBB175:
 4975              	.LBB176:
 4976              	.LBB177:
 4977              		.loc 3 546 0
 4978 04d2 2023     		movs	r3, #32
 4979              		.syntax unified
 4980              	@ 546 "ChibiOS_3.0.2/os/ext/CMSIS/include/core_cmFunc.h" 1
 4981 04d4 83F31188 		MSR basepri, r3
 4982              	@ 0 "" 2
 4983              	.LVL430:
 4984              		.thumb
 4985              		.syntax unified
 4986              	.LBE177:
 4987              	.LBE176:
 4988              	.LBE175:
 4989              	.LBE174:
 4990              	.LBE173:
 4991              		.loc 1 1182 0
 4992 04d8 0121     		movs	r1, #1
 4993 04da 364B     		ldr	r3, .L601+80
 4994 04dc 1868     		ldr	r0, [r3]
 4995 04de FFF7FEFF 		bl	chEvtSignalI
 4996              	.LVL431:
 4997              	.LBB178:
 4998              	.LBB179:
 4999              	.LBB180:
 5000              	.LBB181:
 5001              	.LBB182:
 5002              		.loc 3 546 0
 5003 04e2 0023     		movs	r3, #0
 5004              		.syntax unified
 5005              	@ 546 "ChibiOS_3.0.2/os/ext/CMSIS/include/core_cmFunc.h" 1
 5006 04e4 83F31188 		MSR basepri, r3
 5007              	@ 0 "" 2
 5008              	.LVL432:
 5009              		.thumb
 5010              		.syntax unified
 5011 04e8 E6E7     		b	.L550
 5012              	.LVL433:
 5013              	.L543:
 5014              	.LBE182:
 5015              	.LBE181:
 5016              	.LBE180:
ARM GAS  C:\Users\CHRIST~1\AppData\Local\Temp\ccTNSWKS.s 			page 89


 5017              	.LBE179:
 5018              	.LBE178:
 5019              	.LBE172:
 5020              	.LBB183:
 5021              		.loc 1 1199 0
 5022 04ea 334B     		ldr	r3, .L601+84
 5023 04ec 1B68     		ldr	r3, [r3]
 5024 04ee 002B     		cmp	r3, #0
 5025 04f0 1CDB     		blt	.L569
 5026              		.loc 1 1200 0
 5027 04f2 314B     		ldr	r3, .L601+84
 5028 04f4 1B68     		ldr	r3, [r3]
 5029 04f6 1C4A     		ldr	r2, .L601+4
 5030 04f8 1268     		ldr	r2, [r2]
 5031              	.LVL434:
 5032              		.loc 1 1201 0
 5033 04fa 9B1A     		subs	r3, r3, r2
 5034              	.LVL435:
 5035 04fc 13D4     		bmi	.L596
 5036              	.LVL436:
 5037              	.L552:
 5038              		.loc 1 1206 0
 5039 04fe 194A     		ldr	r2, .L601
 5040 0500 1268     		ldr	r2, [r2]
 5041 0502 9A42     		cmp	r2, r3
 5042 0504 15D0     		beq	.L597
 5043              		.loc 1 1219 0
 5044 0506 2D4B     		ldr	r3, .L601+88
 5045              	.LVL437:
 5046 0508 1B78     		ldrb	r3, [r3]	@ zero_extendqisi2
 5047 050a 002B     		cmp	r3, #0
 5048 050c 3FF4DFAE 		beq	.L544
 5049 0510 294B     		ldr	r3, .L601+84
 5050 0512 1B68     		ldr	r3, [r3]
 5051 0514 002B     		cmp	r3, #0
 5052 0516 BFF6DAAE 		bge	.L544
 5053              		.loc 1 1196 0
 5054 051a 0124     		movs	r4, #1
 5055              	.LVL438:
 5056              	.L565:
 5057              		.loc 1 1220 0
 5058 051c 114B     		ldr	r3, .L601
 5059 051e 1A68     		ldr	r2, [r3]
 5060 0520 254B     		ldr	r3, .L601+84
 5061 0522 1A60     		str	r2, [r3]
 5062 0524 98E7     		b	.L547
 5063              	.LVL439:
 5064              	.L596:
 5065              		.loc 1 1202 0
 5066 0526 03F5FA63 		add	r3, r3, #2000
 5067              	.LVL440:
 5068 052a E8E7     		b	.L552
 5069              	.LVL441:
 5070              	.L569:
 5071              		.loc 1 1198 0
 5072 052c 4FF0FF33 		mov	r3, #-1
 5073 0530 E5E7     		b	.L552
ARM GAS  C:\Users\CHRIST~1\AppData\Local\Temp\ccTNSWKS.s 			page 90


 5074              	.LVL442:
 5075              	.L597:
 5076              		.loc 1 1207 0
 5077 0532 1E4A     		ldr	r2, .L601+72
 5078 0534 1378     		ldrb	r3, [r2]	@ zero_extendqisi2
 5079              	.LVL443:
 5080 0536 DBB2     		uxtb	r3, r3
 5081 0538 1D49     		ldr	r1, .L601+76
 5082 053a 0B70     		strb	r3, [r1]
 5083              	.LVL444:
 5084              		.loc 1 1210 0
 5085 053c 1378     		ldrb	r3, [r2]	@ zero_extendqisi2
 5086 053e DBB2     		uxtb	r3, r3
 5087 0540 042B     		cmp	r3, #4
 5088 0542 3DD0     		beq	.L598
 5089              	.LVL445:
 5090              	.L554:
 5091              		.loc 1 1216 0
 5092 0544 194B     		ldr	r3, .L601+72
 5093 0546 0022     		movs	r2, #0
 5094 0548 1A70     		strb	r2, [r3]
 5095              		.loc 1 1219 0
 5096 054a 1C4B     		ldr	r3, .L601+88
 5097 054c 1B78     		ldrb	r3, [r3]	@ zero_extendqisi2
 5098 054e 002B     		cmp	r3, #0
 5099 0550 3FF44CAF 		beq	.L517
 5100 0554 184B     		ldr	r3, .L601+84
 5101 0556 1B68     		ldr	r3, [r3]
 5102 0558 002B     		cmp	r3, #0
 5103 055a BFF647AF 		bge	.L517
 5104              		.loc 1 1208 0
 5105 055e 0024     		movs	r4, #0
 5106 0560 DCE7     		b	.L565
 5107              	.L602:
