ARM GAS  C:\Users\CHRIST~1\AppData\Local\Temp\ccrZf1ig.s 			page 1


   1              		.cpu cortex-m4
   2              		.eabi_attribute 27, 1
   3              		.eabi_attribute 28, 1
   4              		.eabi_attribute 20, 1
   5              		.eabi_attribute 21, 1
   6              		.eabi_attribute 23, 3
   7              		.eabi_attribute 24, 1
   8              		.eabi_attribute 25, 1
   9              		.eabi_attribute 26, 1
  10              		.eabi_attribute 30, 1
  11              		.eabi_attribute 34, 1
  12              		.eabi_attribute 18, 4
  13              		.file	"pal_lld.c"
  14              		.text
  15              	.Ltext0:
  16              		.cfi_sections	.debug_frame
  17              		.section	.text.initgpio,"ax",%progbits
  18              		.align	1
  19              		.p2align 4,,15
  20              		.syntax unified
  21              		.thumb
  22              		.thumb_func
  23              		.fpu fpv4-sp-d16
  24              		.type	initgpio, %function
  25              	initgpio:
  26              	.LFB256:
  27              		.file 1 "ChibiOS_3.0.2/os/hal/ports/STM32/LLD/GPIOv2/pal_lld.c"
  28              		.loc 1 65 0
  29              		.cfi_startproc
  30              		@ args = 0, pretend = 0, frame = 0
  31              		@ frame_needed = 0, uses_anonymous_args = 0
  32              		@ link register save eliminated.
  33              	.LVL0:
  34              		.loc 1 67 0
  35 0000 4B68     		ldr	r3, [r1, #4]
  36 0002 4360     		str	r3, [r0, #4]
  37              		.loc 1 68 0
  38 0004 8B68     		ldr	r3, [r1, #8]
  39 0006 8360     		str	r3, [r0, #8]
  40              		.loc 1 69 0
  41 0008 CB68     		ldr	r3, [r1, #12]
  42 000a C360     		str	r3, [r0, #12]
  43              		.loc 1 70 0
  44 000c 0B69     		ldr	r3, [r1, #16]
  45 000e 4361     		str	r3, [r0, #20]
  46              		.loc 1 71 0
  47 0010 4B69     		ldr	r3, [r1, #20]
  48 0012 0362     		str	r3, [r0, #32]
  49              		.loc 1 72 0
  50 0014 8B69     		ldr	r3, [r1, #24]
  51 0016 4362     		str	r3, [r0, #36]
  52              		.loc 1 73 0
  53 0018 0B68     		ldr	r3, [r1]
  54 001a 0360     		str	r3, [r0]
  55              		.loc 1 74 0
  56 001c 7047     		bx	lr
  57              		.cfi_endproc
ARM GAS  C:\Users\CHRIST~1\AppData\Local\Temp\ccrZf1ig.s 			page 2


  58              	.LFE256:
  59              		.size	initgpio, .-initgpio
  60 001e 00BF     		.section	.text._pal_lld_init,"ax",%progbits
  61              		.align	1
  62              		.p2align 4,,15
  63              		.global	_pal_lld_init
  64              		.syntax unified
  65              		.thumb
  66              		.thumb_func
  67              		.fpu fpv4-sp-d16
  68              		.type	_pal_lld_init, %function
  69              	_pal_lld_init:
  70              	.LFB257:
  71              		.loc 1 92 0
  72              		.cfi_startproc
  73              		@ args = 0, pretend = 0, frame = 0
  74              		@ frame_needed = 0, uses_anonymous_args = 0
  75              	.LVL1:
  76 0000 10B5     		push	{r4, lr}
  77              		.cfi_def_cfa_offset 8
  78              		.cfi_offset 4, -8
  79              		.cfi_offset 14, -4
  80 0002 0446     		mov	r4, r0
  81              		.loc 1 105 0
  82 0004 1A4B     		ldr	r3, .L4
  83 0006 196B     		ldr	r1, [r3, #48]
  84 0008 40F2FF10 		movw	r0, #511
  85              	.LVL2:
  86 000c 0143     		orrs	r1, r1, r0
  87 000e 1963     		str	r1, [r3, #48]
  88              		.loc 1 106 0
  89 0010 1A6D     		ldr	r2, [r3, #80]
  90 0012 0243     		orrs	r2, r2, r0
  91 0014 1A65     		str	r2, [r3, #80]
  92              		.loc 1 113 0
  93 0016 2146     		mov	r1, r4
  94 0018 1648     		ldr	r0, .L4+4
  95 001a FFF7FEFF 		bl	initgpio
  96              	.LVL3:
  97              		.loc 1 116 0
  98 001e 04F11C01 		add	r1, r4, #28
  99 0022 1548     		ldr	r0, .L4+8
 100 0024 FFF7FEFF 		bl	initgpio
 101              	.LVL4:
 102              		.loc 1 119 0
 103 0028 04F13801 		add	r1, r4, #56
 104 002c 1348     		ldr	r0, .L4+12
 105 002e FFF7FEFF 		bl	initgpio
 106              	.LVL5:
 107              		.loc 1 122 0
 108 0032 04F15401 		add	r1, r4, #84
 109 0036 1248     		ldr	r0, .L4+16
 110 0038 FFF7FEFF 		bl	initgpio
 111              	.LVL6:
 112              		.loc 1 125 0
 113 003c 04F17001 		add	r1, r4, #112
 114 0040 1048     		ldr	r0, .L4+20
ARM GAS  C:\Users\CHRIST~1\AppData\Local\Temp\ccrZf1ig.s 			page 3


 115 0042 FFF7FEFF 		bl	initgpio
 116              	.LVL7:
 117              		.loc 1 128 0
 118 0046 04F18C01 		add	r1, r4, #140
 119 004a 0F48     		ldr	r0, .L4+24
 120 004c FFF7FEFF 		bl	initgpio
 121              	.LVL8:
 122              		.loc 1 131 0
 123 0050 04F1A801 		add	r1, r4, #168
 124 0054 0D48     		ldr	r0, .L4+28
 125 0056 FFF7FEFF 		bl	initgpio
 126              	.LVL9:
 127              		.loc 1 134 0
 128 005a 04F1C401 		add	r1, r4, #196
 129 005e 0C48     		ldr	r0, .L4+32
 130 0060 FFF7FEFF 		bl	initgpio
 131              	.LVL10:
 132              		.loc 1 137 0
 133 0064 04F1E001 		add	r1, r4, #224
 134 0068 0A48     		ldr	r0, .L4+36
 135 006a FFF7FEFF 		bl	initgpio
 136              	.LVL11:
 137              		.loc 1 139 0
 138 006e 10BD     		pop	{r4, pc}
 139              	.LVL12:
 140              	.L5:
 141              		.align	2
 142              	.L4:
 143 0070 00380240 		.word	1073887232
 144 0074 00000240 		.word	1073872896
 145 0078 00040240 		.word	1073873920
 146 007c 00080240 		.word	1073874944
 147 0080 000C0240 		.word	1073875968
 148 0084 00100240 		.word	1073876992
 149 0088 00140240 		.word	1073878016
 150 008c 00180240 		.word	1073879040
 151 0090 001C0240 		.word	1073880064
 152 0094 00200240 		.word	1073881088
 153              		.cfi_endproc
 154              	.LFE257:
 155              		.size	_pal_lld_init, .-_pal_lld_init
 156              		.section	.text._pal_lld_setgroupmode,"ax",%progbits
 157              		.align	1
 158              		.p2align 4,,15
 159              		.global	_pal_lld_setgroupmode
 160              		.syntax unified
 161              		.thumb
 162              		.thumb_func
 163              		.fpu fpv4-sp-d16
 164              		.type	_pal_lld_setgroupmode, %function
 165              	_pal_lld_setgroupmode:
 166              	.LFB258:
 167              		.loc 1 157 0
 168              		.cfi_startproc
 169              		@ args = 0, pretend = 0, frame = 0
 170              		@ frame_needed = 0, uses_anonymous_args = 0
 171              	.LVL13:
ARM GAS  C:\Users\CHRIST~1\AppData\Local\Temp\ccrZf1ig.s 			page 4


 172 0000 2DE9F04F 		push	{r4, r5, r6, r7, r8, r9, r10, fp, lr}
 173              		.cfi_def_cfa_offset 36
 174              		.cfi_offset 4, -36
 175              		.cfi_offset 5, -32
 176              		.cfi_offset 6, -28
 177              		.cfi_offset 7, -24
 178              		.cfi_offset 8, -20
 179              		.cfi_offset 9, -16
 180              		.cfi_offset 10, -12
 181              		.cfi_offset 11, -8
 182              		.cfi_offset 14, -4
 183              		.loc 1 159 0
 184 0004 02F0030C 		and	ip, r2, #3
 185              	.LVL14:
 186              		.loc 1 160 0
 187 0008 C2F38007 		ubfx	r7, r2, #2, #1
 188              	.LVL15:
 189              		.loc 1 161 0
 190 000c C2F3C106 		ubfx	r6, r2, #3, #2
 191              	.LVL16:
 192              		.loc 1 162 0
 193 0010 C2F34115 		ubfx	r5, r2, #5, #2
 194              	.LVL17:
 195              		.loc 1 163 0
 196 0014 C2F3C312 		ubfx	r2, r2, #7, #4
 197              	.LVL18:
 198              		.loc 1 164 0
 199 0018 0024     		movs	r4, #0
 200              	.LBB2:
 201              		.loc 1 170 0
 202 001a 4FF00F09 		mov	r9, #15
 203              		.loc 1 175 0
 204 001e 4FF00108 		mov	r8, #1
 205              		.loc 1 177 0
 206 0022 4FF0030E 		mov	lr, #3
 207 0026 30E0     		b	.L11
 208              	.LVL19:
 209              	.L8:
 210              		.loc 1 174 0
 211 0028 D0F824B0 		ldr	fp, [r0, #36]
 212 002c 2BEA0303 		bic	r3, fp, r3
 213              	.LVL20:
 214 0030 43EA0A03 		orr	r3, r3, r10
 215 0034 4362     		str	r3, [r0, #36]
 216              	.L9:
 217              	.LVL21:
 218              		.loc 1 176 0
 219 0036 4368     		ldr	r3, [r0, #4]
 220              		.loc 1 175 0
 221 0038 08FA04FA 		lsl	r10, r8, r4
 222              	.LVL22:
 223              		.loc 1 176 0
 224 003c 23EA0A03 		bic	r3, r3, r10
 225 0040 3B43     		orrs	r3, r3, r7
 226 0042 4360     		str	r3, [r0, #4]
 227              	.LVL23:
 228              		.loc 1 178 0
ARM GAS  C:\Users\CHRIST~1\AppData\Local\Temp\ccrZf1ig.s 			page 5


 229 0044 D0F808A0 		ldr	r10, [r0, #8]
 230              		.loc 1 177 0
 231 0048 6300     		lsls	r3, r4, #1
 232 004a 0EFA03F3 		lsl	r3, lr, r3
 233              		.loc 1 178 0
 234 004e DB43     		mvns	r3, r3
 235 0050 0AEA030A 		and	r10, r10, r3
 236 0054 4AEA060A 		orr	r10, r10, r6
 237 0058 C0F808A0 		str	r10, [r0, #8]
 238              		.loc 1 179 0
 239 005c D0F80CA0 		ldr	r10, [r0, #12]
 240 0060 03EA0A0A 		and	r10, r3, r10
 241 0064 4AEA050A 		orr	r10, r10, r5
 242 0068 C0F80CA0 		str	r10, [r0, #12]
 243              		.loc 1 180 0
 244 006c D0F800A0 		ldr	r10, [r0]
 245 0070 03EA0A03 		and	r3, r3, r10
 246 0074 43EA0C03 		orr	r3, r3, ip
 247 0078 0360     		str	r3, [r0]
 248              	.LVL24:
 249              	.L7:
 250              	.LBE2:
 251              		.loc 1 183 0
 252 007a 4908     		lsrs	r1, r1, #1
 253              	.LVL25:
 254 007c 19D0     		beq	.L6
 255              		.loc 1 185 0
 256 007e 7F00     		lsls	r7, r7, #1
 257              	.LVL26:
 258              		.loc 1 186 0
 259 0080 B600     		lsls	r6, r6, #2
 260              	.LVL27:
 261              		.loc 1 187 0
 262 0082 AD00     		lsls	r5, r5, #2
 263              	.LVL28:
 264              		.loc 1 188 0
 265 0084 4FEA8C0C 		lsl	ip, ip, #2
 266              	.LVL29:
 267              		.loc 1 189 0
 268 0088 0134     		adds	r4, r4, #1
 269              	.LVL30:
 270              	.L11:
 271              		.loc 1 166 0
 272 008a 11F0010F 		tst	r1, #1
 273 008e F4D0     		beq	.L7
 274              	.LBB3:
 275              		.loc 1 169 0
 276 0090 04F00703 		and	r3, r4, #7
 277 0094 9B00     		lsls	r3, r3, #2
 278 0096 02FA03FA 		lsl	r10, r2, r3
 279              	.LVL31:
 280              		.loc 1 170 0
 281 009a 09FA03F3 		lsl	r3, r9, r3
 282              	.LVL32:
 283              		.loc 1 171 0
 284 009e 072C     		cmp	r4, #7
 285 00a0 C2D8     		bhi	.L8
ARM GAS  C:\Users\CHRIST~1\AppData\Local\Temp\ccrZf1ig.s 			page 6


 286              		.loc 1 172 0
 287 00a2 D0F820B0 		ldr	fp, [r0, #32]
 288 00a6 2BEA0303 		bic	r3, fp, r3
 289              	.LVL33:
 290 00aa 43EA0A03 		orr	r3, r3, r10
 291 00ae 0362     		str	r3, [r0, #32]
 292 00b0 C1E7     		b	.L9
 293              	.LVL34:
 294              	.L6:
 295              	.LBE3:
 296              		.loc 1 191 0
 297 00b2 BDE8F08F 		pop	{r4, r5, r6, r7, r8, r9, r10, fp, pc}
 298              		.cfi_endproc
 299              	.LFE258:
 300              		.size	_pal_lld_setgroupmode, .-_pal_lld_setgroupmode
 301 00b6 00BF     		.text
 302              	.Letext0:
 303              		.file 2 "c:\\program files (x86)\\gnu tools arm embedded\\7 2017-q4-major\\lib\\gcc\\arm-none-eabi
 304              		.file 3 "c:\\program files (x86)\\gnu tools arm embedded\\7 2017-q4-major\\arm-none-eabi\\include\
 305              		.file 4 "c:\\program files (x86)\\gnu tools arm embedded\\7 2017-q4-major\\arm-none-eabi\\include\
 306              		.file 5 "ChibiOS_3.0.2/os/rt/ports/ARMCMx/compilers/GCC/chtypes.h"
 307              		.file 6 "ChibiOS_3.0.2/os/rt/include/chsystypes.h"
 308              		.file 7 "ChibiOS_3.0.2/os/rt/include/chschd.h"
 309              		.file 8 "ChibiOS_3.0.2/os/ext/CMSIS/include/core_cm4.h"
 310              		.file 9 "ChibiOS_3.0.2/os/ext/CMSIS/ST/system_stm32f4xx.h"
 311              		.file 10 "ChibiOS_3.0.2/os/ext/CMSIS/ST/stm32f407xx.h"
 312              		.file 11 "ChibiOS_3.0.2/os/rt/ports/ARMCMx/chcore.h"
 313              		.file 12 "ChibiOS_3.0.2/os/rt/ports/ARMCMx/chcore_v7m.h"
 314              		.file 13 "ChibiOS_3.0.2/os/rt/include/chtm.h"
 315              		.file 14 "ChibiOS_3.0.2/os/rt/include/chsem.h"
 316              		.file 15 "ChibiOS_3.0.2/os/rt/include/chmtx.h"
 317              		.file 16 "ChibiOS_3.0.2/os/rt/include/chregistry.h"
 318              		.file 17 "ChibiOS_3.0.2/os/rt/include/chevents.h"
 319              		.file 18 "ChibiOS_3.0.2/os/rt/include/chqueues.h"
 320              		.file 19 "./conf_general.h"
 321              		.file 20 "ChibiOS_3.0.2/os/hal/ports/STM32/STM32F4xx/stm32_dma.h"
 322              		.file 21 "ChibiOS_3.0.2/os/hal/ports/STM32/LLD/GPIOv2/pal_lld.h"
 323              		.file 22 "ChibiOS_3.0.2/os/hal/include/can.h"
 324              		.file 23 "ChibiOS_3.0.2/os/hal/ports/STM32/LLD/can_lld.h"
 325              		.file 24 "ChibiOS_3.0.2/os/hal/include/i2c.h"
 326              		.file 25 "ChibiOS_3.0.2/os/hal/ports/STM32/LLD/I2Cv1/i2c_lld.h"
 327              		.file 26 "ChibiOS_3.0.2/os/hal/include/icu.h"
 328              		.file 27 "ChibiOS_3.0.2/os/hal/ports/STM32/LLD/TIMv1/icu_lld.h"
 329              		.file 28 "ChibiOS_3.0.2/os/hal/ports/STM32/LLD/TIMv1/stm32_tim.h"
 330              		.file 29 "ChibiOS_3.0.2/os/hal/include/spi.h"
 331              		.file 30 "ChibiOS_3.0.2/os/hal/ports/STM32/LLD/SPIv1/spi_lld.h"
 332              		.file 31 "ChibiOS_3.0.2/os/hal/include/uart.h"
 333              		.file 32 "ChibiOS_3.0.2/os/hal/ports/STM32/LLD/USARTv1/uart_lld.h"
 334              		.file 33 "ChibiOS_3.0.2/os/hal/include/usb.h"
 335              		.file 34 "ChibiOS_3.0.2/os/hal/ports/STM32/LLD/OTGv1/usb_lld.h"
 336              		.file 35 "ChibiOS_3.0.2/os/hal/ports/STM32/LLD/OTGv1/stm32_otg.h"
