ARM GAS  C:\Users\CHRIST~1\AppData\Local\Temp\ccLO7YMd.s 			page 1


   1              		.cpu cortex-m4
   2              		.eabi_attribute 27, 1
   3              		.eabi_attribute 28, 1
   4              		.eabi_attribute 20, 1
   5              		.eabi_attribute 21, 1
   6              		.eabi_attribute 23, 3
   7              		.eabi_attribute 24, 1
   8              		.eabi_attribute 25, 1
   9              		.eabi_attribute 26, 1
  10              		.eabi_attribute 30, 1
  11              		.eabi_attribute 34, 1
  12              		.eabi_attribute 18, 4
  13              		.file	"rfhelp.c"
  14              		.text
  15              	.Ltext0:
  16              		.cfi_sections	.debug_frame
  17              		.section	.text.rfhelp_init,"ax",%progbits
  18              		.align	1
  19              		.p2align 4,,15
  20              		.global	rfhelp_init
  21              		.syntax unified
  22              		.thumb
  23              		.thumb_func
  24              		.fpu fpv4-sp-d16
  25              		.type	rfhelp_init, %function
  26              	rfhelp_init:
  27              	.LFB256:
  28              		.file 1 "nrf/rfhelp.c"
  29              		.loc 1 45 0
  30              		.cfi_startproc
  31              		@ args = 0, pretend = 0, frame = 16
  32              		@ frame_needed = 0, uses_anonymous_args = 0
  33 0000 70B5     		push	{r4, r5, r6, lr}
  34              		.cfi_def_cfa_offset 16
  35              		.cfi_offset 4, -16
  36              		.cfi_offset 5, -12
  37              		.cfi_offset 6, -8
  38              		.cfi_offset 14, -4
  39 0002 84B0     		sub	sp, sp, #16
  40              		.cfi_def_cfa_offset 32
  41              		.loc 1 46 0
  42 0004 2748     		ldr	r0, .L8
  43 0006 FFF7FEFF 		bl	chMtxObjectInit
  44              	.LVL0:
  45              		.loc 1 47 0
  46 000a FFF7FEFF 		bl	rf_init
  47              	.LVL1:
  48              		.loc 1 50 0
  49 000e 0324     		movs	r4, #3
  50 0010 254B     		ldr	r3, .L8+4
  51 0012 1C60     		str	r4, [r3]
  52              		.loc 1 59 0
  53 0014 2246     		mov	r2, r4
  54 0016 03A9     		add	r1, sp, #12
  55 0018 1020     		movs	r0, #16
  56 001a FFF7FEFF 		bl	rf_read_reg
  57              	.LVL2:
ARM GAS  C:\Users\CHRIST~1\AppData\Local\Temp\ccLO7YMd.s 			page 2


  58              		.loc 1 60 0
  59 001e 234B     		ldr	r3, .L8+8
  60 0020 1B68     		ldr	r3, [r3]
  61 0022 ADF80830 		strh	r3, [sp, #8]	@ movhi
  62 0026 1B0C     		lsrs	r3, r3, #16
  63 0028 8DF80A30 		strb	r3, [sp, #10]
  64              		.loc 1 61 0
  65 002c 2246     		mov	r2, r4
  66 002e 02A9     		add	r1, sp, #8
  67 0030 1020     		movs	r0, #16
  68 0032 FFF7FEFF 		bl	rf_write_reg
  69              	.LVL3:
  70              		.loc 1 63 0
  71 0036 2246     		mov	r2, r4
  72 0038 01A9     		add	r1, sp, #4
  73 003a 1020     		movs	r0, #16
  74 003c FFF7FEFF 		bl	rf_read_reg
  75              	.LVL4:
  76              		.loc 1 64 0
  77 0040 2246     		mov	r2, r4
  78 0042 03A9     		add	r1, sp, #12
  79 0044 1020     		movs	r0, #16
  80 0046 FFF7FEFF 		bl	rf_write_reg
  81              	.LVL5:
  82              		.loc 1 66 0
  83 004a 2246     		mov	r2, r4
  84 004c 01A9     		add	r1, sp, #4
  85 004e 02A8     		add	r0, sp, #8
  86 0050 FFF7FEFF 		bl	memcmp
  87              	.LVL6:
  88 0054 08BB     		cbnz	r0, .L7
  89 0056 164D     		ldr	r5, .L8+12
  90 0058 0A24     		movs	r4, #10
  91              	.LBB2:
  92              		.loc 1 72 0
  93 005a 134E     		ldr	r6, .L8+4
  94              	.L4:
  95              	.LVL7:
  96              		.loc 1 72 0 is_stmt 0 discriminator 3
  97 005c 3268     		ldr	r2, [r6]
  98 005e 2946     		mov	r1, r5
  99 0060 2046     		mov	r0, r4
 100 0062 FFF7FEFF 		bl	rf_read_reg
 101              	.LVL8:
 102 0066 0134     		adds	r4, r4, #1
 103              	.LVL9:
 104 0068 0535     		adds	r5, r5, #5
 105              		.loc 1 71 0 is_stmt 1 discriminator 3
 106 006a 102C     		cmp	r4, #16
 107 006c F6D1     		bne	.L4
 108              	.LBE2:
 109              		.loc 1 76 0
 110 006e 0E4D     		ldr	r5, .L8+4
 111 0070 104C     		ldr	r4, .L8+16
 112              	.LVL10:
 113 0072 2A68     		ldr	r2, [r5]
 114 0074 2146     		mov	r1, r4
ARM GAS  C:\Users\CHRIST~1\AppData\Local\Temp\ccLO7YMd.s 			page 3


 115 0076 1020     		movs	r0, #16
 116 0078 FFF7FEFF 		bl	rf_read_reg
 117              	.LVL11:
 118              		.loc 1 77 0
 119 007c 2A68     		ldr	r2, [r5]
 120 007e 2146     		mov	r1, r4
 121 0080 0B48     		ldr	r0, .L8+12
 122 0082 FFF7FEFF 		bl	memcmp
 123              	.LVL12:
 124 0086 B0FA80F0 		clz	r0, r0
 125 008a 4009     		lsrs	r0, r0, #5
 126 008c 0A4B     		ldr	r3, .L8+20
 127 008e 1870     		strb	r0, [r3]
 128              		.loc 1 82 0
 129 0090 0120     		movs	r0, #1
 130 0092 0A4B     		ldr	r3, .L8+24
 131 0094 1870     		strb	r0, [r3]
 132              	.L3:
 133              		.loc 1 85 0
 134 0096 04B0     		add	sp, sp, #16
 135              		.cfi_remember_state
 136              		.cfi_def_cfa_offset 16
 137              		@ sp needed
 138 0098 70BD     		pop	{r4, r5, r6, pc}
 139              	.L7:
 140              		.cfi_restore_state
 141              		.loc 1 67 0
 142 009a FFF7FEFF 		bl	rf_stop
 143              	.LVL13:
 144              		.loc 1 68 0
 145 009e 0020     		movs	r0, #0
 146 00a0 F9E7     		b	.L3
 147              	.L9:
 148 00a2 00BF     		.align	2
 149              	.L8:
 150 00a4 00000000 		.word	.LANCHOR0
 151 00a8 00000000 		.word	.LANCHOR1
 152 00ac 00000000 		.word	.LANCHOR2
 153 00b0 00000000 		.word	.LANCHOR3
 154 00b4 00000000 		.word	.LANCHOR4
 155 00b8 00000000 		.word	.LANCHOR5
 156 00bc 00000000 		.word	.LANCHOR6
 157              		.cfi_endproc
 158              	.LFE256:
 159              		.size	rfhelp_init, .-rfhelp_init
 160              		.section	.text.rfhelp_stop,"ax",%progbits
 161              		.align	1
 162              		.p2align 4,,15
 163              		.global	rfhelp_stop
 164              		.syntax unified
 165              		.thumb
 166              		.thumb_func
 167              		.fpu fpv4-sp-d16
 168              		.type	rfhelp_stop, %function
 169              	rfhelp_stop:
 170              	.LFB257:
 171              		.loc 1 87 0
ARM GAS  C:\Users\CHRIST~1\AppData\Local\Temp\ccLO7YMd.s 			page 4


 172              		.cfi_startproc
 173              		@ args = 0, pretend = 0, frame = 0
 174              		@ frame_needed = 0, uses_anonymous_args = 0
 175 0000 08B5     		push	{r3, lr}
 176              		.cfi_def_cfa_offset 8
 177              		.cfi_offset 3, -8
 178              		.cfi_offset 14, -4
 179              		.loc 1 88 0
 180 0002 FFF7FEFF 		bl	rf_stop
 181              	.LVL14:
 182              		.loc 1 89 0
 183 0006 024B     		ldr	r3, .L12
 184 0008 0022     		movs	r2, #0
 185 000a 1A70     		strb	r2, [r3]
 186              		.loc 1 90 0
 187 000c 08BD     		pop	{r3, pc}
 188              	.L13:
 189 000e 00BF     		.align	2
 190              	.L12:
 191 0010 00000000 		.word	.LANCHOR6
 192              		.cfi_endproc
 193              	.LFE257:
 194              		.size	rfhelp_stop, .-rfhelp_stop
 195              		.section	.text.rfhelp_restart,"ax",%progbits
 196              		.align	1
 197              		.p2align 4,,15
 198              		.global	rfhelp_restart
 199              		.syntax unified
 200              		.thumb
 201              		.thumb_func
 202              		.fpu fpv4-sp-d16
 203              		.type	rfhelp_restart, %function
 204              	rfhelp_restart:
 205              	.LFB259:
 206              		.loc 1 103 0
 207              		.cfi_startproc
 208              		@ args = 0, pretend = 0, frame = 0
 209              		@ frame_needed = 0, uses_anonymous_args = 0
 210 0000 70B5     		push	{r4, r5, r6, lr}
 211              		.cfi_def_cfa_offset 16
 212              		.cfi_offset 4, -16
 213              		.cfi_offset 5, -12
 214              		.cfi_offset 6, -8
 215              		.cfi_offset 14, -4
 216              		.loc 1 104 0
 217 0002 294D     		ldr	r5, .L16
 218 0004 2846     		mov	r0, r5
 219 0006 FFF7FEFF 		bl	chMtxLock
 220              	.LVL15:
 221              		.loc 1 106 0
 222 000a FFF7FEFF 		bl	rf_power_down
 223              	.LVL16:
 224              		.loc 1 112 0
 225 000e 0021     		movs	r1, #0
 226 0010 0220     		movs	r0, #2
 227 0012 FFF7FEFF 		bl	rf_write_reg_byte
 228              	.LVL17:
ARM GAS  C:\Users\CHRIST~1\AppData\Local\Temp\ccLO7YMd.s 			page 5


 229              		.loc 1 113 0
 230 0016 0021     		movs	r1, #0
 231 0018 1C20     		movs	r0, #28
 232 001a FFF7FEFF 		bl	rf_write_reg_byte
 233              	.LVL18:
 234              		.loc 1 115 0
 235 001e 234C     		ldr	r4, .L16+4
 236 0020 A078     		ldrb	r0, [r4, #2]	@ zero_extendqisi2
 237 0022 FFF7FEFF 		bl	rf_set_crc_type
 238              	.LVL19:
 239              		.loc 1 116 0
 240 0026 2079     		ldrb	r0, [r4, #4]	@ zero_extendqisi2
 241 0028 FFF7FEFF 		bl	rf_set_retr_retries
 242              	.LVL20:
 243              		.loc 1 117 0
 244 002c E078     		ldrb	r0, [r4, #3]	@ zero_extendqisi2
 245 002e FFF7FEFF 		bl	rf_set_retr_delay
 246              	.LVL21:
 247              		.loc 1 118 0
 248 0032 6078     		ldrb	r0, [r4, #1]	@ zero_extendqisi2
 249 0034 FFF7FEFF 		bl	rf_set_power
 250              	.LVL22:
 251              		.loc 1 119 0
 252 0038 2078     		ldrb	r0, [r4]	@ zero_extendqisi2
 253 003a FFF7FEFF 		bl	rf_set_speed
 254              	.LVL23:
 255              		.loc 1 120 0
 256 003e 0020     		movs	r0, #0
 257 0040 FFF7FEFF 		bl	rf_set_address_width
 258              	.LVL24:
 259              		.loc 1 121 0
 260 0044 6079     		ldrb	r0, [r4, #5]	@ zero_extendqisi2
 261 0046 00F51660 		add	r0, r0, #2400
 262 004a FFF7FEFF 		bl	rf_set_frequency
 263              	.LVL25:
 264              		.loc 1 122 0
 265 004e 0520     		movs	r0, #5
 266 0050 FFF7FEFF 		bl	rf_enable_features
 267              	.LVL26:
 268              		.loc 1 124 0
 269 0054 0120     		movs	r0, #1
 270 0056 FFF7FEFF 		bl	rf_enable_pipe_autoack
 271              	.LVL27:
 272              		.loc 1 125 0
 273 005a 0120     		movs	r0, #1
 274 005c FFF7FEFF 		bl	rf_enable_pipe_address
 275              	.LVL28:
 276              		.loc 1 126 0
 277 0060 0120     		movs	r0, #1
 278 0062 FFF7FEFF 		bl	rf_enable_pipe_dlp
 279              	.LVL29:
 280              		.loc 1 128 0
 281 0066 1248     		ldr	r0, .L16+8
 282 0068 34F8062F 		ldrh	r2, [r4, #6]!	@ unaligned
 283 006c A378     		ldrb	r3, [r4, #2]	@ zero_extendqisi2
 284 006e 0280     		strh	r2, [r0]	@ unaligned
 285 0070 8370     		strb	r3, [r0, #2]
ARM GAS  C:\Users\CHRIST~1\AppData\Local\Temp\ccLO7YMd.s 			page 6


 286              		.loc 1 129 0
 287 0072 104C     		ldr	r4, .L16+12
 288 0074 2280     		strh	r2, [r4]	@ unaligned
 289 0076 A370     		strb	r3, [r4, #2]
 290              		.loc 1 130 0
 291 0078 0F4B     		ldr	r3, .L16+16
 292 007a 0122     		movs	r2, #1
 293 007c 1A70     		strb	r2, [r3]
 294              		.loc 1 132 0
 295 007e 0F4E     		ldr	r6, .L16+20
 296 0080 3168     		ldr	r1, [r6]
 297 0082 FFF7FEFF 		bl	rf_set_tx_addr
 298              	.LVL30:
 299              		.loc 1 133 0
 300 0086 3268     		ldr	r2, [r6]
 301 0088 2146     		mov	r1, r4
 302 008a 0020     		movs	r0, #0
 303 008c FFF7FEFF 		bl	rf_set_rx_addr
 304              	.LVL31:
 305              		.loc 1 135 0
 306 0090 FFF7FEFF 		bl	rf_power_up
 307              	.LVL32:
 308              		.loc 1 136 0
 309 0094 FFF7FEFF 		bl	rf_mode_rx
 310              	.LVL33:
 311              		.loc 1 137 0
 312 0098 FFF7FEFF 		bl	rf_flush_all
 313              	.LVL34:
 314              		.loc 1 138 0
 315 009c FFF7FEFF 		bl	rf_clear_irq
 316              	.LVL35:
 317              		.loc 1 140 0
 318 00a0 2846     		mov	r0, r5
 319 00a2 FFF7FEFF 		bl	chMtxUnlock
 320              	.LVL36:
 321              		.loc 1 141 0
 322 00a6 70BD     		pop	{r4, r5, r6, pc}
 323              	.L17:
 324              		.align	2
 325              	.L16:
 326 00a8 00000000 		.word	.LANCHOR0
 327 00ac 00000000 		.word	.LANCHOR7
 328 00b0 00000000 		.word	.LANCHOR4
 329 00b4 00000000 		.word	.LANCHOR3
 330 00b8 00000000 		.word	.LANCHOR5
 331 00bc 00000000 		.word	.LANCHOR1
 332              		.cfi_endproc
 333              	.LFE259:
 334              		.size	rfhelp_restart, .-rfhelp_restart
 335              		.section	.text.rfhelp_update_conf,"ax",%progbits
 336              		.align	1
 337              		.p2align 4,,15
 338              		.global	rfhelp_update_conf
 339              		.syntax unified
 340              		.thumb
 341              		.thumb_func
 342              		.fpu fpv4-sp-d16
ARM GAS  C:\Users\CHRIST~1\AppData\Local\Temp\ccLO7YMd.s 			page 7


 343              		.type	rfhelp_update_conf, %function
 344              	rfhelp_update_conf:
 345              	.LFB258:
 346              		.loc 1 92 0
 347              		.cfi_startproc
 348              		@ args = 0, pretend = 0, frame = 0
 349              		@ frame_needed = 0, uses_anonymous_args = 0
 350              	.LVL37:
 351 0000 08B5     		push	{r3, lr}
 352              		.cfi_def_cfa_offset 8
 353              		.cfi_offset 3, -8
 354              		.cfi_offset 14, -4
 355 0002 0246     		mov	r2, r0
 356              		.loc 1 93 0
 357 0004 064B     		ldr	r3, .L22
 358 0006 0068     		ldr	r0, [r0]	@ unaligned
 359              	.LVL38:
 360 0008 5168     		ldr	r1, [r2, #4]	@ unaligned
 361 000a 03C3     		stmia	r3!, {r0, r1}
 362 000c 1289     		ldrh	r2, [r2, #8]	@ unaligned
 363              	.LVL39:
 364 000e 1A80     		strh	r2, [r3]	@ unaligned
 365              		.loc 1 95 0
 366 0010 044B     		ldr	r3, .L22+4
 367 0012 1B78     		ldrb	r3, [r3]	@ zero_extendqisi2
 368 0014 03B9     		cbnz	r3, .L21
 369              	.L18:
 370              		.loc 1 98 0
 371 0016 08BD     		pop	{r3, pc}
 372              	.L21:
 373              		.loc 1 96 0
 374 0018 FFF7FEFF 		bl	rfhelp_restart
 375              	.LVL40:
 376              		.loc 1 98 0
 377 001c FBE7     		b	.L18
 378              	.L23:
 379 001e 00BF     		.align	2
 380              	.L22:
 381 0020 00000000 		.word	.LANCHOR7
 382 0024 00000000 		.word	.LANCHOR6
 383              		.cfi_endproc
 384              	.LFE258:
 385              		.size	rfhelp_update_conf, .-rfhelp_update_conf
 386              		.section	.text.rfhelp_send_data,"ax",%progbits
 387              		.align	1
 388              		.p2align 4,,15
 389              		.global	rfhelp_send_data
 390              		.syntax unified
 391              		.thumb
 392              		.thumb_func
 393              		.fpu fpv4-sp-d16
 394              		.type	rfhelp_send_data, %function
 395              	rfhelp_send_data:
 396              	.LFB260:
 397              		.loc 1 157 0
 398              		.cfi_startproc
 399              		@ args = 0, pretend = 0, frame = 0
ARM GAS  C:\Users\CHRIST~1\AppData\Local\Temp\ccLO7YMd.s 			page 8


 400              		@ frame_needed = 0, uses_anonymous_args = 0
 401              	.LVL41:
 402 0000 F8B5     		push	{r3, r4, r5, r6, r7, lr}
 403              		.cfi_def_cfa_offset 24
 404              		.cfi_offset 3, -24
 405              		.cfi_offset 4, -20
 406              		.cfi_offset 5, -16
 407              		.cfi_offset 6, -12
 408              		.cfi_offset 7, -8
 409              		.cfi_offset 14, -4
 410 0002 0446     		mov	r4, r0
 411 0004 0D46     		mov	r5, r1
 412 0006 1746     		mov	r7, r2
 413              	.LVL42:
 414              		.loc 1 161 0
 415 0008 2448     		ldr	r0, .L39
 416              	.LVL43:
 417 000a FFF7FEFF 		bl	chMtxLock
 418              	.LVL44:
 419              		.loc 1 163 0
 420 000e FFF7FEFF 		bl	rf_mode_tx
 421              	.LVL45:
 422              		.loc 1 164 0
 423 0012 FFF7FEFF 		bl	rf_clear_irq
 424              	.LVL46:
 425              		.loc 1 165 0
 426 0016 FFF7FEFF 		bl	rf_flush_all
 427              	.LVL47:
 428              		.loc 1 168 0
 429 001a 214B     		ldr	r3, .L39+4
 430 001c 1B78     		ldrb	r3, [r3]	@ zero_extendqisi2
 431 001e 63B9     		cbnz	r3, .L25
 432              		.loc 1 168 0 is_stmt 0 discriminator 1
 433 0020 27B9     		cbnz	r7, .L36
 434              	.L26:
 435              		.loc 1 175 0 is_stmt 1
 436 0022 2946     		mov	r1, r5
 437 0024 2046     		mov	r0, r4
 438 0026 FFF7FEFF 		bl	rf_write_tx_payload_no_ack
 439              	.LVL48:
 440 002a 0CE0     		b	.L28
 441              	.L36:
 442              		.loc 1 169 0
 443 002c 1D4B     		ldr	r3, .L39+8
 444 002e 1A68     		ldr	r2, [r3]
 445 0030 1D49     		ldr	r1, .L39+12
 446 0032 0020     		movs	r0, #0
 447 0034 FFF7FEFF 		bl	rf_set_rx_addr
 448              	.LVL49:
 449 0038 01E0     		b	.L27
 450              	.L25:
 451              		.loc 1 172 0
 452 003a 002F     		cmp	r7, #0
 453 003c F1D0     		beq	.L26
 454              	.L27:
 455              		.loc 1 173 0
 456 003e 2946     		mov	r1, r5
ARM GAS  C:\Users\CHRIST~1\AppData\Local\Temp\ccLO7YMd.s 			page 9


 457 0040 2046     		mov	r0, r4
 458 0042 FFF7FEFF 		bl	rf_write_tx_payload
 459              	.LVL50:
 460              	.L28:
 461              		.loc 1 157 0
 462 0046 3C25     		movs	r5, #60
 463              	.LVL51:
 464              	.LBB3:
 465              		.loc 1 181 0
 466 0048 0A26     		movs	r6, #10
 467              	.LVL52:
 468              	.L31:
 469              		.loc 1 179 0
 470 004a FFF7FEFF 		bl	rf_status
 471              	.LVL53:
 472 004e 0446     		mov	r4, r0
 473              	.LVL54:
 474              		.loc 1 181 0
 475 0050 3046     		mov	r0, r6
 476              	.LVL55:
 477 0052 FFF7FEFF 		bl	chThdSleep
 478              	.LVL56:
 479              		.loc 1 184 0
 480 0056 14F0200F 		tst	r4, #32
 481 005a 0CD1     		bne	.L33
 482              		.loc 1 187 0
 483 005c 14F0100F 		tst	r4, #16
 484 0060 04D1     		bne	.L37
 485              		.loc 1 191 0
 486 0062 013D     		subs	r5, r5, #1
 487              	.LVL57:
 488 0064 F1D1     		bne	.L31
 489              		.loc 1 192 0
 490 0066 6FF00104 		mvn	r4, #1
 491              	.LVL58:
 492 006a 05E0     		b	.L29
 493              	.LVL59:
 494              	.L37:
 495              		.loc 1 188 0
 496 006c FFF7FEFF 		bl	rf_clear_maxrt_irq
 497              	.LVL60:
 498              		.loc 1 189 0
 499 0070 4FF0FF34 		mov	r4, #-1
 500              	.LVL61:
 501              		.loc 1 190 0
 502 0074 00E0     		b	.L29
 503              	.LVL62:
 504              	.L33:
 505              		.loc 1 185 0
 506 0076 0024     		movs	r4, #0
 507              	.LVL63:
 508              	.L29:
 509              	.LBE3:
 510              		.loc 1 198 0
 511 0078 094B     		ldr	r3, .L39+4
 512 007a 1B78     		ldrb	r3, [r3]	@ zero_extendqisi2
 513 007c 03B9     		cbnz	r3, .L32
ARM GAS  C:\Users\CHRIST~1\AppData\Local\Temp\ccLO7YMd.s 			page 10


 514              		.loc 1 198 0 is_stmt 0 discriminator 1
 515 007e 37B9     		cbnz	r7, .L38
 516              	.L32:
 517              		.loc 1 202 0 is_stmt 1
 518 0080 FFF7FEFF 		bl	rf_mode_rx
 519              	.LVL64:
 520              		.loc 1 204 0
 521 0084 0548     		ldr	r0, .L39
 522 0086 FFF7FEFF 		bl	chMtxUnlock
 523              	.LVL65:
 524              		.loc 1 207 0
 525 008a 2046     		mov	r0, r4
 526 008c F8BD     		pop	{r3, r4, r5, r6, r7, pc}
 527              	.LVL66:
 528              	.L38:
 529              		.loc 1 199 0
 530 008e 054B     		ldr	r3, .L39+8
 531 0090 1A68     		ldr	r2, [r3]
 532 0092 0649     		ldr	r1, .L39+16
 533 0094 0020     		movs	r0, #0
 534 0096 FFF7FEFF 		bl	rf_set_rx_addr
 535              	.LVL67:
 536 009a F1E7     		b	.L32
 537              	.L40:
 538              		.align	2
 539              	.L39:
 540 009c 00000000 		.word	.LANCHOR0
 541 00a0 00000000 		.word	.LANCHOR5
 542 00a4 00000000 		.word	.LANCHOR1
 543 00a8 00000000 		.word	.LANCHOR4
 544 00ac 00000000 		.word	.LANCHOR3
 545              		.cfi_endproc
 546              	.LFE260:
 547              		.size	rfhelp_send_data, .-rfhelp_send_data
 548              		.section	.text.rfhelp_send_data_crc,"ax",%progbits
 549              		.align	1
 550              		.p2align 4,,15
 551              		.global	rfhelp_send_data_crc
 552              		.syntax unified
 553              		.thumb
 554              		.thumb_func
 555              		.fpu fpv4-sp-d16
 556              		.type	rfhelp_send_data_crc, %function
 557              	rfhelp_send_data_crc:
 558              	.LFB261:
 559              		.loc 1 225 0
 560              		.cfi_startproc
 561              		@ args = 0, pretend = 0, frame = 0
 562              		@ frame_needed = 1, uses_anonymous_args = 0
 563              	.LVL68:
 564 0000 2DE9F041 		push	{r4, r5, r6, r7, r8, lr}
 565              		.cfi_def_cfa_offset 24
 566              		.cfi_offset 4, -24
 567              		.cfi_offset 5, -20
 568              		.cfi_offset 6, -16
 569              		.cfi_offset 7, -12
 570              		.cfi_offset 8, -8
ARM GAS  C:\Users\CHRIST~1\AppData\Local\Temp\ccLO7YMd.s 			page 11


 571              		.cfi_offset 14, -4
 572 0004 00AF     		add	r7, sp, #0
 573              		.cfi_def_cfa_register 7
 574 0006 8046     		mov	r8, r0
 575 0008 0C46     		mov	r4, r1
 576              		.loc 1 226 0
 577 000a 8E1C     		adds	r6, r1, #2
 578              	.LVL69:
 579 000c 01F10903 		add	r3, r1, #9
 580 0010 23F00703 		bic	r3, r3, #7
 581 0014 ADEB030D 		sub	sp, sp, r3
 582              	.LVL70:
 583              		.loc 1 227 0
 584 0018 FFF7FEFF 		bl	crc16
 585              	.LVL71:
 586 001c 0546     		mov	r5, r0
 587              	.LVL72:
 588              		.loc 1 229 0
 589 001e 2246     		mov	r2, r4
 590 0020 4146     		mov	r1, r8
 591 0022 6846     		mov	r0, sp
 592 0024 FFF7FEFF 		bl	memcpy
 593              	.LVL73:
 594              		.loc 1 230 0
 595 0028 2B0A     		lsrs	r3, r5, #8
 596 002a 0DF80430 		strb	r3, [sp, r4]
 597              		.loc 1 231 0
 598 002e 6C44     		add	r4, r4, sp
 599              	.LVL74:
 600 0030 6570     		strb	r5, [r4, #1]
 601              		.loc 1 233 0
 602 0032 044B     		ldr	r3, .L43
 603 0034 5A7A     		ldrb	r2, [r3, #9]	@ zero_extendqisi2
 604 0036 3146     		mov	r1, r6
 605 0038 6846     		mov	r0, sp
 606 003a FFF7FEFF 		bl	rfhelp_send_data
 607              	.LVL75:
 608              		.loc 1 234 0
 609 003e BD46     		mov	sp, r7
 610              		.cfi_def_cfa_register 13
 611              	.LVL76:
 612              		@ sp needed
 613 0040 BDE8F081 		pop	{r4, r5, r6, r7, r8, pc}
 614              	.LVL77:
 615              	.L44:
 616              		.align	2
 617              	.L43:
 618 0044 00000000 		.word	.LANCHOR7
 619              		.cfi_endproc
 620              	.LFE261:
 621              		.size	rfhelp_send_data_crc, .-rfhelp_send_data_crc
 622              		.section	.text.rfhelp_read_rx_data,"ax",%progbits
 623              		.align	1
 624              		.p2align 4,,15
 625              		.global	rfhelp_read_rx_data
 626              		.syntax unified
 627              		.thumb
ARM GAS  C:\Users\CHRIST~1\AppData\Local\Temp\ccLO7YMd.s 			page 12


 628              		.thumb_func
 629              		.fpu fpv4-sp-d16
 630              		.type	rfhelp_read_rx_data, %function
 631              	rfhelp_read_rx_data:
 632              	.LFB262:
 633              		.loc 1 254 0
 634              		.cfi_startproc
 635              		@ args = 0, pretend = 0, frame = 0
 636              		@ frame_needed = 0, uses_anonymous_args = 0
 637              	.LVL78:
 638 0000 F8B5     		push	{r3, r4, r5, r6, r7, lr}
 639              		.cfi_def_cfa_offset 24
 640              		.cfi_offset 3, -24
 641              		.cfi_offset 4, -20
 642              		.cfi_offset 5, -16
 643              		.cfi_offset 6, -12
 644              		.cfi_offset 7, -8
 645              		.cfi_offset 14, -4
 646 0002 0746     		mov	r7, r0
 647 0004 0C46     		mov	r4, r1
 648 0006 1646     		mov	r6, r2
 649              	.LVL79:
 650              		.loc 1 257 0
 651 0008 1448     		ldr	r0, .L51
 652              	.LVL80:
 653 000a FFF7FEFF 		bl	chMtxLock
 654              	.LVL81:
 655              		.loc 1 259 0
 656 000e FFF7FEFF 		bl	rf_status
 657              	.LVL82:
 658              		.loc 1 260 0
 659 0012 C0F34205 		ubfx	r5, r0, #1, #3
 660              	.LVL83:
 661              		.loc 1 262 0
 662 0016 072D     		cmp	r5, #7
 663 0018 1DD0     		beq	.L49
 664              		.loc 1 263 0
 665 001a FFF7FEFF 		bl	rf_get_payload_width
 666              	.LVL84:
 667 001e 2060     		str	r0, [r4]
 668              		.loc 1 264 0
 669 0020 06B1     		cbz	r6, .L47
 670              		.loc 1 265 0
 671 0022 3560     		str	r5, [r6]
 672              	.L47:
 673              		.loc 1 267 0
 674 0024 2168     		ldr	r1, [r4]
 675 0026 2029     		cmp	r1, #32
 676 0028 10D8     		bhi	.L48
 677              		.loc 1 268 0
 678 002a 3846     		mov	r0, r7
 679 002c FFF7FEFF 		bl	rf_read_rx_payload
 680              	.LVL85:
 681              		.loc 1 269 0
 682 0030 FFF7FEFF 		bl	rf_clear_rx_irq
 683              	.LVL86:
 684              		.loc 1 272 0
ARM GAS  C:\Users\CHRIST~1\AppData\Local\Temp\ccLO7YMd.s 			page 13


 685 0034 FFF7FEFF 		bl	rf_status
 686              	.LVL87:
 687              		.loc 1 273 0
 688 0038 C0F34200 		ubfx	r0, r0, #1, #3
 689              	.LVL88:
 690 003c C41F     		subs	r4, r0, #7
 691              	.LVL89:
 692 003e 18BF     		it	ne
 693 0040 0124     		movne	r4, #1
 694              	.LVL90:
 695              	.L46:
 696              		.loc 1 284 0
 697 0042 0648     		ldr	r0, .L51
 698 0044 FFF7FEFF 		bl	chMtxUnlock
 699              	.LVL91:
 700              		.loc 1 287 0
 701 0048 2046     		mov	r0, r4
 702 004a F8BD     		pop	{r3, r4, r5, r6, r7, pc}
 703              	.LVL92:
 704              	.L48:
 705              		.loc 1 279 0
 706 004c 0023     		movs	r3, #0
 707 004e 2360     		str	r3, [r4]
 708              	.LVL93:
 709              		.loc 1 280 0
 710 0050 6FF00104 		mvn	r4, #1
 711              	.LVL94:
 712 0054 F5E7     		b	.L46
 713              	.LVL95:
 714              	.L49:
 715              		.loc 1 255 0
 716 0056 4FF0FF34 		mov	r4, #-1
 717              	.LVL96:
 718 005a F2E7     		b	.L46
 719              	.L52:
 720              		.align	2
 721              	.L51:
 722 005c 00000000 		.word	.LANCHOR0
 723              		.cfi_endproc
 724              	.LFE262:
 725              		.size	rfhelp_read_rx_data, .-rfhelp_read_rx_data
 726              		.section	.text.rfhelp_read_rx_data_crc,"ax",%progbits
 727              		.align	1
 728              		.p2align 4,,15
 729              		.global	rfhelp_read_rx_data_crc
 730              		.syntax unified
 731              		.thumb
 732              		.thumb_func
 733              		.fpu fpv4-sp-d16
 734              		.type	rfhelp_read_rx_data_crc, %function
 735              	rfhelp_read_rx_data_crc:
 736              	.LFB263:
 737              		.loc 1 309 0
 738              		.cfi_startproc
 739              		@ args = 0, pretend = 0, frame = 0
 740              		@ frame_needed = 0, uses_anonymous_args = 0
 741              	.LVL97:
ARM GAS  C:\Users\CHRIST~1\AppData\Local\Temp\ccLO7YMd.s 			page 14


 742 0000 70B5     		push	{r4, r5, r6, lr}
 743              		.cfi_def_cfa_offset 16
 744              		.cfi_offset 4, -16
 745              		.cfi_offset 5, -12
 746              		.cfi_offset 6, -8
 747              		.cfi_offset 14, -4
 748 0002 0646     		mov	r6, r0
 749 0004 0C46     		mov	r4, r1
 750              		.loc 1 310 0
 751 0006 FFF7FEFF 		bl	rfhelp_read_rx_data
 752              	.LVL98:
 753              		.loc 1 312 0
 754 000a 051E     		subs	r5, r0, #0
 755 000c 02DB     		blt	.L54
 756              		.loc 1 312 0 is_stmt 0 discriminator 1
 757 000e 2168     		ldr	r1, [r4]
 758 0010 0229     		cmp	r1, #2
 759 0012 04DC     		bgt	.L56
 760              	.LVL99:
 761              	.L54:
 762              		.loc 1 320 0 is_stmt 1
 763 0014 2368     		ldr	r3, [r4]
 764 0016 023B     		subs	r3, r3, #2
 765 0018 2360     		str	r3, [r4]
 766              		.loc 1 323 0
 767 001a 2846     		mov	r0, r5
 768 001c 70BD     		pop	{r4, r5, r6, pc}
 769              	.LVL100:
 770              	.L56:
 771              	.LBB4:
 772              		.loc 1 313 0
 773 001e 0239     		subs	r1, r1, #2
 774 0020 3046     		mov	r0, r6
 775              	.LVL101:
 776 0022 FFF7FEFF 		bl	crc16
 777              	.LVL102:
 778              		.loc 1 315 0
 779 0026 2368     		ldr	r3, [r4]
 780 0028 1E44     		add	r6, r6, r3
 781              	.LVL103:
 782 002a 16F8022C 		ldrb	r2, [r6, #-2]	@ zero_extendqisi2
 783 002e 16F8013C 		ldrb	r3, [r6, #-1]	@ zero_extendqisi2
 784 0032 43EA0223 		orr	r3, r3, r2, lsl #8
 785              		.loc 1 316 0
 786 0036 9842     		cmp	r0, r3
 787 0038 18BF     		it	ne
 788 003a 6FF00205 		mvnne	r5, #2
 789              	.LVL104:
 790 003e E9E7     		b	.L54
 791              	.LBE4:
 792              		.cfi_endproc
 793              	.LFE263:
 794              		.size	rfhelp_read_rx_data_crc, .-rfhelp_read_rx_data_crc
 795              		.section	.text.rfhelp_rf_status,"ax",%progbits
 796              		.align	1
 797              		.p2align 4,,15
 798              		.global	rfhelp_rf_status
ARM GAS  C:\Users\CHRIST~1\AppData\Local\Temp\ccLO7YMd.s 			page 15


 799              		.syntax unified
 800              		.thumb
 801              		.thumb_func
 802              		.fpu fpv4-sp-d16
 803              		.type	rfhelp_rf_status, %function
 804              	rfhelp_rf_status:
 805              	.LFB264:
 806              		.loc 1 325 0
 807              		.cfi_startproc
 808              		@ args = 0, pretend = 0, frame = 0
 809              		@ frame_needed = 0, uses_anonymous_args = 0
 810 0000 38B5     		push	{r3, r4, r5, lr}
 811              		.cfi_def_cfa_offset 16
 812              		.cfi_offset 3, -16
 813              		.cfi_offset 4, -12
 814              		.cfi_offset 5, -8
 815              		.cfi_offset 14, -4
 816              		.loc 1 326 0
 817 0002 064C     		ldr	r4, .L59
 818 0004 2046     		mov	r0, r4
 819 0006 FFF7FEFF 		bl	chMtxLock
 820              	.LVL105:
 821              		.loc 1 327 0
 822 000a FFF7FEFF 		bl	rf_status
 823              	.LVL106:
 824 000e 0546     		mov	r5, r0
 825              	.LVL107:
 826              		.loc 1 328 0
 827 0010 2046     		mov	r0, r4
 828              	.LVL108:
 829 0012 FFF7FEFF 		bl	chMtxUnlock
 830              	.LVL109:
 831              		.loc 1 331 0
 832 0016 2846     		mov	r0, r5
 833 0018 38BD     		pop	{r3, r4, r5, pc}
 834              	.LVL110:
 835              	.L60:
 836 001a 00BF     		.align	2
 837              	.L59:
 838 001c 00000000 		.word	.LANCHOR0
 839              		.cfi_endproc
 840              	.LFE264:
 841              		.size	rfhelp_rf_status, .-rfhelp_rf_status
 842              		.section	.text.rfhelp_set_tx_addr,"ax",%progbits
 843              		.align	1
 844              		.p2align 4,,15
 845              		.global	rfhelp_set_tx_addr
 846              		.syntax unified
 847              		.thumb
 848              		.thumb_func
 849              		.fpu fpv4-sp-d16
 850              		.type	rfhelp_set_tx_addr, %function
 851              	rfhelp_set_tx_addr:
 852              	.LFB265:
 853              		.loc 1 333 0
 854              		.cfi_startproc
 855              		@ args = 0, pretend = 0, frame = 0
ARM GAS  C:\Users\CHRIST~1\AppData\Local\Temp\ccLO7YMd.s 			page 16


 856              		@ frame_needed = 0, uses_anonymous_args = 0
 857              	.LVL111:
 858 0000 F8B5     		push	{r3, r4, r5, r6, r7, lr}
 859              		.cfi_def_cfa_offset 24
 860              		.cfi_offset 3, -24
 861              		.cfi_offset 4, -20
 862              		.cfi_offset 5, -16
 863              		.cfi_offset 6, -12
 864              		.cfi_offset 7, -8
 865              		.cfi_offset 14, -4
 866 0002 0746     		mov	r7, r0
 867 0004 0C46     		mov	r4, r1
 868              		.loc 1 334 0
 869 0006 0F4E     		ldr	r6, .L63
 870 0008 3046     		mov	r0, r6
 871              	.LVL112:
 872 000a FFF7FEFF 		bl	chMtxLock
 873              	.LVL113:
 874              		.loc 1 335 0
 875 000e 0E4D     		ldr	r5, .L63+4
 876 0010 2246     		mov	r2, r4
 877 0012 3946     		mov	r1, r7
 878 0014 2846     		mov	r0, r5
 879 0016 FFF7FEFF 		bl	memcpy
 880              	.LVL114:
 881              		.loc 1 336 0
 882 001a 0C4B     		ldr	r3, .L63+8
 883 001c 1C60     		str	r4, [r3]
 884              		.loc 1 338 0
 885 001e 2246     		mov	r2, r4
 886 0020 2946     		mov	r1, r5
 887 0022 0B48     		ldr	r0, .L63+12
 888 0024 FFF7FEFF 		bl	memcmp
 889              	.LVL115:
 890 0028 B0FA80F0 		clz	r0, r0
 891 002c 4009     		lsrs	r0, r0, #5
 892 002e 094B     		ldr	r3, .L63+16
 893 0030 1870     		strb	r0, [r3]
 894              		.loc 1 340 0
 895 0032 2146     		mov	r1, r4
 896 0034 2846     		mov	r0, r5
 897 0036 FFF7FEFF 		bl	rf_set_tx_addr
 898              	.LVL116:
 899              		.loc 1 341 0
 900 003a 3046     		mov	r0, r6
 901 003c FFF7FEFF 		bl	chMtxUnlock
 902              	.LVL117:
 903              		.loc 1 342 0
 904 0040 F8BD     		pop	{r3, r4, r5, r6, r7, pc}
 905              	.LVL118:
 906              	.L64:
 907 0042 00BF     		.align	2
 908              	.L63:
 909 0044 00000000 		.word	.LANCHOR0
 910 0048 00000000 		.word	.LANCHOR4
 911 004c 00000000 		.word	.LANCHOR1
 912 0050 00000000 		.word	.LANCHOR3
ARM GAS  C:\Users\CHRIST~1\AppData\Local\Temp\ccLO7YMd.s 			page 17


 913 0054 00000000 		.word	.LANCHOR5
 914              		.cfi_endproc
 915              	.LFE265:
 916              		.size	rfhelp_set_tx_addr, .-rfhelp_set_tx_addr
 917              		.section	.text.rfhelp_set_rx_addr,"ax",%progbits
 918              		.align	1
 919              		.p2align 4,,15
 920              		.global	rfhelp_set_rx_addr
 921              		.syntax unified
 922              		.thumb
 923              		.thumb_func
 924              		.fpu fpv4-sp-d16
 925              		.type	rfhelp_set_rx_addr, %function
 926              	rfhelp_set_rx_addr:
 927              	.LFB266:
 928              		.loc 1 344 0
 929              		.cfi_startproc
 930              		@ args = 0, pretend = 0, frame = 0
 931              		@ frame_needed = 0, uses_anonymous_args = 0
 932              	.LVL119:
 933 0000 2DE9F041 		push	{r4, r5, r6, r7, r8, lr}
 934              		.cfi_def_cfa_offset 24
 935              		.cfi_offset 4, -24
 936              		.cfi_offset 5, -20
 937              		.cfi_offset 6, -16
 938              		.cfi_offset 7, -12
 939              		.cfi_offset 8, -8
 940              		.cfi_offset 14, -4
 941 0004 0546     		mov	r5, r0
 942 0006 0F46     		mov	r7, r1
 943 0008 1446     		mov	r4, r2
 944              		.loc 1 345 0
 945 000a 114E     		ldr	r6, .L67
 946 000c 3046     		mov	r0, r6
 947              	.LVL120:
 948 000e FFF7FEFF 		bl	chMtxLock
 949              	.LVL121:
 950              		.loc 1 346 0
 951 0012 DFF84C80 		ldr	r8, .L67+16
 952 0016 05EB8500 		add	r0, r5, r5, lsl #2
 953 001a 2246     		mov	r2, r4
 954 001c 3946     		mov	r1, r7
 955 001e 4044     		add	r0, r0, r8
 956 0020 FFF7FEFF 		bl	memcpy
 957              	.LVL122:
 958              		.loc 1 347 0
 959 0024 0B4B     		ldr	r3, .L67+4
 960 0026 1C60     		str	r4, [r3]
 961              		.loc 1 349 0
 962 0028 2246     		mov	r2, r4
 963 002a 0B49     		ldr	r1, .L67+8
 964 002c 4046     		mov	r0, r8
 965 002e FFF7FEFF 		bl	memcmp
 966              	.LVL123:
 967 0032 B0FA80F0 		clz	r0, r0
 968 0036 4009     		lsrs	r0, r0, #5
 969 0038 084B     		ldr	r3, .L67+12
ARM GAS  C:\Users\CHRIST~1\AppData\Local\Temp\ccLO7YMd.s 			page 18


 970 003a 1870     		strb	r0, [r3]
 971              		.loc 1 352 0
 972 003c 2246     		mov	r2, r4
 973 003e 3946     		mov	r1, r7
 974 0040 2846     		mov	r0, r5
 975 0042 FFF7FEFF 		bl	rf_set_rx_addr
 976              	.LVL124:
 977              		.loc 1 353 0
 978 0046 3046     		mov	r0, r6
 979 0048 FFF7FEFF 		bl	chMtxUnlock
 980              	.LVL125:
 981              		.loc 1 354 0
 982 004c BDE8F081 		pop	{r4, r5, r6, r7, r8, pc}
 983              	.LVL126:
 984              	.L68:
 985              		.align	2
 986              	.L67:
 987 0050 00000000 		.word	.LANCHOR0
 988 0054 00000000 		.word	.LANCHOR1
 989 0058 00000000 		.word	.LANCHOR4
 990 005c 00000000 		.word	.LANCHOR5
 991 0060 00000000 		.word	.LANCHOR3
 992              		.cfi_endproc
 993              	.LFE266:
 994              		.size	rfhelp_set_rx_addr, .-rfhelp_set_rx_addr
 995              		.section	.text.rfhelp_power_down,"ax",%progbits
 996              		.align	1
 997              		.p2align 4,,15
 998              		.global	rfhelp_power_down
 999              		.syntax unified
 1000              		.thumb
 1001              		.thumb_func
 1002              		.fpu fpv4-sp-d16
 1003              		.type	rfhelp_power_down, %function
 1004              	rfhelp_power_down:
 1005              	.LFB267:
 1006              		.loc 1 356 0
 1007              		.cfi_startproc
 1008              		@ args = 0, pretend = 0, frame = 0
 1009              		@ frame_needed = 0, uses_anonymous_args = 0
 1010 0000 10B5     		push	{r4, lr}
 1011              		.cfi_def_cfa_offset 8
 1012              		.cfi_offset 4, -8
 1013              		.cfi_offset 14, -4
 1014              		.loc 1 357 0
 1015 0002 054C     		ldr	r4, .L71
 1016 0004 2046     		mov	r0, r4
 1017 0006 FFF7FEFF 		bl	chMtxLock
 1018              	.LVL127:
 1019              		.loc 1 358 0
 1020 000a FFF7FEFF 		bl	rf_power_down
 1021              	.LVL128:
 1022              		.loc 1 359 0
 1023 000e 2046     		mov	r0, r4
 1024 0010 FFF7FEFF 		bl	chMtxUnlock
 1025              	.LVL129:
 1026              		.loc 1 360 0
ARM GAS  C:\Users\CHRIST~1\AppData\Local\Temp\ccLO7YMd.s 			page 19


 1027 0014 10BD     		pop	{r4, pc}
 1028              	.L72:
 1029 0016 00BF     		.align	2
 1030              	.L71:
 1031 0018 00000000 		.word	.LANCHOR0
 1032              		.cfi_endproc
 1033              	.LFE267:
 1034              		.size	rfhelp_power_down, .-rfhelp_power_down
 1035              		.section	.text.rfhelp_power_up,"ax",%progbits
 1036              		.align	1
 1037              		.p2align 4,,15
 1038              		.global	rfhelp_power_up
 1039              		.syntax unified
 1040              		.thumb
 1041              		.thumb_func
 1042              		.fpu fpv4-sp-d16
 1043              		.type	rfhelp_power_up, %function
 1044              	rfhelp_power_up:
 1045              	.LFB268:
 1046              		.loc 1 362 0
 1047              		.cfi_startproc
 1048              		@ args = 0, pretend = 0, frame = 0
 1049              		@ frame_needed = 0, uses_anonymous_args = 0
 1050 0000 10B5     		push	{r4, lr}
 1051              		.cfi_def_cfa_offset 8
 1052              		.cfi_offset 4, -8
 1053              		.cfi_offset 14, -4
 1054              		.loc 1 363 0
 1055 0002 054C     		ldr	r4, .L75
 1056 0004 2046     		mov	r0, r4
 1057 0006 FFF7FEFF 		bl	chMtxLock
 1058              	.LVL130:
 1059              		.loc 1 364 0
 1060 000a FFF7FEFF 		bl	rf_power_up
 1061              	.LVL131:
 1062              		.loc 1 365 0
 1063 000e 2046     		mov	r0, r4
 1064 0010 FFF7FEFF 		bl	chMtxUnlock
 1065              	.LVL132:
 1066              		.loc 1 366 0
 1067 0014 10BD     		pop	{r4, pc}
 1068              	.L76:
 1069 0016 00BF     		.align	2
 1070              	.L75:
 1071 0018 00000000 		.word	.LANCHOR0
 1072              		.cfi_endproc
 1073              	.LFE268:
 1074              		.size	rfhelp_power_up, .-rfhelp_power_up
 1075              		.section	.rodata
 1076              		.align	2
 1077              		.set	.LANCHOR2,. + 0
 1078              	.LC0:
 1079 0000 12       		.byte	18
 1080 0001 41       		.byte	65
 1081 0002 F3       		.byte	-13
 1082              		.section	.bss.address_length,"aw",%nobits
 1083              		.align	2
ARM GAS  C:\Users\CHRIST~1\AppData\Local\Temp\ccLO7YMd.s 			page 20


 1084              		.set	.LANCHOR1,. + 0
 1085              		.type	address_length, %object
 1086              		.size	address_length, 4
 1087              	address_length:
 1088 0000 00000000 		.space	4
 1089              		.section	.bss.init_done,"aw",%nobits
 1090              		.set	.LANCHOR6,. + 0
 1091              		.type	init_done, %object
 1092              		.size	init_done, 1
 1093              	init_done:
 1094 0000 00       		.space	1
 1095              		.section	.bss.nrf_conf,"aw",%nobits
 1096              		.align	2
 1097              		.set	.LANCHOR7,. + 0
 1098              		.type	nrf_conf, %object
 1099              		.size	nrf_conf, 10
 1100              	nrf_conf:
 1101 0000 00000000 		.space	10
 1101      00000000 
 1101      0000
 1102              		.section	.bss.rf_mutex,"aw",%nobits
 1103              		.align	2
 1104              		.set	.LANCHOR0,. + 0
 1105              		.type	rf_mutex, %object
 1106              		.size	rf_mutex, 16
 1107              	rf_mutex:
 1108 0000 00000000 		.space	16
 1108      00000000 
 1108      00000000 
 1108      00000000 
 1109              		.section	.bss.rx_addr,"aw",%nobits
 1110              		.align	2
 1111              		.set	.LANCHOR3,. + 0
 1112              		.type	rx_addr, %object
 1113              		.size	rx_addr, 30
 1114              	rx_addr:
 1115 0000 00000000 		.space	30
 1115      00000000 
 1115      00000000 
 1115      00000000 
 1115      00000000 
 1116              		.section	.bss.tx_addr,"aw",%nobits
 1117              		.align	2
 1118              		.set	.LANCHOR4,. + 0
 1119              		.type	tx_addr, %object
 1120              		.size	tx_addr, 5
 1121              	tx_addr:
 1122 0000 00000000 		.space	5
 1122      00
 1123              		.section	.bss.tx_pipe0_addr_eq,"aw",%nobits
 1124              		.set	.LANCHOR5,. + 0
 1125              		.type	tx_pipe0_addr_eq, %object
 1126              		.size	tx_pipe0_addr_eq, 1
 1127              	tx_pipe0_addr_eq:
 1128 0000 00       		.space	1
 1129              		.text
 1130              	.Letext0:
ARM GAS  C:\Users\CHRIST~1\AppData\Local\Temp\ccLO7YMd.s 			page 21


 1131              		.file 2 "c:\\program files (x86)\\gnu tools arm embedded\\7 2017-q4-major\\arm-none-eabi\\include\
 1132              		.file 3 "c:\\program files (x86)\\gnu tools arm embedded\\7 2017-q4-major\\arm-none-eabi\\include\
 1133              		.file 4 "c:\\program files (x86)\\gnu tools arm embedded\\7 2017-q4-major\\lib\\gcc\\arm-none-eabi
 1134              		.file 5 "ChibiOS_3.0.2/os/rt/ports/ARMCMx/compilers/GCC/chtypes.h"
 1135              		.file 6 "ChibiOS_3.0.2/os/rt/include/chsystypes.h"
 1136              		.file 7 "ChibiOS_3.0.2/os/rt/include/chschd.h"
 1137              		.file 8 "ChibiOS_3.0.2/os/ext/CMSIS/include/core_cm4.h"
 1138              		.file 9 "ChibiOS_3.0.2/os/ext/CMSIS/ST/system_stm32f4xx.h"
 1139              		.file 10 "ChibiOS_3.0.2/os/ext/CMSIS/ST/stm32f407xx.h"
 1140              		.file 11 "ChibiOS_3.0.2/os/rt/ports/ARMCMx/chcore.h"
 1141              		.file 12 "ChibiOS_3.0.2/os/rt/ports/ARMCMx/chcore_v7m.h"
 1142              		.file 13 "ChibiOS_3.0.2/os/rt/include/chtm.h"
 1143              		.file 14 "ChibiOS_3.0.2/os/rt/include/chsem.h"
 1144              		.file 15 "ChibiOS_3.0.2/os/rt/include/chmtx.h"
 1145              		.file 16 "ChibiOS_3.0.2/os/rt/include/chregistry.h"
 1146              		.file 17 "ChibiOS_3.0.2/os/rt/include/chevents.h"
 1147              		.file 18 "ChibiOS_3.0.2/os/rt/include/chqueues.h"
 1148              		.file 19 "./datatypes.h"
 1149              		.file 20 "./conf_general.h"
 1150              		.file 21 "ChibiOS_3.0.2/os/hal/ports/STM32/STM32F4xx/stm32_dma.h"
 1151              		.file 22 "ChibiOS_3.0.2/os/hal/ports/STM32/LLD/GPIOv2/pal_lld.h"
 1152              		.file 23 "ChibiOS_3.0.2/os/hal/include/can.h"
 1153              		.file 24 "ChibiOS_3.0.2/os/hal/ports/STM32/LLD/can_lld.h"
 1154              		.file 25 "ChibiOS_3.0.2/os/hal/include/i2c.h"
 1155              		.file 26 "ChibiOS_3.0.2/os/hal/ports/STM32/LLD/I2Cv1/i2c_lld.h"
 1156              		.file 27 "ChibiOS_3.0.2/os/hal/include/icu.h"
 1157              		.file 28 "ChibiOS_3.0.2/os/hal/ports/STM32/LLD/TIMv1/icu_lld.h"
 1158              		.file 29 "ChibiOS_3.0.2/os/hal/ports/STM32/LLD/TIMv1/stm32_tim.h"
 1159              		.file 30 "ChibiOS_3.0.2/os/hal/include/spi.h"
 1160              		.file 31 "ChibiOS_3.0.2/os/hal/ports/STM32/LLD/SPIv1/spi_lld.h"
 1161              		.file 32 "ChibiOS_3.0.2/os/hal/include/uart.h"
 1162              		.file 33 "ChibiOS_3.0.2/os/hal/ports/STM32/LLD/USARTv1/uart_lld.h"
 1163              		.file 34 "ChibiOS_3.0.2/os/hal/include/usb.h"
 1164              		.file 35 "ChibiOS_3.0.2/os/hal/ports/STM32/LLD/OTGv1/usb_lld.h"
 1165              		.file 36 "ChibiOS_3.0.2/os/hal/ports/STM32/LLD/OTGv1/stm32_otg.h"
 1166              		.file 37 "c:\\program files (x86)\\gnu tools arm embedded\\7 2017-q4-major\\arm-none-eabi\\include
 1167              		.file 38 "c:\\program files (x86)\\gnu tools arm embedded\\7 2017-q4-major\\arm-none-eabi\\include
 1168              		.file 39 "c:\\program files (x86)\\gnu tools arm embedded\\7 2017-q4-major\\arm-none-eabi\\include
 1169              		.file 40 "nrf/rf.h"
 1170              		.file 41 "c:\\program files (x86)\\gnu tools arm embedded\\7 2017-q4-major\\arm-none-eabi\\include
 1171              		.file 42 "./crc.h"
 1172              		.file 43 "ChibiOS_3.0.2/os/rt/include/chthreads.h"
 1173              		.file 44 "<built-in>"
