ARM GAS  C:\Users\CHRIST~1\AppData\Local\Temp\cc3R47K7.s 			page 1


   1              		.cpu cortex-m4
   2              		.eabi_attribute 27, 1
   3              		.eabi_attribute 28, 1
   4              		.eabi_attribute 20, 1
   5              		.eabi_attribute 21, 1
   6              		.eabi_attribute 23, 3
   7              		.eabi_attribute 24, 1
   8              		.eabi_attribute 25, 1
   9              		.eabi_attribute 26, 1
  10              		.eabi_attribute 30, 1
  11              		.eabi_attribute 34, 1
  12              		.eabi_attribute 18, 4
  13              		.file	"stm32f4xx_tim.c"
  14              		.text
  15              	.Ltext0:
  16              		.cfi_sections	.debug_frame
  17              		.section	.text.TI1_Config,"ax",%progbits
  18              		.align	1
  19              		.p2align 4,,15
  20              		.syntax unified
  21              		.thumb
  22              		.thumb_func
  23              		.fpu fpv4-sp-d16
  24              		.type	TI1_Config, %function
  25              	TI1_Config:
  26              	.LFB200:
  27              		.file 1 "ChibiOS_3.0.2/ext/stdperiph_stm32f4/src/stm32f4xx_tim.c"
  28              		.loc 1 3210 0
  29              		.cfi_startproc
  30              		@ args = 0, pretend = 0, frame = 0
  31              		@ frame_needed = 0, uses_anonymous_args = 0
  32              		@ link register save eliminated.
  33              	.LVL0:
  34 0000 70B4     		push	{r4, r5, r6}
  35              		.cfi_def_cfa_offset 12
  36              		.cfi_offset 4, -12
  37              		.cfi_offset 5, -8
  38              		.cfi_offset 6, -4
  39              	.LVL1:
  40              		.loc 1 3214 0
  41 0002 046A     		ldr	r4, [r0, #32]
  42 0004 24F00104 		bic	r4, r4, #1
  43 0008 2404     		lsls	r4, r4, #16
  44 000a 240C     		lsrs	r4, r4, #16
  45 000c 0462     		str	r4, [r0, #32]
  46              		.loc 1 3215 0
  47 000e 8569     		ldr	r5, [r0, #24]
  48              	.LVL2:
  49              		.loc 1 3216 0
  50 0010 066A     		ldr	r6, [r0, #32]
  51              	.LVL3:
  52              		.loc 1 3219 0
  53 0012 4FF60C74 		movw	r4, #65292
  54 0016 2C40     		ands	r4, r4, r5
  55              	.LVL4:
  56              		.loc 1 3223 0
  57 0018 4FF6F575 		movw	r5, #65525
ARM GAS  C:\Users\CHRIST~1\AppData\Local\Temp\cc3R47K7.s 			page 2


  58 001c 3540     		ands	r5, r5, r6
  59              	.LVL5:
  60              		.loc 1 3220 0
  61 001e 42EA0313 		orr	r3, r2, r3, lsl #4
  62              	.LVL6:
  63 0022 1C43     		orrs	r4, r4, r3
  64              	.LVL7:
  65              		.loc 1 3227 0
  66 0024 A4B2     		uxth	r4, r4
  67 0026 8461     		str	r4, [r0, #24]
  68              		.loc 1 3224 0
  69 0028 41F00101 		orr	r1, r1, #1
  70              	.LVL8:
  71              		.loc 1 3228 0
  72 002c 0D43     		orrs	r5, r5, r1
  73              	.LVL9:
  74 002e 0562     		str	r5, [r0, #32]
  75              		.loc 1 3229 0
  76 0030 70BC     		pop	{r4, r5, r6}
  77              		.cfi_restore 6
  78              		.cfi_restore 5
  79              		.cfi_restore 4
  80              		.cfi_def_cfa_offset 0
  81              	.LVL10:
  82 0032 7047     		bx	lr
  83              		.cfi_endproc
  84              	.LFE200:
  85              		.size	TI1_Config, .-TI1_Config
  86              		.section	.text.TI2_Config,"ax",%progbits
  87              		.align	1
  88              		.p2align 4,,15
  89              		.syntax unified
  90              		.thumb
  91              		.thumb_func
  92              		.fpu fpv4-sp-d16
  93              		.type	TI2_Config, %function
  94              	TI2_Config:
  95              	.LFB201:
  96              		.loc 1 3251 0
  97              		.cfi_startproc
  98              		@ args = 0, pretend = 0, frame = 0
  99              		@ frame_needed = 0, uses_anonymous_args = 0
 100              		@ link register save eliminated.
 101              	.LVL11:
 102 0000 70B4     		push	{r4, r5, r6}
 103              		.cfi_def_cfa_offset 12
 104              		.cfi_offset 4, -12
 105              		.cfi_offset 5, -8
 106              		.cfi_offset 6, -4
 107              	.LVL12:
 108              		.loc 1 3255 0
 109 0002 046A     		ldr	r4, [r0, #32]
 110 0004 24F01004 		bic	r4, r4, #16
 111 0008 2404     		lsls	r4, r4, #16
 112 000a 240C     		lsrs	r4, r4, #16
 113 000c 0462     		str	r4, [r0, #32]
 114              		.loc 1 3256 0
ARM GAS  C:\Users\CHRIST~1\AppData\Local\Temp\cc3R47K7.s 			page 3


 115 000e 8569     		ldr	r5, [r0, #24]
 116              	.LVL13:
 117              		.loc 1 3257 0
 118 0010 066A     		ldr	r6, [r0, #32]
 119              	.LVL14:
 120              		.loc 1 3261 0
 121 0012 25F44075 		bic	r5, r5, #768
 122              	.LVL15:
 123 0016 2D05     		lsls	r5, r5, #20
 124 0018 2D0D     		lsrs	r5, r5, #20
 125              	.LVL16:
 126              		.loc 1 3266 0
 127 001a 4FF65F74 		movw	r4, #65375
 128 001e 3440     		ands	r4, r4, r6
 129              	.LVL17:
 130              		.loc 1 3263 0
 131 0020 1202     		lsls	r2, r2, #8
 132              	.LVL18:
 133 0022 42EA0333 		orr	r3, r2, r3, lsl #12
 134              	.LVL19:
 135 0026 1D43     		orrs	r5, r5, r3
 136              	.LVL20:
 137              		.loc 1 3270 0
 138 0028 ADB2     		uxth	r5, r5
 139 002a 8561     		str	r5, [r0, #24]
 140              		.loc 1 3267 0
 141 002c 44EA0111 		orr	r1, r4, r1, lsl #4
 142              	.LVL21:
 143 0030 41F01001 		orr	r1, r1, #16
 144              		.loc 1 3271 0
 145 0034 89B2     		uxth	r1, r1
 146 0036 0162     		str	r1, [r0, #32]
 147              		.loc 1 3272 0
 148 0038 70BC     		pop	{r4, r5, r6}
 149              		.cfi_restore 6
 150              		.cfi_restore 5
 151              		.cfi_restore 4
 152              		.cfi_def_cfa_offset 0
 153              	.LVL22:
 154 003a 7047     		bx	lr
 155              		.cfi_endproc
 156              	.LFE201:
 157              		.size	TI2_Config, .-TI2_Config
 158              		.section	.text.TIM_DeInit,"ax",%progbits
 159              		.align	1
 160              		.p2align 4,,15
 161              		.global	TIM_DeInit
 162              		.syntax unified
 163              		.thumb
 164              		.thumb_func
 165              		.fpu fpv4-sp-d16
 166              		.type	TIM_DeInit, %function
 167              	TIM_DeInit:
 168              	.LFB112:
 169              		.loc 1 205 0
 170              		.cfi_startproc
 171              		@ args = 0, pretend = 0, frame = 0
ARM GAS  C:\Users\CHRIST~1\AppData\Local\Temp\cc3R47K7.s 			page 4


 172              		@ frame_needed = 0, uses_anonymous_args = 0
 173              	.LVL23:
 174 0000 08B5     		push	{r3, lr}
 175              		.cfi_def_cfa_offset 8
 176              		.cfi_offset 3, -8
 177              		.cfi_offset 14, -4
 178              		.loc 1 209 0
 179 0002 584B     		ldr	r3, .L34
 180 0004 9842     		cmp	r0, r3
 181 0006 31D0     		beq	.L21
 182              		.loc 1 214 0
 183 0008 B0F1804F 		cmp	r0, #1073741824
 184 000c 37D0     		beq	.L22
 185              		.loc 1 219 0
 186 000e 564B     		ldr	r3, .L34+4
 187 0010 9842     		cmp	r0, r3
 188 0012 3DD0     		beq	.L23
 189              		.loc 1 224 0
 190 0014 554B     		ldr	r3, .L34+8
 191 0016 9842     		cmp	r0, r3
 192 0018 43D0     		beq	.L24
 193              		.loc 1 229 0
 194 001a 554B     		ldr	r3, .L34+12
 195 001c 9842     		cmp	r0, r3
 196 001e 49D0     		beq	.L25
 197              		.loc 1 234 0
 198 0020 544B     		ldr	r3, .L34+16
 199 0022 9842     		cmp	r0, r3
 200 0024 4FD0     		beq	.L26
 201              		.loc 1 239 0
 202 0026 544B     		ldr	r3, .L34+20
 203 0028 9842     		cmp	r0, r3
 204 002a 55D0     		beq	.L27
 205              		.loc 1 244 0
 206 002c 534B     		ldr	r3, .L34+24
 207 002e 9842     		cmp	r0, r3
 208 0030 5BD0     		beq	.L28
 209              		.loc 1 249 0
 210 0032 534B     		ldr	r3, .L34+28
 211 0034 9842     		cmp	r0, r3
 212 0036 61D0     		beq	.L29
 213              		.loc 1 254 0
 214 0038 524B     		ldr	r3, .L34+32
 215 003a 9842     		cmp	r0, r3
 216 003c 69D0     		beq	.L30
 217              		.loc 1 259 0
 218 003e 524B     		ldr	r3, .L34+36
 219 0040 9842     		cmp	r0, r3
 220 0042 71D0     		beq	.L31
 221              		.loc 1 264 0
 222 0044 514B     		ldr	r3, .L34+40
 223 0046 9842     		cmp	r0, r3
 224 0048 79D0     		beq	.L32
 225              		.loc 1 269 0
 226 004a 514B     		ldr	r3, .L34+44
 227 004c 9842     		cmp	r0, r3
 228 004e 7FD0     		beq	.L33
ARM GAS  C:\Users\CHRIST~1\AppData\Local\Temp\cc3R47K7.s 			page 5


 229              		.loc 1 276 0
 230 0050 504B     		ldr	r3, .L34+48
 231 0052 9842     		cmp	r0, r3
 232 0054 12D1     		bne	.L5
 233              		.loc 1 278 0
 234 0056 0121     		movs	r1, #1
 235 0058 4FF48070 		mov	r0, #256
 236              	.LVL24:
 237 005c FFF7FEFF 		bl	RCC_APB1PeriphResetCmd
 238              	.LVL25:
 239              		.loc 1 279 0
 240 0060 0021     		movs	r1, #0
 241 0062 4FF48070 		mov	r0, #256
 242 0066 FFF7FEFF 		bl	RCC_APB1PeriphResetCmd
 243              	.LVL26:
 244              		.loc 1 282 0
 245 006a 07E0     		b	.L5
 246              	.LVL27:
 247              	.L21:
 248              		.loc 1 211 0
 249 006c 0121     		movs	r1, #1
 250 006e 0846     		mov	r0, r1
 251              	.LVL28:
 252 0070 FFF7FEFF 		bl	RCC_APB2PeriphResetCmd
 253              	.LVL29:
 254              		.loc 1 212 0
 255 0074 0021     		movs	r1, #0
 256 0076 0120     		movs	r0, #1
 257 0078 FFF7FEFF 		bl	RCC_APB2PeriphResetCmd
 258              	.LVL30:
 259              	.L5:
 260              		.loc 1 282 0
 261 007c 08BD     		pop	{r3, pc}
 262              	.LVL31:
 263              	.L22:
 264              		.loc 1 216 0
 265 007e 0121     		movs	r1, #1
 266 0080 0846     		mov	r0, r1
 267              	.LVL32:
 268 0082 FFF7FEFF 		bl	RCC_APB1PeriphResetCmd
 269              	.LVL33:
 270              		.loc 1 217 0
 271 0086 0021     		movs	r1, #0
 272 0088 0120     		movs	r0, #1
 273 008a FFF7FEFF 		bl	RCC_APB1PeriphResetCmd
 274              	.LVL34:
 275 008e F5E7     		b	.L5
 276              	.LVL35:
 277              	.L23:
 278              		.loc 1 221 0
 279 0090 0121     		movs	r1, #1
 280 0092 0220     		movs	r0, #2
 281              	.LVL36:
 282 0094 FFF7FEFF 		bl	RCC_APB1PeriphResetCmd
 283              	.LVL37:
 284              		.loc 1 222 0
 285 0098 0021     		movs	r1, #0
ARM GAS  C:\Users\CHRIST~1\AppData\Local\Temp\cc3R47K7.s 			page 6


 286 009a 0220     		movs	r0, #2
 287 009c FFF7FEFF 		bl	RCC_APB1PeriphResetCmd
 288              	.LVL38:
 289 00a0 ECE7     		b	.L5
 290              	.LVL39:
 291              	.L24:
 292              		.loc 1 226 0
 293 00a2 0121     		movs	r1, #1
 294 00a4 0420     		movs	r0, #4
 295              	.LVL40:
 296 00a6 FFF7FEFF 		bl	RCC_APB1PeriphResetCmd
 297              	.LVL41:
 298              		.loc 1 227 0
 299 00aa 0021     		movs	r1, #0
 300 00ac 0420     		movs	r0, #4
 301 00ae FFF7FEFF 		bl	RCC_APB1PeriphResetCmd
 302              	.LVL42:
 303 00b2 E3E7     		b	.L5
 304              	.LVL43:
 305              	.L25:
 306              		.loc 1 231 0
 307 00b4 0121     		movs	r1, #1
 308 00b6 0820     		movs	r0, #8
 309              	.LVL44:
 310 00b8 FFF7FEFF 		bl	RCC_APB1PeriphResetCmd
 311              	.LVL45:
 312              		.loc 1 232 0
 313 00bc 0021     		movs	r1, #0
 314 00be 0820     		movs	r0, #8
 315 00c0 FFF7FEFF 		bl	RCC_APB1PeriphResetCmd
 316              	.LVL46:
 317 00c4 DAE7     		b	.L5
 318              	.LVL47:
 319              	.L26:
 320              		.loc 1 236 0
 321 00c6 0121     		movs	r1, #1
 322 00c8 1020     		movs	r0, #16
 323              	.LVL48:
 324 00ca FFF7FEFF 		bl	RCC_APB1PeriphResetCmd
 325              	.LVL49:
 326              		.loc 1 237 0
 327 00ce 0021     		movs	r1, #0
 328 00d0 1020     		movs	r0, #16
 329 00d2 FFF7FEFF 		bl	RCC_APB1PeriphResetCmd
 330              	.LVL50:
 331 00d6 D1E7     		b	.L5
 332              	.LVL51:
 333              	.L27:
 334              		.loc 1 241 0
 335 00d8 0121     		movs	r1, #1
 336 00da 2020     		movs	r0, #32
 337              	.LVL52:
 338 00dc FFF7FEFF 		bl	RCC_APB1PeriphResetCmd
 339              	.LVL53:
 340              		.loc 1 242 0
 341 00e0 0021     		movs	r1, #0
 342 00e2 2020     		movs	r0, #32
ARM GAS  C:\Users\CHRIST~1\AppData\Local\Temp\cc3R47K7.s 			page 7


 343 00e4 FFF7FEFF 		bl	RCC_APB1PeriphResetCmd
 344              	.LVL54:
 345 00e8 C8E7     		b	.L5
 346              	.LVL55:
 347              	.L28:
 348              		.loc 1 246 0
 349 00ea 0121     		movs	r1, #1
 350 00ec 0220     		movs	r0, #2
 351              	.LVL56:
 352 00ee FFF7FEFF 		bl	RCC_APB2PeriphResetCmd
 353              	.LVL57:
 354              		.loc 1 247 0
 355 00f2 0021     		movs	r1, #0
 356 00f4 0220     		movs	r0, #2
 357 00f6 FFF7FEFF 		bl	RCC_APB2PeriphResetCmd
 358              	.LVL58:
 359 00fa BFE7     		b	.L5
 360              	.LVL59:
 361              	.L29:
 362              		.loc 1 251 0
 363 00fc 0121     		movs	r1, #1
 364 00fe 4FF48030 		mov	r0, #65536
 365              	.LVL60:
 366 0102 FFF7FEFF 		bl	RCC_APB2PeriphResetCmd
 367              	.LVL61:
 368              		.loc 1 252 0
 369 0106 0021     		movs	r1, #0
 370 0108 4FF48030 		mov	r0, #65536
 371 010c FFF7FEFF 		bl	RCC_APB2PeriphResetCmd
 372              	.LVL62:
 373 0110 B4E7     		b	.L5
 374              	.LVL63:
 375              	.L30:
 376              		.loc 1 256 0
 377 0112 0121     		movs	r1, #1
 378 0114 4FF40030 		mov	r0, #131072
 379              	.LVL64:
 380 0118 FFF7FEFF 		bl	RCC_APB2PeriphResetCmd
 381              	.LVL65:
 382              		.loc 1 257 0
 383 011c 0021     		movs	r1, #0
 384 011e 4FF40030 		mov	r0, #131072
 385 0122 FFF7FEFF 		bl	RCC_APB2PeriphResetCmd
 386              	.LVL66:
 387 0126 A9E7     		b	.L5
 388              	.LVL67:
 389              	.L31:
 390              		.loc 1 261 0
 391 0128 0121     		movs	r1, #1
 392 012a 4FF48020 		mov	r0, #262144
 393              	.LVL68:
 394 012e FFF7FEFF 		bl	RCC_APB2PeriphResetCmd
 395              	.LVL69:
 396              		.loc 1 262 0
 397 0132 0021     		movs	r1, #0
 398 0134 4FF48020 		mov	r0, #262144
 399 0138 FFF7FEFF 		bl	RCC_APB2PeriphResetCmd
ARM GAS  C:\Users\CHRIST~1\AppData\Local\Temp\cc3R47K7.s 			page 8


 400              	.LVL70:
 401 013c 9EE7     		b	.L5
 402              	.LVL71:
 403              	.L32:
 404              		.loc 1 266 0
 405 013e 0121     		movs	r1, #1
 406 0140 4020     		movs	r0, #64
 407              	.LVL72:
 408 0142 FFF7FEFF 		bl	RCC_APB1PeriphResetCmd
 409              	.LVL73:
 410              		.loc 1 267 0
 411 0146 0021     		movs	r1, #0
 412 0148 4020     		movs	r0, #64
 413 014a FFF7FEFF 		bl	RCC_APB1PeriphResetCmd
 414              	.LVL74:
 415 014e 95E7     		b	.L5
 416              	.LVL75:
 417              	.L33:
 418              		.loc 1 271 0
 419 0150 0121     		movs	r1, #1
 420 0152 8020     		movs	r0, #128
 421              	.LVL76:
 422 0154 FFF7FEFF 		bl	RCC_APB1PeriphResetCmd
 423              	.LVL77:
 424              		.loc 1 272 0
 425 0158 0021     		movs	r1, #0
 426 015a 8020     		movs	r0, #128
 427 015c FFF7FEFF 		bl	RCC_APB1PeriphResetCmd
 428              	.LVL78:
 429 0160 8CE7     		b	.L5
 430              	.L35:
 431 0162 00BF     		.align	2
 432              	.L34:
 433 0164 00000140 		.word	1073807360
 434 0168 00040040 		.word	1073742848
 435 016c 00080040 		.word	1073743872
 436 0170 000C0040 		.word	1073744896
 437 0174 00100040 		.word	1073745920
 438 0178 00140040 		.word	1073746944
 439 017c 00040140 		.word	1073808384
 440 0180 00400140 		.word	1073823744
 441 0184 00440140 		.word	1073824768
 442 0188 00480140 		.word	1073825792
 443 018c 00180040 		.word	1073747968
 444 0190 001C0040 		.word	1073748992
 445 0194 00200040 		.word	1073750016
 446              		.cfi_endproc
 447              	.LFE112:
 448              		.size	TIM_DeInit, .-TIM_DeInit
 449              		.section	.text.TIM_TimeBaseInit,"ax",%progbits
 450              		.align	1
 451              		.p2align 4,,15
 452              		.global	TIM_TimeBaseInit
 453              		.syntax unified
 454              		.thumb
 455              		.thumb_func
 456              		.fpu fpv4-sp-d16
ARM GAS  C:\Users\CHRIST~1\AppData\Local\Temp\cc3R47K7.s 			page 9


 457              		.type	TIM_TimeBaseInit, %function
 458              	TIM_TimeBaseInit:
 459              	.LFB113:
 460              		.loc 1 293 0
 461              		.cfi_startproc
 462              		@ args = 0, pretend = 0, frame = 0
 463              		@ frame_needed = 0, uses_anonymous_args = 0
 464              		@ link register save eliminated.
 465              	.LVL79:
 466              		.loc 1 301 0
 467 0000 0368     		ldr	r3, [r0]
 468 0002 9BB2     		uxth	r3, r3
 469              	.LVL80:
 470              		.loc 1 303 0
 471 0004 1E4A     		ldr	r2, .L44
 472 0006 9042     		cmp	r0, r2
 473 0008 12D0     		beq	.L37
 474              		.loc 1 303 0 is_stmt 0 discriminator 1
 475 000a 02F58062 		add	r2, r2, #1024
 476 000e 9042     		cmp	r0, r2
 477 0010 0ED0     		beq	.L37
 478              		.loc 1 303 0 discriminator 2
 479 0012 B0F1804F 		cmp	r0, #1073741824
 480 0016 0BD0     		beq	.L37
 481              		.loc 1 304 0 is_stmt 1
 482 0018 A2F58032 		sub	r2, r2, #65536
 483 001c 9042     		cmp	r0, r2
 484 001e 07D0     		beq	.L37
 485              		.loc 1 304 0 is_stmt 0 discriminator 1
 486 0020 02F58062 		add	r2, r2, #1024
 487 0024 9042     		cmp	r0, r2
 488 0026 03D0     		beq	.L37
 489              		.loc 1 305 0 is_stmt 1
 490 0028 02F58062 		add	r2, r2, #1024
 491 002c 9042     		cmp	r0, r2
 492 002e 03D1     		bne	.L38
 493              	.L37:
 494              		.loc 1 308 0
 495 0030 23F07003 		bic	r3, r3, #112
 496              	.LVL81:
 497              		.loc 1 309 0
 498 0034 4A88     		ldrh	r2, [r1, #2]
 499 0036 1343     		orrs	r3, r3, r2
 500              	.LVL82:
 501              	.L38:
 502              		.loc 1 312 0
 503 0038 124A     		ldr	r2, .L44+4
 504 003a 9042     		cmp	r0, r2
 505 003c 1AD0     		beq	.L39
 506              		.loc 1 312 0 is_stmt 0 discriminator 1
 507 003e 02F58062 		add	r2, r2, #1024
 508 0042 9042     		cmp	r0, r2
 509 0044 16D0     		beq	.L39
 510              		.loc 1 315 0 is_stmt 1
 511 0046 23F44073 		bic	r3, r3, #768
 512              	.LVL83:
 513 004a 9BB2     		uxth	r3, r3
ARM GAS  C:\Users\CHRIST~1\AppData\Local\Temp\cc3R47K7.s 			page 10


 514              	.LVL84:
 515              		.loc 1 316 0
 516 004c 0A89     		ldrh	r2, [r1, #8]
 517              		.loc 1 319 0
 518 004e 1343     		orrs	r3, r3, r2
 519              	.LVL85:
 520 0050 0360     		str	r3, [r0]
 521              		.loc 1 322 0
 522 0052 4B68     		ldr	r3, [r1, #4]
 523 0054 C362     		str	r3, [r0, #44]
 524              		.loc 1 325 0
 525 0056 0B88     		ldrh	r3, [r1]
 526 0058 8362     		str	r3, [r0, #40]
 527              		.loc 1 327 0
 528 005a 094B     		ldr	r3, .L44
 529 005c 9842     		cmp	r0, r3
 530 005e 04D1     		bne	.L43
 531              	.L40:
 532              		.loc 1 330 0
 533 0060 8B7A     		ldrb	r3, [r1, #10]	@ zero_extendqisi2
 534 0062 0363     		str	r3, [r0, #48]
 535              	.L41:
 536              		.loc 1 335 0
 537 0064 0123     		movs	r3, #1
 538 0066 4361     		str	r3, [r0, #20]
 539              		.loc 1 336 0
 540 0068 7047     		bx	lr
 541              	.L43:
 542              		.loc 1 327 0 discriminator 1
 543 006a 03F58063 		add	r3, r3, #1024
 544 006e 9842     		cmp	r0, r3
 545 0070 F6D0     		beq	.L40
 546 0072 F7E7     		b	.L41
 547              	.LVL86:
 548              	.L39:
 549              		.loc 1 319 0
 550 0074 0360     		str	r3, [r0]
 551              		.loc 1 322 0
 552 0076 4B68     		ldr	r3, [r1, #4]
 553              	.LVL87:
 554 0078 C362     		str	r3, [r0, #44]
 555              		.loc 1 325 0
 556 007a 0B88     		ldrh	r3, [r1]
 557 007c 8362     		str	r3, [r0, #40]
 558 007e F1E7     		b	.L41
 559              	.L45:
 560              		.align	2
 561              	.L44:
 562 0080 00000140 		.word	1073807360
 563 0084 00100040 		.word	1073745920
 564              		.cfi_endproc
 565              	.LFE113:
 566              		.size	TIM_TimeBaseInit, .-TIM_TimeBaseInit
 567              		.section	.text.TIM_TimeBaseStructInit,"ax",%progbits
 568              		.align	1
 569              		.p2align 4,,15
 570              		.global	TIM_TimeBaseStructInit
ARM GAS  C:\Users\CHRIST~1\AppData\Local\Temp\cc3R47K7.s 			page 11


 571              		.syntax unified
 572              		.thumb
 573              		.thumb_func
 574              		.fpu fpv4-sp-d16
 575              		.type	TIM_TimeBaseStructInit, %function
 576              	TIM_TimeBaseStructInit:
 577              	.LFB114:
 578              		.loc 1 345 0
 579              		.cfi_startproc
 580              		@ args = 0, pretend = 0, frame = 0
 581              		@ frame_needed = 0, uses_anonymous_args = 0
 582              		@ link register save eliminated.
 583              	.LVL88:
 584              		.loc 1 347 0
 585 0000 4FF0FF33 		mov	r3, #-1
 586 0004 4360     		str	r3, [r0, #4]
 587              		.loc 1 348 0
 588 0006 0023     		movs	r3, #0
 589 0008 0380     		strh	r3, [r0]	@ movhi
 590              		.loc 1 349 0
 591 000a 0381     		strh	r3, [r0, #8]	@ movhi
 592              		.loc 1 350 0
 593 000c 4380     		strh	r3, [r0, #2]	@ movhi
 594              		.loc 1 351 0
 595 000e 8372     		strb	r3, [r0, #10]
 596              		.loc 1 352 0
 597 0010 7047     		bx	lr
 598              		.cfi_endproc
 599              	.LFE114:
 600              		.size	TIM_TimeBaseStructInit, .-TIM_TimeBaseStructInit
 601 0012 00BF     		.section	.text.TIM_PrescalerConfig,"ax",%progbits
 602              		.align	1
 603              		.p2align 4,,15
 604              		.global	TIM_PrescalerConfig
 605              		.syntax unified
 606              		.thumb
 607              		.thumb_func
 608              		.fpu fpv4-sp-d16
 609              		.type	TIM_PrescalerConfig, %function
 610              	TIM_PrescalerConfig:
 611              	.LFB115:
 612              		.loc 1 365 0
 613              		.cfi_startproc
 614              		@ args = 0, pretend = 0, frame = 0
 615              		@ frame_needed = 0, uses_anonymous_args = 0
 616              		@ link register save eliminated.
 617              	.LVL89:
 618              		.loc 1 370 0
 619 0000 8162     		str	r1, [r0, #40]
 620              		.loc 1 372 0
 621 0002 4261     		str	r2, [r0, #20]
 622              		.loc 1 373 0
 623 0004 7047     		bx	lr
 624              		.cfi_endproc
 625              	.LFE115:
 626              		.size	TIM_PrescalerConfig, .-TIM_PrescalerConfig
 627 0006 00BF     		.section	.text.TIM_CounterModeConfig,"ax",%progbits
ARM GAS  C:\Users\CHRIST~1\AppData\Local\Temp\cc3R47K7.s 			page 12


 628              		.align	1
 629              		.p2align 4,,15
 630              		.global	TIM_CounterModeConfig
 631              		.syntax unified
 632              		.thumb
 633              		.thumb_func
 634              		.fpu fpv4-sp-d16
 635              		.type	TIM_CounterModeConfig, %function
 636              	TIM_CounterModeConfig:
 637              	.LFB116:
 638              		.loc 1 388 0
 639              		.cfi_startproc
 640              		@ args = 0, pretend = 0, frame = 0
 641              		@ frame_needed = 0, uses_anonymous_args = 0
 642              		@ link register save eliminated.
 643              	.LVL90:
 644              		.loc 1 395 0
 645 0000 0268     		ldr	r2, [r0]
 646              	.LVL91:
 647              		.loc 1 398 0
 648 0002 4FF68F73 		movw	r3, #65423
 649 0006 1340     		ands	r3, r3, r2
 650              	.LVL92:
 651              		.loc 1 404 0
 652 0008 1943     		orrs	r1, r1, r3
 653              	.LVL93:
 654 000a 0160     		str	r1, [r0]
 655              		.loc 1 405 0
 656 000c 7047     		bx	lr
 657              		.cfi_endproc
 658              	.LFE116:
 659              		.size	TIM_CounterModeConfig, .-TIM_CounterModeConfig
 660 000e 00BF     		.section	.text.TIM_SetCounter,"ax",%progbits
 661              		.align	1
 662              		.p2align 4,,15
 663              		.global	TIM_SetCounter
 664              		.syntax unified
 665              		.thumb
 666              		.thumb_func
 667              		.fpu fpv4-sp-d16
 668              		.type	TIM_SetCounter, %function
 669              	TIM_SetCounter:
 670              	.LFB117:
 671              		.loc 1 414 0
 672              		.cfi_startproc
 673              		@ args = 0, pretend = 0, frame = 0
 674              		@ frame_needed = 0, uses_anonymous_args = 0
 675              		@ link register save eliminated.
 676              	.LVL94:
 677              		.loc 1 419 0
 678 0000 4162     		str	r1, [r0, #36]
 679              		.loc 1 420 0
 680 0002 7047     		bx	lr
 681              		.cfi_endproc
 682              	.LFE117:
 683              		.size	TIM_SetCounter, .-TIM_SetCounter
 684              		.section	.text.TIM_SetAutoreload,"ax",%progbits
ARM GAS  C:\Users\CHRIST~1\AppData\Local\Temp\cc3R47K7.s 			page 13


 685              		.align	1
 686              		.p2align 4,,15
 687              		.global	TIM_SetAutoreload
 688              		.syntax unified
 689              		.thumb
 690              		.thumb_func
 691              		.fpu fpv4-sp-d16
 692              		.type	TIM_SetAutoreload, %function
 693              	TIM_SetAutoreload:
 694              	.LFB118:
 695              		.loc 1 429 0
 696              		.cfi_startproc
 697              		@ args = 0, pretend = 0, frame = 0
 698              		@ frame_needed = 0, uses_anonymous_args = 0
 699              		@ link register save eliminated.
 700              	.LVL95:
 701              		.loc 1 434 0
 702 0000 C162     		str	r1, [r0, #44]
 703              		.loc 1 435 0
 704 0002 7047     		bx	lr
 705              		.cfi_endproc
 706              	.LFE118:
 707              		.size	TIM_SetAutoreload, .-TIM_SetAutoreload
 708              		.section	.text.TIM_GetCounter,"ax",%progbits
 709              		.align	1
 710              		.p2align 4,,15
 711              		.global	TIM_GetCounter
 712              		.syntax unified
 713              		.thumb
 714              		.thumb_func
 715              		.fpu fpv4-sp-d16
 716              		.type	TIM_GetCounter, %function
 717              	TIM_GetCounter:
 718              	.LFB119:
 719              		.loc 1 443 0
 720              		.cfi_startproc
 721              		@ args = 0, pretend = 0, frame = 0
 722              		@ frame_needed = 0, uses_anonymous_args = 0
 723              		@ link register save eliminated.
 724              	.LVL96:
 725              		.loc 1 448 0
 726 0000 406A     		ldr	r0, [r0, #36]
 727              	.LVL97:
 728              		.loc 1 449 0
 729 0002 7047     		bx	lr
 730              		.cfi_endproc
 731              	.LFE119:
 732              		.size	TIM_GetCounter, .-TIM_GetCounter
 733              		.section	.text.TIM_GetPrescaler,"ax",%progbits
 734              		.align	1
 735              		.p2align 4,,15
 736              		.global	TIM_GetPrescaler
 737              		.syntax unified
 738              		.thumb
 739              		.thumb_func
 740              		.fpu fpv4-sp-d16
 741              		.type	TIM_GetPrescaler, %function
ARM GAS  C:\Users\CHRIST~1\AppData\Local\Temp\cc3R47K7.s 			page 14


 742              	TIM_GetPrescaler:
 743              	.LFB120:
 744              		.loc 1 457 0
 745              		.cfi_startproc
 746              		@ args = 0, pretend = 0, frame = 0
 747              		@ frame_needed = 0, uses_anonymous_args = 0
 748              		@ link register save eliminated.
 749              	.LVL98:
 750              		.loc 1 462 0
 751 0000 806A     		ldr	r0, [r0, #40]
 752              	.LVL99:
 753              		.loc 1 463 0
 754 0002 80B2     		uxth	r0, r0
 755 0004 7047     		bx	lr
 756              		.cfi_endproc
 757              	.LFE120:
 758              		.size	TIM_GetPrescaler, .-TIM_GetPrescaler
 759 0006 00BF     		.section	.text.TIM_UpdateDisableConfig,"ax",%progbits
 760              		.align	1
 761              		.p2align 4,,15
 762              		.global	TIM_UpdateDisableConfig
 763              		.syntax unified
 764              		.thumb
 765              		.thumb_func
 766              		.fpu fpv4-sp-d16
 767              		.type	TIM_UpdateDisableConfig, %function
 768              	TIM_UpdateDisableConfig:
 769              	.LFB121:
 770              		.loc 1 473 0
 771              		.cfi_startproc
 772              		@ args = 0, pretend = 0, frame = 0
 773              		@ frame_needed = 0, uses_anonymous_args = 0
 774              		@ link register save eliminated.
 775              	.LVL100:
 776              		.loc 1 478 0
 777 0000 31B9     		cbnz	r1, .L56
 778              		.loc 1 486 0
 779 0002 0368     		ldr	r3, [r0]
 780 0004 23F00203 		bic	r3, r3, #2
 781 0008 1B04     		lsls	r3, r3, #16
 782 000a 1B0C     		lsrs	r3, r3, #16
 783 000c 0360     		str	r3, [r0]
 784              		.loc 1 488 0
 785 000e 7047     		bx	lr
 786              	.L56:
 787              		.loc 1 481 0
 788 0010 0368     		ldr	r3, [r0]
 789 0012 43F00203 		orr	r3, r3, #2
 790 0016 0360     		str	r3, [r0]
 791 0018 7047     		bx	lr
 792              		.cfi_endproc
 793              	.LFE121:
 794              		.size	TIM_UpdateDisableConfig, .-TIM_UpdateDisableConfig
 795 001a 00BF     		.section	.text.TIM_UpdateRequestConfig,"ax",%progbits
 796              		.align	1
 797              		.p2align 4,,15
 798              		.global	TIM_UpdateRequestConfig
ARM GAS  C:\Users\CHRIST~1\AppData\Local\Temp\cc3R47K7.s 			page 15


 799              		.syntax unified
 800              		.thumb
 801              		.thumb_func
 802              		.fpu fpv4-sp-d16
 803              		.type	TIM_UpdateRequestConfig, %function
 804              	TIM_UpdateRequestConfig:
 805              	.LFB122:
 806              		.loc 1 502 0
 807              		.cfi_startproc
 808              		@ args = 0, pretend = 0, frame = 0
 809              		@ frame_needed = 0, uses_anonymous_args = 0
 810              		@ link register save eliminated.
 811              	.LVL101:
 812              		.loc 1 507 0
 813 0000 31B9     		cbnz	r1, .L60
 814              		.loc 1 515 0
 815 0002 0368     		ldr	r3, [r0]
 816 0004 23F00403 		bic	r3, r3, #4
 817 0008 1B04     		lsls	r3, r3, #16
 818 000a 1B0C     		lsrs	r3, r3, #16
 819 000c 0360     		str	r3, [r0]
 820              		.loc 1 517 0
 821 000e 7047     		bx	lr
 822              	.L60:
 823              		.loc 1 510 0
 824 0010 0368     		ldr	r3, [r0]
 825 0012 43F00403 		orr	r3, r3, #4
 826 0016 0360     		str	r3, [r0]
 827 0018 7047     		bx	lr
 828              		.cfi_endproc
 829              	.LFE122:
 830              		.size	TIM_UpdateRequestConfig, .-TIM_UpdateRequestConfig
 831 001a 00BF     		.section	.text.TIM_ARRPreloadConfig,"ax",%progbits
 832              		.align	1
 833              		.p2align 4,,15
 834              		.global	TIM_ARRPreloadConfig
 835              		.syntax unified
 836              		.thumb
 837              		.thumb_func
 838              		.fpu fpv4-sp-d16
 839              		.type	TIM_ARRPreloadConfig, %function
 840              	TIM_ARRPreloadConfig:
 841              	.LFB123:
 842              		.loc 1 527 0
 843              		.cfi_startproc
 844              		@ args = 0, pretend = 0, frame = 0
 845              		@ frame_needed = 0, uses_anonymous_args = 0
 846              		@ link register save eliminated.
 847              	.LVL102:
 848              		.loc 1 532 0
 849 0000 31B9     		cbnz	r1, .L64
 850              		.loc 1 540 0
 851 0002 0368     		ldr	r3, [r0]
 852 0004 23F08003 		bic	r3, r3, #128
 853 0008 1B04     		lsls	r3, r3, #16
 854 000a 1B0C     		lsrs	r3, r3, #16
 855 000c 0360     		str	r3, [r0]
ARM GAS  C:\Users\CHRIST~1\AppData\Local\Temp\cc3R47K7.s 			page 16


 856              		.loc 1 542 0
 857 000e 7047     		bx	lr
 858              	.L64:
 859              		.loc 1 535 0
 860 0010 0368     		ldr	r3, [r0]
 861 0012 43F08003 		orr	r3, r3, #128
 862 0016 0360     		str	r3, [r0]
 863 0018 7047     		bx	lr
 864              		.cfi_endproc
 865              	.LFE123:
 866              		.size	TIM_ARRPreloadConfig, .-TIM_ARRPreloadConfig
 867 001a 00BF     		.section	.text.TIM_SelectOnePulseMode,"ax",%progbits
 868              		.align	1
 869              		.p2align 4,,15
 870              		.global	TIM_SelectOnePulseMode
 871              		.syntax unified
 872              		.thumb
 873              		.thumb_func
 874              		.fpu fpv4-sp-d16
 875              		.type	TIM_SelectOnePulseMode, %function
 876              	TIM_SelectOnePulseMode:
 877              	.LFB124:
 878              		.loc 1 554 0
 879              		.cfi_startproc
 880              		@ args = 0, pretend = 0, frame = 0
 881              		@ frame_needed = 0, uses_anonymous_args = 0
 882              		@ link register save eliminated.
 883              	.LVL103:
 884              		.loc 1 560 0
 885 0000 0368     		ldr	r3, [r0]
 886 0002 23F00803 		bic	r3, r3, #8
 887 0006 1B04     		lsls	r3, r3, #16
 888 0008 1B0C     		lsrs	r3, r3, #16
 889 000a 0360     		str	r3, [r0]
 890              		.loc 1 563 0
 891 000c 0368     		ldr	r3, [r0]
 892 000e 1943     		orrs	r1, r1, r3
 893              	.LVL104:
 894 0010 0160     		str	r1, [r0]
 895              		.loc 1 564 0
 896 0012 7047     		bx	lr
 897              		.cfi_endproc
 898              	.LFE124:
 899              		.size	TIM_SelectOnePulseMode, .-TIM_SelectOnePulseMode
 900              		.section	.text.TIM_SetClockDivision,"ax",%progbits
 901              		.align	1
 902              		.p2align 4,,15
 903              		.global	TIM_SetClockDivision
 904              		.syntax unified
 905              		.thumb
 906              		.thumb_func
 907              		.fpu fpv4-sp-d16
 908              		.type	TIM_SetClockDivision, %function
 909              	TIM_SetClockDivision:
 910              	.LFB125:
 911              		.loc 1 577 0
 912              		.cfi_startproc
ARM GAS  C:\Users\CHRIST~1\AppData\Local\Temp\cc3R47K7.s 			page 17


 913              		@ args = 0, pretend = 0, frame = 0
 914              		@ frame_needed = 0, uses_anonymous_args = 0
 915              		@ link register save eliminated.
 916              	.LVL105:
 917              		.loc 1 583 0
 918 0000 0368     		ldr	r3, [r0]
 919 0002 23F44073 		bic	r3, r3, #768
 920 0006 1B04     		lsls	r3, r3, #16
 921 0008 1B0C     		lsrs	r3, r3, #16
 922 000a 0360     		str	r3, [r0]
 923              		.loc 1 586 0
 924 000c 0368     		ldr	r3, [r0]
 925 000e 1943     		orrs	r1, r1, r3
 926              	.LVL106:
 927 0010 0160     		str	r1, [r0]
 928              		.loc 1 587 0
 929 0012 7047     		bx	lr
 930              		.cfi_endproc
 931              	.LFE125:
 932              		.size	TIM_SetClockDivision, .-TIM_SetClockDivision
 933              		.section	.text.TIM_Cmd,"ax",%progbits
 934              		.align	1
 935              		.p2align 4,,15
 936              		.global	TIM_Cmd
 937              		.syntax unified
 938              		.thumb
 939              		.thumb_func
 940              		.fpu fpv4-sp-d16
 941              		.type	TIM_Cmd, %function
 942              	TIM_Cmd:
 943              	.LFB126:
 944              		.loc 1 597 0
 945              		.cfi_startproc
 946              		@ args = 0, pretend = 0, frame = 0
 947              		@ frame_needed = 0, uses_anonymous_args = 0
 948              		@ link register save eliminated.
 949              	.LVL107:
 950              		.loc 1 602 0
 951 0000 31B9     		cbnz	r1, .L70
 952              		.loc 1 610 0
 953 0002 0368     		ldr	r3, [r0]
 954 0004 23F00103 		bic	r3, r3, #1
 955 0008 1B04     		lsls	r3, r3, #16
 956 000a 1B0C     		lsrs	r3, r3, #16
 957 000c 0360     		str	r3, [r0]
 958              		.loc 1 612 0
 959 000e 7047     		bx	lr
 960              	.L70:
 961              		.loc 1 605 0
 962 0010 0368     		ldr	r3, [r0]
 963 0012 43F00103 		orr	r3, r3, #1
 964 0016 0360     		str	r3, [r0]
 965 0018 7047     		bx	lr
 966              		.cfi_endproc
 967              	.LFE126:
 968              		.size	TIM_Cmd, .-TIM_Cmd
 969 001a 00BF     		.section	.text.TIM_OC1Init,"ax",%progbits
ARM GAS  C:\Users\CHRIST~1\AppData\Local\Temp\cc3R47K7.s 			page 18


 970              		.align	1
 971              		.p2align 4,,15
 972              		.global	TIM_OC1Init
 973              		.syntax unified
 974              		.thumb
 975              		.thumb_func
 976              		.fpu fpv4-sp-d16
 977              		.type	TIM_OC1Init, %function
 978              	TIM_OC1Init:
 979              	.LFB127:
 980              		.loc 1 678 0
 981              		.cfi_startproc
 982              		@ args = 0, pretend = 0, frame = 0
 983              		@ frame_needed = 0, uses_anonymous_args = 0
 984              		@ link register save eliminated.
 985              	.LVL108:
 986 0000 70B4     		push	{r4, r5, r6}
 987              		.cfi_def_cfa_offset 12
 988              		.cfi_offset 4, -12
 989              		.cfi_offset 5, -8
 990              		.cfi_offset 6, -4
 991              	.LVL109:
 992              		.loc 1 688 0
 993 0002 036A     		ldr	r3, [r0, #32]
 994 0004 23F00103 		bic	r3, r3, #1
 995 0008 1B04     		lsls	r3, r3, #16
 996 000a 1B0C     		lsrs	r3, r3, #16
 997 000c 0362     		str	r3, [r0, #32]
 998              		.loc 1 691 0
 999 000e 046A     		ldr	r4, [r0, #32]
 1000              	.LVL110:
 1001              		.loc 1 693 0
 1002 0010 4268     		ldr	r2, [r0, #4]
 1003 0012 92B2     		uxth	r2, r2
 1004              	.LVL111:
 1005              		.loc 1 696 0
 1006 0014 8569     		ldr	r5, [r0, #24]
 1007              	.LVL112:
 1008              		.loc 1 700 0
 1009 0016 4FF68C73 		movw	r3, #65420
 1010 001a 2B40     		ands	r3, r3, r5
 1011              	.LVL113:
 1012              		.loc 1 702 0
 1013 001c 0D88     		ldrh	r5, [r1]
 1014 001e 1D43     		orrs	r5, r5, r3
 1015              	.LVL114:
 1016              		.loc 1 705 0
 1017 0020 4FF6FD73 		movw	r3, #65533
 1018 0024 2340     		ands	r3, r3, r4
 1019              	.LVL115:
 1020              		.loc 1 710 0
 1021 0026 8C89     		ldrh	r4, [r1, #12]
 1022 0028 4E88     		ldrh	r6, [r1, #2]
 1023 002a 3443     		orrs	r4, r4, r6
 1024 002c 2343     		orrs	r3, r3, r4
 1025              	.LVL116:
 1026              		.loc 1 712 0
ARM GAS  C:\Users\CHRIST~1\AppData\Local\Temp\cc3R47K7.s 			page 19


 1027 002e 0E4C     		ldr	r4, .L75
 1028 0030 A042     		cmp	r0, r4
 1029 0032 03D0     		beq	.L72
 1030              		.loc 1 712 0 is_stmt 0 discriminator 1
 1031 0034 04F58064 		add	r4, r4, #1024
 1032 0038 A042     		cmp	r0, r4
 1033 003a 0DD1     		bne	.L73
 1034              	.L72:
 1035              		.loc 1 720 0 is_stmt 1
 1036 003c 23F00803 		bic	r3, r3, #8
 1037              	.LVL117:
 1038              		.loc 1 722 0
 1039 0040 CC89     		ldrh	r4, [r1, #14]
 1040 0042 2343     		orrs	r3, r3, r4
 1041              	.LVL118:
 1042              		.loc 1 724 0
 1043 0044 23F00403 		bic	r3, r3, #4
 1044              	.LVL119:
 1045              		.loc 1 727 0
 1046 0048 8C88     		ldrh	r4, [r1, #4]
 1047 004a 2343     		orrs	r3, r3, r4
 1048              	.LVL120:
 1049              		.loc 1 730 0
 1050 004c 22F44072 		bic	r2, r2, #768
 1051              	.LVL121:
 1052              		.loc 1 734 0
 1053 0050 0C8A     		ldrh	r4, [r1, #16]
 1054 0052 4E8A     		ldrh	r6, [r1, #18]
 1055 0054 3443     		orrs	r4, r4, r6
 1056 0056 2243     		orrs	r2, r2, r4
 1057              	.LVL122:
 1058              	.L73:
 1059              		.loc 1 737 0
 1060 0058 4260     		str	r2, [r0, #4]
 1061              		.loc 1 740 0
 1062 005a 8561     		str	r5, [r0, #24]
 1063              		.loc 1 743 0
 1064 005c 8A68     		ldr	r2, [r1, #8]
 1065              	.LVL123:
 1066 005e 4263     		str	r2, [r0, #52]
 1067              		.loc 1 746 0
 1068 0060 0362     		str	r3, [r0, #32]
 1069              		.loc 1 747 0
 1070 0062 70BC     		pop	{r4, r5, r6}
 1071              		.cfi_restore 6
 1072              		.cfi_restore 5
 1073              		.cfi_restore 4
 1074              		.cfi_def_cfa_offset 0
 1075              	.LVL124:
 1076 0064 7047     		bx	lr
 1077              	.L76:
 1078 0066 00BF     		.align	2
 1079              	.L75:
 1080 0068 00000140 		.word	1073807360
 1081              		.cfi_endproc
 1082              	.LFE127:
 1083              		.size	TIM_OC1Init, .-TIM_OC1Init
ARM GAS  C:\Users\CHRIST~1\AppData\Local\Temp\cc3R47K7.s 			page 20


 1084              		.section	.text.TIM_OC2Init,"ax",%progbits
 1085              		.align	1
 1086              		.p2align 4,,15
 1087              		.global	TIM_OC2Init
 1088              		.syntax unified
 1089              		.thumb
 1090              		.thumb_func
 1091              		.fpu fpv4-sp-d16
 1092              		.type	TIM_OC2Init, %function
 1093              	TIM_OC2Init:
 1094              	.LFB128:
 1095              		.loc 1 759 0
 1096              		.cfi_startproc
 1097              		@ args = 0, pretend = 0, frame = 0
 1098              		@ frame_needed = 0, uses_anonymous_args = 0
 1099              		@ link register save eliminated.
 1100              	.LVL125:
 1101 0000 70B4     		push	{r4, r5, r6}
 1102              		.cfi_def_cfa_offset 12
 1103              		.cfi_offset 4, -12
 1104              		.cfi_offset 5, -8
 1105              		.cfi_offset 6, -4
 1106              	.LVL126:
 1107              		.loc 1 769 0
 1108 0002 036A     		ldr	r3, [r0, #32]
 1109 0004 23F01003 		bic	r3, r3, #16
 1110 0008 1B04     		lsls	r3, r3, #16
 1111 000a 1B0C     		lsrs	r3, r3, #16
 1112 000c 0362     		str	r3, [r0, #32]
 1113              		.loc 1 772 0
 1114 000e 056A     		ldr	r5, [r0, #32]
 1115              	.LVL127:
 1116              		.loc 1 774 0
 1117 0010 4468     		ldr	r4, [r0, #4]
 1118 0012 A4B2     		uxth	r4, r4
 1119              	.LVL128:
 1120              		.loc 1 777 0
 1121 0014 8269     		ldr	r2, [r0, #24]
 1122              	.LVL129:
 1123              		.loc 1 781 0
 1124 0016 48F6FF43 		movw	r3, #36095
 1125 001a 1340     		ands	r3, r3, r2
 1126              	.LVL130:
 1127              		.loc 1 784 0
 1128 001c 0A88     		ldrh	r2, [r1]
 1129 001e 43EA0223 		orr	r3, r3, r2, lsl #8
 1130              	.LVL131:
 1131 0022 9AB2     		uxth	r2, r3
 1132              	.LVL132:
 1133              		.loc 1 787 0
 1134 0024 4FF6DF73 		movw	r3, #65503
 1135 0028 2B40     		ands	r3, r3, r5
 1136              	.LVL133:
 1137              		.loc 1 789 0
 1138 002a 8D89     		ldrh	r5, [r1, #12]
 1139              		.loc 1 792 0
 1140 002c 4E88     		ldrh	r6, [r1, #2]
ARM GAS  C:\Users\CHRIST~1\AppData\Local\Temp\cc3R47K7.s 			page 21


 1141 002e 3543     		orrs	r5, r5, r6
 1142 0030 43EA0513 		orr	r3, r3, r5, lsl #4
 1143              	.LVL134:
 1144 0034 9BB2     		uxth	r3, r3
 1145              	.LVL135:
 1146              		.loc 1 794 0
 1147 0036 114D     		ldr	r5, .L81
 1148 0038 A842     		cmp	r0, r5
 1149 003a 03D0     		beq	.L78
 1150              		.loc 1 794 0 is_stmt 0 discriminator 1
 1151 003c 05F58065 		add	r5, r5, #1024
 1152 0040 A842     		cmp	r0, r5
 1153 0042 13D1     		bne	.L79
 1154              	.L78:
 1155              		.loc 1 802 0 is_stmt 1
 1156 0044 23F08003 		bic	r3, r3, #128
 1157              	.LVL136:
 1158              		.loc 1 804 0
 1159 0048 CD89     		ldrh	r5, [r1, #14]
 1160 004a 43EA0513 		orr	r3, r3, r5, lsl #4
 1161              	.LVL137:
 1162              		.loc 1 806 0
 1163 004e 4FF6BF75 		movw	r5, #65471
 1164 0052 1D40     		ands	r5, r5, r3
 1165              	.LVL138:
 1166              		.loc 1 809 0
 1167 0054 8B88     		ldrh	r3, [r1, #4]
 1168 0056 45EA0313 		orr	r3, r5, r3, lsl #4
 1169 005a 9BB2     		uxth	r3, r3
 1170              	.LVL139:
 1171              		.loc 1 812 0
 1172 005c 24F44064 		bic	r4, r4, #3072
 1173              	.LVL140:
 1174              		.loc 1 814 0
 1175 0060 0D8A     		ldrh	r5, [r1, #16]
 1176              		.loc 1 816 0
 1177 0062 4E8A     		ldrh	r6, [r1, #18]
 1178 0064 3543     		orrs	r5, r5, r6
 1179 0066 44EA8504 		orr	r4, r4, r5, lsl #2
 1180              	.LVL141:
 1181 006a A4B2     		uxth	r4, r4
 1182              	.LVL142:
 1183              	.L79:
 1184              		.loc 1 819 0
 1185 006c 4460     		str	r4, [r0, #4]
 1186              		.loc 1 822 0
 1187 006e 8261     		str	r2, [r0, #24]
 1188              		.loc 1 825 0
 1189 0070 8A68     		ldr	r2, [r1, #8]
 1190              	.LVL143:
 1191 0072 8263     		str	r2, [r0, #56]
 1192              	.LVL144:
 1193              		.loc 1 828 0
 1194 0074 0362     		str	r3, [r0, #32]
 1195              		.loc 1 829 0
 1196 0076 70BC     		pop	{r4, r5, r6}
 1197              		.cfi_restore 6
ARM GAS  C:\Users\CHRIST~1\AppData\Local\Temp\cc3R47K7.s 			page 22


 1198              		.cfi_restore 5
 1199              		.cfi_restore 4
 1200              		.cfi_def_cfa_offset 0
 1201              	.LVL145:
 1202 0078 7047     		bx	lr
 1203              	.L82:
 1204 007a 00BF     		.align	2
 1205              	.L81:
 1206 007c 00000140 		.word	1073807360
 1207              		.cfi_endproc
 1208              	.LFE128:
 1209              		.size	TIM_OC2Init, .-TIM_OC2Init
 1210              		.section	.text.TIM_OC3Init,"ax",%progbits
 1211              		.align	1
 1212              		.p2align 4,,15
 1213              		.global	TIM_OC3Init
 1214              		.syntax unified
 1215              		.thumb
 1216              		.thumb_func
 1217              		.fpu fpv4-sp-d16
 1218              		.type	TIM_OC3Init, %function
 1219              	TIM_OC3Init:
 1220              	.LFB129:
 1221              		.loc 1 840 0
 1222              		.cfi_startproc
 1223              		@ args = 0, pretend = 0, frame = 0
 1224              		@ frame_needed = 0, uses_anonymous_args = 0
 1225              		@ link register save eliminated.
 1226              	.LVL146:
 1227 0000 70B4     		push	{r4, r5, r6}
 1228              		.cfi_def_cfa_offset 12
 1229              		.cfi_offset 4, -12
 1230              		.cfi_offset 5, -8
 1231              		.cfi_offset 6, -4
 1232              	.LVL147:
 1233              		.loc 1 850 0
 1234 0002 036A     		ldr	r3, [r0, #32]
 1235 0004 23F48073 		bic	r3, r3, #256
 1236 0008 1B04     		lsls	r3, r3, #16
 1237 000a 1B0C     		lsrs	r3, r3, #16
 1238 000c 0362     		str	r3, [r0, #32]
 1239              		.loc 1 853 0
 1240 000e 046A     		ldr	r4, [r0, #32]
 1241              	.LVL148:
 1242              		.loc 1 855 0
 1243 0010 4268     		ldr	r2, [r0, #4]
 1244 0012 92B2     		uxth	r2, r2
 1245              	.LVL149:
 1246              		.loc 1 858 0
 1247 0014 C569     		ldr	r5, [r0, #28]
 1248              	.LVL150:
 1249              		.loc 1 862 0
 1250 0016 4FF68C73 		movw	r3, #65420
 1251 001a 2B40     		ands	r3, r3, r5
 1252              	.LVL151:
 1253              		.loc 1 864 0
 1254 001c 0D88     		ldrh	r5, [r1]
ARM GAS  C:\Users\CHRIST~1\AppData\Local\Temp\cc3R47K7.s 			page 23


 1255 001e 1D43     		orrs	r5, r5, r3
 1256              	.LVL152:
 1257              		.loc 1 867 0
 1258 0020 4FF6FF53 		movw	r3, #65023
 1259 0024 2340     		ands	r3, r3, r4
 1260              	.LVL153:
 1261              		.loc 1 869 0
 1262 0026 8C89     		ldrh	r4, [r1, #12]
 1263              		.loc 1 872 0
 1264 0028 4E88     		ldrh	r6, [r1, #2]
 1265 002a 3443     		orrs	r4, r4, r6
 1266 002c 43EA0423 		orr	r3, r3, r4, lsl #8
 1267              	.LVL154:
 1268 0030 9BB2     		uxth	r3, r3
 1269              	.LVL155:
 1270              		.loc 1 874 0
 1271 0032 114C     		ldr	r4, .L87
 1272 0034 A042     		cmp	r0, r4
 1273 0036 03D0     		beq	.L84
 1274              		.loc 1 874 0 is_stmt 0 discriminator 1
 1275 0038 04F58064 		add	r4, r4, #1024
 1276 003c A042     		cmp	r0, r4
 1277 003e 13D1     		bne	.L85
 1278              	.L84:
 1279              		.loc 1 882 0 is_stmt 1
 1280 0040 23F40063 		bic	r3, r3, #2048
 1281              	.LVL156:
 1282              		.loc 1 884 0
 1283 0044 CC89     		ldrh	r4, [r1, #14]
 1284 0046 43EA0423 		orr	r3, r3, r4, lsl #8
 1285              	.LVL157:
 1286              		.loc 1 886 0
 1287 004a 4FF6FF34 		movw	r4, #64511
 1288 004e 1C40     		ands	r4, r4, r3
 1289              	.LVL158:
 1290              		.loc 1 889 0
 1291 0050 8B88     		ldrh	r3, [r1, #4]
 1292 0052 44EA0324 		orr	r4, r4, r3, lsl #8
 1293              	.LVL159:
 1294 0056 A3B2     		uxth	r3, r4
 1295              	.LVL160:
 1296              		.loc 1 892 0
 1297 0058 22F44052 		bic	r2, r2, #12288
 1298              	.LVL161:
 1299              		.loc 1 894 0
 1300 005c 0C8A     		ldrh	r4, [r1, #16]
 1301              		.loc 1 896 0
 1302 005e 4E8A     		ldrh	r6, [r1, #18]
 1303 0060 3443     		orrs	r4, r4, r6
 1304 0062 42EA0412 		orr	r2, r2, r4, lsl #4
 1305              	.LVL162:
 1306 0066 92B2     		uxth	r2, r2
 1307              	.LVL163:
 1308              	.L85:
 1309              		.loc 1 899 0
 1310 0068 4260     		str	r2, [r0, #4]
 1311              		.loc 1 902 0
ARM GAS  C:\Users\CHRIST~1\AppData\Local\Temp\cc3R47K7.s 			page 24


 1312 006a C561     		str	r5, [r0, #28]
 1313              		.loc 1 905 0
 1314 006c 8A68     		ldr	r2, [r1, #8]
 1315              	.LVL164:
 1316 006e C263     		str	r2, [r0, #60]
 1317              		.loc 1 908 0
 1318 0070 0362     		str	r3, [r0, #32]
 1319              		.loc 1 909 0
 1320 0072 70BC     		pop	{r4, r5, r6}
 1321              		.cfi_restore 6
 1322              		.cfi_restore 5
 1323              		.cfi_restore 4
 1324              		.cfi_def_cfa_offset 0
 1325              	.LVL165:
 1326 0074 7047     		bx	lr
 1327              	.L88:
 1328 0076 00BF     		.align	2
 1329              	.L87:
 1330 0078 00000140 		.word	1073807360
 1331              		.cfi_endproc
 1332              	.LFE129:
 1333              		.size	TIM_OC3Init, .-TIM_OC3Init
 1334              		.section	.text.TIM_OC4Init,"ax",%progbits
 1335              		.align	1
 1336              		.p2align 4,,15
 1337              		.global	TIM_OC4Init
 1338              		.syntax unified
 1339              		.thumb
 1340              		.thumb_func
 1341              		.fpu fpv4-sp-d16
 1342              		.type	TIM_OC4Init, %function
 1343              	TIM_OC4Init:
 1344              	.LFB130:
 1345              		.loc 1 920 0
 1346              		.cfi_startproc
 1347              		@ args = 0, pretend = 0, frame = 0
 1348              		@ frame_needed = 0, uses_anonymous_args = 0
 1349              		@ link register save eliminated.
 1350              	.LVL166:
 1351 0000 70B4     		push	{r4, r5, r6}
 1352              		.cfi_def_cfa_offset 12
 1353              		.cfi_offset 4, -12
 1354              		.cfi_offset 5, -8
 1355              		.cfi_offset 6, -4
 1356              	.LVL167:
 1357              		.loc 1 930 0
 1358 0002 036A     		ldr	r3, [r0, #32]
 1359 0004 23F48053 		bic	r3, r3, #4096
 1360 0008 1B04     		lsls	r3, r3, #16
 1361 000a 1B0C     		lsrs	r3, r3, #16
 1362 000c 0362     		str	r3, [r0, #32]
 1363              		.loc 1 933 0
 1364 000e 056A     		ldr	r5, [r0, #32]
 1365              	.LVL168:
 1366              		.loc 1 935 0
 1367 0010 4468     		ldr	r4, [r0, #4]
 1368 0012 A4B2     		uxth	r4, r4
ARM GAS  C:\Users\CHRIST~1\AppData\Local\Temp\cc3R47K7.s 			page 25


 1369              	.LVL169:
 1370              		.loc 1 938 0
 1371 0014 C269     		ldr	r2, [r0, #28]
 1372              	.LVL170:
 1373              		.loc 1 942 0
 1374 0016 48F6FF43 		movw	r3, #36095
 1375 001a 1340     		ands	r3, r3, r2
 1376              	.LVL171:
 1377              		.loc 1 945 0
 1378 001c 0A88     		ldrh	r2, [r1]
 1379 001e 43EA0223 		orr	r3, r3, r2, lsl #8
 1380              	.LVL172:
 1381 0022 9AB2     		uxth	r2, r3
 1382              	.LVL173:
 1383              		.loc 1 948 0
 1384 0024 4DF6FF73 		movw	r3, #57343
 1385 0028 2B40     		ands	r3, r3, r5
 1386              	.LVL174:
 1387              		.loc 1 950 0
 1388 002a 8D89     		ldrh	r5, [r1, #12]
 1389              		.loc 1 953 0
 1390 002c 4E88     		ldrh	r6, [r1, #2]
 1391 002e 3543     		orrs	r5, r5, r6
 1392 0030 43EA0533 		orr	r3, r3, r5, lsl #12
 1393              	.LVL175:
 1394 0034 9BB2     		uxth	r3, r3
 1395              	.LVL176:
 1396              		.loc 1 955 0
 1397 0036 0A4D     		ldr	r5, .L93
 1398 0038 A842     		cmp	r0, r5
 1399 003a 03D0     		beq	.L90
 1400              		.loc 1 955 0 is_stmt 0 discriminator 1
 1401 003c 05F58065 		add	r5, r5, #1024
 1402 0040 A842     		cmp	r0, r5
 1403 0042 05D1     		bne	.L91
 1404              	.L90:
 1405              		.loc 1 959 0 is_stmt 1
 1406 0044 24F48044 		bic	r4, r4, #16384
 1407              	.LVL177:
 1408              		.loc 1 961 0
 1409 0048 0D8A     		ldrh	r5, [r1, #16]
 1410 004a 44EA8514 		orr	r4, r4, r5, lsl #6
 1411              	.LVL178:
 1412 004e A4B2     		uxth	r4, r4
 1413              	.LVL179:
 1414              	.L91:
 1415              		.loc 1 964 0
 1416 0050 4460     		str	r4, [r0, #4]
 1417              		.loc 1 967 0
 1418 0052 C261     		str	r2, [r0, #28]
 1419              		.loc 1 970 0
 1420 0054 8A68     		ldr	r2, [r1, #8]
 1421              	.LVL180:
 1422 0056 0264     		str	r2, [r0, #64]
 1423              	.LVL181:
 1424              		.loc 1 973 0
 1425 0058 0362     		str	r3, [r0, #32]
ARM GAS  C:\Users\CHRIST~1\AppData\Local\Temp\cc3R47K7.s 			page 26


 1426              		.loc 1 974 0
 1427 005a 70BC     		pop	{r4, r5, r6}
 1428              		.cfi_restore 6
 1429              		.cfi_restore 5
 1430              		.cfi_restore 4
 1431              		.cfi_def_cfa_offset 0
 1432              	.LVL182:
 1433 005c 7047     		bx	lr
 1434              	.L94:
 1435 005e 00BF     		.align	2
 1436              	.L93:
 1437 0060 00000140 		.word	1073807360
 1438              		.cfi_endproc
 1439              	.LFE130:
 1440              		.size	TIM_OC4Init, .-TIM_OC4Init
 1441              		.section	.text.TIM_OCStructInit,"ax",%progbits
 1442              		.align	1
 1443              		.p2align 4,,15
 1444              		.global	TIM_OCStructInit
 1445              		.syntax unified
 1446              		.thumb
 1447              		.thumb_func
 1448              		.fpu fpv4-sp-d16
 1449              		.type	TIM_OCStructInit, %function
 1450              	TIM_OCStructInit:
 1451              	.LFB131:
 1452              		.loc 1 983 0
 1453              		.cfi_startproc
 1454              		@ args = 0, pretend = 0, frame = 0
 1455              		@ frame_needed = 0, uses_anonymous_args = 0
 1456              		@ link register save eliminated.
 1457              	.LVL183:
 1458              		.loc 1 985 0
 1459 0000 0023     		movs	r3, #0
 1460 0002 0380     		strh	r3, [r0]	@ movhi
 1461              		.loc 1 986 0
 1462 0004 4380     		strh	r3, [r0, #2]	@ movhi
 1463              		.loc 1 987 0
 1464 0006 8380     		strh	r3, [r0, #4]	@ movhi
 1465              		.loc 1 988 0
 1466 0008 8360     		str	r3, [r0, #8]
 1467              		.loc 1 989 0
 1468 000a 8381     		strh	r3, [r0, #12]	@ movhi
 1469              		.loc 1 990 0
 1470 000c C381     		strh	r3, [r0, #14]	@ movhi
 1471              		.loc 1 991 0
 1472 000e 0382     		strh	r3, [r0, #16]	@ movhi
 1473              		.loc 1 992 0
 1474 0010 4382     		strh	r3, [r0, #18]	@ movhi
 1475              		.loc 1 993 0
 1476 0012 7047     		bx	lr
 1477              		.cfi_endproc
 1478              	.LFE131:
 1479              		.size	TIM_OCStructInit, .-TIM_OCStructInit
 1480              		.section	.text.TIM_SelectOCxM,"ax",%progbits
 1481              		.align	1
 1482              		.p2align 4,,15
ARM GAS  C:\Users\CHRIST~1\AppData\Local\Temp\cc3R47K7.s 			page 27


 1483              		.global	TIM_SelectOCxM
 1484              		.syntax unified
 1485              		.thumb
 1486              		.thumb_func
 1487              		.fpu fpv4-sp-d16
 1488              		.type	TIM_SelectOCxM, %function
 1489              	TIM_SelectOCxM:
 1490              	.LFB132:
 1491              		.loc 1 1019 0
 1492              		.cfi_startproc
 1493              		@ args = 0, pretend = 0, frame = 0
 1494              		@ frame_needed = 0, uses_anonymous_args = 0
 1495              		@ link register save eliminated.
 1496              	.LVL184:
 1497 0000 30B4     		push	{r4, r5}
 1498              		.cfi_def_cfa_offset 8
 1499              		.cfi_offset 4, -8
 1500              		.cfi_offset 5, -4
 1501              	.LVL185:
 1502              		.loc 1 1029 0
 1503 0002 00F11804 		add	r4, r0, #24
 1504              	.LVL186:
 1505              		.loc 1 1034 0
 1506 0006 056A     		ldr	r5, [r0, #32]
 1507              		.loc 1 1031 0
 1508 0008 0123     		movs	r3, #1
 1509 000a 8B40     		lsls	r3, r3, r1
 1510              		.loc 1 1034 0
 1511 000c DB43     		mvns	r3, r3
 1512 000e 9BB2     		uxth	r3, r3
 1513 0010 2B40     		ands	r3, r3, r5
 1514 0012 0362     		str	r3, [r0, #32]
 1515              		.loc 1 1036 0
 1516 0014 21F00803 		bic	r3, r1, #8
 1517 0018 9BB2     		uxth	r3, r3
 1518 001a 73B1     		cbz	r3, .L100
 1519              	.LVL187:
 1520              		.loc 1 1048 0
 1521 001c 0439     		subs	r1, r1, #4
 1522              	.LVL188:
 1523 001e C1F34E01 		ubfx	r1, r1, #1, #15
 1524              		.loc 1 1051 0
 1525 0022 0B59     		ldr	r3, [r1, r4]
 1526 0024 23F4E043 		bic	r3, r3, #28672
 1527 0028 1B04     		lsls	r3, r3, #16
 1528 002a 1B0C     		lsrs	r3, r3, #16
 1529 002c 0B51     		str	r3, [r1, r4]
 1530              		.loc 1 1054 0
 1531 002e 0B59     		ldr	r3, [r1, r4]
 1532 0030 1202     		lsls	r2, r2, #8
 1533              	.LVL189:
 1534 0032 92B2     		uxth	r2, r2
 1535 0034 1A43     		orrs	r2, r2, r3
 1536 0036 0A51     		str	r2, [r1, r4]
 1537              		.loc 1 1056 0
 1538 0038 09E0     		b	.L96
 1539              	.LVL190:
ARM GAS  C:\Users\CHRIST~1\AppData\Local\Temp\cc3R47K7.s 			page 28


 1540              	.L100:
 1541              		.loc 1 1038 0
 1542 003a 4908     		lsrs	r1, r1, #1
 1543              	.LVL191:
 1544              		.loc 1 1041 0
 1545 003c 0B59     		ldr	r3, [r1, r4]
 1546 003e 23F07003 		bic	r3, r3, #112
 1547 0042 1B04     		lsls	r3, r3, #16
 1548 0044 1B0C     		lsrs	r3, r3, #16
 1549 0046 0B51     		str	r3, [r1, r4]
 1550              		.loc 1 1044 0
 1551 0048 0B59     		ldr	r3, [r1, r4]
 1552 004a 1A43     		orrs	r2, r2, r3
 1553              	.LVL192:
 1554 004c 0A51     		str	r2, [r1, r4]
 1555              	.LVL193:
 1556              	.L96:
 1557              		.loc 1 1056 0
 1558 004e 30BC     		pop	{r4, r5}
 1559              		.cfi_restore 5
 1560              		.cfi_restore 4
 1561              		.cfi_def_cfa_offset 0
 1562 0050 7047     		bx	lr
 1563              		.cfi_endproc
 1564              	.LFE132:
 1565              		.size	TIM_SelectOCxM, .-TIM_SelectOCxM
 1566 0052 00BF     		.section	.text.TIM_SetCompare1,"ax",%progbits
 1567              		.align	1
 1568              		.p2align 4,,15
 1569              		.global	TIM_SetCompare1
 1570              		.syntax unified
 1571              		.thumb
 1572              		.thumb_func
 1573              		.fpu fpv4-sp-d16
 1574              		.type	TIM_SetCompare1, %function
 1575              	TIM_SetCompare1:
 1576              	.LFB133:
 1577              		.loc 1 1065 0
 1578              		.cfi_startproc
 1579              		@ args = 0, pretend = 0, frame = 0
 1580              		@ frame_needed = 0, uses_anonymous_args = 0
 1581              		@ link register save eliminated.
 1582              	.LVL194:
 1583              		.loc 1 1070 0
 1584 0000 4163     		str	r1, [r0, #52]
 1585              		.loc 1 1071 0
 1586 0002 7047     		bx	lr
 1587              		.cfi_endproc
 1588              	.LFE133:
 1589              		.size	TIM_SetCompare1, .-TIM_SetCompare1
 1590              		.section	.text.TIM_SetCompare2,"ax",%progbits
 1591              		.align	1
 1592              		.p2align 4,,15
 1593              		.global	TIM_SetCompare2
 1594              		.syntax unified
 1595              		.thumb
 1596              		.thumb_func
ARM GAS  C:\Users\CHRIST~1\AppData\Local\Temp\cc3R47K7.s 			page 29


 1597              		.fpu fpv4-sp-d16
 1598              		.type	TIM_SetCompare2, %function
 1599              	TIM_SetCompare2:
 1600              	.LFB134:
 1601              		.loc 1 1081 0
 1602              		.cfi_startproc
 1603              		@ args = 0, pretend = 0, frame = 0
 1604              		@ frame_needed = 0, uses_anonymous_args = 0
 1605              		@ link register save eliminated.
 1606              	.LVL195:
 1607              		.loc 1 1086 0
 1608 0000 8163     		str	r1, [r0, #56]
 1609              		.loc 1 1087 0
 1610 0002 7047     		bx	lr
 1611              		.cfi_endproc
 1612              	.LFE134:
 1613              		.size	TIM_SetCompare2, .-TIM_SetCompare2
 1614              		.section	.text.TIM_SetCompare3,"ax",%progbits
 1615              		.align	1
 1616              		.p2align 4,,15
 1617              		.global	TIM_SetCompare3
 1618              		.syntax unified
 1619              		.thumb
 1620              		.thumb_func
 1621              		.fpu fpv4-sp-d16
 1622              		.type	TIM_SetCompare3, %function
 1623              	TIM_SetCompare3:
 1624              	.LFB135:
 1625              		.loc 1 1096 0
 1626              		.cfi_startproc
 1627              		@ args = 0, pretend = 0, frame = 0
 1628              		@ frame_needed = 0, uses_anonymous_args = 0
 1629              		@ link register save eliminated.
 1630              	.LVL196:
 1631              		.loc 1 1101 0
 1632 0000 C163     		str	r1, [r0, #60]
 1633              		.loc 1 1102 0
 1634 0002 7047     		bx	lr
 1635              		.cfi_endproc
 1636              	.LFE135:
 1637              		.size	TIM_SetCompare3, .-TIM_SetCompare3
 1638              		.section	.text.TIM_SetCompare4,"ax",%progbits
 1639              		.align	1
 1640              		.p2align 4,,15
 1641              		.global	TIM_SetCompare4
 1642              		.syntax unified
 1643              		.thumb
 1644              		.thumb_func
 1645              		.fpu fpv4-sp-d16
 1646              		.type	TIM_SetCompare4, %function
 1647              	TIM_SetCompare4:
 1648              	.LFB136:
 1649              		.loc 1 1111 0
 1650              		.cfi_startproc
 1651              		@ args = 0, pretend = 0, frame = 0
 1652              		@ frame_needed = 0, uses_anonymous_args = 0
 1653              		@ link register save eliminated.
ARM GAS  C:\Users\CHRIST~1\AppData\Local\Temp\cc3R47K7.s 			page 30


 1654              	.LVL197:
 1655              		.loc 1 1116 0
 1656 0000 0164     		str	r1, [r0, #64]
 1657              		.loc 1 1117 0
 1658 0002 7047     		bx	lr
 1659              		.cfi_endproc
 1660              	.LFE136:
 1661              		.size	TIM_SetCompare4, .-TIM_SetCompare4
 1662              		.section	.text.TIM_ForcedOC1Config,"ax",%progbits
 1663              		.align	1
 1664              		.p2align 4,,15
 1665              		.global	TIM_ForcedOC1Config
 1666              		.syntax unified
 1667              		.thumb
 1668              		.thumb_func
 1669              		.fpu fpv4-sp-d16
 1670              		.type	TIM_ForcedOC1Config, %function
 1671              	TIM_ForcedOC1Config:
 1672              	.LFB137:
 1673              		.loc 1 1129 0
 1674              		.cfi_startproc
 1675              		@ args = 0, pretend = 0, frame = 0
 1676              		@ frame_needed = 0, uses_anonymous_args = 0
 1677              		@ link register save eliminated.
 1678              	.LVL198:
 1679              		.loc 1 1135 0
 1680 0000 8269     		ldr	r2, [r0, #24]
 1681              	.LVL199:
 1682              		.loc 1 1138 0
 1683 0002 4FF68F73 		movw	r3, #65423
 1684 0006 1340     		ands	r3, r3, r2
 1685              	.LVL200:
 1686              		.loc 1 1144 0
 1687 0008 1943     		orrs	r1, r1, r3
 1688              	.LVL201:
 1689 000a 8161     		str	r1, [r0, #24]
 1690              		.loc 1 1145 0
 1691 000c 7047     		bx	lr
 1692              		.cfi_endproc
 1693              	.LFE137:
 1694              		.size	TIM_ForcedOC1Config, .-TIM_ForcedOC1Config
 1695 000e 00BF     		.section	.text.TIM_ForcedOC2Config,"ax",%progbits
 1696              		.align	1
 1697              		.p2align 4,,15
 1698              		.global	TIM_ForcedOC2Config
 1699              		.syntax unified
 1700              		.thumb
 1701              		.thumb_func
 1702              		.fpu fpv4-sp-d16
 1703              		.type	TIM_ForcedOC2Config, %function
 1704              	TIM_ForcedOC2Config:
 1705              	.LFB138:
 1706              		.loc 1 1158 0
 1707              		.cfi_startproc
 1708              		@ args = 0, pretend = 0, frame = 0
 1709              		@ frame_needed = 0, uses_anonymous_args = 0
 1710              		@ link register save eliminated.
ARM GAS  C:\Users\CHRIST~1\AppData\Local\Temp\cc3R47K7.s 			page 31


 1711              	.LVL202:
 1712              		.loc 1 1164 0
 1713 0000 8269     		ldr	r2, [r0, #24]
 1714              	.LVL203:
 1715              		.loc 1 1167 0
 1716 0002 48F6FF73 		movw	r3, #36863
 1717 0006 1340     		ands	r3, r3, r2
 1718              	.LVL204:
 1719              		.loc 1 1170 0
 1720 0008 43EA0121 		orr	r1, r3, r1, lsl #8
 1721              	.LVL205:
 1722              		.loc 1 1173 0
 1723 000c 89B2     		uxth	r1, r1
 1724 000e 8161     		str	r1, [r0, #24]
 1725              		.loc 1 1174 0
 1726 0010 7047     		bx	lr
 1727              		.cfi_endproc
 1728              	.LFE138:
 1729              		.size	TIM_ForcedOC2Config, .-TIM_ForcedOC2Config
 1730 0012 00BF     		.section	.text.TIM_ForcedOC3Config,"ax",%progbits
 1731              		.align	1
 1732              		.p2align 4,,15
 1733              		.global	TIM_ForcedOC3Config
 1734              		.syntax unified
 1735              		.thumb
 1736              		.thumb_func
 1737              		.fpu fpv4-sp-d16
 1738              		.type	TIM_ForcedOC3Config, %function
 1739              	TIM_ForcedOC3Config:
 1740              	.LFB139:
 1741              		.loc 1 1186 0
 1742              		.cfi_startproc
 1743              		@ args = 0, pretend = 0, frame = 0
 1744              		@ frame_needed = 0, uses_anonymous_args = 0
 1745              		@ link register save eliminated.
 1746              	.LVL206:
 1747              		.loc 1 1193 0
 1748 0000 C269     		ldr	r2, [r0, #28]
 1749              	.LVL207:
 1750              		.loc 1 1196 0
 1751 0002 4FF68F73 		movw	r3, #65423
 1752 0006 1340     		ands	r3, r3, r2
 1753              	.LVL208:
 1754              		.loc 1 1202 0
 1755 0008 1943     		orrs	r1, r1, r3
 1756              	.LVL209:
 1757 000a C161     		str	r1, [r0, #28]
 1758              		.loc 1 1203 0
 1759 000c 7047     		bx	lr
 1760              		.cfi_endproc
 1761              	.LFE139:
 1762              		.size	TIM_ForcedOC3Config, .-TIM_ForcedOC3Config
 1763 000e 00BF     		.section	.text.TIM_ForcedOC4Config,"ax",%progbits
 1764              		.align	1
 1765              		.p2align 4,,15
 1766              		.global	TIM_ForcedOC4Config
 1767              		.syntax unified
ARM GAS  C:\Users\CHRIST~1\AppData\Local\Temp\cc3R47K7.s 			page 32


 1768              		.thumb
 1769              		.thumb_func
 1770              		.fpu fpv4-sp-d16
 1771              		.type	TIM_ForcedOC4Config, %function
 1772              	TIM_ForcedOC4Config:
 1773              	.LFB140:
 1774              		.loc 1 1215 0
 1775              		.cfi_startproc
 1776              		@ args = 0, pretend = 0, frame = 0
 1777              		@ frame_needed = 0, uses_anonymous_args = 0
 1778              		@ link register save eliminated.
 1779              	.LVL210:
 1780              		.loc 1 1221 0
 1781 0000 C269     		ldr	r2, [r0, #28]
 1782              	.LVL211:
 1783              		.loc 1 1224 0
 1784 0002 48F6FF73 		movw	r3, #36863
 1785 0006 1340     		ands	r3, r3, r2
 1786              	.LVL212:
 1787              		.loc 1 1227 0
 1788 0008 43EA0121 		orr	r1, r3, r1, lsl #8
 1789              	.LVL213:
 1790              		.loc 1 1230 0
 1791 000c 89B2     		uxth	r1, r1
 1792 000e C161     		str	r1, [r0, #28]
 1793              		.loc 1 1231 0
 1794 0010 7047     		bx	lr
 1795              		.cfi_endproc
 1796              	.LFE140:
 1797              		.size	TIM_ForcedOC4Config, .-TIM_ForcedOC4Config
 1798 0012 00BF     		.section	.text.TIM_OC1PreloadConfig,"ax",%progbits
 1799              		.align	1
 1800              		.p2align 4,,15
 1801              		.global	TIM_OC1PreloadConfig
 1802              		.syntax unified
 1803              		.thumb
 1804              		.thumb_func
 1805              		.fpu fpv4-sp-d16
 1806              		.type	TIM_OC1PreloadConfig, %function
 1807              	TIM_OC1PreloadConfig:
 1808              	.LFB141:
 1809              		.loc 1 1243 0
 1810              		.cfi_startproc
 1811              		@ args = 0, pretend = 0, frame = 0
 1812              		@ frame_needed = 0, uses_anonymous_args = 0
 1813              		@ link register save eliminated.
 1814              	.LVL214:
 1815              		.loc 1 1250 0
 1816 0000 8269     		ldr	r2, [r0, #24]
 1817              	.LVL215:
 1818              		.loc 1 1253 0
 1819 0002 4FF6F773 		movw	r3, #65527
 1820 0006 1340     		ands	r3, r3, r2
 1821              	.LVL216:
 1822              		.loc 1 1259 0
 1823 0008 1943     		orrs	r1, r1, r3
 1824              	.LVL217:
ARM GAS  C:\Users\CHRIST~1\AppData\Local\Temp\cc3R47K7.s 			page 33


 1825 000a 8161     		str	r1, [r0, #24]
 1826              		.loc 1 1260 0
 1827 000c 7047     		bx	lr
 1828              		.cfi_endproc
 1829              	.LFE141:
 1830              		.size	TIM_OC1PreloadConfig, .-TIM_OC1PreloadConfig
 1831 000e 00BF     		.section	.text.TIM_OC2PreloadConfig,"ax",%progbits
 1832              		.align	1
 1833              		.p2align 4,,15
 1834              		.global	TIM_OC2PreloadConfig
 1835              		.syntax unified
 1836              		.thumb
 1837              		.thumb_func
 1838              		.fpu fpv4-sp-d16
 1839              		.type	TIM_OC2PreloadConfig, %function
 1840              	TIM_OC2PreloadConfig:
 1841              	.LFB142:
 1842              		.loc 1 1273 0
 1843              		.cfi_startproc
 1844              		@ args = 0, pretend = 0, frame = 0
 1845              		@ frame_needed = 0, uses_anonymous_args = 0
 1846              		@ link register save eliminated.
 1847              	.LVL218:
 1848              		.loc 1 1280 0
 1849 0000 8269     		ldr	r2, [r0, #24]
 1850              	.LVL219:
 1851              		.loc 1 1283 0
 1852 0002 4FF2FF73 		movw	r3, #63487
 1853 0006 1340     		ands	r3, r3, r2
 1854              	.LVL220:
 1855              		.loc 1 1286 0
 1856 0008 43EA0121 		orr	r1, r3, r1, lsl #8
 1857              	.LVL221:
 1858              		.loc 1 1289 0
 1859 000c 89B2     		uxth	r1, r1
 1860 000e 8161     		str	r1, [r0, #24]
 1861              		.loc 1 1290 0
 1862 0010 7047     		bx	lr
 1863              		.cfi_endproc
 1864              	.LFE142:
 1865              		.size	TIM_OC2PreloadConfig, .-TIM_OC2PreloadConfig
 1866 0012 00BF     		.section	.text.TIM_OC3PreloadConfig,"ax",%progbits
 1867              		.align	1
 1868              		.p2align 4,,15
 1869              		.global	TIM_OC3PreloadConfig
 1870              		.syntax unified
 1871              		.thumb
 1872              		.thumb_func
 1873              		.fpu fpv4-sp-d16
 1874              		.type	TIM_OC3PreloadConfig, %function
 1875              	TIM_OC3PreloadConfig:
 1876              	.LFB143:
 1877              		.loc 1 1302 0
 1878              		.cfi_startproc
 1879              		@ args = 0, pretend = 0, frame = 0
 1880              		@ frame_needed = 0, uses_anonymous_args = 0
 1881              		@ link register save eliminated.
ARM GAS  C:\Users\CHRIST~1\AppData\Local\Temp\cc3R47K7.s 			page 34


 1882              	.LVL222:
 1883              		.loc 1 1309 0
 1884 0000 C269     		ldr	r2, [r0, #28]
 1885              	.LVL223:
 1886              		.loc 1 1312 0
 1887 0002 4FF6F773 		movw	r3, #65527
 1888 0006 1340     		ands	r3, r3, r2
 1889              	.LVL224:
 1890              		.loc 1 1318 0
 1891 0008 1943     		orrs	r1, r1, r3
 1892              	.LVL225:
 1893 000a C161     		str	r1, [r0, #28]
 1894              		.loc 1 1319 0
 1895 000c 7047     		bx	lr
 1896              		.cfi_endproc
 1897              	.LFE143:
 1898              		.size	TIM_OC3PreloadConfig, .-TIM_OC3PreloadConfig
 1899 000e 00BF     		.section	.text.TIM_OC4PreloadConfig,"ax",%progbits
 1900              		.align	1
 1901              		.p2align 4,,15
 1902              		.global	TIM_OC4PreloadConfig
 1903              		.syntax unified
 1904              		.thumb
 1905              		.thumb_func
 1906              		.fpu fpv4-sp-d16
 1907              		.type	TIM_OC4PreloadConfig, %function
 1908              	TIM_OC4PreloadConfig:
 1909              	.LFB144:
 1910              		.loc 1 1331 0
 1911              		.cfi_startproc
 1912              		@ args = 0, pretend = 0, frame = 0
 1913              		@ frame_needed = 0, uses_anonymous_args = 0
 1914              		@ link register save eliminated.
 1915              	.LVL226:
 1916              		.loc 1 1338 0
 1917 0000 C269     		ldr	r2, [r0, #28]
 1918              	.LVL227:
 1919              		.loc 1 1341 0
 1920 0002 4FF2FF73 		movw	r3, #63487
 1921 0006 1340     		ands	r3, r3, r2
 1922              	.LVL228:
 1923              		.loc 1 1344 0
 1924 0008 43EA0121 		orr	r1, r3, r1, lsl #8
 1925              	.LVL229:
 1926              		.loc 1 1347 0
 1927 000c 89B2     		uxth	r1, r1
 1928 000e C161     		str	r1, [r0, #28]
 1929              		.loc 1 1348 0
 1930 0010 7047     		bx	lr
 1931              		.cfi_endproc
 1932              	.LFE144:
 1933              		.size	TIM_OC4PreloadConfig, .-TIM_OC4PreloadConfig
 1934 0012 00BF     		.section	.text.TIM_OC1FastConfig,"ax",%progbits
 1935              		.align	1
 1936              		.p2align 4,,15
 1937              		.global	TIM_OC1FastConfig
 1938              		.syntax unified
ARM GAS  C:\Users\CHRIST~1\AppData\Local\Temp\cc3R47K7.s 			page 35


 1939              		.thumb
 1940              		.thumb_func
 1941              		.fpu fpv4-sp-d16
 1942              		.type	TIM_OC1FastConfig, %function
 1943              	TIM_OC1FastConfig:
 1944              	.LFB145:
 1945              		.loc 1 1360 0
 1946              		.cfi_startproc
 1947              		@ args = 0, pretend = 0, frame = 0
 1948              		@ frame_needed = 0, uses_anonymous_args = 0
 1949              		@ link register save eliminated.
 1950              	.LVL230:
 1951              		.loc 1 1368 0
 1952 0000 8269     		ldr	r2, [r0, #24]
 1953              	.LVL231:
 1954              		.loc 1 1371 0
 1955 0002 4FF6FB73 		movw	r3, #65531
 1956 0006 1340     		ands	r3, r3, r2
 1957              	.LVL232:
 1958              		.loc 1 1377 0
 1959 0008 1943     		orrs	r1, r1, r3
 1960              	.LVL233:
 1961 000a 8161     		str	r1, [r0, #24]
 1962              		.loc 1 1378 0
 1963 000c 7047     		bx	lr
 1964              		.cfi_endproc
 1965              	.LFE145:
 1966              		.size	TIM_OC1FastConfig, .-TIM_OC1FastConfig
 1967 000e 00BF     		.section	.text.TIM_OC2FastConfig,"ax",%progbits
 1968              		.align	1
 1969              		.p2align 4,,15
 1970              		.global	TIM_OC2FastConfig
 1971              		.syntax unified
 1972              		.thumb
 1973              		.thumb_func
 1974              		.fpu fpv4-sp-d16
 1975              		.type	TIM_OC2FastConfig, %function
 1976              	TIM_OC2FastConfig:
 1977              	.LFB146:
 1978              		.loc 1 1391 0
 1979              		.cfi_startproc
 1980              		@ args = 0, pretend = 0, frame = 0
 1981              		@ frame_needed = 0, uses_anonymous_args = 0
 1982              		@ link register save eliminated.
 1983              	.LVL234:
 1984              		.loc 1 1399 0
 1985 0000 8269     		ldr	r2, [r0, #24]
 1986              	.LVL235:
 1987              		.loc 1 1402 0
 1988 0002 4FF6FF33 		movw	r3, #64511
 1989 0006 1340     		ands	r3, r3, r2
 1990              	.LVL236:
 1991              		.loc 1 1405 0
 1992 0008 43EA0121 		orr	r1, r3, r1, lsl #8
 1993              	.LVL237:
 1994              		.loc 1 1408 0
 1995 000c 89B2     		uxth	r1, r1
ARM GAS  C:\Users\CHRIST~1\AppData\Local\Temp\cc3R47K7.s 			page 36


 1996 000e 8161     		str	r1, [r0, #24]
 1997              		.loc 1 1409 0
 1998 0010 7047     		bx	lr
 1999              		.cfi_endproc
 2000              	.LFE146:
 2001              		.size	TIM_OC2FastConfig, .-TIM_OC2FastConfig
 2002 0012 00BF     		.section	.text.TIM_OC3FastConfig,"ax",%progbits
 2003              		.align	1
 2004              		.p2align 4,,15
 2005              		.global	TIM_OC3FastConfig
 2006              		.syntax unified
 2007              		.thumb
 2008              		.thumb_func
 2009              		.fpu fpv4-sp-d16
 2010              		.type	TIM_OC3FastConfig, %function
 2011              	TIM_OC3FastConfig:
 2012              	.LFB147:
 2013              		.loc 1 1421 0
 2014              		.cfi_startproc
 2015              		@ args = 0, pretend = 0, frame = 0
 2016              		@ frame_needed = 0, uses_anonymous_args = 0
 2017              		@ link register save eliminated.
 2018              	.LVL238:
 2019              		.loc 1 1429 0
 2020 0000 C269     		ldr	r2, [r0, #28]
 2021              	.LVL239:
 2022              		.loc 1 1432 0
 2023 0002 4FF6FB73 		movw	r3, #65531
 2024 0006 1340     		ands	r3, r3, r2
 2025              	.LVL240:
 2026              		.loc 1 1438 0
 2027 0008 1943     		orrs	r1, r1, r3
 2028              	.LVL241:
 2029 000a C161     		str	r1, [r0, #28]
 2030              		.loc 1 1439 0
 2031 000c 7047     		bx	lr
 2032              		.cfi_endproc
 2033              	.LFE147:
 2034              		.size	TIM_OC3FastConfig, .-TIM_OC3FastConfig
 2035 000e 00BF     		.section	.text.TIM_OC4FastConfig,"ax",%progbits
 2036              		.align	1
 2037              		.p2align 4,,15
 2038              		.global	TIM_OC4FastConfig
 2039              		.syntax unified
 2040              		.thumb
 2041              		.thumb_func
 2042              		.fpu fpv4-sp-d16
 2043              		.type	TIM_OC4FastConfig, %function
 2044              	TIM_OC4FastConfig:
 2045              	.LFB148:
 2046              		.loc 1 1451 0
 2047              		.cfi_startproc
 2048              		@ args = 0, pretend = 0, frame = 0
 2049              		@ frame_needed = 0, uses_anonymous_args = 0
 2050              		@ link register save eliminated.
 2051              	.LVL242:
 2052              		.loc 1 1459 0
ARM GAS  C:\Users\CHRIST~1\AppData\Local\Temp\cc3R47K7.s 			page 37


 2053 0000 C269     		ldr	r2, [r0, #28]
 2054              	.LVL243:
 2055              		.loc 1 1462 0
 2056 0002 4FF6FF33 		movw	r3, #64511
 2057 0006 1340     		ands	r3, r3, r2
 2058              	.LVL244:
 2059              		.loc 1 1465 0
 2060 0008 43EA0121 		orr	r1, r3, r1, lsl #8
 2061              	.LVL245:
 2062              		.loc 1 1468 0
 2063 000c 89B2     		uxth	r1, r1
 2064 000e C161     		str	r1, [r0, #28]
 2065              		.loc 1 1469 0
 2066 0010 7047     		bx	lr
 2067              		.cfi_endproc
 2068              	.LFE148:
 2069              		.size	TIM_OC4FastConfig, .-TIM_OC4FastConfig
 2070 0012 00BF     		.section	.text.TIM_ClearOC1Ref,"ax",%progbits
 2071              		.align	1
 2072              		.p2align 4,,15
 2073              		.global	TIM_ClearOC1Ref
 2074              		.syntax unified
 2075              		.thumb
 2076              		.thumb_func
 2077              		.fpu fpv4-sp-d16
 2078              		.type	TIM_ClearOC1Ref, %function
 2079              	TIM_ClearOC1Ref:
 2080              	.LFB149:
 2081              		.loc 1 1481 0
 2082              		.cfi_startproc
 2083              		@ args = 0, pretend = 0, frame = 0
 2084              		@ frame_needed = 0, uses_anonymous_args = 0
 2085              		@ link register save eliminated.
 2086              	.LVL246:
 2087              		.loc 1 1488 0
 2088 0000 8269     		ldr	r2, [r0, #24]
 2089              	.LVL247:
 2090              		.loc 1 1491 0
 2091 0002 4FF67F73 		movw	r3, #65407
 2092 0006 1340     		ands	r3, r3, r2
 2093              	.LVL248:
 2094              		.loc 1 1497 0
 2095 0008 1943     		orrs	r1, r1, r3
 2096              	.LVL249:
 2097 000a 8161     		str	r1, [r0, #24]
 2098              		.loc 1 1498 0
 2099 000c 7047     		bx	lr
 2100              		.cfi_endproc
 2101              	.LFE149:
 2102              		.size	TIM_ClearOC1Ref, .-TIM_ClearOC1Ref
 2103 000e 00BF     		.section	.text.TIM_ClearOC2Ref,"ax",%progbits
 2104              		.align	1
 2105              		.p2align 4,,15
 2106              		.global	TIM_ClearOC2Ref
 2107              		.syntax unified
 2108              		.thumb
 2109              		.thumb_func
ARM GAS  C:\Users\CHRIST~1\AppData\Local\Temp\cc3R47K7.s 			page 38


 2110              		.fpu fpv4-sp-d16
 2111              		.type	TIM_ClearOC2Ref, %function
 2112              	TIM_ClearOC2Ref:
 2113              	.LFB150:
 2114              		.loc 1 1511 0
 2115              		.cfi_startproc
 2116              		@ args = 0, pretend = 0, frame = 0
 2117              		@ frame_needed = 0, uses_anonymous_args = 0
 2118              		@ link register save eliminated.
 2119              	.LVL250:
 2120              		.loc 1 1518 0
 2121 0000 8369     		ldr	r3, [r0, #24]
 2122              	.LVL251:
 2123              		.loc 1 1521 0
 2124 0002 C3F30E03 		ubfx	r3, r3, #0, #15
 2125              	.LVL252:
 2126              		.loc 1 1524 0
 2127 0006 43EA0121 		orr	r1, r3, r1, lsl #8
 2128              	.LVL253:
 2129              		.loc 1 1527 0
 2130 000a 89B2     		uxth	r1, r1
 2131 000c 8161     		str	r1, [r0, #24]
 2132              		.loc 1 1528 0
 2133 000e 7047     		bx	lr
 2134              		.cfi_endproc
 2135              	.LFE150:
 2136              		.size	TIM_ClearOC2Ref, .-TIM_ClearOC2Ref
 2137              		.section	.text.TIM_ClearOC3Ref,"ax",%progbits
 2138              		.align	1
 2139              		.p2align 4,,15
 2140              		.global	TIM_ClearOC3Ref
 2141              		.syntax unified
 2142              		.thumb
 2143              		.thumb_func
 2144              		.fpu fpv4-sp-d16
 2145              		.type	TIM_ClearOC3Ref, %function
 2146              	TIM_ClearOC3Ref:
 2147              	.LFB151:
 2148              		.loc 1 1540 0
 2149              		.cfi_startproc
 2150              		@ args = 0, pretend = 0, frame = 0
 2151              		@ frame_needed = 0, uses_anonymous_args = 0
 2152              		@ link register save eliminated.
 2153              	.LVL254:
 2154              		.loc 1 1547 0
 2155 0000 C269     		ldr	r2, [r0, #28]
 2156              	.LVL255:
 2157              		.loc 1 1550 0
 2158 0002 4FF67F73 		movw	r3, #65407
 2159 0006 1340     		ands	r3, r3, r2
 2160              	.LVL256:
 2161              		.loc 1 1556 0
 2162 0008 1943     		orrs	r1, r1, r3
 2163              	.LVL257:
 2164 000a C161     		str	r1, [r0, #28]
 2165              		.loc 1 1557 0
 2166 000c 7047     		bx	lr
ARM GAS  C:\Users\CHRIST~1\AppData\Local\Temp\cc3R47K7.s 			page 39


 2167              		.cfi_endproc
 2168              	.LFE151:
 2169              		.size	TIM_ClearOC3Ref, .-TIM_ClearOC3Ref
 2170 000e 00BF     		.section	.text.TIM_ClearOC4Ref,"ax",%progbits
 2171              		.align	1
 2172              		.p2align 4,,15
 2173              		.global	TIM_ClearOC4Ref
 2174              		.syntax unified
 2175              		.thumb
 2176              		.thumb_func
 2177              		.fpu fpv4-sp-d16
 2178              		.type	TIM_ClearOC4Ref, %function
 2179              	TIM_ClearOC4Ref:
 2180              	.LFB152:
 2181              		.loc 1 1569 0
 2182              		.cfi_startproc
 2183              		@ args = 0, pretend = 0, frame = 0
 2184              		@ frame_needed = 0, uses_anonymous_args = 0
 2185              		@ link register save eliminated.
 2186              	.LVL258:
 2187              		.loc 1 1576 0
 2188 0000 C369     		ldr	r3, [r0, #28]
 2189              	.LVL259:
 2190              		.loc 1 1579 0
 2191 0002 C3F30E03 		ubfx	r3, r3, #0, #15
 2192              	.LVL260:
 2193              		.loc 1 1582 0
 2194 0006 43EA0121 		orr	r1, r3, r1, lsl #8
 2195              	.LVL261:
 2196              		.loc 1 1585 0
 2197 000a 89B2     		uxth	r1, r1
 2198 000c C161     		str	r1, [r0, #28]
 2199              		.loc 1 1586 0
 2200 000e 7047     		bx	lr
 2201              		.cfi_endproc
 2202              	.LFE152:
 2203              		.size	TIM_ClearOC4Ref, .-TIM_ClearOC4Ref
 2204              		.section	.text.TIM_OC1PolarityConfig,"ax",%progbits
 2205              		.align	1
 2206              		.p2align 4,,15
 2207              		.global	TIM_OC1PolarityConfig
 2208              		.syntax unified
 2209              		.thumb
 2210              		.thumb_func
 2211              		.fpu fpv4-sp-d16
 2212              		.type	TIM_OC1PolarityConfig, %function
 2213              	TIM_OC1PolarityConfig:
 2214              	.LFB153:
 2215              		.loc 1 1598 0
 2216              		.cfi_startproc
 2217              		@ args = 0, pretend = 0, frame = 0
 2218              		@ frame_needed = 0, uses_anonymous_args = 0
 2219              		@ link register save eliminated.
 2220              	.LVL262:
 2221              		.loc 1 1605 0
 2222 0000 026A     		ldr	r2, [r0, #32]
 2223              	.LVL263:
ARM GAS  C:\Users\CHRIST~1\AppData\Local\Temp\cc3R47K7.s 			page 40


 2224              		.loc 1 1608 0
 2225 0002 4FF6FD73 		movw	r3, #65533
 2226 0006 1340     		ands	r3, r3, r2
 2227              	.LVL264:
 2228              		.loc 1 1612 0
 2229 0008 1943     		orrs	r1, r1, r3
 2230              	.LVL265:
 2231 000a 0162     		str	r1, [r0, #32]
 2232              		.loc 1 1613 0
 2233 000c 7047     		bx	lr
 2234              		.cfi_endproc
 2235              	.LFE153:
 2236              		.size	TIM_OC1PolarityConfig, .-TIM_OC1PolarityConfig
 2237 000e 00BF     		.section	.text.TIM_OC1NPolarityConfig,"ax",%progbits
 2238              		.align	1
 2239              		.p2align 4,,15
 2240              		.global	TIM_OC1NPolarityConfig
 2241              		.syntax unified
 2242              		.thumb
 2243              		.thumb_func
 2244              		.fpu fpv4-sp-d16
 2245              		.type	TIM_OC1NPolarityConfig, %function
 2246              	TIM_OC1NPolarityConfig:
 2247              	.LFB154:
 2248              		.loc 1 1625 0
 2249              		.cfi_startproc
 2250              		@ args = 0, pretend = 0, frame = 0
 2251              		@ frame_needed = 0, uses_anonymous_args = 0
 2252              		@ link register save eliminated.
 2253              	.LVL266:
 2254              		.loc 1 1631 0
 2255 0000 026A     		ldr	r2, [r0, #32]
 2256              	.LVL267:
 2257              		.loc 1 1634 0
 2258 0002 4FF6F773 		movw	r3, #65527
 2259 0006 1340     		ands	r3, r3, r2
 2260              	.LVL268:
 2261              		.loc 1 1638 0
 2262 0008 1943     		orrs	r1, r1, r3
 2263              	.LVL269:
 2264 000a 0162     		str	r1, [r0, #32]
 2265              		.loc 1 1639 0
 2266 000c 7047     		bx	lr
 2267              		.cfi_endproc
 2268              	.LFE154:
 2269              		.size	TIM_OC1NPolarityConfig, .-TIM_OC1NPolarityConfig
 2270 000e 00BF     		.section	.text.TIM_OC2PolarityConfig,"ax",%progbits
 2271              		.align	1
 2272              		.p2align 4,,15
 2273              		.global	TIM_OC2PolarityConfig
 2274              		.syntax unified
 2275              		.thumb
 2276              		.thumb_func
 2277              		.fpu fpv4-sp-d16
 2278              		.type	TIM_OC2PolarityConfig, %function
 2279              	TIM_OC2PolarityConfig:
 2280              	.LFB155:
ARM GAS  C:\Users\CHRIST~1\AppData\Local\Temp\cc3R47K7.s 			page 41


 2281              		.loc 1 1652 0
 2282              		.cfi_startproc
 2283              		@ args = 0, pretend = 0, frame = 0
 2284              		@ frame_needed = 0, uses_anonymous_args = 0
 2285              		@ link register save eliminated.
 2286              	.LVL270:
 2287              		.loc 1 1659 0
 2288 0000 026A     		ldr	r2, [r0, #32]
 2289              	.LVL271:
 2290              		.loc 1 1662 0
 2291 0002 4FF6DF73 		movw	r3, #65503
 2292 0006 1340     		ands	r3, r3, r2
 2293              	.LVL272:
 2294              		.loc 1 1663 0
 2295 0008 43EA0111 		orr	r1, r3, r1, lsl #4
 2296              	.LVL273:
 2297              		.loc 1 1666 0
 2298 000c 89B2     		uxth	r1, r1
 2299 000e 0162     		str	r1, [r0, #32]
 2300              		.loc 1 1667 0
 2301 0010 7047     		bx	lr
 2302              		.cfi_endproc
 2303              	.LFE155:
 2304              		.size	TIM_OC2PolarityConfig, .-TIM_OC2PolarityConfig
 2305 0012 00BF     		.section	.text.TIM_OC2NPolarityConfig,"ax",%progbits
 2306              		.align	1
 2307              		.p2align 4,,15
 2308              		.global	TIM_OC2NPolarityConfig
 2309              		.syntax unified
 2310              		.thumb
 2311              		.thumb_func
 2312              		.fpu fpv4-sp-d16
 2313              		.type	TIM_OC2NPolarityConfig, %function
 2314              	TIM_OC2NPolarityConfig:
 2315              	.LFB156:
 2316              		.loc 1 1679 0
 2317              		.cfi_startproc
 2318              		@ args = 0, pretend = 0, frame = 0
 2319              		@ frame_needed = 0, uses_anonymous_args = 0
 2320              		@ link register save eliminated.
 2321              	.LVL274:
 2322              		.loc 1 1686 0
 2323 0000 026A     		ldr	r2, [r0, #32]
 2324              	.LVL275:
 2325              		.loc 1 1689 0
 2326 0002 4FF67F73 		movw	r3, #65407
 2327 0006 1340     		ands	r3, r3, r2
 2328              	.LVL276:
 2329              		.loc 1 1690 0
 2330 0008 43EA0111 		orr	r1, r3, r1, lsl #4
 2331              	.LVL277:
 2332              		.loc 1 1693 0
 2333 000c 89B2     		uxth	r1, r1
 2334 000e 0162     		str	r1, [r0, #32]
 2335              		.loc 1 1694 0
 2336 0010 7047     		bx	lr
 2337              		.cfi_endproc
ARM GAS  C:\Users\CHRIST~1\AppData\Local\Temp\cc3R47K7.s 			page 42


 2338              	.LFE156:
 2339              		.size	TIM_OC2NPolarityConfig, .-TIM_OC2NPolarityConfig
 2340 0012 00BF     		.section	.text.TIM_OC3PolarityConfig,"ax",%progbits
 2341              		.align	1
 2342              		.p2align 4,,15
 2343              		.global	TIM_OC3PolarityConfig
 2344              		.syntax unified
 2345              		.thumb
 2346              		.thumb_func
 2347              		.fpu fpv4-sp-d16
 2348              		.type	TIM_OC3PolarityConfig, %function
 2349              	TIM_OC3PolarityConfig:
 2350              	.LFB157:
 2351              		.loc 1 1706 0
 2352              		.cfi_startproc
 2353              		@ args = 0, pretend = 0, frame = 0
 2354              		@ frame_needed = 0, uses_anonymous_args = 0
 2355              		@ link register save eliminated.
 2356              	.LVL278:
 2357              		.loc 1 1713 0
 2358 0000 026A     		ldr	r2, [r0, #32]
 2359              	.LVL279:
 2360              		.loc 1 1716 0
 2361 0002 4FF6FF53 		movw	r3, #65023
 2362 0006 1340     		ands	r3, r3, r2
 2363              	.LVL280:
 2364              		.loc 1 1717 0
 2365 0008 43EA0121 		orr	r1, r3, r1, lsl #8
 2366              	.LVL281:
 2367              		.loc 1 1720 0
 2368 000c 89B2     		uxth	r1, r1
 2369 000e 0162     		str	r1, [r0, #32]
 2370              		.loc 1 1721 0
 2371 0010 7047     		bx	lr
 2372              		.cfi_endproc
 2373              	.LFE157:
 2374              		.size	TIM_OC3PolarityConfig, .-TIM_OC3PolarityConfig
 2375 0012 00BF     		.section	.text.TIM_OC3NPolarityConfig,"ax",%progbits
 2376              		.align	1
 2377              		.p2align 4,,15
 2378              		.global	TIM_OC3NPolarityConfig
 2379              		.syntax unified
 2380              		.thumb
 2381              		.thumb_func
 2382              		.fpu fpv4-sp-d16
 2383              		.type	TIM_OC3NPolarityConfig, %function
 2384              	TIM_OC3NPolarityConfig:
 2385              	.LFB158:
 2386              		.loc 1 1733 0
 2387              		.cfi_startproc
 2388              		@ args = 0, pretend = 0, frame = 0
 2389              		@ frame_needed = 0, uses_anonymous_args = 0
 2390              		@ link register save eliminated.
 2391              	.LVL282:
 2392              		.loc 1 1740 0
 2393 0000 026A     		ldr	r2, [r0, #32]
 2394              	.LVL283:
ARM GAS  C:\Users\CHRIST~1\AppData\Local\Temp\cc3R47K7.s 			page 43


 2395              		.loc 1 1743 0
 2396 0002 4FF2FF73 		movw	r3, #63487
 2397 0006 1340     		ands	r3, r3, r2
 2398              	.LVL284:
 2399              		.loc 1 1744 0
 2400 0008 43EA0121 		orr	r1, r3, r1, lsl #8
 2401              	.LVL285:
 2402              		.loc 1 1747 0
 2403 000c 89B2     		uxth	r1, r1
 2404 000e 0162     		str	r1, [r0, #32]
 2405              		.loc 1 1748 0
 2406 0010 7047     		bx	lr
 2407              		.cfi_endproc
 2408              	.LFE158:
 2409              		.size	TIM_OC3NPolarityConfig, .-TIM_OC3NPolarityConfig
 2410 0012 00BF     		.section	.text.TIM_OC4PolarityConfig,"ax",%progbits
 2411              		.align	1
 2412              		.p2align 4,,15
 2413              		.global	TIM_OC4PolarityConfig
 2414              		.syntax unified
 2415              		.thumb
 2416              		.thumb_func
 2417              		.fpu fpv4-sp-d16
 2418              		.type	TIM_OC4PolarityConfig, %function
 2419              	TIM_OC4PolarityConfig:
 2420              	.LFB159:
 2421              		.loc 1 1760 0
 2422              		.cfi_startproc
 2423              		@ args = 0, pretend = 0, frame = 0
 2424              		@ frame_needed = 0, uses_anonymous_args = 0
 2425              		@ link register save eliminated.
 2426              	.LVL286:
 2427              		.loc 1 1767 0
 2428 0000 026A     		ldr	r2, [r0, #32]
 2429              	.LVL287:
 2430              		.loc 1 1770 0
 2431 0002 4DF6FF73 		movw	r3, #57343
 2432 0006 1340     		ands	r3, r3, r2
 2433              	.LVL288:
 2434              		.loc 1 1771 0
 2435 0008 43EA0131 		orr	r1, r3, r1, lsl #12
 2436              	.LVL289:
 2437              		.loc 1 1774 0
 2438 000c 89B2     		uxth	r1, r1
 2439 000e 0162     		str	r1, [r0, #32]
 2440              		.loc 1 1775 0
 2441 0010 7047     		bx	lr
 2442              		.cfi_endproc
 2443              	.LFE159:
 2444              		.size	TIM_OC4PolarityConfig, .-TIM_OC4PolarityConfig
 2445 0012 00BF     		.section	.text.TIM_CCxCmd,"ax",%progbits
 2446              		.align	1
 2447              		.p2align 4,,15
 2448              		.global	TIM_CCxCmd
 2449              		.syntax unified
 2450              		.thumb
 2451              		.thumb_func
ARM GAS  C:\Users\CHRIST~1\AppData\Local\Temp\cc3R47K7.s 			page 44


 2452              		.fpu fpv4-sp-d16
 2453              		.type	TIM_CCxCmd, %function
 2454              	TIM_CCxCmd:
 2455              	.LFB160:
 2456              		.loc 1 1791 0
 2457              		.cfi_startproc
 2458              		@ args = 0, pretend = 0, frame = 0
 2459              		@ frame_needed = 0, uses_anonymous_args = 0
 2460              		@ link register save eliminated.
 2461              	.LVL290:
 2462 0000 10B4     		push	{r4}
 2463              		.cfi_def_cfa_offset 4
 2464              		.cfi_offset 4, -4
 2465              	.LVL291:
 2466              		.loc 1 1802 0
 2467 0002 046A     		ldr	r4, [r0, #32]
 2468              		.loc 1 1799 0
 2469 0004 0123     		movs	r3, #1
 2470 0006 8B40     		lsls	r3, r3, r1
 2471              		.loc 1 1802 0
 2472 0008 DB43     		mvns	r3, r3
 2473 000a 9BB2     		uxth	r3, r3
 2474 000c 2340     		ands	r3, r3, r4
 2475 000e 0362     		str	r3, [r0, #32]
 2476              		.loc 1 1805 0
 2477 0010 036A     		ldr	r3, [r0, #32]
 2478 0012 02FA01F1 		lsl	r1, r2, r1
 2479              	.LVL292:
 2480 0016 89B2     		uxth	r1, r1
 2481 0018 1943     		orrs	r1, r1, r3
 2482 001a 0162     		str	r1, [r0, #32]
 2483              		.loc 1 1806 0
 2484 001c 5DF8044B 		ldr	r4, [sp], #4
 2485              		.cfi_restore 4
 2486              		.cfi_def_cfa_offset 0
 2487 0020 7047     		bx	lr
 2488              		.cfi_endproc
 2489              	.LFE160:
 2490              		.size	TIM_CCxCmd, .-TIM_CCxCmd
 2491 0022 00BF     		.section	.text.TIM_CCxNCmd,"ax",%progbits
 2492              		.align	1
 2493              		.p2align 4,,15
 2494              		.global	TIM_CCxNCmd
 2495              		.syntax unified
 2496              		.thumb
 2497              		.thumb_func
 2498              		.fpu fpv4-sp-d16
 2499              		.type	TIM_CCxNCmd, %function
 2500              	TIM_CCxNCmd:
 2501              	.LFB161:
 2502              		.loc 1 1821 0
 2503              		.cfi_startproc
 2504              		@ args = 0, pretend = 0, frame = 0
 2505              		@ frame_needed = 0, uses_anonymous_args = 0
 2506              		@ link register save eliminated.
 2507              	.LVL293:
 2508 0000 10B4     		push	{r4}
ARM GAS  C:\Users\CHRIST~1\AppData\Local\Temp\cc3R47K7.s 			page 45


 2509              		.cfi_def_cfa_offset 4
 2510              		.cfi_offset 4, -4
 2511              	.LVL294:
 2512              		.loc 1 1832 0
 2513 0002 046A     		ldr	r4, [r0, #32]
 2514              		.loc 1 1829 0
 2515 0004 0423     		movs	r3, #4
 2516 0006 8B40     		lsls	r3, r3, r1
 2517              		.loc 1 1832 0
 2518 0008 DB43     		mvns	r3, r3
 2519 000a 9BB2     		uxth	r3, r3
 2520 000c 2340     		ands	r3, r3, r4
 2521 000e 0362     		str	r3, [r0, #32]
 2522              		.loc 1 1835 0
 2523 0010 036A     		ldr	r3, [r0, #32]
 2524 0012 02FA01F1 		lsl	r1, r2, r1
 2525              	.LVL295:
 2526 0016 89B2     		uxth	r1, r1
 2527 0018 1943     		orrs	r1, r1, r3
 2528 001a 0162     		str	r1, [r0, #32]
 2529              		.loc 1 1836 0
 2530 001c 5DF8044B 		ldr	r4, [sp], #4
 2531              		.cfi_restore 4
 2532              		.cfi_def_cfa_offset 0
 2533 0020 7047     		bx	lr
 2534              		.cfi_endproc
 2535              	.LFE161:
 2536              		.size	TIM_CCxNCmd, .-TIM_CCxNCmd
 2537 0022 00BF     		.section	.text.TIM_ICStructInit,"ax",%progbits
 2538              		.align	1
 2539              		.p2align 4,,15
 2540              		.global	TIM_ICStructInit
 2541              		.syntax unified
 2542              		.thumb
 2543              		.thumb_func
 2544              		.fpu fpv4-sp-d16
 2545              		.type	TIM_ICStructInit, %function
 2546              	TIM_ICStructInit:
 2547              	.LFB163:
 2548              		.loc 1 1961 0
 2549              		.cfi_startproc
 2550              		@ args = 0, pretend = 0, frame = 0
 2551              		@ frame_needed = 0, uses_anonymous_args = 0
 2552              		@ link register save eliminated.
 2553              	.LVL296:
 2554              		.loc 1 1963 0
 2555 0000 0023     		movs	r3, #0
 2556 0002 0380     		strh	r3, [r0]	@ movhi
 2557              		.loc 1 1964 0
 2558 0004 4380     		strh	r3, [r0, #2]	@ movhi
 2559              		.loc 1 1965 0
 2560 0006 0122     		movs	r2, #1
 2561 0008 8280     		strh	r2, [r0, #4]	@ movhi
 2562              		.loc 1 1966 0
 2563 000a C380     		strh	r3, [r0, #6]	@ movhi
 2564              		.loc 1 1967 0
 2565 000c 0381     		strh	r3, [r0, #8]	@ movhi
ARM GAS  C:\Users\CHRIST~1\AppData\Local\Temp\cc3R47K7.s 			page 46


 2566              		.loc 1 1968 0
 2567 000e 7047     		bx	lr
 2568              		.cfi_endproc
 2569              	.LFE163:
 2570              		.size	TIM_ICStructInit, .-TIM_ICStructInit
 2571              		.section	.text.TIM_GetCapture1,"ax",%progbits
 2572              		.align	1
 2573              		.p2align 4,,15
 2574              		.global	TIM_GetCapture1
 2575              		.syntax unified
 2576              		.thumb
 2577              		.thumb_func
 2578              		.fpu fpv4-sp-d16
 2579              		.type	TIM_GetCapture1, %function
 2580              	TIM_GetCapture1:
 2581              	.LFB165:
 2582              		.loc 1 2037 0
 2583              		.cfi_startproc
 2584              		@ args = 0, pretend = 0, frame = 0
 2585              		@ frame_needed = 0, uses_anonymous_args = 0
 2586              		@ link register save eliminated.
 2587              	.LVL297:
 2588              		.loc 1 2042 0
 2589 0000 406B     		ldr	r0, [r0, #52]
 2590              	.LVL298:
 2591              		.loc 1 2043 0
 2592 0002 7047     		bx	lr
 2593              		.cfi_endproc
 2594              	.LFE165:
 2595              		.size	TIM_GetCapture1, .-TIM_GetCapture1
 2596              		.section	.text.TIM_GetCapture2,"ax",%progbits
 2597              		.align	1
 2598              		.p2align 4,,15
 2599              		.global	TIM_GetCapture2
 2600              		.syntax unified
 2601              		.thumb
 2602              		.thumb_func
 2603              		.fpu fpv4-sp-d16
 2604              		.type	TIM_GetCapture2, %function
 2605              	TIM_GetCapture2:
 2606              	.LFB166:
 2607              		.loc 1 2052 0
 2608              		.cfi_startproc
 2609              		@ args = 0, pretend = 0, frame = 0
 2610              		@ frame_needed = 0, uses_anonymous_args = 0
 2611              		@ link register save eliminated.
 2612              	.LVL299:
 2613              		.loc 1 2057 0
 2614 0000 806B     		ldr	r0, [r0, #56]
 2615              	.LVL300:
 2616              		.loc 1 2058 0
 2617 0002 7047     		bx	lr
 2618              		.cfi_endproc
 2619              	.LFE166:
 2620              		.size	TIM_GetCapture2, .-TIM_GetCapture2
 2621              		.section	.text.TIM_GetCapture3,"ax",%progbits
 2622              		.align	1
ARM GAS  C:\Users\CHRIST~1\AppData\Local\Temp\cc3R47K7.s 			page 47


 2623              		.p2align 4,,15
 2624              		.global	TIM_GetCapture3
 2625              		.syntax unified
 2626              		.thumb
 2627              		.thumb_func
 2628              		.fpu fpv4-sp-d16
 2629              		.type	TIM_GetCapture3, %function
 2630              	TIM_GetCapture3:
 2631              	.LFB167:
 2632              		.loc 1 2066 0
 2633              		.cfi_startproc
 2634              		@ args = 0, pretend = 0, frame = 0
 2635              		@ frame_needed = 0, uses_anonymous_args = 0
 2636              		@ link register save eliminated.
 2637              	.LVL301:
 2638              		.loc 1 2071 0
 2639 0000 C06B     		ldr	r0, [r0, #60]
 2640              	.LVL302:
 2641              		.loc 1 2072 0
 2642 0002 7047     		bx	lr
 2643              		.cfi_endproc
 2644              	.LFE167:
 2645              		.size	TIM_GetCapture3, .-TIM_GetCapture3
 2646              		.section	.text.TIM_GetCapture4,"ax",%progbits
 2647              		.align	1
 2648              		.p2align 4,,15
 2649              		.global	TIM_GetCapture4
 2650              		.syntax unified
 2651              		.thumb
 2652              		.thumb_func
 2653              		.fpu fpv4-sp-d16
 2654              		.type	TIM_GetCapture4, %function
 2655              	TIM_GetCapture4:
 2656              	.LFB168:
 2657              		.loc 1 2080 0
 2658              		.cfi_startproc
 2659              		@ args = 0, pretend = 0, frame = 0
 2660              		@ frame_needed = 0, uses_anonymous_args = 0
 2661              		@ link register save eliminated.
 2662              	.LVL303:
 2663              		.loc 1 2085 0
 2664 0000 006C     		ldr	r0, [r0, #64]
 2665              	.LVL304:
 2666              		.loc 1 2086 0
 2667 0002 7047     		bx	lr
 2668              		.cfi_endproc
 2669              	.LFE168:
 2670              		.size	TIM_GetCapture4, .-TIM_GetCapture4
 2671              		.section	.text.TIM_SetIC1Prescaler,"ax",%progbits
 2672              		.align	1
 2673              		.p2align 4,,15
 2674              		.global	TIM_SetIC1Prescaler
 2675              		.syntax unified
 2676              		.thumb
 2677              		.thumb_func
 2678              		.fpu fpv4-sp-d16
 2679              		.type	TIM_SetIC1Prescaler, %function
ARM GAS  C:\Users\CHRIST~1\AppData\Local\Temp\cc3R47K7.s 			page 48


 2680              	TIM_SetIC1Prescaler:
 2681              	.LFB169:
 2682              		.loc 1 2100 0
 2683              		.cfi_startproc
 2684              		@ args = 0, pretend = 0, frame = 0
 2685              		@ frame_needed = 0, uses_anonymous_args = 0
 2686              		@ link register save eliminated.
 2687              	.LVL305:
 2688              		.loc 1 2106 0
 2689 0000 8369     		ldr	r3, [r0, #24]
 2690 0002 23F00C03 		bic	r3, r3, #12
 2691 0006 1B04     		lsls	r3, r3, #16
 2692 0008 1B0C     		lsrs	r3, r3, #16
 2693 000a 8361     		str	r3, [r0, #24]
 2694              		.loc 1 2109 0
 2695 000c 8369     		ldr	r3, [r0, #24]
 2696 000e 1943     		orrs	r1, r1, r3
 2697              	.LVL306:
 2698 0010 8161     		str	r1, [r0, #24]
 2699              		.loc 1 2110 0
 2700 0012 7047     		bx	lr
 2701              		.cfi_endproc
 2702              	.LFE169:
 2703              		.size	TIM_SetIC1Prescaler, .-TIM_SetIC1Prescaler
 2704              		.section	.text.TIM_SetIC2Prescaler,"ax",%progbits
 2705              		.align	1
 2706              		.p2align 4,,15
 2707              		.global	TIM_SetIC2Prescaler
 2708              		.syntax unified
 2709              		.thumb
 2710              		.thumb_func
 2711              		.fpu fpv4-sp-d16
 2712              		.type	TIM_SetIC2Prescaler, %function
 2713              	TIM_SetIC2Prescaler:
 2714              	.LFB170:
 2715              		.loc 1 2125 0
 2716              		.cfi_startproc
 2717              		@ args = 0, pretend = 0, frame = 0
 2718              		@ frame_needed = 0, uses_anonymous_args = 0
 2719              		@ link register save eliminated.
 2720              	.LVL307:
 2721              		.loc 1 2131 0
 2722 0000 8369     		ldr	r3, [r0, #24]
 2723 0002 23F44063 		bic	r3, r3, #3072
 2724 0006 1B04     		lsls	r3, r3, #16
 2725 0008 1B0C     		lsrs	r3, r3, #16
 2726 000a 8361     		str	r3, [r0, #24]
 2727              		.loc 1 2134 0
 2728 000c 8369     		ldr	r3, [r0, #24]
 2729 000e 0902     		lsls	r1, r1, #8
 2730              	.LVL308:
 2731 0010 89B2     		uxth	r1, r1
 2732 0012 1943     		orrs	r1, r1, r3
 2733 0014 8161     		str	r1, [r0, #24]
 2734              		.loc 1 2135 0
 2735 0016 7047     		bx	lr
 2736              		.cfi_endproc
ARM GAS  C:\Users\CHRIST~1\AppData\Local\Temp\cc3R47K7.s 			page 49


 2737              	.LFE170:
 2738              		.size	TIM_SetIC2Prescaler, .-TIM_SetIC2Prescaler
 2739              		.section	.text.TIM_PWMIConfig,"ax",%progbits
 2740              		.align	1
 2741              		.p2align 4,,15
 2742              		.global	TIM_PWMIConfig
 2743              		.syntax unified
 2744              		.thumb
 2745              		.thumb_func
 2746              		.fpu fpv4-sp-d16
 2747              		.type	TIM_PWMIConfig, %function
 2748              	TIM_PWMIConfig:
 2749              	.LFB164:
 2750              		.loc 1 1980 0
 2751              		.cfi_startproc
 2752              		@ args = 0, pretend = 0, frame = 0
 2753              		@ frame_needed = 0, uses_anonymous_args = 0
 2754              	.LVL309:
 2755 0000 F8B5     		push	{r3, r4, r5, r6, r7, lr}
 2756              		.cfi_def_cfa_offset 24
 2757              		.cfi_offset 3, -24
 2758              		.cfi_offset 4, -20
 2759              		.cfi_offset 5, -16
 2760              		.cfi_offset 6, -12
 2761              		.cfi_offset 7, -8
 2762              		.cfi_offset 14, -4
 2763 0002 0546     		mov	r5, r0
 2764 0004 0C46     		mov	r4, r1
 2765              	.LVL310:
 2766              		.loc 1 1988 0
 2767 0006 4988     		ldrh	r1, [r1, #2]
 2768              	.LVL311:
 2769              		.loc 1 1994 0
 2770 0008 0029     		cmp	r1, #0
 2771 000a 0CBF     		ite	eq
 2772 000c 0226     		moveq	r6, #2
 2773 000e 0026     		movne	r6, #0
 2774              	.LVL312:
 2775              		.loc 1 1997 0
 2776 0010 A288     		ldrh	r2, [r4, #4]
 2777              		.loc 1 2003 0
 2778 0012 012A     		cmp	r2, #1
 2779 0014 0CBF     		ite	eq
 2780 0016 0227     		moveq	r7, #2
 2781 0018 0127     		movne	r7, #1
 2782              	.LVL313:
 2783              		.loc 1 2005 0
 2784 001a 2388     		ldrh	r3, [r4]
 2785 001c 8BB1     		cbz	r3, .L147
 2786              		.loc 1 2020 0
 2787 001e 2389     		ldrh	r3, [r4, #8]
 2788 0020 FFF7FEFF 		bl	TI2_Config
 2789              	.LVL314:
 2790              		.loc 1 2023 0
 2791 0024 E188     		ldrh	r1, [r4, #6]
 2792 0026 2846     		mov	r0, r5
 2793 0028 FFF7FEFF 		bl	TIM_SetIC2Prescaler
ARM GAS  C:\Users\CHRIST~1\AppData\Local\Temp\cc3R47K7.s 			page 50


 2794              	.LVL315:
 2795              		.loc 1 2025 0
 2796 002c 2389     		ldrh	r3, [r4, #8]
 2797 002e 3A46     		mov	r2, r7
 2798 0030 3146     		mov	r1, r6
 2799 0032 2846     		mov	r0, r5
 2800 0034 FFF7FEFF 		bl	TI1_Config
 2801              	.LVL316:
 2802              		.loc 1 2027 0
 2803 0038 E188     		ldrh	r1, [r4, #6]
 2804 003a 2846     		mov	r0, r5
 2805 003c FFF7FEFF 		bl	TIM_SetIC1Prescaler
 2806              	.LVL317:
 2807              	.L139:
 2808              		.loc 1 2029 0
 2809 0040 F8BD     		pop	{r3, r4, r5, r6, r7, pc}
 2810              	.LVL318:
 2811              	.L147:
 2812              		.loc 1 2008 0
 2813 0042 2389     		ldrh	r3, [r4, #8]
 2814 0044 FFF7FEFF 		bl	TI1_Config
 2815              	.LVL319:
 2816              		.loc 1 2011 0
 2817 0048 E188     		ldrh	r1, [r4, #6]
 2818 004a 2846     		mov	r0, r5
 2819 004c FFF7FEFF 		bl	TIM_SetIC1Prescaler
 2820              	.LVL320:
 2821              		.loc 1 2013 0
 2822 0050 2389     		ldrh	r3, [r4, #8]
 2823 0052 3A46     		mov	r2, r7
 2824 0054 3146     		mov	r1, r6
 2825 0056 2846     		mov	r0, r5
 2826 0058 FFF7FEFF 		bl	TI2_Config
 2827              	.LVL321:
 2828              		.loc 1 2015 0
 2829 005c E188     		ldrh	r1, [r4, #6]
 2830 005e 2846     		mov	r0, r5
 2831 0060 FFF7FEFF 		bl	TIM_SetIC2Prescaler
 2832              	.LVL322:
 2833 0064 ECE7     		b	.L139
 2834              		.cfi_endproc
 2835              	.LFE164:
 2836              		.size	TIM_PWMIConfig, .-TIM_PWMIConfig
 2837 0066 00BF     		.section	.text.TIM_SetIC3Prescaler,"ax",%progbits
 2838              		.align	1
 2839              		.p2align 4,,15
 2840              		.global	TIM_SetIC3Prescaler
 2841              		.syntax unified
 2842              		.thumb
 2843              		.thumb_func
 2844              		.fpu fpv4-sp-d16
 2845              		.type	TIM_SetIC3Prescaler, %function
 2846              	TIM_SetIC3Prescaler:
 2847              	.LFB171:
 2848              		.loc 1 2149 0
 2849              		.cfi_startproc
 2850              		@ args = 0, pretend = 0, frame = 0
ARM GAS  C:\Users\CHRIST~1\AppData\Local\Temp\cc3R47K7.s 			page 51


 2851              		@ frame_needed = 0, uses_anonymous_args = 0
 2852              		@ link register save eliminated.
 2853              	.LVL323:
 2854              		.loc 1 2155 0
 2855 0000 C369     		ldr	r3, [r0, #28]
 2856 0002 23F00C03 		bic	r3, r3, #12
 2857 0006 1B04     		lsls	r3, r3, #16
 2858 0008 1B0C     		lsrs	r3, r3, #16
 2859 000a C361     		str	r3, [r0, #28]
 2860              		.loc 1 2158 0
 2861 000c C369     		ldr	r3, [r0, #28]
 2862 000e 1943     		orrs	r1, r1, r3
 2863              	.LVL324:
 2864 0010 C161     		str	r1, [r0, #28]
 2865              		.loc 1 2159 0
 2866 0012 7047     		bx	lr
 2867              		.cfi_endproc
 2868              	.LFE171:
 2869              		.size	TIM_SetIC3Prescaler, .-TIM_SetIC3Prescaler
 2870              		.section	.text.TIM_SetIC4Prescaler,"ax",%progbits
 2871              		.align	1
 2872              		.p2align 4,,15
 2873              		.global	TIM_SetIC4Prescaler
 2874              		.syntax unified
 2875              		.thumb
 2876              		.thumb_func
 2877              		.fpu fpv4-sp-d16
 2878              		.type	TIM_SetIC4Prescaler, %function
 2879              	TIM_SetIC4Prescaler:
 2880              	.LFB172:
 2881              		.loc 1 2173 0
 2882              		.cfi_startproc
 2883              		@ args = 0, pretend = 0, frame = 0
 2884              		@ frame_needed = 0, uses_anonymous_args = 0
 2885              		@ link register save eliminated.
 2886              	.LVL325:
 2887              		.loc 1 2179 0
 2888 0000 C369     		ldr	r3, [r0, #28]
 2889 0002 23F44063 		bic	r3, r3, #3072
 2890 0006 1B04     		lsls	r3, r3, #16
 2891 0008 1B0C     		lsrs	r3, r3, #16
 2892 000a C361     		str	r3, [r0, #28]
 2893              		.loc 1 2182 0
 2894 000c C369     		ldr	r3, [r0, #28]
 2895 000e 0902     		lsls	r1, r1, #8
 2896              	.LVL326:
 2897 0010 89B2     		uxth	r1, r1
 2898 0012 1943     		orrs	r1, r1, r3
 2899 0014 C161     		str	r1, [r0, #28]
 2900              		.loc 1 2183 0
 2901 0016 7047     		bx	lr
 2902              		.cfi_endproc
 2903              	.LFE172:
 2904              		.size	TIM_SetIC4Prescaler, .-TIM_SetIC4Prescaler
 2905              		.section	.text.TIM_ICInit,"ax",%progbits
 2906              		.align	1
 2907              		.p2align 4,,15
ARM GAS  C:\Users\CHRIST~1\AppData\Local\Temp\cc3R47K7.s 			page 52


 2908              		.global	TIM_ICInit
 2909              		.syntax unified
 2910              		.thumb
 2911              		.thumb_func
 2912              		.fpu fpv4-sp-d16
 2913              		.type	TIM_ICInit, %function
 2914              	TIM_ICInit:
 2915              	.LFB162:
 2916              		.loc 1 1905 0
 2917              		.cfi_startproc
 2918              		@ args = 0, pretend = 0, frame = 0
 2919              		@ frame_needed = 0, uses_anonymous_args = 0
 2920              	.LVL327:
 2921 0000 F8B5     		push	{r3, r4, r5, r6, r7, lr}
 2922              		.cfi_def_cfa_offset 24
 2923              		.cfi_offset 3, -24
 2924              		.cfi_offset 4, -20
 2925              		.cfi_offset 5, -16
 2926              		.cfi_offset 6, -12
 2927              		.cfi_offset 7, -8
 2928              		.cfi_offset 14, -4
 2929 0002 0546     		mov	r5, r0
 2930 0004 0C46     		mov	r4, r1
 2931              		.loc 1 1913 0
 2932 0006 0B88     		ldrh	r3, [r1]
 2933 0008 3BB3     		cbz	r3, .L156
 2934              		.loc 1 1922 0
 2935 000a 042B     		cmp	r3, #4
 2936 000c 2FD0     		beq	.L157
 2937              		.loc 1 1932 0
 2938 000e 082B     		cmp	r3, #8
 2939 0010 37D0     		beq	.L158
 2940              		.loc 1 1946 0
 2941 0012 4E88     		ldrh	r6, [r1, #2]
 2942 0014 8F88     		ldrh	r7, [r1, #4]
 2943 0016 0889     		ldrh	r0, [r1, #8]
 2944              	.LVL328:
 2945              	.LBB6:
 2946              	.LBB7:
 2947              		.loc 1 3338 0
 2948 0018 296A     		ldr	r1, [r5, #32]
 2949              	.LVL329:
 2950 001a 21F48051 		bic	r1, r1, #4096
 2951 001e 0904     		lsls	r1, r1, #16
 2952 0020 090C     		lsrs	r1, r1, #16
 2953 0022 2962     		str	r1, [r5, #32]
 2954              		.loc 1 3339 0
 2955 0024 EA69     		ldr	r2, [r5, #28]
 2956              	.LVL330:
 2957              		.loc 1 3340 0
 2958 0026 2B6A     		ldr	r3, [r5, #32]
 2959              	.LVL331:
 2960              		.loc 1 3344 0
 2961 0028 22F44072 		bic	r2, r2, #768
 2962              	.LVL332:
 2963 002c 1205     		lsls	r2, r2, #20
 2964 002e 120D     		lsrs	r2, r2, #20
ARM GAS  C:\Users\CHRIST~1\AppData\Local\Temp\cc3R47K7.s 			page 53


 2965              	.LVL333:
 2966              		.loc 1 3345 0
 2967 0030 42EA0722 		orr	r2, r2, r7, lsl #8
 2968              	.LVL334:
 2969              		.loc 1 3349 0
 2970 0034 23F40053 		bic	r3, r3, #8192
 2971              	.LVL335:
 2972 0038 5B04     		lsls	r3, r3, #17
 2973 003a 5B0C     		lsrs	r3, r3, #17
 2974              		.loc 1 3350 0
 2975 003c 43EA0633 		orr	r3, r3, r6, lsl #12
 2976 0040 9BB2     		uxth	r3, r3
 2977              	.LVL336:
 2978              		.loc 1 3346 0
 2979 0042 42EA0032 		orr	r2, r2, r0, lsl #12
 2980              	.LVL337:
 2981              		.loc 1 3353 0
 2982 0046 92B2     		uxth	r2, r2
 2983 0048 EA61     		str	r2, [r5, #28]
 2984              		.loc 1 3354 0
 2985 004a 43F48053 		orr	r3, r3, #4096
 2986              	.LVL338:
 2987 004e 2B62     		str	r3, [r5, #32]
 2988              	.LVL339:
 2989              	.LBE7:
 2990              	.LBE6:
 2991              		.loc 1 1950 0
 2992 0050 E188     		ldrh	r1, [r4, #6]
 2993 0052 2846     		mov	r0, r5
 2994 0054 FFF7FEFF 		bl	TIM_SetIC4Prescaler
 2995              	.LVL340:
 2996              	.L150:
 2997              		.loc 1 1952 0
 2998 0058 F8BD     		pop	{r3, r4, r5, r6, r7, pc}
 2999              	.LVL341:
 3000              	.L156:
 3001              		.loc 1 1916 0
 3002 005a 0B89     		ldrh	r3, [r1, #8]
 3003 005c 8A88     		ldrh	r2, [r1, #4]
 3004 005e 4988     		ldrh	r1, [r1, #2]
 3005              	.LVL342:
 3006 0060 FFF7FEFF 		bl	TI1_Config
 3007              	.LVL343:
 3008              		.loc 1 1920 0
 3009 0064 E188     		ldrh	r1, [r4, #6]
 3010 0066 2846     		mov	r0, r5
 3011 0068 FFF7FEFF 		bl	TIM_SetIC1Prescaler
 3012              	.LVL344:
 3013 006c F4E7     		b	.L150
 3014              	.LVL345:
 3015              	.L157:
 3016              		.loc 1 1926 0
 3017 006e 0B89     		ldrh	r3, [r1, #8]
 3018 0070 8A88     		ldrh	r2, [r1, #4]
 3019 0072 4988     		ldrh	r1, [r1, #2]
 3020              	.LVL346:
 3021 0074 FFF7FEFF 		bl	TI2_Config
ARM GAS  C:\Users\CHRIST~1\AppData\Local\Temp\cc3R47K7.s 			page 54


 3022              	.LVL347:
 3023              		.loc 1 1930 0
 3024 0078 E188     		ldrh	r1, [r4, #6]
 3025 007a 2846     		mov	r0, r5
 3026 007c FFF7FEFF 		bl	TIM_SetIC2Prescaler
 3027              	.LVL348:
 3028 0080 EAE7     		b	.L150
 3029              	.LVL349:
 3030              	.L158:
 3031              		.loc 1 1936 0
 3032 0082 4E88     		ldrh	r6, [r1, #2]
 3033 0084 8988     		ldrh	r1, [r1, #4]
 3034              	.LVL350:
 3035 0086 2789     		ldrh	r7, [r4, #8]
 3036              	.LVL351:
 3037              	.LBB8:
 3038              	.LBB9:
 3039              		.loc 1 3297 0
 3040 0088 006A     		ldr	r0, [r0, #32]
 3041              	.LVL352:
 3042 008a 20F48070 		bic	r0, r0, #256
 3043 008e 0004     		lsls	r0, r0, #16
 3044 0090 000C     		lsrs	r0, r0, #16
 3045 0092 2862     		str	r0, [r5, #32]
 3046              		.loc 1 3298 0
 3047 0094 EA69     		ldr	r2, [r5, #28]
 3048 0096 92B2     		uxth	r2, r2
 3049              	.LVL353:
 3050              		.loc 1 3299 0
 3051 0098 2B6A     		ldr	r3, [r5, #32]
 3052 009a 9BB2     		uxth	r3, r3
 3053              	.LVL354:
 3054              		.loc 1 3303 0
 3055 009c 22F0F302 		bic	r2, r2, #243
 3056              	.LVL355:
 3057 00a0 42EA0712 		orr	r2, r2, r7, lsl #4
 3058 00a4 92B2     		uxth	r2, r2
 3059              	.LVL356:
 3060              		.loc 1 3307 0
 3061 00a6 23F42063 		bic	r3, r3, #2560
 3062              	.LVL357:
 3063              		.loc 1 3308 0
 3064 00aa 43EA0623 		orr	r3, r3, r6, lsl #8
 3065 00ae 9BB2     		uxth	r3, r3
 3066              	.LVL358:
 3067              		.loc 1 3311 0
 3068 00b0 0A43     		orrs	r2, r2, r1
 3069              	.LVL359:
 3070 00b2 EA61     		str	r2, [r5, #28]
 3071              		.loc 1 3312 0
 3072 00b4 43F48073 		orr	r3, r3, #256
 3073              	.LVL360:
 3074 00b8 2B62     		str	r3, [r5, #32]
 3075              	.LVL361:
 3076              	.LBE9:
 3077              	.LBE8:
 3078              		.loc 1 1940 0
ARM GAS  C:\Users\CHRIST~1\AppData\Local\Temp\cc3R47K7.s 			page 55


 3079 00ba E188     		ldrh	r1, [r4, #6]
 3080 00bc 2846     		mov	r0, r5
 3081 00be FFF7FEFF 		bl	TIM_SetIC3Prescaler
 3082              	.LVL362:
 3083 00c2 C9E7     		b	.L150
 3084              		.cfi_endproc
 3085              	.LFE162:
 3086              		.size	TIM_ICInit, .-TIM_ICInit
 3087              		.section	.text.TIM_BDTRConfig,"ax",%progbits
 3088              		.align	1
 3089              		.p2align 4,,15
 3090              		.global	TIM_BDTRConfig
 3091              		.syntax unified
 3092              		.thumb
 3093              		.thumb_func
 3094              		.fpu fpv4-sp-d16
 3095              		.type	TIM_BDTRConfig, %function
 3096              	TIM_BDTRConfig:
 3097              	.LFB173:
 3098              		.loc 1 2226 0
 3099              		.cfi_startproc
 3100              		@ args = 0, pretend = 0, frame = 0
 3101              		@ frame_needed = 0, uses_anonymous_args = 0
 3102              		@ link register save eliminated.
 3103              	.LVL363:
 3104              		.loc 1 2240 0
 3105 0000 0B88     		ldrh	r3, [r1]
 3106 0002 4A88     		ldrh	r2, [r1, #2]
 3107 0004 1343     		orrs	r3, r3, r2
 3108 0006 8A88     		ldrh	r2, [r1, #4]
 3109 0008 1343     		orrs	r3, r3, r2
 3110 000a CA88     		ldrh	r2, [r1, #6]
 3111 000c 1343     		orrs	r3, r3, r2
 3112 000e 0A89     		ldrh	r2, [r1, #8]
 3113 0010 1343     		orrs	r3, r3, r2
 3114 0012 4A89     		ldrh	r2, [r1, #10]
 3115 0014 1343     		orrs	r3, r3, r2
 3116 0016 8A89     		ldrh	r2, [r1, #12]
 3117 0018 1343     		orrs	r3, r3, r2
 3118              		.loc 1 2238 0
 3119 001a 4364     		str	r3, [r0, #68]
 3120              		.loc 1 2242 0
 3121 001c 7047     		bx	lr
 3122              		.cfi_endproc
 3123              	.LFE173:
 3124              		.size	TIM_BDTRConfig, .-TIM_BDTRConfig
 3125 001e 00BF     		.section	.text.TIM_BDTRStructInit,"ax",%progbits
 3126              		.align	1
 3127              		.p2align 4,,15
 3128              		.global	TIM_BDTRStructInit
 3129              		.syntax unified
 3130              		.thumb
 3131              		.thumb_func
 3132              		.fpu fpv4-sp-d16
 3133              		.type	TIM_BDTRStructInit, %function
 3134              	TIM_BDTRStructInit:
 3135              	.LFB174:
ARM GAS  C:\Users\CHRIST~1\AppData\Local\Temp\cc3R47K7.s 			page 56


 3136              		.loc 1 2251 0
 3137              		.cfi_startproc
 3138              		@ args = 0, pretend = 0, frame = 0
 3139              		@ frame_needed = 0, uses_anonymous_args = 0
 3140              		@ link register save eliminated.
 3141              	.LVL364:
 3142              		.loc 1 2253 0
 3143 0000 0023     		movs	r3, #0
 3144 0002 0380     		strh	r3, [r0]	@ movhi
 3145              		.loc 1 2254 0
 3146 0004 4380     		strh	r3, [r0, #2]	@ movhi
 3147              		.loc 1 2255 0
 3148 0006 8380     		strh	r3, [r0, #4]	@ movhi
 3149              		.loc 1 2256 0
 3150 0008 C380     		strh	r3, [r0, #6]	@ movhi
 3151              		.loc 1 2257 0
 3152 000a 0381     		strh	r3, [r0, #8]	@ movhi
 3153              		.loc 1 2258 0
 3154 000c 4381     		strh	r3, [r0, #10]	@ movhi
 3155              		.loc 1 2259 0
 3156 000e 8381     		strh	r3, [r0, #12]	@ movhi
 3157              		.loc 1 2260 0
 3158 0010 7047     		bx	lr
 3159              		.cfi_endproc
 3160              	.LFE174:
 3161              		.size	TIM_BDTRStructInit, .-TIM_BDTRStructInit
 3162 0012 00BF     		.section	.text.TIM_CtrlPWMOutputs,"ax",%progbits
 3163              		.align	1
 3164              		.p2align 4,,15
 3165              		.global	TIM_CtrlPWMOutputs
 3166              		.syntax unified
 3167              		.thumb
 3168              		.thumb_func
 3169              		.fpu fpv4-sp-d16
 3170              		.type	TIM_CtrlPWMOutputs, %function
 3171              	TIM_CtrlPWMOutputs:
 3172              	.LFB175:
 3173              		.loc 1 2270 0
 3174              		.cfi_startproc
 3175              		@ args = 0, pretend = 0, frame = 0
 3176              		@ frame_needed = 0, uses_anonymous_args = 0
 3177              		@ link register save eliminated.
 3178              	.LVL365:
 3179              		.loc 1 2275 0
 3180 0000 21B9     		cbnz	r1, .L164
 3181              		.loc 1 2283 0
 3182 0002 436C     		ldr	r3, [r0, #68]
 3183 0004 C3F30E03 		ubfx	r3, r3, #0, #15
 3184 0008 4364     		str	r3, [r0, #68]
 3185              		.loc 1 2285 0
 3186 000a 7047     		bx	lr
 3187              	.L164:
 3188              		.loc 1 2278 0
 3189 000c 436C     		ldr	r3, [r0, #68]
 3190 000e 43F40043 		orr	r3, r3, #32768
 3191 0012 4364     		str	r3, [r0, #68]
 3192 0014 7047     		bx	lr
ARM GAS  C:\Users\CHRIST~1\AppData\Local\Temp\cc3R47K7.s 			page 57


 3193              		.cfi_endproc
 3194              	.LFE175:
 3195              		.size	TIM_CtrlPWMOutputs, .-TIM_CtrlPWMOutputs
 3196 0016 00BF     		.section	.text.TIM_SelectCOM,"ax",%progbits
 3197              		.align	1
 3198              		.p2align 4,,15
 3199              		.global	TIM_SelectCOM
 3200              		.syntax unified
 3201              		.thumb
 3202              		.thumb_func
 3203              		.fpu fpv4-sp-d16
 3204              		.type	TIM_SelectCOM, %function
 3205              	TIM_SelectCOM:
 3206              	.LFB176:
 3207              		.loc 1 2295 0
 3208              		.cfi_startproc
 3209              		@ args = 0, pretend = 0, frame = 0
 3210              		@ frame_needed = 0, uses_anonymous_args = 0
 3211              		@ link register save eliminated.
 3212              	.LVL366:
 3213              		.loc 1 2300 0
 3214 0000 31B9     		cbnz	r1, .L168
 3215              		.loc 1 2308 0
 3216 0002 4368     		ldr	r3, [r0, #4]
 3217 0004 23F00403 		bic	r3, r3, #4
 3218 0008 1B04     		lsls	r3, r3, #16
 3219 000a 1B0C     		lsrs	r3, r3, #16
 3220 000c 4360     		str	r3, [r0, #4]
 3221              		.loc 1 2310 0
 3222 000e 7047     		bx	lr
 3223              	.L168:
 3224              		.loc 1 2303 0
 3225 0010 4368     		ldr	r3, [r0, #4]
 3226 0012 43F00403 		orr	r3, r3, #4
 3227 0016 4360     		str	r3, [r0, #4]
 3228 0018 7047     		bx	lr
 3229              		.cfi_endproc
 3230              	.LFE176:
 3231              		.size	TIM_SelectCOM, .-TIM_SelectCOM
 3232 001a 00BF     		.section	.text.TIM_CCPreloadControl,"ax",%progbits
 3233              		.align	1
 3234              		.p2align 4,,15
 3235              		.global	TIM_CCPreloadControl
 3236              		.syntax unified
 3237              		.thumb
 3238              		.thumb_func
 3239              		.fpu fpv4-sp-d16
 3240              		.type	TIM_CCPreloadControl, %function
 3241              	TIM_CCPreloadControl:
 3242              	.LFB177:
 3243              		.loc 1 2320 0
 3244              		.cfi_startproc
 3245              		@ args = 0, pretend = 0, frame = 0
 3246              		@ frame_needed = 0, uses_anonymous_args = 0
 3247              		@ link register save eliminated.
 3248              	.LVL367:
 3249              		.loc 1 2324 0
ARM GAS  C:\Users\CHRIST~1\AppData\Local\Temp\cc3R47K7.s 			page 58


 3250 0000 31B9     		cbnz	r1, .L172
 3251              		.loc 1 2332 0
 3252 0002 4368     		ldr	r3, [r0, #4]
 3253 0004 23F00103 		bic	r3, r3, #1
 3254 0008 1B04     		lsls	r3, r3, #16
 3255 000a 1B0C     		lsrs	r3, r3, #16
 3256 000c 4360     		str	r3, [r0, #4]
 3257              		.loc 1 2334 0
 3258 000e 7047     		bx	lr
 3259              	.L172:
 3260              		.loc 1 2327 0
 3261 0010 4368     		ldr	r3, [r0, #4]
 3262 0012 43F00103 		orr	r3, r3, #1
 3263 0016 4360     		str	r3, [r0, #4]
 3264 0018 7047     		bx	lr
 3265              		.cfi_endproc
 3266              	.LFE177:
 3267              		.size	TIM_CCPreloadControl, .-TIM_CCPreloadControl
 3268 001a 00BF     		.section	.text.TIM_ITConfig,"ax",%progbits
 3269              		.align	1
 3270              		.p2align 4,,15
 3271              		.global	TIM_ITConfig
 3272              		.syntax unified
 3273              		.thumb
 3274              		.thumb_func
 3275              		.fpu fpv4-sp-d16
 3276              		.type	TIM_ITConfig, %function
 3277              	TIM_ITConfig:
 3278              	.LFB178:
 3279              		.loc 1 2377 0
 3280              		.cfi_startproc
 3281              		@ args = 0, pretend = 0, frame = 0
 3282              		@ frame_needed = 0, uses_anonymous_args = 0
 3283              		@ link register save eliminated.
 3284              	.LVL368:
 3285              		.loc 1 2383 0
 3286 0000 2AB9     		cbnz	r2, .L176
 3287              		.loc 1 2391 0
 3288 0002 C368     		ldr	r3, [r0, #12]
 3289 0004 C943     		mvns	r1, r1
 3290              	.LVL369:
 3291 0006 89B2     		uxth	r1, r1
 3292 0008 1940     		ands	r1, r1, r3
 3293 000a C160     		str	r1, [r0, #12]
 3294              		.loc 1 2393 0
 3295 000c 7047     		bx	lr
 3296              	.LVL370:
 3297              	.L176:
 3298              		.loc 1 2386 0
 3299 000e C368     		ldr	r3, [r0, #12]
 3300 0010 1943     		orrs	r1, r1, r3
 3301              	.LVL371:
 3302 0012 C160     		str	r1, [r0, #12]
 3303 0014 7047     		bx	lr
 3304              		.cfi_endproc
 3305              	.LFE178:
 3306              		.size	TIM_ITConfig, .-TIM_ITConfig
ARM GAS  C:\Users\CHRIST~1\AppData\Local\Temp\cc3R47K7.s 			page 59


 3307 0016 00BF     		.section	.text.TIM_GenerateEvent,"ax",%progbits
 3308              		.align	1
 3309              		.p2align 4,,15
 3310              		.global	TIM_GenerateEvent
 3311              		.syntax unified
 3312              		.thumb
 3313              		.thumb_func
 3314              		.fpu fpv4-sp-d16
 3315              		.type	TIM_GenerateEvent, %function
 3316              	TIM_GenerateEvent:
 3317              	.LFB179:
 3318              		.loc 1 2415 0
 3319              		.cfi_startproc
 3320              		@ args = 0, pretend = 0, frame = 0
 3321              		@ frame_needed = 0, uses_anonymous_args = 0
 3322              		@ link register save eliminated.
 3323              	.LVL372:
 3324              		.loc 1 2421 0
 3325 0000 4161     		str	r1, [r0, #20]
 3326              		.loc 1 2422 0
 3327 0002 7047     		bx	lr
 3328              		.cfi_endproc
 3329              	.LFE179:
 3330              		.size	TIM_GenerateEvent, .-TIM_GenerateEvent
 3331              		.section	.text.TIM_GetFlagStatus,"ax",%progbits
 3332              		.align	1
 3333              		.p2align 4,,15
 3334              		.global	TIM_GetFlagStatus
 3335              		.syntax unified
 3336              		.thumb
 3337              		.thumb_func
 3338              		.fpu fpv4-sp-d16
 3339              		.type	TIM_GetFlagStatus, %function
 3340              	TIM_GetFlagStatus:
 3341              	.LFB180:
 3342              		.loc 1 2448 0
 3343              		.cfi_startproc
 3344              		@ args = 0, pretend = 0, frame = 0
 3345              		@ frame_needed = 0, uses_anonymous_args = 0
 3346              		@ link register save eliminated.
 3347              	.LVL373:
 3348              		.loc 1 2455 0
 3349 0000 0369     		ldr	r3, [r0, #16]
 3350              	.LVL374:
 3351 0002 1942     		tst	r1, r3
 3352              		.loc 1 2464 0
 3353 0004 14BF     		ite	ne
 3354 0006 0120     		movne	r0, #1
 3355              	.LVL375:
 3356 0008 0020     		moveq	r0, #0
 3357 000a 7047     		bx	lr
 3358              		.cfi_endproc
 3359              	.LFE180:
 3360              		.size	TIM_GetFlagStatus, .-TIM_GetFlagStatus
 3361              		.section	.text.TIM_ClearFlag,"ax",%progbits
 3362              		.align	1
 3363              		.p2align 4,,15
ARM GAS  C:\Users\CHRIST~1\AppData\Local\Temp\cc3R47K7.s 			page 60


 3364              		.global	TIM_ClearFlag
 3365              		.syntax unified
 3366              		.thumb
 3367              		.thumb_func
 3368              		.fpu fpv4-sp-d16
 3369              		.type	TIM_ClearFlag, %function
 3370              	TIM_ClearFlag:
 3371              	.LFB181:
 3372              		.loc 1 2490 0
 3373              		.cfi_startproc
 3374              		@ args = 0, pretend = 0, frame = 0
 3375              		@ frame_needed = 0, uses_anonymous_args = 0
 3376              		@ link register save eliminated.
 3377              	.LVL376:
 3378              		.loc 1 2495 0
 3379 0000 C943     		mvns	r1, r1
 3380              	.LVL377:
 3381 0002 89B2     		uxth	r1, r1
 3382 0004 0161     		str	r1, [r0, #16]
 3383              		.loc 1 2496 0
 3384 0006 7047     		bx	lr
 3385              		.cfi_endproc
 3386              	.LFE181:
 3387              		.size	TIM_ClearFlag, .-TIM_ClearFlag
 3388              		.section	.text.TIM_GetITStatus,"ax",%progbits
 3389              		.align	1
 3390              		.p2align 4,,15
 3391              		.global	TIM_GetITStatus
 3392              		.syntax unified
 3393              		.thumb
 3394              		.thumb_func
 3395              		.fpu fpv4-sp-d16
 3396              		.type	TIM_GetITStatus, %function
 3397              	TIM_GetITStatus:
 3398              	.LFB182:
 3399              		.loc 1 2518 0
 3400              		.cfi_startproc
 3401              		@ args = 0, pretend = 0, frame = 0
 3402              		@ frame_needed = 0, uses_anonymous_args = 0
 3403              		@ link register save eliminated.
 3404              	.LVL378:
 3405              		.loc 1 2525 0
 3406 0000 0369     		ldr	r3, [r0, #16]
 3407              	.LVL379:
 3408              		.loc 1 2527 0
 3409 0002 C268     		ldr	r2, [r0, #12]
 3410              	.LVL380:
 3411              		.loc 1 2528 0
 3412 0004 1942     		tst	r1, r3
 3413 0006 04D0     		beq	.L182
 3414              		.loc 1 2528 0 is_stmt 0 discriminator 1
 3415 0008 1142     		tst	r1, r2
 3416              		.loc 1 2530 0 is_stmt 1 discriminator 1
 3417 000a 14BF     		ite	ne
 3418 000c 0120     		movne	r0, #1
 3419              	.LVL381:
 3420 000e 0020     		moveq	r0, #0
ARM GAS  C:\Users\CHRIST~1\AppData\Local\Temp\cc3R47K7.s 			page 61


 3421 0010 7047     		bx	lr
 3422              	.LVL382:
 3423              	.L182:
 3424              		.loc 1 2534 0
 3425 0012 0020     		movs	r0, #0
 3426              	.LVL383:
 3427              		.loc 1 2537 0
 3428 0014 7047     		bx	lr
 3429              		.cfi_endproc
 3430              	.LFE182:
 3431              		.size	TIM_GetITStatus, .-TIM_GetITStatus
 3432 0016 00BF     		.section	.text.TIM_ClearITPendingBit,"ax",%progbits
 3433              		.align	1
 3434              		.p2align 4,,15
 3435              		.global	TIM_ClearITPendingBit
 3436              		.syntax unified
 3437              		.thumb
 3438              		.thumb_func
 3439              		.fpu fpv4-sp-d16
 3440              		.type	TIM_ClearITPendingBit, %function
 3441              	TIM_ClearITPendingBit:
 3442              	.LFB183:
 3443              		.loc 1 2559 0
 3444              		.cfi_startproc
 3445              		@ args = 0, pretend = 0, frame = 0
 3446              		@ frame_needed = 0, uses_anonymous_args = 0
 3447              		@ link register save eliminated.
 3448              	.LVL384:
 3449              		.loc 1 2564 0
 3450 0000 C943     		mvns	r1, r1
 3451              	.LVL385:
 3452 0002 89B2     		uxth	r1, r1
 3453 0004 0161     		str	r1, [r0, #16]
 3454              		.loc 1 2565 0
 3455 0006 7047     		bx	lr
 3456              		.cfi_endproc
 3457              	.LFE183:
 3458              		.size	TIM_ClearITPendingBit, .-TIM_ClearITPendingBit
 3459              		.section	.text.TIM_DMAConfig,"ax",%progbits
 3460              		.align	1
 3461              		.p2align 4,,15
 3462              		.global	TIM_DMAConfig
 3463              		.syntax unified
 3464              		.thumb
 3465              		.thumb_func
 3466              		.fpu fpv4-sp-d16
 3467              		.type	TIM_DMAConfig, %function
 3468              	TIM_DMAConfig:
 3469              	.LFB184:
 3470              		.loc 1 2596 0
 3471              		.cfi_startproc
 3472              		@ args = 0, pretend = 0, frame = 0
 3473              		@ frame_needed = 0, uses_anonymous_args = 0
 3474              		@ link register save eliminated.
 3475              	.LVL386:
 3476              		.loc 1 2603 0
 3477 0000 0A43     		orrs	r2, r2, r1
ARM GAS  C:\Users\CHRIST~1\AppData\Local\Temp\cc3R47K7.s 			page 62


 3478              	.LVL387:
 3479 0002 8264     		str	r2, [r0, #72]
 3480              		.loc 1 2604 0
 3481 0004 7047     		bx	lr
 3482              		.cfi_endproc
 3483              	.LFE184:
 3484              		.size	TIM_DMAConfig, .-TIM_DMAConfig
 3485 0006 00BF     		.section	.text.TIM_DMACmd,"ax",%progbits
 3486              		.align	1
 3487              		.p2align 4,,15
 3488              		.global	TIM_DMACmd
 3489              		.syntax unified
 3490              		.thumb
 3491              		.thumb_func
 3492              		.fpu fpv4-sp-d16
 3493              		.type	TIM_DMACmd, %function
 3494              	TIM_DMACmd:
 3495              	.LFB185:
 3496              		.loc 1 2623 0
 3497              		.cfi_startproc
 3498              		@ args = 0, pretend = 0, frame = 0
 3499              		@ frame_needed = 0, uses_anonymous_args = 0
 3500              		@ link register save eliminated.
 3501              	.LVL388:
 3502              		.loc 1 2629 0
 3503 0000 2AB9     		cbnz	r2, .L188
 3504              		.loc 1 2637 0
 3505 0002 C368     		ldr	r3, [r0, #12]
 3506 0004 C943     		mvns	r1, r1
 3507              	.LVL389:
 3508 0006 89B2     		uxth	r1, r1
 3509 0008 1940     		ands	r1, r1, r3
 3510 000a C160     		str	r1, [r0, #12]
 3511              		.loc 1 2639 0
 3512 000c 7047     		bx	lr
 3513              	.LVL390:
 3514              	.L188:
 3515              		.loc 1 2632 0
 3516 000e C368     		ldr	r3, [r0, #12]
 3517 0010 1943     		orrs	r1, r1, r3
 3518              	.LVL391:
 3519 0012 C160     		str	r1, [r0, #12]
 3520 0014 7047     		bx	lr
 3521              		.cfi_endproc
 3522              	.LFE185:
 3523              		.size	TIM_DMACmd, .-TIM_DMACmd
 3524 0016 00BF     		.section	.text.TIM_SelectCCDMA,"ax",%progbits
 3525              		.align	1
 3526              		.p2align 4,,15
 3527              		.global	TIM_SelectCCDMA
 3528              		.syntax unified
 3529              		.thumb
 3530              		.thumb_func
 3531              		.fpu fpv4-sp-d16
 3532              		.type	TIM_SelectCCDMA, %function
 3533              	TIM_SelectCCDMA:
 3534              	.LFB186:
ARM GAS  C:\Users\CHRIST~1\AppData\Local\Temp\cc3R47K7.s 			page 63


 3535              		.loc 1 2649 0
 3536              		.cfi_startproc
 3537              		@ args = 0, pretend = 0, frame = 0
 3538              		@ frame_needed = 0, uses_anonymous_args = 0
 3539              		@ link register save eliminated.
 3540              	.LVL392:
 3541              		.loc 1 2654 0
 3542 0000 31B9     		cbnz	r1, .L192
 3543              		.loc 1 2662 0
 3544 0002 4368     		ldr	r3, [r0, #4]
 3545 0004 23F00803 		bic	r3, r3, #8
 3546 0008 1B04     		lsls	r3, r3, #16
 3547 000a 1B0C     		lsrs	r3, r3, #16
 3548 000c 4360     		str	r3, [r0, #4]
 3549              		.loc 1 2664 0
 3550 000e 7047     		bx	lr
 3551              	.L192:
 3552              		.loc 1 2657 0
 3553 0010 4368     		ldr	r3, [r0, #4]
 3554 0012 43F00803 		orr	r3, r3, #8
 3555 0016 4360     		str	r3, [r0, #4]
 3556 0018 7047     		bx	lr
 3557              		.cfi_endproc
 3558              	.LFE186:
 3559              		.size	TIM_SelectCCDMA, .-TIM_SelectCCDMA
 3560 001a 00BF     		.section	.text.TIM_InternalClockConfig,"ax",%progbits
 3561              		.align	1
 3562              		.p2align 4,,15
 3563              		.global	TIM_InternalClockConfig
 3564              		.syntax unified
 3565              		.thumb
 3566              		.thumb_func
 3567              		.fpu fpv4-sp-d16
 3568              		.type	TIM_InternalClockConfig, %function
 3569              	TIM_InternalClockConfig:
 3570              	.LFB187:
 3571              		.loc 1 2688 0
 3572              		.cfi_startproc
 3573              		@ args = 0, pretend = 0, frame = 0
 3574              		@ frame_needed = 0, uses_anonymous_args = 0
 3575              		@ link register save eliminated.
 3576              	.LVL393:
 3577              		.loc 1 2693 0
 3578 0000 8368     		ldr	r3, [r0, #8]
 3579 0002 23F00703 		bic	r3, r3, #7
 3580 0006 1B04     		lsls	r3, r3, #16
 3581 0008 1B0C     		lsrs	r3, r3, #16
 3582 000a 8360     		str	r3, [r0, #8]
 3583              		.loc 1 2694 0
 3584 000c 7047     		bx	lr
 3585              		.cfi_endproc
 3586              	.LFE187:
 3587              		.size	TIM_InternalClockConfig, .-TIM_InternalClockConfig
 3588 000e 00BF     		.section	.text.TIM_ITRxExternalClockConfig,"ax",%progbits
 3589              		.align	1
 3590              		.p2align 4,,15
 3591              		.global	TIM_ITRxExternalClockConfig
ARM GAS  C:\Users\CHRIST~1\AppData\Local\Temp\cc3R47K7.s 			page 64


 3592              		.syntax unified
 3593              		.thumb
 3594              		.thumb_func
 3595              		.fpu fpv4-sp-d16
 3596              		.type	TIM_ITRxExternalClockConfig, %function
 3597              	TIM_ITRxExternalClockConfig:
 3598              	.LFB188:
 3599              		.loc 1 2709 0
 3600              		.cfi_startproc
 3601              		@ args = 0, pretend = 0, frame = 0
 3602              		@ frame_needed = 0, uses_anonymous_args = 0
 3603              		@ link register save eliminated.
 3604              	.LVL394:
 3605              	.LBB12:
 3606              	.LBB13:
 3607              		.loc 1 2905 0
 3608 0000 8268     		ldr	r2, [r0, #8]
 3609              	.LVL395:
 3610              		.loc 1 2908 0
 3611 0002 4FF68F73 		movw	r3, #65423
 3612 0006 1340     		ands	r3, r3, r2
 3613              	.LVL396:
 3614              		.loc 1 2914 0
 3615 0008 1943     		orrs	r1, r1, r3
 3616              	.LVL397:
 3617 000a 8160     		str	r1, [r0, #8]
 3618              	.LVL398:
 3619              	.LBE13:
 3620              	.LBE12:
 3621              		.loc 1 2718 0
 3622 000c 8368     		ldr	r3, [r0, #8]
 3623 000e 43F00703 		orr	r3, r3, #7
 3624 0012 8360     		str	r3, [r0, #8]
 3625              		.loc 1 2719 0
 3626 0014 7047     		bx	lr
 3627              		.cfi_endproc
 3628              	.LFE188:
 3629              		.size	TIM_ITRxExternalClockConfig, .-TIM_ITRxExternalClockConfig
 3630 0016 00BF     		.section	.text.TIM_TIxExternalClockConfig,"ax",%progbits
 3631              		.align	1
 3632              		.p2align 4,,15
 3633              		.global	TIM_TIxExternalClockConfig
 3634              		.syntax unified
 3635              		.thumb
 3636              		.thumb_func
 3637              		.fpu fpv4-sp-d16
 3638              		.type	TIM_TIxExternalClockConfig, %function
 3639              	TIM_TIxExternalClockConfig:
 3640              	.LFB189:
 3641              		.loc 1 2740 0
 3642              		.cfi_startproc
 3643              		@ args = 0, pretend = 0, frame = 0
 3644              		@ frame_needed = 0, uses_anonymous_args = 0
 3645              	.LVL399:
 3646 0000 38B5     		push	{r3, r4, r5, lr}
 3647              		.cfi_def_cfa_offset 16
 3648              		.cfi_offset 3, -16
ARM GAS  C:\Users\CHRIST~1\AppData\Local\Temp\cc3R47K7.s 			page 65


 3649              		.cfi_offset 4, -12
 3650              		.cfi_offset 5, -8
 3651              		.cfi_offset 14, -4
 3652 0002 0446     		mov	r4, r0
 3653 0004 0D46     		mov	r5, r1
 3654 0006 1146     		mov	r1, r2
 3655              	.LVL400:
 3656              		.loc 1 2747 0
 3657 0008 602D     		cmp	r5, #96
 3658 000a 0DD0     		beq	.L199
 3659              		.loc 1 2753 0
 3660 000c 0122     		movs	r2, #1
 3661              	.LVL401:
 3662 000e FFF7FEFF 		bl	TI1_Config
 3663              	.LVL402:
 3664              	.L197:
 3665              	.LBB16:
 3666              	.LBB17:
 3667              		.loc 1 2905 0
 3668 0012 A268     		ldr	r2, [r4, #8]
 3669              	.LVL403:
 3670              		.loc 1 2908 0
 3671 0014 4FF68F73 		movw	r3, #65423
 3672 0018 1340     		ands	r3, r3, r2
 3673              	.LVL404:
 3674              		.loc 1 2914 0
 3675 001a 1D43     		orrs	r5, r5, r3
 3676              	.LVL405:
 3677 001c A560     		str	r5, [r4, #8]
 3678              	.LVL406:
 3679              	.LBE17:
 3680              	.LBE16:
 3681              		.loc 1 2758 0
 3682 001e A368     		ldr	r3, [r4, #8]
 3683 0020 43F00703 		orr	r3, r3, #7
 3684 0024 A360     		str	r3, [r4, #8]
 3685              		.loc 1 2759 0
 3686 0026 38BD     		pop	{r3, r4, r5, pc}
 3687              	.LVL407:
 3688              	.L199:
 3689              		.loc 1 2749 0
 3690 0028 0122     		movs	r2, #1
 3691              	.LVL408:
 3692 002a FFF7FEFF 		bl	TI2_Config
 3693              	.LVL409:
 3694 002e F0E7     		b	.L197
 3695              		.cfi_endproc
 3696              	.LFE189:
 3697              		.size	TIM_TIxExternalClockConfig, .-TIM_TIxExternalClockConfig
 3698              		.section	.text.TIM_SelectInputTrigger,"ax",%progbits
 3699              		.align	1
 3700              		.p2align 4,,15
 3701              		.global	TIM_SelectInputTrigger
 3702              		.syntax unified
 3703              		.thumb
 3704              		.thumb_func
 3705              		.fpu fpv4-sp-d16
ARM GAS  C:\Users\CHRIST~1\AppData\Local\Temp\cc3R47K7.s 			page 66


 3706              		.type	TIM_SelectInputTrigger, %function
 3707              	TIM_SelectInputTrigger:
 3708              	.LFB192:
 3709              		.loc 1 2897 0
 3710              		.cfi_startproc
 3711              		@ args = 0, pretend = 0, frame = 0
 3712              		@ frame_needed = 0, uses_anonymous_args = 0
 3713              		@ link register save eliminated.
 3714              	.LVL410:
 3715              		.loc 1 2905 0
 3716 0000 8268     		ldr	r2, [r0, #8]
 3717              	.LVL411:
 3718              		.loc 1 2908 0
 3719 0002 4FF68F73 		movw	r3, #65423
 3720 0006 1340     		ands	r3, r3, r2
 3721              	.LVL412:
 3722              		.loc 1 2914 0
 3723 0008 1943     		orrs	r1, r1, r3
 3724              	.LVL413:
 3725 000a 8160     		str	r1, [r0, #8]
 3726              		.loc 1 2915 0
 3727 000c 7047     		bx	lr
 3728              		.cfi_endproc
 3729              	.LFE192:
 3730              		.size	TIM_SelectInputTrigger, .-TIM_SelectInputTrigger
 3731 000e 00BF     		.section	.text.TIM_SelectOutputTrigger,"ax",%progbits
 3732              		.align	1
 3733              		.p2align 4,,15
 3734              		.global	TIM_SelectOutputTrigger
 3735              		.syntax unified
 3736              		.thumb
 3737              		.thumb_func
 3738              		.fpu fpv4-sp-d16
 3739              		.type	TIM_SelectOutputTrigger, %function
 3740              	TIM_SelectOutputTrigger:
 3741              	.LFB193:
 3742              		.loc 1 2940 0
 3743              		.cfi_startproc
 3744              		@ args = 0, pretend = 0, frame = 0
 3745              		@ frame_needed = 0, uses_anonymous_args = 0
 3746              		@ link register save eliminated.
 3747              	.LVL414:
 3748              		.loc 1 2946 0
 3749 0000 4368     		ldr	r3, [r0, #4]
 3750 0002 23F07003 		bic	r3, r3, #112
 3751 0006 1B04     		lsls	r3, r3, #16
 3752 0008 1B0C     		lsrs	r3, r3, #16
 3753 000a 4360     		str	r3, [r0, #4]
 3754              		.loc 1 2948 0
 3755 000c 4368     		ldr	r3, [r0, #4]
 3756 000e 1943     		orrs	r1, r1, r3
 3757              	.LVL415:
 3758 0010 4160     		str	r1, [r0, #4]
 3759              		.loc 1 2949 0
 3760 0012 7047     		bx	lr
 3761              		.cfi_endproc
 3762              	.LFE193:
ARM GAS  C:\Users\CHRIST~1\AppData\Local\Temp\cc3R47K7.s 			page 67


 3763              		.size	TIM_SelectOutputTrigger, .-TIM_SelectOutputTrigger
 3764              		.section	.text.TIM_SelectSlaveMode,"ax",%progbits
 3765              		.align	1
 3766              		.p2align 4,,15
 3767              		.global	TIM_SelectSlaveMode
 3768              		.syntax unified
 3769              		.thumb
 3770              		.thumb_func
 3771              		.fpu fpv4-sp-d16
 3772              		.type	TIM_SelectSlaveMode, %function
 3773              	TIM_SelectSlaveMode:
 3774              	.LFB194:
 3775              		.loc 1 2964 0
 3776              		.cfi_startproc
 3777              		@ args = 0, pretend = 0, frame = 0
 3778              		@ frame_needed = 0, uses_anonymous_args = 0
 3779              		@ link register save eliminated.
 3780              	.LVL416:
 3781              		.loc 1 2970 0
 3782 0000 8368     		ldr	r3, [r0, #8]
 3783 0002 23F00703 		bic	r3, r3, #7
 3784 0006 1B04     		lsls	r3, r3, #16
 3785 0008 1B0C     		lsrs	r3, r3, #16
 3786 000a 8360     		str	r3, [r0, #8]
 3787              		.loc 1 2973 0
 3788 000c 8368     		ldr	r3, [r0, #8]
 3789 000e 1943     		orrs	r1, r1, r3
 3790              	.LVL417:
 3791 0010 8160     		str	r1, [r0, #8]
 3792              		.loc 1 2974 0
 3793 0012 7047     		bx	lr
 3794              		.cfi_endproc
 3795              	.LFE194:
 3796              		.size	TIM_SelectSlaveMode, .-TIM_SelectSlaveMode
 3797              		.section	.text.TIM_SelectMasterSlaveMode,"ax",%progbits
 3798              		.align	1
 3799              		.p2align 4,,15
 3800              		.global	TIM_SelectMasterSlaveMode
 3801              		.syntax unified
 3802              		.thumb
 3803              		.thumb_func
 3804              		.fpu fpv4-sp-d16
 3805              		.type	TIM_SelectMasterSlaveMode, %function
 3806              	TIM_SelectMasterSlaveMode:
 3807              	.LFB195:
 3808              		.loc 1 2987 0
 3809              		.cfi_startproc
 3810              		@ args = 0, pretend = 0, frame = 0
 3811              		@ frame_needed = 0, uses_anonymous_args = 0
 3812              		@ link register save eliminated.
 3813              	.LVL418:
 3814              		.loc 1 2993 0
 3815 0000 8368     		ldr	r3, [r0, #8]
 3816 0002 23F08003 		bic	r3, r3, #128
 3817 0006 1B04     		lsls	r3, r3, #16
 3818 0008 1B0C     		lsrs	r3, r3, #16
 3819 000a 8360     		str	r3, [r0, #8]
ARM GAS  C:\Users\CHRIST~1\AppData\Local\Temp\cc3R47K7.s 			page 68


 3820              		.loc 1 2996 0
 3821 000c 8368     		ldr	r3, [r0, #8]
 3822 000e 1943     		orrs	r1, r1, r3
 3823              	.LVL419:
 3824 0010 8160     		str	r1, [r0, #8]
 3825              		.loc 1 2997 0
 3826 0012 7047     		bx	lr
 3827              		.cfi_endproc
 3828              	.LFE195:
 3829              		.size	TIM_SelectMasterSlaveMode, .-TIM_SelectMasterSlaveMode
 3830              		.section	.text.TIM_ETRConfig,"ax",%progbits
 3831              		.align	1
 3832              		.p2align 4,,15
 3833              		.global	TIM_ETRConfig
 3834              		.syntax unified
 3835              		.thumb
 3836              		.thumb_func
 3837              		.fpu fpv4-sp-d16
 3838              		.type	TIM_ETRConfig, %function
 3839              	TIM_ETRConfig:
 3840              	.LFB196:
 3841              		.loc 1 3018 0
 3842              		.cfi_startproc
 3843              		@ args = 0, pretend = 0, frame = 0
 3844              		@ frame_needed = 0, uses_anonymous_args = 0
 3845              		@ link register save eliminated.
 3846              	.LVL420:
 3847 0000 10B4     		push	{r4}
 3848              		.cfi_def_cfa_offset 4
 3849              		.cfi_offset 4, -4
 3850              	.LVL421:
 3851              		.loc 1 3027 0
 3852 0002 8468     		ldr	r4, [r0, #8]
 3853              	.LVL422:
 3854              		.loc 1 3030 0
 3855 0004 E4B2     		uxtb	r4, r4
 3856              	.LVL423:
 3857              		.loc 1 3033 0
 3858 0006 0A43     		orrs	r2, r2, r1
 3859              	.LVL424:
 3860 0008 42EA0323 		orr	r3, r2, r3, lsl #8
 3861              	.LVL425:
 3862 000c 1C43     		orrs	r4, r4, r3
 3863              	.LVL426:
 3864              		.loc 1 3036 0
 3865 000e A4B2     		uxth	r4, r4
 3866 0010 8460     		str	r4, [r0, #8]
 3867              		.loc 1 3037 0
 3868 0012 5DF8044B 		ldr	r4, [sp], #4
 3869              		.cfi_restore 4
 3870              		.cfi_def_cfa_offset 0
 3871 0016 7047     		bx	lr
 3872              		.cfi_endproc
 3873              	.LFE196:
 3874              		.size	TIM_ETRConfig, .-TIM_ETRConfig
 3875              		.section	.text.TIM_ETRClockMode1Config,"ax",%progbits
 3876              		.align	1
ARM GAS  C:\Users\CHRIST~1\AppData\Local\Temp\cc3R47K7.s 			page 69


 3877              		.p2align 4,,15
 3878              		.global	TIM_ETRClockMode1Config
 3879              		.syntax unified
 3880              		.thumb
 3881              		.thumb_func
 3882              		.fpu fpv4-sp-d16
 3883              		.type	TIM_ETRClockMode1Config, %function
 3884              	TIM_ETRClockMode1Config:
 3885              	.LFB190:
 3886              		.loc 1 2780 0
 3887              		.cfi_startproc
 3888              		@ args = 0, pretend = 0, frame = 0
 3889              		@ frame_needed = 0, uses_anonymous_args = 0
 3890              	.LVL427:
 3891 0000 10B5     		push	{r4, lr}
 3892              		.cfi_def_cfa_offset 8
 3893              		.cfi_offset 4, -8
 3894              		.cfi_offset 14, -4
 3895 0002 0446     		mov	r4, r0
 3896              	.LVL428:
 3897              		.loc 1 2789 0
 3898 0004 FFF7FEFF 		bl	TIM_ETRConfig
 3899              	.LVL429:
 3900              		.loc 1 2792 0
 3901 0008 A368     		ldr	r3, [r4, #8]
 3902              	.LVL430:
 3903 000a 23F07703 		bic	r3, r3, #119
 3904              	.LVL431:
 3905 000e 9BB2     		uxth	r3, r3
 3906              	.LVL432:
 3907              		.loc 1 2805 0
 3908 0010 43F07703 		orr	r3, r3, #119
 3909              	.LVL433:
 3910 0014 A360     		str	r3, [r4, #8]
 3911              		.loc 1 2806 0
 3912 0016 10BD     		pop	{r4, pc}
 3913              		.cfi_endproc
 3914              	.LFE190:
 3915              		.size	TIM_ETRClockMode1Config, .-TIM_ETRClockMode1Config
 3916              		.section	.text.TIM_ETRClockMode2Config,"ax",%progbits
 3917              		.align	1
 3918              		.p2align 4,,15
 3919              		.global	TIM_ETRClockMode2Config
 3920              		.syntax unified
 3921              		.thumb
 3922              		.thumb_func
 3923              		.fpu fpv4-sp-d16
 3924              		.type	TIM_ETRClockMode2Config, %function
 3925              	TIM_ETRClockMode2Config:
 3926              	.LFB191:
 3927              		.loc 1 2827 0
 3928              		.cfi_startproc
 3929              		@ args = 0, pretend = 0, frame = 0
 3930              		@ frame_needed = 0, uses_anonymous_args = 0
 3931              	.LVL434:
 3932 0000 10B5     		push	{r4, lr}
 3933              		.cfi_def_cfa_offset 8
ARM GAS  C:\Users\CHRIST~1\AppData\Local\Temp\cc3R47K7.s 			page 70


 3934              		.cfi_offset 4, -8
 3935              		.cfi_offset 14, -4
 3936 0002 0446     		mov	r4, r0
 3937              		.loc 1 2835 0
 3938 0004 FFF7FEFF 		bl	TIM_ETRConfig
 3939              	.LVL435:
 3940              		.loc 1 2838 0
 3941 0008 A368     		ldr	r3, [r4, #8]
 3942 000a 43F48043 		orr	r3, r3, #16384
 3943 000e A360     		str	r3, [r4, #8]
 3944              		.loc 1 2839 0
 3945 0010 10BD     		pop	{r4, pc}
 3946              		.cfi_endproc
 3947              	.LFE191:
 3948              		.size	TIM_ETRClockMode2Config, .-TIM_ETRClockMode2Config
 3949 0012 00BF     		.section	.text.TIM_EncoderInterfaceConfig,"ax",%progbits
 3950              		.align	1
 3951              		.p2align 4,,15
 3952              		.global	TIM_EncoderInterfaceConfig
 3953              		.syntax unified
 3954              		.thumb
 3955              		.thumb_func
 3956              		.fpu fpv4-sp-d16
 3957              		.type	TIM_EncoderInterfaceConfig, %function
 3958              	TIM_EncoderInterfaceConfig:
 3959              	.LFB197:
 3960              		.loc 1 3076 0
 3961              		.cfi_startproc
 3962              		@ args = 0, pretend = 0, frame = 0
 3963              		@ frame_needed = 0, uses_anonymous_args = 0
 3964              		@ link register save eliminated.
 3965              	.LVL436:
 3966 0000 F0B4     		push	{r4, r5, r6, r7}
 3967              		.cfi_def_cfa_offset 16
 3968              		.cfi_offset 4, -16
 3969              		.cfi_offset 5, -12
 3970              		.cfi_offset 6, -8
 3971              		.cfi_offset 7, -4
 3972              	.LVL437:
 3973              		.loc 1 3088 0
 3974 0002 8568     		ldr	r5, [r0, #8]
 3975              	.LVL438:
 3976              		.loc 1 3091 0
 3977 0004 8469     		ldr	r4, [r0, #24]
 3978 0006 A4B2     		uxth	r4, r4
 3979              	.LVL439:
 3980              		.loc 1 3094 0
 3981 0008 076A     		ldr	r7, [r0, #32]
 3982              	.LVL440:
 3983              		.loc 1 3097 0
 3984 000a 4FF6F876 		movw	r6, #65528
 3985 000e 2E40     		ands	r6, r6, r5
 3986              	.LVL441:
 3987              		.loc 1 3101 0
 3988 0010 24F44074 		bic	r4, r4, #768
 3989              	.LVL442:
 3990 0014 24F00304 		bic	r4, r4, #3
ARM GAS  C:\Users\CHRIST~1\AppData\Local\Temp\cc3R47K7.s 			page 71


 3991              	.LVL443:
 3992              		.loc 1 3105 0
 3993 0018 4FF6DD75 		movw	r5, #65501
 3994 001c 3D40     		ands	r5, r5, r7
 3995              	.LVL444:
 3996              		.loc 1 3109 0
 3997 001e 3143     		orrs	r1, r1, r6
 3998              	.LVL445:
 3999 0020 8160     		str	r1, [r0, #8]
 4000              		.loc 1 3112 0
 4001 0022 44F48074 		orr	r4, r4, #256
 4002              	.LVL446:
 4003 0026 44F00104 		orr	r4, r4, #1
 4004 002a 8461     		str	r4, [r0, #24]
 4005              		.loc 1 3106 0
 4006 002c 42EA0313 		orr	r3, r2, r3, lsl #4
 4007              	.LVL447:
 4008 0030 1D43     		orrs	r5, r5, r3
 4009              	.LVL448:
 4010              		.loc 1 3115 0
 4011 0032 ADB2     		uxth	r5, r5
 4012 0034 0562     		str	r5, [r0, #32]
 4013              		.loc 1 3116 0
 4014 0036 F0BC     		pop	{r4, r5, r6, r7}
 4015              		.cfi_restore 7
 4016              		.cfi_restore 6
 4017              		.cfi_restore 5
 4018              		.cfi_restore 4
 4019              		.cfi_def_cfa_offset 0
 4020              	.LVL449:
 4021 0038 7047     		bx	lr
 4022              		.cfi_endproc
 4023              	.LFE197:
 4024              		.size	TIM_EncoderInterfaceConfig, .-TIM_EncoderInterfaceConfig
 4025 003a 00BF     		.section	.text.TIM_SelectHallSensor,"ax",%progbits
 4026              		.align	1
 4027              		.p2align 4,,15
 4028              		.global	TIM_SelectHallSensor
 4029              		.syntax unified
 4030              		.thumb
 4031              		.thumb_func
 4032              		.fpu fpv4-sp-d16
 4033              		.type	TIM_SelectHallSensor, %function
 4034              	TIM_SelectHallSensor:
 4035              	.LFB198:
 4036              		.loc 1 3127 0
 4037              		.cfi_startproc
 4038              		@ args = 0, pretend = 0, frame = 0
 4039              		@ frame_needed = 0, uses_anonymous_args = 0
 4040              		@ link register save eliminated.
 4041              	.LVL450:
 4042              		.loc 1 3132 0
 4043 0000 31B9     		cbnz	r1, .L215
 4044              		.loc 1 3140 0
 4045 0002 4368     		ldr	r3, [r0, #4]
 4046 0004 23F08003 		bic	r3, r3, #128
 4047 0008 1B04     		lsls	r3, r3, #16
ARM GAS  C:\Users\CHRIST~1\AppData\Local\Temp\cc3R47K7.s 			page 72


 4048 000a 1B0C     		lsrs	r3, r3, #16
 4049 000c 4360     		str	r3, [r0, #4]
 4050              		.loc 1 3142 0
 4051 000e 7047     		bx	lr
 4052              	.L215:
 4053              		.loc 1 3135 0
 4054 0010 4368     		ldr	r3, [r0, #4]
 4055 0012 43F08003 		orr	r3, r3, #128
 4056 0016 4360     		str	r3, [r0, #4]
 4057 0018 7047     		bx	lr
 4058              		.cfi_endproc
 4059              	.LFE198:
 4060              		.size	TIM_SelectHallSensor, .-TIM_SelectHallSensor
 4061 001a 00BF     		.section	.text.TIM_RemapConfig,"ax",%progbits
 4062              		.align	1
 4063              		.p2align 4,,15
 4064              		.global	TIM_RemapConfig
 4065              		.syntax unified
 4066              		.thumb
 4067              		.thumb_func
 4068              		.fpu fpv4-sp-d16
 4069              		.type	TIM_RemapConfig, %function
 4070              	TIM_RemapConfig:
 4071              	.LFB199:
 4072              		.loc 1 3178 0
 4073              		.cfi_startproc
 4074              		@ args = 0, pretend = 0, frame = 0
 4075              		@ frame_needed = 0, uses_anonymous_args = 0
 4076              		@ link register save eliminated.
 4077              	.LVL451:
 4078              		.loc 1 3184 0
 4079 0000 0165     		str	r1, [r0, #80]
 4080              		.loc 1 3185 0
 4081 0002 7047     		bx	lr
 4082              		.cfi_endproc
 4083              	.LFE199:
 4084              		.size	TIM_RemapConfig, .-TIM_RemapConfig
 4085              		.text
 4086              	.Letext0:
 4087              		.file 2 "c:\\program files (x86)\\gnu tools arm embedded\\7 2017-q4-major\\arm-none-eabi\\include\
 4088              		.file 3 "c:\\program files (x86)\\gnu tools arm embedded\\7 2017-q4-major\\arm-none-eabi\\include\
 4089              		.file 4 "ChibiOS_3.0.2/os/ext/CMSIS/include/core_cm4.h"
 4090              		.file 5 "ChibiOS_3.0.2/os/ext/CMSIS/ST/system_stm32f4xx.h"
 4091              		.file 6 "ChibiOS_3.0.2/os/ext/CMSIS/ST/stm32f407xx.h"
 4092              		.file 7 "ChibiOS_3.0.2/os/ext/CMSIS/ST/stm32f4xx.h"
 4093              		.file 8 "ChibiOS_3.0.2/ext/stdperiph_stm32f4/inc/stm32f4xx_tim.h"
 4094              		.file 9 "ChibiOS_3.0.2/ext/stdperiph_stm32f4/inc/stm32f4xx_rcc.h"
