:020000040800F2
:100000000008002001C0000841D4000841D40008C5
:1000100041D4000841D4000841D4000841D400086C
:1000200041D4000841D4000841D4000881E100080F
:1000300041D4000841D4000841D4000811F400085C
:1000400041D4000841D4000841D4000841D400083C
:1000500041D4000841D4000841D4000841D400082C
:1000600041D4000841D4000841D4000881EE0008C2
:10007000B1EE0008E1EE000811EF000841EF0008C2
:1000800071EF0008A1EF00080110010891F50008C8
:10009000D1F5000841F60008B1F6000841D4000887
:1000A00041D4000841D4000841D4000841D40008DC
:1000B00041D40008E10A010841100108A1F9000833
:1000C000B1FA000841D4000841D4000841D4000826
:1000D00041D4000841D4000841D40008510C010863
:1000E0002110010841D4000841D4000841D400087F
:1000F00041D4000841D4000861100108D1EF000884
:1001000041D4000841D4000841D4000841D400087B
:1001100041D4000841D4000841D4000841D400086B
:1001200001F0000831F0000861F0000891F00008CB
:10013000C1F0000841D4000841D4000841D40008AF
:1001400041D4000841D4000841D400081109010835
:10015000F1F0000821F1000851F10008710C0108CC
:1001600041D4000841D4000841D4000841D400081B
:1001700041D4000841D4000841D4000841D400080B
:1001800041D4000841D4000841D4000841D40008FB
:1001900041D4000841D4000841D4000841D40008EB
:1001A00041D4000841D4000841D4000841D40008DB
:1001B00041D4000841D4000841D4000841D40008CB
:10C0000072B6334880F3098840F20000CCF2000099
:10C010004EF63471CEF200010860BFF34F8FBFF3CC
:10C020006F8F40F20000C0F2F0004EF68851CEF261
:10C0300000010860BFF34F8FBFF36F8F4FF0000018
:10C04000E1EE100A4EF63C71CEF2000108600620C7
:10C0500080F31488BFF36F8F01F0DAF904F050FE1B
:10C060004FF055301B491C4A91423CBF41F8040B2C
:10C07000FAE71A49164A91423CBF41F8040BFAE725
:10C080001749184A184B9A423EBF51F8040B42F820
:10C09000040BF8E700201549154A91423CBF41F8CE
:10C0A000040BFAE701F0BCF9124C134DAC4203DA71
:10C0B00054F8041B8847F9E704F0DAFE0F4C104DE2
:10C0C000AC4203DA54F8041B8847F9E701F0B0B931
:10C0D00000100020000000200008002000080020C0
:10C0E00078ED020800100020EC190020F019002063
:10C0F00090D5002000C0000800C0000800C0000863
:10C1000000C0000800000000000000000000000067
:10C110002DE9F04F2DED108AC1F80CD0D0F80CD0DD
:10C12000BDEC108ABDE8F08F002383F31188284608
:10C13000A047002001F01CFC01F082FB00DFFEE7BD
:10C1400081F0004102E000BF83F0004330B54FEAC8
:10C1500041044FEA430594EA050F08BF90EA020F35
:10C160001FBF54EA000C55EA020C7FEA645C7FEAC8
:10C17000655C00F0E2804FEA5454D4EB5555B8BFEB
:10C180006D420CDD2C4480EA020281EA030382EA5C
:10C19000000083EA010180EA020281EA0303362DEE
:10C1A00088BF30BD11F0004F4FEA01314FF4801CC1
:10C1B0004CEA113102D0404261EB410113F0004FD3
:10C1C0004FEA03334CEA133302D0524263EB43038A
:10C1D00094EA050F00F0A780A4F10104D5F1200E28
:10C1E0000DDB02FA0EFC22FA05F2801841F1000183
:10C1F00003FA0EF2801843FA05F359410EE0A5F157
:10C2000020050EF1200E012A03FA0EFC28BF4CF087
:10C21000020C43FA05F3C01851EBE37101F000453D
:10C2200007D54FF0000EDCF1000C7EEB00006EEB4A
:10C230000101B1F5801F1BD3B1F5001F0CD34908D4
:10C240005FEA30004FEA3C0C04F101044FEA44522B
:10C2500012F5800F80F09A80BCF1004F08BF5FEAB2
:10C26000500C50F1000041EB045141EA050130BD92
:10C270005FEA4C0C404141EB010111F4801FA4F135
:10C280000104E9D191F0000F04BF01460020B1FA8A
:10C2900081F308BF2033A3F10B03B3F120020CDAC2
:10C2A0000C3208DD02F1140CC2F10C0201FA0CF0A0
:10C2B00021FA02F10CE002F11402D8BFC2F1200C05
:10C2C00001FA02F120FA0CFCDCBF41EA0C019040BB
:10C2D000E41AA2BF01EB0451294330BD6FEA040404
:10C2E0001F3C1CDA0C340EDC04F11404C4F12002EF
:10C2F00020FA04F001FA02F340EA030021FA04F301
:10C3000045EA030130BDC4F10C04C4F1200220FA57
:10C3100002F001FA04F340EA0300294630BD21FA95
:10C3200004F0294630BD94F0000F83F4801306BF5B
:10C3300081F480110134013D4EE77FEA645C18BF4F
:10C340007FEA655C29D094EA050F08BF90EA020FE6
:10C3500005D054EA000C04BF1946104630BD91EADE
:10C36000030F1EBF0021002030BD5FEA545C05D1E1
:10C370004000494128BF41F0004130BD14F5800420
:10C380003CBF01F5801130BD01F0004545F0FE4194
:10C3900041F470014FF0000030BD7FEA645C1ABFC9
:10C3A000194610467FEA655C1CBF0B46024650EA00
:10C3B000013406BF52EA033591EA030F41F400212C
:10C3C00030BD00BF90F0000F04BF0021704730B5B2
:10C3D0004FF4806404F132044FF000054FF0000187
:10C3E00050E700BF90F0000F04BF0021704730B548
:10C3F0004FF4806404F1320410F0004548BF40421D
:10C400004FF000013EE700BF42004FEAE2014FEA71
:10C4100031014FEA02701FBF12F07F4393F07F4F4C
:10C4200081F06051704732F07F4208BF704793F04F
:10C430007F4F04BF41F40021704730B54FF4607462
:10C4400001F0004521F000411CE700BF50EA010265
:10C4500008BF704730B54FF000050AE050EA01020E
:10C4600008BF704730B511F0004502D5404261EB7E
:10C4700041014FF4806404F132045FEA915C3FF4BF
:10C48000D8AE4FF003025FEADC0C18BF03325FEA5C
:10C49000DC0C18BF033202EBDC02C2F1200300FA0D
:10C4A00003FC20FA02F001FA03FE40EA0E0021FA32
:10C4B00002F11444BDE600BF0000000000000000CF
:10C4C00070B54FF0FF0C4CF4E06C1CEA11541DBF2A
:10C4D0001CEA135594EA0C0F95EA0C0F00F0DEF8F5
:10C4E0002C4481EA030621EA4C5123EA4C5350EADA
:10C4F000013518BF52EA033541F4801143F480132B
:10C5000038D0A0FB02CE4FF00005E1FB02E506F0BB
:10C510000042E0FB03E54FF00006E1FB03569CF010
:10C52000000F18BF4EF0010EA4F1FF04B6F5007F16
:10C5300064F5407404D25FEA4E0E6D4146EB060688
:10C5400042EAC62141EA55514FEAC52040EA5E5011
:10C550004FEACE2EB4F1FD0C88BFBCF5E06F1ED8BB
:10C56000BEF1004F08BF5FEA500E50F1000041EBF2
:10C57000045170BD06F0004646EA010140EA02009F
:10C5800081EA0301B4EB5C04C2BFD4EB0C0541EAC1
:10C59000045170BD41F480114FF0000E013C00F3D6
:10C5A000AB8014F1360FDEBF002001F0004170BDFA
:10C5B000C4F10004203C35DA0C341BDC04F1140413
:10C5C000C4F1200500FA05F320FA04F001FA05F29F
:10C5D00040EA020001F0004221F0004110EBD3706C
:10C5E00021FA04F642EB06015EEA430E08BF20EA98
:10C5F000D37070BDC4F10C04C4F1200500FA04F33B
:10C6000020FA05F001FA04F240EA020001F00041CC
:10C6100010EBD37041F100015EEA430E08BF20EA3F
:10C62000D37070BDC4F1200500FA05F24EEA020E87
:10C6300020FA04F301FA05F243EA020321FA04F0B6
:10C6400001F0004121FA04F220EA020000EBD3706D
:10C650005EEA430E08BF20EAD37070BD94F0000F6D
:10C660000FD101F00046400041EB010111F4801FA1
:10C6700008BF013CF7D041EA060195F0000F18BF52
:10C68000704703F00046520043EB030313F4801F8E
:10C6900008BF013DF7D043EA0603704794EA0C0F48
:10C6A0000CEA135518BF95EA0C0F0CD050EA41065E
:10C6B00018BF52EA4306D1D181EA030101F00041DB
:10C6C0004FF0000070BD50EA410606BF1046194603
:10C6D00052EA430619D094EA0C0F02D150EA01360F
:10C6E00013D195EA0C0F05D152EA03361CBF104650
:10C6F00019460AD181EA030101F0004141F0FE41EF
:10C7000041F470014FF0000070BD41F0FE4141F472
:10C71000780170BD70B54FF0FF0C4CF4E06C1CEA72
:10C7200011541DBF1CEA135594EA0C0F95EA0C0F27
:10C7300000F0A7F8A4EB050481EA030E52EA0335E2
:10C740004FEA013100F088804FEA03334FF0805503
:10C7500045EA131343EA12634FEA022245EA111530
:10C7600045EA10654FEA00260EF000419D4208BFE1
:10C77000964244F1FD0404F5407402D25B084FEA8E
:10C780003202B61A65EB03055B084FEA32024FF43A
:10C7900080104FF4002CB6EB020E75EB030E22BF97
:10C7A000B61A754640EA0C005B084FEA3202B6EB57
:10C7B000020E75EB030E22BFB61A754640EA5C0006
:10C7C0005B084FEA3202B6EB020E75EB030E22BF96
:10C7D000B61A754640EA9C005B084FEA3202B6EB97
:10C7E000020E75EB030E22BFB61A754640EADC0056
:10C7F00055EA060E18D04FEA051545EA16754FEAB8
:10C8000006164FEAC30343EA52734FEAC2025FEAD5
:10C810001C1CC0D111F4801F0BD141EA00014FF064
:10C8200000004FF0004CB6E711F4801F04BF014335
:10C830000020B4F1FD0C88BFBCF5E06F3FF6AFAE51
:10C84000B5EB030C04BFB6EB020C5FEA500C50F1E1
:10C85000000041EB045170BD0EF0004E4EEA113164
:10C8600014EB5C04C2BFD4EB0C0541EA045170BD6B
:10C8700041F480114FF0000E013C90E645EA060EAF
:10C880008DE60CEA135594EA0C0F08BF95EA0C0FDD
:10C890003FF43BAF94EA0C0F0AD150EA01347FF425
:10C8A00034AF95EA0C0F7FF425AF104619462CE7FC
:10C8B00095EA0C0F06D152EA03353FF4FDAE10465F
:10C8C000194622E750EA410618BF52EA43067FF4B0
:10C8D000C5AE50EA41047FF40DAF52EA43057FF440
:10C8E000EBAE12E7000000000000000000000000B6
:10C8F0004FF0FF3C06E000BF4FF0010C02E000BF2C
:10C900004FF0010C4DF804CD4FEA410C7FEA6C5C0E
:10C910004FEA430C18BF7FEA6C5C1BD001B050EAB1
:10C92000410C0CBF52EA430C91EA030F02BF90EA9C
:10C93000020F0020704710F1000F91EA030F58BF5B
:10C94000994208BF90422CBFD8176FEAE37040F0BD
:10C95000010070474FEA410C7FEA6C5C02D150EA5B
:10C96000013C07D14FEA430C7FEA6C5CD6D152EA16
:10C97000033CD3D05DF8040B704700BF84461046DB
:10C9800062468C461946634600E000BF01B5FFF7DA
:10C99000B7FF002848BF10F1000F01BD4DF808EDAA
:10C9A000FFF7F4FF0CBF012000205DF808FB00BF7B
:10C9B0004DF808EDFFF7EAFF34BF012000205DF8D5
:10C9C00008FB00BF4DF808EDFFF7E0FF94BF012022
:10C9D00000205DF808FB00BF4DF808EDFFF7CEFF23
:10C9E00094BF012000205DF808FB00BF4DF808ED62
:10C9F000FFF7C4FF34BF012000205DF808FB00BF33
:10CA00004FEA410C7FEA6C5C02D150EA013C0AD14A
:10CA10004FEA430C7FEA6C5C02D152EA033C02D13C
:10CA20004FF0000070474FF0010070470000000019
:10CA30004FEA410212F5001215D211D56FF4787346
:10CA4000B3EB625212D94FEAC12343F0004343EAE9
:10CA5000505311F0004F23FA02F018BF40427047C4
:10CA60004FF00000704750EA013005D111F000404E
:10CA700008BF6FF0004070474FF00000704700BFE4
:10CA80004FEA4102B2F1E04324BFB3F5001CDCF1F0
:10CA9000FE5C0DD901F0004C4FEAC0024CEA507028
:10CAA000B2F1004F40EB830008BF20F00100704757
:10CAB00011F0804F21D113F13872BCBF01F000405A
:10CAC000704741F480114FEA5252C2F11802C2F18C
:10CAD000200C10FA0CF320FA02F018BF40F001000D
:10CAE0004FEAC1234FEAD32303FA0CFC40EA0C00BF
:10CAF00023FA02F34FEA4303CCE77FEA625307D1FC
:10CB000050EA01331EBF4FF0FE4040F44000704732
:10CB100001F0004040F0FE4040F40000704700BFCC
:10CB2000844641EA000313F003036DD1403A41D338
:10CB300051F8043B40F8043B51F8043B40F8043BF7
:10CB400051F8043B40F8043B51F8043B40F8043BE7
:10CB500051F8043B40F8043B51F8043B40F8043BD7
:10CB600051F8043B40F8043B51F8043B40F8043BC7
:10CB700051F8043B40F8043B51F8043B40F8043BB7
:10CB800051F8043B40F8043B51F8043B40F8043BA7
:10CB900051F8043B40F8043B51F8043B40F8043B97
:10CBA00051F8043B40F8043B51F8043B40F8043B87
:10CBB000403ABDD2303211D351F8043B40F8043B27
:10CBC00051F8043B40F8043B51F8043B40F8043B67
:10CBD00051F8043B40F8043B103AEDD20C3205D337
:10CBE00051F8043B40F8043B043AF9D2043208D02F
:10CBF000D2071CBF11F8013B00F8013B01D30B88A1
:10CC000003806046704700BF082A13D38B078DD07E
:10CC100010F003038AD0C3F10403D21ADB071CBF50
:10CC200011F8013B00F8013B80D331F8023B20F8BA
:10CC3000023B7BE7043AD9D3013A11F8013B00F8F3
:10CC4000013BF9D20B7803704B7843708B7883707B
:10CC50006046704700000000000000000000000077
:10CC6000A2EB0300704700BF02780B78012A28BFAF
:10CC70009A42F5D16DE9044540EA0104CDE9026725
:10CC80006FF0000C4FEA447212B380EA010414F012
:10CC9000070F6AD100F0070420F0070004F0030535
:10CCA00021F007014FEAC505F0E8042314F0040F52
:10CCB000F1E804670CFA05F462EA040266EA040685
:10CCC0000AD063EA0403624667EA0407664603E0A3
:10CCD000F0E80423F1E8046782FA4CF582EA0604DE
:10CCE000A4FA8CF46CBB83FA4CF583EA0705A5FA29
:10CCF0008CF595B950E9022351E9026782FA4CF5A7
:10CD000082EA0604A4FA8CF483FA4CF583EA070558
:10CD1000A5FA8CF52543DBD09CB92DBAB5FA85F47C
:10CD200024F0070427FA04F1DDE9026723FA04F38B
:10CD300003F0FF0001F0FF01FDE80445A0EB010056
:10CD4000704724BAB4FA84F424F0070426FA04F1F4
:10CD5000DDE9026722FA04F202F0FF0001F0FF01B0
:10CD6000FDE80445A0EB0100704714F0030F3CD12F
:10CD700010F0030428D150F8082B51F8083B82FA30
:10CD80004CF582EA0305A5FA8CF55DB950F8042C40
:10CD900051F8043C82FA4CF582EA0305A5FA8CF5B9
:10CDA000002DE8D02DBAB5FA85F424F0070423FA53
:10CDB00004F122FA04F202F0FF0001F0FF01FDE8A5
:10CDC0000445A0EB010070474FEAC40420F00300C3
:10CDD00050F8082B21F0030151F8083B0CFA04F439
:10CDE00062EA040263EA0403C9E710F003041AD0FC
:10CDF000A1EB040120F00300E40750F8042B06D057
:10CE00000FD28B785FFAA2F4E41A06D12BB1CB785B
:10CE10005FFAB2F4E41A00D11BB920465DF8104B5A
:10CE2000704701F1040150F8042BCC0721F00301F5
:10CE300051F8043B48D824D222F07F4482FA4CF5C2
:10CE400094EA1325A5FA8CF50AD165B951F8043B8B
:10CE500084EA0204B4EB036F0ED150F8042BEBE725
:10CE60004FEA132355E035F07F454DD10878FDE8B2
:10CE70000445C0F1000070474FEA126203F0FF035F
:10CE800047E002EA1C4482FA4CF594EA1345A5FAFD
:10CE90008CF50AD165B951F8043B84EA0204B4EB7D
:10CEA000034F0CD150F8042BEBE74FEA134330E06B
:10CEB00015EA1C4528D10B884FEA124229E04FEAB7
:10CEC000124203EA1C4324E002F0FF0482FA4CF50C
:10CED00094EA1365A5FA8CF50AD165B951F8043BBB
:10CEE00084EA0204B4EB032F09D150F8042BEBE7DA
:10CEF0004FEA13630DE015F0FF0F05D10B684FEA01
:10CF0000122223F07F4304E04FF00000FDE80445C7
:10CF1000704712BA1BBA82FA4CF482EA0304A4FAEC
:10CF20008CF5B5FA85F402FA04F203FA04F34FEA39
:10CF30001260FDE80445A0EB13607047000000009C
:10CF400090F800F06DE9024520F007016FF0000C49
:10CF500010F0070491F820F040F049804FF00004F1
:10CF60006FF00700D1E9002391F840F000F10800CC
:10CF700082FA4CF2A4FA8CF283FA4CF3A2FA8CF304
:10CF80004BBBD1E9022382FA4CF200F10800A4FA6B
:10CF90008CF283FA4CF3A2FA8CF3E3B9D1E90423BF
:10CFA00082FA4CF200F10800A4FA8CF283FA4CF3F6
:10CFB000A2FA8CF37BB9D1E9062301F1200182FAB0
:10CFC0004CF200F10800A4FA8CF283FA4CF3A2FAB6
:10CFD0008CF3002BC6D0002A04BF04301A4612BAC4
:10CFE000B2FA82F2FDE8024500EBD2007047D1E9C7
:10CFF000002304F00305C4F100004FEAC50514F056
:10D00000040F91F840F00CFA05F562EA05021CBF26
:10D0100063EA050362464FF00004A9E70000000040
:10D0200001F0FF01102A2BDB10F0070F08D010F8D9
:10D03000013B013A8B422DD010F0070F42B3F6D1DD
:10D04000F0B441EA012141EA014122F007047FF0F6
:10D0500000070023F0E80256083C85EA010586EA4D
:10D06000010685FA47F5A3FA87F586FA47F6A5FA89
:10D0700087F68EB9EED1F0BC01F0FF0102F0070295
:10D0800032B110F8013B013A83EA010313B1F8D140
:10D090000020704701387047002D06BF3546033821
:10D0A000073815F0010F07D1013015F4807F02BF5A
:10D0B000013015F4C03F0130F0BC0138704700BFAB
:10D0C0004A0011D212F5001211D20DD56FF4787307
:10D0D000B3EB62520ED44FEAC12343F0004343EA5C
:10D0E000505323FA02F070474FF00000704750EAA7
:10D0F000013002D14FF0FF3070474FF00000704711
:10D1000053B94AB9002908BF00281CBF4FF0FF31AE
:10D110004FF0FF3000F074B9ADF1080C6DE904CEAA
:10D1200000F006F8DDF804E0DDE9022304B0704702
:10D130002DE9F047089E04468846002B4BD18A42D1
:10D14000154667D9B2FA82F24AB1C2F1200701FA54
:10D1500002F320FA07F7954047EA030894404FEAA4
:10D16000154E230CB8FBFEF71FFA85FC0EFB178843
:10D1700043EA084307FB0CF1994209D9EB1807F180
:10D18000FF3080F01B81994240F21881023F2B440E
:10D190005B1AA4B2B3FBFEF00EFB103344EA034467
:10D1A00000FB0CFCA44509D92C1900F1FF3380F0D9
:10D1B0000781A44540F2048102382C4440EA07402C
:10D1C000A4EB0C0400271EB1D4400023C6E90043A1
:10D1D0003946BDE8F0878B4209D9002E00F0EB807C
:10D1E0000027C6E9000138463946BDE8F087B3FAA2
:10D1F00083F7002F47D18B4202D3824200F2FA809C
:10D20000841A61EB030301209846002EE0D0C6E9A2
:10D210000048DDE702B9FFDEB2FA82F2002A40F0F0
:10D220008F80491B4FEA154E1FFA85F80127B1FB85
:10D23000FEFC230C0EFB1C1143EA014308FB0CF11E
:10D24000994207D9EB180CF1FF3002D2994200F253
:10D25000CD808446591AA3B2B1FBFEF00EFB101428
:10D2600043EA044408FB00F8A04507D92C1900F153
:10D27000FF3302D2A04500F2B6801846A4EB0804A2
:10D2800040EA0C409FE7C7F1200CBB4022FA0CFE9D
:10D290004EEA030E01FA07F420FA0CF521FA0CF31A
:10D2A0004FEA1E482543B3FBF8F92C0C08FB193351
:10D2B0001FFA8EFA44EA034309FB0AF49C4202FA7D
:10D2C00007F200FA07F10BD91EEB030309F1FF3057
:10D2D00080F087809C4240F28480A9F10209734467
:10D2E0001B1BADB2B3FBF8F008FB103345EA034457
:10D2F00000FB0AFAA24508D91EEB040400F1FF3333
:10D300006BD2A24569D90238744440EA0940A0FBB7
:10D310000289A4EB0A044C45C2464B4654D351D073
:10D32000002E69D0B1EB0A0564EB030404FA0CFC8F
:10D33000FD40FC404CEA0505C6E90054002747E7DC
:10D34000C2F1200320FA03F7954001FA02F021FA16
:10D3500003F34FEA154E3843010CB3FBFEF71FFAF7
:10D3600085F80EFB173341EA034107FB08F38B42B4
:10D3700004FA02F407D9691807F1FF3C2FD28B4257
:10D380002DD9023F2944CB1A81B2B3FBFEF00EFB2C
:10D39000103341EA034100FB08F38B4207D96918B7
:10D3A00000F1FF3C17D28B4215D902382944C91A23
:10D3B00040EA07473BE73746304609E70746E7E6D6
:10D3C0001846FBE64145ABD2B8EB020A69EB0E0208
:10D3D00001381346A4E76046E9E7184695E7674633
:10D3E000D1E781467CE702382C4447E7ACF1020CD8
:10D3F0002B442FE7384608E73746E9E600000000EF
:10D40000704700BF000000000000000000000000A6
:10D41000704700BF00000000000000000000000096
:10D42000704700BF00000000000000000000000086
:10D43000FEE700BF00000000000000000000000048
:10D44000FEE700BF00000000000000000000000038
:10D45000FEE700BF00000000000000000000000028
:10D4600030B583B01F4B00259D60D96821F4E06181
:10D470000904090C1C4A0A43DA601C49CA6842F0D4
:10D480008072CA601A490A6842F001020A601022DA
:10D49000DA77202283F8222000F0D2F800F088F812
:10D4A00000F006FB00F094FD00F0E2FD114C40217D
:10D4B000204600F0D5F9303CA0610122027785F3C7
:10D4C000118862B6A3690C49996100950B4B4FF422
:10D4D000EC7104F1800000F003FA094B836103B0A2
:10D4E00030BD00BF00ED00E00003FA05F0ED00E004
:10D4F000001000E0201A002030C3020851D40008B8
:10D5000020C302080000000000000000000000002E
:10D5100072B6014BD862FEE7F0190020000000004F
:10D52000F8B5174B9B69DA7F0AB1013ADA771A6AC4
:10D5300001321A62124B9A6A01329A6253F81C2F16
:10D540009A421BD09368013B93600D4BDB699A684C
:10D55000A2B900260B4D2027DA68DE6019684D60FD
:10D5600019682C4644F81C1986F3118818699047ED
:10D5700087F31188E3699A68002AEDD0F8BD00BFEF
:10D58000F01900200C1A002000000000000000002C
:10D59000034B59681A4653685B1A9842FBD8704788
:10D5A000001000E00000000000000000000000008B
:10D5B000054B03F11C02DA611A624FF0FF325A6226
:10D5C00000229A62704700BFF0190020000000009E
:10D5D0000361C2600B4BDB699A68914204D9891AD6
:10D5E0001B689A688A42FAD303605A6842601060E6
:10D5F000586081609A68511A9960024B4FF0FF326F
:10D600005A627047F019002000000000000000007E
:10D610000268936881680B449360436802681A60EB
:10D62000036842685A600023C360024B4FF0FF3228
:10D630005A627047F019002000000000000000004E
:10D64000034B1B605B6000229A601B615B6170474B
:10D65000F0190020000000000000000000000000A1
:10D66000002303778168054B1B689A688A42FBD2C6
:10D6700003605A684260106058607047F0190020DB
:10D6800008B5202383F31188037F072B17D8DFE821
:10D6900003F004161608100C1610002383F31188EB
:10D6A00015E0436A00221A6009E0426A9368013378
:10D6B0009360436802681A60036842685A604FF0DA
:10D6C000FF334362FFF7CCFF002383F3118808BDCB
:10D6D00008B5074B996908770422CA771868026869
:10D6E0001A605360986101230377FEF711FD08BDAE
:10D6F000F019002000000000000000000000000001
:10D7000010B586B00446B1F1FF3F12D00A4B9B69B9
:10D710000A4A01A8FFF75CFF2046FFF7D9FF049BE8
:10D7200013B101A8FFF774FF034B9B69586A06B059
:10D7300010BDFFF7CDFFF7E7F019002081D60008F4
:10D7400010B5044641620A4B9869A26883689A4200
:10D750000AD9FFF785FF064B9C6101232377014619
:10D760002046FEF7D5FC10BD2046FFF779FFFAE70B
:10D77000F019002000000000000000000000000080
:10D78000084B1A6890689B699A68DB7F23B99042BE
:10D7900034BF002001207047904294BF0020012038
:10D7A000704700BFF01900200000000000000000DA
:10D7B00038B5094CA56923681A6822605460A361D2
:10D7C00001221A770423EB772846FFF749FF294601
:10D7D000A069FEF79DFC38BDF01900200000000094
:10D7E00008B50D4B99691A681068186043609A6112
:10D7F0000120107700220A7788681B689A688242A5
:10D80000FBD80B605A684A6011605960024B9869F6
:10D81000FEF77EFC08BD00BFF019002000000000EC
:10D8200008B5054B1A689B6992689B689A4200D8B4
:10D8300008BDFFF7D5FFFBE7F0190020000000004E
:10D8400008B5054B9B69DB7F13B1FFF7C9FF08BD26
:10D85000FFF7AEFFFBE700BFF0190020000000005B
:10D8600010B4816002220277002242770424C47738
:10D870000164C26382630262012181778261084A86
:10D880000261516941610861506100F128028262C0
:10D8900000F12C02C26202635DF8044B704700BFC6
:10D8A000F01900200000000000000000000000004F
:10D8B00010B564390144C1600B64C36802995964AE
:10D8C000C368034919661146FFF7CAFF10BD00BFC0
:10D8D00029C1000800000000000000000000000056
:10D8E00010B582B0202484F31188049C0094FFF7C3
:10D8F000DFFF04460021FFF723FF002383F3118895
:10D90000204602B010BD00BF000000000000000073
:10D9100008B50146202383F311880820FFF7F0FEA5
:10D92000002383F3118808BD000000000000000000
:10D9300038B50E4B9C69606204F12805A06A8542E7
:10D9400006D00368A362FFF78BFEA06AA842F8D155
:10D95000637F13F0030F05D1636922691A6123699C
:10D9600062695A610F20FFF7B3FE38BDF01900203D
:10D9700008B5202383F31188FFF7DAFF08BD00BF45
:10D9800010B5054CA369036058620320FFF7A0FEA1
:10D99000A369586A10BD00BFF01900200000000004
:10D9A00008B5064B9A6929B1026050620320FFF75F
:10D9B000A7FE08BD4FF0FF30FBE700BFF0190020C5
:10D9C000026842B108B50346002018605162104653
:10D9D000FFF746FE08BD7047000000000000000091
:10D9E00059B108B5064B9B69186042685A601360CC
:10D9F00043600420FFF784FE08BD4FF0FF307047FE
:10DA0000F0190020000000000000000000000000ED
:10DA100038B504460D460068844208D00368236088
:10DA20005C604562FFF71CFE20688442F6D138BD79
:10DA30004FF0FF330360002343608360C360002224
:10DA40000023C0E90423704700000000000000002C
:10DA5000014B5B6883607047001000E0000000002D
:10DA600030B40E4B5B680E4A916FC2680132C260DF
:10DA700082689B1A5B1A8360D0E90445E11845F17E
:10DA80000002C0E904124268934205D8026893423A
:10DA900038BF036030BC70474360FBE7001000E014
:10DAA000F01900200000000000000000000000004D
:10DAB00010B586B0074C0023A3676846FFF7B8FF90
:10DAC0006846FFF7C5FF6846FFF7CAFF029BA367DA
:10DAD00006B010BDF019002000000000000000009A
:10DAE00008B5202383F31188837F013BDBB2837762
:10DAF000002282F3118813B9037F0F2B00D008BDD9
:10DB0000437F03F00303012B0CD0022BF7D14369B1
:10DB100002691A61036942695A610146406C00F06A
:10DB20001FFBECE7436902691A61036942695A61A4
:10DB300000F0AEFAE3E700BF0000000000000000C4
:10DB4000202383F31188044B1869837F0133837783
:10DB5000002383F311887047F019002000000000B3
:10DB600010B5202383F311880469074B9C421DBF25
:10DB7000A37F0133A3770024002383F31188FFF7E9
:10DB8000AFFF204610BD00BFF019002000000000CC
:10DB90000060406000238360704700BF0000000009
:10DBA00070B5334B9C698368002B5CD00646A26835
:10DBB0009968914207D29A601A7F062A17D0072ADD
:10DBC00031D0002A45D0354633461B689D4204D0EB
:10DBD0009968A2689142F8D21D4625606B6863601F
:10DBE0001C606C6066620620FFF772FD70BD5A68AB
:10DBF000196811601A68596851605D6A2A4612688E
:10DC0000954204D0906899688842F8D215461D6004
:10DC10006A685A6013606B605B6A9B68A268996867
:10DC20009142C8D3CFE75A68196811601A685968D9
:10DC300051605D6A2A461268954204D090689968DE
:10DC40008842F8D215461D606A685A6013606B609E
:10DC5000B9E75A68196811601A685968516018461E
:10DC6000FFF7FEFCAFE78460E36BC360E063BDE7F2
:10DC7000F01900200000000000000000000000007B
:10DC800008B5202383F31188FFF78AFF002383F36D
:10DC9000118808BD00000000000000000000000026
:10DCA00010B5164B9C69202383F31188C368E36386
:10DCB000026882421ED0216CA3B90346A1600068AD
:10DCC00002681A6053609860C26BDA60C363FFF742
:10DCD000C7FCFFF7A5FD002383F3118810BDDB68A7
:10DCE000002BEAD01A689342F9D09268914238BF6B
:10DCF0001146F4E700238360EDE700BFF019002030
:10DD000008B5836B19438163037F0A2B02D00B2B69
:10DD100008D008BD436A1942FBD000234362FFF7D5
:10DD20009FFCF6E7436A8B43F3D1F6E7000000005F
:10DD300070B506460D460468A04207D170BDA168C3
:10DD40006068FFF7DDFF2468A642F7D0E3682B4345
:10DD5000E360002DF3D022691342F4D0EFE700BF57
:10DD600008B5202383F31188FFF7CAFFFFF758FD9A
:10DD7000002383F3118808BD0000000000000000AC
:10DD800038B50C4B9C69202383F31188A36B0340A7
:10DD900008D0A26B22EA0302A263002282F3118858
:10DDA000184638BD054660620A20FFF791FCA36B58
:10DDB0002B40EEE7F01900200000000000000000FA
:10DDC00010B40060406000248460C16081614161E2
:10DDD0000A440261C361019B03625DF8044B704712
:10DDE00008B5C26882614261002282606FF0010161
:10DDF000FFF70EFE08BD00BF00000000000000009D
:10DE000038B504460D46202383F31188C36903B156
:10DE10009847A3684BB929462046FFF7E1FD002843
:10DE2000F7DA002383F311880EE0A368013BA360B7
:10DE3000A269531CA36110782269934224BFE3684E
:10DE4000A361002383F3118838BD00BF00000000E8
:10DE50002DE9F84F0446884692461D46C76920239F
:10DE600083F311880026B1469B460FB12046B84780
:10DE7000A3685BB929462046FFF7B2FD0028F7D01A
:10DE8000002383F311883046BDE8F88FA368013B77
:10DE9000A360A3695A1CA2611B7808F8013BA26920
:10DEA00023699A4224BFE368A36189F3118801368C
:10DEB000B245E8D08BF31188D7E700BF000000001F
:10DEC000006040608260C160816141611144016114
:10DED000C361009B03627047000000000000000067
:10DEE00008B5C168816141610269521A82606FF0B0
:10DEF0000101FFF78DFD08BD0000000000000000DB
:10DF000070B504460E461546202383F31188A36896
:10DF10004BB929462046FFF763FD0028F7DA0023B6
:10DF200083F3118813E0A368013BA36063695A1C63
:10DF300062611E70626923699A4224BFE36863616B
:10DF4000E3690BB120469847002080F3118870BD2B
:10DF50002DE9F04F83B004460E4615460193D0F8E4
:10DF60001C80202383F311880027BA469B4604E0D7
:10DF700001992046FFF734FD00BBA368002BF7D0C2
:10DF8000A368013BA36006F1010963695A1C626141
:10DF900032781A70626923699A4224BFE368636128
:10DFA000B8F1000F01D02046C0478AF3118801372D
:10DFB000013D06D08BF311884E46DEE7002383F344
:10DFC0001188384603B0BDE8F08F00BF00000000A4
:10DFD000054B23F00703054A1360054A054B23F060
:10DFE00007031360704700BF97D500204C1C00202A
:10DFF000481C00200000022000000000000000007B
:10E00000073020F00703064A1068064A1268121A01
:10E010009A4223BF1B18024A13600020704700BFBA
:10E020004C1C0020481C00200000000000000000E4
:10E0300008B5202383F31188FFF7E2FF002383F361
:10E04000118808BD00000000000000000000000072
:10E05000024B1868024B1B68C01A7047481C00200E
:10E060004C1C002000000000000000000000000028
:10E0700008B50548054B036000238360C36010307A
:10E08000FFF786FD08BD00BF501C002031E00008EE
:10E09000F8B50646A0F1080450F8087C07F1080519
:10E0A00010373846FFF7ECFD2B4604E01A683AB10A
:10E0B000A24205D81B68AB42F8D0A342FAD2F5E7DA
:10E0C00046F8082C1C6056F8042CB11856F8080CB9
:10E0D000814209D0596801F108021A4494420DD0D6
:10E0E0003846FFF7DDFDF8BD02F10800496801443C
:10E0F00046F8041CB25846F8082CEBE756F8042CF6
:10E1000008321144596056F8082C1A60E8E700BF3D
:10E1100070B50E46041E0E4B002808BF1C4604F1C5
:10E1200010052846FFF7ACFDA36873B10022144622
:10E1300059680A4401341B68002BF9D106B13260DA
:10E140002846FFF7ADFD204670BD00221446F5E7D6
:10E15000501C002000000000000000000000000033
:10E16000202383F3118803680B600160002383F38D
:10E17000118870470000000000000000000000004F
:10E1800080B400AF084A536823F001035360EFF3F3
:10E190000983683383F30988002383F31188BD461C
:10E1A0005DF8047B704700BF30EF00E00000000026
:10E1B00098B500AF202383F31188124B5B6813F4EA
:10E1C000006F03D1002383F3118898BDF1EE103A5C
:10E1D000EFF309844FF0807344F84C3C0A4BDB6842
:10E1E00044F8083CA4F1680383F30988FFF7C8FAF0
:10E1F00018B1064B44F8503CE7E7054B44F8503C57
:10E20000E3E700BF00ED00E030EF00E039C10008B7
:10E210003CC10008000000000000000000000000F9
:10E2200008B501F04DF80B4801F0AAFA00F020F80B
:10E2300000F046F800F0CCF800F0B2FA00F0C8FAAE
:10E2400000F0D6FA00F07CF902F062FD00F008F868
:10E2500008BD00BFC0C402080000000000000000AC
:10E2600008B501F0E5F808BD00000000000000005E
:10E2700008B501F05DFA08BD0000000000000000D4
:10E28000012303700023436000F108038360C3602F
:10E2900000F110030361436100F11803836100F191
:10E2A0001C03C36100F12003036200F124034362F5
:10E2B00000F12803836270470000000000000000A6
:10E2C00008B501F07DFC08BD000000000000000062
:10E2D00008B501230370002343600C30FFF758FC9E
:10E2E00008BD00BF000000000000000000000000AA
:10E2F00010B50446202383F31188416001F078FCB7
:10E3000002232370002383F3118810BD0000000056
:10E3100010B50446202383F3118801F029FD012361
:10E320002370002383F3118810BD00BF000000009C
:10E3300030B585B00446202585F311880025856019
:10E34000032505700A9D0295099D0195089D00957C
:10E3500001F09EFDB0F1FF3F0CBF052302232370A7
:10E36000002383F3118805B030BD00BF000000001A
:10E3700030B583B00446202585F3118800258560DB
:10E3800004250570069D009501F042FDB0F1FF3FA8
:10E390000CBF052302232370002383F3118803B0ED
:10E3A00030BD00BF000000000000000000000000C1
:10E3B00008B50C30FFF764FC08BD00BF000000008A
:10E3C00008B50C30FFF76CFC08BD00BF0000000072
:10E3D00008B502F0EDFB08BD0000000000000000E1
:10E3E0000123037000234360704700BF000000005A
:10E3F00010B5046AD4F8542213681978042900D09F
:10E4000010BD217A0229FBD1117901228A401B8992
:10E410001A42F5D1A26B236CE16B5B1A9B1AEFD009
:10E42000002282F31188D4F8540204F130020179F9
:10E43000006800F065FA202383F31188D4F8543281
:10E440001979186800F07CFADAE700BF00000000D4
:10E4500010B5046AD4F8542213681978042900D03E
:10E4600010BD217A0229FBD1517901228A405889B5
:10E470000242F5D103EB8103DB685B8A6069E169E5
:10E48000A2698A1A121A9342EAD8002181F31188EC
:10E49000D4F85402B2FBF3F203FB02F304F10C02D2
:10E4A0004179006800F01CFA202383F31188D4F826
:10E4B00054325979186800F033FAD1E700000000AF
:10E4C00008B50C30FFF7C4FC08BD00BF0000000019
:10E4D00008B54FF0FF330C30FFF7BAFC08BD00BFA2
:10E4E00008B53030FFF734FD08BD00BF0000000064
:10E4F00008B54FF0FF333030FFF72AFD08BD00BFED
:10E5000008B50C30FFF77CFC08BD00BF0000000020
:10E5100008B54FF0FF310C30FFF772FC08BD00BFAB
:10E5200008B53030FFF7ECFC08BD00BF000000006C
:10E5300008B54FF0FF323030FFF7E2FC08BD00BFF6
:10E54000704700BF00000000000000000000000055
:10E5500010B582B0044603460D4A43F8042B4360CD
:10E560000123037200900B4B4FF4807200F15401B1
:10E570000C30FFF725FC0094074B4FF4807204F534
:10E58000AA7104F13000FFF79BFC02B010BD00BF80
:10E5900050C3020851E40008F1E300080000000045
:10E5A0000B68202282F311880A7903EB82029061C2
:10E5B0004A79093243F822008A7912B103EB8203C7
:10E5C0009861C0F8541202230372002383F3118868
:10E5D000704700BF000000000000000000000000C5
:10E5E00070B50446D0F854321D6800F10C06304670
:10E5F000FFF7F6FB04F13000FFF772FC0121201D4C
:10E60000FFF796FBD4F85432597905EB8103DB68A8
:10E610005B8A3246284600F063F9D4F854325979BF
:10E62000284600F07DF970BD0000000000000000E9
:10E6300090F8443003F06003202B01D00020704795
:10E6400090F84530212B05D0222B13D0202B09D058
:10E65000002070470A4B83630723C36300230364CE
:10E6600001207047064B83630723C36300230364C1
:10E670000120704700238363C36303640120704754
:10E68000001000200000000000000000000000005A
:10E6900070B500EB81039C69002C3CD00E4605460A
:10E6A000202383F311880821201DFFF741FBA26B73
:10E6B000236CE16B5B1A9B1A1AD105EB8603DA68AF
:10E6C00053695B6823B3128A013A1A4220D10023AE
:10E6D00083F3118804F130023146284600F010F926
:10E6E000202383F311883146284600F029F90FE0F2
:10E6F000002282F3118804F130023146284600F0EE
:10E70000FFF8202383F311883146284600F018F9DA
:10E71000002383F3118870BD00000000000000009A
:10E72000F8B501F1090350F82340B4B10F4606468D
:10E73000202383F3118804216018FFF7F9FA06EB10
:10E740008703DB685B8A6169E569A269AA1A521AC4
:10E75000934203D9002383F31188F8BD002181F38C
:10E760001188B2FBF3F203FB02F304F10C02394609
:10E77000304600F0B5F8202383F31188394630463F
:10E7800000F0CEF8E6E700BF000000000000000047
:10E79000704700BF00000000000000000000000003
:10E7A00008B502F07DF908BD00000000000000007F
:10E7B00008B5012303700023436083600C30FFF72A
:10E7C000E7F908BD000000000000000000000000A4
:10E7D00008B502F05DFA08BD00000000000000006E
:10E7E000012303700023437083704360704700BFB0
:10E7F00008B501F095FD08BD000000000000000014
:10E800000123037000234360C36183620362C36218
:10E810004362036303814381704700BF000000002F
:10E8200038B50446202383F3118841600025C56074
:10E8300005614561856101F08BFD0223237085F33D
:10E84000118838BD0000000000000000000000003A
:10E8500010B50446202383F3118801F0E9FD01235C
:10E860002370002383F3118810BD00BF0000000057
:10E8700010B553692BB100241C605C609C60DC60A7
:10E880001C6193692BB100241C605C609C60DC609F
:10E890001C6100EB8103DA6001F05AFE10BD00BF7D
:10E8A00038B500EB8104E468A46900252570E260B6
:10E8B0006360A56001F014FF38BD00BF00000000D8
:10E8C00038B500EB8104E468646900252570E260D6
:10E8D0006360A56001F024FF38BD00BF00000000A8
:10E8E00038B500EB8104E468A46901252570E26075
:10E8F00063600023A36001F0F3FE38BD0000000058
:10E9000038B500EB8104E468646901252570E26094
:10E9100063600023A36001F003FF38BD0000000026
:10E9200008B5428901238B409BB21A4201D00120D5
:10E9300008BD1343438101F01BFF0020F8E700BF2F
:10E9400008B5028901238B409BB21A4201D00120F5
:10E9500008BD1343038101F063FF0020F8E700BF07
:10E9600008B5022202700022A0F84C2080F84E2048
:10E9700080F84F2002814281C2600261426182615F
:10E9800080F8342001F074FD08BD00BF00000000D5
:10E9900038B50446002380F8343000F1440201F019
:10E9A0008FFE63689B681BB12046984700284FD1B3
:10E9B00094F8443013F0600F40F0908094F84520B4
:10E9C00003F07F0343EA0223B3F5407F00F0A38006
:10E9D00017D9B3F5C06F00F0BD8069D9B3F5106FDA
:10E9E00000F0CF8040F6024293425AD0B3F5006F58
:10E9F00074D104F14F03A3630123E3630023236471
:10EA000026E0022B00F0D2801AD9B3F5807F61D0C6
:10EA1000B3F5817F62D194F84630002B5ED194F833
:10EA2000483013F00F0106D013F0800F40F0F28051
:10EA3000204602F015F80023A363E363236411E08A
:10EA40006BBB04F14C03A3630223E3630023236441
:10EA500094F84B2094F84A3043EA0223E26B9A423E
:10EA600088BFE36394F94430002BC0F2F080E36B7D
:10EA7000002B40F01581052384F8343000231A461A
:10EA800019462046FFF71CFF202383F3118800213D
:10EA90002046FFF755FF002383F311882FE0012B59
:10EAA0001CD1894BA3630223E36300232364CFE7D4
:10EAB00040F20232934200F0B180B3F5A06F0DD165
:10EAC000B4F84430B3F5A06F34D00023A363E363FC
:10EAD0002364C7E794F84630012B11D0002120466B
:10EAE00001F0AEFF0021204601F09AFF63681B6829
:10EAF00013B1052120469847062384F8343038BDE9
:10EB0000B4F84C3023F00203A4F84C300023A36384
:10EB1000E3632364A6E794F84630012BDED1B4F812
:10EB20004C3043F00203A4F84C300023A363E363AA
:10EB3000236497E794F8463084F84E30204601F07D
:10EB4000F7FC63681B6813B1012120469847032333
:10EB50002370BAE794F8492094F8483061684D680A
:10EB600043EA022394F8462094F847102046A84729
:10EB70000028B3D04268A2630368E36300232364E0
:10EB800066E794F8463084F84F3063B90323237066
:10EB900063681B6813B10221204698470023A363D2
:10EBA000E36323645EE704232370F1E794F84810DD
:10EBB00011F0800F0FD101F00F01204601F060FD30
:10EBC000012820D0022889D1404BA3630223E363AC
:10EBD000002323643CE701F00F01204601F060FDB3
:10EBE000012809D002287FF479AF384BA3630223B0
:10EBF000E363002323642BE7354BA3630223E36322
:10EC00000023236424E7324BA3630223E36300233E
:10EC100023641DE7204601F033FF0CE794F84630EB
:10EC2000002B7FF45BAF94F8483013F00F0105D050
:10EC300013F0800F07D1204601F0F2FE0023A363FA
:10EC4000E36323640EE7204601F0FAFEF6E7E36B88
:10EC500093B1012284F83420A26B00212046FFF7F3
:10EC60002FFE202383F3118800212046FFF768FE42
:10EC7000002383F3118842E7032384F83430002310
:10EC80001A4619462046FFF70BFE202383F311880E
:10EC900000212046FFF744FE002383F311882EE76E
:10ECA000042284F83420A26B00212046FFF7F8FDEF
:10ECB000202383F3118800212046FFF731FE002333
:10ECC00083F311881BE700BF90C3020870C30208DA
:10ECD00080C30208000000000000000000000000E7
:10ECE00010B5044690F83430062B28D8DFE803F03E
:10ECF00042041442423B4200C26B90F84B1090F821
:10ED00004A3043EA01239A4206D2C368198AB2FB09
:10ED1000F1F301FB13229AB1032384F8343000236A
:10ED20001A4619462046FFF7BBFD202383F31188BE
:10ED300000212046FFF7F4FD002383F3118810BD66
:10ED400000231A461946FFF7BBFD202383F31188E1
:10ED500000212046FFF7F4FD002383F311880223EE
:10ED600084F83430EBE7036C03B19847002384F850
:10ED70003430E4E7002101F063FE0021204601F079
:10ED80004FFE63681B6813B1052120469847062390
:10ED900084F83430D3E700BF00000000000000001A
:10EDA00010B5044690F83430062B17D8DFE803F08E
:10EDB0002323231704232300052380F83430002362
:10EDC0001A461946FFF77CFD202383F311880021A2
:10EDD0002046FFF7B5FD002383F3118810BDC368FB
:10EDE0009B699B68002BF9D1036C03B19847002302
:10EDF00084F83430F2E7002101F022FE00212046A1
:10EE000001F00EFE63681B6813B105212046984788
:10EE1000062384F83430E1E7000000000000000021
:10EE20000901C9B200F1604303F5614383F800139F
:10EE300000F01F02012393404009800000F1604070
:10EE400000F56140C0F880310360704700000000A9
:10EE5000420900F01F0301219940044B203243F87E
:10EE600022100344002283F80023704700E100E0F1
:10EE70000901C9B200F1604000F56D4001767047AC
:10EE800008B5074B196801F03D019960054B1B68F7
:10EE900013B1044A50689847FFF78AF908BD00BFCC
:10EEA00000600240701C0020000000000000000014
:10EEB00008B5084B1968890901F03D018A019A607B
:10EEC000054B9B6813B1044AD0689847FFF770F967
:10EED00008BD00BF00600240701C00200000000060
:10EEE00008B5084B1968090C01F03D010A049A6045
:10EEF000054B1B6913B1044A50699847FFF758F94D
:10EF000008BD00BF00600240701C0020000000002F
:10EF100008B5084B1968890D01F03D018A059A6012
:10EF2000054B9B6913B1044AD0699847FFF740F934
:10EF300008BD00BF00600240701C002000000000FF
:10EF400008B5074B596801F03D01D960054B1B6AB4
:10EF500013B1044A506A9847FFF72AF908BD00BF69
:10EF600000600240701C0020000000000000000053
:10EF700008B5084B5968890901F03D018A01DA603A
:10EF8000054B9B6A13B1044AD06A9847FFF710F902
:10EF900008BD00BF00600240701C0020000000009F
:10EFA00008B5084B5968090C01F03D010A04DA6004
:10EFB000054B1B6B13B1044A506B9847FFF7F8F8E9
:10EFC00008BD00BF00600240701C0020000000006F
:10EFD00008B5084B5968890D01F03D018A05DA60D2
:10EFE000054B9B6B13B1044AD06B9847FFF7E0F8D1
:10EFF00008BD00BF00600240701C0020000000003F
:10F0000008B5074B196801F03D019960054B1B6C71
:10F0100013B1044A506C9847FFF7CAF808BD00BF07
:10F0200000640240701C002000000000000000008E
:10F0300008B5084B1968890901F03D018A019A60F9
:10F04000054B9B6C13B1044AD06C9847FFF7B0F89E
:10F0500008BD00BF00640240701C002000000000DA
:10F0600008B5084B1968090C01F03D010A049A60C3
:10F07000054B1B6D13B1044A506D9847FFF798F884
:10F0800008BD00BF00640240701C002000000000AA
:10F0900008B5084B1968890D01F03D018A059A6091
:10F0A000054B9B6D13B1044AD06D9847FFF780F86C
:10F0B00008BD00BF00640240701C0020000000007A
:10F0C00008B5074B596801F03D01D960054B1B6E2F
:10F0D00013B1044A506E9847FFF76AF808BD00BFA5
:10F0E00000640240701C00200000000000000000CE
:10F0F00008B5084B5968890901F03D018A01DA60B9
:10F10000054B9B6E13B1044AD06E9847FFF750F839
:10F1100008BD00BF00640240701C00200000000019
:10F1200008B5084B5968090C01F03D010A04DA6082
:10F13000054B1B6F13B1044A506F9847FFF738F81F
:10F1400008BD00BF00640240701C002000000000E9
:10F1500008B5084B5968890D01F03D018A05DA6050
:10F16000054B9B6F13B1044AD06F9847FFF720F807
:10F1700008BD00BF00640240701C002000000000B9
:10F1800010B400230C4A13600C491A460C4C51F879
:10F190000C0B026044F833200133102BF7D1094ADD
:10F1A0004FF0FF339360D36002F580629360D360C9
:10F1B0005DF8044B704700BFF01C0020A0C302089C
:10F1C000701C0020006002400000000000000000F1
:10F1D00070B5467A204C25680124B4402C4237D1C2
:10F1E0001E4C44F83620467A04EBC6046360447A29
:10F1F0000123A3402B43184C236013F0FF0F04D0CE
:10F20000174D2C6B44F400142C6313F47F4F04D07F
:10F21000134C236B43F4800323630468236823F0B7
:10F220001F0323600468236813F0010FFBD14468B7
:10F23000057A3D23AB402360036800241C6003680B
:10F2400021245C6132B1807AFFF7EAFD002000E002
:10F25000012070BD0020FCE7F01C0020701C002085
:10F260000038024000000000000000000000000024
:10F2700010B50446807AFFF7EBFD627A012303FAAA
:10F2800002F20B490B6823EA02030B6013F0FF0F35
:10F2900004D108490A6B22F400120A6313F47F4F69
:10F2A00004D1044A136B23F48003136310BD00BF21
:10F2B000F01C0020003802400000000000000000A8
:10F2C00008B5174B1A694FF0FF31196100221A6116
:10F2D000586959615A61186A60F0805018621A6260
:10F2E000586A59625A621A6C42F080521A640D4987
:10F2F0000A6842F480720A601B6F03F44073B3F52E
:10F30000007F05D0064B4FF480321A6700221A673F
:10F31000044A536823F400735360FFF731FF08BDBC
:10F3200000380240007000400000000000000000B3
:10F33000304B4FF080521A642F4A4FF44041116015
:10F340001A6842F001021A601A46136813F0020F9D
:10F35000FBD0284B9A6822F003029A609A689A6060
:10F360001A46936813F00C0FFBD1224B1A6802F077
:10F37000F9021A6000229A601A6842F480321A6018
:10F380001A46136813F4003FFBD01A4A536F43F038
:10F3900001035367536F13F0020FFBD0154B174A4D
:10F3A0005A601A6842F080721A60134A536813F464
:10F3B000804FFBD00F4A136813F0007FFBD00D4B3A
:10F3C0000F4A9A600F4A40F2057111609A6842F044
:10F3D00002029A601A46936803F00C03082BFAD1D4
:10F3E000044B5A6C42F480425A645A6E42F4804292
:10F3F0005A667047003802400070004008544007C9
:10F4000000940838003C02400000000000000000AA
:10F4100008B5202383F31188FEF782F8002383F3D5
:10F420001188FEF7C5FE08BD0000000000000000C6
:10F4300008B5064B44F29F125A6000229A600722D8
:10F440001A6008210B20FFF713FD08BD10E000E053
:10F45000F0B44A4C236C43F000732364A4F5EA34FF
:10F46000D4F800321B0C1B0443F0010343EA0023D1
:10F47000C4F80032002957D00D460021C4F81C12F0
:10F48000C4F80412C4F80C12C4F814120846CB00D5
:10F4900003F1804303F5C843C3F84002C3F84402B4
:10F4A00001311C29F3D1103200264FF0010C344BEE
:10F4B00017E054F8101C54F8087C483143F83170B8
:10F4C00054F8101C54F8044C483103EBC1014C6053
:10F4D000D3F81C120843C3F81C0201361032B5429F
:10F4E0003DD0A2F11001144652F8100C0CFA00F0B5
:10F4F0000F7917F0010F04D0D3F804720743C3F853
:10F5000004720F7917F0020F04D0D3F80C7207437E
:10F51000C3F80C72097911F0040FCAD0D3F8141291
:10F520000143C3F81412C4E7154B0022C3F840226C
:10F53000C3F84422C10001F1804101F5C841C1F87E
:10F540004022C1F84422C3F80422C3F81422012245
:10F55000824042F00102C3F80C22C3F81C22084A80
:10F56000D2F8003223F00103C2F8003202F5EA3289
:10F57000136C23F000731364F0BC70470038024032
:10F5800000640040000000000000000000000000D7
:10F5900010B50B4CE36A0B4A9A60202383F3118861
:10F5A000002104F10800FEF733FA012104F11C00E8
:10F5B000FEF7BEFB002383F31188FEF7F9FD10BDB3
:10F5C000F41C002001010100000000000000000008
:10F5D00038B5184BDB6ADC6814F0030F05D114F062
:10F5E000100F18D1FEF7E4FD38BD5A6922F002026F
:10F5F0005A61202383F311880E4D002105F110007C
:10F60000FEF706FA012105F11800FEF791FB002331
:10F6100083F31188E3E70748C36A1021D9602023E8
:10F6200083F311881844FEF783FB002383F31188CA
:10F63000D8E700BFF41C002000000000000000001C
:10F6400038B5184BDB6A1C6914F0030F05D114F0B0
:10F65000100F18D1FEF7ACFD38BD5A6922F0100228
:10F660005A61202383F311880E4D002105F110000B
:10F67000FEF7CEF9022105F11800FEF759FB002331
:10F6800083F31188E3E70748C36A10211961202337
:10F6900083F311881844FEF74BFB002383F3118892
:10F6A000D8E700BFF41C00200000000000000000AC
:10F6B00010B51D4BDB6A5C681C225A6014F0080F01
:10F6C0001ED114F0040F18D0174BDA6A93699169B0
:10F6D00021F07001916103F0070113F0700F18BF62
:10F6E00041F00801202282F3118841EA03410F48CA
:10F6F000FEF71EFB002383F31188FEF759FD10BDB2
:10F70000094803230370C26A136823F002031360DD
:10F71000202383F3118800212830FEF709FB002302
:10F7200083F31188CDE700BFF41C0020141D0020D6
:10F7300010B5064C2046FEF7A3FD054BE362002200
:10F7400011460E20FFF784FE10BD00BFF41C002000
:10F750000064004000000000000000000000000005
:10F760004B6843608B688360CB68C3600B694361FF
:10F770004B6903628B6943620B680360704700BF8B
:10F7800010B504461A4B196B40F2FF100143196380
:10F790001A6D02431A6521461648FFF7E1FF04F18E
:10F7A0001C011548FFF7DCFF04F138011348FFF78F
:10F7B000D7FF04F154011248FFF7D2FF04F17001A2
:10F7C0001048FFF7CDFF04F18C010F48FFF7C8FF89
:10F7D00004F1A8010D48FFF7C3FF04F1C4010C4870
:10F7E000FFF7BEFF04F1E0010A48FFF7B9FF10BDC3
:10F7F00000380240000002400004024000080240BD
:10F80000000C0240001002400014024000180240A8
:10F81000001C024000200240000000000000000028
:10F820002DE9F04F02F0030CC2F38007C2F3C106CA
:10F83000C2F34115C2F3C31200244FF00F094FF079
:10F8400001084FF0030E30E0D0F824B02BEA030398
:10F8500043EA0A034362436808FA04FA23EA0A0304
:10F860003B434360D0F808A063000EFA03F3DB4388
:10F870000AEA030A4AEA060AC0F808A0D0F80CA06F
:10F8800003EA0A0A4AEA050AC0F80CA0D0F800A068
:10F8900003EA0A0343EA0C030360490819D07F0016
:10F8A000B600AD004FEA8C0C013411F0010FF4D01A
:10F8B00004F007039B0002FA03FA09FA03F3072C8A
:10F8C000C2D8D0F820B02BEA030343EA0A0303624C
:10F8D000C1E7BDE8F08F00BF00000000000000009D
:10F8E00038B50546446B11F00C0F15D12B6B1A6817
:10F8F000136823F01F031360296B0A68136813F061
:10F90000010FFBD14A68097A3D238B40136063687D
:10F9100043F40073636038BD0148FDF7F9FDE5E786
:10F9200060C40208000000000000000000000000A9
:10F9300038B50546446B11F00C0F28D1EB6A1A68F4
:10F94000136823F01F031360E96A0A68136813F051
:10F95000010FFBD14A68097A3D238B40136063682D
:10F9600023F480536360236823F480632360236857
:10F9700043F400732360202383F31188002105F1F1
:10F980001C00FEF71DF8002383F3118838BD0248E0
:10F99000FDF7BEFDD2E700BF60C402080000000012
:10F9A00038B53C4B5C6BA369656945EA034323F0BA
:10F9B0007F43394A934248D01ED8073A934231D008
:10F9C000013293423AD1636823F400736360314A91
:10F9D000D36A19680B6843F001030B60636843F452
:10F9E00080536360D36A1B685B68012B26D8236849
:10F9F00023F48063236021E0284A93422BD0023213
:10FA000093421BD1234BDB6A1B685B68002B2ED013
:10FA1000204A138C43F001031384236843F4A0634A
:10FA200023600FE01B4B1B8C1A0A1FBF03F001035E
:10FA300043F0F00302F006021343236115F00A0FAE
:10FA400018BFA369FEF7B4FB38BD124B1B8CC3F380
:10FA500047032361F2E7636823F4007363600D4B8F
:10FA60001B6B1A68136843F001031360E6E76368D1
:10FA700023F400736360236843F40073236020233E
:10FA800083F3118800210648FDF79AFF002383F3D2
:10FA90001188D3E7241D002008000300820007001E
:10FAA000401D0020000000000000000000000000D9
:10FAB00010B5414B586B4469A2B202F45F41C9438F
:10FAC0004161196B0868016821F01F010160186B22
:10FAD00001680B6813F0010FFBD14168007A3D23E8
:10FAE00083400B603449CB6A1868036823F01F0316
:10FAF0000360C86A01680B6813F0010FFBD141680D
:10FB0000007A3D2383400B6012F4807F2A4B0CBFA8
:10FB100000210121996012F4007F04D026498B68EE
:10FB200043F002038B6012F4806F0ED0224B586BAF
:10FB3000416821F400714160586B016841F4007123
:10FB40000160996841F00401996012F4006F04D0DB
:10FB500019498B6843F008038B6012F4804F04D07E
:10FB600015498B6843F020038B6012F4805F1AD034
:10FB7000114A936843F01003936014F4004F04D0CB
:10FB80000D4A936843F040039360202383F3118868
:10FB90006FF001010948FDF713FF002383F311887B
:10FBA000FEF706FB10BD14F4004FE9D1024B9B6831
:10FBB000002BF5D0E9E700BF241D0020401D0020E8
:10FBC00010B5064C2046FEF783FB0023E361044B8F
:10FBD0006363044BE3624833236310BD241D00209C
:10FBE00000540040A0C30208000000000000000014
:10FBF000F8B50446456B40F25643836240F2164323
:10FC000043620378012B35D0E36A1A6805F11003CB
:10FC10009360226B126893604FF400432B600023C3
:10FC20002B604FF410636B60636B61684A68087AFD
:10FC3000596821F03F010904090C5960596841F0E5
:10FC40002A01596043498A4244DD43498A4271DCB2
:10FC5000022859D0032862D040F6FF7100226FEAD3
:10FC600042426FEA524292B2C1F30B010A430D21A4
:10FC7000196237E0394B9842C6D1394F3B6A43F499
:10FC800000133B6200233B62344E3346354A052164
:10FC9000F06AFFF79DFA3346334A0521306BFFF7D0
:10FCA00097FA3B6C43F400133B6405211F20FFF7D8
:10FCB000B7F805212020FFF7B3F8736A43F000730B
:10FCC00043F440337362B36A43F0007343F4403348
:10FCD000B36299E75100254AB2FBF1F2C2F30B027D
:10FCE0002B211962DA61616B0B689BB26268127832
:10FCF000022A25D0032A29D0012A1DD00B602B68A7
:10FD000043F001032B60F8BD02EB420201F11E71CA
:10FD100001F53131B1FBF2F291B200229FE702EB23
:10FD2000820202EB82021149B1FBF2F291B24FF46E
:10FD3000804294E70022D5E723F00A039BB2DDE777
:10FD400023F008039BB243F00203D7E743F00A0312
:10FD5000D4E700BFA0860100801A0600241D002001
:10FD60000038024031F90008E1F8000880DE800226
:10FD70000378012B41D010B5436B4FF400421A6059
:10FD800000221A605A605A61036B1A68136823F0E4
:10FD90001F031360016B0A68136813F0010FFBD196
:10FDA0004A68097A3D238B401360C36A1A68136856
:10FDB00023F01F031360C16A0A68136813F0010F70
:10FDC000FBD104464A68097A3D238B401360006BDF
:10FDD000FFF74EFAE06AFFF74BFA084B9C4200D05F
:10FDE00010BD1F20FFF734F82020FFF731F8044A38
:10FDF000136C23F400131364F2E77047241D0020F2
:10FE00000038024000000000000000000000000078
:10FE100070B5446B00258560490041F00101018403
:10FE200085F31188C16A0968456A0D60C16A09686D
:10FE3000CA60C26A12685360134B9D6A2022194639
:10FE4000002606E08B6A5B1BB3F5FA7F18D286F3B7
:10FE5000118882F31188A36913F0020FF2D123688D
:10FE600013F4007FEED1636843F40073636023688A
:10FE700043F4A063236004991C30FDF791FD01E079
:10FE80004FF0FF3070BD00BFF019002000000000EF
:10FE900070B5446B002585604900018485F31188A5
:10FEA000016B0968856A0D60016B0968CA60026BA5
:10FEB00012685360C36A1B68426A1A60C36A1B688F
:10FEC000049ADA60C36A1B68059A5A60134B9D6AEC
:10FED00020221946002606E08B6A5B1BB3F5FA7FE9
:10FEE00018D286F3118882F31188A36913F0020FE8
:10FEF000F2D1236813F4007FEED1636843F40073FA
:10FF00006360236843F48073236006991C30FDF717
:10FF100047FD01E04FF0FF3070BD00BFF019002039
:10FF2000F0B4016D00231C464FF080474FF0FF36C0
:10FF30001CE0C2F800799446DCF8085915F0020F6D
:10FF4000FAD01BE0C2F8007B01EB4315D5F8082B73
:10FF500012F0100FFAD001EB4312C2F8104BC2F8A6
:10FF6000086B0133426D92689A4214D301EB43123D
:10FF7000D2F80059002DDCDBC2F8004901EB431533
:10FF8000C5F81049C5F80869D2F8005B002DD9DB27
:10FF9000C2F8004BDFE74FF00113C1F81C38F0BC8A
:10FFA000704700BF000000000000000000000000DB
:10FFB00008B5026D890141F020011161136913F048
:10FFC000200FFBD10C20FDF7E3FA08BD0000000074
:10FFD0002DE9F04F87B0D0F85080994B9B69994A32
:10FFE0009A61202383F3118800F160030593C146D1
:10FFF00080469BE0013B49D010680029FAD044F8C4
:020000040801F1
:10000000040B0139F6E7C3F30A1503F00F0308EBFD
:100010008304E3689E693378002B56D0F06815B3EB
:100020002E4602F5805706E0426903699A4204D3DE
:10003000C3684361BEB1032EF6D8D7F800C096B1AD
:1000400000234269511C41612CFA03F1117041698E
:100050000269914224BFC2684261013E03D0083365
:10006000202BEED1E7E7202383F3118883682B440C
:1000700083600021FDF7CCFCFDF7D2FB002383F366
:100080001188E3689A6993681D449560D9F8145003
:1000900015F0100534D0D8F85020136A03F4F0118D
:1000A000B1F5802FAFD0B1F5402FEFD103F00F01A4
:1000B00008EB8101C9680C6AC3F30A1303339B0878
:1000C000E4D0022102F5805296E7F068EB1C7168DB
:1000D0000331B668891B89089B080BD002F5805252
:1000E00001E0013B06D016680029FAD040F8046B05
:1000F0000139F6E7E3689A69D3682B44D360C0E717
:10010000019A1046012393401A460393D8F85C30B5
:100110001A4225D1019B0133DAB20192D8F854304A
:100120009B689A42B2D9202383F3118898F8003053
:10013000012B07D0D8F85C306BB9D9F8143013F024
:10014000100F08D1D9F8183043F01003C9F818304F
:100150000598FDF715FC002383F31188019395E7BB
:10016000202383F31188D9F8083023F00103C9F85C
:100170000830D8F85C30039A23EA0203C8F85C30F0
:10018000002383F31188019B1F4608EB8306F16867
:100190004A69946853689C4280F0B4801B1B0C8AA7
:1001A0009C4228BF1C46D8F8501001EB4013D3F8EE
:1001B00018399BB2B4EB830F00F2A68001373B03E2
:1001C00040010290CDF81090A9461D4665E0876970
:1001D0000269D21B48BF03329310634528BF6346B0
:1001E0004FEA830AA1EB0A013BB13A4652F8044BAD
:1001F000CEF80040013BF9D1574487610369BB4207
:1002000008D8C368836101E0CEF80070E1B15FEA0D
:10021000910CDCD100294AD0D0F810C04A46002702
:1002200083695C1C84611B7893401F43644524BF31
:10023000C36883610139E7D00832202AF0D1E3E7AF
:10024000F0190020B0C402085C46202383F3118813
:100250008368234483600021FDF7DAFBFDF7E0FAB1
:10026000002383F31188F3685A6993681C449460EF
:10027000F1684A6993685468A3422CD2E41A0B8A45
:100280009C4228BF1C46D8F85010029BCB18D3F8CC
:1002900018399BB2B4EB830F38D813784BB101EB0C
:1002A000050ED068002CD0D02146A346AFE75C46AF
:1002B000CBE701EB050ED268E31C9B0805D052F892
:1002C000041BCEF80010013BF9D1F3685A69D368DA
:1002D0002344D360C7E7DDF810900122202383F385
:1002E0001188D9F8083043F00103C9F808302AB959
:1002F000D9F83438039A1343C9F83438002383F308
:10030000118807E70122E9E70022E7E7DDF810900E
:100310000022E3E7000000000000000000000000F1
:1003200010B5064C2046FEF76BFA002323664FF00B
:10033000A0422265024A6265636610BD601D00200E
:10034000A0C402080000000000000000000000003F
:100350000378012B00D0704770B582B00546066D5A
:100360002E4B984237D00023EB652D4AF2602D4A80
:10037000C6F80028C6F8003E4FF43413B3632C6D62
:100380002020FDF705F901232361236913F0010FF4
:10039000FBD10C20FDF7FCF82369002BFCDA0024CC
:1003A000B4602846FFF7BCFDC6F81048C6F81448EC
:1003B000C6F81C486B68DB68EBB143F20803B36115
:1003C0004FF0FF3373616B6ECBB1B36843F0010341
:1003D000B36002B070BD144B5A6B42F080025A6396
:1003E0005A6942F080025A6100225A610E2143206C
:1003F000FEF716FDB7E74FF44053B361E0E7009511
:100400000A4B02224FF4067105F16800FDF750FA1D
:100410006866FDF725F9FDF703FAD6E7601D0020B1
:10042000401400400300200200380240D1FF0008C1
:1004300038B50378012B0CD00446056DFFF770FD2D
:100440000023E365C5F81C38AB60AB63064B9C42E8
:1004500000D038BD4320FEF7FBFC044A536B23F069
:1004600080035363F5E700BF601D002000380240A1
:1004700038B50546046D0021FFF79AFD00224FF0C4
:100480000060FF2104EB4213C3F80009C3F8000B1E
:10049000C3F80819C3F8081B01326B6D9B689342BF
:1004A000F0D24FF0FF33C4F818384FF00113C4F8FE
:1004B0001C386B6D1A68AA651B6863622A6D10236D
:1004C0001361136913F0100FFBD10C20FDF760F8D6
:1004D000D4F8003823F4FE63C4F80038A36943F469
:1004E000402343F01003A3610923C4F81038C4F873
:1004F00014380A4BEB600022C4F8102B084BC4F8E8
:10050000003BC4F81029C4F80039AB6D03F11002A8
:10051000AA6543F48013A36238BD00BF70C402080B
:1005200040800010000000000000000000000000FB
:10053000026DD2F8003890F84E1023F4FE6343EABF
:100540000113C2F8003870470000000000000000EE
:10055000F8B500EB8106F3681B6803F00303032B77
:1005600051D8DFE803F0080204063E4F04E03E4F96
:1005700002E03E4F00E03E4F056D05EB41130022C7
:10058000C3F8102BF368DA68002A3DD05A8A3A4340
:1005900001F158035B01EA50D5F81C2801F1100461
:1005A0000123A3401343C5F81C380C4605EB411347
:1005B0000022C3F81029F2689368002B37D0138A01
:1005C0009B08928B012A88BF5343826D99188165DD
:1005D00042EA034304F13F0205EB820253602146E5
:1005E000FFF7E6FCF3681B8A43EA84533B4304F1BC
:1005F00048025201AB50D5F81C38012101FA04F42D
:100600001C43C5F81C48F8BD05EB4112D2F8003B6D
:1006100023F40043C2F8003BD5F81C3801F1100464
:100620000122A24023EA0203C5F81C38BDE701F10C
:100630003F0305EB83030F4A5A60FFF7B9FC05EB54
:100640004412D2F8003923F40043C2F80039D5F837
:100650001C38012101FA04F423EA0404C5F81C48FB
:10066000D1E700BF008004100080081000800C104B
:1006700000800010000400020000000000000000E4
:10068000036D583149015B5813F4004F06D003F451
:100690000013002B14BF0120022070470020704778
:1006A000036D483149015B5813F4004F06D003F441
:1006B0000013002B14BF0120022070470020704758
:1006C00000EB8101CB681B6A19685B68116053609D
:1006D000704700BF000000000000000000000000A4
:1006E00010B400EB8102D3689B695C681C6119B986
:1006F000402C84BF40245C605B68D268548A006DE3
:100700001A19013AB2FBF4F243F0C04343EAC24380
:1007100000EB4111C1F8103B5DF8044B704700BF7E
:1007200010B400EB8104E3685B695A681A61AAB1EE
:1007300019B9402A84BF40225A605A68E3681C8A6B
:10074000006D1319013BB3FBF4F342EAC34300EB22
:100750004111C1F810395DF8044B7047036D03EB8C
:1007600041114FF40023C1F81039F4E700000000F4
:10077000036D03EB4111D1F8003B43F08063C1F8F6
:10078000003B704700000000000000000000000077
:10079000F8B504460E46076D07EB4113D3F8085B26
:1007A000C3F8085B15F0080F09D0D7F8143813F018
:1007B000080F04D000EB8103DB685B68984715F0F5
:1007C000010F17D0D7F8143813F0010F12D004EB33
:1007D0008603D9688B6958681A6990420BD3012344
:1007E00003FA06F2638923EA02036381CB68314688
:1007F00020469847F8BD121A5A6000259D60314680
:100800002046FFF76DFF202383F3118831462046F1
:10081000FFF7AEFF85F31188ECE700BF0000000092
:10082000036D03EB4113D3F8002942F00442C3F8EF
:100830000029026DD2F83408012303FA01F10143C3
:10084000C2F83418704700BF00000000000000002C
:100850002DE9F04105460E46076D07EB4113D3F82D
:100860000849C3F8084914F0010F17D0D7F8103819
:1008700013F0010F12D000EB8103D9684B6958685F
:100880001A69904215D3012303FA06F22B8923EA51
:1008900002032B818B6831462846984714F0800F5D
:1008A00005D0D7F834280123B340134215D1BDE851
:1008B000F081121A5A604FF00008C3F808803146E0
:1008C0002846FFF72DFF202383F311883146284661
:1008D000FFF7A6FF88F31188E0E7202383F3118850
:1008E000012303FA06F6EB6D3343EB65D7F8343892
:1008F00023EA0606C7F83468002105F16000FDF719
:100900005FF8002383F31188D1E700BF00000000E7
:1009100070B5404B1D6D6C69AB691C406C6114F483
:10092000805F33D114F4005F18BFD5F8083814F095
:10093000080F05D0374B5B68DB680BB1354898472B
:1009400014F0100F2ED1D5F8185814F4802F0BD0B6
:1009500015F0010F35D115F0020F37D115F0040F46
:1009600039D115F0080F3BD114F4002F0BD015F43A
:10097000803F3AD115F4003F3CD115F4802F3ED191
:1009800015F4002F40D1FDF713FC70BD214E304609
:10099000FDF7E6FF73681B68002BC3D000213046CB
:1009A0009847BFE7202383F31188AB6923F0100336
:1009B000AB6100211848FDF703F8002383F3118889
:1009C000C1E700211348FFF743FFC4E701211148A5
:1009D000FFF73EFFC2E702210E48FFF739FFC0E7ED
:1009E00003210C48FFF734FFBEE700210948FFF759
:1009F000CFFEBFE701210748FFF7CAFEBDE702218E
:100A00000448FFF7C5FEBBE703210248FFF7C0FE1D
:100A1000B9E700BF601D0020C01D002000000000DD
:100A2000036D03EB4111D1F8003B43F40013C1F80F
:100A3000003B7047000000000000000000000000C4
:100A4000036D03EB4111D1F8003943F40013C1F8F1
:100A500000397047000000000000000000000000A6
:100A6000036D03EB4111D1F8003B23F40013C1F8EF
:100A7000003B704700000000000000000000000084
:100A8000036D03EB4111D1F8003923F40013C1F8D1
:100A90000039704700000000000000000000000066
:100AA00010B5094B4FF6FF721A80084C2046FDF72F
:100AB0007FFE074BE361074B236224336362064BDF
:100AC000A3623033E36210BD2C200020FC1F002005
:100AD0000030014000C402081600010600000000BA
:100AE00010B53049CB681C69DA681440E2B2D243D1
:100AF0001A614B681A7D2ABB14F0040F0BD00A78D8
:100B0000042A03D014F0020F0CD10EE09B68002BD6
:100B100032D00846984714F0020F06D0214B1B78BC
:100B2000042B2CD01F4B04221A7014F0010F06D096
:100B30001C4C63681B692046984703232370FDF70C
:100B400037FB10BD14F0020F0BD0164A1278042A9E
:100B500003D014F0040F0BD1E7E79B68BBB1114839
:100B6000984714F0040FE0D00E4B1B78042B11D0E3
:100B70000C4B04221A70D8E714F0020FD5D0094BA1
:100B80005B68DB68002BCDD006489847CAE714F0B5
:100B9000040FCAD0034B5B68DB68002BE8D0014828
:100BA0009847E5E73020002000000000000000002A
:100BB00010B5034C2046FDF713FC024BE36010BD5B
:100BC0003020002000040040000000000000000071
:100BD000F8B505468468E7682668636840F20F1335
:100BE0001E4221D06FF48073236043681A69DAB122
:100BF000B3B203F0080100290CBF0021102113F04B
:100C0000010F18BF41F0040113F0020F18BF41F0AB
:100C1000080113F0040F18BF41F0200113F4807F86
:100C200018BF41F04001904716F0400F0CD017F06C
:100C3000400F09D06FF0400323601F40E7606B68EE
:100C40005B680BB128469847F8BD00BF0000000064
:100C500008B50348FFF7BCFFFDF7AAFA08BD00BFBF
:100C600048200020000000000000000000000000FC
:100C700008B50348FFF7ACFFFDF79AFA08BD00BFBF
:100C800064200020000000000000000000000000C0
:100C900038B50C4D2846FDF7A3FD0B4BAB60062382
:100CA000EB600A4C2C6104F118036B61084D284677
:100CB000FDF796FD074BAB6004F16C032B61A83484
:100CC0006C6138BD4820002000480040ACC30208D9
:100CD000642000200014014000000000000000001B
:100CE00010B504460846FDF7A3F9034608B11846B7
:100CF00010BD0C2323604FF0FF33F8E70000000025
:100D000008B5FEF715FB08BD00000000000000005C
:100D1000704700BF0000000000000000000000005D
:100D200008B5054B9B69054A9A610A2404F030FE18
:100D30002046FCF7EDFDF9E7F0190020D0C50208C8
:100D40002DE9F0412DED048B454B9B69454A9A6195
:100D5000DFED458A4FF000089FED448A14E0B0EEC5
:100D6000480A01200FF0FCF83BE002F029FE07F0F2
:100D70009FF93AE009F084F807F09AF909F000FCCD
:100D800083786420FCF7C4FD09F062FC02280CBFE4
:100D9000B7EE000AB0EE680A40460FF0E1F809F03D
:100DA00027FC0028DBD00746002816DD002401269A
:100DB00040F6C415B7EE000A30460FF0D1F82846C9
:100DC000FCF7A6FDB0EE480A30460FF0C9F82846F9
:100DD000FCF79EFD0134BC42ECD141F28830FCF7B7
:100DE00097FD09F035FC0128BFD007F081F90446D2
:100DF00004281CD005281FD00328BBD009F0C0FB55
:100E00008378DBB2022BBCD1022C24D0062CB8D1C3
:100E10000CF03EF9B0EE409A0CF052F9F0EE400AB8
:100E2000B0EE490A04F08CFA07F042F9A9E709F09C
:100E30002FFE07F03DF9A1E709F022FEB0EE409A3F
:100E400009F026FEF0EE400AB0EE490A04F078FA06
:100E500007F02EF992E70CF01BF907F029F990E75B
:100E6000F0190020C0C50208CDCC4C3E00000000A7
:100E700000B5ADF5137DFDF7D3F9FCF7F1FA42F2B9
:100E80001070FCF745FD0FF0C3F81D4B20225A836C
:100E900010225A8306F02CF80FF02AF835A806F035
:100EA000E7FA35A809F0B4FA07F03AF800F0B8FA12
:100EB00003A806F085FA03A80FF08AFA08F0F0FDFF
:100EC0009DED050A049808F013FE0EF041FF002482
:100ED00000940C4B40224FF4B3610B48FCF700FD2B
:100EE00000940A4B40224FF406710948FCF7F8FCC5
:100EF00064242046FCF70CFD08F0BAFFF9E700BFB8
:100F000000080240410D010880200020210D010849
:100F10001826002000000000000000000000000073
:100F2000022906D0032906D00129064818BF00204F
:100F3000704705487047032A9ABF044800EBC20077
:100F400000207047C0C6020860C6020880C70208B9
:100F5000022914D110B50446202383F31188084ACE
:100F60000121FDF785FC074A02212046FDF780FCA0
:100F70000548FDF735FB002383F3118810BD70474A
:100F8000E0C5020810C6020830280020000000005A
:100F900010B5154C40F20A524FF400612046FEF79E
:100FA0003FFC40F20A524FF480512046FEF738FCD5
:100FB0000E4C2046FDF7CCFA0D492046FDF7F0FA1D
:100FC0000C4C226D936B23F40023936343F698201B
:100FD000FCF79EFC08492046FDF722FC226D936B2E
:100FE00043F40023936310BD00000240302800202A
:100FF00040C60208601D002050C602080000000024
:1010000008B540F20741044811F012F90AF0C8FE91
:10101000FDF7CEF808BD00BF002001400000000031
:1010200008B54FF4006011F06BFA00B908BD08F084
:1010300057FF4FF4006011F073FAF7E7000000006B
:1010400008B50121054811F0BBFE00B908BD08F044
:1010500087FF0121014811F0C3FEF7E700080040B7
:1010600008B50221054811F0ABFE00B908BD0CF02F
:101070005FFF0221014811F0B3FEF7E700040140D1
:1010800010B413685C1C14600C12C45413685C1C0C
:101090001460C1545DF8044B704700BF00000000AD
:1010A00010B413685C1C14600C0AC45413685C1CF4
:1010B0001460C1545DF8044B704700BF000000008D
:1010C00010B413685C1C14600C16C45413685C1CC8
:1010D00014600C14C45413685C1C14600C12C454C7
:1010E00013685C1C1460C1545DF8044B704700BF6A
:1010F00010B413685C1C14600C0EC45413685C1CA0
:1011000014600C0CC45413685C1C14600C0AC454A6
:1011100013685C1C1460C1545DF8044B704700BF39
:1011200008B560EE200AFDEEE00A0A4610EE903A9D
:1011300019B2FFF7A5FF08BD000000000000000085
:1011400008B560EE200A0A46FDEEE07A17EE901A26
:10115000FFF7B6FF08BD00BF000000000000000060
:1011600030B583B004460D4602A8002340F8043D84
:1011700012F026F8F0EEC07AB6EE007AF4EEC77AF6
:10118000F1EE10FA22DB77EEC77A77EEA77A9FEDC1
:10119000107A67EE877AFCEEE77A17EE901A019BD9
:1011A0007E330193019BDB0503F0FF43C1F316017E
:1011B0001943B5EEC00AF1EE10FA48BF41F0004104
:1011C0002A462046FFF794FF03B030BD0021E9E72F
:1011D0000000004B000000000000000000000000C4
:1011E0000B68C25C1844407840EA022002330B606E
:1011F00000B2704700000000000000000000000086
:1012000010B40B68C45C1844407802330B6040EAA9
:1012100004205DF8044B704700000000000000004F
:1012200030B40C68055D0319DA7842EA0562587833
:1012300042EA0042987804340C6042EA002030BC54
:10124000704700BF00000000000000000000000028
:1012500030B40C68055D0319DA7842EA0562587803
:1012600042EA0042987804340C6042EA002030BC24
:10127000704700BF000000000000000000000000F8
:1012800008B52DED028BB0EE408AFFF7C9FF07EEDF
:10129000900AB8EEE70A80EE080ABDEC028B08BDA2
:1012A00008B5FFF7D5FFC0F3C752C0F3160302B964
:1012B00083B100EE103ABBEEC40AF6EE007A30EECF
:1012C000270A7E3A0028B8BFB1EE400A104611F056
:1012D000A7FF08BD9FED010AF4E700BF0000000072
:1012E00010B5044B1A6814680A4601461846A04710
:1012F00010BD00BF302800200000000000000000EA
:1013000080B5104B9A69104991619A690F4B1A6028
:101310004FF001080E4C0F4E0F4F0EE05A1C22608A
:101320002946F85C04F05CFB2368B3F5006F08BF46
:101330002560236832689342F0D14046FCF720FDD7
:101340000025F6E7F0190020A0C70208C42A0020F3
:10135000084800200C480020084000200000000041
:10136000F0B5A1B0134B9B69134A9A616D46134EB9
:10137000134F012433685B6822462946304698475C
:101380000028F7DD3B682A46DFF83CC0591C12F8FC
:10139000014B0CF80340B1F5006F14BF0B4600235E
:1013A000511B8842F2DC3B600121064B1868FCF7B8
:1013B000D7FCDEE7F0190020C0C702083028002063
:1013C0000C480020C42A0020084000200000000033
:1013D00038B504460D46044806F0BAFD29462046B5
:1013E00006F0EEFF38BD00BFF11301080000000059
:1013F00070B505460E46064C2046FCF741FC00221F
:101400003146284604F074FA2046FCF749FC70BDCA
:10141000C82A0020000000000000000000000000BA
:1014200010B582B0FFF7B4FD00220D490D4804F05D
:101430004FFA0D48FCF7ACFB002400940B4B402204
:101440004FF466710A48FCF74BFA0094094B4022AE
:1014500041F298110848FCF743FA02B010BD00BFF2
:10146000D1130108E1120108C82A00206113010804
:10147000703C002001130108D82A00200000000061
:1014800091B110B441180023094C10F8012B82EAE5
:10149000132234F8122082EA03239BB28142F4D152
:1014A00018465DF8044B704700231846704700BF8C
:1014B000D0C702080000000000000000000000008B
:1014C0002DE9F04F2DED068B85B00290009103922F
:1014D0001846019301258D406B1E002B30DD6E10E8
:1014E0001346141D04306F1E002211469846DDF885
:1014F000049001E00434043096421FDC3346D21AD3
:101500005B109A42FBDA1A440131B94218D08A4280
:10151000F0DDD4F800A0D0F800E0930008EB030C55
:10152000DCF800B0C4F800B04B44D3F800B0C0F809
:1015300000B0CCF800A0C3F800E0DBE73346E2E7F8
:10154000009B002B40F39B80DFED5F8ABFEE008A9B
:101550004FF0010B0027B0EE68AAB7EE009AF6EE46
:10156000009A79E009EB0A0008EB0A0142464B4673
:10157000F44690ED007AD1ED007A27EE256A67EE09
:10158000856A76EE666A67EEA57A27EE057A77EECB
:10159000877A93ED007A37EE667A80ED007A92EDE5
:1015A000007A37EE677A81ED007A93ED007A77EE74
:1015B000266AC3ED006A92ED007A77EE277AC2EDD3
:1015C000007AB44420442144234422446545D0DCBD
:1015D00028EE257A68EE857A28EE055A68EEA55A37
:1015E00035EE855A0EF1010E09F1040908F10408DF
:1015F00077EE675ADE4502D07545B3DCE8E779EE51
:10160000487A67EEA97A17EE900AFAF7FDFE41ECE8
:10161000100B12F095F951EC100BFBF731FA08EEB4
:10162000900A029B0BB1F1EE688A38EE098A68EEE7
:10163000297A17EE900AFAF7E7FE41EC100B12F048
:101640007FF951EC100BFBF71BFA08EE100A01377B
:10165000B346009BBB4212D04FEA4B06BBF1000FD2
:10166000CDDDDDF80C90DDF80480B4004FEA8B0A84
:10167000B0EE4A5AF0EE495A4FF0000EBCE7029B1A
:10168000E3B1002D1ADD039C2146019B0422009842
:10169000824020461044024607EE905AF8EEE77A60
:1016A000D1ED006A86EEA77AA1EC017AD3ED006A4B
:1016B00086EEA77AA3EC017A8A42F1D105B0BDEC9F
:1016C000068BBDE8F08F00BF0000000000000000A6
:1016D00001EBD171491000290FDD10B4034600EB76
:1016E000810004461A68016843F8041B40F8042B83
:1016F000A342F7D15DF8044B70477047000000002B
:101700002DE9F0412DED068B0E4611F0010F26D08C
:10171000002957DD044600259FED2CAA4B1E08EE3C
:10172000903AF8EEE88ADFED2A9A9FED2A9A94ED36
:10173000008A07EE905AB8EEE70A20EE0A0A80EE19
:10174000280A11F0F5FB20EE290A39EE400A20EEB6
:10175000080AA4EC010A0135AE42E8D132E001EBFF
:10176000D1784FEA6808B8F1000F2BDD074600EB8F
:1017700081040025DFED159A4E1E07EE906AB8EE43
:10178000E78A9FED139ADFED138A07EE905AB8EEC1
:10179000E70A20EE290A80EE080A11F0C9FB20EEC4
:1017A000090A38EEC00AD7ED007A67EE807AE7ECD6
:1017B000017A74ED017A27EE800A84ED000A013582
:1017C0004545E2D1BDEC068BBDE8F081DB0FC94099
:1017D0001F85EB3E713D0A3F000000000000000045
:1017E0002DE9F84300AF0546164601248C4004233A
:1017F0008B400A3323F00703ADEB030D6B46002C3F
:101800001BDD07EE904AF8EEE77A27EE800AFDEE40
:10181000C07A17EE90EA9C4600224FF000084FF085
:101820007E599645CCBFC0F80090C0F800804CF8B7
:10183000048B013204309442F3D104EBD47C4FEAA0
:101840006C0CBCF1000F0BDD2A46042088402844B4
:1018500005EB8C0C52F804EB40F804ED6245F9D12D
:101860002A460120FFF72CFE21462846FFF730FFCD
:1018700016B9BD46BDE8F88321462846FFF740FF6C
:10188000F7E700BF000000000000000000000000BB
:1018900070B4C2F120044FF0FF35E54001249440BC
:1018A000002C16DD0C46042606FA02F211449FEDC8
:1018B0000A0AF4EC017A00EB830292ED007A67EEFB
:1018C000877A30EE270A01332B408C42F1D170BC6D
:1018D00070479FED010AFAE70000000000000000D9
:1018E000136800EB830080ED000A13680133C1F137
:1018F00020004FF0FF31C1400B401360704700BF24
:10190000074B1A691B69074908699B0903F0020321
:10191000400A00F004000343C2F3801018437047EC
:101920000004024000080240000000000000000027
:1019300030B486B08368059343680493C368039307
:101940000369029343690193DDED047A8A4B1A68B7
:1019500092ED167A059BF8EE677A67EE877AFCEED1
:10196000E77A17EE901A99420BD2DDED047A92EDE8
:10197000167AF8EE677A67EE877AFCEEE77ACDEDB5
:10198000057A7E4B002119609378DBB2012B33D0AE
:101990007B4B1B78DBB2012B44D01378DBB2022BDC
:1019A0005AD0059B5B080393049A0599059B521A2C
:1019B00003EB52030293049B029A463B934202D2EA
:1019C000049B463B0293029B0193049A059BB3EB55
:1019D000520F38D96B4B1B68002B00F0BA806A4B52
:1019E0001B68013B052B2ED8DFE813F09B009F00FE
:1019F000A300A700AB00AF00049B0A3B0293049B2B
:101A00000A3B0193059BB3F57A7F03D9059B5B08DD
:101A1000039318E0059B03F548730393574B01228A
:101A20001A6010E0059B5B080393049A0599059BD7
:101A3000521A03EB52030293049A0599059B521A1A
:101A400003EB52030193039BC360029B0361019B61
:101A5000436106B030BC7047049D023D049B05996C
:101A6000059C5B1A04EB530404990239049B9B0800
:101A70000393454A1368013B052BE4D8DFE803F0E4
:101A8000030F1B2733423F4B1B682BB1029101957B
:101A90003A4B02221A60D6E702910194D3E7394B00
:101AA0001B682BB102940195344B02221A60CAE7DD
:101AB00002940191C7E7334B1B6813B10294019163
:101AC000C1E7029401952D4B02221A60BBE72D4B12
:101AD0001B6813B102910194B5E702910195274B60
:101AE00002221A60AFE7274B1B682BB102950194C5
:101AF000224B01221A60A6E7029501911F4B012299
:101B00001A60A0E71F4B1B682BB1029501911B4B7C
:101B100001221A6097E702950194184B01221A607E
:101B200091E7164B01221A608DE7144B02221A60CE
:101B300089E7124B02221A6085E7104B01221A60D6
:101B400081E70E4B01221A607DE70C4B01221A60DF
:101B500079E70D4B1B68013B052B3FF674AFDFE8BF
:101B600003F0030715191D21044B01221A606AE7CF
:101B7000024B02221A6066E7244C00203C4C0020F5
:101B8000D4580020EC4C0020204C0020074B0222AF
:101B90001A6058E7054B01221A6054E7034B0122F3
:101BA0001A6050E7014B01221A604CE73C4C0020C0
:101BB00010B41E4B196801391D4802688A1A1D4B62
:101BC00083FB0243A3EBE27303EB4303A2EB430368
:101BD0000160032B1FDD063B5BB1174A51691944B5
:101BE00051614FF08040446A916921449161002223
:101BF000426212490A681A440A6011490A681A4482
:101C00000A60104A12685AB90F490A68D31A0B6061
:101C10005DF8044B704713F1020FB8BF0633DBE7E2
:101C200009490A6813440B60F2E700BF204C00200A
:101C300064520020ABAAAA2A04530020E4580020D2
:101C4000E0580020EC4C0020DC5800200000000090
:101C500008B503F01DFE1A4B1B78002B2DD1194B34
:101C60005B6A0A2B29D9174B5A6ADB6AA3F5FA7308
:101C70009A4222D2134B1A6842F002021A601249A9
:101C80000A6842F002020A600D4A5068D862906801
:101C90005863906898639068D863D0684863106907
:101CA000186450698863186820F0020018600B6897
:101CB00023F002030B600123137003F0F9FD08BD4C
:101CC000E85800200000014000040140000000002E
:101CD00070B5044603F0DCFD074E35460FCC0FC54A
:101CE00094E8030085E803000023337003F0E0FD6F
:101CF000FFF7AEFF70BD00BFE858002000000000F5
:101D000070B586B0104E86ED000A03F0C1FD6C463A
:101D10000E4D0FCD0FC495E8030084E8030003F0D7
:101D2000C7FDD6ED007AFDEEE77A17EE903A084A45
:101D300092FBF3F301936846FFF7FAFD6846FFF75D
:101D4000C7FF06B070BD00BFD8580020E85800207B
:101D5000007A030A000000000000000000000000FC
:101D600030B589B08DED010A03F092FD02AC434D10
:101D70000FCD0FC495E8030084E8030003F098FD3D
:101D80003F4C236893ED150AD3ED160A01A803F022
:101D90004FFA23689A78D2B2012A1ED0394A1278B3
:101DA000D2B2012A1ED01A78D2B2022A1AD093EDEA
:101DB000596A9DED017AB0EEC77AD3ED5A6AF7EE13
:101DC000007A77EEC77A67EE867A27EE267A77EE84
:101DD000877A2D4AC2ED007A08E0D3F86C112A4ABE
:101DE000116003E0D3F86811274A1160264AD2ED4A
:101DF000007AFDEEE77A17EE902A244991FBF2F281
:101E000003929A781AB91B78DBB2022B15D0DDED5C
:101E1000037AF8EE677A9DED017A67EE877AFCEE39
:101E2000E77A17EE903A9BB2049302A8FFF780FD81
:101E300002A8FFF74DFF09B030BD124B1B78DBB293
:101E4000012BE4D0DDED037A9DED037AF8EE677A9D
:101E5000F6EE006A67EEA67A9DED016A67EE867A75
:101E6000B8EE477A27EE267A77EE877AFCEEE77AA5
:101E700017EE903A9BB20493D7E700BFE8580020D2
:101E8000244C0020D4580020D8580020007A030A9F
:101E900070B5D44B1A689378DBB2012B56D0D24B75
:101EA0001B78DBB2012B00F0A680137803F0FF0251
:101EB000002B00F09D800425022A0CBF70242024F2
:101EC000012800F09B80022800F0F980032800F030
:101ED0005781042800F0BD81052800F01B820628E8
:101EE00040F0A882C14B1B68002B00F07482C04EEA
:101EF00020220821304610F08BFE012208213046B6
:101F000010F0E6FE00220821304610F0F9FE6022B3
:101F10000421304610F07CFE01220421304610F0EE
:101F2000D7FE2A460421304610F0EAFE2246002160
:101F3000304610F06DFE01220021304610F0C8FE40
:101F400004220021304610F0DBFE88E0A84C20225D
:101F50000421204610F05CFE01220421204610F0EE
:101F6000B7FE00220421204610F0CAFE9F4B1B68DA
:101F7000F3B160220021204610F04AFE0122002128
:101F8000204610F0A5FE04220021204610F0B8FEE5
:101F900020220821204610F03BFE01220821204685
:101FA00010F096FE04220821204610F0A9FE56E00B
:101FB0008F4C60220821204610F02AFE01220821C1
:101FC000204610F085FE04220821204610F098FEDD
:101FD00020220021204610F01BFE01220021204675
:101FE00010F076FE04220021204610F089FE36E033
:101FF0000025202464E70425202461E77B4B1B682F
:1020000073B37B4E20220021304610F001FE0122E6
:102010000021304610F05CFE00221146304610F0E0
:102020006FFE60220421304610F0F2FD01220421EF
:10203000304610F04DFE2A460421304610F060FE76
:1020400022460821304610F0E3FD012208213046E7
:1020500010F03EFE04220821304610F051FE70BD03
:10206000634E20220021304610F0D2FD01220021D3
:10207000304610F02DFE00221146304610F040FE92
:1020800060220821304610F0C3FD012208213046AD
:1020900010F01EFE2A460821304610F031FE22467E
:1020A0000421304610F0B4FD01220421304610F026
:1020B0000FFE04221146304610F022FECFE74B4BB4
:1020C0001B6873B34A4E20220421304610F0A0FD55
:1020D00001220421304610F0FBFD0022042130468D
:1020E00010F00EFE60220021304610F091FD01221A
:1020F0000021304610F0ECFD2A460021304610F059
:10210000FFFD22460821304610F082FD0122082101
:10211000304610F0DDFD04220821304610F0F0FDBD
:102120009DE7334E20220821304610F071FD012238
:102130000821304610F0CCFD00220821304610F076
:10214000DFFD60220021304610F062FD01220021F7
:10215000304610F0BDFD2A460021304610F0D0FD7B
:1021600022460421304610F053FD0122042130465E
:1021700010F0AEFD04221146304610F0C1FD6EE7AE
:102180001A4B1B68B3B31A4E20220821304610F0B8
:102190003FFD01220821304610F09AFD002208215F
:1021A000304610F0ADFD60220021304610F030FDC9
:1021B00001220021304610F08BFD2A4600213046D6
:1021C00010F09EFD22460421304610F021FD012230
:1021D0000421304610F07CFD04221146304610F0F8
:1021E0008FFD3CE7244C0020D4580020EC4C00200C
:1021F00000000140A74E20220421304610F008FDC7
:1022000001220421304610F063FD002204213046F3
:1022100010F076FD60220021304610F0F9FC01221A
:102220000021304610F054FD2A460021304610F0BF
:1022300067FD22460821304610F0EAFC0122082101
:10224000304610F045FD04220821304610F058FDBC
:1022500005E7914B1B6873B38E4E20220021304658
:1022600010F0D6FC01220021304610F031FD002292
:102270001146304610F044FD60220821304610F02F
:10228000C7FC01220821304610F022FD2A46082111
:10229000304610F035FD22460421304610F0B8FCDF
:1022A00001220421304610F013FD0422114630466D
:1022B00010F026FDD3E6774E20220021304610F0A4
:1022C000A7FC01220021304610F002FD0022114639
:1022D000304610F015FD60220421304610F098FCC5
:1022E00001220421304610F0F3FC2A460421304636
:1022F00010F006FD22460821304610F089FC01222C
:102300000821304610F0E4FC04220821304610F089
:10231000F7FCA4E6604B1B6873B35E4E20220421D9
:10232000304610F075FC01220421304610F0D0FC3C
:1023300000220421304610F0E3FC602208213046E0
:1023400010F066FC01220821304610F0C1FC2A463C
:102350000821304610F0D4FC22460021304610F00F
:1023600057FC01220021304610F0B2FC042200216B
:10237000304610F0C5FC72E6464E20220821304659
:1023800010F046FC01220821304610F0A1FC00228A
:102390000821304610F0B4FC60220421304610F0D1
:1023A00037FC01220421304610F092FC2A46042119
:1023B000304610F0A5FC22460021304610F028FCE3
:1023C00001220021304610F083FC04220021304617
:1023D00010F096FC43E62F4E20220421304610F0E8
:1023E00017FC01220421304610F072FC0022042167
:1023F000304610F085FC60220821304610F008FCC1
:1024000001220821304610F063FC2A46082130469C
:1024100010F076FC22460021304610F0F9FB012234
:102420000021304610F054FC04220021304610F008
:1024300067FC14E6174C40220021204610F0E8FB10
:1024400001220021204610F043FC002211462046C4
:1024500010F056FC40220421204610F0D9FB012246
:102460000421204610F034FC00220421204610F004
:1024700047FC40220821204610F0CAFB0122082117
:10248000204610F025FC00220821204610F038FCE0
:10249000E5E500BF00000140EC4C0020000000001A
:1024A00038B51F4B03221A7000251E4B1D601E4CB1
:1024B00040222946204610F0ABFB01222946204647
:1024C00010F006FC04222946204610F019FC402298
:1024D0000421204610F09CFB01220421204610F02C
:1024E000F7FB04221146204610F00AFC4022082186
:1024F000204610F08DFB01220821204610F0E8FB59
:1025000004220821204610F0FBFB2021204610F079
:102510004FFC064B1B6893ED5A0AFFF7F1FB38BDE1
:10252000D45800202C4E002000000140244C0020F4
:1025300010B51C4C40220021204610F069FB0122FE
:102540000021204610F0C4FB00221146204610F066
:10255000D7FB40220421204610F05AFB012204211F
:10256000204610F0B5FB00220421204610F0C8FBE5
:1025700040220821204610F04BFB01220821204672
:1025800010F0A6FB00220821204610F0B9FB202104
:10259000204610F00DFC044B1B6893ED5A0AFFF720
:1025A000AFFB10BD00000140244C002000000000E3
:1025B00008B50023034A1370034A1360FFF7B8FFFE
:1025C00008BD00BFD45800202C4E002000000000A1
:1025D00070B5184B00221A7010F062FC0123164AE5
:1025E0001370164A1370144C16460A2502E028464A
:1025F000FBF78EF92378002BF9D13378002BF6D135
:102600000F4810F0D5F84FF0804010F0D1F80D4889
:1026100010F0CEF80C4810F0CBF80FF0D9FC0B48B6
:102620000FF00EFE1220FCF713FC0948FCF720FE09
:1026300070BD00BF304E00200059002028530020FC
:102640000000014000040140001800407064024096
:1026500030C402080000000000000000000000007C
:10266000014B1878704700BF304E0020000000007A
:1026700070B489B0044601AD0D4E0FCE0FC596E87B
:10268000070085E80700621E0A49E01D12F9013FB4
:1026900041F8043B002BC2BF08AC04EB830353F8A2
:1026A0001C3C41F8243C8242F0D109B070BC704718
:1026B000F0C20208FC4D00200000000000000000F5
:1026C000034B01221A70034B83ED000A704700BFD1
:1026D000284C0020D058002000000000000000001E
:1026E00000B583B08DED010A2D4B1B68D3ED507AF8
:1026F000B0EEC00AB4EEE70AF1EE10FA32D493ED70
:10270000020AD3ED020AB0EEC00AF0EEE00AB1EE22
:10271000400A01A802F08CFD224B03221A70019A94
:10272000214B1A60214B1B78DBB2022B1FD01F4BB1
:102730001B78DBB2032B1AD0194B1A689378DBB2E3
:10274000012B17D01A4BD3ED007A92ED097AF0EEF7
:10275000E77AF4EEC77AF1EE10FA1EDD134B02228F
:102760001A7004E00F4B07221A70FFF721FF03B025
:102770005DF804FB0F4BD3ED007AF0EEE77A9FEDA6
:102780000E7AF4EEC77AF1EE10FA03DD074B02225F
:102790001A70ECE7FFF784FEE9E7FFF781FEE6E752
:1027A000244C0020284C0020C84C0020D458002085
:1027B00024530020F04C0020CDCCCC3D0000000084
:1027C000014B1868704700BF204C0020000000003B
:1027D000014B93ED000A7047F04C00200000000010
:1027E000014B93ED000A7047D8580020000000000C
:1027F000064B1B681BB1064B93ED000A7047044B58
:1028000093ED000AB1EE400A704700BFEC4C002087
:102810002453002000000000000000000000000021
:1028200010B50D4B1C68E37893B1E378DBB2022B53
:1028300003D00A4B00221A700DE0FFF7D9FFD4ED48
:10284000287AB0EEC00AB4EEE70AF1EE10FAF0DD35
:10285000024B01221A7010BD244C0020C8580020E1
:102860002DE9F04F2DED028BAFB0074603F010F8C5
:102870000024C04B1C70C04B1F600125BF4B1D6066
:10288000BF4B1C60BF4B1D600026BF4B1E60BF4B83
:102890001E60BF4B1E60BF4B1E60BF4B1E60BF4B18
:1028A0001E60BF4B1C60BF4B1C60BF4B1C60BF4B0E
:1028B0001C704FF00709BE4B83F80090BD4B1E60A3
:1028C000BD4B1E60D7F86831DFF86883C8F8003068
:1028D000BA4B1C60BA4B1C60BA4B1C60BA4B1C60F4
:1028E000BA4B1C605C609C60DC601C615C619C613C
:1028F000B74B1E60B74B1E60B74B1E60B74B1C60DA
:10290000B74B1E60B74B1C605C609C60DC601C6158
:102910005C61B54B1C70E0222146B44812F078FE91
:10292000FFF77EFF7B78DBB2B14A1370B14B1C60BE
:10293000B14B1E6007F19800FFF79AFE9FEDAF8A3A
:102940002A464946B0EE480AAD48FEF749FF2A46F6
:102950004946B0EE480AAB48FEF742FF2A4604213A
:102960009FEDA90AA948FEF73BFFA94E30460FF09C
:102970001FFFA84F38460FF01BFF74627C62294688
:1029800028460FF0CDFEADF8AC40ADF8AE40D8ED26
:10299000007AFDEEE77A17EE903A9F4A92FBF3F346
:1029A0002C93ADF8B4408DF8B6402BA930460FF00B
:1029B000CFFF4FF06003ADF89830ADF89A504FF06C
:1029C0000402ADF89C20F36AEB402893ADF8A440D4
:1029D000ADF8A6404FF4807BADF8A8B04FF400727C
:1029E000ADF8AA2026A9304610F022F826A93046D4
:1029F00010F056F826A9304610F092F826A9304675
:102A000010F0CEF80821304610F032F90821304697
:102A100010F036F90821304610F042F9082130460E
:102A200010F046F94FF40069ADF888904FF4806AD1
:102A3000ADF88AA0ADF88C403C23ADF88E30ADF8EF
:102A400090404FF40058ADF89280ADF8944022A920
:102A5000304610F06DF92946304610F089F92946C4
:102A600030460FF0C5FF29466C480FF039FE294665
:102A70004FF4E0600FF054FE2346694A0321694891
:102A8000FCF7A6FB0F94684B1193684B10931294BC
:102A90000C2313931494CDF854A0CDF85890CDF88E
:102AA0005C80CDF860B04FF4003319931A941B94F6
:102AB0001C941D94DFF880810FA940460FF070FC34
:102AC000294640460FF09CFC2A46102140460FF054
:102AD000A7FC16231E931F944FF480432093219448
:102AE0001EA80FF0ADFA09948DF828508DF82940F2
:102AF0004FF000530B934FF050630C930D944FF035
:102B000004018DF83810A8F5A238A8F1700809A9B9
:102B100040460FF06DFA0B940C94DFF8209109A950
:102B200048460FF065FA09A941480FF061FA2846B6
:102B30000FF0AEFA28460FF003FB214640460FF097
:102B400047FB4FF4402148460FF042FB4FF4001181
:102B500040460FF045FB4FF4001148460FF040FB94
:102B6000022140460FF02CFB022148460FF028FBC3
:102B700066E000BF304E0020244C0020204C002096
:102B8000E84C0020EC4C002024530020F44C0020A2
:102B9000F04C0020D0580020E8520020C84C002003
:102BA000DC580020E0580020E4580020D4580020D1
:102BB000284C00203C520020405200202C4E002087
:102BC0003C4C0020CC5800201C4E00200453002018
:102BD000D44C0020D04C002000530020FC52002098
:102BE000485200204C520020E04C0020FC4C0020B9
:102BF0001C4C0020184C0020F84C00200AD7A33CA5
:102C0000344E0020104800209A99193E444C002070
:102C10000000014000040140007A030A0500400062
:102C20004144010830C402084498002008230140B0
:102C300000220140D8580020706402400021014069
:102C40000DF096FA2A4640F2074140460FF0E0FAAE
:102C500006211220FCF7E4F8294640460FF008FA56
:102C6000294648460FF004FA294688480FF000FA32
:102C7000294602200FF054FDADF8AC40ADF8AE404F
:102C80004FF6FF732C93ADF8B4408DF8B6402BA9E6
:102C900038460FF05DFE4FF06003ADF89830ADF8A8
:102CA0009A504FF4FA732893ADF8A440ADF8A640BB
:102CB000ADF8A8B04FF40072ADF8AA2026A93846A6
:102CC0000FF0B6FE082138460FF0D2FF26A938468D
:102CD0000FF0E6FE082138460FF0D2FF26A938464D
:102CE0000FF01EFF082138460FF0DAFF294638465C
:102CF0000FF07EFE2946384610F03AF8294638464D
:102D000010F026F82021304610F07AF88021304665
:102D100010F096F82146384610F06AF8042138463B
:102D200010F07EF8294630460FF072FE29463846EC
:102D30000FF06EFE2946304610F00AF82946284664
:102D40000FF0DEFC4FF0FF332C935323ADF8AC3083
:102D5000ADF8B440ADF8AE402BA94FF080400FF075
:102D6000F7FD29464FF080400FF052FEFFF7E0FBE1
:102D7000F36A0493F36AEB40059303A8FEF7D8FDCA
:102D800003A8FEF7A5FF02F093FD414BA3F818A09E
:102D9000A3F580634FF480525A831A8341F2893439
:102DA0003B4D0A262B6913F4805F04D13046FAF7B5
:102DB000AFFD013CF6D142F21070FAF7A9FD0023F5
:102DC000344A1360344A1360344A13601368B3F50D
:102DD0007A6FFBDB2F4B1B68304A116893FBF1F3D2
:102DE0002F490B602C4B1B68126893FBF2F32D4AA2
:102DF00013602D4B4FF480525A8301252B4B1D70CD
:102E0000294640200FF07CFC4FF0FF332C93072322
:102E1000ADF8AC300024ADF8B440ADF8AE40244E6F
:102E20002BA930460FF094FD294630460FF0F0FDF7
:102E3000204B1C70204B1C700094204B402240F60D
:102E400098111F48FAF74CFD00941E4B40224FF496
:102E5000B3611D48FAF744FD29464FF400600FF0B6
:102E60004FFC204610F02CF8FF2010F039F86420B9
:102E700010F056F8154B1C60154B1C60154B1D705F
:102E80002FB0BDEC028BBDE8F08F00BF00220140E7
:102E900000080240304C0020384C0020404C0020FC
:102EA0002C4C0020344C002000040240E04C002058
:102EB00000180040005900202853002091300108DC
:102EC00008590020513F010830530020DC580020F1
:102ED000E0580020304E00200000000000000000FC
:102EE00030B587B0324B1968324A1160324A1168E6
:102EF00001391C68314A02EB8102146000221A6019
:102F00002F4B00221A602F4A1368034413602E4B84
:102F10001B689B784BBB2D4B1B7833B3264B1A6831
:102F2000104418601B68062B06DD234A1368063B15
:102F300013601368062BF9DC1F4B1B68002B06DCA3
:102F40001D4A1368063313601368002BF9DDFEF782
:102F50002FFE1F4B1B78DBB2022B02D0FFF760FC69
:102F600024E0154B1868FEF793FF202119480FF055
:102F70001FFF194B01221A6002F08AFC6C46174DA4
:102F80000FCD0FC495E8030084E8030002F090FC25
:102F90006846FEF7CDFC6846FEF79AFEFFF740FC58
:102FA000094B1A680E4B1B78DBB2537007B030BD6B
:102FB0000053002048520020204C00204C5200209A
:102FC000FC520020184C0020244C0020C85800203F
:102FD000D4580020000001401C4E0020E85800207A
:102FE0001C4C002000000000000000000000000059
:102FF00010B504460A4B07221A70FFF7D9FA02F0FF
:1030000047FC084B1C606378DBB2074A137004F17D
:103010009800FFF72DFBFFF703FC02F049FC10BD01
:10302000284C0020244C00201C4C002000000000F4
:10303000014B1878704700BFD458002000000000F2
:103040000D4B93ED000A0D4B1B8A9BB207EE903A95
:103050000B4B93ED007AF8EE677ADFED0A6A67EEC4
:10306000A67ADFED096A67EEA67AB0EEC77A67EE58
:10307000877A80EE270A7047245300204498002066
:10308000F04C00206740533A74D195410000000095
:10309000F8B52DED028B724B9B69724A9A61724BA7
:1030A0001B7833B9714C0027714E724D9FED728AB7
:1030B000B7E06D4B00221A70BDEC028BF8BD6F4B70
:1030C0001B6807226E496F48FEF7E2FB6E4B1A68D9
:1030D0009378DBB2012B2FD06C4B1B78002B3AD1AD
:1030E0006B4B1B6813F1030F76DA6A4B1B68012BDD
:1030F000684B0CBF002101211960654B002119604C
:10310000644B1B68012B644B1B8A9BB218BFB1EE4A
:10311000400A07EE903AF8EE677A80EE277A5F4B26
:1031200083ED007A92ED160AD2ED160AB1EE400A4E
:103130005A4802F07DF87BE0B5EEC00AF1EE10FAD5
:1031400003DD544B00211960DAE7524B012119606D
:10315000B1EE400AD4E7002306EE907A07EE906ABB
:1031600005EB830191ED007AB4EEE77AF1EE10FA07
:1031700048BFD1ED007A05EB830191ED007AB4EE02
:10318000E67AF1EE10FAC8BFD1ED006A0133062BE2
:10319000E6D136EEE76A77EEA67AB6EE007A67EE0B
:1031A000877A86EE277AB4EEC87AF1EE10FA0FDD50
:1031B000374B1B680C2BA3DD364B1B68012B354BA3
:1031C0000CBF002101211960314B0021196097E7E4
:1031D0002F4B0021196093E72D4B1B68002B8FDDCF
:1031E0002B4B002119608BE72D4B00221A602378AE
:1031F000DBB2022B24D023785BB9234B1B6893ED01
:10320000157A264BD3ED007AB4EEE77AF1EE10FA98
:103210001ED90A20FAF77CFB134B1B78002B7FF496
:1032200048AF2378002B3FF44AAF194B00221A60B5
:103230001B4B1B680133092BD6DC194A1360E8E7E6
:10324000FFF7FEFE174A07211748FEF749FBE0E7A4
:10325000FFF7F6FE134A07211348FEF741FBD8E7B4
:10326000F0190020E0C9020800590020D4580020BD
:10327000E78411554C5200209A99993F104A00203A
:1032800010480020144A0020244C0020C858002078
:10329000E4580020EC4C002044980020F04C002022
:1032A000144C002034500020385000200000000052
:1032B00008B5044B1B68072203490448FEF7E8FAE7
:1032C00008BD00BF34500020344E0020385000208C
:1032D000014B93ED000A70473C52002000000000B3
:1032E000014B93ED000A704740520020000000009F
:1032F000064B93ED000A064BD3ED007AF5EEC07A4B
:10330000F1EE10FAD8BFB1EE400A70473C520020EF
:10331000F04C002000000000000000000000000051
:10332000064B93ED000A064BD3ED007AF5EEC07A1A
:10333000F1EE10FAD8BFB1EE400A704740520020BB
:10334000F04C002000000000000000000000000021
:10335000054B93ED000A054BD3ED007AF0EEE77ACA
:1033600027EE800A704700BF40520020F04C00203A
:10337000034B1B6810B1024A0021116018467047C8
:10338000DC580020000000000000000000000000E9
:10339000034B1B6810B1024A0021116018467047A8
:1033A000E0580020000000000000000000000000C5
:1033B0000E4B93ED007A0E4B1B68D3ED4E7AB8EEB0
:1033C000C77ADFED0C6A27EE267AF1EE086A67EE1F
:1033D000A67ADFED096A67EEA67AC7EE276A074B81
:1033E000C3ED006A93ED000A704700BF184C00203F
:1033F000244C00200000B4430000A442F84C0020FC
:1034000008B5034B07221A70FFF7D2F808BD00BFBA
:10341000284C002000000000000000000000000018
:10342000F8B52DED028BA74B00225A62A64E14214F
:1034300030460EF0DDFE0546A44F142138460EF04E
:10344000D7FE0446182138460EF0D2FE1821304629
:103450000EF0CEFE9E4B1B6813F0010F02D09D4B69
:10346000188985B228469A4B1B6813F0020F02D0C8
:10347000984BDA8894B2984A136803441360974AC9
:10348000136823441360964A136801331360954907
:103490000B68954B1A680A68801A1A68A21A09689C
:1034A0001B68924B18605A601A6859680A44524265
:1034B0009A608F4B1B689B78DBB2012B14D08D4B2D
:1034C0001B78DBB2032B2AD08B4B1B68002B00F040
:1034D000BC808A4B1B68013B052B00F2EC80DFE8C7
:1034E00003F04390989EA4AC834B1B685BB1794B6F
:1034F000DB887D4A12689B1A08EE103AB8EEC88A3B
:10350000B1EE488AAFE1734B1B89764A12689B1A69
:1035100008EE103AB8EEC88AB1EE488AA3E1734BC0
:10352000D3ED007AF8EEE77AD3ED016AF8EEE66AB9
:1035300093ED027AB8EEC77A67EEA77A66EEA66ACE
:1035400077EEA67A27EE077A77EE877AB7EE087AD3
:1035500087EE870AB1EEC08AB5EE400AF1EE10FAA6
:103560001BD510F02DFB18E0604BD3ED017AF8EE7F
:10357000E77AF1EE677A614B1A68614B1B689A42F1
:103580001ABF604B93ED008AB0EE678A5B4B1A68F6
:103590005B4B1A605B4BC3ED007A5B4B1B68042BE3
:1035A00000F0BC80584B1B68002B00F05681013B9B
:1035B000554A13604F4A1278D2B2012A40F0538123
:1035C000002B40F05081504B05221A609FED4F0AAE
:1035D000FEF7C6FB4E4B1A6801321A601B68052BBA
:1035E00002DD4B4B00221A60494B1B680133434AF2
:1035F00013601068FEF74CFC202146480FF0D8FB02
:1036000031E13A4BD3ED017AF8EEE77AF1EE677AE1
:10361000B1E7364BD3ED007AF8EEE77AABE7334B00
:10362000D3ED017AF8EEE77AA5E7304BD3ED007AD7
:10363000F8EEE77AF1EE677A9DE72C4BD3ED007A4E
:10364000F8EEE77AF1EE677A95E72C4B1B68013BC1
:10365000052B33D8DFE803F003090F171F27234B8F
:10366000D3ED017AF8EEE77A85E7204BD3ED007AC7
:10367000F8EEE77A7FE71D4BD3ED017AF8EEE77AB3
:10368000F1EE677A77E7194BD3ED017AF8EEE77A36
:10369000F1EE677A6FE7154BD3ED007AF8EEE77A33
:1036A000F1EE677A67E7114BD3ED007AF8EEE77A2F
:1036B000F1EE677A5FE7DFED187A5CE7DFED167A07
:1036C00059E700BF001800400020014000210140E0
:1036D0003C4C002044980020304C0020384C002006
:1036E000404C00202C4C0020344C00205C980020E2
:1036F000244C0020D4580020EC4C0020204C00200A
:1037000008100020F8520020E44C0020CDCC4C3EA4
:10371000E84C002000000140000000007A4B93EDCF
:10372000007AB8EEC77AB0EEC77AD3ED017AF8EE38
:10373000E77AF0EEE77AB4EEE77AF1EE10FA734B3F
:103740001A68734B03EB8203CCBF83ED007AC3EDA1
:10375000007A6E4B1B68002B21DD6C490B68013B26
:103760006B4A02EB8303D3ED007A0B6802EB830212
:1037700092ED007A0A6877EEC77A664B03EB820314
:10378000C3ED007A644B1B8A5A08644B1B68013BEB
:10379000052B24D8DFE803F01543521543525C4B48
:1037A000D3ED057A594A116803EB810393ED007A52
:1037B000126877EEC77A574B03EB8203C3ED007AAA
:1037C000E0E7554B9B88514909689B1A07EE903AF0
:1037D000F8EEE77A524B03EB8103C3ED007A4B4AD4
:1037E00011684B4B03EB810393ED007A11684D4B4D
:1037F00003EB8103D3ED007A77EE877AC3ED007A8D
:103800001268494B03EB8203D3ED007AB7EE007ADE
:1038100077EE877AC3ED007AFEF78AFEC2E63E4B6A
:103820005B883A4909689B1A07EE903AF8EEE77A06
:103830003B4B03EB8103C3ED007AD0E7364B1B888B
:10384000324909689B1A07EE903AF8EEE77A344B52
:1038500003EB8103C3ED007AC1E7344B1B78DBB285
:10386000012B3FF4B0AEDFED327A28EE278A314BE0
:1038700083ED008A93ED007A2F4B1B68D3ED057A18
:10388000B0EEC77ADFED2D6A67EEA67AB4EEE77A7E
:10389000F1EE10FA15DD274AD2ED007AF5EEC07A86
:1038A000F1EE10FAFFEE007AB7EE007A48BFB0EE04
:1038B000677AD3ED057A67EE877A67EEA67AC2ED6E
:1038C000007A1C4B93ED000A1D4D1E4C2A46042124
:1038D0002046FEF705F82B6804221B492046FDF719
:1038E000D7FF1A4B83ED000A194BD3ED097AF8EE96
:1038F000677ADFED186A87EEA67A174B83ED007AB8
:10390000BDEC028BF8BD00BF5C980020E84C0020A5
:1039100084520020B452002044980020204C002003
:10392000CC5200209C5200206C520020D458002021
:10393000500AA53D3C520020244C00209A99993F02
:10394000844C0020884C0020444C00204052002031
:10395000001800408096184B4452002000000000E0
:1039600070B507F0FDF800B170BD04460E4B07229C
:103970001A70FEF7DDFD0D4B1B6893ED5A0AFEF73A
:10398000BFF90B4E00220B4D0B48A300F1180A6043
:10399000E9180A6003441A600134062CF5D1074B7C
:1039A00001221A70E0E700BF284C0020244C0020C0
:1039B000845200209C5200206C520020D4580020D9
:1039C00030B52DED048B83B0414A92ED007A414B26
:1039D000D3ED007AC7EE278A92ED017AD3ED017A12
:1039E00087EE279A92ED027AD3ED027A87EE278A44
:1039F00092ED037AD3ED037AC7EE276A92ED046A5B
:103A0000D3ED047A86EE277AD2ED055A93ED056A56
:103A1000C5EE867A00222E4D00211C469300E81840
:103A20000160234419600132062AF7D178EEA68A94
:103A300039EE079A38EE278A38EE897A37EE087A17
:103A4000F0EE086AC7EE267A78EEE78A39EE679AD2
:103A500038EE678A68EEA87A29EE097A77EE877AD7
:103A600028EE087A77EE877AB7EE087A87EE870A2B
:103A7000F1EEC09AB5EE400AF1EE10FA25D488EEC8
:103A8000A90A0FF0BDFFDFED147A20EE270ADFED63
:103A9000137A80EE277AC9EE296AC8EE297AF4EE05
:103AA000E76AF1EE10FA51BF8DED017ADFED0A7A87
:103AB00077EEC77ACDED017A01A801F071FB9DED9B
:103AC000010A03B0BDEC048B30BD10F079F8D6E7E5
:103AD0009C5200206C52002000003443DB0F494010
:103AE000054991ED000A054BD3ED007A00220A60EA
:103AF0001A6080EE270A7047D44C0020D04C00207A
:103B0000014B93ED000A704738520020000000007E
:103B1000014B93ED000A7047445200200000000062
:103B200070B406460446054D0FCD0FC495E8070056
:103B300084E80700304670BC704700BF0453002083
:103B4000014B1878704700BFE04C002000000000D7
:103B5000014B1870704700BF1C4C00200000000093
:103B60002D4B1B6893F85C31002B4FD1F0B589B019
:103B700007464FF0000CE646284E15E03970013339
:103B8000072B0BD0EC1856F824409442F6DDEA18C7
:103B900056F822200F2AC8BF1946EFE70CF1010C96
:103BA0000137BCF1080F06D001234FF0FF317246F8
:103BB000CCEBCC05E6E70021019102910391049141
:103BC000059106910791421E07300D46012602E03D
:103BD0000131904212D012F9013FB3F1FF3FF7D00B
:103BE00008AC04EB830454F81C4C002CF1D108AC55
:103BF00004EB830343F81C6C0135EAE7022908D182
:103C0000A81F18BF4FF0FF3009B0F0BD6FF00200E1
:103C100070474FF0FF30F7E7244C0020FC4C0020A9
:103C200008B5E0220021024811F0F2FC08BD00BFF7
:103C3000FC4C00200000000000000000000000001C
:103C400008B5FDF75DFE054B1B68002B14BF08236C
:103C500000231844024B53F8200008BDEC4C002010
:103C6000DC4D00200000000000000000000000000B
:103C700008B5604B1B68D3ED157AF4EEC07AF1EE0F
:103C800010FA1BD85C4A01211160D3ED157AF4EECD
:103C9000C07AF1EE10FA3CDD584A1278D2B2022A0C
:103CA0001BD0564A1278D2B2032A16D0534A127841
:103CB000D2B2012A11D0D3ED097A10E0D3ED157AF2
:103CC000F1EE677AF4EEC07AF1EE10FADDDBB1EED8
:103CD000400A494A00211160D7E7D3ED0A7A484AE1
:103CE0001278D2B2012A11D0022A11D1454A92ED9E
:103CF000007AB0EEC77AB4EEE77AF1EE10FA02DDA0
:103D000093ED150A0EE0FEF7CBFB01E0FEF750FC49
:103D100008BDD3ED167AF4EEC07AF1EE10FA48BF82
:103D200093ED160AFEF71CF8324B1A689378DBB253
:103D3000012B1ED0344B1B78002B47D0304B1B7807
:103D4000DBB2022BE4D02E4B1B78EBB92C4B0221BB
:103D500019702C4BD3ED007A92ED1F7AF0EEE77AD2
:103D6000F4EEC77AF1EE10FAD2D50120FFF7B8F8D9
:103D7000CEE7234B02221A70244B1868FEF788F80E
:103D80000120FFF7ADF8C3E71D4B1B78DBB2032B17
:103D9000BED11C4BD3ED007A92ED1F7AF0EEE77A9C
:103DA000F4EEC77AF1EE10FAB2D5194BD3ED007AE2
:103DB00092ED217AB4EEE77AF1EE10FAA8DD104B1D
:103DC00002221A700120FFF78BF8A1E70C4B1B7839
:103DD000DBB2022B9CD00A4B02221A70FFF730FF95
:103DE0000A4B18601868FEF753F80120FFF778F8BF
:103DF0008EE700BF244C0020EC4C0020284C002013
:103E0000D458002024530020C8580020204C002003
:103E100040520020000000000000000000000000F0
:103E200000B583B002A820ED010A3B4B1B6893ED5F
:103E3000160AD3ED160AB1EE400A01F0F9F9374B34
:103E40001B78DBB2012B39D0DDED017A344BC3EDA9
:103E5000007A324B1B78DBB2022B2CD02E4B1B6826
:103E600093ED157AF0EEE76AF4EEC76AF1EE10FA18
:103E700027DB2C4A92ED007AD3ED156AB0EEC77AB3
:103E8000B4EEE67AF1EE10FA10D5F5EEC07AF1EE66
:103E900010FAFFEE007AB7EE007A48BFB0EE677A0C
:103EA000D3ED157A67EE877AC2ED007A1D4B93ED5C
:103EB000000AFFF7DDFE03B05DF804FBFEF778FBB8
:103EC000F9E79A78D2B2012A0FD0174AD2ED007AD8
:103ED00093ED097AF0EEE77AF4EEC77AF1EE10FA94
:103EE00016DD0E4B02221A70E5E70E4BD3ED007A79
:103EF000F0EEE77A9FED0D7AF4EEC77AF1EE10FA64
:103F000003DD064B02221A70D5E7FEF7C9FAD2E7A5
:103F1000FEF7C6FACFE700BF244C0020D45800209B
:103F2000F44C0020F04C002024530020CDCCCC3D9C
:103F300008B5034B00221A70FFF772FF08BD00BFDF
:103F4000284C0020000000000000000000000000DD
:103F5000D64B9B69D64A9A61D64B1B78002B40F012
:103F6000EE812DE9F0432DED088B83B0D24C9FED0F
:103F7000D39AD34DDFEDD38AD34ED44FC3E0CD4B8C
:103F800000221A7003B0BDEC088BBDE8F08301F08D
:103F90007FFC94ED058AD4ED069A00236361A3614A
:103FA00001F086FCB8EEC88ADFEDC97A28EE278AD0
:103FB00028EE288AF8EE699AF1EE087A69EEA79A57
:103FC000C8EE297AC5ED007AC24BD3ED007A95EDA3
:103FD000007A37EEC77ADFEDC06A27EE267A77EEF1
:103FE000C77AC3ED007AC5ED007A95ED008AB0EE90
:103FF000C88A3268D2F888302360D4ED006A3B8AE0
:104000009BB207EE903A92ED257AF8EE677A67EE6A
:10401000877A92ED1F7AB4EEC87AF1EE10FA54BFA7
:1040200092ED1F6AB0EE486A87EE867A77EE267ABE
:10403000C4ED017A92ED241AD4ED011A94ED012A0F
:10404000D2ED237A22EE272ADFEDAE0AB0EE480A3F
:1040500001F02EF984ED010AD4ED006A3B8A9BB28F
:1040600007EE903AD6F8008098ED257A98ED206A10
:10407000F8EE677A67EE877A87EE867A77EE267AA9
:10408000C4ED027A94ED017AF7EE007AB4EEE77AA5
:10409000F1EE10FA44BF17EE903A636094ED017AA6
:1040A000D4ED027AB4EEE77AF1EE10FAC4BFA36859
:1040B000636098ED5A6A88EE287AF1EE086A27EE76
:1040C000267AC6EE077AC4ED037A98ED5A6A98ED1F
:1040D0001F7AC7EE287A67EEA67A86EE277A84EDF5
:1040E000047A7E4B1B78DBB2012B28D000237C4A5C
:1040F00013607C4A13600A20F9F70AFC6D4B1B78A9
:10410000002B7FF43CAF6369002B7FF440AF4FF08E
:104110008043D3ED097AF8EE677AB1EE087A67EE5C
:10412000877A89EE277AD5ED007AF0EEE77AF4EE19
:10413000C77AF1EE10FAC8BF85ED007A44E7FEF7C2
:1041400057FBB0EE40AA684B93ED008A38EE408AE8
:10415000D3ED007A98ED497AF0EEE77AF4EEC77A7B
:10416000F1EE10FA0BD5614B1A685D4B1A605D4B8E
:1041700083ED008A9FED630AFFF7DAFEBBE7D8ED17
:1041800046AAD8ED477ADFF858919FED597A67EE45
:10419000877A67EE887A9FED57BA67EE8B7AD9ED0A
:1041A000006A77EEA67AC9ED007AD8ED486ADFF8A2
:1041B0003481D8ED009A78EE699AC6EE877A69EE76
:1041C000A79A69EE8B9AF7EE000ABFEE000A4846FE
:1041D00001F02EF888ED008A474BD3ED007A77EE98
:1041E000E99A9FED3D7A69EE879A77EEE99AC3EDF9
:1041F000009A68EE2A7A67EE8B7A99ED008A77EE5C
:10420000887A77EEA97A02A860ED017AF7EE000AC3
:10421000BFEE000A01F00CF8336893F8282182B948
:10422000B5EEC0AAF1EE10FA06DDDDED017AF5EE8D
:10423000C07AF1EE10FA25D4B5EEC0AAF1EE10FA6C
:1042400062D4D3ED197A9DED017A67EE877A2B4A15
:10425000C2ED007A2A4A1278D2B2022A3FF44BAF5A
:10426000B5EEC07AF1EE10FAFFEE007AB7EE000A72
:1042700058BFF0EE407A93ED150A20EE270AFFF7BB
:10428000CFFD38E79FED1F7A8DED017AD3ED197AD6
:1042900067EE877A194AC2ED007A194A1278D2B2CB
:1042A000022A3FF428AFF7EE007AE4E7F019002085
:1042B000D0C902082853002004530020C0E1644CF8
:1042C0002453002000007042244C00204498002019
:1042D0000024744920530020CDCCCC3D284C002034
:1042E000204E0020EC520020D0580020F04C00203E
:1042F0006F12833ACDCC4C3DDC4C0020C84C0020E2
:10430000D458002000000000DDED017AF5EEC07AFF
:10431000F1EE10FA95DD1FED057A8DED017AD3ED02
:10432000197A67EE877A084AC2ED007A074A12784E
:10433000D2B2022A3FF4DFAEF7EE007A9BE7044BDD
:1043400000221A70704700BFC84C0020D4580020CB
:1043500028530020000000000000000000000000C2
:1043600008B5094B04221A70084B83ED000A084B6C
:104370001B78DBB2022B05D0064B1B6893ED150AA8
:10438000FFF74EFD08BD00BF284C0020E85200207A
:10439000D4580020244C0020000000000000000041
:1043A00000B583B08DED010A1E4B1B68D3ED507A2A
:1043B000B0EEC00AB4EEE70AF1EE10FA29D493ED9C
:1043C000010AD3ED010AB1EE400A01A800F030FF66
:1043D000154B02221A70DDED017A144BC3ED007A01
:1043E000134B1B78DBB2934218D0F5EEC07AF1EE96
:1043F00010FAFFEE007AB7EE000A58BFF0EE407AEE
:10440000084B1B6893ED150A20EE270AFFF708FDFD
:1044100004E0054B07221A70FEF7CAF803B05DF8F6
:1044200004FB00BF244C0020284C0020C84C002076
:10443000D458002000000000000000000000000030
:104440002DE9F0472DED068B82B0AD4B00225A626C
:10445000FDF7FEFB64200EF05BFDAA4B1C8AA4B2A4
:10446000A94B1B78DBB2022B21D0A84B00221A608B
:10447000A74B1A68A74B1A60A74B1B689B78002BA9
:1044800040F07082A14B1B68C3B1A44BD3ED007AFE
:10449000F0EEE77A9FEDA27AF4EEC77AF1EE10FA29
:1044A0000CDD984B1B8A5B089E4A136011E0984B09
:1044B0001A68984B1B689A42D7D1D9E7914A9188DC
:1044C000538812880B441344974A82FB0323954A6E
:1044D00013608F4B1B68002B59D08A4B9D88914AE3
:1044E00011686D1A5F8811687F1A1E881268B61AE3
:1044F000B3F804801FFA88F8B3F802A01FFA8AFA0A
:10450000B3F800901FFA89F9FDF7A2FB7F4B1B68F7
:10451000002B54D0814BD3ED007A7A4B1B8A9BB28F
:1045200000EE103AF0EEE77AB8EE400A27EE800A85
:104530007E4A07217E48FDF7D3F97E4B1B78002B7E
:1045400000F0E8817C4B93ED047A7C4BD3ED007A4C
:10455000B4EEE77AF1EE10FA04D86B4B1B78DBB2BD
:10456000022B45D0684B1B78DBB2022B54D0664B34
:104570001B78002B40F08581714B1B68013B052B9C
:1045800000F2EE80DFE803F04FB14DB4B6B95D4BF9
:104590009D88644A11686D1A1F8811687F1A5E88A9
:1045A0001268B61AB3F804801FFA88F8B3F800A0AE
:1045B0001FFA8AFAB3F802901FFA89F9A4E707FBF9
:1045C00007F305FB053306FB063300EE103AB8EEA1
:1045D000C00AB1EEC08AB5EE400AF1EE10FA04D47A
:1045E0009FED580A28EE000AA2E70FF0E9FAF7E774
:1045F000494B1B685A783AB15B78DBB2012B07D084
:10460000514B00221A60ADE70220FEF769FCF7E784
:104610000120FEF765FCF3E74C4B1B68012BABDC7C
:10462000A5E7C8463546312D0CDCFDF769F9444B4A
:104630001B68474AC0EBC000184452F820300133D1
:1046400042F8203005F10903122B40F28D80002D35
:1046500040F38B80314B93ED007A2A4A138A9BB248
:1046600007EE903AF0EEC76AB7EE007A37EE667A58
:10467000F8EE677A67EE277A9FED367A67EE877AEB
:10468000FDEEE77A17EE903A128AB3EB920F02DD55
:104690001C4B1B8A9B08304AD2ED007A274A92EDC8
:1046A000007AF6EE006A67EEA67AF4EEC77AF1EECB
:1046B00010FA09D4154A126832B1434555DA114A45
:1046C000128AD31A434550DD244B93ED007A1E4BDA
:1046D00007EE905AF8EEE76AC6EE877A93ED007A15
:1046E00077EE877AC3ED007A3FE07D42D0469AE7C5
:1046F0006D4298E7D0463D4695E77542C84692E739
:104700000018004044980020D45800201C4E00207F
:10471000EC4C00200C100020244C0020F04C002019
:10472000CDCC4C3EE452002056555555104A002041
:10473000144A0020C85800200453002000530020D1
:10474000204C0020F304B53FCC4C0020FC5200204C
:10475000FC4C00209A99993E48520020D8580020DD
:104760004FF00008454660E70025954B1B685A78D6
:1047700072BB944B1B681BB3934B93ED017ADFED37
:10478000937A27EE277A904BD3ED027A904BD3EDB4
:10479000006A9FED8E6A67EE867AF4EEE67AF1EEB5
:1047A00010FA04D9F4EEC76AF1EE10FA6CDB0120BE
:1047B000FEF796FB0023864A1360864A136063E087
:1047C000814B93ED007ADFED817A27EE277ADAE7E5
:1047D0005A78D2B2012A57D1002D05DC00237C4A39
:1047E00013607C4A13604FE0D3ED5A6A7A4AD2EDE7
:1047F000007A784D86EEA77AD5ED007A77EE877A43
:10480000C5ED007A754A92ED000A93ED241A6E4ABE
:10481000D2ED031AD2ED037A93ED232AB6EE007A95
:1048200067EE877A27EE822A61EE871ADFED6C0A3F
:10483000B0EEC00A00F03CFDD5ED007AB4EEE70A18
:10484000F1EE10FA20D80120FEF74AFB654B93EDFC
:10485000007A5F4AD2ED007ADFED636A67EEA67AEE
:1048600077EE877AC3ED007A604BD3ED007AB7EE2E
:10487000007A77EE877AC3ED007A002313602B600D
:1048800002E0534B00221A604D4B1B6893ED5A6AAD
:10489000514BD3ED006A564B93ED007AC6EE267A63
:1048A00077EE877AC3ED007A524A136801331360BA
:1048B000514B93ED008A514BD3ED008A504B1B783E
:1048C000DBB2022B00F0B28006F0E2FE05F0D0FA77
:1048D000002840F05183404BD3ED007A494B1B78C0
:1048E000DBB2042B00F0C4830023474A1360474A1D
:1048F0001360474BD3ED097AF8EE677ADFED456A2E
:1049000087EEA67A444B83ED007A02B0BDEC068BAD
:10491000BDE8F087FFF794F9404B1B68834210D144
:10492000374B1B78DBB2022BC2D1264B1B68002B06
:10493000BED13A4B1868FDF7ABFA0020FEF7D0FA6B
:10494000B6E7364B1860FDF733F92D4B1B78DBB219
:10495000022BADD1314B1868FDF79AFA0020FEF713
:10496000BFFAA5E7174B1B680BB32D4B1B8A9BB2F5
:1049700000EE103A214BD3ED007AB8EE400A20EE5B
:10498000270A284A07212848FCF7AAFF1C4B1B7856
:10499000DBB2022B8CD10B4B1B68002B88D11F4B39
:1049A0001868FDF775FA0020FEF79AFA80E71C4AAE
:1049B000138892889B1A00EE103AB8EEC00AE0E71E
:1049C000244C00201C4E002004530020BBF7DF398C
:1049D000CC4C0020D84C0020D85800202453002074
:1049E00000000000D44C00208B4E1245D04C00201B
:1049F00000530020FC5200203C520020F04C0020CC
:104A0000D4580020284C0020284E0020F4520020CA
:104A1000001800408096184B38520020204C00208F
:104A200044980020104A0020144A0020B54B1B680F
:104A3000002B3FF449AF07EE904AF8EE677A9FEDFE
:104A4000B27A67EE877A9FEDB17A67EE877AB3EE36
:104A5000047AC7EE279AAE4B1C6894ED547AAD4B9E
:104A600093ED006ADFEDAC6AC6EE267A87EE27AAE0
:104A7000FDF7BEFEB0EE409AA84B1B6843B3A74AB1
:104A80001368013B1360DFEDA6AA6AEE2AAAA54BC4
:104A90001B680093A44B1B78DBB2022B1BD0A24BEC
:104AA0001B78DBB2042B16D09F4B1B78DBB2012B9B
:104AB00011D09D4B1B78DBB2032B00F03F819B4B49
:104AC00093ED000AF0EE6A0A684600F041FBA6E0AA
:104AD000F0EE4AAADBE7964BD3ED007A954B1B68C4
:104AE000002B7CD1B1EE487AD4ED516A77EEC77ACB
:104AF00067EEA67A67EEA97A02A860ED017AD4ED96
:104B00004F7A67EEA99A94ED520AD4ED520AB1EEAB
:104B1000400A00F08DFB7F4BD3ED006ADFED7E7A1B
:104B200086EEA77ADDED016AC6EE877ACDED017AD1
:104B30007A4B1B684BB1794A1368013B13609FEDB8
:104B4000787A67EE877ACDED017ADDED007AB0EE06
:104B5000E77AB4EEE97AF1EE10FA43D5744BD3ED6F
:104B6000007AF5EEC07AF1EE10FAD8BFF1EE699A4C
:104B7000F0EE6A0AB0EE690A684600F0E9FA644CA1
:104B8000236893ED160AD3ED160AB1EE400A684683
:104B900000F04EFBDDED007A236893ED157AF0EE20
:104BA000E76AF4EEC76AF1EE10FA2CD5F5EEC07A9A
:104BB000F1EE10FA1DD4F5EEC07AF1EE10FA22DD16
:104BC0005B4AD2ED007AF5EEC07AF1EE10FA21D50B
:104BD000D3ED157AF1EE677ACDED007A13E0B0EE01
:104BE000487A81E79DED017A77EE277ACDED007A5C
:104BF000C5E74F4A92ED007AB5EEC07AF1EE10FAB1
:104C0000D9DD5A6D0092DDED007AF5EEC07AF1EE55
:104C100010FA71DBD3ED157A444BC3ED007A3C4BAF
:104C20001B68D3ED197AF4EEC87AF1EE10FA00F1B0
:104C30000E81D3ED1A7AF4EEC87AF1EE10FA40F351
:104C400020813C4A1268002A00F0168193ED160A72
:104C5000D3ED1A7AD3ED550A78EE677AF0EEE77A5B
:104C600067EE8A7A67EEA00A2E4800F071FA324B9E
:104C700001221A60304B1B68013B2F4A1360294BFD
:104C8000D3ED007A224B1B6893ED157AF0EEE77AAC
:104C9000F4EEC77AF1EE10FA0DD593ED157A234AAA
:104CA000D2ED007AB4EEE77AF1EE10FA00F2368136
:104CB000596D1C4A116093ED157A1A4AD2ED007AAB
:104CC000B4EEE77AF1EE10FA00F23D81D3ED097A05
:104CD000F1EE677AF4EEC97AF1EE10FA40F333811F
:104CE000D3ED157AF1EE677AC2ED007A0D4B93EDB4
:104CF000000AFEF7BDFFE7E5D3ED157AF1EE677A1E
:104D00008AE700BF1C4E00206740533A74D195419A
:104D1000244C0020D858002000007A44CC580020B1
:104D2000CDCCCC3DF04C0020284C0020F44C002091
:104D3000C84C0020EC4C002068520020BC4BD3ED46
:104D4000007A94ED517AF0EEE77AF1EE677A77EE39
:104D5000C87A67EE877A67EEA99A02A860ED019A91
:104D600094ED520AD4ED520AB1EE400A00F060FA16
:104D7000B04BD3ED006ADFEDB07A86EEA77ADDEDB9
:104D8000016AC6EE877ACDED017AAC4B1B684BB158
:104D9000AA4A1368013B13609FEDA97A67EE877AF0
:104DA000CDED017A9DED007AB5EEC07AF1EE10FA04
:104DB000FFEE007AF7EE006A58BFF0EE667ADDED9E
:104DC000016A67EEA67A77EE877A02A817EE903A24
:104DD00040F8083D9B4C236893ED160AD3ED160A64
:104DE000B1EE400A00F024FADDED007A236893ED7D
:104DF000157AF0EEE76AF4EEC76AF1EE10FA7FF585
:104E00000EAF914A92ED007AD3ED0A6AB0EEC77AFE
:104E1000B4EEE67AF1EE10FA04D5002300938B4A43
:104E20001360FCE6F5EEC07AF1EE10FAFFEE007AC0
:104E3000B7EE007A48BFB0EE677AD3ED157A67EE29
:104E4000877ACDED007A814BC3ED007AE7E6D3EDAA
:104E5000197AD3ED550A78EE677AF0EEE77A67EEC5
:104E60008A7A67EEA00A9FED7A0A7A4800F070F914
:104E7000794B01221A60FDE693ED160AB1EE400A65
:104E8000E6E6F0EEE88A28EE888AD3ED1B7AF4EEA7
:104E9000C87AF1EE10FA1ED4D3ED1C7AF4EEC87A7B
:104EA000F1EE10FA31DD6D4A12684AB393ED160A3D
:104EB000D3ED1C7AD3ED550A78EE677AF0EEE77AF7
:104EC00067EE8A7A67EEA00A624800F041F9624B09
:104ED00001221A60CEE6D3ED1B7AD3ED550A78EEA7
:104EE000677AF0EEE77A67EE8A7A67EEA00A9FEDBE
:104EF000580A584800F02CF9574B01221A60B9E6BD
:104F000093ED160AB1EE400AD2E7534B1B68002B13
:104F10003FF7B2AE009A4F4B1A60B0E6D3ED157A68
:104F20004A4A92ED007AF1EE677AF4EEC77AF1EE32
:104F300010FAFFF6C0AED3ED157AF1EE677A454A66
:104F4000C2ED007AB7E6D3ED157A424A92ED007AC7
:104F5000F1EE677AF4EEC77AF1EE10FAFFF6C6AE1C
:104F6000D3ED097AF4EEC97AF1EE10FA7FF5BEAE10
:104F70005A6D384B1A60B9E62E4BD3ED007A384B98
:104F80001B78DBB2042B05D00023364A1360364A67
:104F90001360AEE4F7EE009A89EEA7AA04F070FF62
:104FA000324BD3ED000A00F0CBF9B0EE409A254D1C
:104FB0002B6893ED4B8A20EE088AD3ED4C7A294C6E
:104FC0006AEE277A67EE807A94ED007A77EE877A38
:104FD000C4ED007A93ED4D7A234ED6ED008A70EE43
:104FE000688AC7EE0A7A68EEA78AF0EE690ABFEE11
:104FF000000A204600F01CF986ED009AD4ED007AF4
:1050000038EE278A38EE288A02A820ED018AF0EED1
:10501000690ABFEE000A00F00BF92B68D3ED197A8C
:105020009DED017A67EE877A014BC3ED007A60E46B
:10503000C84C0020D858002000007A44CC580020EA
:10504000CDCCCC3D244C002024530020F44C002037
:1050500000000000F04C002068520020EC4C0020C2
:10506000284C0020244E0020F0520020E85200205E
:10507000F7EE009A89EEA7AAFEF79AF92E4BD3ED28
:10508000000A00F05DF9B0EE409A2C4D2B6893EDCC
:105090004B8A20EE088AD3ED4C7A294C6AEE277AA7
:1050A00067EE807A94ED007A77EE877AC4ED007A25
:1050B00093ED4D7A234ED6ED008A70EE688AC7EEE6
:1050C0000A7A68EEA78AF0EE690ABFEE000A204667
:1050D00000F0AEF886ED009AD4ED007A38EE278A1B
:1050E00038EE288A02A820ED018AF0EE690ABFEEA8
:1050F000000A00F09DF82A68D2ED197A9DED017A38
:1051000067EE877A104BC3ED007A104B1B78DBB249
:10511000022B3FF4EEABB5EEC07AF1EE10FAFFEEE3
:10512000007A58BFF0EE697A92ED150A20EE270A50
:10513000FEF776FEFFF7DDBBE8520020244C00208E
:10514000284E0020F4520020C84C0020D4580020E3
:10515000D0ED007AF4EEC07AF1EE10FA0BD577EECE
:10516000A07AF4EEC07AF1EE10FA58BFF0EE407A71
:10517000C0ED007A7047F4EEC07AF1EE10FA0ADD65
:1051800077EEE07AF4EEC07AF1EE10FAD8BFF0EEE6
:10519000407AC0ED007A7047000000000000000077
:1051A00010B50446DFED080A90ED000A0EF090FC01
:1051B000B5EEC00AF1EE10FA44BFDFED037A30EE2F
:1051C000270A84ED000A10BD0000B443000000006F
:1051D000D0ED007A9FED137AF4EEC77AF1EE10FA73
:1051E0000AD5DFED116A77EEA67AF4EEC77AF1EE12
:1051F00010FAF8D4C0ED007AD0ED007A9FED0B7A6A
:10520000F4EEC77AF1EE10FA0ADDDFED076A77EE09
:10521000E67AF4EEC77AF1EE10FAF8DCC0ED007A27
:10522000704700BFDB0F49C0DB0FC940DB0F4940AF
:10523000D0ED007AF4EEE07AF1EE10FA09DCF4EE4B
:10524000C07AF1EE10FA46BF80ED000A012000207E
:105250007047C0ED000A0120704700BF0000000049
:105260000368934205DC8B42BABF01600120002035
:10527000704702600120704700000000000000003D
:10528000D0ED007AF4EEC07AF1EE10FA0BDCB1EE5C
:10529000400AF4EEC07AF1EE10FA46BF80ED000A43
:1052A00001200020704780ED000A0120704700BFF8
:1052B00030EE600A32EE612A20EE022A31EE601AE8
:1052C00082EE010A30EE210A704700BF00000000A4
:1052D000D0ED007AB0EEE77AB4EEC07AF1EE10FAD3
:1052E00015D430EEC00AC0EE806AF5EEC07AF1EE59
:1052F00010FA0FDDB7EE007A37EE667A67EE200A15
:1053000067EEA67A70EEA77AC0ED007A70470023A8
:105310000360704767EEE67AB7EE007A77EE666A6A
:1053200066EEA00A77EEA07AF1EE677AC0ED007A19
:10533000704700BF000000000000000000000000F7
:1053400030EE600ADFED107AB4EEE70AF1EE10FA03
:1053500008D59FED0E7A30EE070AB4EEE70AF1EEBB
:1053600010FAF8D4DFED0A7AB4EEE70AF1EE10FA9B
:1053700008DD9FED067A30EE470AB4EEE70AF1EE5B
:1053800010FAF8DC704700BF000034C30000B443DB
:105390000000344300000000000000000000000096
:1053A00030EE600ADFED107AB4EEE70AF1EE10FAA3
:1053B00008D59FED0E7A30EE070AB4EEE70AF1EE5B
:1053C00010FAF8D4DFED0A7AB4EEE70AF1EE10FA3B
:1053D00008DD9FED067A30EE470AB4EEE70AF1EEFB
:1053E00010FAF8DC704700BFDB0F49C0DB0FC94083
:1053F000DB0F49400000000000000000000000003A
:1054000088420CDC904205DD884208DA8842A8BF59
:10541000084670479142A8BF11460846704791421E
:10542000F4DC9042A8BF1046704700BF00000000A7
:10543000F0EEC07A9FED1F7A77EE877AF5EEC00A1C
:10544000F1EE10FA1FDB70EEE76A77EEA00A86EE47
:10545000A07A67EE077ADFED186A67EEA67ADFEDCD
:10546000176A77EEE67A67EE877A9FED157A77EE20
:10547000877AB5EEC00AF1EE10FA48BFF1EE677A0E
:10548000B0EE670A704777EEA06A77EEE07A86EEB4
:10549000A77A67EE077ADFED086A67EEA67ADFED96
:1054A000076A77EEE67A67EE877A9FED067A77EEFF
:1054B000877ADEE708E53C1EDE02493EB1507B3FBD
:1054C000DB0F493FE4CB1640000000000000000065
:1054D00038B52DED028B05460C46F0EE408A90ED76
:1054E000000AD1ED007A20EE000A67EEA77A30EECE
:1054F000270AB1EEC08AB5EE400AF1EE10FA21D4C7
:10550000B0EEE80ADFED127AB4EE678AF1EE10FA37
:1055100048BFB0EE678AB4EEC08AF1EE10FA14DD2F
:10552000C0EE086A95ED007A27EE267A85ED007ABE
:10553000D4ED007A67EEA67AC4ED007A0120BDECC6
:10554000028B38BD0EF03CFBDAE70020F7E700BF26
:10555000FFE6DB2E0000000000000000000000005D
:10556000DFED5F7AB4EEE70AF1EE10FA08D59FEDB1
:105570005D7A30EE070AB4EEE70AF1EE10FAF8D4DD
:10558000DFED597AB4EEE70AF1EE10FA08DD9FED8F
:10559000557A30EE470AB4EEE70AF1EE10FAF8DC7D
:1055A000B5EEC00AF1EE10FA56D4DFED507A60EE97
:1055B000277A9FED4F7A20EE077A27EE007A77EE72
:1055C000C77AC0ED007AF5EEC07AF1EE10FA4CBF62
:1055D00027EEE77A27EEA77A37EE677ADFED456A9E
:1055E00027EE267A77EE277AC0ED007ADFED427A51
:1055F00030EE270ADFED3C7AB4EEE70AF1EE10FA5E
:10560000C4BFDFED387A30EE670AB5EEC00AF1EEBE
:1056100010FA43D4DFED357A60EE277A9FED347AC5
:1056200020EE077A27EE000A37EEC00A81ED000A65
:10563000B5EEC00AF1EE10FA4CBF60EE407A60EEB3
:10564000007A77EEC07A9FED2B7A67EE877A37EE95
:10565000800A81ED000A7047DFED257A60EE277A37
:1056600067EE807A9FED217A20EE077A77EE877ACF
:10567000C0ED007AF5EEC07AF1EE10FA4CBF27EEDD
:10568000E77A27EEA77A37EE677ADFED1A6A27EE18
:10569000267A77EE277AC0ED007AA7E7DFED147A55
:1056A00060EE277A67EE807A9FED107A20EE070A87
:1056B00037EE800A81ED000AB5EEC00AF1EE10FA6D
:1056C0004CBF60EE407A60EE007A77EEC07A9FEDD4
:1056D000097A67EE877A37EE800A81ED000A704713
:1056E000DB0F49C0DB0FC940DB0F494083F9A23F04
:1056F0007B81CF3E6666663EDB0FC93F000000003F
:10570000B0EEC07AF0EEE07AB4EEE77AF1EE10FA9D
:1057100058BFB0EE600A70470000000000000000B3
:10572000B0EEC07AF0EEE07AB4EEE77AF1EE10FA7D
:10573000D8BFB0EE600A7047000000000000000013
:1057400008B52DED048BFFEE007AB4EEE70AF1EE1A
:1057500010FA32D4B0EE408AF0EE608AF7EE007AAA
:10576000B4EEE70AF1EE10FA1DDDB7EE000AB0EE76
:10577000408A80BBF5EEC08AF1EE10FA24DBB7EE6A
:10578000009A78EE890A39EE400A0DF011FE39EEE2
:10579000400AB5EEC08AF1EE10FA48BFB1EE400AF9
:1057A000BDEC048B08BDB0EEC00AB5EEC08AF1EEC8
:1057B00010FAB8BFF0EE418ADBE7F0EE418AB7EEAF
:1057C000000ABFEE008AD4E7F7EE000A70EEE80A9E
:1057D0000DF0EEFDDDE7012813D00228D9D1F5EE5A
:1057E000C08AF1EE10FA46DBB7EE007A77EE406A37
:1057F00028EE800A70EE077A86EEA70A37EE400A96
:10580000C7E7F0EEE87A9FED217AF4EEC77AF1EE81
:1058100010FABED4F5EEC08AF1EE10FA16DBB7EE40
:10582000009A39EE400A20EE280A0DF0C9FBF0EE8E
:10583000409AB0EE680A0DF0C3FB79EEC99A70EE9B
:10584000497A89EEA70A39EE400AA2E7F1EE688AA2
:1058500028EE800A0DF0B4FBB0EE409AB0EE680A74
:105860000DF0AEFBF7EE007A39EE679A70EE677ACC
:1058700089EE270A8DE7F7EE007A37EEC07A67EEF9
:10588000288A77EEE87A80EE270A82E7FFE6DB2EA9
:10589000054B1B6813B9202383F31188024A136850
:1058A00001331360704700BFA062002000000000B9
:1058B000054B1B683BB1044B1A68013A1A601B6820
:1058C0000BB983F311887047A0620020000000002C
:1058D00030B4044B9401A51803EB45156860A9602A
:1058E00030BC7047A46200200000000000000000EF
:1058F000B1F5806F49D82DE9F047B1F5807F36D8F2
:1059000002EB8213214C04EB4313022483F810446E
:1059100083F811141546894682464FEA821808EB2F
:105920000206760106F58266184F3E440A46014695
:105930003019F7F7F5F84C4449465046FBF7A0FDFF
:1059400008EB050307EB43132344020A83F81024F2
:1059500083F81104E11C032283F81224454407EB69
:1059600045177B680BB130469847BDE8F08702EBDE
:105970008213064C04EB4313032483F810440D0AEE
:1059800083F8115483F81214C4E77047A46200200E
:105990000F4B5B889BB27BB90D4B00221A700C4BEE
:1059A000B3F822389BB26BB1094AB2F82238013BF6
:1059B0009BB2A2F822387047054A5388013B9BB23C
:1059C0005380ECE7024B002283F82028704700BF89
:1059D000A4620020000000000000000000000000A1
:1059E00070B501EB81135B016D4AD35CDBB2062B12
:1059F00000F2CE80DFE803F0043140628392A10020
:105A0000022808D0032817D001EB81114901644B0B
:105A100000225A542FE0624B8C01621852019D18EB
:105A2000985C0230C0B298544FF47A726A800022B7
:105A3000C5F81828EA601EE0594B8C016218520123
:105A40009D18985C0130C0B298544FF47A726A8005
:105A50000022C5F81828EA600DE0514B8C0162184D
:105A600052019D180002E860985C0130C0B2985461
:105A70004FF47A726A8070BD01EB8112484B03EBE0
:105A80004212D3681843D0600138B0F5806F0ED24F
:105A9000434B8801441864011A5D0132D2B21A5591
:105AA000014403EB41134FF47A725A80E3E701EBB0
:105AB000811149013A4B00225A54DCE701EB811372
:105AC000374A02EB4313D3F81828541CC3F818487C
:105AD0001A441074DB689C4208D001EB8111304BF2
:105AE00003EB41114FF47A734B80C4E72C4801EB70
:105AF00081125201835C0133DBB28354EDE7284B02
:105B00008C01621852019D1885F81D08985C0130BF
:105B1000C0B298544FF47A726A80ACE7204B8C0183
:105B2000621852019D1885F81C08985C0130C0B2BB
:105B300098544FF47A726A809DE70C46032806D089
:105B400004EB84114901164B00225A5493E78B0150
:105B50005D186D011035124E35440B4406EB4316AB
:105B6000F1682846FBF78CFC96F81D2896F81C383F
:105B700043EA02239842E3D1094AB668002EDFD0F7
:105B800004EB841302EB4313D9682846B047D7E7E8
:105B900001EB81114901024B00225A546BE700BF0F
:105BA000A4620020000000000000000000000000CF
:105BB0002DE9F0472DED088BD8B0B4490FF0B0FDBA
:105BC00000285ED0034618AD0024B04F26460134AD
:105BD00045F8043B394630460FF0A2FD034610B1AC
:105BE000402CF4D101E0002C4BD004F0C9FCA84DAE
:105BF0004FF4BA76324601462846F6F791FF324610
:105C00002946A448F6F78CFF189DA3492846F7F7C4
:105C10002BF800283DD0A1492846F7F725F80028A1
:105C20003BD09F492846F7F71FF800283DD09D49F3
:105C30002846F7F719F8002861D09B492846F7F75E
:105C400013F8002867D099492846F7F70DF800287F
:105C500074D097492846F7F707F8002800F0948099
:105C600094492846F7F700F80646002840F06C8172
:105C7000914B1B68002B40F09080904802F0F8F99F
:105C800002E08F4802F0F4F958B0BDEC088BBDE893
:105C9000F0878C4802F0ECF9F6E79FED8B0A04F0F0
:105CA00097FF8A4802F0E4F9EEE7FDF729FF9FED40
:105CB000888A60EE087A17EE900AF6F7A5FB02468E
:105CC0000B46844802F0D4F904F062FE60EE087AD4
:105CD00017EE900AF6F798FB02460B467E4802F054
:105CE000C7F904F0FDFE60EE087A17EE900AF6F7A9
:105CF0008BFB02460B46794802F0BAF9C4E7FDF780
:105D0000D7FA10EE100AF6F77FFB02460B467448EE
:105D100002F0AEF9B8E711A9F8F7FAF90446F8F776
:105D200097F901466F4802F0A3F921466E4802F048
:105D30009FF911996D4802F09BF9A5E76C4802F0B4
:105D400097F96C4802F094F9F7F7FAFE04466A4EA8
:105D50006A4D216AA368E2680391A1690291217FDB
:105D600055F821100191A17F01390091214630465B
:105D700002F07EF92046F7F7F3FE04460028E8D14A
:105D80005F4802F075F97FE704F032FC04F038FC5C
:105D900001465C4802F06CF976E75B4802F068F96E
:105DA000454B1B68002B7FF76FAF584DDFF8948190
:105DB000574FC6EBC60305EBC30415F8330004F0D8
:105DC0001FFC0146404602F053F96068F6F71CFBE1
:105DD00002460B46384602F04BF9A068F6F714FB72
:105DE00002460B464B4802F043F9E068F6F70CFB1D
:105DF00002460B46484802F03BF92069F6F704FBDF
:105E000002460B46454802F033F96069F6F7FCFAA2
:105E100002460B46424802F02BF9A169414802F0C4
:105E200027F9E169404802F023F9D4ED0A7A94EDAC
:105E3000047AF8EEE77A67EE877AFDEEE77A17EEF6
:105E4000901A3A4802F014F9216A394802F010F920
:105E5000616A384802F00CF9A16A374802F008F983
:105E6000E16A364802F004F9206BF6F7CDFA0246F3
:105E70000B46334802F0FCF8044802F0F9F801360A
:105E80000D4B1B68B34294DCFEE600BF5CCC0208FD
:105E9000F4790020687B0020F0CA020800CB0208D9
:105EA00018CB02089CCB0208C0CB020818CC020811
:105EB000C4CC0208D0CC0208F0790020D8CC02086B
:105EC000D8CA0208F8CA02080000000008CB02087D
:105ED00000007A442CCB02084CCB020874CB020899
:105EE000A0CB0208C4CB0208E0CB0208F8CB020822
:105EF00020CC020860CC0208A0CC0208F0C902083D
:105F0000CCD20208CCCC0208FCCC02087874002069
:105F100048CD020860CD020878CD020890CD020875
:105F2000A8CD0208C0CD0208D8CD0208F0CD0208E5
:105F300008CE020820CE020838CE020850CE020851
:105F400068CE020830CD0208A4492846F6F78CFE38
:105F5000E0B1A3492846F6F787FE18B3A1492846C1
:105F6000F6F782FE28B3A0492846F6F77DFE002802
:105F70006AD09E492846F6F777FE002840F07E81D9
:105F8000042C7AD09A4802F073F87DE604F0B8FB4E
:105F900010EE100AF6F738FA02460B46954802F062
:105FA00067F871E604F0ACFC0146934802F060F833
:105FB0006AE6202383F31188904B5A6A0E92904A26
:105FC000516A0F911968C1F3001110911168C1F362
:105FD00000111191002181F31188D3F83490D3F886
:105FE0003880DF6BDE6A556BD3F840A0946B0E9956
:105FF000844802F03DF80F99834802F039F8494689
:10600000824802F035F84146814802F031F83946BD
:10601000804802F02DF831467F4802F029F81099A7
:106020007E4802F025F811997D4802F021F82946B2
:106030007C4802F01DF851467B4802F019F82146D1
:106040007A4802F015F81FE6794B1B8A9BB207EEDF
:10605000903AF8EE677A9FED777A67EE877A9FED50
:10606000767A67EE877A17EE900AF6F7CDF9024650
:106070000B46724801F0FCFF06E6714B0B930C9344
:106080000D93704C0BAA214619980FF011FB0CAA26
:1060900021461A980FF00CFB0DAA21461B980FF011
:1060A00007FB9DED0B0AB5EEC00AF1EE10FA40F3C6
:1060B0009180654BD3ED017AB4EEE70AF1EE10FA68
:1060C00040F18880DDED0C0AF2EE047AF4EEE70A86
:1060D000F1EE10FA7EDDDFED5D7AF4EEE70AF1EE27
:1060E00010FA77D59DED0D1ADFED597AB4EEE71A67
:1060F000F1EE10FA6EDDDFED577AB4EEE71AF1EE4D
:1061000010FA67D510AB11AA0FA90EA801F008FA72
:1061100000285BD00E98F6F777F902460B464E48FA
:1061200001F0A6FF0F98F6F76FF902460B464B48B1
:1061300001F09EFF109BDBB9494801F099FF9DF9E2
:1061400046309DF945209DF944109DF94B0004907F
:106150009DF94A0003909DF9490002909DF948007D
:1061600001909DF9470000903E4801F081FF8BE5CA
:10617000B3F1FF3F1BD13C4801F07AFF9DF9463057
:106180009DF945209DF944109DF94B0004909DF91F
:106190004A0003909DF9490002909DF94800019042
:1061A0009DF9470000902F4801F062FF6CE513F164
:1061B000020F03D12D4801F05BFF65E513F1030FDA
:1061C0007FF462AD2A4801F053FF5DE5294801F0F4
:1061D0004FFF59E5284801F04BFF55E580CE0208F6
:1061E000A0CE0208C0CE020878CF020898CF0208DD
:1061F000ECD0020884CE0208A8CE020800000140BC
:1062000000040140C4CE0208D4CE0208E4CE020845
:10621000F4CE020804CF020814CF02081CCF0208F3
:1062200028CF020834CF020848CF020860CF020806
:10623000449800206740533A74D1954180CF0208BA
:10624000000080BF94D50208F479002000803B450F
:106250000AD7A33CCDCC4C3FA8CF0208C8CF020838
:10626000E0CF0208FCCF02081CD002083CD0020894
:106270006CD002089CD00208D4D00208BA49284643
:10628000F6F7F2FC002862D0B8492846F6F7ECFC95
:106290000646002877D0B6492846F6F7E5FC0028E0
:1062A00040F0D680022C40F0CF80B24B0F930FAA63
:1062B000B14919980FF0FCF9DDED0F7AF5EEC07ACF
:1062C000F1EE10FA40F3BC80AC4B93ED017AF4EEA2
:1062D000C77AF1EE10FA00F2B38003F0C9FD00288E
:1062E00000F0AA80A54CA5780223A370204605F0F3
:1062F0005FF900231093119300238DF838300EAB13
:1063000011AA10A901209DED0F0A06F0F9FEA57053
:10631000204605F04DF91098F6F776F802460B4640
:10632000974801F0A5FE1198F6F76EF802460B4665
:10633000944801F09DFE9DF83810934A934B002934
:1063400014BF11461946924801F092FE9CE411A830
:10635000FDF7E6FB1198F6F757F802460B468D4815
:1063600001F086FE1298F6F74FF802460B468A486F
:1063700001F07EFE1398F6F747F802460B46874871
:1063800001F076FE80E4864801F072FE854D9FEDB7
:10639000868A864F03E001360A2E3FF475AC3046FC
:1063A00003F066FC044601680029F4DBAB6A42682E
:1063B0009B1A07EE903AF8EE677A87EE887AF7EE46
:1063C000007AB4EEE77AF1EE10FAE4D5384601F03F
:1063D0004FFE6168764801F04BFEAB6A62689B1A1B
:1063E00007EE903AF8EE677A87EE887ADFED717AF9
:1063F00067EE277A17EE900AF6F706F802460B4684
:106400006D4801F035FEA068F5F7FEFF02460B4629
:106410006A4801F02DFEE068F5F7F6FF02460B46EC
:10642000674801F025FE2069F5F7EEFF02460B46AE
:10643000644801F01DFEAEE7634801F019FE23E455
:10644000624801F015FE1FE4614801F011FE1BE4F3
:1064500060492846F6F708FC00283AD1022C33D1CF
:10646000444B119311AA444919980FF021F9DDED1D
:10647000117AF5EEC07AF1EE10FA20DD3F4B93ED84
:10648000017AF4EEC77AF1EE10FA18D81846022312
:10649000837005F08DF84FF4FA609DED110A07F056
:1064A0002FF910EE100AF5F7AFFF02460B464A48E7
:1064B00001F0DEFD494805F07BF8FFF7E5BB4348F6
:1064C00001F0D6FDFFF7E0BB414801F0D1FDFFF739
:1064D000DBBB43492846F6F7C7FB002840F088801D
:1064E000022C3CD1234B109310AA234919980FF08A
:1064F000DFF8DDED107AF5EEC07AF1EE10FA29DD65
:106500009FED387AF4EEC77AF1EE10FA22D51B48E7
:1065100002238370344BC0F8AC3005F049F811A960
:10652000C8209DED100A07F073F910EE100AF5F778
:106530006BFF04460D461198F5F766FFCDE90001A3
:1065400022462B46294801F093FD244805F030F8F7
:10655000FFF79ABB1D4801F08BFDFFF795BB1C4868
:1065600001F086FDFFF790BB14D1020870D102083C
:106570004CD20208000080BF94D50208F4790020B4
:1065800060D2020870D20208C0CA0208C8CA020853
:1065900080D202081CD1020834D1020854D102086A
:1065A0007CD10208F019002000401C46ACD1020842
:1065B000C4D1020800007A44DCD10208F8D10208F4
:1065C00014D2020830D2020890D20208D4D00208B5
:1065D000A8D20208D0D20208DCD20208687B0020D0
:1065E000F4D202086666663F00803B4500D302088D
:1065F000BF492846F6F738FB002858D1052C51D161
:10660000BC4B0D930E930F931093BB4C0DAA2146D8
:1066100019980FF04DF80EAA21461A980FF048F875
:106620000FAA21461B980FF043F810AA21461C9888
:106630000FF03EF89DED0D0AB5EEC00AF1EE10FA2E
:106640002BDDAE4BD3ED017AB4EEE70AF1EE10FA92
:1066500023D89DED0F1AB5EEC01AF1EE10FA1CDD2D
:10666000DDED0E0ADFEDA67AF4EEE70AF1EE10FAA0
:1066700013DDDDED101AF5EEC01AF1EE10FA0CDBA9
:1066800011A801F0F5F81198F5F7BEFE02460B4689
:106690009C4801F0EDFCFFF7F7BA9B4801F0E8FCDD
:1066A000FFF7F2BA994801F0E3FCFFF7EDBA984919
:1066B0002846F6F7D9FA00BB90480223837004F00D
:1066C00077FF00231093119311A910A807F030F958
:1066D0001098F5F799FE02460B468E4801F0C8FC6B
:1066E0001198F5F791FE02460B468B4801F0C0FC6D
:1066F0008A4804F05DFFFFF7C7BA89492846F6F7D4
:10670000B3FA0646002840F08E80022C40F08680C6
:10671000784B119311AA784919980EF0C9FFDDED55
:10672000117AF5EEC07AF1EE10FA72DD734C0223A5
:10673000A370204604F03CFFD4ED319AF7EE087ABE
:1067400069EEA79A03F0FCF9054603F001FAF0EEB2
:1067500040AA03F0DDF99FED730A4EF6602003F0C6
:10676000C7F99FED718AC82407EE906AF8EEE77AC0
:1067700087EE880ADDED117A20EE270A04F028FA68
:106780002046F7F7C5F80136642EEDD14FF47A7440
:106790009FED648AF0EE488AB0EE489AB0EE48AABF
:1067A000B7EE00BA0A2606F0A3FC3AEE00AA03F000
:1067B000A7FF39EE009A04F03BF838EE008A78EE35
:1067C0008B8A3046F7F7A4F8013CECD104F0F0FADC
:1067D000524804F0EDFEB0EE6A0A284603F088F94C
:1067E0008AEE287AC8EE287A07EEE97AC9EE287A86
:1067F000DFED4E6A67EEA67AC7EE277A17EE900AAB
:10680000F5F702FE02460B463E4801F031FCFFF769
:106810003BBA3D4801F02CFCFFF736BA3B4801F08B
:1068200027FCFFF731BA42492846F6F71DFA30B97E
:1068300007F0B6FA3F4801F01BFCFFF725BA3E49C6
:106840002846F6F711FA00283CD1222203213B48C2
:1068500001F00EFC3A493B4801F00AFC3A4B1B7828
:106860003A4A12783A4909783A48007808903A4802
:1068700000780790394800780690394800780590EC
:1068800038480078049038480078039037480078FA
:1068900002903748007801903648007800903648DA
:1068A00001F0E6FB354B1978354A364B002914BF09
:1068B00011461946344801F0DBFB1E4801F0D8FBB5
:1068C000FFF7E2B931492846F6F7CEF920B930484A
:1068D00001F0CEFBFFF7D8B92E492846F6F7C4F9E8
:1068E000002859D12A4801F0C3FBFFF7CDB900BFFA
:1068F00028D30208000080BF94D50208F479002054
:106900000AD7A33C38D30208D4D00208A8D2020880
:106910004CD302085CD3020874D30208687B0020C1
:1069200094D30208000000000000C8425077D63D12
:10693000A8D302085CCC0208B4D30208C0D3020872
:10694000D0D30208D4D30208127AFF1F117AFF1F96
:10695000107AFF1F1B7AFF1F1A7AFF1F197AFF1F79
:10696000187AFF1F177AFF1F167AFF1F157AFF1F6D
:10697000147AFF1F137AFF1FE4D30208187F002048
:10698000D0CA0208D4CA020828D4020840D4020897
:1069900054D402087CD40208B7492846F6F764F9B3
:1069A00020B9B64801F064FBFFF76EB9B449284638
:1069B000F6F75AF920B9B14801F05AFBFFF764B96C
:1069C000B0492846F6F750F920B9AC4801F050FB21
:1069D000FFF75AB9AC492846F6F746F920B9AB4853
:1069E00001F046FBFFF750B9A9492846F6F73CF9F4
:1069F00020B9A64801F03CFBFFF746B9A549284657
:106A0000F6F732F958BB032C24D1A34B1093119302
:106A1000A24C10AA214619980EF04AFE11AA21464E
:106A20001A980EF045FE9DED100AB5EEC00AF1EE83
:106A300010FA0ADBDDED110AF5EEC00AF1EE10FAEC
:106A400003DB06F005FAFFF71FB9954801F010FBCC
:106A5000FFF71AB9934801F00BFBFFF715B99249FC
:106A60002846F6F701F908BB09F09AF910EE104A2A
:106A700009F096F910EE106A09F092F910EE107A0A
:106A80002046F5F7C1FC04460D463846F5F7BCFC38
:106A9000CDE902013046F5F7B7FCCDE90001224609
:106AA0002B46824801F0E4FAFFF7EEB88049284609
:106AB000F6F7DAF860B9FCF77BFC10EE100AF5F790
:106AC000A3FC02460B467B4801F0D2FAFFF7DCB884
:106AD00079492846F6F7C8F8064668B1774BD3F8E7
:106AE00000800026764FB04500F37C81294675482A
:106AF00001F0BEFAFFF7C8B8734801F0B9FA6E4862
:106B000001F0B6FA714801F0B3FA714801F0B0FA39
:106B1000704801F0ADFA704801F0AAFA6F4801F030
:106B2000A7FA6F4801F0A4FA6E4801F0A1FA6E4886
:106B300001F09EFA6D4801F09BFA6D4801F098FA59
:106B40006C4801F095FA6C4801F092FA6B4801F03C
:106B50008FFA6B4801F08CFA6A4801F089FA6A48AA
:106B600001F086FA694801F083FA694801F080FA79
:106B7000684801F07DFA684801F07AFA674801F048
:106B800077FA674801F074FA664801F071FA6648CE
:106B900001F06EFA654801F06BFA654801F068FA99
:106BA000644801F065FA644801F062FA634801F054
:106BB0005FFA634801F05CFA624801F059FA6248F2
:106BC00001F056FA614801F053FA614801F050FAB9
:106BD000604801F04DFA604801F04AFA5F4801F060
:106BE00047FA5F4801F044FA5E4801F041FA5E4816
:106BF00001F03EFA5D4801F03BFA5D4801F038FAD9
:106C00005C4801F035FA5C4801F032FA5B4801F06B
:106C10002FFA5B4801F02CFA5A4801F029FA5A4839
:106C200001F026FA594801F023FA594801F020FAF8
:106C3000584801F01DFA584801F01AFA574801F077
:106C400017FA194801F014FA554801F011FA1848DA
:106C500001F00EFA534801F00BFA194CDFF85C8092
:106C6000514F524DD8F80030B34200F3A380504842
:106C700001F0FEF9FFF708B890D4020854D40208D6
:106C8000A4D40208BCD40208D4D40208E8D4020870
:106C900010D5020824D50208000080BF94D5020850
:106CA000D4D0020834D502085CD5020860D50208A9
:106CB00078D5020888D50208B8D50208E472002009
:106CC000E872002070DC020898D50208ACD50208F2
:106CD000F0CA0208C0D5020800CB0208ECD50208B1
:106CE00018CB020800D602089CCB020830D6020856
:106CF000C0CB020854D6020818CC020868D6020895
:106D0000C4CC02087CD60208D0CC02089CD602086B
:106D100080CE0208E0D60208A0CE020804D70208FE
:106D2000C0CE020820D7020878CF020840D7020858
:106D30005CD7020888D70208CCD7020808D8020816
:106D400014D1020830D8020870D1020850D80208C5
:106D50008CD80208ACD80208F0D8020808D902087A
:106D600048D902085CD90208B0D90208E8D902085B
:106D700028DA020854DA02084CD302088CDA020836
:106D8000E4DA020800DB0208A8D3020838DB0208B4
:106D9000B4D302085CDB020888DB0208A8DB020827
:106DA000D8DB020800DC020830DC020840DC020804
:106DB0005CCC0208A146A26862B12168384601F0A5
:106DC00057F9D9F8041049B10F4801F051F90136CB
:106DD000103447E7206801F04BF9F2E7284601F04C
:106DE00047F9F4E73301D9592846F5F73DFF40B993
:106DF000064B03EB0616F36818A920469847FEF7E2
:106E000043BF01366FE600BF38DC0208E87200209D
:106E100070B40D4E3468631C3360C4EBC4030B4C78
:106E200004EBC30405460FCD0FC40FCD0FC40FCD27
:106E30000FC495E8030084E803003368182B01DDD4
:106E40000022326070BC7047F07900207874002016
:106E50002DE9F0470546894690461F46204B1E689F
:106E6000002E28DD1F4B1868854236D000249A4634
:106E70002946F5F7F9FE88B10134A6421BD023015B
:106E800053F80A00A842F3D1164A240113191551E8
:106E9000C3F80490C3F80880DF601CE011492201A8
:106EA0008B188D50C3F80490C3F80880DF60A642A9
:106EB00011D1264608E00B4932018B188D50C3F8DA
:106EC0000490C3F80880DF600136182E044BD2BF4F
:106ED0001E6000221A60BDE8F0870024D4E700BFDE
:106EE000E4720020E87200200000000000000000B2
:106EF00010B5124C4FF40F72002120460EF088FBA3
:106F0000A21E04F5B9714FF47A7322F8023F0133DF
:106F10009BB28A42F9D10A4A04F23A214FF4FA6349
:106F200022F8023F01339BB28A42F9D10BF000FBF9
:106F3000F2200BF00DFB00F0D3FE10BDDC7C002036
:106F40004E7E002000000000000000000000000055
:106F50002DE9F8430446C82200210EF059FB002316
:106F600023704FF47A72626023734FF4FA7CC4F892
:106F700010C0022121750722627523763C4AE26126
:106F80003C4F27624FF07E5262624FF08049C4F856
:106F900028904FF07F52E262012284F8302084F87A
:106FA000312084F83C10344D2564DFF8D8E0C4F873
:106FB00044E084F8483084F849303048E06484F88C
:106FC000503067652E4EA665DFF8BC80C4F85C8043
:106FD000C4F860906666C4F8688084F86C2084F811
:106FE0006D2084F86E3084F86F3084F8703084F847
:106FF000713084F87C10C4F88050C4F884E084F8C0
:10700000883084F88930C4F88C00C4F890C04FF4FC
:10701000E13CC4F894C084F89820C4F89C70C4F88B
:10702000A060C4F8A450C4F8A80084F8B41084F890
:10703000B53084F8B630C4F8B80084F8BC10032129
:1070400084F8BD1084F8BE2084F8BF3084F8C010E6
:107050004C2184F8C110C62184F8C210C72184F8DD
:10706000C31084F8C43084F8C520BDE8F88300BF9D
:1070700000606A469A99193E9A99993E00803B456C
:107080006666663FCDCCCC3D00004040000000006D
:10709000F8B504464FF4BA7200210EF0B9FA012295
:1070A000227000236370A370E2708B4860608B498C
:1070B000A160DFF8D8C2C4F80CC0894E2661894DA2
:1070C0006561894DA561894DE561894D2562894FCD
:1070D0006762894FA7624FF08247E762874F276355
:1070E000874F6763874FA76384F83C20DFF8A0E2EF
:1070F000C4F840E0844F6764C4F848E0E764834F15
:107100002765834F6765DFF88CE2C4F858E0DFF845
:1071100088E2C4F85CE0DFF884E2C4F860E060660E
:10712000A166C4F86CC026676067A1677949E1670A
:107130007948C4F884007949C4F880107849C4F8C3
:107140008810C4F88C507749C4F890107649C4F878
:107150009410FF2184F8981084F89920032584F86E
:107160009A504FF0020E84F89BE0052584F89C505D
:10717000062584F89D504FF0040C84F89EC084F8D6
:107180009F106A4DC4F8A050694EC4F8A460694EBF
:10719000C4F8A860684EC4F8AC60684EC4F8B0602B
:1071A00084F8B830664EC4F8B460664EC4F8BC606B
:1071B00084F8F8E0C4F8D450634DC4F8D850DFF830
:1071C000E0E1C4F8C0E0DFF8DCE1C4F8C4E0DFF8D7
:1071D000D8E1C4F8C8E0DFF8D4E1C4F8CCE0DFF8C7
:1071E000D0E1C4F8D0E0C4F8DC005848C4F8E000AE
:1071F0005748C4F8E4005748C4F8E800C4F8EC0065
:1072000084F8F9104FF05F0E84F8FAE04FF0AB0EFF
:1072100084F8FBE04FF0850E84F8FCE04FF0210E7F
:1072200084F8FDE04FF03E0E84F8FEE084F8FFC0E5
:1072300084F800114849C4F8041184F8083184F82E
:10724000093184F810314549C4F814114449C4F88F
:107250001811C4F81C114349C4F820114249C4F85C
:10726000241184F82821C4F82C71404AC4F8302134
:107270003F49C4F83411C4F83861C4F83C21C4F85B
:1072800040013C4AC4F844213B4AC4F848214FF429
:10729000FA72C4F84C21394AC4F850214FF07C529C
:1072A000C4F854214FF40052C4F8582184F85C31DA
:1072B00084F85D3184F85E311023C4F86031304BBE
:1072C000C4F86431C4F868512E4BC4F86C312E4BAD
:1072D000C4F87031F8BD00BF00001041000010C1BB
:1072E000000020C20000B442005CADC6005CAD46A8
:1072F000CDCC4C3F000096430080BB44000064426C
:1073000033332341CDCC14410000C8429A99193E31
:107310000AD7A33B000016430000204100808944A7
:107320000000784200409C47000016440000FA44E8
:10733000CDCC4C3D0000A04000409C460AD7A33D68
:10734000000034430000E04000401C470000484378
:107350000000C843CDCCCC3D00401C450000C841D6
:107360006F12833B17B7D138000061446F12833A24
:107370006F12033A99BB963B0AD7233D0AD7A33C29
:1073800000803B4500B80847004053450000484294
:107390000000AA423333733F00606A4600606AC649
:1073A00090F980386F12033ED578493F00401C4663
:1073B0009A99993E000000000000000000000000C3
:1073C000F0B583B00746451C4FF4FA6440F6340626
:1073D0000DF10601204600F053FC58B9BDF8063007
:1073E0001A0A05F8012C05F8023B0134A4B2B44294
:1073F000EED102E03846FFF7ABFD03B0F0BD00BFB1
:1074000070B5054603F0E4F803F0D2FCFEF740FA4D
:1074100003F0D6F800214FF400600BF071F9F22070
:107420000BF096F801354FF4FA6440F6340615F87F
:10743000011C2B7843EA0121204600F011FD0928A8
:1074400006D10134A4B20235B442F0D1012400E0E7
:10745000002401214FF400600BF052F94FF47A70D0
:10746000F6F756FA03F0B4F8FEF722FA204670BD9C
:10747000F0B583B00746451C4FF47A7440F2A2463B
:107480000DF10601204600F0FBFB58B9BDF80630AF
:107490001A0A05F8012C05F8023B0134A4B2B442E3
:1074A000EED102E03846FFF7F3FD03B0F0BD00BFB8
:1074B00070B5054603F08CF803F07AFCFEF7E8F9A6
:1074C00003F07EF800214FF400600BF019F9F22070
:1074D0000BF03EF801354FF47A7440F2A24615F8ED
:1074E000011C2B7843EA0121204600F0B9FC092851
:1074F00006D10134A4B20235B442F0D1012400E037
:10750000002401214FF400600BF0FAF84FF47A7078
:10751000F6F7FEF903F05CF8FEF7CAF9204670BDF5
:107520002DE9F04F2DED068B83B0B0EE40AAF0EEC2
:10753000609AB0EE419A81468B4601929A4603F0DA
:107540001FF8C34C4FF4BA752A4601462046F5F79A
:10755000E7FA2A462146BF48F5F7E2FA0023A3706E
:10756000E37063704FF07E52C4F88C20C4ED1F9A14
:10757000B94AC4F89420B94AC4F88820B84AC4F873
:10758000802084F85D31204604F012F84FF4FA743C
:10759000642503F02DF820B12846F6F7B9F9013C2F
:1075A000F7D142F21070F6F7B3F902F0C9FA009081
:1075B00002F0CEFAF0EE40AA02F0AAFA9FEDA90A74
:1075C0004EF6602002F094FA02F0FAFF03F008F899
:1075D000B0EE4A0A03F0B4FB0027DFF87482F5EE40
:1075E000008A45E002F0FCFF03F0E2FB79EEA97AA5
:1075F000C8ED1F7A9C4BC8F8883002F0F1FF404676
:1076000003F0D6FF42F21070F6F782F902F0E8FFBD
:10761000B0EE4A0A03F094FB2EE002F0E1FF03F023
:10762000C7FBF1EE007A69EEA77AC8ED1F7A012355
:1076300088F8013002F0D4FF404603F0B9FF42F26F
:107640001070F6F765F902F0CBFFB0EE4A0A03F0CE
:1076500077FB11E0B4F5FA6F40F3DA80002E40F0CA
:10766000D780354601E0012576B90137032F0BD0CD
:10767000012FB7D0022FD0D000263446B6EE008AB4
:107680000A25CAE00025EFE735B3FCF7C9FA02F096
:10769000A7FFB6EE000A03F09BFA4FF47A60F6F704
:1076A00037F902F09DFF9FED6F0A03F049FB0020C0
:1076B00003F026F906464FF4FA6400250A27284607
:1076C00003F01EF9801B022815DC3846F6F720F976
:1076D000013CF4D101250FE09FED620A03F030FB7D
:1076E000B0EE6A0A009802F003FA5A4803F060FF0D
:1076F00002F06EFF85E00225FCF7F2F9002003F0AE
:10770000FFF8074640F6B83400264FF00A08304626
:1077100003F0F6F8C01B312805DC4046F6F7F8F810
:10772000013CF4D100E001350198FCF719FACAF8E0
:107730000000FCF7D5F989ED000A41F288340A26E9
:1077400002F09EFFB4EEC90AF1EE10FA05DD3046F4
:10775000F6F7DEF8013CF3D100E0013502F040FF1E
:10776000B0EE490A03F034FAFCF7BAF9002003F04E
:10777000C7F8074640F6B8349FED3A8AF0EE488ADB
:107780000026B7EE009A4FF00A08304603F0B8F82A
:10779000C01B63280BDC02F0B3FF78EE808A38EE62
:1077A000098A4046F6F7B4F8013CEED100E0013515
:1077B000FCF796F9F0EE409A88EE889A02F010FFF6
:1077C00003F0F6FAD9ED007A79EEE79A274B1B8A97
:1077D0009BB207EE903AF8EE677A89EEA77A29EE27
:1077E000079A8BED009A1B4803F0E2FEB0EE6A0A9E
:1077F000009802F07DF902F0EBFE052D14BF002584
:107800000125284603B0BDEC068BBDE8F08F0126AC
:1078100041F288339C423FF435AF02F031FFB4EEC1
:10782000C80AF1EE10FA7FF51EAF2846F6F770F899
:10783000013402F025FFB4EEE80AF1EE10FAFFF68B
:1078400009AF002EE3D10120FCF782F9DFE700BF8A
:107850001C7F0020908000200000964300004842DA
:1078600000808944000000000000A04144980020EE
:107870002DE9F84F2DED088BB0EE409AB0EE608AFE
:10788000F0EE419AF0EE61BA804602F079FEAD4C1E
:107890004FF4BA752A4601462046F5F741F92A46C3
:1078A0002146A948F5F73CF90023A370E370637003
:1078B0004FF07E53C4F88C30C4ED1F9AA34BC4F82C
:1078C0006431A34BC4F89430A24BC4F88830A24B67
:1078D000C4F88030204603F06BFE4FF4FA74642540
:1078E00002F086FE20B12846F6F712F8013CF7D1E7
:1078F00042F21070F6F70CF802F022F9074602F097
:1079000027F9B0EE40BA02F003F99FED940A4EF663
:10791000602002F0EDF802F053FE02F061FEB0EEDE
:10792000490A03F00DFA4FF0000A4FF0010B9FEDEA
:107930008CAA5E465FE002F053FE03F039FA814CF8
:1079400084ED22AA02F04CFE204603F031FE42F202
:107950001070F5F7DDFF02F043FEB0EE490A03F0C8
:10796000EFF951E002F03CFE03F022FA754C79EE9B
:10797000A97AC4ED1F7A7B4BC4F8883002F030FE40
:10798000204603F015FE42F21070F5F7C1FF02F039
:1079900027FEB0EE490A03F0D3F935E002F020FEED
:1079A00003F006FA674CF1EE007A69EEA77AC4EDAF
:1079B0001F7A84F801B002F013FE204603F0F8FDB0
:1079C00042F21070F5F7A4FF02F00AFEB0EE490A89
:1079D00003F0B6F918E0B4F5FA6F40F39380002D88
:1079E00040F09080A94601E0D946BDB90AF1010AEC
:1079F000BAF1040F12D0BAF1010F9CD0BAF1020F04
:107A0000B0D0BAF1030FC9D000252C464FF00A09B7
:107A1000F6EE008A7AE04FF00009E6E7B9F1000FD0
:107A200060D002F0DDFDB0EE480A03F0D1F84FF46B
:107A3000FA659FED4A8AB0EE489AF0EE488AF0EE79
:107A4000489A494EDFED49AA9FED49AA338A9CB274
:107A500002F016FE07EE904AF8EE677A67EEAA7A11
:107A600067EE8A7A27EE800A79EE809A02F048FE65
:107A700078EE808A02F0ACFE39EE009AF7EE007ADA
:107A800038EE278A0A20F5F743FF013DDED1B0EE3C
:107A90004B0A384602F02CF82B4803F089FD02F01F
:107AA00097FD9FED2E0A03F04BF989EE887AC9EE17
:107AB000087A67EEABBA7BEEABBA77EE6BBADFED66
:107AC0002D7A6BEEA77A88EE887ADFED2B6A27EEA7
:107AD000267AC7EE876AC8ED006A4846BDEC088B77
:107AE000BDE8F88F9FED1D0A03F02AF9B0EE4B0AAE
:107AF000384601F0FDFF144803F05AFD02F068FD1E
:107B0000EBE7354641F288339C4284D002F0B8FD61
:107B1000B4EEC80AF1EE10FA7FF566AF4846F5F705
:107B2000F7FE013402F0ACFD68EE287AB4EEE70A05
:107B3000F1EE10FAFFF64FAF002DE2D13046FCF720
:107B400007F8DEE71C7F00209080002000401C46E4
:107B50000000964300004842008089440000000075
:107B600000007A430000A041449800206740533A47
:107B700074D1954100007042EF1F2E4100000000BB
:107B800038B51E4B1B889BB21D4A128892B20ABBA5
:107B90004EF6EE629B1A18BF012303F50054013420
:107BA000A4030133174A02EB8332944224D22368A0
:107BB000B3F1FF3F06D00434A24219D92368B3F1D0
:107BC000FF3FF8D1054620460AF04AFD092809D0B2
:107BD00080B20EE073B94EF6EE639A4214BF0023F2
:107BE0000123DAE72946A01C0AF03AFD80B200E042
:107BF000802038BDAB20FCE78020FAE70040000879
:107C000000800008FE3F00080000000000000000A7
:107C100038B504460D4602F0BBFA0378FF2B0BD1B2
:107C2000034600F57F503F3013F8012FFF2A03D1A0
:107C30008342F9D1092004E0294620460AF0D8FC05
:107C400080B238BD0000000000000000000000000D
:107C500008B502210820FFF7DBFFC0B2092800D0D9
:107C600008BD002105480AF0FBFC0928F8D10221D3
:107C70001020FFF7CDFFC0B2F2E700BF00400008C0
:107C8000134B1A8892B203F580431B8812B19BB242
:107C9000CBB9012270B4551CAD030E4EAB19920343
:107CA0000D4C1444AA5B92B2904206D0043BA3420E
:107CB0000BD91A8892B28242F8D133F8023C0B8079
:107CC000002070BC7047AB2070470120F9E700BF6F
:107CD00000400008FE3F00080240000800000000CD
:107CE0002DE9F041584B1B889BB2584A128892B23A
:107CF0004EF6EE618B4224D04FF6FF718B4206D0D8
:107D0000002B62D0FFF7A4FF80B2BDE8F0813AB14A
:107D10004EF6EE639A4208D0FFF79AFF80B2F4E77E
:107D200002210820FFF774FFEFE702210820FFF788
:107D30006FFF0928E9D1002144480AF091FC80B284
:107D4000E3E772BB424D00244FF0FF36414FDFF8AE
:107D50000C8103E00134B4F58F7F16D03B889BB2D1
:107D600035F8020B834208BF26B2B442F2D0414636
:107D7000FFF786FF0128EDD0B8F8001035F8020CA7
:107D8000FFF7FEFE0928E5D0BFE700212E480AF0E4
:107D900067FC80B20928B8D102211020FFF738FF14
:107DA000B3E74FF6FF739A4203D0FFF751FF80B25B
:107DB000ABE702211020FFF72BFF0928A5D10021F6
:107DC00021480AF04DFC80B29FE75AB14FF6FF738D
:107DD0009A420BD01E4D00244FF0FF361E4FDFF8A5
:107DE0007C800CE0FFF734FF80B28EE70221102088
:107DF000FFF70EFF89E70134B4F58F7F16D03B887B
:107E00009BB235F8020B834208BF26B2B442F2D0CF
:107E10004146FFF735FF0128EDD0B8F8001035F8DE
:107E2000020CFFF7ADFE0928E5D06EE700210748F8
:107E30000AF016FC80B209287FF467AF02210820FF
:107E4000FFF7E6FE61E700BF004000080080000881
:107E5000DC7C002006400008068000080482002028
:107E60002DE9F84305460C46FFF78AFE802801D02D
:107E7000BDE8F883254B1B889BB2254A128892B235
:107E800023B1002A3ED11027204E01E00827204EC2
:107E90004EF6EE6130460AF0E3FB092801D080B2CD
:107EA000E6E721462846FFF76BFE0928E0D1194C8A
:107EB00004F50F78DFF8609001E0444511D034F804
:107EC000020B8542F9D04946FFF7DAFE0128F4D0CB
:107ED000B9F8001034F8020CFFF752FE0928ECD074
:107EE000C6E702213846FFF793FEC3B2092B01D043
:107EF0001846BDE7002130460AF0B2FB092803D03E
:107F000080B2B5E7AB20B3E70920B1E70040000835
:107F100000800008DC7C00200482002000000000BB
:107F200000B583B000230093044B402240F6981123
:107F30000348F5F7D5FC03B05DF804FB717F010839
:107F4000308200200000000000000000000000005F
:107F5000014B1860704700BFB8930020000000007C
:107F600008B5024B1B6803B1984708BDB8930020C1
:107F700080B582B0304B9A69304991619A69304B33
:107F80001A60DFF8E4802F4F2F4E304D4FF0000A7B
:107F90009FED2F8A33E00DF10809012349F8043DD4
:107FA0002C4C18232370D5ED007A67EE887A4A4668
:107FB000FDEEE77A17EE901A2046F9F781F8D6ED34
:107FC000007A67EE887A4A46FDEEE77A17EE901A55
:107FD0002046F9F775F8019B04EB030C3A4603CAF7
:107FE000E050CCF80410D8F8002003F10901019109
:107FF0008CF80820184B1B68D3B120469847012005
:10800000F5F7BEFE43463A4631462846134C94EDFA
:10801000001A134CD4ED000A124C94ED000AFFF73D
:108020007FFA0028B7D1C5F800A0C6F800A0B2E7D3
:108030000848FFF795FFE2E7F0190020B0DC0208DE
:10804000C88B00201C8200200C820020148200209B
:1080500000007A44B88F0020BC93002024820020C6
:1080600028820020108200201882002000000000DA
:108070000FB400B583B004AB53F8042B01930A4846
:10808000152100F8011BFE210EF0B2FA011E06DDDB
:10809000FE29A8BFFE2101310348FFF761FF03B0AD
:1080A0005DF804EB04B07047B88E002000000000BB
:1080B00000B585B00123019316238DF80830DFED5C
:1080C000097A20EE270A01AAFDEEC07A17EE901A6F
:1080D00002A8F8F7F5FF019902A8FFF741FF05B0E4
:1080E0005DF804FB0050C3470000000000000000E2
:1080F000014B1878704700BFCC8B002000000000B7
:10810000F0B583B00C46AD4D287002AE022346F8A0
:10811000043D0B786B70324649682846F8F7E8FF53
:10812000314694ED020A2846F9F71AF8227B019BA2
:10813000591C0191EA543246218A2846F8F7B0FFCB
:10814000019B227DEA54617DEA185170033301934B
:10815000237E9370314694ED070A2846F9F700F81C
:10816000314694ED080A2846F8F7FAFF314694EDB7
:10817000090A2846F8F7F4FF314694ED0A0A284622
:10818000F8F7EEFF314694ED0B0A2846F8F7E8FFC2
:10819000019B94F83020EA5494F83120991C019105
:1081A0002B445A70314694ED0D0A2846F8F7D8FF53
:1081B000314694ED0E0A2846F8F7D2FF019B5A1C6F
:1081C000019294F83C20EA54314694ED100A284676
:1081D000F8F7C6FF314694ED110A2846F8F7C0FFBC
:1081E000019B94F84820EA5494F84920991C019185
:1081F0002B445A70314694ED130A2846F8F7B0FF25
:10820000019B5A1C019294F85020EA54314694ED97
:10821000150A2846F8F7A4FF314694ED160A2846B9
:10822000F8F79EFF314694ED170A2846F8F798FFB5
:10823000314694ED180A2846F8F792FF314694ED3E
:10824000190A2846F8F78CFF314694ED1A0A284699
:10825000F8F786FF019A94F86C30AB54AB1894F899
:108260006D10597094F86E10997094F86F10D97061
:1082700094F87010197194F87110063201925971C6
:10828000314694ED1D0A2846F8F76AFF314694ED11
:108290001E0A2846F8F764FF019B5A1C019294F8C5
:1082A0007C20EA54314694ED200A2846F8F758FF1E
:1082B000314694ED210A2846F8F752FF019B94F8C5
:1082C0008820EA5494F88920991C01912B445A7013
:1082D000314694ED230A2846F8F742FF3246B4F8B7
:1082E00090102846F8F7DCFE3246D4F89410284661
:1082F000F8F7FEFE019B5A1C019294F89820EA546C
:10830000314694ED270A2846F8F72AFF314694EDC6
:10831000280A2846F8F724FF314694ED290A284612
:10832000F8F71EFF314694ED2A0A2846F8F718FFA1
:10833000314694ED2B0A2846F8F712FF314694EDAA
:108340002C0A2846F8F70CFF019B94F8B420EA5455
:10835000EA1894F8B510517094F8B61003330193ED
:108360009170314694ED2E0A2846F8F7F9FE0199EE
:1083700094F8BC306B5494F8BD206B185A7094F884
:10838000BE209A7094F8BF20DA7094F8C0201A7159
:1083900094F8C1205A71881D2E18224632F8C27FE7
:1083A00092782F52B27094F8C5200A3101915A7216
:1083B0002846FFF7D5FD03B0F0BD00BFB88F002001
:1083C000002901F010832DE9F0432DED048BBFB09F
:1083D000074600233D93044614F8015B4E1E252DED
:1083E00041D8DFE815F02600450048005B00720028
:1083F0001101220133014401510162016D0140006C
:10840000A30185048504B9065C085C086F0881082F
:108410004000400040008808B008FE084B09FF09F2
:108420005E0A600A640A7B0A9C0AB70ABF0AE50A68
:10843000EF0AB14B00221A7003225A7022229A705E
:10844000AE4A11889278A3F803105A71AC4C07CC4D
:10845000C3F80600C3F80A10C3F80E2012213D919C
:108460001846FFF77DFD3FB0BDEC048BBDE8F083FF
:1084700001F056FEF7E73DA92046F8F7E9FE01F0C6
:10848000D7FD9D4B022119703D91092814BF002092
:10849000012058701846FFF763FDE4E73DA9204628
:1084A000F8F7D6FE3D99721A214401F009FE924B6D
:1084B00003221A7002213D91092814BF00200120D7
:1084C00058701846FFF74CFDCDE73EAD012345F847
:1084D000043D894C0423237002F032FB2946F2EE5E
:1084E000040A2046F8F71CFE02F032FB2946F2EEA1
:1084F000040A2046F8F714FE02F062FA9FED818A22
:108500002946F0EE480A2046F8F71AFE02F068FA0B
:108510002946F0EE480A2046F8F712FE02F070FAFB
:108520002946F0EE480A2046F8F70AFE02F088FADB
:108530002946F0EE480A2046F8F702FE02F0A0F8BD
:108540002946DFED710A2046F8F7EAFD02F0D8F877
:108550002946F7EE000A2046F8F7F2FD6B4B1B8A1E
:108560009BB207EE903AF8EE677A9FED697A67EE74
:10857000877A2946F2EE040A9FED660A27EE800A02
:108580002046F8F7CDFD002002F0E2F89FED628A68
:108590002946F0EE480A2046F8F7D2FD002002F006
:1085A000E7F82946F0EE480A2046F8F7C9FD002012
:1085B00002F0EEF82946F0EE480A2046F8F7C0FD32
:1085C000002002F0F5F82946F0EE480A2046F8F7B8
:1085D000B7FD002002F094F92A4601462046F8F73C
:1085E0006FFD002002F0BCF92A4601462046F8F74C
:1085F00067FD3D9D6B1C3D9301F0FAFF60553D9971
:108600002046FFF7ADFC2EE73DA92046F8F708FE0F
:1086100007EE900AB8EEE70ADFED407A80EE270A0F
:1086200002F0D6FA01F074FA1DE73DA92046F8F7EA
:10863000F7FD07EE900AB8EEE70ADFED337A80EE39
:10864000270A02F07DFB01F063FA0CE73DA9204602
:10865000F8F7E6FD07EE900AB8EEE70ADFED2A7AB2
:1086600080EE270A02F0ACFB01F052FAFBE63DA9CE
:108670002046F8F7D5FD07EE900AB8EEE70A02F0BB
:10868000DFFA01F045FAEEE63DA92046F8F7C8FD0D
:1086900007EE900AB8EEE70ADFED217A80EE270AAE
:1086A00002F006FB01F034FADDE63DA99FED160A63
:1086B0002046F8F7E5FD02F0BBFB01F029FAD2E60F
:1086C00001F05EFF174C4FF4BA7201462046F4F7F2
:1086D00027FA01233D937B78134A1370A27812B9CD
:1086E00023B902F065FB01F013FABCE6012BFAD1C5
:1086F000FBF736F9F7E700BFB88F0020D0D30208A8
:10870000107AFF1F0000C84200007A4444980020FD
:108710006740533A74D1954100401C460050C3470E
:1087200000247449D08B0020CC8B002001F028FF5E
:10873000E44D4FF4BA7201462846F4F7F1F97B781C
:108740002B70BB786B70FB78AB703EAE042346F8A1
:10875000043D3B79EB7031462046F8F7A1FD85EDED
:10876000010A31462046F8F79BFD85ED020A3146A5
:108770002046F8F795FD85ED030A31462046F8F7C7
:108780008FFD85ED040A31462046F8F789FD85ED19
:10879000050A31462046F8F783FD85ED060A314685
:1087A0002046F8F77DFD85ED070A31462046F8F7AB
:1087B00077FD85ED080A31462046F8F771FD85ED15
:1087C000090A31462046F8F76BFD85ED0A0A314665
:1087D0002046F8F765FD85ED0B0A31462046F8F78F
:1087E0005FFD85ED0C0A31462046F8F759FD85ED11
:1087F0000D0A31462046F8F753FD85ED0E0A3D9BE4
:108800005A1C3D92E35C003318BF012385F83C30CD
:1088100031462046F8F744FD85ED100A31462046E2
:10882000F8F73EFD85ED110A31462046F8F738FD90
:1088300085ED120A31462046F8F732FD85ED130A20
:1088400031462046F8F72CFD85ED140A31462046C6
:10885000F8F726FD85ED150A31462046F8F720FD8C
:1088600085ED160A31462046F8F71AFD85ED170A00
:1088700031462046F8F714FD85ED180A6A686A66E5
:10888000AB68AB66E968E966296929676A67AB671F
:1088900031462046F8F704FD85ED1F0A3146204693
:1088A000F8F7FEFC85ED200A31462046F8F7F8FC83
:1088B00085ED210A31462046F8F7F2FC85ED220AC3
:1088C00031462046F8F7ECFC85ED230A3146204678
:1088D000F8F7E6FC85ED240A31462046F8F7E0FC7F
:1088E00085ED250A3D9B05F19802E1180868496865
:1088F00003C208333D9331462046F8F7D1FC85ED9D
:10890000280A31462046F8F7CBFC85ED290A314686
:108910002046F8F7C5FC85ED2A0A31462046F8F7CF
:10892000BFFC85ED2B0A31462046F8F7B9FC85EDF2
:108930002C0A3D9B5A1C3D92E35C003318BF012377
:1089400085F8B83031462046F8F7AAFC85ED2D0AA7
:1089500031462046F8F7A4FC85ED2F0A3D9B5A1CB2
:108960003D92E35C85F8F83031462046F8F798FCF4
:1089700085ED350A31462046F8F792FC85ED360A3A
:1089800031462046F8F78CFC85ED300A314620460A
:10899000F8F786FC85ED310A31462046F8F780FC71
:1089A00085ED320A31462046F8F77AFC85ED330A28
:1089B00031462046F8F774FC85ED340A31462046EE
:1089C000F8F76EFC85ED370A31462046F8F768FC6B
:1089D00085ED380A31462046F8F762FC85ED390A04
:1089E00031462046F8F75CFC85ED3A0A31462046D0
:1089F000F8F756FC85ED3B0A31462046F8F750FC67
:108A000085ED3C0A31462046F8F74AFC85ED3D0AE3
:108A10003D9BE21811685268C5F8F910C5F8FD20B1
:108A200008333D9331462046F8F73AFC85ED410A7C
:108A30003D9BE25C003218BF012285F808219A1C98
:108A40003D9223445B78003318BF012385F8093138
:108A500031462046F8F724FC85ED430A3D9B5A1C1D
:108A60003D92E35C003318BF012385F81031314695
:108A70002046F8F715FC85ED450A31462046F8F703
:108A80000FFC85ED460A31462046F8F709FC85EDD6
:108A9000470A31462046F8F703FC85ED480A31467F
:108AA0002046F8F7FDFB85ED490A3D9B5A1C3D9297
:108AB000E35C003318BF012385F828313146204696
:108AC00018E000BFD08B00200000C8420000C8C2E0
:108AD00000000000000016430000644200504348BC
:108AE000005043C8CDCCCC3D3333733F0000DC4253
:108AF000000020C2F8F7D4FB85ED4B0A3146204632
:108B0000F8F7CEFB85ED4C0A31462046F8F7C8FB56
:108B100085ED4D0A31462046F8F7C2FB85ED4E0A39
:108B200031462046F8F7BCFB85ED4F0A314620461A
:108B3000F8F7B6FB85ED500A31462046F8F7B0FB52
:108B400085ED510A31462046F8F7AAFB85ED520A19
:108B500031462046F8F764FBC5F84C013146204603
:108B6000F8F79EFB85ED540A31462046F8F798FB4E
:108B700085ED550A31462046F8F76AFBC5F85801DD
:108B80003D9BE25C85F85C21E2185178003118BF0A
:108B9000012185F85D11917885F85E1104333D93CC
:108BA000D378C5F8603131462046F8F779FB85ED7A
:108BB000590A31462046F8F773FB85ED5A0A3146CB
:108BC0002046F8F76DFB85ED5B0A31462046F8F745
:108BD00067FB85ED5C0A5FED448A1FED448AF0EE89
:108BE000680AB0EE480A281DFCF722FBF0EE680A7E
:108BF000B0EE480A05F10800FCF71AFBF0EE680A2F
:108C0000B0EE480A05F10C00FCF712FBF0EE680A22
:108C1000B0EE480A05F11000FCF70AFB1FED548A7C
:108C20005FED540AB0EE480A05F11400FCF700FBB2
:108C30005FED578AF0EE680AB1EE080A05F13000E0
:108C4000FCF7F6FAF0EE680AB1EE080A05F12C001E
:108C5000FCF7EEFA1FED5F9A5FED5F8AF0EE490ACE
:108C6000B0EE680A05F11C00FCF7E2FAF0EE490AE2
:108C7000B0EE680A05F11800FCF7DAFA5FED670A52
:108C8000B0EE480A05F15400FCF7D2FA5FED6A0A2B
:108C9000B0EE480A05F15800FCF7CAFA5FED6D8A9C
:108CA0001FED6D8AF0EE680AB0EE480A05F140004B
:108CB000FCF7BEFAF0EE680AB0EE480A05F144008F
:108CC000FCF7B6FA2846FEF7F3FB284602F070FCE4
:108CD0004FF4FA60F4F71CFE01213D9103480D2387
:108CE0000370FFF73DF9FFF7BEBB00BFB88F002050
:108CF0000E2D00F02582F248FEF7CAF9F14C2570DE
:108D0000EF4D2B7863706B78A370AB78E3703EAE59
:108D1000052346F8043DEB782371314695ED010AB1
:108D20002046F8F71DFA314695ED020A2046F8F77D
:108D300017FA314695ED030A2046F8F711FA314645
:108D400095ED040A2046F8F70BFA314695ED050A31
:108D50002046F8F705FA314695ED060A2046F8F761
:108D6000FFF9314695ED070A2046F8F7F9F9314643
:108D700095ED080A2046F8F7F3F9314695ED090A12
:108D80002046F8F7EDF9314695ED0A0A2046F8F746
:108D9000E7F9314695ED0B0A2046F8F7E1F931463F
:108DA00095ED0C0A2046F8F7DBF9314695ED0D0AF2
:108DB0002046F8F7D5F9314695ED0E0A2046F8F72A
:108DC000CFF995F83C203D9B591C3D91E25431462A
:108DD00095ED100A2046F8F7C3F9314695ED110AD2
:108DE0002046F8F7BDF9314695ED120A2046F8F70E
:108DF000B7F9314695ED130A2046F8F7B1F9314637
:108E000095ED140A2046F8F7ABF9314695ED150AB1
:108E10002046F8F7A5F9314695ED160A2046F8F7F1
:108E20009FF9314695ED170A2046F8F799F9314632
:108E300095ED180A2046F8F793F9314695ED1F0A8B
:108E40002046F8F78DF9314695ED200A2046F8F7CF
:108E500087F9314695ED210A2046F8F781F9314628
:108E600095ED220A2046F8F77BF9314695ED230A65
:108E70002046F8F775F9314695ED240A2046F8F7B3
:108E80006FF9314695ED250A2046F8F769F93D9BC3
:108E9000E71805F1980203CAE050796008333D9362
:108EA000314695ED280A2046F8F75AF9314695EDF6
:108EB000290A2046F8F754F9314695ED2A0A20464A
:108EC000F8F74EF9314695ED2B0A2046F8F748F9A8
:108ED000314695ED2C0A2046F8F742F995F8B8206E
:108EE0003D9B591C3D91E254314695ED2D0A20469B
:108EF000F8F736F9314695ED2F0A2046F8F730F9A4
:108F00003D9B5A1C3D9295F8F820E254314695ED70
:108F1000350A2046F8F724F9314695ED360A204601
:108F2000F8F71EF9314695ED300A2046F8F718F9A2
:108F3000314695ED310A2046F8F712F9314695EDA4
:108F4000320A2046F8F70CF9314695ED330A2046EF
:108F5000F8F706F9314695ED340A2046F8F700F99E
:108F6000314695ED370A2046F8F7FAF8314695ED87
:108F7000380A2046F8F7F4F8314695ED390A2046CC
:108F8000F8F7EEF8314695ED3A0A2046F8F7E8F89A
:108F9000314695ED3B0A2046F8F7E2F8314695ED6B
:108FA0003C0A2046F8F7DCF8314695ED3D0A2046AC
:108FB000F8F7D6F83D9BE1182A4652F8F90F5268A7
:108FC000E0504A6008333D93314695ED410A204612
:108FD000F8F7C6F83D9B95F80821E25495F8092169
:108FE000991C3D9123445A70314695ED430A204621
:108FF000F8F7B6F895F810213D9B591C3D91E254C5
:10900000314695ED450A2046F8F7AAF8314695ED28
:10901000460A2046F8F7A4F8314695ED470A20465F
:10902000F8F79EF8314695ED480A2046F8F798F88B
:10903000314695ED490A2046F8F792F895F828212F
:109040003D9B591C3D91E254314695ED4B0A20461B
:10905000F8F786F8314695ED4C0A2046F8F780F887
:10906000314695ED4D0A2046F8F77AF8314695EDF0
:109070004E0A2046F8F774F8314695ED4F0A20461F
:10908000F8F76EF8314695ED500A2046F8F768F883
:10909000314695ED510A2046F8F762F8314695EDD4
:1090A000520A2046F8F75CF83246D5F84C112046B3
:1090B000F8F706F8314695ED540A204604E000BF63
:1090C000D08B0020B88F0020F8F74AF8314695ED94
:1090D000550A2046F8F744F83246D5F8581120468C
:1090E000F8F706F83D9B95F85C21E254E21895F8F4
:1090F0005D11517095F85E119170D5F860110433CF
:109100003D93D170314695ED590A2046F8F728F87D
:10911000314695ED5A0A2046F8F722F8314695ED8A
:109120005B0A2046F8F71CF8314695ED5C0A2046AC
:10913000F8F716F83D992046FEF712FFFFF793B9AE
:1091400001F01EFA4FF4BA7201460248F3F7E8FC48
:10915000D4E500BFD08B002007F032F9C8220146C9
:109160000BA8F3F7DDFC01253D957B788DF82C30BD
:109170003DA92046F8F76CF80C903DA92046F8F779
:109180008FF88DED0D0A3D9B5A193D92E35C00333B
:1091900018BF01238DF838303DA92046F8F730F884
:1091A0000F903D9BE25C8DF84020E21851788DF8DD
:1091B000411003333D9393788DF844303DA9204608
:1091C000F8F76EF88DED120A3DA92046F8F768F819
:1091D0008DED130A3DA92046F8F762F88DED140ACB
:1091E0003DA92046F8F75CF88DED150A3DA920460B
:1091F000F8F756F88DED160A3D9BE25C003218BF79
:1092000001228DF85C209A1C3D9223445B78003348
:1092100018BF01238DF85D303DA92046F8F740F8CE
:109220008DED180A3DA92046F8F73AF88DED190A98
:109230003D9B5A193D92E35C8DF868303DA920466C
:10924000F8F72EF88DED1B0A3DA92046F8F728F80F
:109250008DED1C0A3D9BE25C003218BF01228DF8A7
:1092600074209A1C3D9223445B78003318BF01237D
:109270008DF875303DA92046F8F712F88DED1E0ADD
:109280003D9B5A193D92E35C8DF87C303DA9204608
:10929000F8F706F88DED200A3DA92046F8F700F80A
:1092A0008DED210A3DA92046F7F7FAFF8DED220A40
:1092B0003DA92046F7F7F4FF8DED230A3DA920468E
:1092C000F7F7EEFF8DED240A3DA92046F7F7E8FFFA
:1092D0008DED250A3D9AA35C003318BF01238DF85C
:1092E0009830A3185978003118BF01218DF89910D2
:1092F0009978003118BF01218DF89A10D978003182
:1093000018BF01218DF89B101979003118BF012178
:109310008DF89C1006323D925B79003318BF012313
:109320008DF89D303DA92046F7F7BAFF8DED280A4C
:109330003DA92046F7F7B4FF8DED290A3D9B5A1948
:109340003D92E35C8DF8A8303DA92046F7F7A8FFD1
:109350008DED2B0A3DA92046F7F7A2FF8DED2C0AD3
:109360003D9BE25C003218BF01228DF8B4209A1CAC
:109370003D9223445B78003318BF01238DF8B5304C
:109380003DA92046F7F78CFF8DED2E0A3DA920461A
:10939000F7F736FF2F903DA92046F7F759FF309099
:1093A0003D9B5A193D92E35C8DF8C4303DA920469F
:1093B000F7F776FF8DED320A3DA92046F7F770FFEB
:1093C0008DED330A3DA92046F7F76AFF8DED340A8B
:1093D0003DA92046F7F764FF8DED350A3DA92046EB
:1093E000F7F75EFF8DED360A3DA92046F7F758FFE7
:1093F0008DED370A3D9BE25C8DF8E020E1184A785C
:10940000003218BF01228DF8E12003333D938B78A1
:10941000003318BF01238DF8E2303DA92046F7F74D
:109420003FFF8DED390A3D9BE25C8DF8E8201C443E
:1094300062788DF8E920A2788DF8EA20E2788DF83C
:10944000EB2022798DF8EC2062798DF8ED20224610
:1094500032F8061F9278ADF8EE108DF8F0200A333E
:109460003D93637A003318BF01238DF8F1300BA8C8
:10947000FDF7C6FF0BA806F0ABFF9DED0D0A0C989B
:1094800000F036FB4FF4FA60F4F742FA3D95C44819
:10949000102303702946FEF763FDFEF7E4BF112D8C
:1094A00008D00BA8FDF754FD0BA92846FEF728FEAF
:1094B000FEF7D9BF06F084FFC82201460BA8F3F7D8
:1094C0002FFBF1E73EA9012341F8043D45782046F2
:1094D000F7F796FE3D9B5A1C3D92E25C01462846FA
:1094E00001F006FBFEF7BFBF002343542046FCF704
:1094F0005FFBFEF7B8BF9FEDAB8A3DA9B0EE480A0F
:109500002046F7F7BDFEA84B83ED000A3DA9B0EE5B
:10951000480A2046F7F7B4FEA44B83ED000A3DA9A4
:10952000B0EE480A2046F7F7ABFEA14B83ED000AE8
:10953000A04B1A68A04B1A600121A04B1868F4F7E1
:109540000FFCFEF790BF01F01BF89D4C4FF4BA766C
:10955000324601462046F3F7E3FA9A4D3246214659
:109560002846F3F7DDFA934B1A68934B1A600223EF
:10957000A370204602F01CF8002302933EA941F894
:10958000EC3D02A804F0D4F90446284602F010F895
:1095900014B90023029303933EAC012344F8043D25
:1095A0007F4D19232B702146DFED870A9DED020ABE
:1095B0002846F7F7C5FD2146DFED7A0A9DED030A3F
:1095C0002846F7F7BDFD7C4B1B6823B13D99284623
:1095D0009847FEF748BF3D997148FEF7C1FCFEF77A
:1095E00042BF9FED708A3DA9B0EE480A2046F7F7CA
:1095F00047FEF0EE408A3DA9B0EE480A2046F7F754
:109600003FFEB0EE409A3DA9B0EE480A2046F7F77B
:1096100037FEB0EE408A3DA99FED6B0A2046F7F772
:109620002FFE644B1A68644B1A6003A8F0EE401AD0
:10963000B0EE491AF0EE480AB0EE680AFEF718F9E3
:1096400008B9002303933EA9012341F8043D54487F
:109650001A230370DFED5D0A9DED030AF7F770FD35
:10966000554B1B6823B13D994D489847FEF7FBBE0B
:109670003D994B48FEF774FCFEF7F5BE00F0F8FB91
:10968000002869D000F07CFF4D4D4FF4BA76324689
:1096900001462846F3F744FADFF828913246294676
:1096A0004846F3F73DFADFF81081424B1B68C8F8D3
:1096B000003000273EAE46F8047D31469FED390A62
:1096C0002046F7F7DDFDB0EE408A0223AB70404B39
:1096D000C5F8AC303F4BC5F8A4303F4BC5F8A830B7
:1096E000284601F065FF0023029303933EAB03F885
:1096F000F17D03AA02A93846B0EE480A03F000FD46
:10970000484601F055FF01233D93254C1B23237050
:109710009FED2D8A3146F0EE480A9DED020A204663
:10972000F7F70EFD3146F0EE480A9DED030A20469C
:10973000F7F706FD9DF807203D9B591C3D91E2542B
:10974000D8F800301BB120469847FEF78CBE14486D
:10975000FEF706FCFEF787BE3EAD012345F8043D4B
:109760000F4C1B2323709FED188A2946F0EE480A00
:109770009FED1A0A2046F7F7E3FC2946F0EE480A67
:109780009FED170A2046F7F7DBFC3D9B591C3D91E6
:109790000022E2542046FEF7E3FBFEF764BE00BF62
:1097A000B88F002000007A44108200202882002018
:1097B00024820020B8930020BC930020C88B002096
:1097C000D08B0020448D0020002474498096184BD3
:1097D00000401C460AD7233C0000204100407A4448
:1097E0000000000000F0CCFE7F4D4FF4BA7201463D
:1097F0002846F3F795F995F85C31002B48D17B4F5B
:109800004FF4BA7229463846F3F78AF93EA9002385
:1098100041F8043D9FED760A2046F7F731FDB0EEA2
:10982000408A744E744B1B6833600223AB70734BD9
:10983000C5F8AC30724BC5F8A430724BC5F8A830EF
:10984000284601F0B5FE03A8B0EE480A04F078F906
:109850000446384601F0ACFE6B4A15461C2305F859
:10986000013B03AB03CBC2F8010069600A233D93BF
:1098700084F001045472336823B10A2110469847DA
:10988000FEF7F1BD0A216048FEF76AFBFEF7EBBD6B
:109890005D4B4FF0FF321A605A6000225A72FEF799
:1098A000E2BD72B6FEE700F033F9FEF7DCBD3EAD77
:1098B000012345F8043D544C1F2323702A46002100
:1098C0002046F7F7FDFB2A4600212046F7F7F8FB74
:1098D0003D992046FEF744FBFEF7C5BD3EAD012392
:1098E00045F8043D484C202323702A460021204699
:1098F000F7F7E6FB2A4600212046F7F7E1FB2A4668
:1099000000212046F7F7DCFB2A4600212046F7F726
:10991000D7FB3D992046FEF723FBFEF7A4BD3EADE5
:10992000012345F8043D384C2123237006F010FE36
:10993000DFED367A60EE277A2A46FDEEE77A17EEFB
:10994000901A2046F7F7BCFB3D992046FEF708FB2E
:10995000FEF789BD00238A1E811C407800F000F9C3
:10996000FEF781BD4378059383780693C37800336F
:1099700018BF01238DF8283004233D930379003369
:1099800018BF01238DF829303DA92046F7F728FCA0
:1099900007903DA92046F7F723FC08903DA92046F3
:1099A000F7F71EFC099005A807F00AF9FEF75BBD62
:1099B000174B1B68002B3EF456AD314620469847A6
:1099C000FEF751BD3DA92046F7F72AFC08F0B8FA8A
:1099D0000D482523037002213D9100234370FEF7BB
:1099E000BFFAFEF740BD7047D08B0020448D0020A9
:1099F00000007A44BC930020B893002000401C462D
:109A00000AD7233C00002041B88F0020002474496D
:109A1000088200200000000000000000000000009C
:109A200008B5154B9B69154A9A61154C154D164E94
:109A300004E000232B706420F3F76AFF2368002BF7
:109A4000F7D0124B19680C4B9A6A206842F21073D7
:109A500003FB00F303F2E733A6FB0303521AB2EB56
:109A6000931FE6D900F0B4FD094B93ED000A01F015
:109A7000A7F901232B70DEE7F0190020C0DC0208F3
:109A8000CC930020C0930020D34D6210C4930020DB
:109A9000C89300200000000000000000000000004B
:109AA00000B583B00B4B4FF47A721A6000230A4A58
:109AB00013600A4A00211160094A13700093094B90
:109AC00040224FF466710848F3F70AFF03B05DF8CF
:109AD00004FB00BFCC930020C4930020C893002057
:109AE000C0930020219A0108D093002000000000BC
:109AF000024B1860024B83ED000A7047CC930020A4
:109B0000C8930020000000000000000000000000DA
:109B1000202383F31188044B9A6A002383F311886E
:109B2000024B1A60704700BFF0190020C493002058
:109B3000014B1878704700BFC09300200000000060
:109B4000014B1868704700BFCC9300200000000054
:109B5000014B93ED000A7047C893002000000000FD
:109B60002DE9F04182B0062A20D90E461546002A7A
:109B700043D0002140F20317CC1DE3B2DA1F8DF869
:109B80000020A54215D331440B68CDF801308A88F6
:109B90008B79ADF805208DF80730A5422DD92146E7
:109BA000BC42E9D105F10608B71F16E006F008FC33
:109BB00029E0C3F107035A19D2B231440DF1010073
:109BC000F2F7AEFFE9E7A8EB0402D2B239190DF1C2
:109BD0000200F2F7A5FFAC420FD2230A8DF8003045
:109BE0008DF801400634AC42EDD83B191A68CDF827
:109BF00002209B88ADF80630EDE706F0E1FB294630
:109C00003046F7F73DFC02B0BDE8F08100000000EF
:109C100000B583B002AA002342F8043DDFED067AC6
:109C200020EE270AFDEEC07A17EE901A6846F7F785
:109C300047FA03B05DF804FB00007A44000000001E
:109C400000B583B002AA002342F8043DDFED067A96
:109C500020EE270AFDEEC07A17EE901A6846F7F755
:109C60002FFA03B05DF804FB00007A440000000006
:109C70000928DDBF00EB8000024B03EB80000020D1
:109C8000704700BF6897002000000000000000003F
:109C900000BF00BF00BF00BF704700BF0000000052
:109CA00010B52820F5F7D4F81E20F5F7D1F81348A1
:109CB00008F07EFD124C202280212046F5F7B0FDF1
:109CC000202240212046F5F7ABFD20224FF4006111
:109CD0000C48F5F7A5FD202240212046F5F7A0FD10
:109CE000202280212046F5F79BFD0023064A1370B1
:109CF000064A1370064B00221A6010BD000800408F
:109D000000040240000802403898002040980020DB
:109D10003C9800200000000000000000000000004F
:109D200070B582B00025274B1D70274E3060274C40
:109D30004FF4817240212046F5F772FD4FF4817295
:109D400080212046F5F76CFD0121042008F0D8FCA5
:109D500001214FF4804008F0E3FCA4F5FE342B46CB
:109D60002A460321204609F07BF831680139204654
:109D700008F036FEA36943F4C04343F06003A361D7
:109D8000E36943F06003E3610121204608F040FEEF
:109D90000B21022008F0F4FC4FF4006300938DF8CF
:109DA000045008238DF8053001248DF806406846DC
:109DB00008F05EFB29462820F5F732F8044B1C70AA
:109DC00002B070BD3898002010100020000402403E
:109DD000409800200000000000000000000000008B
:109DE00010B584B01D4C002280212046F5F718FDE7
:109DF000192240212046F5F713FD19224FF4006186
:109E00001748F5F70DFD0121042008F079FC002327
:109E1000ADF80430ADF8063041F267020292ADF8B9
:109E20000C308DF80E30A4F5FE3401A9204608F060
:109E30008FFD01221146204608F0AAFF012120468D
:109E400008F0E6FD06211E20F4F7EAFF054B02228A
:109E50001A70054B01221A7004B010BD00040240B4
:109E600000080240409800203898002000000000C0
:109E7000024B1878003018BF01207047409800202E
:109E8000114B1B78012B05D0022B17D00F4B93EDF4
:109E9000000A70470E4BD3ED097AF8EE677A9FED12
:109EA0000D7A67EE877A0C4B93ED007AB8EE477A1D
:109EB000C7EE876A054BC3ED006AE7E7074B1A68F0
:109EC000024B1A60E2E700BF409800203098002063
:109ED000000800400000B443101000203C9800200F
:109EE00000BF00BF00BF00BF164B1B6913F4006F1B
:109EF00027D0154B596A154B1B78D3B1144B1A68F0
:109F0000144BA3FB02031B09D21A8A420BD39942BA
:109F100009D3114A136801331360052B11DD0B4B74
:109F200000221A7070470023074A53620A4A1360DE
:109F300070470023044A5362044A01211170064A03
:109F40001360704700080240000800403898002065
:109F500010100020CDCCCCCC3498002000000000A4
:109F6000F8B51E4B4FF400625A83102600241C4D96
:109F7000402704E06F83FFF78BFE013E18D0FFF708
:109F800087FE2F83FFF784FE286900BF296900BF81
:109F90002A696400A4B2C2F3C012C1F3C011C0F3B5
:109FA000C010FBF72DFA0028E4D044F00104E1E7EB
:109FB0000A4B4FF400621A83C4F30D0307EE903A84
:109FC000F8EE677A9FED077A67EE877A9FED067A5B
:109FD00067EE877A054BC3ED007AF8BD00080240B2
:109FE000000402400000B443000080383C98002088
:109FF00008B5074B1B68834208D0054B1860411E0B
:10A00000044808F0EDFC044B00221A7008BD00BFA4
:10A0100010100020000800403898002000000000C8
:10A02000014B1878704700BF3898002000000000EE
:10A0300010B5044608F07CFAF22008F089FA04F121
:10A04000006404F5002400F0C3FA00F0B1FEFBF751
:10A050001FFC00214FF4006008F052FB134B9C42A0
:10A060001AD90221402008F0C3FA80B209281BD176
:10A070000F4B9C4210D90221482008F0B9FA80B257
:10A08000092811D10B4B9C4206D90221502008F01F
:10A09000AFFA80B2092807D101214FF4006008F01F
:10A0A0002FFBFBF705FC092010BD00BF00000808CE
:10A0B00000000A0800000C0800000000000000007A
:10A0C000F8B505460F461646F22008F041FA00F0B2
:10A0D0007FFA00F06DFEFBF7DBFB00214FF4006020
:10A0E00008F00EFB86B17C1E2644A5F1F735A5F6D7
:10A0F0000805ED1B281914F8011F08F0D1FA80B2E9
:10A10000092809D1B442F5D101214FF4006008F0CB
:10A11000F7FAFBF7CDFB0920F8BD00BF00000000F7
:10A1200080B500AF00F054FA00F042FE1348026D13
:10A13000936B23F400239363F4F78AFB00214FF41D
:10A14000006008F0DDFA72B60D4B18680D4B4FF049
:10A1500000625A600022930003F1604303F56143FB
:10A16000D3F80012C3F880100132082AF3D1064B4D
:10A170001B6883F30888804780BD00BF601D0020F6
:10A1800004000E0800ED00E000000E0800000000D2
:10A1900090B110B404460B4A012332F8021FA142C9
:10A1A00006D001330C2BF8D100205DF8044B70472A
:10A1B000054A52F82300F8E70023034A52F8230027
:10A1C000704700BF00DD0208D0DC0208000000007C
:10A1D0002DE9F0472DED068B8CB07A4B9A697A49C0
:10A1E00091619A69794B1A60DFF81CA2DFED789AC9
:10A1F0009FED789ADFED788A9FED788A9FED78AAB7
:10A20000BDE0784BD3F80090B9F1000F40F3B78070
:10A2100000260027DFF8F4813446B6F5FA6F04DB38
:10A22000A4F5FA64B4F5FA6FFADA002C02DA14F540
:10A23000FA64FCD40123019313238DF8083038F815
:10A2400014301BB200EE103AB8EEC00A01A920EE9D
:10A25000290A02A8F6F784FF650008EB0503B3F8A6
:10A26000A03F1BB200EE103AB8EEC00A01A920EEE2
:10A27000290A02A8F6F774FF5B4B2B44B3F8483E5B
:10A280001BB200EE103AB8EEC00A20EE090A20EE2A
:10A29000280A01A920EE080A02A8F6F761FF534B2D
:10A2A0002B44B3F8F03C1BB200EE103AB8EEC00AF3
:10A2B00020EE090A20EE280A01A920EE080A02A8C9
:10A2C000F6F74EFF4A4B2B44B3F8983B1BB200EE17
:10A2D000103AB8EEC00A20EE090A20EE280A01A9B9
:10A2E00020EE080A02A8F6F73BFF424B2B44B3F8D6
:10A2F000403A1BB200EE103AB8EEC00A20EE090A4E
:10A3000020EE280A01A920EE080A02A8F6F728FF85
:10A31000394B2B44B3F8E8381BB200EE103AB8EED4
:10A32000C00A01A980EE0A0A02A8F6F719FF334B0A
:10A330001D44B5F890371BB207EE903AF8EEE77A75
:10A3400001A9B2EE040A27EE800A02A8F6F708FF78
:10A3500001992B4B1C4494F838260CAB0B4403F8A2
:10A36000282C94F8082E0231019103F8272C02A81A
:10A37000FDF7F6FD01370136B9453FF74DAF012036
:10A38000F3F7FEFC9AF80030013B052B16D801A22A
:10A3900052F823F003A2010803A20108ADA30108AB
:10A3A000ADA30108ADA30108ADA30108154B1E68BC
:10A3B0000C4B1B68F61A4FF4FA692AE74FF00009B4
:10A3C00022E700BFF0190020E0DD0208E89F00202E
:10A3D000500AA53D000080393333534074D1954174
:10A3E000A48BC6422C9A0020F8100010F021001017
:10A3F000E8320010E0430010D8540010D06500107F
:10A40000C8760010389A0020319A00200000001011
:10A4100030B583B0394D4FF4BA7201462846F2F791
:10A420007FFB0024364B1C70364B1C60364B1C6087
:10A43000364B1C70364B1C700023364A1360364A6C
:10A440001360364A1360364A1360364A1360364A40
:10A450001360364A1360364A1360364A1360364A30
:10A460001360364A1360364A1360364A1360364A20
:10A470001360364A1360364A1360364B4FF47A72D3
:10A480001A60354B01221A60344B1C60344B1C603F
:10A49000344B1C70344B1C700094344B40224FF4EE
:10A4A000B3613348F3F71CFA0094324B3F224FF468
:10A4B000B3613148F3F714FA95F85C31DBB2012B44
:10A4C0000AD0022B0ED00D4B9B78DBB2012B0CD99E
:10A4D000022B0ED003B030BD084BD3F85801FFF764
:10A4E0001FFCF0E7FFF77CFCEDE70448F8F7B8F94C
:10A4F000F0E7024802F09CF8ECE700BF7C980020EF
:10A50000F4990020F8990020F0990020089A002082
:10A51000099A0020109A0020009A00200C9A00202E
:10A52000FC990020189A0020209A0020149A0020FC
:10A530001C9A00207498002078980020449A0020EB
:10A54000489A0020249A0020049A00203C9A002077
:10A55000409A00202C9A0020289A0020349A00204B
:10A56000389A0020309A0020319A002061B5010805
:10A57000F09F0020D1A10108509A002000000000A7
:10A58000004870477C980020000000000000000098
:10A5900008B5074B9B78DBB2012B03D9022B04D003
:10A5A000002001E0F9F7CCFA08BD02F069FBFBE7F7
:10A5B0007C98002000000000000000000000000067
:10A5C000014B01221A707047089A00200000000019
:10A5D000014B00221A707047089A0020000000000A
:10A5E000014B01221A707047099A002000000000F8
:10A5F000014B1878704700BFF4990020000000005C
:10A60000062811D8DFE800F0120406080A0C0E0034
:10A610000748704707487047074870470748704722
:10A620000748704707487047074870470748704712
:10A6300030DD020848DD020864DD020874DD02082E
:10A6400090DD0208ACDD0208C8DD020820DD02084A
:10A6500008B5074B9B78DBB2012B03D9022B04D042
:10A66000002001E0F8F7E4FC08BD02F001FBFBE785
:10A670007C980020000000000000000000000000A6
:10A6800008B50F4B9B78DBB2012B04D9022B13D0FA
:10A690009FED0C0A01E0F8F79BF8094B93F85D3148
:10A6A000DBB2002BFFEE007AB7EE007A08BFF0EEC7
:10A6B000477A20EE270A08BD02F01AFCEDE700BF3A
:10A6C0007C98002000000000000000000000000056
:10A6D00008B5084B9B78DBB2012B04D9022B05D0BF
:10A6E0009FED050A01E0F8F77BF808BD02F010FCC9
:10A6F000FBE700BF7C980020000000000000000085
:10A7000008B50F4B9B78DBB2012B04D9022B13D079
:10A710009FED0C0A01E0F8F76BF8094B93F85D31F7
:10A72000DBB2002BFFEE007AB7EE007A08BFF0EE46
:10A73000477A20EE270A08BD02F0FAFBEDE700BFDA
:10A740007C980020000000000000000000000000D5
:10A75000054B93ED007ADFED057A87EE270A08B105
:10A7600000221A60704700BF749800200000614505
:10A77000054B93ED007ADFED057A87EE270A08B1E5
:10A7800000221A60704700BF7898002000006145E1
:10A79000054B93ED007ADFED057A87EE270A08B1C5
:10A7A00000221A60704700BF449A002000006145F3
:10A7B000054B93ED007ADFED057A87EE270A08B1A5
:10A7C00000221A60704700BF489A002000006145CF
:10A7D00008B5084B9B78DBB2012B04D9022B05D0BE
:10A7E0009FED050A01E0F8F773FD08BD02F0B0FB2C
:10A7F000FBE700BF7C980020000000000000000084
:10A8000008B5084B9B78DBB2012B04D9022B05D08D
:10A810009FED050A01E0F8F763FD08BD02F0B0FB0B
:10A82000FBE700BF7C980020000000000000000053
:10A8300008B50F4B9B78DBB2012B04D9022B13D048
:10A840009FED0C0A01E0F8F753FD094B93F85D31D9
:10A85000DBB2002BFFEE007AB7EE007A08BFF0EE15
:10A86000477A20EE270A08BD02F0B2FBEDE700BFF1
:10A870007C980020000000000000000000000000A4
:10A8800008B50F4B9B78DBB2012B04D9022B13D0F8
:10A890009FED0C0A01E0F8F743FD094B93F85D3199
:10A8A000DBB2002BFFEE007AB7EE007A08BFF0EEC5
:10A8B000477A20EE270A08BD02F092FBEDE700BFC1
:10A8C0007C98002000000000000000000000000054
:10A8D00008B5084B9B78DBB2012B04D9022B05D0BD
:10A8E0009FED050A01E0F8F733FD08BD02F090FB8B
:10A8F000FBE700BF7C980020000000000000000083
:10A9000008B5144B9B78DBB2012B04D9022B1BD06A
:10A91000DFED117A03E0F8F72BFD07EE900A0D4BFF
:10A9200093F85D31DBB2002BBFEE007AF7EE006AE0
:10A9300008BFB0EE667AF8EEE77A67EE877AFDEE4A
:10A94000E77A17EE900A08BD02F06AFB07EE900A5C
:10A95000E5E700BF7C980020000000000000000038
:10A9600008B5074B9B78DBB2012B03D9022B04D02F
:10A97000002001E0F8F70CFD08BD02F061FBFBE7E9
:10A980007C98002000000000000000000000000093
:10A9900008B5084B9B78DBB2012B04D9022B05D0FC
:10A9A0009FED050A01E0F9F7B3F808BD03F0B8FA26
:10A9B000FBE700BF7C9800200000000000000000C2
:10A9C000054991ED000A054BD3ED007A00220A609B
:10A9D0001A6080EE270A7047109A00200C9A002017
:10A9E000054991ED000A054BD3ED007A00220A607B
:10A9F0001A6080EE270A7047009A0020FC99002018
:10AA00000C4991ED007A0C4BD3ED007A87EE270AC2
:10AA100000220A601A60094B93F85D31DBB2002B0B
:10AA2000FFEE007AB7EE007A08BFF0EE477A27EE25
:10AA3000800A7047189A0020149A00207C98002001
:10AA40000C4991ED007A0C4BD3ED007A87EE270A82
:10AA500000220A601A60094B93F85D31DBB2002BCB
:10AA6000FFEE007AB7EE007A08BFF0EE477A27EEE5
:10AA7000800A7047209A00201C9A00207C980020B1
:10AA8000014B93ED000A7047249A0020000000005B
:10AA900008B50F4B9B78DBB2012B04D9022B13D0E6
:10AAA0009FED0C0A01E0FFF7EBF9094B93F85D31DC
:10AAB000DBB2002BFFEE007AB7EE007A08BFF0EEB3
:10AAC000477A20EE270A08BD02F01AFAEDE700BF28
:10AAD0007C98002000000000000000000000000042
:10AAE000014B93ED000A7047049A0020000000001B
:10AAF00010B5B1F5FA6F28BF4FF4FA6107280DD0F1
:10AB0000094B4FF0FF341C60084B00241C60084BBD
:10AB10001960084B1A60084B187010BD0121074BD3
:10AB20001868F3F71DF9F8E7389A0020349A0020E6
:10AB30002C9A0020289A0020309A0020E89F0020BC
:10AB4000014B93ED000A70473C9A00200000000082
:10AB5000014B93ED000A7047409A0020000000006E
:10AB600010B5FFF775FD01280CD0154B1C687CB99A
:10AB7000144B1B7863B1144B1B7893B1124B00221A
:10AB80001A7005E0F8F73CFC4FF4FA740C4B1C60AB
:10AB90000E4B9B78DBB2012B05D9022B09D0204646
:10ABA00010BD0124F4E7F7F75BFD002808BF01247E
:10ABB000F5E702F01DF8002808BF0124EFE700BF09
:10ABC000F8990020089A0020099A00207C9800201B
:10ABD00008B52DED028BB0EE408AFFF7C1FF30B90A
:10ABE000154B9B78DBB2012B04D9022B13D0BDECA3
:10ABF000028B08BD104B93F85D31DBB2002BBFEE2A
:10AC0000000AF7EE007A08BFB0EE670A20EE080AE5
:10AC1000F9F78EF9EBE7084B93F85D31DBB2002BC7
:10AC2000BFEE000AF7EE007A08BFB0EE670A20EE2A
:10AC3000080A02F02DF8DAE77C98002000000000F6
:10AC400008B52DED028BB0EE408AFFF789FF30B9D1
:10AC5000154B9B78DBB2012B04D9022B13D0BDEC32
:10AC6000028B08BD104B93F85D31DBB2002BBFEEB9
:10AC7000000AF7EE007A08BFB0EE670A20EE080A75
:10AC8000F7F71EFDEBE7084B93F85D31DBB2002BC5
:10AC9000BFEE000AF7EE007A08BFB0EE670A20EEBA
:10ACA000080A02F00DF8DAE77C98002000000000A6
:10ACB00008B52DED028BB0EE408AFFF751FF48B981
:10ACC0001A4B83ED008A1A4B9B78DBB2012B04D917
:10ACD000022B16D0BDEC028B08BD154B93F85D31ED
:10ACE000DBB2002BFFEE007AB7EE000A08BFF0EEF1
:10ACF000407A0E4B93ED000A20EE270AF9F730FB5D
:10AD0000E8E70B4B93F85D31DBB2002BFFEE007AE6
:10AD1000B7EE000A08BFF0EE407A044B93ED000A4C
:10AD200020EE270A01F0E4FFD4E700BF249A0020B8
:10AD30007C980020000000000000000000000000DF
:10AD400008B52DED028BB0EE408AFFF709FF30B950
:10AD5000154B9B78DBB2012B04D9022B13D0BDEC31
:10AD6000028B08BD104B93F85D31DBB2002BBFEEB8
:10AD7000000AF7EE007A08BFB0EE670A20EE080A74
:10AD8000F9F70EFBEBE7084B93F85D31DBB2002BD4
:10AD9000BFEE000AF7EE007A08BFB0EE670A20EEB9
:10ADA000080A01F0BDFFDAE77C98002000000000EF
:10ADB00008B59FED020AFFF7C3FF08BD00000000C1
:10ADC00008B52DED028BB0EE408AFFF7C9FE30B911
:10ADD000154B9B78DBB2012B04D9022B13D0BDECB1
:10ADE000028B08BD104B93F85D31DBB2002BBFEE38
:10ADF000000AF7EE007A08BFB0EE670A20EE080AF4
:10AE0000F7F76EFCEBE7084B93F85D31DBB2002BF4
:10AE1000BFEE000AF7EE007A08BFB0EE670A20EE38
:10AE2000080A01F0B5FFDAE77C9800200000000076
:10AE300008B52DED028BB0EE408AFFF791FE30B9D8
:10AE4000094B9B78DBB2012B04D9022B07D0BDEC58
:10AE5000028B08BDB0EE480AF7F742FCF7E7B0EE08
:10AE6000480A01F0C5FFF2E77C98002000000000CE
:10AE7000474B1B78834217D030B593B00446FFF799
:10AE800087FB10B1424B1B78A3B1424BD3F84C1156
:10AE9000414A11609B78DBB2012B72D9022B73D02F
:10AEA0003B4B1C7013B030BD3A4BD3F84C213A4B9E
:10AEB0001A607047FAF7ECFC384B5B6B0193384B28
:10AEC0001A6C0292DB6A0393FAF7F2FC8DF81040D9
:10AED000FFF77EFC8DED050AFFF792FC8DED060A6B
:10AEE000304D2B8A9BB207EE903AF8EE677A9FEDD1
:10AEF0002E7A67EE877A9FED2D7A67EE877ACDED11
:10AF0000077AFFF7BDFB8DED080AFFF7F9FB8DED22
:10AF1000090A0020FFF7F4FC0A90254B1B680B93ED
:10AF2000019B0C93029B0D93039B0E93F7F748FC38
:10AF30000F906B899BB207EE903AF8EEE77ADFED5F
:10AF40001D6A86EEA77A9FED1C0A37EE407A87EEDF
:10AF5000000A08F095F9DFED197A80EE270ADFED97
:10AF6000187A30EE270AB7EE007AC7EE007A9FED26
:10AF7000157A77EEC77ACDED107A04A8FBF748FF73
:10AF800083E7F8F73DFA8BE701F0FAFE88E700BFA8
:10AF9000F49900207C980020F899002000040140DA
:10AFA00000000140449800206740533A74D1954115
:10AFB000F09900203C361C4C00401C4600A0564531
:10AFC0000FCF5B3B3393884300000000000000007C
:10AFD000F8B52DED0A8B0446D64F3B8A9BB208EE9E
:10AFE000103AB8EE488ADFEDD47A28EE278ADFEDF2
:10AFF000D37A28EE278AFFF783FBB0EE40AAD04D24
:10B0000095ED009A7B899BB207EE903AF8EEE77ACD
:10B010009FEDCC7A87EE270ADFEDCB9A30EE690AF6
:10B0200080EE290A08F02CF9D5ED007A9FEDC77A59
:10B0300080EE070A9FEDC6CA30EE0C0AF7EE00AAB2
:10B040008AEE807ADFEDC3BA37EE6B7A39EE479A33
:10B050009FEDC1BA29EE0B9A37EEC99A85ED009A99
:10B06000BE4ED6ED008AFB8A9BB207EE903AF8EE10
:10B07000677ADFEDBB6A86EEA77A77EE6A7A89EEA9
:10B08000A70A80EE290A08F0FBF894ED5C7AD6ED69
:10B09000007A80EE070A30EE0C0A8AEE807A37EEEC
:10B0A0006B7A78EEC78A68EE8B8A77EEE88AC6ED0F
:10B0B000008A94ED107AD5ED007AB4EEE77AF1EEDD
:10B0C00010FA40F3D28094ED029AD4ED01AA94EDE7
:10B0D000127AA24BD3ED007AB4EEE77AF1EE10FAD1
:10B0E00040F34281D4ED029A94ED01BA94ED140A32
:10B0F000D4ED101ADFED9B8AB3EE092AB7EE001AE1
:10B10000F0EE680AFAF7D4F8B0EE40CA94ED140AEB
:10B11000D4ED111AB3EE092AB7EE001AF0EE680A60
:10B12000FAF7C6F8F0EE40CA94ED140AD4ED121AFC
:10B13000B3EE092AB7EE001AF0EE680AFAF7B8F88B
:10B14000F0EE40BA94ED140AD4ED131AB3EE092AC6
:10B15000B7EE001AF0EE680AFAF7AAF8F0EE408AA5
:10B16000774BD3ED007AF4EECC7AF1EE10FA40F1A1
:10B17000608194ED01CA794BD3ED007AF4EEEB7A5D
:10B18000F1EE10FA40F16F81D4ED01BAD4ED070A67
:10B19000D4ED087A60EEA70A94ED071AB4EEE0AA9F
:10B1A000F1EE10FA40F17981D4ED01CAD4ED060A2E
:10B1B000D4ED087A60EEA70A94ED061AB4EEE0AA80
:10B1C000F1EE10FA40F37C8194ED01AAF0EE4B0A07
:10B1D000B0EE6A0AFAF794FAF0EE40AAF0EE690AC5
:10B1E000B0EE490AFAF78CFAF0EE408AF0EE6C0AFB
:10B1F000B0EE6A0AFAF784FAF0EE4A0AFAF780FA31
:10B20000F0EE4C0AFAF77CFAF0EE6B0AFAF778FAED
:10B21000D4ED507AF4EEC07AF1EE10FAC8BF94ED96
:10B22000500AD4ED507AF1EE677AF4EEE87AF1EE56
:10B2300010FA44BFD4ED508AF1EE688A84ED190A01
:10B24000C4ED1A8AD4ED0D7AF4EEC87AF1EE10FA54
:10B2500000F14981D4ED0E7AF4EEC87AF1EE10FADD
:10B2600040F36681DFED3F0A3FE194ED117A344B04
:10B27000D3ED007AB4EEE77AF1EE10FA4CD4D4EDC7
:10B28000011AF0EEE11AD4ED027AF0EEE77AF4EE6C
:10B29000E17AF1EE10FAC4BFD4ED021AF0EEE11A31
:10B2A000274B93ED000AD4ED100A94ED111A9FED8F
:10B2B0002D2AF9F7FDFFD4ED017AF0EEE77AF4EEEE
:10B2C000C07AF1EE10FA2FDDD4ED017AF5EEC07AF6
:10B2D000F1EE10FAFFEE00AAF7EE007A58BFF0EE9A
:10B2E00067AA6AEE80AAD4ED027AF0EEE77AF4EE6D
:10B2F000C07AF1EE10FA1ADDD4ED027AF5EEC07ADA
:10B30000F1EE10FABFEE009AF7EE007A58BFB0EEF9
:10B31000679A29EE009ADAE60520FFF7A9FD9FED6E
:10B32000119AF0EE49AAD2E6DFED0EAADBE79FED17
:10B330000D9ACCE6449800206740533A74D1954169
:10B340003C9A00203C361C4C00401C4600A0564550
:10B350000FCF5B3B33938843CDCCCC3D409A00204C
:10B3600000F07F450000000094ED137A784BD3ED98
:10B37000007AB4EEE77AF1EE10FA4CD4D4ED011A6B
:10B38000F0EEE11AD4ED027AF0EEE77AF4EEE17A2B
:10B39000F1EE10FAC4BFD4ED021AF0EEE11A6C4BD4
:10B3A00093ED000AD4ED120A94ED131A9FED692A69
:10B3B000F9F77EFFD4ED017AF0EEE77AF4EEC07A89
:10B3C000F1EE10FA2FDDD4ED017AF5EEC07AF1EE50
:10B3D00010FABFEE00BAF7EE007A58BFB0EE67BAC7
:10B3E0002BEE00BAD4ED027AF0EEE77AF4EEC07AF2
:10B3F000F1EE10FA1ADDD4ED027AF5EEC07AF1EE34
:10B4000010FAFFEE009AF7EE007A58BFF0EE679A56
:10B4100069EE809A6AE60620FFF72AFDDFED4D9A75
:10B42000B0EE69BA62E69FED4BBADBE7DFED499A11
:10B430005CE6494BD3ED007AF4EEEC7AF1EE10FACB
:10B4400002DD9FED44CA96E693ED000AD4ED011AA1
:10B450009FED402AB0EE6C1AF0EE4C0AF9F728FF87
:10B46000B0EE40CA87E63A4BD3ED007AF4EEE87AC4
:10B47000F1EE10FA02DDDFED37BA87E693ED000A50
:10B48000D4ED011A9FED332AB0EE681AF0EE6B0A84
:10B49000F9F70EFFF0EE40BA78E6B4EEC1AAF1EE8D
:10B4A00010FA02DDDFED2BCA80E6D4ED011A9FED24
:10B4B000292AB0EE4A0AF9F7FBFEF0EE40CA75E61B
:10B4C000B4EEC1AAF1EE10FA02D59FED22AA7DE6F4
:10B4D000D4ED011A9FED1F2AB0EE4A0AF9F7E8FEF3
:10B4E000B0EE40AA72E6D4ED030A94ED170A94ED8B
:10B4F000187AC7EE088A80EE080AFAF701F9D4ED47
:10B50000037AF0EE400AB0EE670AFAF7F9F884ED34
:10B510001B0A94ED040AF0EE680AFAF7F1F884EDDC
:10B520001C0A636E6367A36EA367BDEC0A8BF8BD4C
:10B53000D4ED0D0A94ED0E1AD4ED031A9FED052AF1
:10B54000B0EE480AF9F7B4FEF0EE400ACDE700BFCE
:10B55000409A0020000000003C9A002000000000FB
:10B5600008B50D4B9B690D4A9A610D4C0D4D0E4E61
:10B570000BE02B6913F4805F1CBF002333700B4872
:10B58000FFF726FD0A20F2F7C3F92368002BF0DD50
:10B59000013B2360F3E700BFF0190020F0DD020853
:10B5A000F899002000080240F49900207C980020BF
:10B5B00038B50446344B93F85C31DBB290F85C212B
:10B5C0009A4221D194F85C31012B2DD02E4B9B78DF
:10B5D000DBB2022B2DD02C4B9B78DBB2022B02D09E
:10B5E000A378022B2DD04FF4BA7221462648F1F7EA
:10B5F00097FA254C2046FFF7EBFCA378DBB2012B32
:10B6000039D9022B3BD038BDFEF74AFB94F85C31A8
:10B61000012B04D0022BD5D1FEF7E2FBD2E7D4F800
:10B620005801FEF77DFBCDE7D4F85801FEF7E0FCAA
:10B63000CCE7A378022B11D1134B9B78DBB2022B02
:10B64000D1D0F6F7C5FF104D4FF4BA722146284607
:10B65000F1F766FA284600F0EBFFCAE701F090FA2E
:10B66000094D4FF4BA7221462846F1F759FA284697
:10B67000F7F7F6F8BDE70448F7F7BAFCC3E7024866
:10B6800001F0BEFABFE700BF7C9800200000000078
:10B6900070B52DED048B82B004F092FC944B1B8AA4
:10B6A0009BB208EE103AB8EE488ADFED927A28EEA7
:10B6B000278ADFED917A28EE278A904BD3ED0B7A1B
:10B6C000F4EEC87AF1EE10FA07DCD3ED0C7AF4EE62
:10B6D000C87AF1EE10FA40F1D380894A1368013339
:10B6E0001360072B0BDD854BD3ED0B7AF4EEC87A94
:10B6F000F1EE10FACCBF02200120FFF7B9FBFEF7F4
:10B70000A7FF022800F0C0807E4B00221A607E4B0B
:10B710001B6803B19847FFF773F8F0EE408AFFF714
:10B72000D7F8F0EE409A794BD3ED007A77EEA87A0D
:10B73000C3ED007A764BD3ED007A77EE807AC3EDD5
:10B74000007A744BD3ED007AB7EE009A77EE897ADF
:10B75000C3ED007A704BD3ED007A77EE897AC3EDB2
:10B76000007A01F045FC6D4BD3ED007A37EE800A8C
:10B7700083ED000A01F044FC694BD3ED007A37EE0B
:10B78000800A83ED000A674BD3ED007A77EE897A61
:10B79000C3ED007A644BD3ED007A37EE899A83EDDE
:10B7A000009AFFF715F8B0EE409A544B9B78DBB245
:10B7B000022B6ED0B0EE680A504B93F83C30002B51
:10B7C00072D04E4BD3ED057AB0EEC00AB4EEE70A64
:10B7D000F1EE10FA64DC554B1B6913F4805F71D0F5
:10B7E000FEF776FFB0EE409AF0EEE88AF7EE007AC8
:10B7F000F4EEE78AF1EE10FA34DDC9EE807A4C4BB4
:10B8000093ED007A77EE877AC3ED007AF7EE006A5F
:10B8100086EE807A474BD3ED006A37EE267A83EDC9
:10B82000007ADFED456AB4EEE67AF1EE10FA19DB44
:10B83000F5EEC07AF1EE10FA48DD404B93ED007A58
:10B8400037EE877A83ED007A3D4B93ED007A27EE51
:10B85000888A38EE078A83ED008A0023354A136010
:10B86000334A1360374B1B78013B052B00F20681EE
:10B87000DFE813F06E0018013D0183013D018301F3
:10B880001F4B00221A603AE71E4A13680133136007
:10B890003DE701F08DFBB0EE409A01F091FB8BE7A4
:10B8A0000420FFF7E5FA96E7144BD3ED057AB0EEE6
:10B8B000C99AB4EEE79AF1EE10FA8CDD0420FFF796
:10B8C000D7FA88E70320FFF7D3FA89E71E4B93EDF9
:10B8D000007A37EE677A83ED007A1C4B93ED007A9D
:10B8E00027EE888A37EE488A83ED008AB5E700BFE5
:10B8F000449800206740533A74D195417C980020C9
:10B9000088A50020F09900204C9A0020109A002071
:10B91000009A00200C9A0020FC990020189A002020
:10B92000209A0020149A00201C9A0020000802404F
:10B93000709800206C9800200AD7233C749800204F
:10B94000449A0020309A002078980020489A0020DD
:10B95000A84B1A68A84B1B689A4200F09380A74A2C
:10B96000136801331360A64A12689342C0F28680BE
:10B97000A24B00221A609F4B1B68B3F5FA6FA4BF5D
:10B980009C4B1A609F4B9B78DBB2022B00F06C81C2
:10B990009D4B1D682DB2974B1A689C4B1344002297
:10B9A00083F8082EFEF754FE012800F07E819848A7
:10B9B000026890490C6812B2964B23F81420426832
:10B9C000086812B203EB4003A3F8A02F924CA088A2
:10B9D000ABB20E681A46C31A1BB2904800EB460081
:10B9E000A0F8483E63880E689B1A1BB28C4800EB97
:10B9F0004600A0F8F03C238809689B1A1BB2894ACC
:10BA000002EB4102A2F8983B7A4C2268864B03EB8A
:10BA10004203A3F8405AFEF7DBFE2168DFED837A8C
:10BA200020EE270ABDEEC00A10EE103A1BB2804A83
:10BA300002EB4102A2F8E8382168B2EE047AC9EEBE
:10BA4000077AFDEEE77A17EE903A1BB2794A02EBDD
:10BA50004102A2F89037F6F7B3FE0546F8F7F0F882
:10BA6000226845EAC000C0B2684B134483F8380628
:10BA7000236801332360704B1A681A6002B0BDEC72
:10BA8000048B70BD00246D4B1C7001216C4B197030
:10BA9000202383F311886B4B1868F2F731F984F394
:10BAA0001188EBE7FEF7D4FD022804D0514B1B6848
:10BAB000002B40F347814F4B1A684F4B1B689A424B
:10BAC0007FF44DAF01245D4A1378DBB25C490B7003
:10BAD00000251570202383F311880121594B186824
:10BAE000F2F70EF985F31188002CC7D037E7564BD3
:10BAF0001B68002B1CDB544B1B683F4A12689B1AC7
:10BB000013D43C4A12689A4215D0FEF7A1FD0228D0
:10BB10007FF425AF4C4B1B68002BBFF620AF0124F0
:10BB2000344B1A68484B1A60DEE703F5FA63E8E71E
:10BB30004FF0FF33E5E7414A1378DBB240490B7021
:10BB40001378DBB2032B0CD03C4B00221A70FEF7AB
:10BB50007FFD022892D13C4B1B68002B8EDA00241B
:10BB6000DEE7202383F311880121364B1868F2F7B2
:10BB7000C7F8002383F31188E6E7334B1B68002BDB
:10BB80001CDB314B1B681C4A12689B1A13D4194AE0
:10BB900012689A4215D02D4B1B78002B3FF4DFAE74
:10BBA000294B1B68002BBFF6DAAE0124114B1A6833
:10BBB000254B1A6098E703F5FA63E8E74FF0FF3387
:10BBC000E5E71E4A1378DBB21D490B701378DBB230
:10BBD000042B3DD0194B00221A701C4B1B78002BF4
:10BBE0003FF44CAF184B1B68002BBFF647AF002447
:10BBF000DCE700BF349A00202C9A002068980020CF
:10BC0000289A00207C980020E4520020C87600107A
:10BC10005C9800200000001044980020F8100010EC
:10BC2000F0210010E8320010E0430010A48BC6425F
:10BC3000D8540010D0650010049A0020309A0020DB
:10BC4000319A0020E89F0020389A0020F4990020C3
:10BC5000202383F3118801213F4B1868F2F750F835
:10BC6000002383F31188B5E73C4B9A885D881B88D5
:10BC700015441D443A4B83FB05352DB201F0F0F914
:10BC8000384B1968DFED387A80EE270ADFED377A16
:10BC900020EE270AFCEEC07ACDED017A9DF9042052
:10BCA000334B0B4483F8082E7CE6F6F789FD013808
:10BCB000304B03EB8000D0ED007A2A4C2268FDEE79
:10BCC000E77A17EE903A1BB22B4E26F81230F6F7B1
:10BCD00077FD0138294B03EB8000D0ED007A226814
:10BCE000FDEEE77A17EE903A1BB206EB4206A6F895
:10BCF000A03F234AD2ED007A2068FDEEE77A17EEE6
:10BD0000903A1BB21F4901EB4001A1F8483ED2ED29
:10BD1000017A2068FDEEE77A17EE903A1BB21A49D5
:10BD200001EB4001A1F8F03CD2ED027A2168FDEE72
:10BD3000E77A17EE903A1BB2144A02EB4102A2F8DE
:10BD4000983B61E6074B1A68114B1B689A427FF4D7
:10BD500095AE0024B7E600BFE89F0020449800207D
:10BD600056555555349A00200000B44300007A43DC
:10BD7000C87600108452002000000010B452002049
:10BD8000CC520020F8100010F0210010E832001012
:10BD90002C9A0020000000000000000000000000BD
:10BDA00008B5044B9B78DBB2012B00D908BDF7F72F
:10BDB00037FBFBE77C98002000000000000000003B
:10BDC000DFED167A81EE271AB0EEC11A144B1B680C
:10BDD000D3ED417A9FED137A67EE877A124A127893
:10BDE00062B193ED417A77EE277AF4EEC17AF1EE03
:10BDF00010FA0FD50C4B00221A70704793ED417A60
:10BE000077EE677AF4EEC17AF1EE10FA04DD064BB4
:10BE100001221A70B0EE600A704700BF5077D63D1D
:10BE2000B0A50020CDCC4C3D181000200000000033
:10BE300010B5194C60220021204606F0E9FE0122CF
:10BE40000021204606F044FF04220021204606F08F
:10BE500057FF60220421204606F0DAFE0122042169
:10BE6000204606F035FF04221146204606F048FF22
:10BE700060220821204606F0CBFE01220821204640
:10BE800006F026FF04220821204606F039FF034B66
:10BE900001221A7010BD00BF0000014050A6002012
:10BEA00010B51B4C40220021204606F0B1FE0122B5
:10BEB0000021204606F00CFF00221146204606F025
:10BEC0001FFF40220421204606F0A2FE0122042189
:10BED000204606F0FDFE00220421204606F010FF59
:10BEE00040220821204606F093FE01220821204628
:10BEF00006F0EEFE00220821204606F001FF202178
:10BF0000204606F055FF034B00221A7010BD00BFFB
:10BF10000000014050A600200000000000000000CA
:10BF20002DE9F047164B18691D69164C26691969E9
:10BF3000D3F8109027691A69D3F810A0D4F81080AC
:10BF4000C2F38012C1F38011C0F38010F9F758FAE0
:10BF50000446CAF3C012C9F3C011C5F3C010F9F703
:10BF60004FFA0546C8F3C022C7F3C021C6F3C0206C
:10BF7000F9F746FA800040EA45002043BDE8F08723
:10BF80000004024000080240000000000000000021
:10BF900038B52DED048BDFED6F7A80EEA78AB0EE19
:10BFA000C88A6D4B1D68D5ED417A9FED6C7A67EEBE
:10BFB000877A6B4B1B7893B195ED417A77EE277AB0
:10BFC000F4EEC87AF1EE10FA15D5654B00221A701E
:10BFD000644B6FF001021A60BDEC048B38BD95ED27
:10BFE000417A77EE677AF4EEC87AF1EE10FAEFDD77
:10BFF0005B4B01221A70B0EE419AF0EE608A10EEAF
:10C00000104AFFF78DFF284490F8F930DBB2C82BB7
:10C0100011DD544B4FF0FF321A60534B1B78002B4D
:10C0200000F09580514B1B78DBB2022B00F08B8027
:10C0300000EE104AD0E707EE903AF8EEE76A9FED7F
:10C040004C7AC6EE877A9FED4B7A67EE877A9FED42
:10C050004A7A67EE877A9FED497AC7EE870A414AA6
:10C060001268002A3EDB9A4229D0991A0029B8BFEB
:10C07000494263293ADC1A4402EBD272511040481B
:10C0800080FB0120CA17C2EBA012C82000FB1212CD
:10C0900007EE902AF8EEE77ADFED356A87EEA67AAA
:10C0A000DFED347A67EE277A9FED337A67EE877A91
:10C0B000DFED326A87EEA67A324A82ED007A294AAB
:10C0C0001360DFED317AB4EEE78AF1EE10FA16D59F
:10C0D0002C4BC3ED000A2B4C2046F9F779F894ED70
:10C0E000000A79E7274AC2ED000AE8E76429C6D0CA
:10C0F0001A4402EBD272521002F16401BFE7214BE5
:10C1000093ED000AF9F74CF9B0EEC07ADFED1F7A33
:10C11000B4EEE77AF1EE10FA09D51A4B28EE891A37
:10C12000D3ED008A31EE281A83ED001AD3E7154BC0
:10C13000DFED157A80EE277AD3ED007A77EEC77AB5
:10C14000C3ED007AC7E7124B93ED000A44E700EE17
:10C15000104A41E75077D63DB0A50020CDCCCC3D6C
:10C16000191000201410002068A6002094A60020BA
:10C17000000048430000B443DB0F49400000344353
:10C180001F85EB518CA500200000C842920A063F93
:10C1900060A6002000000000000000000000000079
:10C1A000864B9B69864A9A61864B1B78002B40F030
:10C1B00019822DE9F0432DED088B87B0824C834D19
:10C1C0009FED838ADFED839A834E844F65E17D4B3B
:10C1D00000221A7007B0BDEC088BBDE8F083D6EDE5
:10C1E000007AF5EEC07AF1EE10FA40F3A0819FEDEF
:10C1F0007C7A77EEC77AC6ED007A98E1794BD3ED79
:10C20000007A9FED797A77EEC77AC3ED007A04E180
:10C21000E36C0193236D0293E36B0393236C04930C
:10C220009DED030ADDED036ADDED047A9DED047AF0
:10C2300020EE260A67EE877A30EE270AF1EEC08AF2
:10C24000B5EE400AF1EE10FA26D4684BD3ED017A30
:10C2500077EEA87AC3ED017A9DED010ADDED016A62
:10C26000DDED027A9DED027A20EE260A67EE877AEE
:10C2700030EE270AF1EEC08AB5EE400AF1EE10FA70
:10C280000DD45A4BD3ED027A77EEA87AC3ED027A39
:10C290001A6801321A60D7E007F092FCD5E707F080
:10C2A0008FFCEEE7524B93ED007ADFED527A87EE8A
:10C2B00027AA514BD3ED008A78EECA8AD3ED007AD3
:10C2C0002B6893ED497AF0EEE77AF4EEC77AF1EE57
:10C2D00010FA06D5494B83ED008A494BC3ED008A1D
:10C2E000D3E093ED46BAD3ED477ADFF810819FEDA6
:10C2F0003C7A67EE877A67EEA87ADFED42AA67EEAE
:10C30000AA7AD8ED006A77EEA67AC8ED007AD3ED66
:10C31000486ADFF8EC90D9ED007A78EEE77A86EE9D
:10C32000879A67EE897A27EEAA9AF7EE000ABFEE9F
:10C33000000A4046F8F77CFFC9ED008A68EE8B7A68
:10C3400067EEAA7A98ED007A77EE877A77EE897AA7
:10C3500006A860ED017AF7EE000ABFEE000AF8F7D2
:10C3600067FF2B6893F8282182B9B5EEC0AAF1EED9
:10C3700010FA06DDDDED057AF5EEC07AF1EE10FA81
:10C380000ED4B5EEC0AAF1EE10FA0CD4D3ED197AA2
:10C390009DED057A67EE877A1B4BC3ED007A74E05A
:10C3A0008DED058AF2E7DDED057AF5EEC07AF1EE66
:10C3B00010FAC8BF8DED058AE8E700BFF01900202C
:10C3C000E0DF0208BCA60020E4A50020B0A5002004
:10C3D00000000000DB0F4940A0A60020B4A500200B
:10C3E0006F12833A60A60020DB0FC93F7CA60020B5
:10C3F00070A600205077D63D90A60020A4A500206E
:10C40000B4A60020CDCC4C3DE0A50020774BD3ED69
:10C41000007A78EEA78AC3ED008A7448F8F7D8FE50
:10C42000734B01221A70734BD3ED007A9FED727A31
:10C4300077EEC77AC3ED007A86ED008A6F4B1B78E2
:10C44000DBB2022B3FF4E4AE94ED030A2B68D3ED8C
:10C45000331AD3ED347A93ED332A61EEA71AB7EE8F
:10C46000001AF0EE480AB0EEC00AF8F721FF644B5C
:10C4700083ED000A3B78DBB2012B3FF413AF614B35
:10C4800083ED008A604B83ED008A0A20F1F740FAC1
:10C490005E4B1B78002B7FF49AAE94ED010A2B685B
:10C4A00093ED011A93ED392AF0EE481AF0EE480A9E
:10C4B000B0EEC00AF8F7FCFE684680ED000A2B6873
:10C4C00093ED390AF8F7DCFEDDED007A77EEA77A16
:10C4D00067EEA97A9FED4E7A87EE879AD4ED037ABC
:10C4E000F5EEC07AF1EE10FADFED438ACCBF69EECB
:10C4F000288A69EE688A4748D0ED007A77EEA87AF4
:10C50000C0ED007AF8F764FE434BD3ED007AF0EE0D
:10C51000E77AF4EEC97AF1EE10FA7FF560AED6ED67
:10C52000007A9FED357A77EE877AC6ED007A3B7810
:10C53000DBB2032B0AD0D4ED037AF0EEE77A9FED5D
:10C540002E7AF4EEC77AF1EE10FA04D586ED008A61
:10C55000274B00221A702B6893ED3A7AD6ED007AB9
:10C56000B4EEE77AF1EE10FA2BD5224A92ED007A7A
:10C57000DFED2A7AB4EEE77AF1EE10FA21D8D3EDA6
:10C580003B7AC2ED007AF5EEC07AF1EE10FA21DDC9
:10C59000164BD3ED007A78EEA78AC3ED008AD4ED6E
:10C5A000037AF5EEC07AF1EE10FA7FF727AE0F4B63
:10C5B000D3ED007A9FED1A7A77EE877AC3ED007A91
:10C5C0002BE70C4BD3ED007AF5EEC07AF1EE10FAC2
:10C5D0003FF71CAF134B1A68044B1A60044B002240
:10C5E0001A702BE7094B00221A70704760A60020D2
:10C5F00068A60020A4A600206F12833A94A600200B
:10C60000D4A50020A4A50020B4A60020BCA600202C
:10C610000000704258A6002070A6002017B7D1383D
:10C62000DB0FC93F5CA600200000000000000000F6
:10C630002DE9F04FA9B00646F9F72AF90024C44BBA
:10C640001C70C44D2E60C44B1C70C44B07221A7062
:10C65000C34B1C60C34B1C60C34B1C60C34B1C70A2
:10C66000C34B1C700023C34A1360C34A1360C34A00
:10C670001360C34A1360C34A1360C34A1470C34AA9
:10C680001360C34A1360C34A1360C34A1360C34AAA
:10C690001470C34A1360C34A1360C34A1360C34A89
:10C6A0001360C34A1360C34A1360C34A1460C34A89
:10C6B0001460C34A1360C34A1360C34A1360602204
:10C6C0002146C24808F0A4FFC14B1C605C609C601E
:10C6D000DC601C61BF4E304606F06AF8BE4F38463B
:10C6E00006F066F874627C620121084606F018F8CC
:10C6F000ADF894404FF02003ADF896302B68D3EDA1
:10C700002B7AFDEEE77A17EE903AB44A92FBF3F3F8
:10C710002693ADF89C408DF89E4025A9304606F042
:10C7200017F94FF06003ADF880300125ADF8825065
:10C730004FF00402ADF88420F36AEB402293ADF889
:10C740008C40ADF88E404FF48079ADF890904FF466
:10C750000072ADF8922020A9304606F069F920A9B0
:10C76000304606F09DF920A9304606F0D9F920A9F7
:10C77000304606F015FA0821304606F079FA08210D
:10C78000304606F07DFA0821304606F089FA082185
:10C79000304606F08DFA4FF4006BADF870B04FF4F0
:10C7A0008068ADF87280ADF874403C23ADF8763007
:10C7B000ADF878404FF4005AADF87AA0ADF87C405F
:10C7C0001CA9304606F0B4FA2946304606F0D0FAE5
:10C7D0002946304606F00CF92946814805F080FFCD
:10C7E00029464FF4E06005F09BFF23467D4A032174
:10C7F0007D48F2F7EDFC09947C4B0B937C4B0A933C
:10C800000C940C230D930E94CDF83C80CDF840B0E1
:10C81000CDF844A0CDF848904FF40033139314940E
:10C82000159416941794DFF8D0A109A9504605F085
:10C83000B7FD2946504605F0E3FD2A461021504633
:10C8400005F0EEFD1623189319944FF480431A93C4
:10C850001B9418A805F0F4FB03948DF810508DF884
:10C8600011404FF0005305934FF050630693079427
:10C870004FF004018DF82010AAF5A23AAAF1700A2F
:10C8800003A9504605F0B4FB05940694DFF86CB19B
:10C8900003A9584605F0ACFB03A9564805F0A8FBD0
:10C8A000284605F0F5FB284605F04AFC03F060FC3D
:10C8B0002946504605F0DCFB2946584605F0D8FBD2
:10C8C00029464C4805F0D4FB2946022005F028FFF4
:10C8D000ADF89440ADF896404FF6FF732693ADF84F
:10C8E0009C408DF89E4025A9384606F031F84FF05F
:10C8F0006003ADF88030ADF882504FF4FA732293A4
:10C90000ADF88C40ADF88E40ADF890904FF40072C9
:10C91000ADF8922020A9384606F08AF8082138465A
:10C9200006F0A6F920A9384606F0BAF808213846DC
:10C9300006F0A6F920A9384606F0F2F80821384694
:10C9400006F0AEF92946384606F052F8294657E077
:10C95000DCA50020B0A5002094A60020B4A50020EE
:10C96000BCA50020C4A50020C8A50020CCA500209F
:10C9700069A6002064A60020D0A50020D8A500202C
:10C98000E0A500204CA6002050A6002078A600209C
:10C9900090A600205CA6002060A6002068A60020CB
:10C9A00054A6002058A6002044A6002048A6002037
:10C9B0006CA6002070A6002098A600209CA600204F
:10C9C000ACA5002074A60020D4A50020E4A500207A
:10C9D0007CA600200000014000040140007A030A08
:10C9E0000500400051E1010830C4020844980020CD
:10C9F00008230140002201407064024000210140F0
:10CA0000384606F0B5F92946384606F0A1F9202146
:10CA1000304606F0F5F98021304606F011FA21463D
:10CA2000384606F0E5F90421384606F0F9F92946BA
:10CA3000304605F0EDFF2946384605F0E9FF294666
:10CA4000304606F085F9FFF72BFA022179632A4672
:10CA5000384606F09DF906212E20F2F7E1F9F8F7A5
:10CA600027FF384BA3F81880A3F580634FF480525A
:10CA70005A831A8341F28934324D0A262B6913F402
:10CA8000805F04D13046F0F743FF013CF6D142F21B
:10CA90001070F0F73DFF00232B4A13602B4A136000
:10CAA0002B4A13601368B3F57A6FFBDB264B1B68C8
:10CAB000274A116893FBF1F326490B60234B1B684F
:10CAC000126893FBF2F3244A1360244B4FF4805214
:10CAD0005A830124224B1C702146402005F010FE91
:10CAE0004FF0FF3326930723ADF894300025ADF8BF
:10CAF0009C50ADF896501B4E25A9304605F028FFF6
:10CB00002146304605F084FF174B1D700095174BEA
:10CB1000402240F698111648F0F7E2FE21464FF405
:10CB2000006005F0EDFD284606F0CAF9FF2006F08A
:10CB3000D7F9642006F0F4F90E4B1C7029B0BDE85B
:10CB4000F08F00BF00080240BCA50020C4A5002053
:10CB5000C8A50020B8A50020C0A500200004024000
:10CB6000CCA5002000180040BCA60020A1C10108EF
:10CB7000C0A60020DCA5002000000000000000008E
:10CB800038B5134B00221A7006F08AF9114B0122B6
:10CB90001A701B783BB10A250E4C2846F0F7B8FEF8
:10CBA0002378002BF9D10C4805F002FE0B4805F064
:10CBB000FFFD0B4805F0FCFD05F00AFA094805F0F9
:10CBC0003FFB1220F2F744F90748F2F751FB38BD5A
:10CBD000DCA50020BCA600200000014000040140AC
:10CBE000001800407064024030C4020800000000D9
:10CBF000014B1878704700BFDCA500200000000042
:10CC000010B5154C2060154B07221A70144B0022EA
:10CC10001A70FFF745F92368D3ED2B7AFDEEE77A1A
:10CC200017EE901A0F4B93FBF1F10F4A136843F084
:10CC3000020313600D4B186840F002001860D162C7
:10CC400002215963116821F0020111601A6822F073
:10CC500002021A6010BD00BFB0A50020B4A50020DC
:10CC600094A60020007A030A00000140000401405D
:10CC7000014B1878704700BF94A600200000000008
:10CC8000014B1878704700BFCCA5002000000000C1
:10CC9000074B00221A70074B83ED000A064B1B78E6
:10CCA000DBB2022B02D0044B02221A70704700BF85
:10CCB000B4A50020D0A5002094A60020000000000C
:10CCC000074B01221A70074B83ED000A064B1B78B5
:10CCD000DBB2022B02D0044B02221A70704700BF55
:10CCE000B4A5002090A6002094A60020000000001B
:10CCF000074B04221A70074B83ED000A064B1B7882
:10CD0000DBB2022B02D0044B02221A70704700BF24
:10CD1000B4A5002078A6002094A600200000000002
:10CD200008B5114B1B68D3ED507AB0EEC07AB4EE63
:10CD3000E77AF1EE10FA0DD40C4B02221A700C4B6C
:10CD400083ED000A0B4B1B78DBB293421CBF094BEF
:10CD50001A7008BD054B07221A70064B00221A7084
:10CD6000FFF79EF8F5E700BFB0A50020B4A50020AE
:10CD7000E0A5002094A600200000000000000000B4
:10CD800008B59FED020AFFF7CBFF08BD00000000C9
:10CD900008B5114B1B68D3ED507AB0EEC07AB4EEF3
:10CDA000E77AF1EE10FA0ED40C4B03221A700C4BFA
:10CDB00083ED000A0B4B1B78DBB2022B02D0094B30
:10CDC00002221A7008BD054B07221A70054B00227B
:10CDD0001A70FFF765F8F5E7B0A50020B4A50020AC
:10CDE000E0A5002094A60020000000000000000044
:10CDF00008B5114B1B68D3ED507AB0EEC07AB4EE93
:10CE0000E77AF1EE10FA0ED40C4B05221A700C4B97
:10CE100083ED000A0B4B1B78DBB2022B02D0094BCF
:10CE200002221A7008BD054B07221A70054B00221A
:10CE30001A70FFF735F8F5E7B0A50020B4A500207B
:10CE4000E0A5002094A600200000000000000000E3
:10CE500000B52DED028B83B08DED010A1C4B1B68D4
:10CE6000D3ED507AB0EEC00AB4EEE70AF1EE10FA54
:10CE700020D4B0EE608A93ED010AD3ED010AB1EE41
:10CE8000400A01A8F8F7D4F9124B06221A70019A49
:10CE9000114B1A60DFED117A28EE278A104B83EDD3
:10CEA000008A104B1B78DBB2022B0BD00D4B0222F9
:10CEB0001A7007E0074B07221A700A4B00221A70FB
:10CEC000FEF7EEFF03B0BDEC028B5DF804FB00BF84
:10CED000B0A50020B4A50020E0A500205077D63DE5
:10CEE0004CA6002094A600200000000000000000D6
:10CEF000014B93ED030A7047E4A5002000000000F9
:10CF0000014B93ED000A704774A60020000000005A
:10CF1000044B1B6893ED2B0AF6EE007A20EE270AED
:10CF2000704700BFB0A50020000000000000000016
:10CF3000034B93ED000ADFED037A80EE270A70477A
:10CF400070A600205077D63D0000000000000000D1
:10CF5000094BD3ED147AF5EEC07AF1EE10FAFFEE3C
:10CF6000007AB7EE000A58BFF0EE407A93ED100A4F
:10CF700020EE270A704700BFE4A500200000000053
:10CF8000094BD3ED147AF5EEC07AF1EE10FAFFEE0C
:10CF9000007AB7EE000A58BFF0EE407A93ED120A1D
:10CFA00020EE270A704700BFE4A500200000000023
:10CFB000014B93ED070A7047E4A500200000000034
:10CFC000014B93ED080A7047E4A500200000000023
:10CFD000014B93ED100A7047E4A50020000000000B
:10CFE000014B93ED120A7047E4A5002000000000F9
:10CFF000014B93ED0F0A7047E4A5002000000000EC
:10D00000014B93ED100A7047E4A5002000000000DA
:10D01000014B93ED090A7047E4A5002000000000D1
:10D02000034B1B6810B1024A00211160184670477B
:10D0300098A6002000000000000000000000000092
:10D04000034B1B6810B1024A00211160184670475B
:10D050009CA600200000000000000000000000006E
:10D0600000B583B0084BD3ED047A9FED087A67EEE4
:10D07000877A02A860ED017AF8F792F89DED010A2F
:10D0800003B05DF804FB00BFE4A50020E02E65427C
:10D0900000B583B0084BD3ED007A9FED087A67EEB8
:10D0A000877A02A860ED017AF8F77AF89DED010A17
:10D0B00003B05DF804FB00BF5CA60020E02E6542D3
:10D0C00000B583B0084BD3ED007A9FED087A67EE88
:10D0D000877A02A860ED017AF8F762F89DED010AFF
:10D0E00003B05DF804FB00BF54A60020E02E6542AB
:10D0F000014B93ED140A7047E4A5002000000000E6
:10D100002DE9F04F2DED0E8B85B0B0EE408A07462D
:10D11000884691469A46FDF753FAD44B01221A707D
:10D12000D34B83ED008A9FEDD38AD34B83ED008AE6
:10D130000223D24A1370D24A1370FCF701FD01900A
:10D14000FCF706FDB0EE40BAFCF7E2FCB0EE480A90
:10D15000CC48FCF7CDFCCC4B1B68D3ED2DBA93F833
:10D16000B820D2B207EE902AF8EE67AA93ED2FCA44
:10D1700083ED2D8A002283F8B8204FF07E52C3F849
:10D18000BC204FF01F0BC14E0A25DFEDC18AFCF712
:10D1900047FF78B94FF4FA749FEDB68A86ED008A9E
:10D1A0002846F0F7B5FB38EE288A013CF6D1BBF1F2
:10D1B000010BECD147BB4FF4FA749FEDAE8AB34E2E
:10D1C0000A25DFEDB38A86ED008A2846F0F7A0FB3A
:10D1D00038EE288A013CF6D1D7B942F21070F0F748
:10D1E00097FBAC4B93ED00DA0026DFEDA29AB0EE90
:10D1F00069AA9B46A54CDFEDA8CA9FEDA59A9FEDB5
:10D20000A7EADFEDA7DA1FE0A648FAF731FFD2E779
:10D21000A548FAF72DFFE0E7032E12DD9BED000A8B
:10D22000F0EE4D0AF8F7BCF8B0EEC00AF6EE007A60
:10D2300068EE277AF0EEE77AB4EEE70AF1EE10FA3C
:10D2400045D40136142E42D0DBED00EA94ED008A7D
:10D2500078EE2C8AB4EEE88AF1EE10FA0CD50A25A5
:10D2600084ED008A2846F0F753FB38EE098AB4EEC5
:10D27000E88AF1EE10FAF3D42046F7F7A9FF40F65A
:10D28000B830F0F745FB9BED000AF0EE6E0AF8F7B8
:10D2900087F8B0EE408A03A902A806F079FCDDED1C
:10D2A000027A3AEE27AADDED037A79EEA79A002FEB
:10D2B000B2D068EE0E7AC7EEAD7A17EE900AEFF7AD
:10D2C000A3F802460B467948FAF7D2FEA4E7714B61
:10D2D00093ED00DA00269B466C4CDFED6FCA9FEDA4
:10D2E0006C9A9FED6EEADFED6EDA17E0032E12DD29
:10D2F0009BED000AF0EE4D0AF8F752F8B0EEC00AC6
:10D30000F6EE007A68EE277AF0EEE77AB4EEE70AF6
:10D31000F1EE10FA45D40136142E42D0DBED00EACE
:10D3200094ED008A78EE6C8AB4EEE88AF1EE10FA99
:10D330000CDD0A2584ED008A2846F0F7E9FA38EE7C
:10D34000498AB4EEE88AF1EE10FAF3DC2046F7F7EA
:10D350003FFF40F6B830F0F7DBFADBED000AB0EE45
:10D360006E0AF8F71DF8B0EE408A03A902A806F08D
:10D370000FFCDDED027A3AEE27AADDED037A79EEB5
:10D38000A79A002FB2D068EE0E7AC7EEAD7A17EEEC
:10D39000900AEFF739F802460B464448FAF768FE60
:10D3A000A4E7F0EE690AB0EE4A0A06F089FBDFED69
:10D3B0003B7A20EE270A9FED3A7AC0EE077AF5EE27
:10D3C000C07AF1EE10FA4CBF012300238AF8003036
:10D3D000F0EEE77A9FED360A80EE270A06F0C0F9F4
:10D3E00089ED000A284B1B689AF8002083F8B820C2
:10D3F000D9F80020C3F8BC20002F5DD1234B93ED5A
:10D40000008ADFED2C7AB4EEE78AF1EE10FA12D53D
:10D410001E4C9FED1F9ADFED278A84ED008A1420B1
:10D42000F0F776FA38EE098AB4EEE88AF1EE10FAEF
:10D43000F3D4002F4DD1144B1B68D3ED2F7AB0EEEF
:10D44000087A67EE877AFDEEE77A17EE906A002E8B
:10D4500040F3D9804FF000099FED068AF0EE488A2C
:10D46000094DDFED0F9A9FED0DAA45E069A600205A
:10D47000D8A5002000000000E0A50020B4A50020F1
:10D4800094A60020C0270900B0A5002064A60020B3
:10D490002EE34D3C54A60020920A0640000034437F
:10D4A000DB0F494000DE02080CDE0208C0CF020894
:10D4B0000000F042DB0FC9407C48FAF7D9FD7C4BF5
:10D4C00093ED008ADFED7B7AB4EEE78AF1EE10FA95
:10D4D0009ED47948FAF7CCFDFCF7D2FC10EE100A86
:10D4E000EEF792FF02460B467448FAF7C1FDA2E739
:10D4F00009F101094E453ED02B6893ED2F7A07EED6
:10D50000909AF8EEE77A77EEA77A67EEA97A67EE57
:10D51000877A07EE106AF8EEC76A87EEA67A644C3F
:10D5200084ED007A41F28830F0F7F2F9644B93ED24
:10D53000000AD4ED000AF7F733FFB0EE409A03A9D2
:10D5400002A806F025FBDDED027A78EEA78ADDED74
:10D55000037A38EE278A002FCAD029EE0A9AC9EE3C
:10D56000297A17EE900AEEF74FFF02460B46554810
:10D57000FAF77EFDBCE74C46534EDFED549A9FED23
:10D5800054AA0CEE909A01E0013C40D0336893ED30
:10D590002F7A07EE904AF8EEE77A77EEA77A67EEF1
:10D5A000A97A67EE877AF8EEEC6A87EEA67A404DA4
:10D5B00085ED007A41F28830F0F7AAF9404B93EDFF
:10D5C000000AD5ED000AF7F7EBFEB0EE409A03A98A
:10D5D00002A806F0DDFADDED027A78EEA78ADDED2D
:10D5E000037A38EE278A002FCED029EE0A9AC9EEA8
:10D5F000297A17EE900AEEF707FF02460B463148EC
:10D60000FAF736FDC0E79FED338AF0EE488AF0EE78
:10D61000480AB0EE680A06F053FADFED2D7A60EEA4
:10D62000277ADFED2A6A87EEA67A88ED007A67BB53
:10D630004046F7F7B5FD0023274A1360274A1360D9
:10D640000023274A1370274A07211170264A1370B6
:10D65000FEF726FC1C4B1B68F5EE40AAF1EE10FA13
:10D6600014BF0122002283F8B820C3ED2DBA83ED48
:10D670002FCAB0EE4B0A0198FCF73AFAFCF7A8FF64
:10D6800005B0BDEC0E8BBDE8F08F17EE100AEEF77B
:10D69000BBFE02460B461548FAF7EAFC4046F7F790
:10D6A0007FFD1348FAF7E4FCC5E700BF20DE02085F
:10D6B00064A60020DB0FC9400CDE020840DE020831
:10D6C00054A60020C0CF0208B0A50020DB0F4940BF
:10D6D0000000344300000000D8A50020E0A5002091
:10D6E00069A60020B4A5002094A600204CDE020804
:10D6F00058DE0208000000000000000000000000EA
:10D700002DE9F0412DED048BF0EE408A0646FCF742
:10D7100057FF354B01221A709FED348A344B83ED4D
:10D72000008A344B83ED008A334BC3ED008A022319
:10D73000324A1370324A1370FCF702FA8046FCF743
:10D7400007FAB0EE409AFCF7E3F9B0EE480A4EF65D
:10D750006020FCF7CDF941F28830F0F7D9F8294B79
:10D7600083ED018A83ED028A00221A6042F211746D
:10D770001D460A272B68B34204DA3846F0F7C8F88A
:10D78000013CF7D11F4B93ED017AD3ED007AF8EE0F
:10D79000E77A87EE278A93ED027AD3ED007AF8EEE6
:10D7A000E77AC7EE278A0023124A1360124A1360F1
:10D7B00000230D4A1370114A07211170104A13708B
:10D7C000FEF76EFBB0EE490A4046FCF791F9FCF714
:10D7D000FFFE88EE880ADFED0C7A20EE270ABDEC0A
:10D7E000048BBDE8F08100BF69A6002000000000A6
:10D7F00064A60020D8A50020E0A50020B4A5002044
:10D8000094A600207CA60020ABAA2A3F00000000BE
:10D810002DE9F04F2DED028B83B081468B463B4BBB
:10D820009FED3B8A83ED018A83ED028A00221A6014
:10D8300083ED040AFCF784F90190FCF789F9F0EE16
:10D84000408AFCF765F9B0EE480A4EF66020FCF716
:10D850004FF9FCF7B5FEB9F1000F18DD4FF00008E5
:10D8600044462A4D0126B2464CF2503703E008F1F7
:10D870000108C1450BD085F80CA03046F0F748F8F8
:10D880000134BC4203DC2B7B002BF6D1EFE7B0EE7A
:10D89000680A0198FCF72CF9FCF79AFE1B4B93EDF4
:10D8A000017AD3ED007AF8EEE77A87EE276AD3EDB6
:10D8B000026AD3ED007AF8EEE77A86EEA77A154A87
:10D8C000D2ED0B7AD3ED046AF8EE677A67EEA67AAA
:10D8D000DFED115AC7EEA56ADFED107A76EEE77A32
:10D8E000BBF1000F01D08BED006A27EE277AC7EE5F
:10D8F000067A9FED0B0A67EE807A9FED0A0A27EE03
:10D90000800A03B0BDEC028BBDE8F08F7CA600203E
:10D910000000000000000140A037204D57BDBF347B
:10D9200000247449ABAA2A3F000000000000000058
:10D930002DE9F0472DED048B82B007460E46754861
:10D940000368D3F8ACA0D3F8A490D3F8A880724AA7
:10D95000C3F8AC20714AC3F8A420714AC3F8A820C8
:10D96000D3ED2B7AFDEEE77A17EE901A6D4B93FB11
:10D97000F1F16D4A136843F0020313606B4B1C68AE
:10D9800044F002041C60D16202215963116821F045
:10D99000020111601A6822F002021A600368D3EDD6
:10D9A000017AB6EE007A67EE877AB0EE007AF4EE8E
:10D9B000C77AF1EE10FA21DDB0EE478A1424F7EEB3
:10D9C000008A05462046B0EE480AFFF799FE88EE29
:10D9D000800AB4EEC80AF1EE10FA47D4F7EE087ADE
:10D9E00028EE278A2B68D3ED017AB6EE007A67EE2F
:10D9F000877AF4EEC87AF1EE10FAE3DC454B1B6847
:10DA000093ED018AF6EE007A28EE278AC820B0EE60
:10DA1000480AFFF775FE87ED000A3E4B1B68444A33
:10DA2000C3F8AC20D3ED2B7AFDEEE77A17EE901A0F
:10DA30003C4B93FBF1F13C4A136843F00203136043
