
build/BLDC_4_ChibiOS.elf:     file format elf32-littlearm


Disassembly of section .text:

0800c000 <Reset_Handler>:
 800c000:	b672      	cpsid	i
 800c002:	4833      	ldr	r0, [pc, #204]	; (800c0d0 <endfiniloop+0x4>)
 800c004:	f380 8809 	msr	PSP, r0
 800c008:	f240 0000 	movw	r0, #0
 800c00c:	f2cc 0000 	movt	r0, #49152	; 0xc000
 800c010:	f64e 7134 	movw	r1, #61236	; 0xef34
 800c014:	f2ce 0100 	movt	r1, #57344	; 0xe000
 800c018:	6008      	str	r0, [r1, #0]
 800c01a:	f3bf 8f4f 	dsb	sy
 800c01e:	f3bf 8f6f 	isb	sy
 800c022:	f240 0000 	movw	r0, #0
 800c026:	f2c0 00f0 	movt	r0, #240	; 0xf0
 800c02a:	f64e 5188 	movw	r1, #60808	; 0xed88
 800c02e:	f2ce 0100 	movt	r1, #57344	; 0xe000
 800c032:	6008      	str	r0, [r1, #0]
 800c034:	f3bf 8f4f 	dsb	sy
 800c038:	f3bf 8f6f 	isb	sy
 800c03c:	f04f 0000 	mov.w	r0, #0
 800c040:	eee1 0a10 	vmsr	fpscr, r0
 800c044:	f64e 713c 	movw	r1, #61244	; 0xef3c
 800c048:	f2ce 0100 	movt	r1, #57344	; 0xe000
 800c04c:	6008      	str	r0, [r1, #0]
 800c04e:	2006      	movs	r0, #6
 800c050:	f380 8814 	msr	CONTROL, r0
 800c054:	f3bf 8f6f 	isb	sy
 800c058:	f001 f9da 	bl	800d410 <__core_init>
 800c05c:	f004 fe50 	bl	8010d00 <__early_init>
 800c060:	f04f 3055 	mov.w	r0, #1431655765	; 0x55555555
 800c064:	491b      	ldr	r1, [pc, #108]	; (800c0d4 <endfiniloop+0x8>)
 800c066:	4a1c      	ldr	r2, [pc, #112]	; (800c0d8 <endfiniloop+0xc>)

0800c068 <msloop>:
 800c068:	4291      	cmp	r1, r2
 800c06a:	bf3c      	itt	cc
 800c06c:	f841 0b04 	strcc.w	r0, [r1], #4
 800c070:	e7fa      	bcc.n	800c068 <msloop>
 800c072:	491a      	ldr	r1, [pc, #104]	; (800c0dc <endfiniloop+0x10>)
 800c074:	4a16      	ldr	r2, [pc, #88]	; (800c0d0 <endfiniloop+0x4>)

0800c076 <psloop>:
 800c076:	4291      	cmp	r1, r2
 800c078:	bf3c      	itt	cc
 800c07a:	f841 0b04 	strcc.w	r0, [r1], #4
 800c07e:	e7fa      	bcc.n	800c076 <psloop>
 800c080:	4917      	ldr	r1, [pc, #92]	; (800c0e0 <endfiniloop+0x14>)
 800c082:	4a18      	ldr	r2, [pc, #96]	; (800c0e4 <endfiniloop+0x18>)
 800c084:	4b18      	ldr	r3, [pc, #96]	; (800c0e8 <endfiniloop+0x1c>)

0800c086 <dloop>:
 800c086:	429a      	cmp	r2, r3
 800c088:	bf3e      	ittt	cc
 800c08a:	f851 0b04 	ldrcc.w	r0, [r1], #4
 800c08e:	f842 0b04 	strcc.w	r0, [r2], #4
 800c092:	e7f8      	bcc.n	800c086 <dloop>
 800c094:	2000      	movs	r0, #0
 800c096:	4915      	ldr	r1, [pc, #84]	; (800c0ec <endfiniloop+0x20>)
 800c098:	4a15      	ldr	r2, [pc, #84]	; (800c0f0 <endfiniloop+0x24>)

0800c09a <bloop>:
 800c09a:	4291      	cmp	r1, r2
 800c09c:	bf3c      	itt	cc
 800c09e:	f841 0b04 	strcc.w	r0, [r1], #4
 800c0a2:	e7fa      	bcc.n	800c09a <bloop>
 800c0a4:	f001 f9bc 	bl	800d420 <__late_init>
 800c0a8:	4c12      	ldr	r4, [pc, #72]	; (800c0f4 <endfiniloop+0x28>)
 800c0aa:	4d13      	ldr	r5, [pc, #76]	; (800c0f8 <endfiniloop+0x2c>)

0800c0ac <initloop>:
 800c0ac:	42ac      	cmp	r4, r5
 800c0ae:	da03      	bge.n	800c0b8 <endinitloop>
 800c0b0:	f854 1b04 	ldr.w	r1, [r4], #4
 800c0b4:	4788      	blx	r1
 800c0b6:	e7f9      	b.n	800c0ac <initloop>

0800c0b8 <endinitloop>:
 800c0b8:	f004 feda 	bl	8010e70 <main>
 800c0bc:	4c0f      	ldr	r4, [pc, #60]	; (800c0fc <endfiniloop+0x30>)
 800c0be:	4d10      	ldr	r5, [pc, #64]	; (800c100 <endfiniloop+0x34>)

0800c0c0 <finiloop>:
 800c0c0:	42ac      	cmp	r4, r5
 800c0c2:	da03      	bge.n	800c0cc <endfiniloop>
 800c0c4:	f854 1b04 	ldr.w	r1, [r4], #4
 800c0c8:	4788      	blx	r1
 800c0ca:	e7f9      	b.n	800c0c0 <finiloop>

0800c0cc <endfiniloop>:
 800c0cc:	f001 b9b0 	b.w	800d430 <__default_exit>
 800c0d0:	20001000 	.word	0x20001000
 800c0d4:	20000000 	.word	0x20000000
 800c0d8:	20000800 	.word	0x20000800
 800c0dc:	20000800 	.word	0x20000800
 800c0e0:	0802ed78 	.word	0x0802ed78
 800c0e4:	20001000 	.word	0x20001000
 800c0e8:	200019ec 	.word	0x200019ec
 800c0ec:	200019f0 	.word	0x200019f0
 800c0f0:	2000d590 	.word	0x2000d590
 800c0f4:	0800c000 	.word	0x0800c000
 800c0f8:	0800c000 	.word	0x0800c000
 800c0fc:	0800c000 	.word	0x0800c000
 800c100:	0800c000 	.word	0x0800c000
	...

0800c110 <_port_switch>:
 800c110:	e92d 4ff0 	stmdb	sp!, {r4, r5, r6, r7, r8, r9, sl, fp, lr}
 800c114:	ed2d 8a10 	vpush	{s16-s31}
 800c118:	f8c1 d00c 	str.w	sp, [r1, #12]
 800c11c:	f8d0 d00c 	ldr.w	sp, [r0, #12]
 800c120:	ecbd 8a10 	vpop	{s16-s31}
 800c124:	e8bd 8ff0 	ldmia.w	sp!, {r4, r5, r6, r7, r8, r9, sl, fp, pc}

0800c128 <_port_thread_start>:
 800c128:	2300      	movs	r3, #0
 800c12a:	f383 8811 	msr	BASEPRI, r3
 800c12e:	4628      	mov	r0, r5
 800c130:	47a0      	blx	r4
 800c132:	2000      	movs	r0, #0
 800c134:	f001 fc1c 	bl	800d970 <chThdExit>

0800c138 <_port_switch_from_isr>:
 800c138:	f001 fb82 	bl	800d840 <chSchDoReschedule>

0800c13c <_port_exit_from_isr>:
 800c13c:	df00      	svc	0
 800c13e:	e7fe      	b.n	800c13e <_port_exit_from_isr+0x2>

0800c140 <__aeabi_drsub>:
 800c140:	f081 4100 	eor.w	r1, r1, #2147483648	; 0x80000000
 800c144:	e002      	b.n	800c14c <__adddf3>
 800c146:	bf00      	nop

0800c148 <__aeabi_dsub>:
 800c148:	f083 4300 	eor.w	r3, r3, #2147483648	; 0x80000000

0800c14c <__adddf3>:
 800c14c:	b530      	push	{r4, r5, lr}
 800c14e:	ea4f 0441 	mov.w	r4, r1, lsl #1
 800c152:	ea4f 0543 	mov.w	r5, r3, lsl #1
 800c156:	ea94 0f05 	teq	r4, r5
 800c15a:	bf08      	it	eq
 800c15c:	ea90 0f02 	teqeq	r0, r2
 800c160:	bf1f      	itttt	ne
 800c162:	ea54 0c00 	orrsne.w	ip, r4, r0
 800c166:	ea55 0c02 	orrsne.w	ip, r5, r2
 800c16a:	ea7f 5c64 	mvnsne.w	ip, r4, asr #21
 800c16e:	ea7f 5c65 	mvnsne.w	ip, r5, asr #21
 800c172:	f000 80e2 	beq.w	800c33a <__adddf3+0x1ee>
 800c176:	ea4f 5454 	mov.w	r4, r4, lsr #21
 800c17a:	ebd4 5555 	rsbs	r5, r4, r5, lsr #21
 800c17e:	bfb8      	it	lt
 800c180:	426d      	neglt	r5, r5
 800c182:	dd0c      	ble.n	800c19e <__adddf3+0x52>
 800c184:	442c      	add	r4, r5
 800c186:	ea80 0202 	eor.w	r2, r0, r2
 800c18a:	ea81 0303 	eor.w	r3, r1, r3
 800c18e:	ea82 0000 	eor.w	r0, r2, r0
 800c192:	ea83 0101 	eor.w	r1, r3, r1
 800c196:	ea80 0202 	eor.w	r2, r0, r2
 800c19a:	ea81 0303 	eor.w	r3, r1, r3
 800c19e:	2d36      	cmp	r5, #54	; 0x36
 800c1a0:	bf88      	it	hi
 800c1a2:	bd30      	pophi	{r4, r5, pc}
 800c1a4:	f011 4f00 	tst.w	r1, #2147483648	; 0x80000000
 800c1a8:	ea4f 3101 	mov.w	r1, r1, lsl #12
 800c1ac:	f44f 1c80 	mov.w	ip, #1048576	; 0x100000
 800c1b0:	ea4c 3111 	orr.w	r1, ip, r1, lsr #12
 800c1b4:	d002      	beq.n	800c1bc <__adddf3+0x70>
 800c1b6:	4240      	negs	r0, r0
 800c1b8:	eb61 0141 	sbc.w	r1, r1, r1, lsl #1
 800c1bc:	f013 4f00 	tst.w	r3, #2147483648	; 0x80000000
 800c1c0:	ea4f 3303 	mov.w	r3, r3, lsl #12
 800c1c4:	ea4c 3313 	orr.w	r3, ip, r3, lsr #12
 800c1c8:	d002      	beq.n	800c1d0 <__adddf3+0x84>
 800c1ca:	4252      	negs	r2, r2
 800c1cc:	eb63 0343 	sbc.w	r3, r3, r3, lsl #1
 800c1d0:	ea94 0f05 	teq	r4, r5
 800c1d4:	f000 80a7 	beq.w	800c326 <__adddf3+0x1da>
 800c1d8:	f1a4 0401 	sub.w	r4, r4, #1
 800c1dc:	f1d5 0e20 	rsbs	lr, r5, #32
 800c1e0:	db0d      	blt.n	800c1fe <__adddf3+0xb2>
 800c1e2:	fa02 fc0e 	lsl.w	ip, r2, lr
 800c1e6:	fa22 f205 	lsr.w	r2, r2, r5
 800c1ea:	1880      	adds	r0, r0, r2
 800c1ec:	f141 0100 	adc.w	r1, r1, #0
 800c1f0:	fa03 f20e 	lsl.w	r2, r3, lr
 800c1f4:	1880      	adds	r0, r0, r2
 800c1f6:	fa43 f305 	asr.w	r3, r3, r5
 800c1fa:	4159      	adcs	r1, r3
 800c1fc:	e00e      	b.n	800c21c <__adddf3+0xd0>
 800c1fe:	f1a5 0520 	sub.w	r5, r5, #32
 800c202:	f10e 0e20 	add.w	lr, lr, #32
 800c206:	2a01      	cmp	r2, #1
 800c208:	fa03 fc0e 	lsl.w	ip, r3, lr
 800c20c:	bf28      	it	cs
 800c20e:	f04c 0c02 	orrcs.w	ip, ip, #2
 800c212:	fa43 f305 	asr.w	r3, r3, r5
 800c216:	18c0      	adds	r0, r0, r3
 800c218:	eb51 71e3 	adcs.w	r1, r1, r3, asr #31
 800c21c:	f001 4500 	and.w	r5, r1, #2147483648	; 0x80000000
 800c220:	d507      	bpl.n	800c232 <__adddf3+0xe6>
 800c222:	f04f 0e00 	mov.w	lr, #0
 800c226:	f1dc 0c00 	rsbs	ip, ip, #0
 800c22a:	eb7e 0000 	sbcs.w	r0, lr, r0
 800c22e:	eb6e 0101 	sbc.w	r1, lr, r1
 800c232:	f5b1 1f80 	cmp.w	r1, #1048576	; 0x100000
 800c236:	d31b      	bcc.n	800c270 <__adddf3+0x124>
 800c238:	f5b1 1f00 	cmp.w	r1, #2097152	; 0x200000
 800c23c:	d30c      	bcc.n	800c258 <__adddf3+0x10c>
 800c23e:	0849      	lsrs	r1, r1, #1
 800c240:	ea5f 0030 	movs.w	r0, r0, rrx
 800c244:	ea4f 0c3c 	mov.w	ip, ip, rrx
 800c248:	f104 0401 	add.w	r4, r4, #1
 800c24c:	ea4f 5244 	mov.w	r2, r4, lsl #21
 800c250:	f512 0f80 	cmn.w	r2, #4194304	; 0x400000
 800c254:	f080 809a 	bcs.w	800c38c <__adddf3+0x240>
 800c258:	f1bc 4f00 	cmp.w	ip, #2147483648	; 0x80000000
 800c25c:	bf08      	it	eq
 800c25e:	ea5f 0c50 	movseq.w	ip, r0, lsr #1
 800c262:	f150 0000 	adcs.w	r0, r0, #0
 800c266:	eb41 5104 	adc.w	r1, r1, r4, lsl #20
 800c26a:	ea41 0105 	orr.w	r1, r1, r5
 800c26e:	bd30      	pop	{r4, r5, pc}
 800c270:	ea5f 0c4c 	movs.w	ip, ip, lsl #1
 800c274:	4140      	adcs	r0, r0
 800c276:	eb41 0101 	adc.w	r1, r1, r1
 800c27a:	f411 1f80 	tst.w	r1, #1048576	; 0x100000
 800c27e:	f1a4 0401 	sub.w	r4, r4, #1
 800c282:	d1e9      	bne.n	800c258 <__adddf3+0x10c>
 800c284:	f091 0f00 	teq	r1, #0
 800c288:	bf04      	itt	eq
 800c28a:	4601      	moveq	r1, r0
 800c28c:	2000      	moveq	r0, #0
 800c28e:	fab1 f381 	clz	r3, r1
 800c292:	bf08      	it	eq
 800c294:	3320      	addeq	r3, #32
 800c296:	f1a3 030b 	sub.w	r3, r3, #11
 800c29a:	f1b3 0220 	subs.w	r2, r3, #32
 800c29e:	da0c      	bge.n	800c2ba <__adddf3+0x16e>
 800c2a0:	320c      	adds	r2, #12
 800c2a2:	dd08      	ble.n	800c2b6 <__adddf3+0x16a>
 800c2a4:	f102 0c14 	add.w	ip, r2, #20
 800c2a8:	f1c2 020c 	rsb	r2, r2, #12
 800c2ac:	fa01 f00c 	lsl.w	r0, r1, ip
 800c2b0:	fa21 f102 	lsr.w	r1, r1, r2
 800c2b4:	e00c      	b.n	800c2d0 <__adddf3+0x184>
 800c2b6:	f102 0214 	add.w	r2, r2, #20
 800c2ba:	bfd8      	it	le
 800c2bc:	f1c2 0c20 	rsble	ip, r2, #32
 800c2c0:	fa01 f102 	lsl.w	r1, r1, r2
 800c2c4:	fa20 fc0c 	lsr.w	ip, r0, ip
 800c2c8:	bfdc      	itt	le
 800c2ca:	ea41 010c 	orrle.w	r1, r1, ip
 800c2ce:	4090      	lslle	r0, r2
 800c2d0:	1ae4      	subs	r4, r4, r3
 800c2d2:	bfa2      	ittt	ge
 800c2d4:	eb01 5104 	addge.w	r1, r1, r4, lsl #20
 800c2d8:	4329      	orrge	r1, r5
 800c2da:	bd30      	popge	{r4, r5, pc}
 800c2dc:	ea6f 0404 	mvn.w	r4, r4
 800c2e0:	3c1f      	subs	r4, #31
 800c2e2:	da1c      	bge.n	800c31e <__adddf3+0x1d2>
 800c2e4:	340c      	adds	r4, #12
 800c2e6:	dc0e      	bgt.n	800c306 <__adddf3+0x1ba>
 800c2e8:	f104 0414 	add.w	r4, r4, #20
 800c2ec:	f1c4 0220 	rsb	r2, r4, #32
 800c2f0:	fa20 f004 	lsr.w	r0, r0, r4
 800c2f4:	fa01 f302 	lsl.w	r3, r1, r2
 800c2f8:	ea40 0003 	orr.w	r0, r0, r3
 800c2fc:	fa21 f304 	lsr.w	r3, r1, r4
 800c300:	ea45 0103 	orr.w	r1, r5, r3
 800c304:	bd30      	pop	{r4, r5, pc}
 800c306:	f1c4 040c 	rsb	r4, r4, #12
 800c30a:	f1c4 0220 	rsb	r2, r4, #32
 800c30e:	fa20 f002 	lsr.w	r0, r0, r2
 800c312:	fa01 f304 	lsl.w	r3, r1, r4
 800c316:	ea40 0003 	orr.w	r0, r0, r3
 800c31a:	4629      	mov	r1, r5
 800c31c:	bd30      	pop	{r4, r5, pc}
 800c31e:	fa21 f004 	lsr.w	r0, r1, r4
 800c322:	4629      	mov	r1, r5
 800c324:	bd30      	pop	{r4, r5, pc}
 800c326:	f094 0f00 	teq	r4, #0
 800c32a:	f483 1380 	eor.w	r3, r3, #1048576	; 0x100000
 800c32e:	bf06      	itte	eq
 800c330:	f481 1180 	eoreq.w	r1, r1, #1048576	; 0x100000
 800c334:	3401      	addeq	r4, #1
 800c336:	3d01      	subne	r5, #1
 800c338:	e74e      	b.n	800c1d8 <__adddf3+0x8c>
 800c33a:	ea7f 5c64 	mvns.w	ip, r4, asr #21
 800c33e:	bf18      	it	ne
 800c340:	ea7f 5c65 	mvnsne.w	ip, r5, asr #21
 800c344:	d029      	beq.n	800c39a <__adddf3+0x24e>
 800c346:	ea94 0f05 	teq	r4, r5
 800c34a:	bf08      	it	eq
 800c34c:	ea90 0f02 	teqeq	r0, r2
 800c350:	d005      	beq.n	800c35e <__adddf3+0x212>
 800c352:	ea54 0c00 	orrs.w	ip, r4, r0
 800c356:	bf04      	itt	eq
 800c358:	4619      	moveq	r1, r3
 800c35a:	4610      	moveq	r0, r2
 800c35c:	bd30      	pop	{r4, r5, pc}
 800c35e:	ea91 0f03 	teq	r1, r3
 800c362:	bf1e      	ittt	ne
 800c364:	2100      	movne	r1, #0
 800c366:	2000      	movne	r0, #0
 800c368:	bd30      	popne	{r4, r5, pc}
 800c36a:	ea5f 5c54 	movs.w	ip, r4, lsr #21
 800c36e:	d105      	bne.n	800c37c <__adddf3+0x230>
 800c370:	0040      	lsls	r0, r0, #1
 800c372:	4149      	adcs	r1, r1
 800c374:	bf28      	it	cs
 800c376:	f041 4100 	orrcs.w	r1, r1, #2147483648	; 0x80000000
 800c37a:	bd30      	pop	{r4, r5, pc}
 800c37c:	f514 0480 	adds.w	r4, r4, #4194304	; 0x400000
 800c380:	bf3c      	itt	cc
 800c382:	f501 1180 	addcc.w	r1, r1, #1048576	; 0x100000
 800c386:	bd30      	popcc	{r4, r5, pc}
 800c388:	f001 4500 	and.w	r5, r1, #2147483648	; 0x80000000
 800c38c:	f045 41fe 	orr.w	r1, r5, #2130706432	; 0x7f000000
 800c390:	f441 0170 	orr.w	r1, r1, #15728640	; 0xf00000
 800c394:	f04f 0000 	mov.w	r0, #0
 800c398:	bd30      	pop	{r4, r5, pc}
 800c39a:	ea7f 5c64 	mvns.w	ip, r4, asr #21
 800c39e:	bf1a      	itte	ne
 800c3a0:	4619      	movne	r1, r3
 800c3a2:	4610      	movne	r0, r2
 800c3a4:	ea7f 5c65 	mvnseq.w	ip, r5, asr #21
 800c3a8:	bf1c      	itt	ne
 800c3aa:	460b      	movne	r3, r1
 800c3ac:	4602      	movne	r2, r0
 800c3ae:	ea50 3401 	orrs.w	r4, r0, r1, lsl #12
 800c3b2:	bf06      	itte	eq
 800c3b4:	ea52 3503 	orrseq.w	r5, r2, r3, lsl #12
 800c3b8:	ea91 0f03 	teqeq	r1, r3
 800c3bc:	f441 2100 	orrne.w	r1, r1, #524288	; 0x80000
 800c3c0:	bd30      	pop	{r4, r5, pc}
 800c3c2:	bf00      	nop

0800c3c4 <__aeabi_ui2d>:
 800c3c4:	f090 0f00 	teq	r0, #0
 800c3c8:	bf04      	itt	eq
 800c3ca:	2100      	moveq	r1, #0
 800c3cc:	4770      	bxeq	lr
 800c3ce:	b530      	push	{r4, r5, lr}
 800c3d0:	f44f 6480 	mov.w	r4, #1024	; 0x400
 800c3d4:	f104 0432 	add.w	r4, r4, #50	; 0x32
 800c3d8:	f04f 0500 	mov.w	r5, #0
 800c3dc:	f04f 0100 	mov.w	r1, #0
 800c3e0:	e750      	b.n	800c284 <__adddf3+0x138>
 800c3e2:	bf00      	nop

0800c3e4 <__aeabi_i2d>:
 800c3e4:	f090 0f00 	teq	r0, #0
 800c3e8:	bf04      	itt	eq
 800c3ea:	2100      	moveq	r1, #0
 800c3ec:	4770      	bxeq	lr
 800c3ee:	b530      	push	{r4, r5, lr}
 800c3f0:	f44f 6480 	mov.w	r4, #1024	; 0x400
 800c3f4:	f104 0432 	add.w	r4, r4, #50	; 0x32
 800c3f8:	f010 4500 	ands.w	r5, r0, #2147483648	; 0x80000000
 800c3fc:	bf48      	it	mi
 800c3fe:	4240      	negmi	r0, r0
 800c400:	f04f 0100 	mov.w	r1, #0
 800c404:	e73e      	b.n	800c284 <__adddf3+0x138>
 800c406:	bf00      	nop

0800c408 <__aeabi_f2d>:
 800c408:	0042      	lsls	r2, r0, #1
 800c40a:	ea4f 01e2 	mov.w	r1, r2, asr #3
 800c40e:	ea4f 0131 	mov.w	r1, r1, rrx
 800c412:	ea4f 7002 	mov.w	r0, r2, lsl #28
 800c416:	bf1f      	itttt	ne
 800c418:	f012 437f 	andsne.w	r3, r2, #4278190080	; 0xff000000
 800c41c:	f093 4f7f 	teqne	r3, #4278190080	; 0xff000000
 800c420:	f081 5160 	eorne.w	r1, r1, #939524096	; 0x38000000
 800c424:	4770      	bxne	lr
 800c426:	f032 427f 	bics.w	r2, r2, #4278190080	; 0xff000000
 800c42a:	bf08      	it	eq
 800c42c:	4770      	bxeq	lr
 800c42e:	f093 4f7f 	teq	r3, #4278190080	; 0xff000000
 800c432:	bf04      	itt	eq
 800c434:	f441 2100 	orreq.w	r1, r1, #524288	; 0x80000
 800c438:	4770      	bxeq	lr
 800c43a:	b530      	push	{r4, r5, lr}
 800c43c:	f44f 7460 	mov.w	r4, #896	; 0x380
 800c440:	f001 4500 	and.w	r5, r1, #2147483648	; 0x80000000
 800c444:	f021 4100 	bic.w	r1, r1, #2147483648	; 0x80000000
 800c448:	e71c      	b.n	800c284 <__adddf3+0x138>
 800c44a:	bf00      	nop

0800c44c <__aeabi_ul2d>:
 800c44c:	ea50 0201 	orrs.w	r2, r0, r1
 800c450:	bf08      	it	eq
 800c452:	4770      	bxeq	lr
 800c454:	b530      	push	{r4, r5, lr}
 800c456:	f04f 0500 	mov.w	r5, #0
 800c45a:	e00a      	b.n	800c472 <__aeabi_l2d+0x16>

0800c45c <__aeabi_l2d>:
 800c45c:	ea50 0201 	orrs.w	r2, r0, r1
 800c460:	bf08      	it	eq
 800c462:	4770      	bxeq	lr
 800c464:	b530      	push	{r4, r5, lr}
 800c466:	f011 4500 	ands.w	r5, r1, #2147483648	; 0x80000000
 800c46a:	d502      	bpl.n	800c472 <__aeabi_l2d+0x16>
 800c46c:	4240      	negs	r0, r0
 800c46e:	eb61 0141 	sbc.w	r1, r1, r1, lsl #1
 800c472:	f44f 6480 	mov.w	r4, #1024	; 0x400
 800c476:	f104 0432 	add.w	r4, r4, #50	; 0x32
 800c47a:	ea5f 5c91 	movs.w	ip, r1, lsr #22
 800c47e:	f43f aed8 	beq.w	800c232 <__adddf3+0xe6>
 800c482:	f04f 0203 	mov.w	r2, #3
 800c486:	ea5f 0cdc 	movs.w	ip, ip, lsr #3
 800c48a:	bf18      	it	ne
 800c48c:	3203      	addne	r2, #3
 800c48e:	ea5f 0cdc 	movs.w	ip, ip, lsr #3
 800c492:	bf18      	it	ne
 800c494:	3203      	addne	r2, #3
 800c496:	eb02 02dc 	add.w	r2, r2, ip, lsr #3
 800c49a:	f1c2 0320 	rsb	r3, r2, #32
 800c49e:	fa00 fc03 	lsl.w	ip, r0, r3
 800c4a2:	fa20 f002 	lsr.w	r0, r0, r2
 800c4a6:	fa01 fe03 	lsl.w	lr, r1, r3
 800c4aa:	ea40 000e 	orr.w	r0, r0, lr
 800c4ae:	fa21 f102 	lsr.w	r1, r1, r2
 800c4b2:	4414      	add	r4, r2
 800c4b4:	e6bd      	b.n	800c232 <__adddf3+0xe6>
 800c4b6:	bf00      	nop
	...

0800c4c0 <__aeabi_dmul>:
 800c4c0:	b570      	push	{r4, r5, r6, lr}
 800c4c2:	f04f 0cff 	mov.w	ip, #255	; 0xff
 800c4c6:	f44c 6ce0 	orr.w	ip, ip, #1792	; 0x700
 800c4ca:	ea1c 5411 	ands.w	r4, ip, r1, lsr #20
 800c4ce:	bf1d      	ittte	ne
 800c4d0:	ea1c 5513 	andsne.w	r5, ip, r3, lsr #20
 800c4d4:	ea94 0f0c 	teqne	r4, ip
 800c4d8:	ea95 0f0c 	teqne	r5, ip
 800c4dc:	f000 f8de 	bleq	800c69c <__aeabi_dmul+0x1dc>
 800c4e0:	442c      	add	r4, r5
 800c4e2:	ea81 0603 	eor.w	r6, r1, r3
 800c4e6:	ea21 514c 	bic.w	r1, r1, ip, lsl #21
 800c4ea:	ea23 534c 	bic.w	r3, r3, ip, lsl #21
 800c4ee:	ea50 3501 	orrs.w	r5, r0, r1, lsl #12
 800c4f2:	bf18      	it	ne
 800c4f4:	ea52 3503 	orrsne.w	r5, r2, r3, lsl #12
 800c4f8:	f441 1180 	orr.w	r1, r1, #1048576	; 0x100000
 800c4fc:	f443 1380 	orr.w	r3, r3, #1048576	; 0x100000
 800c500:	d038      	beq.n	800c574 <__aeabi_dmul+0xb4>
 800c502:	fba0 ce02 	umull	ip, lr, r0, r2
 800c506:	f04f 0500 	mov.w	r5, #0
 800c50a:	fbe1 e502 	umlal	lr, r5, r1, r2
 800c50e:	f006 4200 	and.w	r2, r6, #2147483648	; 0x80000000
 800c512:	fbe0 e503 	umlal	lr, r5, r0, r3
 800c516:	f04f 0600 	mov.w	r6, #0
 800c51a:	fbe1 5603 	umlal	r5, r6, r1, r3
 800c51e:	f09c 0f00 	teq	ip, #0
 800c522:	bf18      	it	ne
 800c524:	f04e 0e01 	orrne.w	lr, lr, #1
 800c528:	f1a4 04ff 	sub.w	r4, r4, #255	; 0xff
 800c52c:	f5b6 7f00 	cmp.w	r6, #512	; 0x200
 800c530:	f564 7440 	sbc.w	r4, r4, #768	; 0x300
 800c534:	d204      	bcs.n	800c540 <__aeabi_dmul+0x80>
 800c536:	ea5f 0e4e 	movs.w	lr, lr, lsl #1
 800c53a:	416d      	adcs	r5, r5
 800c53c:	eb46 0606 	adc.w	r6, r6, r6
 800c540:	ea42 21c6 	orr.w	r1, r2, r6, lsl #11
 800c544:	ea41 5155 	orr.w	r1, r1, r5, lsr #21
 800c548:	ea4f 20c5 	mov.w	r0, r5, lsl #11
 800c54c:	ea40 505e 	orr.w	r0, r0, lr, lsr #21
 800c550:	ea4f 2ece 	mov.w	lr, lr, lsl #11
 800c554:	f1b4 0cfd 	subs.w	ip, r4, #253	; 0xfd
 800c558:	bf88      	it	hi
 800c55a:	f5bc 6fe0 	cmphi.w	ip, #1792	; 0x700
 800c55e:	d81e      	bhi.n	800c59e <__aeabi_dmul+0xde>
 800c560:	f1be 4f00 	cmp.w	lr, #2147483648	; 0x80000000
 800c564:	bf08      	it	eq
 800c566:	ea5f 0e50 	movseq.w	lr, r0, lsr #1
 800c56a:	f150 0000 	adcs.w	r0, r0, #0
 800c56e:	eb41 5104 	adc.w	r1, r1, r4, lsl #20
 800c572:	bd70      	pop	{r4, r5, r6, pc}
 800c574:	f006 4600 	and.w	r6, r6, #2147483648	; 0x80000000
 800c578:	ea46 0101 	orr.w	r1, r6, r1
 800c57c:	ea40 0002 	orr.w	r0, r0, r2
 800c580:	ea81 0103 	eor.w	r1, r1, r3
 800c584:	ebb4 045c 	subs.w	r4, r4, ip, lsr #1
 800c588:	bfc2      	ittt	gt
 800c58a:	ebd4 050c 	rsbsgt	r5, r4, ip
 800c58e:	ea41 5104 	orrgt.w	r1, r1, r4, lsl #20
 800c592:	bd70      	popgt	{r4, r5, r6, pc}
 800c594:	f441 1180 	orr.w	r1, r1, #1048576	; 0x100000
 800c598:	f04f 0e00 	mov.w	lr, #0
 800c59c:	3c01      	subs	r4, #1
 800c59e:	f300 80ab 	bgt.w	800c6f8 <__aeabi_dmul+0x238>
 800c5a2:	f114 0f36 	cmn.w	r4, #54	; 0x36
 800c5a6:	bfde      	ittt	le
 800c5a8:	2000      	movle	r0, #0
 800c5aa:	f001 4100 	andle.w	r1, r1, #2147483648	; 0x80000000
 800c5ae:	bd70      	pople	{r4, r5, r6, pc}
 800c5b0:	f1c4 0400 	rsb	r4, r4, #0
 800c5b4:	3c20      	subs	r4, #32
 800c5b6:	da35      	bge.n	800c624 <__aeabi_dmul+0x164>
 800c5b8:	340c      	adds	r4, #12
 800c5ba:	dc1b      	bgt.n	800c5f4 <__aeabi_dmul+0x134>
 800c5bc:	f104 0414 	add.w	r4, r4, #20
 800c5c0:	f1c4 0520 	rsb	r5, r4, #32
 800c5c4:	fa00 f305 	lsl.w	r3, r0, r5
 800c5c8:	fa20 f004 	lsr.w	r0, r0, r4
 800c5cc:	fa01 f205 	lsl.w	r2, r1, r5
 800c5d0:	ea40 0002 	orr.w	r0, r0, r2
 800c5d4:	f001 4200 	and.w	r2, r1, #2147483648	; 0x80000000
 800c5d8:	f021 4100 	bic.w	r1, r1, #2147483648	; 0x80000000
 800c5dc:	eb10 70d3 	adds.w	r0, r0, r3, lsr #31
 800c5e0:	fa21 f604 	lsr.w	r6, r1, r4
 800c5e4:	eb42 0106 	adc.w	r1, r2, r6
 800c5e8:	ea5e 0e43 	orrs.w	lr, lr, r3, lsl #1
 800c5ec:	bf08      	it	eq
 800c5ee:	ea20 70d3 	biceq.w	r0, r0, r3, lsr #31
 800c5f2:	bd70      	pop	{r4, r5, r6, pc}
 800c5f4:	f1c4 040c 	rsb	r4, r4, #12
 800c5f8:	f1c4 0520 	rsb	r5, r4, #32
 800c5fc:	fa00 f304 	lsl.w	r3, r0, r4
 800c600:	fa20 f005 	lsr.w	r0, r0, r5
 800c604:	fa01 f204 	lsl.w	r2, r1, r4
 800c608:	ea40 0002 	orr.w	r0, r0, r2
 800c60c:	f001 4100 	and.w	r1, r1, #2147483648	; 0x80000000
 800c610:	eb10 70d3 	adds.w	r0, r0, r3, lsr #31
 800c614:	f141 0100 	adc.w	r1, r1, #0
 800c618:	ea5e 0e43 	orrs.w	lr, lr, r3, lsl #1
 800c61c:	bf08      	it	eq
 800c61e:	ea20 70d3 	biceq.w	r0, r0, r3, lsr #31
 800c622:	bd70      	pop	{r4, r5, r6, pc}
 800c624:	f1c4 0520 	rsb	r5, r4, #32
 800c628:	fa00 f205 	lsl.w	r2, r0, r5
 800c62c:	ea4e 0e02 	orr.w	lr, lr, r2
 800c630:	fa20 f304 	lsr.w	r3, r0, r4
 800c634:	fa01 f205 	lsl.w	r2, r1, r5
 800c638:	ea43 0302 	orr.w	r3, r3, r2
 800c63c:	fa21 f004 	lsr.w	r0, r1, r4
 800c640:	f001 4100 	and.w	r1, r1, #2147483648	; 0x80000000
 800c644:	fa21 f204 	lsr.w	r2, r1, r4
 800c648:	ea20 0002 	bic.w	r0, r0, r2
 800c64c:	eb00 70d3 	add.w	r0, r0, r3, lsr #31
 800c650:	ea5e 0e43 	orrs.w	lr, lr, r3, lsl #1
 800c654:	bf08      	it	eq
 800c656:	ea20 70d3 	biceq.w	r0, r0, r3, lsr #31
 800c65a:	bd70      	pop	{r4, r5, r6, pc}
 800c65c:	f094 0f00 	teq	r4, #0
 800c660:	d10f      	bne.n	800c682 <__aeabi_dmul+0x1c2>
 800c662:	f001 4600 	and.w	r6, r1, #2147483648	; 0x80000000
 800c666:	0040      	lsls	r0, r0, #1
 800c668:	eb41 0101 	adc.w	r1, r1, r1
 800c66c:	f411 1f80 	tst.w	r1, #1048576	; 0x100000
 800c670:	bf08      	it	eq
 800c672:	3c01      	subeq	r4, #1
 800c674:	d0f7      	beq.n	800c666 <__aeabi_dmul+0x1a6>
 800c676:	ea41 0106 	orr.w	r1, r1, r6
 800c67a:	f095 0f00 	teq	r5, #0
 800c67e:	bf18      	it	ne
 800c680:	4770      	bxne	lr
 800c682:	f003 4600 	and.w	r6, r3, #2147483648	; 0x80000000
 800c686:	0052      	lsls	r2, r2, #1
 800c688:	eb43 0303 	adc.w	r3, r3, r3
 800c68c:	f413 1f80 	tst.w	r3, #1048576	; 0x100000
 800c690:	bf08      	it	eq
 800c692:	3d01      	subeq	r5, #1
 800c694:	d0f7      	beq.n	800c686 <__aeabi_dmul+0x1c6>
 800c696:	ea43 0306 	orr.w	r3, r3, r6
 800c69a:	4770      	bx	lr
 800c69c:	ea94 0f0c 	teq	r4, ip
 800c6a0:	ea0c 5513 	and.w	r5, ip, r3, lsr #20
 800c6a4:	bf18      	it	ne
 800c6a6:	ea95 0f0c 	teqne	r5, ip
 800c6aa:	d00c      	beq.n	800c6c6 <__aeabi_dmul+0x206>
 800c6ac:	ea50 0641 	orrs.w	r6, r0, r1, lsl #1
 800c6b0:	bf18      	it	ne
 800c6b2:	ea52 0643 	orrsne.w	r6, r2, r3, lsl #1
 800c6b6:	d1d1      	bne.n	800c65c <__aeabi_dmul+0x19c>
 800c6b8:	ea81 0103 	eor.w	r1, r1, r3
 800c6bc:	f001 4100 	and.w	r1, r1, #2147483648	; 0x80000000
 800c6c0:	f04f 0000 	mov.w	r0, #0
 800c6c4:	bd70      	pop	{r4, r5, r6, pc}
 800c6c6:	ea50 0641 	orrs.w	r6, r0, r1, lsl #1
 800c6ca:	bf06      	itte	eq
 800c6cc:	4610      	moveq	r0, r2
 800c6ce:	4619      	moveq	r1, r3
 800c6d0:	ea52 0643 	orrsne.w	r6, r2, r3, lsl #1
 800c6d4:	d019      	beq.n	800c70a <__aeabi_dmul+0x24a>
 800c6d6:	ea94 0f0c 	teq	r4, ip
 800c6da:	d102      	bne.n	800c6e2 <__aeabi_dmul+0x222>
 800c6dc:	ea50 3601 	orrs.w	r6, r0, r1, lsl #12
 800c6e0:	d113      	bne.n	800c70a <__aeabi_dmul+0x24a>
 800c6e2:	ea95 0f0c 	teq	r5, ip
 800c6e6:	d105      	bne.n	800c6f4 <__aeabi_dmul+0x234>
 800c6e8:	ea52 3603 	orrs.w	r6, r2, r3, lsl #12
 800c6ec:	bf1c      	itt	ne
 800c6ee:	4610      	movne	r0, r2
 800c6f0:	4619      	movne	r1, r3
 800c6f2:	d10a      	bne.n	800c70a <__aeabi_dmul+0x24a>
 800c6f4:	ea81 0103 	eor.w	r1, r1, r3
 800c6f8:	f001 4100 	and.w	r1, r1, #2147483648	; 0x80000000
 800c6fc:	f041 41fe 	orr.w	r1, r1, #2130706432	; 0x7f000000
 800c700:	f441 0170 	orr.w	r1, r1, #15728640	; 0xf00000
 800c704:	f04f 0000 	mov.w	r0, #0
 800c708:	bd70      	pop	{r4, r5, r6, pc}
 800c70a:	f041 41fe 	orr.w	r1, r1, #2130706432	; 0x7f000000
 800c70e:	f441 0178 	orr.w	r1, r1, #16252928	; 0xf80000
 800c712:	bd70      	pop	{r4, r5, r6, pc}

0800c714 <__aeabi_ddiv>:
 800c714:	b570      	push	{r4, r5, r6, lr}
 800c716:	f04f 0cff 	mov.w	ip, #255	; 0xff
 800c71a:	f44c 6ce0 	orr.w	ip, ip, #1792	; 0x700
 800c71e:	ea1c 5411 	ands.w	r4, ip, r1, lsr #20
 800c722:	bf1d      	ittte	ne
 800c724:	ea1c 5513 	andsne.w	r5, ip, r3, lsr #20
 800c728:	ea94 0f0c 	teqne	r4, ip
 800c72c:	ea95 0f0c 	teqne	r5, ip
 800c730:	f000 f8a7 	bleq	800c882 <__aeabi_ddiv+0x16e>
 800c734:	eba4 0405 	sub.w	r4, r4, r5
 800c738:	ea81 0e03 	eor.w	lr, r1, r3
 800c73c:	ea52 3503 	orrs.w	r5, r2, r3, lsl #12
 800c740:	ea4f 3101 	mov.w	r1, r1, lsl #12
 800c744:	f000 8088 	beq.w	800c858 <__aeabi_ddiv+0x144>
 800c748:	ea4f 3303 	mov.w	r3, r3, lsl #12
 800c74c:	f04f 5580 	mov.w	r5, #268435456	; 0x10000000
 800c750:	ea45 1313 	orr.w	r3, r5, r3, lsr #4
 800c754:	ea43 6312 	orr.w	r3, r3, r2, lsr #24
 800c758:	ea4f 2202 	mov.w	r2, r2, lsl #8
 800c75c:	ea45 1511 	orr.w	r5, r5, r1, lsr #4
 800c760:	ea45 6510 	orr.w	r5, r5, r0, lsr #24
 800c764:	ea4f 2600 	mov.w	r6, r0, lsl #8
 800c768:	f00e 4100 	and.w	r1, lr, #2147483648	; 0x80000000
 800c76c:	429d      	cmp	r5, r3
 800c76e:	bf08      	it	eq
 800c770:	4296      	cmpeq	r6, r2
 800c772:	f144 04fd 	adc.w	r4, r4, #253	; 0xfd
 800c776:	f504 7440 	add.w	r4, r4, #768	; 0x300
 800c77a:	d202      	bcs.n	800c782 <__aeabi_ddiv+0x6e>
 800c77c:	085b      	lsrs	r3, r3, #1
 800c77e:	ea4f 0232 	mov.w	r2, r2, rrx
 800c782:	1ab6      	subs	r6, r6, r2
 800c784:	eb65 0503 	sbc.w	r5, r5, r3
 800c788:	085b      	lsrs	r3, r3, #1
 800c78a:	ea4f 0232 	mov.w	r2, r2, rrx
 800c78e:	f44f 1080 	mov.w	r0, #1048576	; 0x100000
 800c792:	f44f 2c00 	mov.w	ip, #524288	; 0x80000
 800c796:	ebb6 0e02 	subs.w	lr, r6, r2
 800c79a:	eb75 0e03 	sbcs.w	lr, r5, r3
 800c79e:	bf22      	ittt	cs
 800c7a0:	1ab6      	subcs	r6, r6, r2
 800c7a2:	4675      	movcs	r5, lr
 800c7a4:	ea40 000c 	orrcs.w	r0, r0, ip
 800c7a8:	085b      	lsrs	r3, r3, #1
 800c7aa:	ea4f 0232 	mov.w	r2, r2, rrx
 800c7ae:	ebb6 0e02 	subs.w	lr, r6, r2
 800c7b2:	eb75 0e03 	sbcs.w	lr, r5, r3
 800c7b6:	bf22      	ittt	cs
 800c7b8:	1ab6      	subcs	r6, r6, r2
 800c7ba:	4675      	movcs	r5, lr
 800c7bc:	ea40 005c 	orrcs.w	r0, r0, ip, lsr #1
 800c7c0:	085b      	lsrs	r3, r3, #1
 800c7c2:	ea4f 0232 	mov.w	r2, r2, rrx
 800c7c6:	ebb6 0e02 	subs.w	lr, r6, r2
 800c7ca:	eb75 0e03 	sbcs.w	lr, r5, r3
 800c7ce:	bf22      	ittt	cs
 800c7d0:	1ab6      	subcs	r6, r6, r2
 800c7d2:	4675      	movcs	r5, lr
 800c7d4:	ea40 009c 	orrcs.w	r0, r0, ip, lsr #2
 800c7d8:	085b      	lsrs	r3, r3, #1
 800c7da:	ea4f 0232 	mov.w	r2, r2, rrx
 800c7de:	ebb6 0e02 	subs.w	lr, r6, r2
 800c7e2:	eb75 0e03 	sbcs.w	lr, r5, r3
 800c7e6:	bf22      	ittt	cs
 800c7e8:	1ab6      	subcs	r6, r6, r2
 800c7ea:	4675      	movcs	r5, lr
 800c7ec:	ea40 00dc 	orrcs.w	r0, r0, ip, lsr #3
 800c7f0:	ea55 0e06 	orrs.w	lr, r5, r6
 800c7f4:	d018      	beq.n	800c828 <__aeabi_ddiv+0x114>
 800c7f6:	ea4f 1505 	mov.w	r5, r5, lsl #4
 800c7fa:	ea45 7516 	orr.w	r5, r5, r6, lsr #28
 800c7fe:	ea4f 1606 	mov.w	r6, r6, lsl #4
 800c802:	ea4f 03c3 	mov.w	r3, r3, lsl #3
 800c806:	ea43 7352 	orr.w	r3, r3, r2, lsr #29
 800c80a:	ea4f 02c2 	mov.w	r2, r2, lsl #3
 800c80e:	ea5f 1c1c 	movs.w	ip, ip, lsr #4
 800c812:	d1c0      	bne.n	800c796 <__aeabi_ddiv+0x82>
 800c814:	f411 1f80 	tst.w	r1, #1048576	; 0x100000
 800c818:	d10b      	bne.n	800c832 <__aeabi_ddiv+0x11e>
 800c81a:	ea41 0100 	orr.w	r1, r1, r0
 800c81e:	f04f 0000 	mov.w	r0, #0
 800c822:	f04f 4c00 	mov.w	ip, #2147483648	; 0x80000000
 800c826:	e7b6      	b.n	800c796 <__aeabi_ddiv+0x82>
 800c828:	f411 1f80 	tst.w	r1, #1048576	; 0x100000
 800c82c:	bf04      	itt	eq
 800c82e:	4301      	orreq	r1, r0
 800c830:	2000      	moveq	r0, #0
 800c832:	f1b4 0cfd 	subs.w	ip, r4, #253	; 0xfd
 800c836:	bf88      	it	hi
 800c838:	f5bc 6fe0 	cmphi.w	ip, #1792	; 0x700
 800c83c:	f63f aeaf 	bhi.w	800c59e <__aeabi_dmul+0xde>
 800c840:	ebb5 0c03 	subs.w	ip, r5, r3
 800c844:	bf04      	itt	eq
 800c846:	ebb6 0c02 	subseq.w	ip, r6, r2
 800c84a:	ea5f 0c50 	movseq.w	ip, r0, lsr #1
 800c84e:	f150 0000 	adcs.w	r0, r0, #0
 800c852:	eb41 5104 	adc.w	r1, r1, r4, lsl #20
 800c856:	bd70      	pop	{r4, r5, r6, pc}
 800c858:	f00e 4e00 	and.w	lr, lr, #2147483648	; 0x80000000
 800c85c:	ea4e 3111 	orr.w	r1, lr, r1, lsr #12
 800c860:	eb14 045c 	adds.w	r4, r4, ip, lsr #1
 800c864:	bfc2      	ittt	gt
 800c866:	ebd4 050c 	rsbsgt	r5, r4, ip
 800c86a:	ea41 5104 	orrgt.w	r1, r1, r4, lsl #20
 800c86e:	bd70      	popgt	{r4, r5, r6, pc}
 800c870:	f441 1180 	orr.w	r1, r1, #1048576	; 0x100000
 800c874:	f04f 0e00 	mov.w	lr, #0
 800c878:	3c01      	subs	r4, #1
 800c87a:	e690      	b.n	800c59e <__aeabi_dmul+0xde>
 800c87c:	ea45 0e06 	orr.w	lr, r5, r6
 800c880:	e68d      	b.n	800c59e <__aeabi_dmul+0xde>
 800c882:	ea0c 5513 	and.w	r5, ip, r3, lsr #20
 800c886:	ea94 0f0c 	teq	r4, ip
 800c88a:	bf08      	it	eq
 800c88c:	ea95 0f0c 	teqeq	r5, ip
 800c890:	f43f af3b 	beq.w	800c70a <__aeabi_dmul+0x24a>
 800c894:	ea94 0f0c 	teq	r4, ip
 800c898:	d10a      	bne.n	800c8b0 <__aeabi_ddiv+0x19c>
 800c89a:	ea50 3401 	orrs.w	r4, r0, r1, lsl #12
 800c89e:	f47f af34 	bne.w	800c70a <__aeabi_dmul+0x24a>
 800c8a2:	ea95 0f0c 	teq	r5, ip
 800c8a6:	f47f af25 	bne.w	800c6f4 <__aeabi_dmul+0x234>
 800c8aa:	4610      	mov	r0, r2
 800c8ac:	4619      	mov	r1, r3
 800c8ae:	e72c      	b.n	800c70a <__aeabi_dmul+0x24a>
 800c8b0:	ea95 0f0c 	teq	r5, ip
 800c8b4:	d106      	bne.n	800c8c4 <__aeabi_ddiv+0x1b0>
 800c8b6:	ea52 3503 	orrs.w	r5, r2, r3, lsl #12
 800c8ba:	f43f aefd 	beq.w	800c6b8 <__aeabi_dmul+0x1f8>
 800c8be:	4610      	mov	r0, r2
 800c8c0:	4619      	mov	r1, r3
 800c8c2:	e722      	b.n	800c70a <__aeabi_dmul+0x24a>
 800c8c4:	ea50 0641 	orrs.w	r6, r0, r1, lsl #1
 800c8c8:	bf18      	it	ne
 800c8ca:	ea52 0643 	orrsne.w	r6, r2, r3, lsl #1
 800c8ce:	f47f aec5 	bne.w	800c65c <__aeabi_dmul+0x19c>
 800c8d2:	ea50 0441 	orrs.w	r4, r0, r1, lsl #1
 800c8d6:	f47f af0d 	bne.w	800c6f4 <__aeabi_dmul+0x234>
 800c8da:	ea52 0543 	orrs.w	r5, r2, r3, lsl #1
 800c8de:	f47f aeeb 	bne.w	800c6b8 <__aeabi_dmul+0x1f8>
 800c8e2:	e712      	b.n	800c70a <__aeabi_dmul+0x24a>
	...

0800c8f0 <__gedf2>:
 800c8f0:	f04f 3cff 	mov.w	ip, #4294967295
 800c8f4:	e006      	b.n	800c904 <__cmpdf2+0x4>
 800c8f6:	bf00      	nop

0800c8f8 <__ledf2>:
 800c8f8:	f04f 0c01 	mov.w	ip, #1
 800c8fc:	e002      	b.n	800c904 <__cmpdf2+0x4>
 800c8fe:	bf00      	nop

0800c900 <__cmpdf2>:
 800c900:	f04f 0c01 	mov.w	ip, #1
 800c904:	f84d cd04 	str.w	ip, [sp, #-4]!
 800c908:	ea4f 0c41 	mov.w	ip, r1, lsl #1
 800c90c:	ea7f 5c6c 	mvns.w	ip, ip, asr #21
 800c910:	ea4f 0c43 	mov.w	ip, r3, lsl #1
 800c914:	bf18      	it	ne
 800c916:	ea7f 5c6c 	mvnsne.w	ip, ip, asr #21
 800c91a:	d01b      	beq.n	800c954 <__cmpdf2+0x54>
 800c91c:	b001      	add	sp, #4
 800c91e:	ea50 0c41 	orrs.w	ip, r0, r1, lsl #1
 800c922:	bf0c      	ite	eq
 800c924:	ea52 0c43 	orrseq.w	ip, r2, r3, lsl #1
 800c928:	ea91 0f03 	teqne	r1, r3
 800c92c:	bf02      	ittt	eq
 800c92e:	ea90 0f02 	teqeq	r0, r2
 800c932:	2000      	moveq	r0, #0
 800c934:	4770      	bxeq	lr
 800c936:	f110 0f00 	cmn.w	r0, #0
 800c93a:	ea91 0f03 	teq	r1, r3
 800c93e:	bf58      	it	pl
 800c940:	4299      	cmppl	r1, r3
 800c942:	bf08      	it	eq
 800c944:	4290      	cmpeq	r0, r2
 800c946:	bf2c      	ite	cs
 800c948:	17d8      	asrcs	r0, r3, #31
 800c94a:	ea6f 70e3 	mvncc.w	r0, r3, asr #31
 800c94e:	f040 0001 	orr.w	r0, r0, #1
 800c952:	4770      	bx	lr
 800c954:	ea4f 0c41 	mov.w	ip, r1, lsl #1
 800c958:	ea7f 5c6c 	mvns.w	ip, ip, asr #21
 800c95c:	d102      	bne.n	800c964 <__cmpdf2+0x64>
 800c95e:	ea50 3c01 	orrs.w	ip, r0, r1, lsl #12
 800c962:	d107      	bne.n	800c974 <__cmpdf2+0x74>
 800c964:	ea4f 0c43 	mov.w	ip, r3, lsl #1
 800c968:	ea7f 5c6c 	mvns.w	ip, ip, asr #21
 800c96c:	d1d6      	bne.n	800c91c <__cmpdf2+0x1c>
 800c96e:	ea52 3c03 	orrs.w	ip, r2, r3, lsl #12
 800c972:	d0d3      	beq.n	800c91c <__cmpdf2+0x1c>
 800c974:	f85d 0b04 	ldr.w	r0, [sp], #4
 800c978:	4770      	bx	lr
 800c97a:	bf00      	nop

0800c97c <__aeabi_cdrcmple>:
 800c97c:	4684      	mov	ip, r0
 800c97e:	4610      	mov	r0, r2
 800c980:	4662      	mov	r2, ip
 800c982:	468c      	mov	ip, r1
 800c984:	4619      	mov	r1, r3
 800c986:	4663      	mov	r3, ip
 800c988:	e000      	b.n	800c98c <__aeabi_cdcmpeq>
 800c98a:	bf00      	nop

0800c98c <__aeabi_cdcmpeq>:
 800c98c:	b501      	push	{r0, lr}
 800c98e:	f7ff ffb7 	bl	800c900 <__cmpdf2>
 800c992:	2800      	cmp	r0, #0
 800c994:	bf48      	it	mi
 800c996:	f110 0f00 	cmnmi.w	r0, #0
 800c99a:	bd01      	pop	{r0, pc}

0800c99c <__aeabi_dcmpeq>:
 800c99c:	f84d ed08 	str.w	lr, [sp, #-8]!
 800c9a0:	f7ff fff4 	bl	800c98c <__aeabi_cdcmpeq>
 800c9a4:	bf0c      	ite	eq
 800c9a6:	2001      	moveq	r0, #1
 800c9a8:	2000      	movne	r0, #0
 800c9aa:	f85d fb08 	ldr.w	pc, [sp], #8
 800c9ae:	bf00      	nop

0800c9b0 <__aeabi_dcmplt>:
 800c9b0:	f84d ed08 	str.w	lr, [sp, #-8]!
 800c9b4:	f7ff ffea 	bl	800c98c <__aeabi_cdcmpeq>
 800c9b8:	bf34      	ite	cc
 800c9ba:	2001      	movcc	r0, #1
 800c9bc:	2000      	movcs	r0, #0
 800c9be:	f85d fb08 	ldr.w	pc, [sp], #8
 800c9c2:	bf00      	nop

0800c9c4 <__aeabi_dcmple>:
 800c9c4:	f84d ed08 	str.w	lr, [sp, #-8]!
 800c9c8:	f7ff ffe0 	bl	800c98c <__aeabi_cdcmpeq>
 800c9cc:	bf94      	ite	ls
 800c9ce:	2001      	movls	r0, #1
 800c9d0:	2000      	movhi	r0, #0
 800c9d2:	f85d fb08 	ldr.w	pc, [sp], #8
 800c9d6:	bf00      	nop

0800c9d8 <__aeabi_dcmpge>:
 800c9d8:	f84d ed08 	str.w	lr, [sp, #-8]!
 800c9dc:	f7ff ffce 	bl	800c97c <__aeabi_cdrcmple>
 800c9e0:	bf94      	ite	ls
 800c9e2:	2001      	movls	r0, #1
 800c9e4:	2000      	movhi	r0, #0
 800c9e6:	f85d fb08 	ldr.w	pc, [sp], #8
 800c9ea:	bf00      	nop

0800c9ec <__aeabi_dcmpgt>:
 800c9ec:	f84d ed08 	str.w	lr, [sp, #-8]!
 800c9f0:	f7ff ffc4 	bl	800c97c <__aeabi_cdrcmple>
 800c9f4:	bf34      	ite	cc
 800c9f6:	2001      	movcc	r0, #1
 800c9f8:	2000      	movcs	r0, #0
 800c9fa:	f85d fb08 	ldr.w	pc, [sp], #8
 800c9fe:	bf00      	nop

0800ca00 <__aeabi_dcmpun>:
 800ca00:	ea4f 0c41 	mov.w	ip, r1, lsl #1
 800ca04:	ea7f 5c6c 	mvns.w	ip, ip, asr #21
 800ca08:	d102      	bne.n	800ca10 <__aeabi_dcmpun+0x10>
 800ca0a:	ea50 3c01 	orrs.w	ip, r0, r1, lsl #12
 800ca0e:	d10a      	bne.n	800ca26 <__aeabi_dcmpun+0x26>
 800ca10:	ea4f 0c43 	mov.w	ip, r3, lsl #1
 800ca14:	ea7f 5c6c 	mvns.w	ip, ip, asr #21
 800ca18:	d102      	bne.n	800ca20 <__aeabi_dcmpun+0x20>
 800ca1a:	ea52 3c03 	orrs.w	ip, r2, r3, lsl #12
 800ca1e:	d102      	bne.n	800ca26 <__aeabi_dcmpun+0x26>
 800ca20:	f04f 0000 	mov.w	r0, #0
 800ca24:	4770      	bx	lr
 800ca26:	f04f 0001 	mov.w	r0, #1
 800ca2a:	4770      	bx	lr
 800ca2c:	0000      	movs	r0, r0
	...

0800ca30 <__aeabi_d2iz>:
 800ca30:	ea4f 0241 	mov.w	r2, r1, lsl #1
 800ca34:	f512 1200 	adds.w	r2, r2, #2097152	; 0x200000
 800ca38:	d215      	bcs.n	800ca66 <__aeabi_d2iz+0x36>
 800ca3a:	d511      	bpl.n	800ca60 <__aeabi_d2iz+0x30>
 800ca3c:	f46f 7378 	mvn.w	r3, #992	; 0x3e0
 800ca40:	ebb3 5262 	subs.w	r2, r3, r2, asr #21
 800ca44:	d912      	bls.n	800ca6c <__aeabi_d2iz+0x3c>
 800ca46:	ea4f 23c1 	mov.w	r3, r1, lsl #11
 800ca4a:	f043 4300 	orr.w	r3, r3, #2147483648	; 0x80000000
 800ca4e:	ea43 5350 	orr.w	r3, r3, r0, lsr #21
 800ca52:	f011 4f00 	tst.w	r1, #2147483648	; 0x80000000
 800ca56:	fa23 f002 	lsr.w	r0, r3, r2
 800ca5a:	bf18      	it	ne
 800ca5c:	4240      	negne	r0, r0
 800ca5e:	4770      	bx	lr
 800ca60:	f04f 0000 	mov.w	r0, #0
 800ca64:	4770      	bx	lr
 800ca66:	ea50 3001 	orrs.w	r0, r0, r1, lsl #12
 800ca6a:	d105      	bne.n	800ca78 <__aeabi_d2iz+0x48>
 800ca6c:	f011 4000 	ands.w	r0, r1, #2147483648	; 0x80000000
 800ca70:	bf08      	it	eq
 800ca72:	f06f 4000 	mvneq.w	r0, #2147483648	; 0x80000000
 800ca76:	4770      	bx	lr
 800ca78:	f04f 0000 	mov.w	r0, #0
 800ca7c:	4770      	bx	lr
 800ca7e:	bf00      	nop

0800ca80 <__aeabi_d2f>:
 800ca80:	ea4f 0241 	mov.w	r2, r1, lsl #1
 800ca84:	f1b2 43e0 	subs.w	r3, r2, #1879048192	; 0x70000000
 800ca88:	bf24      	itt	cs
 800ca8a:	f5b3 1c00 	subscs.w	ip, r3, #2097152	; 0x200000
 800ca8e:	f1dc 5cfe 	rsbscs	ip, ip, #532676608	; 0x1fc00000
 800ca92:	d90d      	bls.n	800cab0 <__aeabi_d2f+0x30>
 800ca94:	f001 4c00 	and.w	ip, r1, #2147483648	; 0x80000000
 800ca98:	ea4f 02c0 	mov.w	r2, r0, lsl #3
 800ca9c:	ea4c 7050 	orr.w	r0, ip, r0, lsr #29
 800caa0:	f1b2 4f00 	cmp.w	r2, #2147483648	; 0x80000000
 800caa4:	eb40 0083 	adc.w	r0, r0, r3, lsl #2
 800caa8:	bf08      	it	eq
 800caaa:	f020 0001 	biceq.w	r0, r0, #1
 800caae:	4770      	bx	lr
 800cab0:	f011 4f80 	tst.w	r1, #1073741824	; 0x40000000
 800cab4:	d121      	bne.n	800cafa <__aeabi_d2f+0x7a>
 800cab6:	f113 7238 	adds.w	r2, r3, #48234496	; 0x2e00000
 800caba:	bfbc      	itt	lt
 800cabc:	f001 4000 	andlt.w	r0, r1, #2147483648	; 0x80000000
 800cac0:	4770      	bxlt	lr
 800cac2:	f441 1180 	orr.w	r1, r1, #1048576	; 0x100000
 800cac6:	ea4f 5252 	mov.w	r2, r2, lsr #21
 800caca:	f1c2 0218 	rsb	r2, r2, #24
 800cace:	f1c2 0c20 	rsb	ip, r2, #32
 800cad2:	fa10 f30c 	lsls.w	r3, r0, ip
 800cad6:	fa20 f002 	lsr.w	r0, r0, r2
 800cada:	bf18      	it	ne
 800cadc:	f040 0001 	orrne.w	r0, r0, #1
 800cae0:	ea4f 23c1 	mov.w	r3, r1, lsl #11
 800cae4:	ea4f 23d3 	mov.w	r3, r3, lsr #11
 800cae8:	fa03 fc0c 	lsl.w	ip, r3, ip
 800caec:	ea40 000c 	orr.w	r0, r0, ip
 800caf0:	fa23 f302 	lsr.w	r3, r3, r2
 800caf4:	ea4f 0343 	mov.w	r3, r3, lsl #1
 800caf8:	e7cc      	b.n	800ca94 <__aeabi_d2f+0x14>
 800cafa:	ea7f 5362 	mvns.w	r3, r2, asr #21
 800cafe:	d107      	bne.n	800cb10 <__aeabi_d2f+0x90>
 800cb00:	ea50 3301 	orrs.w	r3, r0, r1, lsl #12
 800cb04:	bf1e      	ittt	ne
 800cb06:	f04f 40fe 	movne.w	r0, #2130706432	; 0x7f000000
 800cb0a:	f440 0040 	orrne.w	r0, r0, #12582912	; 0xc00000
 800cb0e:	4770      	bxne	lr
 800cb10:	f001 4000 	and.w	r0, r1, #2147483648	; 0x80000000
 800cb14:	f040 40fe 	orr.w	r0, r0, #2130706432	; 0x7f000000
 800cb18:	f440 0000 	orr.w	r0, r0, #8388608	; 0x800000
 800cb1c:	4770      	bx	lr
 800cb1e:	bf00      	nop

0800cb20 <memcpy>:
 800cb20:	4684      	mov	ip, r0
 800cb22:	ea41 0300 	orr.w	r3, r1, r0
 800cb26:	f013 0303 	ands.w	r3, r3, #3
 800cb2a:	d16d      	bne.n	800cc08 <memcpy+0xe8>
 800cb2c:	3a40      	subs	r2, #64	; 0x40
 800cb2e:	d341      	bcc.n	800cbb4 <memcpy+0x94>
 800cb30:	f851 3b04 	ldr.w	r3, [r1], #4
 800cb34:	f840 3b04 	str.w	r3, [r0], #4
 800cb38:	f851 3b04 	ldr.w	r3, [r1], #4
 800cb3c:	f840 3b04 	str.w	r3, [r0], #4
 800cb40:	f851 3b04 	ldr.w	r3, [r1], #4
 800cb44:	f840 3b04 	str.w	r3, [r0], #4
 800cb48:	f851 3b04 	ldr.w	r3, [r1], #4
 800cb4c:	f840 3b04 	str.w	r3, [r0], #4
 800cb50:	f851 3b04 	ldr.w	r3, [r1], #4
 800cb54:	f840 3b04 	str.w	r3, [r0], #4
 800cb58:	f851 3b04 	ldr.w	r3, [r1], #4
 800cb5c:	f840 3b04 	str.w	r3, [r0], #4
 800cb60:	f851 3b04 	ldr.w	r3, [r1], #4
 800cb64:	f840 3b04 	str.w	r3, [r0], #4
 800cb68:	f851 3b04 	ldr.w	r3, [r1], #4
 800cb6c:	f840 3b04 	str.w	r3, [r0], #4
 800cb70:	f851 3b04 	ldr.w	r3, [r1], #4
 800cb74:	f840 3b04 	str.w	r3, [r0], #4
 800cb78:	f851 3b04 	ldr.w	r3, [r1], #4
 800cb7c:	f840 3b04 	str.w	r3, [r0], #4
 800cb80:	f851 3b04 	ldr.w	r3, [r1], #4
 800cb84:	f840 3b04 	str.w	r3, [r0], #4
 800cb88:	f851 3b04 	ldr.w	r3, [r1], #4
 800cb8c:	f840 3b04 	str.w	r3, [r0], #4
 800cb90:	f851 3b04 	ldr.w	r3, [r1], #4
 800cb94:	f840 3b04 	str.w	r3, [r0], #4
 800cb98:	f851 3b04 	ldr.w	r3, [r1], #4
 800cb9c:	f840 3b04 	str.w	r3, [r0], #4
 800cba0:	f851 3b04 	ldr.w	r3, [r1], #4
 800cba4:	f840 3b04 	str.w	r3, [r0], #4
 800cba8:	f851 3b04 	ldr.w	r3, [r1], #4
 800cbac:	f840 3b04 	str.w	r3, [r0], #4
 800cbb0:	3a40      	subs	r2, #64	; 0x40
 800cbb2:	d2bd      	bcs.n	800cb30 <memcpy+0x10>
 800cbb4:	3230      	adds	r2, #48	; 0x30
 800cbb6:	d311      	bcc.n	800cbdc <memcpy+0xbc>
 800cbb8:	f851 3b04 	ldr.w	r3, [r1], #4
 800cbbc:	f840 3b04 	str.w	r3, [r0], #4
 800cbc0:	f851 3b04 	ldr.w	r3, [r1], #4
 800cbc4:	f840 3b04 	str.w	r3, [r0], #4
 800cbc8:	f851 3b04 	ldr.w	r3, [r1], #4
 800cbcc:	f840 3b04 	str.w	r3, [r0], #4
 800cbd0:	f851 3b04 	ldr.w	r3, [r1], #4
 800cbd4:	f840 3b04 	str.w	r3, [r0], #4
 800cbd8:	3a10      	subs	r2, #16
 800cbda:	d2ed      	bcs.n	800cbb8 <memcpy+0x98>
 800cbdc:	320c      	adds	r2, #12
 800cbde:	d305      	bcc.n	800cbec <memcpy+0xcc>
 800cbe0:	f851 3b04 	ldr.w	r3, [r1], #4
 800cbe4:	f840 3b04 	str.w	r3, [r0], #4
 800cbe8:	3a04      	subs	r2, #4
 800cbea:	d2f9      	bcs.n	800cbe0 <memcpy+0xc0>
 800cbec:	3204      	adds	r2, #4
 800cbee:	d008      	beq.n	800cc02 <memcpy+0xe2>
 800cbf0:	07d2      	lsls	r2, r2, #31
 800cbf2:	bf1c      	itt	ne
 800cbf4:	f811 3b01 	ldrbne.w	r3, [r1], #1
 800cbf8:	f800 3b01 	strbne.w	r3, [r0], #1
 800cbfc:	d301      	bcc.n	800cc02 <memcpy+0xe2>
 800cbfe:	880b      	ldrh	r3, [r1, #0]
 800cc00:	8003      	strh	r3, [r0, #0]
 800cc02:	4660      	mov	r0, ip
 800cc04:	4770      	bx	lr
 800cc06:	bf00      	nop
 800cc08:	2a08      	cmp	r2, #8
 800cc0a:	d313      	bcc.n	800cc34 <memcpy+0x114>
 800cc0c:	078b      	lsls	r3, r1, #30
 800cc0e:	d08d      	beq.n	800cb2c <memcpy+0xc>
 800cc10:	f010 0303 	ands.w	r3, r0, #3
 800cc14:	d08a      	beq.n	800cb2c <memcpy+0xc>
 800cc16:	f1c3 0304 	rsb	r3, r3, #4
 800cc1a:	1ad2      	subs	r2, r2, r3
 800cc1c:	07db      	lsls	r3, r3, #31
 800cc1e:	bf1c      	itt	ne
 800cc20:	f811 3b01 	ldrbne.w	r3, [r1], #1
 800cc24:	f800 3b01 	strbne.w	r3, [r0], #1
 800cc28:	d380      	bcc.n	800cb2c <memcpy+0xc>
 800cc2a:	f831 3b02 	ldrh.w	r3, [r1], #2
 800cc2e:	f820 3b02 	strh.w	r3, [r0], #2
 800cc32:	e77b      	b.n	800cb2c <memcpy+0xc>
 800cc34:	3a04      	subs	r2, #4
 800cc36:	d3d9      	bcc.n	800cbec <memcpy+0xcc>
 800cc38:	3a01      	subs	r2, #1
 800cc3a:	f811 3b01 	ldrb.w	r3, [r1], #1
 800cc3e:	f800 3b01 	strb.w	r3, [r0], #1
 800cc42:	d2f9      	bcs.n	800cc38 <memcpy+0x118>
 800cc44:	780b      	ldrb	r3, [r1, #0]
 800cc46:	7003      	strb	r3, [r0, #0]
 800cc48:	784b      	ldrb	r3, [r1, #1]
 800cc4a:	7043      	strb	r3, [r0, #1]
 800cc4c:	788b      	ldrb	r3, [r1, #2]
 800cc4e:	7083      	strb	r3, [r0, #2]
 800cc50:	4660      	mov	r0, ip
 800cc52:	4770      	bx	lr
	...
 800cc60:	eba2 0003 	sub.w	r0, r2, r3
 800cc64:	4770      	bx	lr
 800cc66:	bf00      	nop

0800cc68 <strcmp>:
 800cc68:	7802      	ldrb	r2, [r0, #0]
 800cc6a:	780b      	ldrb	r3, [r1, #0]
 800cc6c:	2a01      	cmp	r2, #1
 800cc6e:	bf28      	it	cs
 800cc70:	429a      	cmpcs	r2, r3
 800cc72:	d1f5      	bne.n	800cc60 <memcpy+0x140>
 800cc74:	e96d 4504 	strd	r4, r5, [sp, #-16]!
 800cc78:	ea40 0401 	orr.w	r4, r0, r1
 800cc7c:	e9cd 6702 	strd	r6, r7, [sp, #8]
 800cc80:	f06f 0c00 	mvn.w	ip, #0
 800cc84:	ea4f 7244 	mov.w	r2, r4, lsl #29
 800cc88:	b312      	cbz	r2, 800ccd0 <strcmp+0x68>
 800cc8a:	ea80 0401 	eor.w	r4, r0, r1
 800cc8e:	f014 0f07 	tst.w	r4, #7
 800cc92:	d16a      	bne.n	800cd6a <strcmp+0x102>
 800cc94:	f000 0407 	and.w	r4, r0, #7
 800cc98:	f020 0007 	bic.w	r0, r0, #7
 800cc9c:	f004 0503 	and.w	r5, r4, #3
 800cca0:	f021 0107 	bic.w	r1, r1, #7
 800cca4:	ea4f 05c5 	mov.w	r5, r5, lsl #3
 800cca8:	e8f0 2304 	ldrd	r2, r3, [r0], #16
 800ccac:	f014 0f04 	tst.w	r4, #4
 800ccb0:	e8f1 6704 	ldrd	r6, r7, [r1], #16
 800ccb4:	fa0c f405 	lsl.w	r4, ip, r5
 800ccb8:	ea62 0204 	orn	r2, r2, r4
 800ccbc:	ea66 0604 	orn	r6, r6, r4
 800ccc0:	d00a      	beq.n	800ccd8 <strcmp+0x70>
 800ccc2:	ea63 0304 	orn	r3, r3, r4
 800ccc6:	4662      	mov	r2, ip
 800ccc8:	ea67 0704 	orn	r7, r7, r4
 800cccc:	4666      	mov	r6, ip
 800ccce:	e003      	b.n	800ccd8 <strcmp+0x70>
 800ccd0:	e8f0 2304 	ldrd	r2, r3, [r0], #16
 800ccd4:	e8f1 6704 	ldrd	r6, r7, [r1], #16
 800ccd8:	fa82 f54c 	uadd8	r5, r2, ip
 800ccdc:	ea82 0406 	eor.w	r4, r2, r6
 800cce0:	faa4 f48c 	sel	r4, r4, ip
 800cce4:	bb6c      	cbnz	r4, 800cd42 <strcmp+0xda>
 800cce6:	fa83 f54c 	uadd8	r5, r3, ip
 800ccea:	ea83 0507 	eor.w	r5, r3, r7
 800ccee:	faa5 f58c 	sel	r5, r5, ip
 800ccf2:	b995      	cbnz	r5, 800cd1a <strcmp+0xb2>
 800ccf4:	e950 2302 	ldrd	r2, r3, [r0, #-8]
 800ccf8:	e951 6702 	ldrd	r6, r7, [r1, #-8]
 800ccfc:	fa82 f54c 	uadd8	r5, r2, ip
 800cd00:	ea82 0406 	eor.w	r4, r2, r6
 800cd04:	faa4 f48c 	sel	r4, r4, ip
 800cd08:	fa83 f54c 	uadd8	r5, r3, ip
 800cd0c:	ea83 0507 	eor.w	r5, r3, r7
 800cd10:	faa5 f58c 	sel	r5, r5, ip
 800cd14:	4325      	orrs	r5, r4
 800cd16:	d0db      	beq.n	800ccd0 <strcmp+0x68>
 800cd18:	b99c      	cbnz	r4, 800cd42 <strcmp+0xda>
 800cd1a:	ba2d      	rev	r5, r5
 800cd1c:	fab5 f485 	clz	r4, r5
 800cd20:	f024 0407 	bic.w	r4, r4, #7
 800cd24:	fa27 f104 	lsr.w	r1, r7, r4
 800cd28:	e9dd 6702 	ldrd	r6, r7, [sp, #8]
 800cd2c:	fa23 f304 	lsr.w	r3, r3, r4
 800cd30:	f003 00ff 	and.w	r0, r3, #255	; 0xff
 800cd34:	f001 01ff 	and.w	r1, r1, #255	; 0xff
 800cd38:	e8fd 4504 	ldrd	r4, r5, [sp], #16
 800cd3c:	eba0 0001 	sub.w	r0, r0, r1
 800cd40:	4770      	bx	lr
 800cd42:	ba24      	rev	r4, r4
 800cd44:	fab4 f484 	clz	r4, r4
 800cd48:	f024 0407 	bic.w	r4, r4, #7
 800cd4c:	fa26 f104 	lsr.w	r1, r6, r4
 800cd50:	e9dd 6702 	ldrd	r6, r7, [sp, #8]
 800cd54:	fa22 f204 	lsr.w	r2, r2, r4
 800cd58:	f002 00ff 	and.w	r0, r2, #255	; 0xff
 800cd5c:	f001 01ff 	and.w	r1, r1, #255	; 0xff
 800cd60:	e8fd 4504 	ldrd	r4, r5, [sp], #16
 800cd64:	eba0 0001 	sub.w	r0, r0, r1
 800cd68:	4770      	bx	lr
 800cd6a:	f014 0f03 	tst.w	r4, #3
 800cd6e:	d13c      	bne.n	800cdea <strcmp+0x182>
 800cd70:	f010 0403 	ands.w	r4, r0, #3
 800cd74:	d128      	bne.n	800cdc8 <strcmp+0x160>
 800cd76:	f850 2b08 	ldr.w	r2, [r0], #8
 800cd7a:	f851 3b08 	ldr.w	r3, [r1], #8
 800cd7e:	fa82 f54c 	uadd8	r5, r2, ip
 800cd82:	ea82 0503 	eor.w	r5, r2, r3
 800cd86:	faa5 f58c 	sel	r5, r5, ip
 800cd8a:	b95d      	cbnz	r5, 800cda4 <strcmp+0x13c>
 800cd8c:	f850 2c04 	ldr.w	r2, [r0, #-4]
 800cd90:	f851 3c04 	ldr.w	r3, [r1, #-4]
 800cd94:	fa82 f54c 	uadd8	r5, r2, ip
 800cd98:	ea82 0503 	eor.w	r5, r2, r3
 800cd9c:	faa5 f58c 	sel	r5, r5, ip
 800cda0:	2d00      	cmp	r5, #0
 800cda2:	d0e8      	beq.n	800cd76 <strcmp+0x10e>
 800cda4:	ba2d      	rev	r5, r5
 800cda6:	fab5 f485 	clz	r4, r5
 800cdaa:	f024 0407 	bic.w	r4, r4, #7
 800cdae:	fa23 f104 	lsr.w	r1, r3, r4
 800cdb2:	fa22 f204 	lsr.w	r2, r2, r4
 800cdb6:	f002 00ff 	and.w	r0, r2, #255	; 0xff
 800cdba:	f001 01ff 	and.w	r1, r1, #255	; 0xff
 800cdbe:	e8fd 4504 	ldrd	r4, r5, [sp], #16
 800cdc2:	eba0 0001 	sub.w	r0, r0, r1
 800cdc6:	4770      	bx	lr
 800cdc8:	ea4f 04c4 	mov.w	r4, r4, lsl #3
 800cdcc:	f020 0003 	bic.w	r0, r0, #3
 800cdd0:	f850 2b08 	ldr.w	r2, [r0], #8
 800cdd4:	f021 0103 	bic.w	r1, r1, #3
 800cdd8:	f851 3b08 	ldr.w	r3, [r1], #8
 800cddc:	fa0c f404 	lsl.w	r4, ip, r4
 800cde0:	ea62 0204 	orn	r2, r2, r4
 800cde4:	ea63 0304 	orn	r3, r3, r4
 800cde8:	e7c9      	b.n	800cd7e <strcmp+0x116>
 800cdea:	f010 0403 	ands.w	r4, r0, #3
 800cdee:	d01a      	beq.n	800ce26 <strcmp+0x1be>
 800cdf0:	eba1 0104 	sub.w	r1, r1, r4
 800cdf4:	f020 0003 	bic.w	r0, r0, #3
 800cdf8:	07e4      	lsls	r4, r4, #31
 800cdfa:	f850 2b04 	ldr.w	r2, [r0], #4
 800cdfe:	d006      	beq.n	800ce0e <strcmp+0x1a6>
 800ce00:	d20f      	bcs.n	800ce22 <strcmp+0x1ba>
 800ce02:	788b      	ldrb	r3, [r1, #2]
 800ce04:	fa5f f4a2 	uxtb.w	r4, r2, ror #16
 800ce08:	1ae4      	subs	r4, r4, r3
 800ce0a:	d106      	bne.n	800ce1a <strcmp+0x1b2>
 800ce0c:	b12b      	cbz	r3, 800ce1a <strcmp+0x1b2>
 800ce0e:	78cb      	ldrb	r3, [r1, #3]
 800ce10:	fa5f f4b2 	uxtb.w	r4, r2, ror #24
 800ce14:	1ae4      	subs	r4, r4, r3
 800ce16:	d100      	bne.n	800ce1a <strcmp+0x1b2>
 800ce18:	b91b      	cbnz	r3, 800ce22 <strcmp+0x1ba>
 800ce1a:	4620      	mov	r0, r4
 800ce1c:	f85d 4b10 	ldr.w	r4, [sp], #16
 800ce20:	4770      	bx	lr
 800ce22:	f101 0104 	add.w	r1, r1, #4
 800ce26:	f850 2b04 	ldr.w	r2, [r0], #4
 800ce2a:	07cc      	lsls	r4, r1, #31
 800ce2c:	f021 0103 	bic.w	r1, r1, #3
 800ce30:	f851 3b04 	ldr.w	r3, [r1], #4
 800ce34:	d848      	bhi.n	800cec8 <strcmp+0x260>
 800ce36:	d224      	bcs.n	800ce82 <strcmp+0x21a>
 800ce38:	f022 447f 	bic.w	r4, r2, #4278190080	; 0xff000000
 800ce3c:	fa82 f54c 	uadd8	r5, r2, ip
 800ce40:	ea94 2513 	eors.w	r5, r4, r3, lsr #8
 800ce44:	faa5 f58c 	sel	r5, r5, ip
 800ce48:	d10a      	bne.n	800ce60 <strcmp+0x1f8>
 800ce4a:	b965      	cbnz	r5, 800ce66 <strcmp+0x1fe>
 800ce4c:	f851 3b04 	ldr.w	r3, [r1], #4
 800ce50:	ea84 0402 	eor.w	r4, r4, r2
 800ce54:	ebb4 6f03 	cmp.w	r4, r3, lsl #24
 800ce58:	d10e      	bne.n	800ce78 <strcmp+0x210>
 800ce5a:	f850 2b04 	ldr.w	r2, [r0], #4
 800ce5e:	e7eb      	b.n	800ce38 <strcmp+0x1d0>
 800ce60:	ea4f 2313 	mov.w	r3, r3, lsr #8
 800ce64:	e055      	b.n	800cf12 <strcmp+0x2aa>
 800ce66:	f035 457f 	bics.w	r5, r5, #4278190080	; 0xff000000
 800ce6a:	d14d      	bne.n	800cf08 <strcmp+0x2a0>
 800ce6c:	7808      	ldrb	r0, [r1, #0]
 800ce6e:	e8fd 4504 	ldrd	r4, r5, [sp], #16
 800ce72:	f1c0 0000 	rsb	r0, r0, #0
 800ce76:	4770      	bx	lr
 800ce78:	ea4f 6212 	mov.w	r2, r2, lsr #24
 800ce7c:	f003 03ff 	and.w	r3, r3, #255	; 0xff
 800ce80:	e047      	b.n	800cf12 <strcmp+0x2aa>
 800ce82:	ea02 441c 	and.w	r4, r2, ip, lsr #16
 800ce86:	fa82 f54c 	uadd8	r5, r2, ip
 800ce8a:	ea94 4513 	eors.w	r5, r4, r3, lsr #16
 800ce8e:	faa5 f58c 	sel	r5, r5, ip
 800ce92:	d10a      	bne.n	800ceaa <strcmp+0x242>
 800ce94:	b965      	cbnz	r5, 800ceb0 <strcmp+0x248>
 800ce96:	f851 3b04 	ldr.w	r3, [r1], #4
 800ce9a:	ea84 0402 	eor.w	r4, r4, r2
 800ce9e:	ebb4 4f03 	cmp.w	r4, r3, lsl #16
 800cea2:	d10c      	bne.n	800cebe <strcmp+0x256>
 800cea4:	f850 2b04 	ldr.w	r2, [r0], #4
 800cea8:	e7eb      	b.n	800ce82 <strcmp+0x21a>
 800ceaa:	ea4f 4313 	mov.w	r3, r3, lsr #16
 800ceae:	e030      	b.n	800cf12 <strcmp+0x2aa>
 800ceb0:	ea15 451c 	ands.w	r5, r5, ip, lsr #16
 800ceb4:	d128      	bne.n	800cf08 <strcmp+0x2a0>
 800ceb6:	880b      	ldrh	r3, [r1, #0]
 800ceb8:	ea4f 4212 	mov.w	r2, r2, lsr #16
 800cebc:	e029      	b.n	800cf12 <strcmp+0x2aa>
 800cebe:	ea4f 4212 	mov.w	r2, r2, lsr #16
 800cec2:	ea03 431c 	and.w	r3, r3, ip, lsr #16
 800cec6:	e024      	b.n	800cf12 <strcmp+0x2aa>
 800cec8:	f002 04ff 	and.w	r4, r2, #255	; 0xff
 800cecc:	fa82 f54c 	uadd8	r5, r2, ip
 800ced0:	ea94 6513 	eors.w	r5, r4, r3, lsr #24
 800ced4:	faa5 f58c 	sel	r5, r5, ip
 800ced8:	d10a      	bne.n	800cef0 <strcmp+0x288>
 800ceda:	b965      	cbnz	r5, 800cef6 <strcmp+0x28e>
 800cedc:	f851 3b04 	ldr.w	r3, [r1], #4
 800cee0:	ea84 0402 	eor.w	r4, r4, r2
 800cee4:	ebb4 2f03 	cmp.w	r4, r3, lsl #8
 800cee8:	d109      	bne.n	800cefe <strcmp+0x296>
 800ceea:	f850 2b04 	ldr.w	r2, [r0], #4
 800ceee:	e7eb      	b.n	800cec8 <strcmp+0x260>
 800cef0:	ea4f 6313 	mov.w	r3, r3, lsr #24
 800cef4:	e00d      	b.n	800cf12 <strcmp+0x2aa>
 800cef6:	f015 0fff 	tst.w	r5, #255	; 0xff
 800cefa:	d105      	bne.n	800cf08 <strcmp+0x2a0>
 800cefc:	680b      	ldr	r3, [r1, #0]
 800cefe:	ea4f 2212 	mov.w	r2, r2, lsr #8
 800cf02:	f023 437f 	bic.w	r3, r3, #4278190080	; 0xff000000
 800cf06:	e004      	b.n	800cf12 <strcmp+0x2aa>
 800cf08:	f04f 0000 	mov.w	r0, #0
 800cf0c:	e8fd 4504 	ldrd	r4, r5, [sp], #16
 800cf10:	4770      	bx	lr
 800cf12:	ba12      	rev	r2, r2
 800cf14:	ba1b      	rev	r3, r3
 800cf16:	fa82 f44c 	uadd8	r4, r2, ip
 800cf1a:	ea82 0403 	eor.w	r4, r2, r3
 800cf1e:	faa4 f58c 	sel	r5, r4, ip
 800cf22:	fab5 f485 	clz	r4, r5
 800cf26:	fa02 f204 	lsl.w	r2, r2, r4
 800cf2a:	fa03 f304 	lsl.w	r3, r3, r4
 800cf2e:	ea4f 6012 	mov.w	r0, r2, lsr #24
 800cf32:	e8fd 4504 	ldrd	r4, r5, [sp], #16
 800cf36:	eba0 6013 	sub.w	r0, r0, r3, lsr #24
 800cf3a:	4770      	bx	lr
 800cf3c:	0000      	movs	r0, r0
	...

0800cf40 <strlen>:
 800cf40:	f890 f000 	pld	[r0]
 800cf44:	e96d 4502 	strd	r4, r5, [sp, #-8]!
 800cf48:	f020 0107 	bic.w	r1, r0, #7
 800cf4c:	f06f 0c00 	mvn.w	ip, #0
 800cf50:	f010 0407 	ands.w	r4, r0, #7
 800cf54:	f891 f020 	pld	[r1, #32]
 800cf58:	f040 8049 	bne.w	800cfee <strlen+0xae>
 800cf5c:	f04f 0400 	mov.w	r4, #0
 800cf60:	f06f 0007 	mvn.w	r0, #7
 800cf64:	e9d1 2300 	ldrd	r2, r3, [r1]
 800cf68:	f891 f040 	pld	[r1, #64]	; 0x40
 800cf6c:	f100 0008 	add.w	r0, r0, #8
 800cf70:	fa82 f24c 	uadd8	r2, r2, ip
 800cf74:	faa4 f28c 	sel	r2, r4, ip
 800cf78:	fa83 f34c 	uadd8	r3, r3, ip
 800cf7c:	faa2 f38c 	sel	r3, r2, ip
 800cf80:	bb4b      	cbnz	r3, 800cfd6 <strlen+0x96>
 800cf82:	e9d1 2302 	ldrd	r2, r3, [r1, #8]
 800cf86:	fa82 f24c 	uadd8	r2, r2, ip
 800cf8a:	f100 0008 	add.w	r0, r0, #8
 800cf8e:	faa4 f28c 	sel	r2, r4, ip
 800cf92:	fa83 f34c 	uadd8	r3, r3, ip
 800cf96:	faa2 f38c 	sel	r3, r2, ip
 800cf9a:	b9e3      	cbnz	r3, 800cfd6 <strlen+0x96>
 800cf9c:	e9d1 2304 	ldrd	r2, r3, [r1, #16]
 800cfa0:	fa82 f24c 	uadd8	r2, r2, ip
 800cfa4:	f100 0008 	add.w	r0, r0, #8
 800cfa8:	faa4 f28c 	sel	r2, r4, ip
 800cfac:	fa83 f34c 	uadd8	r3, r3, ip
 800cfb0:	faa2 f38c 	sel	r3, r2, ip
 800cfb4:	b97b      	cbnz	r3, 800cfd6 <strlen+0x96>
 800cfb6:	e9d1 2306 	ldrd	r2, r3, [r1, #24]
 800cfba:	f101 0120 	add.w	r1, r1, #32
 800cfbe:	fa82 f24c 	uadd8	r2, r2, ip
 800cfc2:	f100 0008 	add.w	r0, r0, #8
 800cfc6:	faa4 f28c 	sel	r2, r4, ip
 800cfca:	fa83 f34c 	uadd8	r3, r3, ip
 800cfce:	faa2 f38c 	sel	r3, r2, ip
 800cfd2:	2b00      	cmp	r3, #0
 800cfd4:	d0c6      	beq.n	800cf64 <strlen+0x24>
 800cfd6:	2a00      	cmp	r2, #0
 800cfd8:	bf04      	itt	eq
 800cfda:	3004      	addeq	r0, #4
 800cfdc:	461a      	moveq	r2, r3
 800cfde:	ba12      	rev	r2, r2
 800cfe0:	fab2 f282 	clz	r2, r2
 800cfe4:	e8fd 4502 	ldrd	r4, r5, [sp], #8
 800cfe8:	eb00 00d2 	add.w	r0, r0, r2, lsr #3
 800cfec:	4770      	bx	lr
 800cfee:	e9d1 2300 	ldrd	r2, r3, [r1]
 800cff2:	f004 0503 	and.w	r5, r4, #3
 800cff6:	f1c4 0000 	rsb	r0, r4, #0
 800cffa:	ea4f 05c5 	mov.w	r5, r5, lsl #3
 800cffe:	f014 0f04 	tst.w	r4, #4
 800d002:	f891 f040 	pld	[r1, #64]	; 0x40
 800d006:	fa0c f505 	lsl.w	r5, ip, r5
 800d00a:	ea62 0205 	orn	r2, r2, r5
 800d00e:	bf1c      	itt	ne
 800d010:	ea63 0305 	ornne	r3, r3, r5
 800d014:	4662      	movne	r2, ip
 800d016:	f04f 0400 	mov.w	r4, #0
 800d01a:	e7a9      	b.n	800cf70 <strlen+0x30>
 800d01c:	0000      	movs	r0, r0
	...

0800d020 <memchr>:
 800d020:	f001 01ff 	and.w	r1, r1, #255	; 0xff
 800d024:	2a10      	cmp	r2, #16
 800d026:	db2b      	blt.n	800d080 <memchr+0x60>
 800d028:	f010 0f07 	tst.w	r0, #7
 800d02c:	d008      	beq.n	800d040 <memchr+0x20>
 800d02e:	f810 3b01 	ldrb.w	r3, [r0], #1
 800d032:	3a01      	subs	r2, #1
 800d034:	428b      	cmp	r3, r1
 800d036:	d02d      	beq.n	800d094 <memchr+0x74>
 800d038:	f010 0f07 	tst.w	r0, #7
 800d03c:	b342      	cbz	r2, 800d090 <memchr+0x70>
 800d03e:	d1f6      	bne.n	800d02e <memchr+0xe>
 800d040:	b4f0      	push	{r4, r5, r6, r7}
 800d042:	ea41 2101 	orr.w	r1, r1, r1, lsl #8
 800d046:	ea41 4101 	orr.w	r1, r1, r1, lsl #16
 800d04a:	f022 0407 	bic.w	r4, r2, #7
 800d04e:	f07f 0700 	mvns.w	r7, #0
 800d052:	2300      	movs	r3, #0
 800d054:	e8f0 5602 	ldrd	r5, r6, [r0], #8
 800d058:	3c08      	subs	r4, #8
 800d05a:	ea85 0501 	eor.w	r5, r5, r1
 800d05e:	ea86 0601 	eor.w	r6, r6, r1
 800d062:	fa85 f547 	uadd8	r5, r5, r7
 800d066:	faa3 f587 	sel	r5, r3, r7
 800d06a:	fa86 f647 	uadd8	r6, r6, r7
 800d06e:	faa5 f687 	sel	r6, r5, r7
 800d072:	b98e      	cbnz	r6, 800d098 <memchr+0x78>
 800d074:	d1ee      	bne.n	800d054 <memchr+0x34>
 800d076:	bcf0      	pop	{r4, r5, r6, r7}
 800d078:	f001 01ff 	and.w	r1, r1, #255	; 0xff
 800d07c:	f002 0207 	and.w	r2, r2, #7
 800d080:	b132      	cbz	r2, 800d090 <memchr+0x70>
 800d082:	f810 3b01 	ldrb.w	r3, [r0], #1
 800d086:	3a01      	subs	r2, #1
 800d088:	ea83 0301 	eor.w	r3, r3, r1
 800d08c:	b113      	cbz	r3, 800d094 <memchr+0x74>
 800d08e:	d1f8      	bne.n	800d082 <memchr+0x62>
 800d090:	2000      	movs	r0, #0
 800d092:	4770      	bx	lr
 800d094:	3801      	subs	r0, #1
 800d096:	4770      	bx	lr
 800d098:	2d00      	cmp	r5, #0
 800d09a:	bf06      	itte	eq
 800d09c:	4635      	moveq	r5, r6
 800d09e:	3803      	subeq	r0, #3
 800d0a0:	3807      	subne	r0, #7
 800d0a2:	f015 0f01 	tst.w	r5, #1
 800d0a6:	d107      	bne.n	800d0b8 <memchr+0x98>
 800d0a8:	3001      	adds	r0, #1
 800d0aa:	f415 7f80 	tst.w	r5, #256	; 0x100
 800d0ae:	bf02      	ittt	eq
 800d0b0:	3001      	addeq	r0, #1
 800d0b2:	f415 3fc0 	tsteq.w	r5, #98304	; 0x18000
 800d0b6:	3001      	addeq	r0, #1
 800d0b8:	bcf0      	pop	{r4, r5, r6, r7}
 800d0ba:	3801      	subs	r0, #1
 800d0bc:	4770      	bx	lr
 800d0be:	bf00      	nop

0800d0c0 <__aeabi_d2uiz>:
 800d0c0:	004a      	lsls	r2, r1, #1
 800d0c2:	d211      	bcs.n	800d0e8 <__aeabi_d2uiz+0x28>
 800d0c4:	f512 1200 	adds.w	r2, r2, #2097152	; 0x200000
 800d0c8:	d211      	bcs.n	800d0ee <__aeabi_d2uiz+0x2e>
 800d0ca:	d50d      	bpl.n	800d0e8 <__aeabi_d2uiz+0x28>
 800d0cc:	f46f 7378 	mvn.w	r3, #992	; 0x3e0
 800d0d0:	ebb3 5262 	subs.w	r2, r3, r2, asr #21
 800d0d4:	d40e      	bmi.n	800d0f4 <__aeabi_d2uiz+0x34>
 800d0d6:	ea4f 23c1 	mov.w	r3, r1, lsl #11
 800d0da:	f043 4300 	orr.w	r3, r3, #2147483648	; 0x80000000
 800d0de:	ea43 5350 	orr.w	r3, r3, r0, lsr #21
 800d0e2:	fa23 f002 	lsr.w	r0, r3, r2
 800d0e6:	4770      	bx	lr
 800d0e8:	f04f 0000 	mov.w	r0, #0
 800d0ec:	4770      	bx	lr
 800d0ee:	ea50 3001 	orrs.w	r0, r0, r1, lsl #12
 800d0f2:	d102      	bne.n	800d0fa <__aeabi_d2uiz+0x3a>
 800d0f4:	f04f 30ff 	mov.w	r0, #4294967295
 800d0f8:	4770      	bx	lr
 800d0fa:	f04f 0000 	mov.w	r0, #0
 800d0fe:	4770      	bx	lr

0800d100 <__aeabi_uldivmod>:
 800d100:	b953      	cbnz	r3, 800d118 <__aeabi_uldivmod+0x18>
 800d102:	b94a      	cbnz	r2, 800d118 <__aeabi_uldivmod+0x18>
 800d104:	2900      	cmp	r1, #0
 800d106:	bf08      	it	eq
 800d108:	2800      	cmpeq	r0, #0
 800d10a:	bf1c      	itt	ne
 800d10c:	f04f 31ff 	movne.w	r1, #4294967295
 800d110:	f04f 30ff 	movne.w	r0, #4294967295
 800d114:	f000 b974 	b.w	800d400 <__aeabi_idiv0>
 800d118:	f1ad 0c08 	sub.w	ip, sp, #8
 800d11c:	e96d ce04 	strd	ip, lr, [sp, #-16]!
 800d120:	f000 f806 	bl	800d130 <__udivmoddi4>
 800d124:	f8dd e004 	ldr.w	lr, [sp, #4]
 800d128:	e9dd 2302 	ldrd	r2, r3, [sp, #8]
 800d12c:	b004      	add	sp, #16
 800d12e:	4770      	bx	lr

0800d130 <__udivmoddi4>:
 800d130:	e92d 47f0 	stmdb	sp!, {r4, r5, r6, r7, r8, r9, sl, lr}
 800d134:	9e08      	ldr	r6, [sp, #32]
 800d136:	4604      	mov	r4, r0
 800d138:	4688      	mov	r8, r1
 800d13a:	2b00      	cmp	r3, #0
 800d13c:	d14b      	bne.n	800d1d6 <__udivmoddi4+0xa6>
 800d13e:	428a      	cmp	r2, r1
 800d140:	4615      	mov	r5, r2
 800d142:	d967      	bls.n	800d214 <__udivmoddi4+0xe4>
 800d144:	fab2 f282 	clz	r2, r2
 800d148:	b14a      	cbz	r2, 800d15e <__udivmoddi4+0x2e>
 800d14a:	f1c2 0720 	rsb	r7, r2, #32
 800d14e:	fa01 f302 	lsl.w	r3, r1, r2
 800d152:	fa20 f707 	lsr.w	r7, r0, r7
 800d156:	4095      	lsls	r5, r2
 800d158:	ea47 0803 	orr.w	r8, r7, r3
 800d15c:	4094      	lsls	r4, r2
 800d15e:	ea4f 4e15 	mov.w	lr, r5, lsr #16
 800d162:	0c23      	lsrs	r3, r4, #16
 800d164:	fbb8 f7fe 	udiv	r7, r8, lr
 800d168:	fa1f fc85 	uxth.w	ip, r5
 800d16c:	fb0e 8817 	mls	r8, lr, r7, r8
 800d170:	ea43 4308 	orr.w	r3, r3, r8, lsl #16
 800d174:	fb07 f10c 	mul.w	r1, r7, ip
 800d178:	4299      	cmp	r1, r3
 800d17a:	d909      	bls.n	800d190 <__udivmoddi4+0x60>
 800d17c:	18eb      	adds	r3, r5, r3
 800d17e:	f107 30ff 	add.w	r0, r7, #4294967295
 800d182:	f080 811b 	bcs.w	800d3bc <__udivmoddi4+0x28c>
 800d186:	4299      	cmp	r1, r3
 800d188:	f240 8118 	bls.w	800d3bc <__udivmoddi4+0x28c>
 800d18c:	3f02      	subs	r7, #2
 800d18e:	442b      	add	r3, r5
 800d190:	1a5b      	subs	r3, r3, r1
 800d192:	b2a4      	uxth	r4, r4
 800d194:	fbb3 f0fe 	udiv	r0, r3, lr
 800d198:	fb0e 3310 	mls	r3, lr, r0, r3
 800d19c:	ea44 4403 	orr.w	r4, r4, r3, lsl #16
 800d1a0:	fb00 fc0c 	mul.w	ip, r0, ip
 800d1a4:	45a4      	cmp	ip, r4
 800d1a6:	d909      	bls.n	800d1bc <__udivmoddi4+0x8c>
 800d1a8:	192c      	adds	r4, r5, r4
 800d1aa:	f100 33ff 	add.w	r3, r0, #4294967295
 800d1ae:	f080 8107 	bcs.w	800d3c0 <__udivmoddi4+0x290>
 800d1b2:	45a4      	cmp	ip, r4
 800d1b4:	f240 8104 	bls.w	800d3c0 <__udivmoddi4+0x290>
 800d1b8:	3802      	subs	r0, #2
 800d1ba:	442c      	add	r4, r5
 800d1bc:	ea40 4007 	orr.w	r0, r0, r7, lsl #16
 800d1c0:	eba4 040c 	sub.w	r4, r4, ip
 800d1c4:	2700      	movs	r7, #0
 800d1c6:	b11e      	cbz	r6, 800d1d0 <__udivmoddi4+0xa0>
 800d1c8:	40d4      	lsrs	r4, r2
 800d1ca:	2300      	movs	r3, #0
 800d1cc:	e9c6 4300 	strd	r4, r3, [r6]
 800d1d0:	4639      	mov	r1, r7
 800d1d2:	e8bd 87f0 	ldmia.w	sp!, {r4, r5, r6, r7, r8, r9, sl, pc}
 800d1d6:	428b      	cmp	r3, r1
 800d1d8:	d909      	bls.n	800d1ee <__udivmoddi4+0xbe>
 800d1da:	2e00      	cmp	r6, #0
 800d1dc:	f000 80eb 	beq.w	800d3b6 <__udivmoddi4+0x286>
 800d1e0:	2700      	movs	r7, #0
 800d1e2:	e9c6 0100 	strd	r0, r1, [r6]
 800d1e6:	4638      	mov	r0, r7
 800d1e8:	4639      	mov	r1, r7
 800d1ea:	e8bd 87f0 	ldmia.w	sp!, {r4, r5, r6, r7, r8, r9, sl, pc}
 800d1ee:	fab3 f783 	clz	r7, r3
 800d1f2:	2f00      	cmp	r7, #0
 800d1f4:	d147      	bne.n	800d286 <__udivmoddi4+0x156>
 800d1f6:	428b      	cmp	r3, r1
 800d1f8:	d302      	bcc.n	800d200 <__udivmoddi4+0xd0>
 800d1fa:	4282      	cmp	r2, r0
 800d1fc:	f200 80fa 	bhi.w	800d3f4 <__udivmoddi4+0x2c4>
 800d200:	1a84      	subs	r4, r0, r2
 800d202:	eb61 0303 	sbc.w	r3, r1, r3
 800d206:	2001      	movs	r0, #1
 800d208:	4698      	mov	r8, r3
 800d20a:	2e00      	cmp	r6, #0
 800d20c:	d0e0      	beq.n	800d1d0 <__udivmoddi4+0xa0>
 800d20e:	e9c6 4800 	strd	r4, r8, [r6]
 800d212:	e7dd      	b.n	800d1d0 <__udivmoddi4+0xa0>
 800d214:	b902      	cbnz	r2, 800d218 <__udivmoddi4+0xe8>
 800d216:	deff      	udf	#255	; 0xff
 800d218:	fab2 f282 	clz	r2, r2
 800d21c:	2a00      	cmp	r2, #0
 800d21e:	f040 808f 	bne.w	800d340 <__udivmoddi4+0x210>
 800d222:	1b49      	subs	r1, r1, r5
 800d224:	ea4f 4e15 	mov.w	lr, r5, lsr #16
 800d228:	fa1f f885 	uxth.w	r8, r5
 800d22c:	2701      	movs	r7, #1
 800d22e:	fbb1 fcfe 	udiv	ip, r1, lr
 800d232:	0c23      	lsrs	r3, r4, #16
 800d234:	fb0e 111c 	mls	r1, lr, ip, r1
 800d238:	ea43 4301 	orr.w	r3, r3, r1, lsl #16
 800d23c:	fb08 f10c 	mul.w	r1, r8, ip
 800d240:	4299      	cmp	r1, r3
 800d242:	d907      	bls.n	800d254 <__udivmoddi4+0x124>
 800d244:	18eb      	adds	r3, r5, r3
 800d246:	f10c 30ff 	add.w	r0, ip, #4294967295
 800d24a:	d202      	bcs.n	800d252 <__udivmoddi4+0x122>
 800d24c:	4299      	cmp	r1, r3
 800d24e:	f200 80cd 	bhi.w	800d3ec <__udivmoddi4+0x2bc>
 800d252:	4684      	mov	ip, r0
 800d254:	1a59      	subs	r1, r3, r1
 800d256:	b2a3      	uxth	r3, r4
 800d258:	fbb1 f0fe 	udiv	r0, r1, lr
 800d25c:	fb0e 1410 	mls	r4, lr, r0, r1
 800d260:	ea43 4404 	orr.w	r4, r3, r4, lsl #16
 800d264:	fb08 f800 	mul.w	r8, r8, r0
 800d268:	45a0      	cmp	r8, r4
 800d26a:	d907      	bls.n	800d27c <__udivmoddi4+0x14c>
 800d26c:	192c      	adds	r4, r5, r4
 800d26e:	f100 33ff 	add.w	r3, r0, #4294967295
 800d272:	d202      	bcs.n	800d27a <__udivmoddi4+0x14a>
 800d274:	45a0      	cmp	r8, r4
 800d276:	f200 80b6 	bhi.w	800d3e6 <__udivmoddi4+0x2b6>
 800d27a:	4618      	mov	r0, r3
 800d27c:	eba4 0408 	sub.w	r4, r4, r8
 800d280:	ea40 400c 	orr.w	r0, r0, ip, lsl #16
 800d284:	e79f      	b.n	800d1c6 <__udivmoddi4+0x96>
 800d286:	f1c7 0c20 	rsb	ip, r7, #32
 800d28a:	40bb      	lsls	r3, r7
 800d28c:	fa22 fe0c 	lsr.w	lr, r2, ip
 800d290:	ea4e 0e03 	orr.w	lr, lr, r3
 800d294:	fa01 f407 	lsl.w	r4, r1, r7
 800d298:	fa20 f50c 	lsr.w	r5, r0, ip
 800d29c:	fa21 f30c 	lsr.w	r3, r1, ip
 800d2a0:	ea4f 481e 	mov.w	r8, lr, lsr #16
 800d2a4:	4325      	orrs	r5, r4
 800d2a6:	fbb3 f9f8 	udiv	r9, r3, r8
 800d2aa:	0c2c      	lsrs	r4, r5, #16
 800d2ac:	fb08 3319 	mls	r3, r8, r9, r3
 800d2b0:	fa1f fa8e 	uxth.w	sl, lr
 800d2b4:	ea44 4303 	orr.w	r3, r4, r3, lsl #16
 800d2b8:	fb09 f40a 	mul.w	r4, r9, sl
 800d2bc:	429c      	cmp	r4, r3
 800d2be:	fa02 f207 	lsl.w	r2, r2, r7
 800d2c2:	fa00 f107 	lsl.w	r1, r0, r7
 800d2c6:	d90b      	bls.n	800d2e0 <__udivmoddi4+0x1b0>
 800d2c8:	eb1e 0303 	adds.w	r3, lr, r3
 800d2cc:	f109 30ff 	add.w	r0, r9, #4294967295
 800d2d0:	f080 8087 	bcs.w	800d3e2 <__udivmoddi4+0x2b2>
 800d2d4:	429c      	cmp	r4, r3
 800d2d6:	f240 8084 	bls.w	800d3e2 <__udivmoddi4+0x2b2>
 800d2da:	f1a9 0902 	sub.w	r9, r9, #2
 800d2de:	4473      	add	r3, lr
 800d2e0:	1b1b      	subs	r3, r3, r4
 800d2e2:	b2ad      	uxth	r5, r5
 800d2e4:	fbb3 f0f8 	udiv	r0, r3, r8
 800d2e8:	fb08 3310 	mls	r3, r8, r0, r3
 800d2ec:	ea45 4403 	orr.w	r4, r5, r3, lsl #16
 800d2f0:	fb00 fa0a 	mul.w	sl, r0, sl
 800d2f4:	45a2      	cmp	sl, r4
 800d2f6:	d908      	bls.n	800d30a <__udivmoddi4+0x1da>
 800d2f8:	eb1e 0404 	adds.w	r4, lr, r4
 800d2fc:	f100 33ff 	add.w	r3, r0, #4294967295
 800d300:	d26b      	bcs.n	800d3da <__udivmoddi4+0x2aa>
 800d302:	45a2      	cmp	sl, r4
 800d304:	d969      	bls.n	800d3da <__udivmoddi4+0x2aa>
 800d306:	3802      	subs	r0, #2
 800d308:	4474      	add	r4, lr
 800d30a:	ea40 4009 	orr.w	r0, r0, r9, lsl #16
 800d30e:	fba0 8902 	umull	r8, r9, r0, r2
 800d312:	eba4 040a 	sub.w	r4, r4, sl
 800d316:	454c      	cmp	r4, r9
 800d318:	46c2      	mov	sl, r8
 800d31a:	464b      	mov	r3, r9
 800d31c:	d354      	bcc.n	800d3c8 <__udivmoddi4+0x298>
 800d31e:	d051      	beq.n	800d3c4 <__udivmoddi4+0x294>
 800d320:	2e00      	cmp	r6, #0
 800d322:	d069      	beq.n	800d3f8 <__udivmoddi4+0x2c8>
 800d324:	ebb1 050a 	subs.w	r5, r1, sl
 800d328:	eb64 0403 	sbc.w	r4, r4, r3
 800d32c:	fa04 fc0c 	lsl.w	ip, r4, ip
 800d330:	40fd      	lsrs	r5, r7
 800d332:	40fc      	lsrs	r4, r7
 800d334:	ea4c 0505 	orr.w	r5, ip, r5
 800d338:	e9c6 5400 	strd	r5, r4, [r6]
 800d33c:	2700      	movs	r7, #0
 800d33e:	e747      	b.n	800d1d0 <__udivmoddi4+0xa0>
 800d340:	f1c2 0320 	rsb	r3, r2, #32
 800d344:	fa20 f703 	lsr.w	r7, r0, r3
 800d348:	4095      	lsls	r5, r2
 800d34a:	fa01 f002 	lsl.w	r0, r1, r2
 800d34e:	fa21 f303 	lsr.w	r3, r1, r3
 800d352:	ea4f 4e15 	mov.w	lr, r5, lsr #16
 800d356:	4338      	orrs	r0, r7
 800d358:	0c01      	lsrs	r1, r0, #16
 800d35a:	fbb3 f7fe 	udiv	r7, r3, lr
 800d35e:	fa1f f885 	uxth.w	r8, r5
 800d362:	fb0e 3317 	mls	r3, lr, r7, r3
 800d366:	ea41 4103 	orr.w	r1, r1, r3, lsl #16
 800d36a:	fb07 f308 	mul.w	r3, r7, r8
 800d36e:	428b      	cmp	r3, r1
 800d370:	fa04 f402 	lsl.w	r4, r4, r2
 800d374:	d907      	bls.n	800d386 <__udivmoddi4+0x256>
 800d376:	1869      	adds	r1, r5, r1
 800d378:	f107 3cff 	add.w	ip, r7, #4294967295
 800d37c:	d22f      	bcs.n	800d3de <__udivmoddi4+0x2ae>
 800d37e:	428b      	cmp	r3, r1
 800d380:	d92d      	bls.n	800d3de <__udivmoddi4+0x2ae>
 800d382:	3f02      	subs	r7, #2
 800d384:	4429      	add	r1, r5
 800d386:	1acb      	subs	r3, r1, r3
 800d388:	b281      	uxth	r1, r0
 800d38a:	fbb3 f0fe 	udiv	r0, r3, lr
 800d38e:	fb0e 3310 	mls	r3, lr, r0, r3
 800d392:	ea41 4103 	orr.w	r1, r1, r3, lsl #16
 800d396:	fb00 f308 	mul.w	r3, r0, r8
 800d39a:	428b      	cmp	r3, r1
 800d39c:	d907      	bls.n	800d3ae <__udivmoddi4+0x27e>
 800d39e:	1869      	adds	r1, r5, r1
 800d3a0:	f100 3cff 	add.w	ip, r0, #4294967295
 800d3a4:	d217      	bcs.n	800d3d6 <__udivmoddi4+0x2a6>
 800d3a6:	428b      	cmp	r3, r1
 800d3a8:	d915      	bls.n	800d3d6 <__udivmoddi4+0x2a6>
 800d3aa:	3802      	subs	r0, #2
 800d3ac:	4429      	add	r1, r5
 800d3ae:	1ac9      	subs	r1, r1, r3
 800d3b0:	ea40 4707 	orr.w	r7, r0, r7, lsl #16
 800d3b4:	e73b      	b.n	800d22e <__udivmoddi4+0xfe>
 800d3b6:	4637      	mov	r7, r6
 800d3b8:	4630      	mov	r0, r6
 800d3ba:	e709      	b.n	800d1d0 <__udivmoddi4+0xa0>
 800d3bc:	4607      	mov	r7, r0
 800d3be:	e6e7      	b.n	800d190 <__udivmoddi4+0x60>
 800d3c0:	4618      	mov	r0, r3
 800d3c2:	e6fb      	b.n	800d1bc <__udivmoddi4+0x8c>
 800d3c4:	4541      	cmp	r1, r8
 800d3c6:	d2ab      	bcs.n	800d320 <__udivmoddi4+0x1f0>
 800d3c8:	ebb8 0a02 	subs.w	sl, r8, r2
 800d3cc:	eb69 020e 	sbc.w	r2, r9, lr
 800d3d0:	3801      	subs	r0, #1
 800d3d2:	4613      	mov	r3, r2
 800d3d4:	e7a4      	b.n	800d320 <__udivmoddi4+0x1f0>
 800d3d6:	4660      	mov	r0, ip
 800d3d8:	e7e9      	b.n	800d3ae <__udivmoddi4+0x27e>
 800d3da:	4618      	mov	r0, r3
 800d3dc:	e795      	b.n	800d30a <__udivmoddi4+0x1da>
 800d3de:	4667      	mov	r7, ip
 800d3e0:	e7d1      	b.n	800d386 <__udivmoddi4+0x256>
 800d3e2:	4681      	mov	r9, r0
 800d3e4:	e77c      	b.n	800d2e0 <__udivmoddi4+0x1b0>
 800d3e6:	3802      	subs	r0, #2
 800d3e8:	442c      	add	r4, r5
 800d3ea:	e747      	b.n	800d27c <__udivmoddi4+0x14c>
 800d3ec:	f1ac 0c02 	sub.w	ip, ip, #2
 800d3f0:	442b      	add	r3, r5
 800d3f2:	e72f      	b.n	800d254 <__udivmoddi4+0x124>
 800d3f4:	4638      	mov	r0, r7
 800d3f6:	e708      	b.n	800d20a <__udivmoddi4+0xda>
 800d3f8:	4637      	mov	r7, r6
 800d3fa:	e6e9      	b.n	800d1d0 <__udivmoddi4+0xa0>
 800d3fc:	0000      	movs	r0, r0
	...

0800d400 <__aeabi_idiv0>:
 800d400:	4770      	bx	lr
 800d402:	bf00      	nop
	...

0800d410 <__core_init>:

#if __CORTEX_M == 7
  SCB_EnableICache();
  SCB_EnableDCache();
#endif
}
 800d410:	4770      	bx	lr
 800d412:	bf00      	nop
	...

0800d420 <__late_init>:
 */
#if !defined(__DOXYGEN__)
__attribute__((weak))
#endif
/*lint -save -e9075 [8.4] All symbols are invoked from asm context.*/
void __late_init(void) {}
 800d420:	4770      	bx	lr
 800d422:	bf00      	nop
	...

0800d430 <__default_exit>:
 */
#if !defined(__DOXYGEN__)
__attribute__((noreturn, weak))
#endif
/*lint -save -e9075 [8.4] All symbols are invoked from asm context.*/
void __default_exit(void) {
 800d430:	e7fe      	b.n	800d430 <__default_exit>
 800d432:	bf00      	nop
	...

0800d440 <_unhandled_exception>:
 *          This function simply stops the system into an infinite loop.
 *
 * @notapi
 */
/*lint -save -e9075 [8.4] All symbols are invoked from asm context.*/
void _unhandled_exception(void) {
 800d440:	e7fe      	b.n	800d440 <_unhandled_exception>
 800d442:	bf00      	nop
	...

0800d450 <_idle_thread>:
 *          that this thread is executed only if there are no other ready
 *          threads in the system.
 *
 * @param[in] p         the thread parameter, unused in this scenario
 */
static void _idle_thread(void *p) {
 800d450:	e7fe      	b.n	800d450 <_idle_thread>
 800d452:	bf00      	nop
	...

0800d460 <chSysInit>:
 * @post    The main thread is created with priority @p NORMALPRIO and
 *          interrupts are enabled.
 *
 * @special
 */
void chSysInit(void) {
 800d460:	b530      	push	{r4, r5, lr}
 800d462:	b083      	sub	sp, #12
 * @brief   Port-related initialization code.
 */
static inline void port_init(void) {

  /* Initialization of the vector table and priority related settings.*/
  SCB->VTOR = CORTEX_VTOR_INIT;
 800d464:	4b1f      	ldr	r3, [pc, #124]	; (800d4e4 <chSysInit+0x84>)
 800d466:	2500      	movs	r5, #0
 800d468:	609d      	str	r5, [r3, #8]
__STATIC_INLINE void NVIC_SetPriorityGrouping(uint32_t PriorityGroup)
{
  uint32_t reg_value;
  uint32_t PriorityGroupTmp = (PriorityGroup & (uint32_t)0x07);               /* only values 0..7 are used          */

  reg_value  =  SCB->AIRCR;                                                   /* read old register configuration    */
 800d46a:	68d9      	ldr	r1, [r3, #12]
  reg_value &= ~(SCB_AIRCR_VECTKEY_Msk | SCB_AIRCR_PRIGROUP_Msk);             /* clear bits to change               */
 800d46c:	f421 61e0 	bic.w	r1, r1, #1792	; 0x700
 800d470:	0409      	lsls	r1, r1, #16
 800d472:	0c09      	lsrs	r1, r1, #16
  reg_value  =  (reg_value                                 |
 800d474:	4a1c      	ldr	r2, [pc, #112]	; (800d4e8 <chSysInit+0x88>)
 800d476:	430a      	orrs	r2, r1
                ((uint32_t)0x5FA << SCB_AIRCR_VECTKEY_Pos) |
                (PriorityGroupTmp << 8));                                     /* Insert write key and priorty group */
  SCB->AIRCR =  reg_value;
 800d478:	60da      	str	r2, [r3, #12]

  /* Initializing priority grouping.*/
  NVIC_SetPriorityGrouping(CORTEX_PRIGROUP_INIT);

  /* DWT cycle counter enable.*/
  CoreDebug->DEMCR |= CoreDebug_DEMCR_TRCENA_Msk;
 800d47a:	491c      	ldr	r1, [pc, #112]	; (800d4ec <chSysInit+0x8c>)
 800d47c:	68ca      	ldr	r2, [r1, #12]
 800d47e:	f042 7280 	orr.w	r2, r2, #16777216	; 0x1000000
 800d482:	60ca      	str	r2, [r1, #12]
  DWT->CTRL |= DWT_CTRL_CYCCNTENA_Msk;
 800d484:	491a      	ldr	r1, [pc, #104]	; (800d4f0 <chSysInit+0x90>)
 800d486:	680a      	ldr	r2, [r1, #0]
 800d488:	f042 0201 	orr.w	r2, r2, #1
 800d48c:	600a      	str	r2, [r1, #0]
    \param [in]  priority  Priority to set.
 */
__STATIC_INLINE void NVIC_SetPriority(IRQn_Type IRQn, uint32_t priority)
{
  if(IRQn < 0) {
    SCB->SHP[((uint32_t)(IRQn) & 0xF)-4] = ((priority << (8 - __NVIC_PRIO_BITS)) & 0xff); } /* set Priority for Cortex-M  System Interrupts */
 800d48e:	2210      	movs	r2, #16
 800d490:	77da      	strb	r2, [r3, #31]
 800d492:	2220      	movs	r2, #32
 800d494:	f883 2022 	strb.w	r2, [r3, #34]	; 0x22
#if CH_DBG_ENABLE_STACK_CHECK == TRUE
  extern stkalign_t __main_thread_stack_base__;
#endif

  port_init();
  _scheduler_init();
 800d498:	f000 f8d2 	bl	800d640 <_scheduler_init>
  _vt_init();
 800d49c:	f000 f888 	bl	800d5b0 <_vt_init>
#if CH_CFG_USE_TM == TRUE
  _tm_init();
 800d4a0:	f000 fb06 	bl	800dab0 <_tm_init>
#endif
#if CH_CFG_USE_MEMCORE == TRUE
  _core_init();
 800d4a4:	f000 fd94 	bl	800dfd0 <_core_init>
#endif
#if CH_CFG_USE_HEAP == TRUE
  _heap_init();
 800d4a8:	f000 fde2 	bl	800e070 <_heap_init>
  _dbg_trace_init();
#endif

#if CH_CFG_NO_IDLE_THREAD == FALSE
  /* Now this instructions flow becomes the main thread.*/
  setcurrp(_thread_init(&ch.mainthread, NORMALPRIO));
 800d4ac:	4c11      	ldr	r4, [pc, #68]	; (800d4f4 <chSysInit+0x94>)
 800d4ae:	2140      	movs	r1, #64	; 0x40
 800d4b0:	4620      	mov	r0, r4
 800d4b2:	f000 f9d5 	bl	800d860 <_thread_init>
 800d4b6:	3c30      	subs	r4, #48	; 0x30
 800d4b8:	61a0      	str	r0, [r4, #24]
#else
  /* Now this instructions flow becomes the idle thread.*/
  setcurrp(_thread_init(&ch.mainthread, IDLEPRIO));
#endif

  currp->p_state = CH_STATE_CURRENT;
 800d4ba:	2201      	movs	r2, #1
 800d4bc:	7702      	strb	r2, [r0, #28]

    \param [in]    basePri  Base Priority value to set
 */
__attribute__( ( always_inline ) ) __STATIC_INLINE void __set_BASEPRI(uint32_t value)
{
  __ASM volatile ("MSR basepri, %0" : : "r" (value) : "memory");
 800d4be:	f385 8811 	msr	BASEPRI, r5
  __ASM volatile ("cpsie i" : : : "memory");
 800d4c2:	b662      	cpsie	i
 * @api
 */
static inline void chRegSetThreadName(const char *name) {

#if CH_CFG_USE_REGISTRY == TRUE
  ch.rlist.r_current->p_name = name;
 800d4c4:	69a3      	ldr	r3, [r4, #24]
 800d4c6:	490c      	ldr	r1, [pc, #48]	; (800d4f8 <chSysInit+0x98>)
 800d4c8:	6199      	str	r1, [r3, #24]
#if CH_CFG_NO_IDLE_THREAD == FALSE
  {
  /* This thread has the lowest priority in the system, its role is just to
     serve interrupts in its context while keeping the lowest energy saving
     mode compatible with the system status.*/
    thread_t *tp =  chThdCreateStatic(ch.idle_thread_wa,
 800d4ca:	9500      	str	r5, [sp, #0]
 800d4cc:	4b0b      	ldr	r3, [pc, #44]	; (800d4fc <chSysInit+0x9c>)
 800d4ce:	f44f 71ec 	mov.w	r1, #472	; 0x1d8
 800d4d2:	f104 0080 	add.w	r0, r4, #128	; 0x80
 800d4d6:	f000 fa03 	bl	800d8e0 <chThdCreateStatic>
 * @xclass
 */
static inline void chRegSetThreadNameX(thread_t *tp, const char *name) {

#if CH_CFG_USE_REGISTRY == TRUE
  tp->p_name = name;
 800d4da:	4b09      	ldr	r3, [pc, #36]	; (800d500 <chSysInit+0xa0>)
 800d4dc:	6183      	str	r3, [r0, #24]
                                      (tfunc_t)_idle_thread,
                                      NULL);
    chRegSetThreadNameX(tp, "idle");
  }
#endif
}
 800d4de:	b003      	add	sp, #12
 800d4e0:	bd30      	pop	{r4, r5, pc}
 800d4e2:	bf00      	nop
 800d4e4:	e000ed00 	.word	0xe000ed00
 800d4e8:	05fa0300 	.word	0x05fa0300
 800d4ec:	e000edf0 	.word	0xe000edf0
 800d4f0:	e0001000 	.word	0xe0001000
 800d4f4:	20001a20 	.word	0x20001a20
 800d4f8:	0802c330 	.word	0x0802c330
 800d4fc:	0800d451 	.word	0x0800d451
 800d500:	0802c320 	.word	0x0802c320
	...

0800d510 <chSysHalt>:
  __ASM volatile ("cpsid i" : : : "memory");
 800d510:	b672      	cpsid	i
#if defined(CH_CFG_SYSTEM_HALT_HOOK) || defined(__DOXYGEN__)
  CH_CFG_SYSTEM_HALT_HOOK(reason);
#endif

  /* Pointing to the passed message.*/
  ch.dbg.panic_msg = reason;
 800d512:	4b01      	ldr	r3, [pc, #4]	; (800d518 <chSysHalt+0x8>)
 800d514:	62d8      	str	r0, [r3, #44]	; 0x2c
 800d516:	e7fe      	b.n	800d516 <chSysHalt+0x6>
 800d518:	200019f0 	.word	0x200019f0
 800d51c:	00000000 	.word	0x00000000

0800d520 <chSysTimerHandlerI>:
 *          and, together with the @p CH_CFG_TIME_QUANTUM macro, the round robin
 *          interval.
 *
 * @iclass
 */
void chSysTimerHandlerI(void) {
 800d520:	b5f8      	push	{r3, r4, r5, r6, r7, lr}

  chDbgCheckClassI();

#if CH_CFG_TIME_QUANTUM > 0
  /* Running thread has not used up quantum yet? */
  if (currp->p_preempt > (tslices_t)0) {
 800d522:	4b17      	ldr	r3, [pc, #92]	; (800d580 <chSysTimerHandlerI+0x60>)
 800d524:	699b      	ldr	r3, [r3, #24]
 800d526:	7fda      	ldrb	r2, [r3, #31]
 800d528:	b10a      	cbz	r2, 800d52e <chSysTimerHandlerI+0xe>
    /* Decrement remaining quantum.*/
    currp->p_preempt--;
 800d52a:	3a01      	subs	r2, #1
 800d52c:	77da      	strb	r2, [r3, #31]
  }
#endif
#if CH_DBG_THREADS_PROFILING == TRUE
  currp->p_time++;
 800d52e:	6a1a      	ldr	r2, [r3, #32]
 800d530:	3201      	adds	r2, #1
 800d532:	621a      	str	r2, [r3, #32]
static inline void chVTDoTickI(void) {

  chDbgCheckClassI();

#if CH_CFG_ST_TIMEDELTA == 0
  ch.vtlist.vt_systime++;
 800d534:	4b12      	ldr	r3, [pc, #72]	; (800d580 <chSysTimerHandlerI+0x60>)
 800d536:	6a9a      	ldr	r2, [r3, #40]	; 0x28
 800d538:	3201      	adds	r2, #1
 800d53a:	629a      	str	r2, [r3, #40]	; 0x28
  if (&ch.vtlist != (virtual_timers_list_t *)ch.vtlist.vt_next) {
 800d53c:	f853 2f1c 	ldr.w	r2, [r3, #28]!
 800d540:	429a      	cmp	r2, r3
 800d542:	d01b      	beq.n	800d57c <chSysTimerHandlerI+0x5c>
    /* The list is not empty, processing elements on top.*/
    --ch.vtlist.vt_next->vt_delta;
 800d544:	6893      	ldr	r3, [r2, #8]
 800d546:	3b01      	subs	r3, #1
 800d548:	6093      	str	r3, [r2, #8]
    while (ch.vtlist.vt_next->vt_delta == (systime_t)0) {
 800d54a:	4b0d      	ldr	r3, [pc, #52]	; (800d580 <chSysTimerHandlerI+0x60>)
 800d54c:	69db      	ldr	r3, [r3, #28]
 800d54e:	689a      	ldr	r2, [r3, #8]
 800d550:	b9a2      	cbnz	r2, 800d57c <chSysTimerHandlerI+0x5c>
      virtual_timer_t *vtp;
      vtfunc_t fn;

      vtp = ch.vtlist.vt_next;
      fn = vtp->vt_func;
      vtp->vt_func = NULL;
 800d552:	2600      	movs	r6, #0
      vtp->vt_next->vt_prev = (virtual_timer_t *)&ch.vtlist;
 800d554:	4d0b      	ldr	r5, [pc, #44]	; (800d584 <chSysTimerHandlerI+0x64>)
  __ASM volatile ("MSR basepri, %0" : : "r" (value) : "memory");
 800d556:	2720      	movs	r7, #32
      fn = vtp->vt_func;
 800d558:	68da      	ldr	r2, [r3, #12]
      vtp->vt_func = NULL;
 800d55a:	60de      	str	r6, [r3, #12]
      vtp->vt_next->vt_prev = (virtual_timer_t *)&ch.vtlist;
 800d55c:	6819      	ldr	r1, [r3, #0]
 800d55e:	604d      	str	r5, [r1, #4]
      ch.vtlist.vt_next = vtp->vt_next;
 800d560:	6819      	ldr	r1, [r3, #0]
 800d562:	462c      	mov	r4, r5
 800d564:	f844 191c 	str.w	r1, [r4], #-28
 800d568:	f386 8811 	msr	BASEPRI, r6
      chSysUnlockFromISR();
      fn(vtp->vt_par);
 800d56c:	6918      	ldr	r0, [r3, #16]
 800d56e:	4790      	blx	r2
 800d570:	f387 8811 	msr	BASEPRI, r7
    while (ch.vtlist.vt_next->vt_delta == (systime_t)0) {
 800d574:	69e3      	ldr	r3, [r4, #28]
 800d576:	689a      	ldr	r2, [r3, #8]
 800d578:	2a00      	cmp	r2, #0
 800d57a:	d0ed      	beq.n	800d558 <chSysTimerHandlerI+0x38>
#endif
  chVTDoTickI();
#if defined(CH_CFG_SYSTEM_TICK_HOOK)
  CH_CFG_SYSTEM_TICK_HOOK();
#endif
}
 800d57c:	bdf8      	pop	{r3, r4, r5, r6, r7, pc}
 800d57e:	bf00      	nop
 800d580:	200019f0 	.word	0x200019f0
 800d584:	20001a0c 	.word	0x20001a0c
	...

0800d590 <chSysPolledDelayX>:
 *
 * @return              The realtime counter value.
 */
static inline rtcnt_t port_rt_get_counter_value(void) {

  return DWT->CYCCNT;
 800d590:	4b03      	ldr	r3, [pc, #12]	; (800d5a0 <chSysPolledDelayX+0x10>)
 800d592:	6859      	ldr	r1, [r3, #4]
 800d594:	461a      	mov	r2, r3
 800d596:	6853      	ldr	r3, [r2, #4]
 *
 * @xclass
 */
bool chSysIsCounterWithinX(rtcnt_t cnt, rtcnt_t start, rtcnt_t end) {

  return (bool)((cnt - start) < (end - start));
 800d598:	1a5b      	subs	r3, r3, r1
 */
void chSysPolledDelayX(rtcnt_t cycles) {
  rtcnt_t start = chSysGetRealtimeCounterX();
  rtcnt_t end  = start + cycles;

  while (chSysIsCounterWithinX(chSysGetRealtimeCounterX(), start, end)) {
 800d59a:	4298      	cmp	r0, r3
 800d59c:	d8fb      	bhi.n	800d596 <chSysPolledDelayX+0x6>
  }
}
 800d59e:	4770      	bx	lr
 800d5a0:	e0001000 	.word	0xe0001000
	...

0800d5b0 <_vt_init>:
 *
 * @notapi
 */
void _vt_init(void) {

  ch.vtlist.vt_next = (virtual_timer_t *)&ch.vtlist;
 800d5b0:	4b05      	ldr	r3, [pc, #20]	; (800d5c8 <_vt_init+0x18>)
 800d5b2:	f103 021c 	add.w	r2, r3, #28
 800d5b6:	61da      	str	r2, [r3, #28]
  ch.vtlist.vt_prev = (virtual_timer_t *)&ch.vtlist;
 800d5b8:	621a      	str	r2, [r3, #32]
  ch.vtlist.vt_delta = (systime_t)-1;
 800d5ba:	f04f 32ff 	mov.w	r2, #4294967295
 800d5be:	625a      	str	r2, [r3, #36]	; 0x24
#if CH_CFG_ST_TIMEDELTA == 0
  ch.vtlist.vt_systime = (systime_t)0;
 800d5c0:	2200      	movs	r2, #0
 800d5c2:	629a      	str	r2, [r3, #40]	; 0x28
#else /* CH_CFG_ST_TIMEDELTA > 0 */
  ch.vtlist.vt_lasttime = (systime_t)0;
#endif /* CH_CFG_ST_TIMEDELTA > 0 */
}
 800d5c4:	4770      	bx	lr
 800d5c6:	bf00      	nop
 800d5c8:	200019f0 	.word	0x200019f0
 800d5cc:	00000000 	.word	0x00000000

0800d5d0 <chVTDoSetI>:
  systime_t delta;

  chDbgCheckClassI();
  chDbgCheck((vtp != NULL) && (vtfunc != NULL) && (delay != TIME_IMMEDIATE));

  vtp->vt_par = par;
 800d5d0:	6103      	str	r3, [r0, #16]
  vtp->vt_func = vtfunc;
 800d5d2:	60c2      	str	r2, [r0, #12]
  delta = delay;
#endif /* CH_CFG_ST_TIMEDELTA == 0 */

  /* The delta list is scanned in order to find the correct position for
     this timer. */
  p = ch.vtlist.vt_next;
 800d5d4:	4b0b      	ldr	r3, [pc, #44]	; (800d604 <chVTDoSetI+0x34>)
 800d5d6:	69db      	ldr	r3, [r3, #28]
  while (p->vt_delta < delta) {
 800d5d8:	689a      	ldr	r2, [r3, #8]
 800d5da:	4291      	cmp	r1, r2
 800d5dc:	d904      	bls.n	800d5e8 <chVTDoSetI+0x18>
    delta -= p->vt_delta;
 800d5de:	1a89      	subs	r1, r1, r2
    p = p->vt_next;
 800d5e0:	681b      	ldr	r3, [r3, #0]
  while (p->vt_delta < delta) {
 800d5e2:	689a      	ldr	r2, [r3, #8]
 800d5e4:	428a      	cmp	r2, r1
 800d5e6:	d3fa      	bcc.n	800d5de <chVTDoSetI+0xe>
  }

  /* The timer is inserted in the delta list.*/
  vtp->vt_next = p;
 800d5e8:	6003      	str	r3, [r0, #0]
  vtp->vt_prev = vtp->vt_next->vt_prev;
 800d5ea:	685a      	ldr	r2, [r3, #4]
 800d5ec:	6042      	str	r2, [r0, #4]
  vtp->vt_prev->vt_next = vtp;
 800d5ee:	6010      	str	r0, [r2, #0]
  p->vt_prev = vtp;
 800d5f0:	6058      	str	r0, [r3, #4]
  vtp->vt_delta = delta
 800d5f2:	6081      	str	r1, [r0, #8]

  /* Special case when the timer is in last position in the list, the
     value in the header must be restored.*/;
  p->vt_delta -= delta;
 800d5f4:	689a      	ldr	r2, [r3, #8]
 800d5f6:	1a51      	subs	r1, r2, r1
 800d5f8:	6099      	str	r1, [r3, #8]
  ch.vtlist.vt_delta = (systime_t)-1;
 800d5fa:	4b02      	ldr	r3, [pc, #8]	; (800d604 <chVTDoSetI+0x34>)
 800d5fc:	f04f 32ff 	mov.w	r2, #4294967295
 800d600:	625a      	str	r2, [r3, #36]	; 0x24
}
 800d602:	4770      	bx	lr
 800d604:	200019f0 	.word	0x200019f0
	...

0800d610 <chVTDoResetI>:
  chDbgAssert(vtp->vt_func != NULL, "timer not set or already triggered");

#if CH_CFG_ST_TIMEDELTA == 0

  /* The delta of the timer is added to the next timer.*/
  vtp->vt_next->vt_delta += vtp->vt_delta;
 800d610:	6802      	ldr	r2, [r0, #0]
 800d612:	6893      	ldr	r3, [r2, #8]
 800d614:	6881      	ldr	r1, [r0, #8]
 800d616:	440b      	add	r3, r1
 800d618:	6093      	str	r3, [r2, #8]

 /* Removing the element from the delta list.*/
  vtp->vt_prev->vt_next = vtp->vt_next;
 800d61a:	6843      	ldr	r3, [r0, #4]
 800d61c:	6802      	ldr	r2, [r0, #0]
 800d61e:	601a      	str	r2, [r3, #0]
  vtp->vt_next->vt_prev = vtp->vt_prev;
 800d620:	6803      	ldr	r3, [r0, #0]
 800d622:	6842      	ldr	r2, [r0, #4]
 800d624:	605a      	str	r2, [r3, #4]
  vtp->vt_func = NULL;
 800d626:	2300      	movs	r3, #0
 800d628:	60c3      	str	r3, [r0, #12]

  /* The above code changes the value in the header when the removed element
     is the last of the list, restoring it.*/
  ch.vtlist.vt_delta = (systime_t)-1;
 800d62a:	4b02      	ldr	r3, [pc, #8]	; (800d634 <chVTDoResetI+0x24>)
 800d62c:	f04f 32ff 	mov.w	r2, #4294967295
 800d630:	625a      	str	r2, [r3, #36]	; 0x24
    delta = (systime_t)CH_CFG_ST_TIMEDELTA;
  }

  port_timer_set_alarm(ch.vtlist.vt_lasttime + nowdelta + delta);
#endif /* CH_CFG_ST_TIMEDELTA > 0 */
}
 800d632:	4770      	bx	lr
 800d634:	200019f0 	.word	0x200019f0
	...

0800d640 <_scheduler_init>:
 *
 * @notapi
 */
static inline void queue_init(threads_queue_t *tqp) {

  tqp->p_next = (thread_t *)tqp;
 800d640:	4b03      	ldr	r3, [pc, #12]	; (800d650 <_scheduler_init+0x10>)
 800d642:	601b      	str	r3, [r3, #0]
  tqp->p_prev = (thread_t *)tqp;
 800d644:	605b      	str	r3, [r3, #4]
 * @notapi
 */
void _scheduler_init(void) {

  queue_init(&ch.rlist.r_queue);
  ch.rlist.r_prio = NOPRIO;
 800d646:	2200      	movs	r2, #0
 800d648:	609a      	str	r2, [r3, #8]
#if CH_CFG_USE_REGISTRY == TRUE
  ch.rlist.r_newer = (thread_t *)&ch.rlist;
 800d64a:	611b      	str	r3, [r3, #16]
  ch.rlist.r_older = (thread_t *)&ch.rlist;
 800d64c:	615b      	str	r3, [r3, #20]
#endif
}
 800d64e:	4770      	bx	lr
 800d650:	200019f0 	.word	0x200019f0
	...

0800d660 <chSchReadyI>:
  chDbgCheck(tp != NULL);
  chDbgAssert((tp->p_state != CH_STATE_READY) &&
              (tp->p_state != CH_STATE_FINAL),
              "invalid state");

  tp->p_state = CH_STATE_READY;
 800d660:	2300      	movs	r3, #0
 800d662:	7703      	strb	r3, [r0, #28]
  cp = (thread_t *)&ch.rlist.r_queue;
  do {
    cp = cp->p_next;
  } while (cp->p_prio >= tp->p_prio);
 800d664:	6881      	ldr	r1, [r0, #8]
  cp = (thread_t *)&ch.rlist.r_queue;
 800d666:	4b05      	ldr	r3, [pc, #20]	; (800d67c <chSchReadyI+0x1c>)
    cp = cp->p_next;
 800d668:	681b      	ldr	r3, [r3, #0]
  } while (cp->p_prio >= tp->p_prio);
 800d66a:	689a      	ldr	r2, [r3, #8]
 800d66c:	428a      	cmp	r2, r1
 800d66e:	d2fb      	bcs.n	800d668 <chSchReadyI+0x8>
  /* Insertion on p_prev.*/
  tp->p_next = cp;
 800d670:	6003      	str	r3, [r0, #0]
  tp->p_prev = cp->p_prev;
 800d672:	685a      	ldr	r2, [r3, #4]
 800d674:	6042      	str	r2, [r0, #4]
  tp->p_prev->p_next = tp;
 800d676:	6010      	str	r0, [r2, #0]
  cp->p_prev = tp;
 800d678:	6058      	str	r0, [r3, #4]

  return tp;
}
 800d67a:	4770      	bx	lr
 800d67c:	200019f0 	.word	0x200019f0

0800d680 <wakeup>:
}

/*
 * Timeout wakeup callback.
 */
static void wakeup(void *p) {
 800d680:	b508      	push	{r3, lr}
 800d682:	2320      	movs	r3, #32
 800d684:	f383 8811 	msr	BASEPRI, r3
  thread_t *tp = (thread_t *)p;

  chSysLockFromISR();
  switch (tp->p_state) {
 800d688:	7f03      	ldrb	r3, [r0, #28]
 800d68a:	2b07      	cmp	r3, #7
 800d68c:	d817      	bhi.n	800d6be <wakeup+0x3e>
 800d68e:	e8df f003 	tbb	[pc, r3]
 800d692:	1604      	.short	0x1604
 800d694:	0c100816 	.word	0x0c100816
 800d698:	1016      	.short	0x1016
 800d69a:	2300      	movs	r3, #0
 800d69c:	f383 8811 	msr	BASEPRI, r3
 800d6a0:	e015      	b.n	800d6ce <wakeup+0x4e>
    /* Handling the special case where the thread has been made ready by
       another thread with higher priority.*/
    chSysUnlockFromISR();
    return;
  case CH_STATE_SUSPENDED:
    *tp->p_u.wttrp = NULL;
 800d6a2:	6a43      	ldr	r3, [r0, #36]	; 0x24
 800d6a4:	2200      	movs	r2, #0
 800d6a6:	601a      	str	r2, [r3, #0]
    break;
 800d6a8:	e009      	b.n	800d6be <wakeup+0x3e>
#if CH_CFG_USE_SEMAPHORES == TRUE
  case CH_STATE_WTSEM:
    chSemFastSignalI(tp->p_u.wtsemp);
 800d6aa:	6a42      	ldr	r2, [r0, #36]	; 0x24
 */
static inline void chSemFastSignalI(semaphore_t *sp) {

  chDbgCheckClassI();

  sp->s_cnt++;
 800d6ac:	6893      	ldr	r3, [r2, #8]
 800d6ae:	3301      	adds	r3, #1
 800d6b0:	6093      	str	r3, [r2, #8]
  return tp;
}

static inline thread_t *queue_dequeue(thread_t *tp) {

  tp->p_prev->p_next = tp->p_next;
 800d6b2:	6843      	ldr	r3, [r0, #4]
 800d6b4:	6802      	ldr	r2, [r0, #0]
 800d6b6:	601a      	str	r2, [r3, #0]
  tp->p_next->p_prev = tp->p_prev;
 800d6b8:	6803      	ldr	r3, [r0, #0]
 800d6ba:	6842      	ldr	r2, [r0, #4]
 800d6bc:	605a      	str	r2, [r3, #4]
    break;
  default:
    /* Any other state, nothing to do.*/
    break;
  }
  tp->p_u.rdymsg = MSG_TIMEOUT;
 800d6be:	f04f 33ff 	mov.w	r3, #4294967295
 800d6c2:	6243      	str	r3, [r0, #36]	; 0x24
  (void) chSchReadyI(tp);
 800d6c4:	f7ff ffcc 	bl	800d660 <chSchReadyI>
 800d6c8:	2300      	movs	r3, #0
 800d6ca:	f383 8811 	msr	BASEPRI, r3
  chSysUnlockFromISR();
}
 800d6ce:	bd08      	pop	{r3, pc}

0800d6d0 <chSchGoSleepS>:
void chSchGoSleepS(tstate_t newstate) {
 800d6d0:	b508      	push	{r3, lr}
  otp = currp;
 800d6d2:	4b07      	ldr	r3, [pc, #28]	; (800d6f0 <chSchGoSleepS+0x20>)
 800d6d4:	6999      	ldr	r1, [r3, #24]
  otp->p_state = newstate;
 800d6d6:	7708      	strb	r0, [r1, #28]
  otp->p_preempt = (tslices_t)CH_CFG_TIME_QUANTUM;
 800d6d8:	2204      	movs	r2, #4
 800d6da:	77ca      	strb	r2, [r1, #31]
  thread_t *tp = tqp->p_next;
 800d6dc:	6818      	ldr	r0, [r3, #0]
  tqp->p_next = tp->p_next;
 800d6de:	6802      	ldr	r2, [r0, #0]
 800d6e0:	601a      	str	r2, [r3, #0]
  tqp->p_next->p_prev = (thread_t *)tqp;
 800d6e2:	6053      	str	r3, [r2, #4]
  setcurrp(queue_fifo_remove(&ch.rlist.r_queue));
 800d6e4:	6198      	str	r0, [r3, #24]
  currp->p_state = CH_STATE_CURRENT;
 800d6e6:	2301      	movs	r3, #1
 800d6e8:	7703      	strb	r3, [r0, #28]
  chSysSwitch(currp, otp);
 800d6ea:	f7fe fd11 	bl	800c110 <_port_switch>
}
 800d6ee:	bd08      	pop	{r3, pc}
 800d6f0:	200019f0 	.word	0x200019f0
	...

0800d700 <chSchGoSleepTimeoutS>:
 * @return              The wakeup message.
 * @retval MSG_TIMEOUT  if a timeout occurs.
 *
 * @sclass
 */
msg_t chSchGoSleepTimeoutS(tstate_t newstate, systime_t time) {
 800d700:	b510      	push	{r4, lr}
 800d702:	b086      	sub	sp, #24
 800d704:	4604      	mov	r4, r0

  chDbgCheckClassS();

  if (TIME_INFINITE != time) {
 800d706:	f1b1 3fff 	cmp.w	r1, #4294967295
 800d70a:	d012      	beq.n	800d732 <chSchGoSleepTimeoutS+0x32>
    virtual_timer_t vt;

    chVTDoSetI(&vt, time, wakeup, currp);
 800d70c:	4b0a      	ldr	r3, [pc, #40]	; (800d738 <chSchGoSleepTimeoutS+0x38>)
 800d70e:	699b      	ldr	r3, [r3, #24]
 800d710:	4a0a      	ldr	r2, [pc, #40]	; (800d73c <chSchGoSleepTimeoutS+0x3c>)
 800d712:	a801      	add	r0, sp, #4
 800d714:	f7ff ff5c 	bl	800d5d0 <chVTDoSetI>
    chSchGoSleepS(newstate);
 800d718:	4620      	mov	r0, r4
 800d71a:	f7ff ffd9 	bl	800d6d0 <chSchGoSleepS>
    if (chVTIsArmedI(&vt)) {
 800d71e:	9b04      	ldr	r3, [sp, #16]
 800d720:	b113      	cbz	r3, 800d728 <chSchGoSleepTimeoutS+0x28>
      chVTDoResetI(&vt);
 800d722:	a801      	add	r0, sp, #4
 800d724:	f7ff ff74 	bl	800d610 <chVTDoResetI>
  }
  else {
    chSchGoSleepS(newstate);
  }

  return currp->p_u.rdymsg;
 800d728:	4b03      	ldr	r3, [pc, #12]	; (800d738 <chSchGoSleepTimeoutS+0x38>)
 800d72a:	699b      	ldr	r3, [r3, #24]
}
 800d72c:	6a58      	ldr	r0, [r3, #36]	; 0x24
 800d72e:	b006      	add	sp, #24
 800d730:	bd10      	pop	{r4, pc}
    chSchGoSleepS(newstate);
 800d732:	f7ff ffcd 	bl	800d6d0 <chSchGoSleepS>
 800d736:	e7f7      	b.n	800d728 <chSchGoSleepTimeoutS+0x28>
 800d738:	200019f0 	.word	0x200019f0
 800d73c:	0800d681 	.word	0x0800d681

0800d740 <chSchWakeupS>:
 * @param[in] ntp       the thread to be made ready
 * @param[in] msg       the wakeup message
 *
 * @sclass
 */
void chSchWakeupS(thread_t *ntp, msg_t msg) {
 800d740:	b510      	push	{r4, lr}
 800d742:	4604      	mov	r4, r0

  chDbgCheckClassS();

  /* Storing the message to be retrieved by the target thread when it will
     restart execution.*/
  ntp->p_u.rdymsg = msg;
 800d744:	6241      	str	r1, [r0, #36]	; 0x24

  /* If the waken thread has a not-greater priority than the current
     one then it is just inserted in the ready list else it made
     running immediately and the invoking thread goes in the ready
     list instead.*/
  if (ntp->p_prio <= currp->p_prio) {
 800d746:	4b0a      	ldr	r3, [pc, #40]	; (800d770 <chSchWakeupS+0x30>)
 800d748:	6998      	ldr	r0, [r3, #24]
 800d74a:	68a2      	ldr	r2, [r4, #8]
 800d74c:	6883      	ldr	r3, [r0, #8]
 800d74e:	429a      	cmp	r2, r3
 800d750:	d90a      	bls.n	800d768 <chSchWakeupS+0x28>
    (void) chSchReadyI(ntp);
  }
  else {
    thread_t *otp = chSchReadyI(currp);
 800d752:	f7ff ff85 	bl	800d660 <chSchReadyI>
    setcurrp(ntp);
 800d756:	4b06      	ldr	r3, [pc, #24]	; (800d770 <chSchWakeupS+0x30>)
 800d758:	619c      	str	r4, [r3, #24]
#if defined(CH_CFG_IDLE_LEAVE_HOOK)
    if (otp->p_prio == IDLEPRIO) {
      CH_CFG_IDLE_LEAVE_HOOK();
    }
#endif
    ntp->p_state = CH_STATE_CURRENT;
 800d75a:	2301      	movs	r3, #1
 800d75c:	7723      	strb	r3, [r4, #28]
    chSysSwitch(ntp, otp);
 800d75e:	4601      	mov	r1, r0
 800d760:	4620      	mov	r0, r4
 800d762:	f7fe fcd5 	bl	800c110 <_port_switch>
  }
}
 800d766:	bd10      	pop	{r4, pc}
    (void) chSchReadyI(ntp);
 800d768:	4620      	mov	r0, r4
 800d76a:	f7ff ff79 	bl	800d660 <chSchReadyI>
 800d76e:	e7fa      	b.n	800d766 <chSchWakeupS+0x26>
 800d770:	200019f0 	.word	0x200019f0
	...

0800d780 <chSchIsPreemptionRequired>:
 * @retval false        if preemption is not required.
 *
 * @special
 */
bool chSchIsPreemptionRequired(void) {
  tprio_t p1 = firstprio(&ch.rlist.r_queue);
 800d780:	4b08      	ldr	r3, [pc, #32]	; (800d7a4 <chSchIsPreemptionRequired+0x24>)
 800d782:	681a      	ldr	r2, [r3, #0]
 800d784:	6890      	ldr	r0, [r2, #8]
  tprio_t p2 = currp->p_prio;
 800d786:	699b      	ldr	r3, [r3, #24]
 800d788:	689a      	ldr	r2, [r3, #8]
#if CH_CFG_TIME_QUANTUM > 0
  /* If the running thread has not reached its time quantum, reschedule only
     if the first thread on the ready queue has a higher priority.
     Otherwise, if the running thread has used up its time quantum, reschedule
     if the first thread on the ready queue has equal or higher priority.*/
  return (currp->p_preempt > (tslices_t)0) ? (p1 > p2) : (p1 >= p2);
 800d78a:	7fdb      	ldrb	r3, [r3, #31]
 800d78c:	b923      	cbnz	r3, 800d798 <chSchIsPreemptionRequired+0x18>
 800d78e:	4290      	cmp	r0, r2
 800d790:	bf34      	ite	cc
 800d792:	2000      	movcc	r0, #0
 800d794:	2001      	movcs	r0, #1
#else
  /* If the round robin preemption feature is not enabled then performs a
     simpler comparison.*/
  return p1 > p2;
#endif
}
 800d796:	4770      	bx	lr
  return (currp->p_preempt > (tslices_t)0) ? (p1 > p2) : (p1 >= p2);
 800d798:	4290      	cmp	r0, r2
 800d79a:	bf94      	ite	ls
 800d79c:	2000      	movls	r0, #0
 800d79e:	2001      	movhi	r0, #1
 800d7a0:	4770      	bx	lr
 800d7a2:	bf00      	nop
 800d7a4:	200019f0 	.word	0x200019f0
	...

0800d7b0 <chSchDoRescheduleBehind>:
 * @note    Not a user function, it is meant to be invoked by the scheduler
 *          itself or from within the port layer.
 *
 * @special
 */
void chSchDoRescheduleBehind(void) {
 800d7b0:	b538      	push	{r3, r4, r5, lr}
  thread_t *otp;

  otp = currp;
 800d7b2:	4c09      	ldr	r4, [pc, #36]	; (800d7d8 <chSchDoRescheduleBehind+0x28>)
 800d7b4:	69a5      	ldr	r5, [r4, #24]
  thread_t *tp = tqp->p_next;
 800d7b6:	6823      	ldr	r3, [r4, #0]
  tqp->p_next = tp->p_next;
 800d7b8:	681a      	ldr	r2, [r3, #0]
 800d7ba:	6022      	str	r2, [r4, #0]
  tqp->p_next->p_prev = (thread_t *)tqp;
 800d7bc:	6054      	str	r4, [r2, #4]
  /* Picks the first thread from the ready queue and makes it current.*/
  setcurrp(queue_fifo_remove(&ch.rlist.r_queue));
 800d7be:	61a3      	str	r3, [r4, #24]
#if defined(CH_CFG_IDLE_LEAVE_HOOK)
  if (otp->p_prio == IDLEPRIO) {
    CH_CFG_IDLE_LEAVE_HOOK();
  }
#endif
  currp->p_state = CH_STATE_CURRENT;
 800d7c0:	2201      	movs	r2, #1
 800d7c2:	771a      	strb	r2, [r3, #28]
#if CH_CFG_TIME_QUANTUM > 0
  otp->p_preempt = (tslices_t)CH_CFG_TIME_QUANTUM;
 800d7c4:	2304      	movs	r3, #4
 800d7c6:	77eb      	strb	r3, [r5, #31]
#endif
  (void) chSchReadyI(otp);
 800d7c8:	4628      	mov	r0, r5
 800d7ca:	f7ff ff49 	bl	800d660 <chSchReadyI>
  chSysSwitch(currp, otp);
 800d7ce:	4629      	mov	r1, r5
 800d7d0:	69a0      	ldr	r0, [r4, #24]
 800d7d2:	f7fe fc9d 	bl	800c110 <_port_switch>
}
 800d7d6:	bd38      	pop	{r3, r4, r5, pc}
 800d7d8:	200019f0 	.word	0x200019f0
 800d7dc:	00000000 	.word	0x00000000

0800d7e0 <chSchDoRescheduleAhead>:
 * @note    Not a user function, it is meant to be invoked by the scheduler
 *          itself or from within the port layer.
 *
 * @special
 */
void chSchDoRescheduleAhead(void) {
 800d7e0:	b508      	push	{r3, lr}
  thread_t *otp, *cp;

  otp = currp;
 800d7e2:	4b0d      	ldr	r3, [pc, #52]	; (800d818 <chSchDoRescheduleAhead+0x38>)
 800d7e4:	6999      	ldr	r1, [r3, #24]
  thread_t *tp = tqp->p_next;
 800d7e6:	681a      	ldr	r2, [r3, #0]
  tqp->p_next = tp->p_next;
 800d7e8:	6810      	ldr	r0, [r2, #0]
 800d7ea:	6018      	str	r0, [r3, #0]
  tqp->p_next->p_prev = (thread_t *)tqp;
 800d7ec:	6043      	str	r3, [r0, #4]
  /* Picks the first thread from the ready queue and makes it current.*/
  setcurrp(queue_fifo_remove(&ch.rlist.r_queue));
 800d7ee:	619a      	str	r2, [r3, #24]
#if defined(CH_CFG_IDLE_LEAVE_HOOK)
  if (otp->p_prio == IDLEPRIO) {
    CH_CFG_IDLE_LEAVE_HOOK();
  }
#endif
  currp->p_state = CH_STATE_CURRENT;
 800d7f0:	2001      	movs	r0, #1
 800d7f2:	7710      	strb	r0, [r2, #28]

  otp->p_state = CH_STATE_READY;
 800d7f4:	2200      	movs	r2, #0
 800d7f6:	770a      	strb	r2, [r1, #28]
  cp = (thread_t *)&ch.rlist.r_queue;
  do {
    cp = cp->p_next;
  } while (cp->p_prio > otp->p_prio);
 800d7f8:	6888      	ldr	r0, [r1, #8]
    cp = cp->p_next;
 800d7fa:	681b      	ldr	r3, [r3, #0]
  } while (cp->p_prio > otp->p_prio);
 800d7fc:	689a      	ldr	r2, [r3, #8]
 800d7fe:	4282      	cmp	r2, r0
 800d800:	d8fb      	bhi.n	800d7fa <chSchDoRescheduleAhead+0x1a>
  /* Insertion on p_prev.*/
  otp->p_next = cp;
 800d802:	600b      	str	r3, [r1, #0]
  otp->p_prev = cp->p_prev;
 800d804:	685a      	ldr	r2, [r3, #4]
 800d806:	604a      	str	r2, [r1, #4]
  otp->p_prev->p_next = otp;
 800d808:	6011      	str	r1, [r2, #0]
  cp->p_prev = otp;
 800d80a:	6059      	str	r1, [r3, #4]

  chSysSwitch(currp, otp);
 800d80c:	4b02      	ldr	r3, [pc, #8]	; (800d818 <chSchDoRescheduleAhead+0x38>)
 800d80e:	6998      	ldr	r0, [r3, #24]
 800d810:	f7fe fc7e 	bl	800c110 <_port_switch>
}
 800d814:	bd08      	pop	{r3, pc}
 800d816:	bf00      	nop
 800d818:	200019f0 	.word	0x200019f0
 800d81c:	00000000 	.word	0x00000000

0800d820 <chSchRescheduleS>:
void chSchRescheduleS(void) {
 800d820:	b508      	push	{r3, lr}
 */
static inline bool chSchIsRescRequiredI(void) {

  chDbgCheckClassI();

  return firstprio(&ch.rlist.r_queue) > currp->p_prio;
 800d822:	4b05      	ldr	r3, [pc, #20]	; (800d838 <chSchRescheduleS+0x18>)
 800d824:	681a      	ldr	r2, [r3, #0]
 800d826:	699b      	ldr	r3, [r3, #24]
  if (chSchIsRescRequiredI()) {
 800d828:	6892      	ldr	r2, [r2, #8]
 800d82a:	689b      	ldr	r3, [r3, #8]
 800d82c:	429a      	cmp	r2, r3
 800d82e:	d800      	bhi.n	800d832 <chSchRescheduleS+0x12>
}
 800d830:	bd08      	pop	{r3, pc}
    chSchDoRescheduleAhead();
 800d832:	f7ff ffd5 	bl	800d7e0 <chSchDoRescheduleAhead>
}
 800d836:	e7fb      	b.n	800d830 <chSchRescheduleS+0x10>
 800d838:	200019f0 	.word	0x200019f0
 800d83c:	00000000 	.word	0x00000000

0800d840 <chSchDoReschedule>:
 * @note    Not a user function, it is meant to be invoked by the scheduler
 *          itself or from within the port layer.
 *
 * @special
 */
void chSchDoReschedule(void) {
 800d840:	b508      	push	{r3, lr}

#if CH_CFG_TIME_QUANTUM > 0
  /* If CH_CFG_TIME_QUANTUM is enabled then there are two different scenarios
     to handle on preemption: time quantum elapsed or not.*/
  if (currp->p_preempt == (tslices_t)0) {
 800d842:	4b05      	ldr	r3, [pc, #20]	; (800d858 <chSchDoReschedule+0x18>)
 800d844:	699b      	ldr	r3, [r3, #24]
 800d846:	7fdb      	ldrb	r3, [r3, #31]
 800d848:	b113      	cbz	r3, 800d850 <chSchDoReschedule+0x10>
    chSchDoRescheduleBehind();
  }
  else {
    /* The thread didn't consume all its time quantum so it is put ahead of
       threads with equal priority and does not acquire a new time quantum.*/
    chSchDoRescheduleAhead();
 800d84a:	f7ff ffc9 	bl	800d7e0 <chSchDoRescheduleAhead>
#else /* !(CH_CFG_TIME_QUANTUM > 0) */
  /* If the round-robin mechanism is disabled then the thread goes always
     ahead of its peers.*/
  chSchDoRescheduleAhead();
#endif /* !(CH_CFG_TIME_QUANTUM > 0) */
}
 800d84e:	bd08      	pop	{r3, pc}
    chSchDoRescheduleBehind();
 800d850:	f7ff ffae 	bl	800d7b0 <chSchDoRescheduleBehind>
 800d854:	e7fb      	b.n	800d84e <chSchDoReschedule+0xe>
 800d856:	bf00      	nop
 800d858:	200019f0 	.word	0x200019f0
 800d85c:	00000000 	.word	0x00000000

0800d860 <_thread_init>:
 * @param[in] prio      the priority level for the new thread
 * @return              The same thread pointer passed as parameter.
 *
 * @notapi
 */
thread_t *_thread_init(thread_t *tp, tprio_t prio) {
 800d860:	b410      	push	{r4}

  tp->p_prio = prio;
 800d862:	6081      	str	r1, [r0, #8]
  tp->p_state = CH_STATE_WTSTART;
 800d864:	2202      	movs	r2, #2
 800d866:	7702      	strb	r2, [r0, #28]
  tp->p_flags = CH_FLAG_MODE_STATIC;
 800d868:	2200      	movs	r2, #0
 800d86a:	7742      	strb	r2, [r0, #29]
#if CH_CFG_TIME_QUANTUM > 0
  tp->p_preempt = (tslices_t)CH_CFG_TIME_QUANTUM;
 800d86c:	2404      	movs	r4, #4
 800d86e:	77c4      	strb	r4, [r0, #31]
#endif
#if CH_CFG_USE_MUTEXES == TRUE
  tp->p_realprio = prio;
 800d870:	6401      	str	r1, [r0, #64]	; 0x40
  tp->p_mtxlist = NULL;
 800d872:	63c2      	str	r2, [r0, #60]	; 0x3c
#endif
#if CH_CFG_USE_EVENTS == TRUE
  tp->p_epending = (eventmask_t)0;
 800d874:	6382      	str	r2, [r0, #56]	; 0x38
#endif
#if CH_DBG_THREADS_PROFILING == TRUE
  tp->p_time = (systime_t)0;
 800d876:	6202      	str	r2, [r0, #32]
#endif
#if CH_CFG_USE_DYNAMIC == TRUE
  tp->p_refs = (trefs_t)1;
 800d878:	2101      	movs	r1, #1
 800d87a:	7781      	strb	r1, [r0, #30]
#endif
#if CH_CFG_USE_REGISTRY == TRUE
  tp->p_name = NULL;
 800d87c:	6182      	str	r2, [r0, #24]
  REG_INSERT(tp);
 800d87e:	4a08      	ldr	r2, [pc, #32]	; (800d8a0 <_thread_init+0x40>)
 800d880:	6102      	str	r2, [r0, #16]
 800d882:	6951      	ldr	r1, [r2, #20]
 800d884:	6141      	str	r1, [r0, #20]
 800d886:	6108      	str	r0, [r1, #16]
 800d888:	6150      	str	r0, [r2, #20]
#endif
#if CH_CFG_USE_WAITEXIT == TRUE
  list_init(&tp->p_waiting);
 800d88a:	f100 0228 	add.w	r2, r0, #40	; 0x28
  tlp->p_next = (thread_t *)tlp;
 800d88e:	6282      	str	r2, [r0, #40]	; 0x28
#endif
#if CH_CFG_USE_MESSAGES == TRUE
  queue_init(&tp->p_msgqueue);
 800d890:	f100 022c 	add.w	r2, r0, #44	; 0x2c
  tqp->p_next = (thread_t *)tqp;
 800d894:	62c2      	str	r2, [r0, #44]	; 0x2c
  tqp->p_prev = (thread_t *)tqp;
 800d896:	6302      	str	r2, [r0, #48]	; 0x30
#endif
#if defined(CH_CFG_THREAD_INIT_HOOK)
  CH_CFG_THREAD_INIT_HOOK(tp);
#endif
  return tp;
}
 800d898:	f85d 4b04 	ldr.w	r4, [sp], #4
 800d89c:	4770      	bx	lr
 800d89e:	bf00      	nop
 800d8a0:	200019f0 	.word	0x200019f0
	...

0800d8b0 <chThdCreateI>:
 *                      the thread into the working space area.
 *
 * @iclass
 */
thread_t *chThdCreateI(void *wsp, size_t size,
                       tprio_t prio, tfunc_t pf, void *arg) {
 800d8b0:	b510      	push	{r4, lr}

  chDbgCheckClassI();
  chDbgCheck((wsp != NULL) && (size >= THD_WORKING_AREA_SIZE(0)) &&
             (prio <= HIGHPRIO) && (pf != NULL));

  PORT_SETUP_CONTEXT(tp, wsp, size, pf, arg);
 800d8b2:	3964      	subs	r1, #100	; 0x64
 800d8b4:	4401      	add	r1, r0
 800d8b6:	60c1      	str	r1, [r0, #12]
 800d8b8:	640b      	str	r3, [r1, #64]	; 0x40
 800d8ba:	68c3      	ldr	r3, [r0, #12]
 800d8bc:	9902      	ldr	r1, [sp, #8]
 800d8be:	6459      	str	r1, [r3, #68]	; 0x44
 800d8c0:	68c3      	ldr	r3, [r0, #12]
 800d8c2:	4903      	ldr	r1, [pc, #12]	; (800d8d0 <chThdCreateI+0x20>)
 800d8c4:	6619      	str	r1, [r3, #96]	; 0x60

  return _thread_init(tp, prio);
 800d8c6:	4611      	mov	r1, r2
 800d8c8:	f7ff ffca 	bl	800d860 <_thread_init>
}
 800d8cc:	bd10      	pop	{r4, pc}
 800d8ce:	bf00      	nop
 800d8d0:	0800c129 	.word	0x0800c129
	...

0800d8e0 <chThdCreateStatic>:
 *                      the thread into the working space area.
 *
 * @api
 */
thread_t *chThdCreateStatic(void *wsp, size_t size,
                            tprio_t prio, tfunc_t pf, void *arg) {
 800d8e0:	b510      	push	{r4, lr}
 800d8e2:	b082      	sub	sp, #8
 800d8e4:	2420      	movs	r4, #32
 800d8e6:	f384 8811 	msr	BASEPRI, r4
                  (uint8_t *)wsp + size,
                  CH_DBG_STACK_FILL_VALUE);
#endif

  chSysLock();
  tp = chThdCreateI(wsp, size, prio, pf, arg);
 800d8ea:	9c04      	ldr	r4, [sp, #16]
 800d8ec:	9400      	str	r4, [sp, #0]
 800d8ee:	f7ff ffdf 	bl	800d8b0 <chThdCreateI>
 800d8f2:	4604      	mov	r4, r0
  chSchWakeupS(tp, MSG_OK);
 800d8f4:	2100      	movs	r1, #0
 800d8f6:	f7ff ff23 	bl	800d740 <chSchWakeupS>
 800d8fa:	2300      	movs	r3, #0
 800d8fc:	f383 8811 	msr	BASEPRI, r3
  chSysUnlock();

  return tp;
}
 800d900:	4620      	mov	r0, r4
 800d902:	b002      	add	sp, #8
 800d904:	bd10      	pop	{r4, pc}
 800d906:	bf00      	nop
	...

0800d910 <chThdSleep>:
 *                      - @a TIME_IMMEDIATE this value is not allowed.
 *                      .
 *
 * @api
 */
void chThdSleep(systime_t time) {
 800d910:	b508      	push	{r3, lr}
 800d912:	4601      	mov	r1, r0
 800d914:	2320      	movs	r3, #32
 800d916:	f383 8811 	msr	BASEPRI, r3
 */
static inline void chThdSleepS(systime_t time) {

  chDbgCheck(time != TIME_IMMEDIATE);

  (void) chSchGoSleepTimeoutS(CH_STATE_SLEEPING, time);
 800d91a:	2008      	movs	r0, #8
 800d91c:	f7ff fef0 	bl	800d700 <chSchGoSleepTimeoutS>
 800d920:	2300      	movs	r3, #0
 800d922:	f383 8811 	msr	BASEPRI, r3

  chSysLock();
  chThdSleepS(time);
  chSysUnlock();
}
 800d926:	bd08      	pop	{r3, pc}
	...

0800d930 <chThdExitS>:
 *
 * @param[in] msg       thread exit code
 *
 * @sclass
 */
void chThdExitS(msg_t msg) {
 800d930:	b538      	push	{r3, r4, r5, lr}
  thread_t *tp = currp;
 800d932:	4b0e      	ldr	r3, [pc, #56]	; (800d96c <chThdExitS+0x3c>)
 800d934:	699c      	ldr	r4, [r3, #24]

  tp->p_u.exitcode = msg;
 800d936:	6260      	str	r0, [r4, #36]	; 0x24
#if defined(CH_CFG_THREAD_EXIT_HOOK)
  CH_CFG_THREAD_EXIT_HOOK(tp);
#endif
#if CH_CFG_USE_WAITEXIT == TRUE
  while (list_notempty(&tp->p_waiting)) {
 800d938:	f104 0528 	add.w	r5, r4, #40	; 0x28
  return (bool)(tlp->p_next != (thread_t *)tlp);
 800d93c:	6aa0      	ldr	r0, [r4, #40]	; 0x28
 800d93e:	4285      	cmp	r5, r0
 800d940:	d006      	beq.n	800d950 <chThdExitS+0x20>
  tlp->p_next = tp->p_next;
 800d942:	6803      	ldr	r3, [r0, #0]
 800d944:	62a3      	str	r3, [r4, #40]	; 0x28
    (void) chSchReadyI(list_remove(&tp->p_waiting));
 800d946:	f7ff fe8b 	bl	800d660 <chSchReadyI>
  return (bool)(tlp->p_next != (thread_t *)tlp);
 800d94a:	6aa0      	ldr	r0, [r4, #40]	; 0x28
  while (list_notempty(&tp->p_waiting)) {
 800d94c:	42a8      	cmp	r0, r5
 800d94e:	d1f8      	bne.n	800d942 <chThdExitS+0x12>
  }
#endif
#if CH_CFG_USE_REGISTRY == TRUE
  /* Static threads are immediately removed from the registry because
     there is no memory to recover.*/
  if ((tp->p_flags & CH_FLAG_MODE_MASK) == CH_FLAG_MODE_STATIC) {
 800d950:	7f63      	ldrb	r3, [r4, #29]
 800d952:	f013 0f03 	tst.w	r3, #3
 800d956:	d105      	bne.n	800d964 <chThdExitS+0x34>
    REG_REMOVE(tp);
 800d958:	6963      	ldr	r3, [r4, #20]
 800d95a:	6922      	ldr	r2, [r4, #16]
 800d95c:	611a      	str	r2, [r3, #16]
 800d95e:	6923      	ldr	r3, [r4, #16]
 800d960:	6962      	ldr	r2, [r4, #20]
 800d962:	615a      	str	r2, [r3, #20]
  }
#endif
  chSchGoSleepS(CH_STATE_FINAL);
 800d964:	200f      	movs	r0, #15
 800d966:	f7ff feb3 	bl	800d6d0 <chSchGoSleepS>

  /* The thread never returns here.*/
  chDbgAssert(false, "zombies apocalypse");
}
 800d96a:	bd38      	pop	{r3, r4, r5, pc}
 800d96c:	200019f0 	.word	0x200019f0

0800d970 <chThdExit>:
void chThdExit(msg_t msg) {
 800d970:	b508      	push	{r3, lr}
 800d972:	2320      	movs	r3, #32
 800d974:	f383 8811 	msr	BASEPRI, r3
  chThdExitS(msg);
 800d978:	f7ff ffda 	bl	800d930 <chThdExitS>
}
 800d97c:	bd08      	pop	{r3, pc}
 800d97e:	bf00      	nop

0800d980 <chThdSuspendS>:
 * @param[in] trp       a pointer to a thread reference object
 * @return              The wake up message.
 *
 * @sclass
 */
msg_t chThdSuspendS(thread_reference_t *trp) {
 800d980:	b510      	push	{r4, lr}
  return ch.rlist.r_current;
 800d982:	4c05      	ldr	r4, [pc, #20]	; (800d998 <chThdSuspendS+0x18>)
 800d984:	69a3      	ldr	r3, [r4, #24]
  thread_t *tp = chThdGetSelfX();

  chDbgAssert(*trp == NULL, "not NULL");

  *trp = tp;
 800d986:	6003      	str	r3, [r0, #0]
  tp->p_u.wttrp = trp;
 800d988:	6258      	str	r0, [r3, #36]	; 0x24
  chSchGoSleepS(CH_STATE_SUSPENDED);
 800d98a:	2003      	movs	r0, #3
 800d98c:	f7ff fea0 	bl	800d6d0 <chSchGoSleepS>

  return chThdGetSelfX()->p_u.rdymsg;
 800d990:	69a3      	ldr	r3, [r4, #24]
}
 800d992:	6a58      	ldr	r0, [r3, #36]	; 0x24
 800d994:	bd10      	pop	{r4, pc}
 800d996:	bf00      	nop
 800d998:	200019f0 	.word	0x200019f0
 800d99c:	00000000 	.word	0x00000000

0800d9a0 <chThdSuspendTimeoutS>:
 * @return              The wake up message.
 * @retval MSG_TIMEOUT  if the operation timed out.
 *
 * @sclass
 */
msg_t chThdSuspendTimeoutS(thread_reference_t *trp, systime_t timeout) {
 800d9a0:	b508      	push	{r3, lr}
 800d9a2:	4b06      	ldr	r3, [pc, #24]	; (800d9bc <chThdSuspendTimeoutS+0x1c>)
 800d9a4:	699a      	ldr	r2, [r3, #24]
  thread_t *tp = chThdGetSelfX();

  chDbgAssert(*trp == NULL, "not NULL");

  if (TIME_IMMEDIATE == timeout) {
 800d9a6:	b129      	cbz	r1, 800d9b4 <chThdSuspendTimeoutS+0x14>
    return MSG_TIMEOUT;
  }

  *trp = tp;
 800d9a8:	6002      	str	r2, [r0, #0]
  tp->p_u.wttrp = trp;
 800d9aa:	6250      	str	r0, [r2, #36]	; 0x24

  return chSchGoSleepTimeoutS(CH_STATE_SUSPENDED, timeout);
 800d9ac:	2003      	movs	r0, #3
 800d9ae:	f7ff fea7 	bl	800d700 <chSchGoSleepTimeoutS>
}
 800d9b2:	bd08      	pop	{r3, pc}
    return MSG_TIMEOUT;
 800d9b4:	f04f 30ff 	mov.w	r0, #4294967295
 800d9b8:	e7fb      	b.n	800d9b2 <chThdSuspendTimeoutS+0x12>
 800d9ba:	bf00      	nop
 800d9bc:	200019f0 	.word	0x200019f0

0800d9c0 <chThdResumeI>:
 *
 * @iclass
 */
void chThdResumeI(thread_reference_t *trp, msg_t msg) {

  if (*trp != NULL) {
 800d9c0:	6802      	ldr	r2, [r0, #0]
 800d9c2:	b142      	cbz	r2, 800d9d6 <chThdResumeI+0x16>
void chThdResumeI(thread_reference_t *trp, msg_t msg) {
 800d9c4:	b508      	push	{r3, lr}
 800d9c6:	4603      	mov	r3, r0
    thread_t *tp = *trp;

    chDbgAssert(tp->p_state == CH_STATE_SUSPENDED,
                "not THD_STATE_SUSPENDED");

    *trp = NULL;
 800d9c8:	2000      	movs	r0, #0
 800d9ca:	6018      	str	r0, [r3, #0]
    tp->p_u.rdymsg = msg;
 800d9cc:	6251      	str	r1, [r2, #36]	; 0x24
    (void) chSchReadyI(tp);
 800d9ce:	4610      	mov	r0, r2
 800d9d0:	f7ff fe46 	bl	800d660 <chSchReadyI>
  }
}
 800d9d4:	bd08      	pop	{r3, pc}
 800d9d6:	4770      	bx	lr
	...

0800d9e0 <chThdEnqueueTimeoutS>:
 *
 * @sclass
 */
msg_t chThdEnqueueTimeoutS(threads_queue_t *tqp, systime_t timeout) {

  if (TIME_IMMEDIATE == timeout) {
 800d9e0:	b159      	cbz	r1, 800d9fa <chThdEnqueueTimeoutS+0x1a>
msg_t chThdEnqueueTimeoutS(threads_queue_t *tqp, systime_t timeout) {
 800d9e2:	b508      	push	{r3, lr}
    return MSG_TIMEOUT;
  }

  queue_insert(currp, tqp);
 800d9e4:	4b06      	ldr	r3, [pc, #24]	; (800da00 <chThdEnqueueTimeoutS+0x20>)
 800d9e6:	699b      	ldr	r3, [r3, #24]
  tp->p_next = (thread_t *)tqp;
 800d9e8:	6018      	str	r0, [r3, #0]
  tp->p_prev = tqp->p_prev;
 800d9ea:	6842      	ldr	r2, [r0, #4]
 800d9ec:	605a      	str	r2, [r3, #4]
  tp->p_prev->p_next = tp;
 800d9ee:	6013      	str	r3, [r2, #0]
  tqp->p_prev = tp;
 800d9f0:	6043      	str	r3, [r0, #4]

  return chSchGoSleepTimeoutS(CH_STATE_QUEUED, timeout);
 800d9f2:	2004      	movs	r0, #4
 800d9f4:	f7ff fe84 	bl	800d700 <chSchGoSleepTimeoutS>
}
 800d9f8:	bd08      	pop	{r3, pc}
    return MSG_TIMEOUT;
 800d9fa:	f04f 30ff 	mov.w	r0, #4294967295
}
 800d9fe:	4770      	bx	lr
 800da00:	200019f0 	.word	0x200019f0
	...

0800da10 <chThdDequeueAllI>:
 * @param[in] tqp       pointer to the threads queue object
 * @param[in] msg       the message code
 *
 * @iclass
 */
void chThdDequeueAllI(threads_queue_t *tqp, msg_t msg) {
 800da10:	b538      	push	{r3, r4, r5, lr}
 800da12:	4604      	mov	r4, r0
 800da14:	460d      	mov	r5, r1
  return (bool)(tqp->p_next != (const thread_t *)tqp);
 800da16:	6800      	ldr	r0, [r0, #0]

  while (queue_notempty(tqp)) {
 800da18:	4284      	cmp	r4, r0
 800da1a:	d008      	beq.n	800da2e <chThdDequeueAllI+0x1e>
  tqp->p_next = tp->p_next;
 800da1c:	6803      	ldr	r3, [r0, #0]
 800da1e:	6023      	str	r3, [r4, #0]
  tqp->p_next->p_prev = (thread_t *)tqp;
 800da20:	605c      	str	r4, [r3, #4]

  tp = queue_fifo_remove(tqp);

  chDbgAssert(tp->p_state == CH_STATE_QUEUED, "invalid state");

  tp->p_u.rdymsg = msg;
 800da22:	6245      	str	r5, [r0, #36]	; 0x24
  (void) chSchReadyI(tp);
 800da24:	f7ff fe1c 	bl	800d660 <chSchReadyI>
  return (bool)(tqp->p_next != (const thread_t *)tqp);
 800da28:	6820      	ldr	r0, [r4, #0]
 800da2a:	4284      	cmp	r4, r0
 800da2c:	d1f6      	bne.n	800da1c <chThdDequeueAllI+0xc>
    chThdDoDequeueNextI(tqp, msg);
  }
}
 800da2e:	bd38      	pop	{r3, r4, r5, pc}

0800da30 <chTMObjectInit>:
 *
 * @init
 */
void chTMObjectInit(time_measurement_t *tmp) {

  tmp->best       = (rtcnt_t)-1;
 800da30:	f04f 33ff 	mov.w	r3, #4294967295
 800da34:	6003      	str	r3, [r0, #0]
  tmp->worst      = (rtcnt_t)0;
 800da36:	2300      	movs	r3, #0
 800da38:	6043      	str	r3, [r0, #4]
  tmp->last       = (rtcnt_t)0;
 800da3a:	6083      	str	r3, [r0, #8]
  tmp->n          = (ucnt_t)0;
 800da3c:	60c3      	str	r3, [r0, #12]
  tmp->cumulative = (rttime_t)0;
 800da3e:	2200      	movs	r2, #0
 800da40:	2300      	movs	r3, #0
 800da42:	e9c0 2304 	strd	r2, r3, [r0, #16]
}
 800da46:	4770      	bx	lr
	...

0800da50 <chTMStartMeasurementX>:
 800da50:	4b01      	ldr	r3, [pc, #4]	; (800da58 <chTMStartMeasurementX+0x8>)
 800da52:	685b      	ldr	r3, [r3, #4]
 *
 * @xclass
 */
NOINLINE void chTMStartMeasurementX(time_measurement_t *tmp) {

  tmp->last = chSysGetRealtimeCounterX();
 800da54:	6083      	str	r3, [r0, #8]
}
 800da56:	4770      	bx	lr
 800da58:	e0001000 	.word	0xe0001000
 800da5c:	00000000 	.word	0x00000000

0800da60 <chTMStopMeasurementX>:
 *
 * @param[in,out] tmp   pointer to a @p time_measurement_t structure
 *
 * @xclass
 */
NOINLINE void chTMStopMeasurementX(time_measurement_t *tmp) {
 800da60:	b430      	push	{r4, r5}
 800da62:	4b0e      	ldr	r3, [pc, #56]	; (800da9c <chTMStopMeasurementX+0x3c>)
 800da64:	685b      	ldr	r3, [r3, #4]

  tm_stop(tmp, chSysGetRealtimeCounterX(), ch.tm.offset);
 800da66:	4a0e      	ldr	r2, [pc, #56]	; (800daa0 <chTMStopMeasurementX+0x40>)
 800da68:	6f91      	ldr	r1, [r2, #120]	; 0x78
  tmp->n++;
 800da6a:	68c2      	ldr	r2, [r0, #12]
 800da6c:	3201      	adds	r2, #1
 800da6e:	60c2      	str	r2, [r0, #12]
  tmp->last = (now - tmp->last) - offset;
 800da70:	6882      	ldr	r2, [r0, #8]
 800da72:	1a9b      	subs	r3, r3, r2
 800da74:	1a5b      	subs	r3, r3, r1
 800da76:	6083      	str	r3, [r0, #8]
  tmp->cumulative += (rttime_t)tmp->last;
 800da78:	e9d0 4504 	ldrd	r4, r5, [r0, #16]
 800da7c:	18e1      	adds	r1, r4, r3
 800da7e:	f145 0200 	adc.w	r2, r5, #0
 800da82:	e9c0 1204 	strd	r1, r2, [r0, #16]
  if (tmp->last > tmp->worst) {
 800da86:	6842      	ldr	r2, [r0, #4]
 800da88:	4293      	cmp	r3, r2
 800da8a:	d805      	bhi.n	800da98 <chTMStopMeasurementX+0x38>
  else if (tmp->last < tmp->best) {
 800da8c:	6802      	ldr	r2, [r0, #0]
 800da8e:	4293      	cmp	r3, r2
    tmp->best = tmp->last;
 800da90:	bf38      	it	cc
 800da92:	6003      	strcc	r3, [r0, #0]
}
 800da94:	bc30      	pop	{r4, r5}
 800da96:	4770      	bx	lr
    tmp->worst = tmp->last;
 800da98:	6043      	str	r3, [r0, #4]
 800da9a:	e7fb      	b.n	800da94 <chTMStopMeasurementX+0x34>
 800da9c:	e0001000 	.word	0xe0001000
 800daa0:	200019f0 	.word	0x200019f0
	...

0800dab0 <_tm_init>:
void _tm_init(void) {
 800dab0:	b510      	push	{r4, lr}
 800dab2:	b086      	sub	sp, #24
  ch.tm.offset = (rtcnt_t)0;
 800dab4:	4c07      	ldr	r4, [pc, #28]	; (800dad4 <_tm_init+0x24>)
 800dab6:	2300      	movs	r3, #0
 800dab8:	67a3      	str	r3, [r4, #120]	; 0x78
  chTMObjectInit(&tm);
 800daba:	4668      	mov	r0, sp
 800dabc:	f7ff ffb8 	bl	800da30 <chTMObjectInit>
  chTMStartMeasurementX(&tm);
 800dac0:	4668      	mov	r0, sp
 800dac2:	f7ff ffc5 	bl	800da50 <chTMStartMeasurementX>
  chTMStopMeasurementX(&tm);
 800dac6:	4668      	mov	r0, sp
 800dac8:	f7ff ffca 	bl	800da60 <chTMStopMeasurementX>
  ch.tm.offset = tm.last;
 800dacc:	9b02      	ldr	r3, [sp, #8]
 800dace:	67a3      	str	r3, [r4, #120]	; 0x78
}
 800dad0:	b006      	add	sp, #24
 800dad2:	bd10      	pop	{r4, pc}
 800dad4:	200019f0 	.word	0x200019f0
	...

0800dae0 <chThdRelease>:
 *
 * @param[in] tp        pointer to the thread
 *
 * @api
 */
void chThdRelease(thread_t *tp) {
 800dae0:	b508      	push	{r3, lr}
 800dae2:	2320      	movs	r3, #32
 800dae4:	f383 8811 	msr	BASEPRI, r3
  trefs_t refs;

  chSysLock();
  chDbgAssert(tp->p_refs > (trefs_t)0, "not referenced");
  tp->p_refs--;
 800dae8:	7f83      	ldrb	r3, [r0, #30]
 800daea:	3b01      	subs	r3, #1
 800daec:	b2db      	uxtb	r3, r3
 800daee:	7783      	strb	r3, [r0, #30]
 800daf0:	2200      	movs	r2, #0
 800daf2:	f382 8811 	msr	BASEPRI, r2
  chSysUnlock();

  /* If the references counter reaches zero and the thread is in its
     terminated state then the memory can be returned to the proper
     allocator. Of course static threads are not affected.*/
  if ((refs == (trefs_t)0) && (tp->p_state == CH_STATE_FINAL)) {
 800daf6:	b913      	cbnz	r3, 800dafe <chThdRelease+0x1e>
 800daf8:	7f03      	ldrb	r3, [r0, #28]
 800dafa:	2b0f      	cmp	r3, #15
 800dafc:	d000      	beq.n	800db00 <chThdRelease+0x20>
      /* Nothing to do for static threads, those are removed from the
         registry on exit.*/
      break;
    }
  }
}
 800dafe:	bd08      	pop	{r3, pc}
    switch (tp->p_flags & CH_FLAG_MODE_MASK) {
 800db00:	7f43      	ldrb	r3, [r0, #29]
 800db02:	f003 0303 	and.w	r3, r3, #3
 800db06:	2b01      	cmp	r3, #1
 800db08:	d00c      	beq.n	800db24 <chThdRelease+0x44>
 800db0a:	2b02      	cmp	r3, #2
 800db0c:	d1f7      	bne.n	800dafe <chThdRelease+0x1e>
      REG_REMOVE(tp);
 800db0e:	6943      	ldr	r3, [r0, #20]
 800db10:	6902      	ldr	r2, [r0, #16]
 800db12:	611a      	str	r2, [r3, #16]
 800db14:	6903      	ldr	r3, [r0, #16]
 800db16:	6942      	ldr	r2, [r0, #20]
 800db18:	615a      	str	r2, [r3, #20]
      chPoolFree(tp->p_mpool, tp);
 800db1a:	4601      	mov	r1, r0
 800db1c:	6c40      	ldr	r0, [r0, #68]	; 0x44
 800db1e:	f000 fb1f 	bl	800e160 <chPoolFree>
}
 800db22:	e7ec      	b.n	800dafe <chThdRelease+0x1e>
      REG_REMOVE(tp);
 800db24:	6943      	ldr	r3, [r0, #20]
 800db26:	6902      	ldr	r2, [r0, #16]
 800db28:	611a      	str	r2, [r3, #16]
 800db2a:	6903      	ldr	r3, [r0, #16]
 800db2c:	6942      	ldr	r2, [r0, #20]
 800db2e:	615a      	str	r2, [r3, #20]
      chHeapFree(tp);
 800db30:	f000 faae 	bl	800e090 <chHeapFree>
      break;
 800db34:	e7e3      	b.n	800dafe <chThdRelease+0x1e>
 800db36:	bf00      	nop
	...

0800db40 <chRegFirstThread>:
 800db40:	2320      	movs	r3, #32
 800db42:	f383 8811 	msr	BASEPRI, r3
 */
thread_t *chRegFirstThread(void) {
  thread_t *tp;

  chSysLock();
  tp = ch.rlist.r_newer;
 800db46:	4b04      	ldr	r3, [pc, #16]	; (800db58 <chRegFirstThread+0x18>)
 800db48:	6918      	ldr	r0, [r3, #16]
#if CH_CFG_USE_DYNAMIC == TRUE
  tp->p_refs++;
 800db4a:	7f83      	ldrb	r3, [r0, #30]
 800db4c:	3301      	adds	r3, #1
 800db4e:	7783      	strb	r3, [r0, #30]
 800db50:	2300      	movs	r3, #0
 800db52:	f383 8811 	msr	BASEPRI, r3
#endif
  chSysUnlock();

  return tp;
}
 800db56:	4770      	bx	lr
 800db58:	200019f0 	.word	0x200019f0
 800db5c:	00000000 	.word	0x00000000

0800db60 <chRegNextThread>:
 * @return              A reference to the next thread.
 * @retval NULL         if there is no next thread.
 *
 * @api
 */
thread_t *chRegNextThread(thread_t *tp) {
 800db60:	b510      	push	{r4, lr}
 800db62:	2320      	movs	r3, #32
 800db64:	f383 8811 	msr	BASEPRI, r3
  thread_t *ntp;

  chSysLock();
  ntp = tp->p_newer;
 800db68:	6904      	ldr	r4, [r0, #16]
  /*lint -save -e9087 -e740 [11.3, 1.3] Cast required by list handling.*/
  if (ntp == (thread_t *)&ch.rlist) {
 800db6a:	4b07      	ldr	r3, [pc, #28]	; (800db88 <chRegNextThread+0x28>)
 800db6c:	429c      	cmp	r4, r3
    ntp = NULL;
  }
#if CH_CFG_USE_DYNAMIC == TRUE
  else {
    chDbgAssert(ntp->p_refs < (trefs_t)255, "too many references");
    ntp->p_refs++;
 800db6e:	bf1d      	ittte	ne
 800db70:	7fa3      	ldrbne	r3, [r4, #30]
 800db72:	3301      	addne	r3, #1
 800db74:	77a3      	strbne	r3, [r4, #30]
    ntp = NULL;
 800db76:	2400      	moveq	r4, #0
 800db78:	2300      	movs	r3, #0
 800db7a:	f383 8811 	msr	BASEPRI, r3
  }
#endif
  chSysUnlock();
#if CH_CFG_USE_DYNAMIC == TRUE
  chThdRelease(tp);
 800db7e:	f7ff ffaf 	bl	800dae0 <chThdRelease>
#endif

  return ntp;
}
 800db82:	4620      	mov	r0, r4
 800db84:	bd10      	pop	{r4, pc}
 800db86:	bf00      	nop
 800db88:	200019f0 	.word	0x200019f0
 800db8c:	00000000 	.word	0x00000000

0800db90 <chMtxObjectInit>:
  tqp->p_next = (thread_t *)tqp;
 800db90:	6000      	str	r0, [r0, #0]
  tqp->p_prev = (thread_t *)tqp;
 800db92:	6040      	str	r0, [r0, #4]
void chMtxObjectInit(mutex_t *mp) {

  chDbgCheck(mp != NULL);

  queue_init(&mp->m_queue);
  mp->m_owner = NULL;
 800db94:	2300      	movs	r3, #0
 800db96:	6083      	str	r3, [r0, #8]
#if CH_CFG_USE_MUTEXES_RECURSIVE == TRUE
  mp->m_cnt = (cnt_t)0;
#endif
}
 800db98:	4770      	bx	lr
 800db9a:	bf00      	nop
 800db9c:	0000      	movs	r0, r0
	...

0800dba0 <chMtxLockS>:
 *
 * @param[in] mp        pointer to the @p mutex_t structure
 *
 * @sclass
 */
void chMtxLockS(mutex_t *mp) {
 800dba0:	b570      	push	{r4, r5, r6, lr}
  thread_t *ctp = currp;
 800dba2:	4b33      	ldr	r3, [pc, #204]	; (800dc70 <chMtxLockS+0xd0>)
 800dba4:	699c      	ldr	r4, [r3, #24]

  chDbgCheckClassS();
  chDbgCheck(mp != NULL);

  /* Is the mutex already locked? */
  if (mp->m_owner != NULL) {
 800dba6:	6883      	ldr	r3, [r0, #8]
 800dba8:	2b00      	cmp	r3, #0
 800dbaa:	d05c      	beq.n	800dc66 <chMtxLockS+0xc6>
 800dbac:	4606      	mov	r6, r0
         priority of the running thread requesting the mutex.*/
      thread_t *tp = mp->m_owner;

      /* Does the running thread have higher priority than the mutex
         owning thread? */
      while (tp->p_prio < ctp->p_prio) {
 800dbae:	68a2      	ldr	r2, [r4, #8]
 800dbb0:	6899      	ldr	r1, [r3, #8]
 800dbb2:	4291      	cmp	r1, r2
 800dbb4:	d207      	bcs.n	800dbc6 <chMtxLockS+0x26>
        /* Make priority of thread tp match the running thread's priority.*/
        tp->p_prio = ctp->p_prio;
 800dbb6:	609a      	str	r2, [r3, #8]

        /* The following states need priority queues reordering.*/
        switch (tp->p_state) {
 800dbb8:	7f1a      	ldrb	r2, [r3, #28]
 800dbba:	2a06      	cmp	r2, #6
 800dbbc:	d017      	beq.n	800dbee <chMtxLockS+0x4e>
 800dbbe:	2a07      	cmp	r2, #7
 800dbc0:	d031      	beq.n	800dc26 <chMtxLockS+0x86>
 800dbc2:	2a00      	cmp	r2, #0
 800dbc4:	d045      	beq.n	800dc52 <chMtxLockS+0xb2>
        }
        break;
      }

      /* Sleep on the mutex.*/
      queue_prio_insert(ctp, &mp->m_queue);
 800dbc6:	4635      	mov	r5, r6
  thread_t *cp = (thread_t *)tqp;
 800dbc8:	4633      	mov	r3, r6
    cp = cp->p_next;
 800dbca:	681b      	ldr	r3, [r3, #0]
  } while ((cp != (thread_t *)tqp) && (cp->p_prio >= tp->p_prio));
 800dbcc:	429d      	cmp	r5, r3
 800dbce:	d004      	beq.n	800dbda <chMtxLockS+0x3a>
 800dbd0:	6899      	ldr	r1, [r3, #8]
 800dbd2:	68a2      	ldr	r2, [r4, #8]
 800dbd4:	4291      	cmp	r1, r2
 800dbd6:	d2f8      	bcs.n	800dbca <chMtxLockS+0x2a>
    cp = cp->p_next;
 800dbd8:	461d      	mov	r5, r3
  tp->p_next = cp;
 800dbda:	6025      	str	r5, [r4, #0]
  tp->p_prev = cp->p_prev;
 800dbdc:	686b      	ldr	r3, [r5, #4]
 800dbde:	6063      	str	r3, [r4, #4]
  tp->p_prev->p_next = tp;
 800dbe0:	601c      	str	r4, [r3, #0]
  cp->p_prev = tp;
 800dbe2:	606c      	str	r4, [r5, #4]
      ctp->p_u.wtmtxp = mp;
 800dbe4:	6266      	str	r6, [r4, #36]	; 0x24
      chSchGoSleepS(CH_STATE_WTMTX);
 800dbe6:	2006      	movs	r0, #6
 800dbe8:	f7ff fd72 	bl	800d6d0 <chSchGoSleepS>
    /* It was not owned, inserted in the owned mutexes list.*/
    mp->m_owner = ctp;
    mp->m_next = ctp->p_mtxlist;
    ctp->p_mtxlist = mp;
  }
}
 800dbec:	bd70      	pop	{r4, r5, r6, pc}
  tp->p_prev->p_next = tp->p_next;
 800dbee:	685a      	ldr	r2, [r3, #4]
 800dbf0:	6819      	ldr	r1, [r3, #0]
 800dbf2:	6011      	str	r1, [r2, #0]
  tp->p_next->p_prev = tp->p_prev;
 800dbf4:	681a      	ldr	r2, [r3, #0]
 800dbf6:	6859      	ldr	r1, [r3, #4]
 800dbf8:	6051      	str	r1, [r2, #4]
          queue_prio_insert(queue_dequeue(tp), &tp->p_u.wtmtxp->m_queue);
 800dbfa:	6a5d      	ldr	r5, [r3, #36]	; 0x24
  thread_t *cp = (thread_t *)tqp;
 800dbfc:	462a      	mov	r2, r5
    cp = cp->p_next;
 800dbfe:	6812      	ldr	r2, [r2, #0]
  } while ((cp != (thread_t *)tqp) && (cp->p_prio >= tp->p_prio));
 800dc00:	4295      	cmp	r5, r2
 800dc02:	d004      	beq.n	800dc0e <chMtxLockS+0x6e>
 800dc04:	6890      	ldr	r0, [r2, #8]
 800dc06:	6899      	ldr	r1, [r3, #8]
 800dc08:	4288      	cmp	r0, r1
 800dc0a:	d2f8      	bcs.n	800dbfe <chMtxLockS+0x5e>
    cp = cp->p_next;
 800dc0c:	4615      	mov	r5, r2
  tp->p_next = cp;
 800dc0e:	601d      	str	r5, [r3, #0]
  tp->p_prev = cp->p_prev;
 800dc10:	686a      	ldr	r2, [r5, #4]
 800dc12:	605a      	str	r2, [r3, #4]
  tp->p_prev->p_next = tp;
 800dc14:	6013      	str	r3, [r2, #0]
  cp->p_prev = tp;
 800dc16:	606b      	str	r3, [r5, #4]
          tp = tp->p_u.wtmtxp->m_owner;
 800dc18:	6a5b      	ldr	r3, [r3, #36]	; 0x24
 800dc1a:	689b      	ldr	r3, [r3, #8]
      while (tp->p_prio < ctp->p_prio) {
 800dc1c:	68a2      	ldr	r2, [r4, #8]
 800dc1e:	6899      	ldr	r1, [r3, #8]
 800dc20:	4291      	cmp	r1, r2
 800dc22:	d3c8      	bcc.n	800dbb6 <chMtxLockS+0x16>
 800dc24:	e7cf      	b.n	800dbc6 <chMtxLockS+0x26>
  tp->p_prev->p_next = tp->p_next;
 800dc26:	685a      	ldr	r2, [r3, #4]
 800dc28:	6819      	ldr	r1, [r3, #0]
 800dc2a:	6011      	str	r1, [r2, #0]
  tp->p_next->p_prev = tp->p_prev;
 800dc2c:	681a      	ldr	r2, [r3, #0]
 800dc2e:	6859      	ldr	r1, [r3, #4]
 800dc30:	6051      	str	r1, [r2, #4]
          queue_prio_insert(queue_dequeue(tp), &tp->p_u.wtmtxp->m_queue);
 800dc32:	6a5d      	ldr	r5, [r3, #36]	; 0x24
  thread_t *cp = (thread_t *)tqp;
 800dc34:	462a      	mov	r2, r5
    cp = cp->p_next;
 800dc36:	6812      	ldr	r2, [r2, #0]
  } while ((cp != (thread_t *)tqp) && (cp->p_prio >= tp->p_prio));
 800dc38:	4295      	cmp	r5, r2
 800dc3a:	d004      	beq.n	800dc46 <chMtxLockS+0xa6>
 800dc3c:	6890      	ldr	r0, [r2, #8]
 800dc3e:	6899      	ldr	r1, [r3, #8]
 800dc40:	4288      	cmp	r0, r1
 800dc42:	d2f8      	bcs.n	800dc36 <chMtxLockS+0x96>
    cp = cp->p_next;
 800dc44:	4615      	mov	r5, r2
  tp->p_next = cp;
 800dc46:	601d      	str	r5, [r3, #0]
  tp->p_prev = cp->p_prev;
 800dc48:	686a      	ldr	r2, [r5, #4]
 800dc4a:	605a      	str	r2, [r3, #4]
  tp->p_prev->p_next = tp;
 800dc4c:	6013      	str	r3, [r2, #0]
  cp->p_prev = tp;
 800dc4e:	606b      	str	r3, [r5, #4]
 800dc50:	e7b9      	b.n	800dbc6 <chMtxLockS+0x26>
  tp->p_prev->p_next = tp->p_next;
 800dc52:	685a      	ldr	r2, [r3, #4]
 800dc54:	6819      	ldr	r1, [r3, #0]
 800dc56:	6011      	str	r1, [r2, #0]
  tp->p_next->p_prev = tp->p_prev;
 800dc58:	681a      	ldr	r2, [r3, #0]
 800dc5a:	6859      	ldr	r1, [r3, #4]
 800dc5c:	6051      	str	r1, [r2, #4]
          (void) chSchReadyI(queue_dequeue(tp));
 800dc5e:	4618      	mov	r0, r3
 800dc60:	f7ff fcfe 	bl	800d660 <chSchReadyI>
          break;
 800dc64:	e7af      	b.n	800dbc6 <chMtxLockS+0x26>
    mp->m_owner = ctp;
 800dc66:	6084      	str	r4, [r0, #8]
    mp->m_next = ctp->p_mtxlist;
 800dc68:	6be3      	ldr	r3, [r4, #60]	; 0x3c
 800dc6a:	60c3      	str	r3, [r0, #12]
    ctp->p_mtxlist = mp;
 800dc6c:	63e0      	str	r0, [r4, #60]	; 0x3c
}
 800dc6e:	e7bd      	b.n	800dbec <chMtxLockS+0x4c>
 800dc70:	200019f0 	.word	0x200019f0
	...

0800dc80 <chMtxLock>:
void chMtxLock(mutex_t *mp) {
 800dc80:	b508      	push	{r3, lr}
 800dc82:	2320      	movs	r3, #32
 800dc84:	f383 8811 	msr	BASEPRI, r3
  chMtxLockS(mp);
 800dc88:	f7ff ff8a 	bl	800dba0 <chMtxLockS>
 800dc8c:	2300      	movs	r3, #0
 800dc8e:	f383 8811 	msr	BASEPRI, r3
}
 800dc92:	bd08      	pop	{r3, pc}
	...

0800dca0 <chMtxUnlock>:
 *
 * @param[in] mp        pointer to the @p mutex_t structure
 *
 * @api
 */
void chMtxUnlock(mutex_t *mp) {
 800dca0:	b510      	push	{r4, lr}
  thread_t *ctp = currp;
 800dca2:	4b16      	ldr	r3, [pc, #88]	; (800dcfc <chMtxUnlock+0x5c>)
 800dca4:	699c      	ldr	r4, [r3, #24]
 800dca6:	2320      	movs	r3, #32
 800dca8:	f383 8811 	msr	BASEPRI, r3
    chDbgAssert(ctp->p_mtxlist == mp, "not next in list");

    /* Removes the top mutex from the thread's owned mutexes list and marks
       it as not owned. Note, it is assumed to be the same mutex passed as
       parameter of this function.*/
    ctp->p_mtxlist = mp->m_next;
 800dcac:	68c3      	ldr	r3, [r0, #12]
 800dcae:	63e3      	str	r3, [r4, #60]	; 0x3c

    /* If a thread is waiting on the mutex then the fun part begins.*/
    if (chMtxQueueNotEmptyS(mp)) {
 800dcb0:	6802      	ldr	r2, [r0, #0]
 800dcb2:	4282      	cmp	r2, r0
 800dcb4:	d01e      	beq.n	800dcf4 <chMtxUnlock+0x54>
      thread_t *tp;

      /* Recalculates the optimal thread priority by scanning the owned
         mutexes list.*/
      tprio_t newprio = ctp->p_realprio;
 800dcb6:	6c21      	ldr	r1, [r4, #64]	; 0x40
      lmp = ctp->p_mtxlist;
      while (lmp != NULL) {
 800dcb8:	b9a3      	cbnz	r3, 800dce4 <chMtxUnlock+0x44>
 800dcba:	4603      	mov	r3, r0
        lmp = lmp->m_next;
      }

      /* Assigns to the current thread the highest priority among all the
         waiting threads.*/
      ctp->p_prio = newprio;
 800dcbc:	60a1      	str	r1, [r4, #8]
  thread_t *tp = tqp->p_next;
 800dcbe:	6800      	ldr	r0, [r0, #0]
  tqp->p_next = tp->p_next;
 800dcc0:	6802      	ldr	r2, [r0, #0]
 800dcc2:	601a      	str	r2, [r3, #0]
  tqp->p_next->p_prev = (thread_t *)tqp;
 800dcc4:	6053      	str	r3, [r2, #4]
         assigns the mutex to it.*/
#if CH_CFG_USE_MUTEXES_RECURSIVE == TRUE
      mp->m_cnt = (cnt_t)1;
#endif
      tp = queue_fifo_remove(&mp->m_queue);
      mp->m_owner = tp;
 800dcc6:	6098      	str	r0, [r3, #8]
      mp->m_next = tp->p_mtxlist;
 800dcc8:	6bc2      	ldr	r2, [r0, #60]	; 0x3c
 800dcca:	60da      	str	r2, [r3, #12]
      tp->p_mtxlist = mp;
 800dccc:	63c3      	str	r3, [r0, #60]	; 0x3c

      /* Note, not using chSchWakeupS() becuase that function expects the
         current thread to have the higher or equal priority than the ones
         in the ready list. This is not necessarily true here because we
         just changed priority.*/
      (void) chSchReadyI(tp);
 800dcce:	f7ff fcc7 	bl	800d660 <chSchReadyI>
      chSchRescheduleS();
 800dcd2:	f7ff fda5 	bl	800d820 <chSchRescheduleS>
 800dcd6:	2300      	movs	r3, #0
 800dcd8:	f383 8811 	msr	BASEPRI, r3
#if CH_CFG_USE_MUTEXES_RECURSIVE == TRUE
  }
#endif

  chSysUnlock();
}
 800dcdc:	bd10      	pop	{r4, pc}
        lmp = lmp->m_next;
 800dcde:	68db      	ldr	r3, [r3, #12]
      while (lmp != NULL) {
 800dce0:	2b00      	cmp	r3, #0
 800dce2:	d0ea      	beq.n	800dcba <chMtxUnlock+0x1a>
  return (bool)(tqp->p_next != (const thread_t *)tqp);
 800dce4:	681a      	ldr	r2, [r3, #0]
        if (chMtxQueueNotEmptyS(lmp) &&
 800dce6:	4293      	cmp	r3, r2
 800dce8:	d0f9      	beq.n	800dcde <chMtxUnlock+0x3e>
 800dcea:	6892      	ldr	r2, [r2, #8]
 800dcec:	4291      	cmp	r1, r2
 800dcee:	bf38      	it	cc
 800dcf0:	4611      	movcc	r1, r2
 800dcf2:	e7f4      	b.n	800dcde <chMtxUnlock+0x3e>
      mp->m_owner = NULL;
 800dcf4:	2300      	movs	r3, #0
 800dcf6:	6083      	str	r3, [r0, #8]
 800dcf8:	e7ed      	b.n	800dcd6 <chMtxUnlock+0x36>
 800dcfa:	bf00      	nop
 800dcfc:	200019f0 	.word	0x200019f0

0800dd00 <chEvtSignalI>:
 * @param[in] tp        the thread to be signaled
 * @param[in] events    the events set to be ORed
 *
 * @iclass
 */
void chEvtSignalI(thread_t *tp, eventmask_t events) {
 800dd00:	b508      	push	{r3, lr}

  chDbgCheckClassI();
  chDbgCheck(tp != NULL);

  tp->p_epending |= events;
 800dd02:	6b83      	ldr	r3, [r0, #56]	; 0x38
 800dd04:	4319      	orrs	r1, r3
 800dd06:	6381      	str	r1, [r0, #56]	; 0x38
  /* Test on the AND/OR conditions wait states.*/
  if (((tp->p_state == CH_STATE_WTOREVT) &&
 800dd08:	7f03      	ldrb	r3, [r0, #28]
 800dd0a:	2b0a      	cmp	r3, #10
 800dd0c:	d002      	beq.n	800dd14 <chEvtSignalI+0x14>
       ((tp->p_epending & tp->p_u.ewmask) != (eventmask_t)0)) ||
 800dd0e:	2b0b      	cmp	r3, #11
 800dd10:	d008      	beq.n	800dd24 <chEvtSignalI+0x24>
      ((tp->p_state == CH_STATE_WTANDEVT) &&
       ((tp->p_epending & tp->p_u.ewmask) == tp->p_u.ewmask))) {
    tp->p_u.rdymsg = MSG_OK;
    (void) chSchReadyI(tp);
  }
}
 800dd12:	bd08      	pop	{r3, pc}
       ((tp->p_epending & tp->p_u.ewmask) != (eventmask_t)0)) ||
 800dd14:	6a43      	ldr	r3, [r0, #36]	; 0x24
  if (((tp->p_state == CH_STATE_WTOREVT) &&
 800dd16:	4219      	tst	r1, r3
 800dd18:	d0fb      	beq.n	800dd12 <chEvtSignalI+0x12>
    tp->p_u.rdymsg = MSG_OK;
 800dd1a:	2300      	movs	r3, #0
 800dd1c:	6243      	str	r3, [r0, #36]	; 0x24
    (void) chSchReadyI(tp);
 800dd1e:	f7ff fc9f 	bl	800d660 <chSchReadyI>
}
 800dd22:	e7f6      	b.n	800dd12 <chEvtSignalI+0x12>
       ((tp->p_epending & tp->p_u.ewmask) == tp->p_u.ewmask))) {
 800dd24:	6a43      	ldr	r3, [r0, #36]	; 0x24
      ((tp->p_state == CH_STATE_WTANDEVT) &&
 800dd26:	438b      	bics	r3, r1
 800dd28:	d1f3      	bne.n	800dd12 <chEvtSignalI+0x12>
 800dd2a:	e7f6      	b.n	800dd1a <chEvtSignalI+0x1a>
 800dd2c:	0000      	movs	r0, r0
	...

0800dd30 <chEvtBroadcastFlagsI>:
void chEvtBroadcastFlagsI(event_source_t *esp, eventflags_t flags) {
 800dd30:	b570      	push	{r4, r5, r6, lr}
 800dd32:	4606      	mov	r6, r0
 800dd34:	460d      	mov	r5, r1
  elp = esp->es_next;
 800dd36:	6804      	ldr	r4, [r0, #0]
  while (elp != (event_listener_t *)esp) {
 800dd38:	42a0      	cmp	r0, r4
 800dd3a:	d107      	bne.n	800dd4c <chEvtBroadcastFlagsI+0x1c>
}
 800dd3c:	bd70      	pop	{r4, r5, r6, pc}
      chEvtSignalI(elp->el_listener, elp->el_events);
 800dd3e:	68a1      	ldr	r1, [r4, #8]
 800dd40:	6860      	ldr	r0, [r4, #4]
 800dd42:	f7ff ffdd 	bl	800dd00 <chEvtSignalI>
    elp = elp->el_next;
 800dd46:	6824      	ldr	r4, [r4, #0]
  while (elp != (event_listener_t *)esp) {
 800dd48:	42a6      	cmp	r6, r4
 800dd4a:	d0f7      	beq.n	800dd3c <chEvtBroadcastFlagsI+0xc>
    elp->el_flags |= flags;
 800dd4c:	68e3      	ldr	r3, [r4, #12]
 800dd4e:	432b      	orrs	r3, r5
 800dd50:	60e3      	str	r3, [r4, #12]
    if ((flags == (eventflags_t)0) ||
 800dd52:	2d00      	cmp	r5, #0
 800dd54:	d0f3      	beq.n	800dd3e <chEvtBroadcastFlagsI+0xe>
        ((elp->el_flags & elp->el_wflags) != (eventflags_t)0)) {
 800dd56:	6922      	ldr	r2, [r4, #16]
    if ((flags == (eventflags_t)0) ||
 800dd58:	4213      	tst	r3, r2
 800dd5a:	d0f4      	beq.n	800dd46 <chEvtBroadcastFlagsI+0x16>
 800dd5c:	e7ef      	b.n	800dd3e <chEvtBroadcastFlagsI+0xe>
 800dd5e:	bf00      	nop

0800dd60 <chEvtSignal>:
void chEvtSignal(thread_t *tp, eventmask_t events) {
 800dd60:	b508      	push	{r3, lr}
 800dd62:	2320      	movs	r3, #32
 800dd64:	f383 8811 	msr	BASEPRI, r3
  chEvtSignalI(tp, events);
 800dd68:	f7ff ffca 	bl	800dd00 <chEvtSignalI>
  chSchRescheduleS();
 800dd6c:	f7ff fd58 	bl	800d820 <chSchRescheduleS>
 800dd70:	2300      	movs	r3, #0
 800dd72:	f383 8811 	msr	BASEPRI, r3
}
 800dd76:	bd08      	pop	{r3, pc}
	...

0800dd80 <chEvtWaitAny>:
 *                      for, @p ALL_EVENTS enables all the events
 * @return              The mask of the served and cleared events.
 *
 * @api
 */
eventmask_t chEvtWaitAny(eventmask_t events) {
 800dd80:	b538      	push	{r3, r4, r5, lr}
  thread_t *ctp = currp;
 800dd82:	4b0c      	ldr	r3, [pc, #48]	; (800ddb4 <chEvtWaitAny+0x34>)
 800dd84:	699c      	ldr	r4, [r3, #24]
 800dd86:	2320      	movs	r3, #32
 800dd88:	f383 8811 	msr	BASEPRI, r3
  eventmask_t m;

  chSysLock();
  m = ctp->p_epending & events;
 800dd8c:	6ba3      	ldr	r3, [r4, #56]	; 0x38
  if (m == (eventmask_t)0) {
 800dd8e:	4003      	ands	r3, r0
 800dd90:	d008      	beq.n	800dda4 <chEvtWaitAny+0x24>
    ctp->p_u.ewmask = events;
    chSchGoSleepS(CH_STATE_WTOREVT);
    m = ctp->p_epending & events;
  }
  ctp->p_epending &= ~m;
 800dd92:	6ba2      	ldr	r2, [r4, #56]	; 0x38
 800dd94:	ea22 0203 	bic.w	r2, r2, r3
 800dd98:	63a2      	str	r2, [r4, #56]	; 0x38
 800dd9a:	2200      	movs	r2, #0
 800dd9c:	f382 8811 	msr	BASEPRI, r2
  chSysUnlock();

  return m;
}
 800dda0:	4618      	mov	r0, r3
 800dda2:	bd38      	pop	{r3, r4, r5, pc}
 800dda4:	4605      	mov	r5, r0
    ctp->p_u.ewmask = events;
 800dda6:	6260      	str	r0, [r4, #36]	; 0x24
    chSchGoSleepS(CH_STATE_WTOREVT);
 800dda8:	200a      	movs	r0, #10
 800ddaa:	f7ff fc91 	bl	800d6d0 <chSchGoSleepS>
    m = ctp->p_epending & events;
 800ddae:	6ba3      	ldr	r3, [r4, #56]	; 0x38
 800ddb0:	402b      	ands	r3, r5
 800ddb2:	e7ee      	b.n	800dd92 <chEvtWaitAny+0x12>
 800ddb4:	200019f0 	.word	0x200019f0
	...

0800ddc0 <chIQObjectInit>:
 * @param[in] link      application defined pointer
 *
 * @init
 */
void chIQObjectInit(input_queue_t *iqp, uint8_t *bp, size_t size,
                    qnotify_t infy, void *link) {
 800ddc0:	b410      	push	{r4}
  tqp->p_next = (thread_t *)tqp;
 800ddc2:	6000      	str	r0, [r0, #0]
  tqp->p_prev = (thread_t *)tqp;
 800ddc4:	6040      	str	r0, [r0, #4]

  chThdQueueObjectInit(&iqp->q_waiting);
  iqp->q_counter = 0;
 800ddc6:	2400      	movs	r4, #0
 800ddc8:	6084      	str	r4, [r0, #8]
  iqp->q_buffer  = bp;
 800ddca:	60c1      	str	r1, [r0, #12]
  iqp->q_rdptr   = bp;
 800ddcc:	6181      	str	r1, [r0, #24]
  iqp->q_wrptr   = bp;
 800ddce:	6141      	str	r1, [r0, #20]
  iqp->q_top     = bp + size;
 800ddd0:	440a      	add	r2, r1
 800ddd2:	6102      	str	r2, [r0, #16]
  iqp->q_notify  = infy;
 800ddd4:	61c3      	str	r3, [r0, #28]
  iqp->q_link    = link;
 800ddd6:	9b01      	ldr	r3, [sp, #4]
 800ddd8:	6203      	str	r3, [r0, #32]
}
 800ddda:	f85d 4b04 	ldr.w	r4, [sp], #4
 800ddde:	4770      	bx	lr

0800dde0 <chIQResetI>:
 *
 * @param[in] iqp       pointer to an @p input_queue_t structure
 *
 * @iclass
 */
void chIQResetI(input_queue_t *iqp) {
 800dde0:	b508      	push	{r3, lr}

  chDbgCheckClassI();

  iqp->q_rdptr = iqp->q_buffer;
 800dde2:	68c2      	ldr	r2, [r0, #12]
 800dde4:	6182      	str	r2, [r0, #24]
  iqp->q_wrptr = iqp->q_buffer;
 800dde6:	6142      	str	r2, [r0, #20]
  iqp->q_counter = 0;
 800dde8:	2200      	movs	r2, #0
 800ddea:	6082      	str	r2, [r0, #8]
  chThdDequeueAllI(&iqp->q_waiting, Q_RESET);
 800ddec:	f06f 0101 	mvn.w	r1, #1
 800ddf0:	f7ff fe0e 	bl	800da10 <chThdDequeueAllI>
}
 800ddf4:	bd08      	pop	{r3, pc}
 800ddf6:	bf00      	nop
	...

0800de00 <chIQGetTimeout>:
 * @retval Q_TIMEOUT    if the specified time expired.
 * @retval Q_RESET      if the queue has been reset.
 *
 * @api
 */
msg_t chIQGetTimeout(input_queue_t *iqp, systime_t timeout) {
 800de00:	b538      	push	{r3, r4, r5, lr}
 800de02:	4604      	mov	r4, r0
 800de04:	460d      	mov	r5, r1
 800de06:	2320      	movs	r3, #32
 800de08:	f383 8811 	msr	BASEPRI, r3
  uint8_t b;

  chSysLock();
  if (iqp->q_notify != NULL) {
 800de0c:	69c3      	ldr	r3, [r0, #28]
 800de0e:	b103      	cbz	r3, 800de12 <chIQGetTimeout+0x12>
    iqp->q_notify(iqp);
 800de10:	4798      	blx	r3
 */
static inline bool chIQIsEmptyI(input_queue_t *iqp) {

  chDbgCheckClassI();

  return (bool)(chQSpaceI(iqp) == 0U);
 800de12:	68a3      	ldr	r3, [r4, #8]
  }

  while (chIQIsEmptyI(iqp)) {
 800de14:	b94b      	cbnz	r3, 800de2a <chIQGetTimeout+0x2a>
    msg_t msg = chThdEnqueueTimeoutS(&iqp->q_waiting, timeout);
 800de16:	4629      	mov	r1, r5
 800de18:	4620      	mov	r0, r4
 800de1a:	f7ff fde1 	bl	800d9e0 <chThdEnqueueTimeoutS>
    if (msg < Q_OK) {
 800de1e:	2800      	cmp	r0, #0
 800de20:	daf7      	bge.n	800de12 <chIQGetTimeout+0x12>
 800de22:	2300      	movs	r3, #0
 800de24:	f383 8811 	msr	BASEPRI, r3
      chSysUnlock();
      return msg;
 800de28:	e00e      	b.n	800de48 <chIQGetTimeout+0x48>
    }
  }

  iqp->q_counter--;
 800de2a:	68a3      	ldr	r3, [r4, #8]
 800de2c:	3b01      	subs	r3, #1
 800de2e:	60a3      	str	r3, [r4, #8]
  b = *iqp->q_rdptr++;
 800de30:	69a2      	ldr	r2, [r4, #24]
 800de32:	1c53      	adds	r3, r2, #1
 800de34:	61a3      	str	r3, [r4, #24]
 800de36:	7810      	ldrb	r0, [r2, #0]
  if (iqp->q_rdptr >= iqp->q_top) {
 800de38:	6922      	ldr	r2, [r4, #16]
 800de3a:	4293      	cmp	r3, r2
    iqp->q_rdptr = iqp->q_buffer;
 800de3c:	bf24      	itt	cs
 800de3e:	68e3      	ldrcs	r3, [r4, #12]
 800de40:	61a3      	strcs	r3, [r4, #24]
 800de42:	2300      	movs	r3, #0
 800de44:	f383 8811 	msr	BASEPRI, r3
  }
  chSysUnlock();

  return (msg_t)b;
}
 800de48:	bd38      	pop	{r3, r4, r5, pc}
 800de4a:	bf00      	nop
 800de4c:	0000      	movs	r0, r0
	...

0800de50 <chIQReadTimeout>:
 * @return              The number of bytes effectively transferred.
 *
 * @api
 */
size_t chIQReadTimeout(input_queue_t *iqp, uint8_t *bp,
                       size_t n, systime_t timeout) {
 800de50:	e92d 4ff8 	stmdb	sp!, {r3, r4, r5, r6, r7, r8, r9, sl, fp, lr}
 800de54:	4604      	mov	r4, r0
 800de56:	4688      	mov	r8, r1
 800de58:	4692      	mov	sl, r2
 800de5a:	461d      	mov	r5, r3
  qnotify_t nfy = iqp->q_notify;
 800de5c:	69c7      	ldr	r7, [r0, #28]
 800de5e:	2320      	movs	r3, #32
 800de60:	f383 8811 	msr	BASEPRI, r3
  size_t r = 0;
 800de64:	2600      	movs	r6, #0
 800de66:	46b1      	mov	r9, r6
 800de68:	469b      	mov	fp, r3

  chDbgCheck(n > 0U);

  chSysLock();
  while (true) {
    if (nfy != NULL) {
 800de6a:	b10f      	cbz	r7, 800de70 <chIQReadTimeout+0x20>
      nfy(iqp);
 800de6c:	4620      	mov	r0, r4
 800de6e:	47b8      	blx	r7
 800de70:	68a3      	ldr	r3, [r4, #8]
    }

    while (chIQIsEmptyI(iqp)) {
 800de72:	b95b      	cbnz	r3, 800de8c <chIQReadTimeout+0x3c>
      if (chThdEnqueueTimeoutS(&iqp->q_waiting, timeout) != Q_OK) {
 800de74:	4629      	mov	r1, r5
 800de76:	4620      	mov	r0, r4
 800de78:	f7ff fdb2 	bl	800d9e0 <chThdEnqueueTimeoutS>
 800de7c:	2800      	cmp	r0, #0
 800de7e:	d0f7      	beq.n	800de70 <chIQReadTimeout+0x20>
 800de80:	2300      	movs	r3, #0
 800de82:	f383 8811 	msr	BASEPRI, r3
      return r;
    }

    chSysLock();
  }
}
 800de86:	4630      	mov	r0, r6
 800de88:	e8bd 8ff8 	ldmia.w	sp!, {r3, r4, r5, r6, r7, r8, r9, sl, fp, pc}
    iqp->q_counter--;
 800de8c:	68a3      	ldr	r3, [r4, #8]
 800de8e:	3b01      	subs	r3, #1
 800de90:	60a3      	str	r3, [r4, #8]
    *bp++ = *iqp->q_rdptr++;
 800de92:	69a3      	ldr	r3, [r4, #24]
 800de94:	1c5a      	adds	r2, r3, #1
 800de96:	61a2      	str	r2, [r4, #24]
 800de98:	781b      	ldrb	r3, [r3, #0]
 800de9a:	f808 3b01 	strb.w	r3, [r8], #1
    if (iqp->q_rdptr >= iqp->q_top) {
 800de9e:	69a2      	ldr	r2, [r4, #24]
 800dea0:	6923      	ldr	r3, [r4, #16]
 800dea2:	429a      	cmp	r2, r3
      iqp->q_rdptr = iqp->q_buffer;
 800dea4:	bf24      	itt	cs
 800dea6:	68e3      	ldrcs	r3, [r4, #12]
 800dea8:	61a3      	strcs	r3, [r4, #24]
 800deaa:	f389 8811 	msr	BASEPRI, r9
    r++;
 800deae:	3601      	adds	r6, #1
    if (--n == 0U) {
 800deb0:	45b2      	cmp	sl, r6
 800deb2:	d0e8      	beq.n	800de86 <chIQReadTimeout+0x36>
 800deb4:	f38b 8811 	msr	BASEPRI, fp
 800deb8:	e7d7      	b.n	800de6a <chIQReadTimeout+0x1a>
 800deba:	bf00      	nop
 800debc:	0000      	movs	r0, r0
	...

0800dec0 <chOQObjectInit>:
  tqp->p_next = (thread_t *)tqp;
 800dec0:	6000      	str	r0, [r0, #0]
  tqp->p_prev = (thread_t *)tqp;
 800dec2:	6040      	str	r0, [r0, #4]
 */
void chOQObjectInit(output_queue_t *oqp, uint8_t *bp, size_t size,
                    qnotify_t onfy, void *link) {

  chThdQueueObjectInit(&oqp->q_waiting);
  oqp->q_counter = size;
 800dec4:	6082      	str	r2, [r0, #8]
  oqp->q_buffer  = bp;
 800dec6:	60c1      	str	r1, [r0, #12]
  oqp->q_rdptr   = bp;
 800dec8:	6181      	str	r1, [r0, #24]
  oqp->q_wrptr   = bp;
 800deca:	6141      	str	r1, [r0, #20]
  oqp->q_top     = bp + size;
 800decc:	4411      	add	r1, r2
 800dece:	6101      	str	r1, [r0, #16]
  oqp->q_notify  = onfy;
 800ded0:	61c3      	str	r3, [r0, #28]
  oqp->q_link    = link;
 800ded2:	9b00      	ldr	r3, [sp, #0]
 800ded4:	6203      	str	r3, [r0, #32]
}
 800ded6:	4770      	bx	lr
	...

0800dee0 <chOQResetI>:
 *
 * @param[in] oqp       pointer to an @p output_queue_t structure
 *
 * @iclass
 */
void chOQResetI(output_queue_t *oqp) {
 800dee0:	b508      	push	{r3, lr}

  chDbgCheckClassI();

  oqp->q_rdptr = oqp->q_buffer;
 800dee2:	68c1      	ldr	r1, [r0, #12]
 800dee4:	6181      	str	r1, [r0, #24]
  oqp->q_wrptr = oqp->q_buffer;
 800dee6:	6141      	str	r1, [r0, #20]
  oqp->q_counter = chQSizeX(oqp);
 800dee8:	6902      	ldr	r2, [r0, #16]
 800deea:	1a52      	subs	r2, r2, r1
 800deec:	6082      	str	r2, [r0, #8]
  chThdDequeueAllI(&oqp->q_waiting, Q_RESET);
 800deee:	f06f 0101 	mvn.w	r1, #1
 800def2:	f7ff fd8d 	bl	800da10 <chThdDequeueAllI>
}
 800def6:	bd08      	pop	{r3, pc}
	...

0800df00 <chOQPutTimeout>:
 * @retval Q_TIMEOUT    if the specified time expired.
 * @retval Q_RESET      if the queue has been reset.
 *
 * @api
 */
msg_t chOQPutTimeout(output_queue_t *oqp, uint8_t b, systime_t timeout) {
 800df00:	b570      	push	{r4, r5, r6, lr}
 800df02:	4604      	mov	r4, r0
 800df04:	460e      	mov	r6, r1
 800df06:	4615      	mov	r5, r2
 800df08:	2320      	movs	r3, #32
 800df0a:	f383 8811 	msr	BASEPRI, r3
 */
static inline bool chOQIsFullI(output_queue_t *oqp) {

  chDbgCheckClassI();

  return (bool)(chQSpaceI(oqp) == 0U);
 800df0e:	68a3      	ldr	r3, [r4, #8]

  chSysLock();
  while (chOQIsFullI(oqp)) {
 800df10:	b94b      	cbnz	r3, 800df26 <chOQPutTimeout+0x26>
    msg_t msg = chThdEnqueueTimeoutS(&oqp->q_waiting, timeout);
 800df12:	4629      	mov	r1, r5
 800df14:	4620      	mov	r0, r4
 800df16:	f7ff fd63 	bl	800d9e0 <chThdEnqueueTimeoutS>
    if (msg < Q_OK) {
 800df1a:	2800      	cmp	r0, #0
 800df1c:	daf7      	bge.n	800df0e <chOQPutTimeout+0xe>
 800df1e:	2300      	movs	r3, #0
 800df20:	f383 8811 	msr	BASEPRI, r3
      chSysUnlock();
      return msg;
 800df24:	e013      	b.n	800df4e <chOQPutTimeout+0x4e>
    }
  }

  oqp->q_counter--;
 800df26:	68a3      	ldr	r3, [r4, #8]
 800df28:	3b01      	subs	r3, #1
 800df2a:	60a3      	str	r3, [r4, #8]
  *oqp->q_wrptr++ = b;
 800df2c:	6963      	ldr	r3, [r4, #20]
 800df2e:	1c5a      	adds	r2, r3, #1
 800df30:	6162      	str	r2, [r4, #20]
 800df32:	701e      	strb	r6, [r3, #0]
  if (oqp->q_wrptr >= oqp->q_top) {
 800df34:	6962      	ldr	r2, [r4, #20]
 800df36:	6923      	ldr	r3, [r4, #16]
 800df38:	429a      	cmp	r2, r3
    oqp->q_wrptr = oqp->q_buffer;
 800df3a:	bf24      	itt	cs
 800df3c:	68e3      	ldrcs	r3, [r4, #12]
 800df3e:	6163      	strcs	r3, [r4, #20]
  }

  if (oqp->q_notify != NULL) {
 800df40:	69e3      	ldr	r3, [r4, #28]
 800df42:	b10b      	cbz	r3, 800df48 <chOQPutTimeout+0x48>
    oqp->q_notify(oqp);
 800df44:	4620      	mov	r0, r4
 800df46:	4798      	blx	r3
 800df48:	2000      	movs	r0, #0
 800df4a:	f380 8811 	msr	BASEPRI, r0
  }
  chSysUnlock();

  return Q_OK;
}
 800df4e:	bd70      	pop	{r4, r5, r6, pc}

0800df50 <chOQWriteTimeout>:
 * @return              The number of bytes effectively transferred.
 *
 * @api
 */
size_t chOQWriteTimeout(output_queue_t *oqp, const uint8_t *bp,
                        size_t n, systime_t timeout) {
 800df50:	e92d 4ff0 	stmdb	sp!, {r4, r5, r6, r7, r8, r9, sl, fp, lr}
 800df54:	b083      	sub	sp, #12
 800df56:	4604      	mov	r4, r0
 800df58:	460e      	mov	r6, r1
 800df5a:	4615      	mov	r5, r2
 800df5c:	9301      	str	r3, [sp, #4]
  qnotify_t nfy = oqp->q_notify;
 800df5e:	f8d0 801c 	ldr.w	r8, [r0, #28]
 800df62:	2320      	movs	r3, #32
 800df64:	f383 8811 	msr	BASEPRI, r3
  size_t w = 0;
 800df68:	2700      	movs	r7, #0
 800df6a:	46ba      	mov	sl, r7
 800df6c:	469b      	mov	fp, r3
 800df6e:	e004      	b.n	800df7a <chOQWriteTimeout+0x2a>
  chDbgCheck(n > 0U);

  chSysLock();
  while (true) {
    while (chOQIsFullI(oqp)) {
      if (chThdEnqueueTimeoutS(&oqp->q_waiting, timeout) != Q_OK) {
 800df70:	9901      	ldr	r1, [sp, #4]
 800df72:	4620      	mov	r0, r4
 800df74:	f7ff fd34 	bl	800d9e0 <chThdEnqueueTimeoutS>
 800df78:	bb00      	cbnz	r0, 800dfbc <chOQWriteTimeout+0x6c>
 800df7a:	68a3      	ldr	r3, [r4, #8]
    while (chOQIsFullI(oqp)) {
 800df7c:	2b00      	cmp	r3, #0
 800df7e:	d0f7      	beq.n	800df70 <chOQWriteTimeout+0x20>
        chSysUnlock();
        return w;
      }
    }
    
    oqp->q_counter--;
 800df80:	68a3      	ldr	r3, [r4, #8]
 800df82:	3b01      	subs	r3, #1
 800df84:	60a3      	str	r3, [r4, #8]
    *oqp->q_wrptr++ = *bp++;
 800df86:	f106 0901 	add.w	r9, r6, #1
 800df8a:	6963      	ldr	r3, [r4, #20]
 800df8c:	1c5a      	adds	r2, r3, #1
 800df8e:	6162      	str	r2, [r4, #20]
 800df90:	7832      	ldrb	r2, [r6, #0]
 800df92:	701a      	strb	r2, [r3, #0]
    if (oqp->q_wrptr >= oqp->q_top) {
 800df94:	6962      	ldr	r2, [r4, #20]
 800df96:	6923      	ldr	r3, [r4, #16]
 800df98:	429a      	cmp	r2, r3
      oqp->q_wrptr = oqp->q_buffer;
 800df9a:	bf24      	itt	cs
 800df9c:	68e3      	ldrcs	r3, [r4, #12]
 800df9e:	6163      	strcs	r3, [r4, #20]
    }

    if (nfy != NULL) {
 800dfa0:	f1b8 0f00 	cmp.w	r8, #0
 800dfa4:	d001      	beq.n	800dfaa <chOQWriteTimeout+0x5a>
      nfy(oqp);
 800dfa6:	4620      	mov	r0, r4
 800dfa8:	47c0      	blx	r8
 800dfaa:	f38a 8811 	msr	BASEPRI, sl
    }
    chSysUnlock(); /* Gives a preemption chance in a controlled point.*/

    w++;
 800dfae:	3701      	adds	r7, #1
    if (--n == 0U) {
 800dfb0:	3d01      	subs	r5, #1
 800dfb2:	d006      	beq.n	800dfc2 <chOQWriteTimeout+0x72>
 800dfb4:	f38b 8811 	msr	BASEPRI, fp
    *oqp->q_wrptr++ = *bp++;
 800dfb8:	464e      	mov	r6, r9
 800dfba:	e7de      	b.n	800df7a <chOQWriteTimeout+0x2a>
 800dfbc:	2300      	movs	r3, #0
 800dfbe:	f383 8811 	msr	BASEPRI, r3
      return w;
    }
    chSysLock();
  }
}
 800dfc2:	4638      	mov	r0, r7
 800dfc4:	b003      	add	sp, #12
 800dfc6:	e8bd 8ff0 	ldmia.w	sp!, {r4, r5, r6, r7, r8, r9, sl, fp, pc}
 800dfca:	bf00      	nop
 800dfcc:	0000      	movs	r0, r0
	...

0800dfd0 <_core_init>:
#if CH_CFG_MEMCORE_SIZE == 0
  extern uint8_t __heap_base__[];
  extern uint8_t __heap_end__[];

  /*lint -save -e9033 [10.8] Required cast operations.*/
  nextmem = (uint8_t *)MEM_ALIGN_NEXT(__heap_base__);
 800dfd0:	4b05      	ldr	r3, [pc, #20]	; (800dfe8 <_core_init+0x18>)
 800dfd2:	f023 0307 	bic.w	r3, r3, #7
 800dfd6:	4a05      	ldr	r2, [pc, #20]	; (800dfec <_core_init+0x1c>)
 800dfd8:	6013      	str	r3, [r2, #0]
  endmem = (uint8_t *)MEM_ALIGN_PREV(__heap_end__);
 800dfda:	4a05      	ldr	r2, [pc, #20]	; (800dff0 <_core_init+0x20>)
 800dfdc:	4b05      	ldr	r3, [pc, #20]	; (800dff4 <_core_init+0x24>)
 800dfde:	f023 0307 	bic.w	r3, r3, #7
 800dfe2:	6013      	str	r3, [r2, #0]

  nextmem = (uint8_t *)&buffer[0];
  endmem = (uint8_t *)&buffer[MEM_ALIGN_NEXT(CH_CFG_MEMCORE_SIZE) /
                              MEM_ALIGN_SIZE];
#endif
}
 800dfe4:	4770      	bx	lr
 800dfe6:	bf00      	nop
 800dfe8:	2000d597 	.word	0x2000d597
 800dfec:	20001c4c 	.word	0x20001c4c
 800dff0:	20001c48 	.word	0x20001c48
 800dff4:	20020000 	.word	0x20020000
	...

0800e000 <chCoreAllocI>:
void *chCoreAllocI(size_t size) {
  void *p;

  chDbgCheckClassI();

  size = MEM_ALIGN_NEXT(size);
 800e000:	3007      	adds	r0, #7
 800e002:	f020 0307 	bic.w	r3, r0, #7
  /*lint -save -e9033 [10.8] The cast is safe.*/
  if ((size_t)(endmem - nextmem) < size) {
 800e006:	4a06      	ldr	r2, [pc, #24]	; (800e020 <chCoreAllocI+0x20>)
 800e008:	6810      	ldr	r0, [r2, #0]
 800e00a:	4a06      	ldr	r2, [pc, #24]	; (800e024 <chCoreAllocI+0x24>)
 800e00c:	6812      	ldr	r2, [r2, #0]
 800e00e:	1a12      	subs	r2, r2, r0
 800e010:	429a      	cmp	r2, r3
  /*lint -restore*/
    return NULL;
  }
  p = nextmem;
  nextmem += size;
 800e012:	bf23      	ittte	cs
 800e014:	181b      	addcs	r3, r3, r0
 800e016:	4a02      	ldrcs	r2, [pc, #8]	; (800e020 <chCoreAllocI+0x20>)
 800e018:	6013      	strcs	r3, [r2, #0]
    return NULL;
 800e01a:	2000      	movcc	r0, #0

  return p;
}
 800e01c:	4770      	bx	lr
 800e01e:	bf00      	nop
 800e020:	20001c4c 	.word	0x20001c4c
 800e024:	20001c48 	.word	0x20001c48
	...

0800e030 <chCoreAlloc>:
void *chCoreAlloc(size_t size) {
 800e030:	b508      	push	{r3, lr}
 800e032:	2320      	movs	r3, #32
 800e034:	f383 8811 	msr	BASEPRI, r3
  p = chCoreAllocI(size);
 800e038:	f7ff ffe2 	bl	800e000 <chCoreAllocI>
 800e03c:	2300      	movs	r3, #0
 800e03e:	f383 8811 	msr	BASEPRI, r3
}
 800e042:	bd08      	pop	{r3, pc}
	...

0800e050 <chCoreGetStatusX>:
 * @xclass
 */
size_t chCoreGetStatusX(void) {

  /*lint -save -e9033 [10.8] The cast is safe.*/
  return (size_t)(endmem - nextmem);
 800e050:	4b02      	ldr	r3, [pc, #8]	; (800e05c <chCoreGetStatusX+0xc>)
 800e052:	6818      	ldr	r0, [r3, #0]
 800e054:	4b02      	ldr	r3, [pc, #8]	; (800e060 <chCoreGetStatusX+0x10>)
 800e056:	681b      	ldr	r3, [r3, #0]
  /*lint -restore*/
}
 800e058:	1ac0      	subs	r0, r0, r3
 800e05a:	4770      	bx	lr
 800e05c:	20001c48 	.word	0x20001c48
 800e060:	20001c4c 	.word	0x20001c4c
	...

0800e070 <_heap_init>:
/**
 * @brief   Initializes the default heap.
 *
 * @notapi
 */
void _heap_init(void) {
 800e070:	b508      	push	{r3, lr}

  default_heap.h_provider = chCoreAlloc;
 800e072:	4805      	ldr	r0, [pc, #20]	; (800e088 <_heap_init+0x18>)
 800e074:	4b05      	ldr	r3, [pc, #20]	; (800e08c <_heap_init+0x1c>)
 800e076:	6003      	str	r3, [r0, #0]
  default_heap.h_free.h.u.next = NULL;
 800e078:	2300      	movs	r3, #0
 800e07a:	6083      	str	r3, [r0, #8]
  default_heap.h_free.h.size = 0;
 800e07c:	60c3      	str	r3, [r0, #12]
#if (CH_CFG_USE_MUTEXES == TRUE) || defined(__DOXYGEN__)
  chMtxObjectInit(&default_heap.h_mtx);
 800e07e:	3010      	adds	r0, #16
 800e080:	f7ff fd86 	bl	800db90 <chMtxObjectInit>
#else
  chSemObjectInit(&default_heap.h_sem, (cnt_t)1);
#endif
}
 800e084:	bd08      	pop	{r3, pc}
 800e086:	bf00      	nop
 800e088:	20001c50 	.word	0x20001c50
 800e08c:	0800e031 	.word	0x0800e031

0800e090 <chHeapFree>:
 *
 * @param[in] p         pointer to the memory block to be freed
 *
 * @api
 */
void chHeapFree(void *p) {
 800e090:	b5f8      	push	{r3, r4, r5, r6, r7, lr}
 800e092:	4606      	mov	r6, r0
  memory_heap_t *heapp;

  chDbgCheck(p != NULL);

  /*lint -save -e9087 [11.3] Safe cast.*/
  hp = (union heap_header *)p - 1;
 800e094:	f1a0 0408 	sub.w	r4, r0, #8
  /*lint -restore*/
  heapp = hp->h.u.heap;
 800e098:	f850 7c08 	ldr.w	r7, [r0, #-8]
  qp = &heapp->h_free;
 800e09c:	f107 0508 	add.w	r5, r7, #8

  H_LOCK(heapp);
 800e0a0:	3710      	adds	r7, #16
 800e0a2:	4638      	mov	r0, r7
 800e0a4:	f7ff fdec 	bl	800dc80 <chMtxLock>
  qp = &heapp->h_free;
 800e0a8:	462b      	mov	r3, r5
 800e0aa:	e004      	b.n	800e0b6 <chHeapFree+0x26>
  while (true) {
    chDbgAssert((hp < qp) || (hp >= LIMIT(qp)), "within free block");

    if (((qp == &heapp->h_free) || (hp > qp)) &&
        ((qp->h.u.next == NULL) || (hp < qp->h.u.next))) {
 800e0ac:	681a      	ldr	r2, [r3, #0]
    if (((qp == &heapp->h_free) || (hp > qp)) &&
 800e0ae:	b13a      	cbz	r2, 800e0c0 <chHeapFree+0x30>
        ((qp->h.u.next == NULL) || (hp < qp->h.u.next))) {
 800e0b0:	42a2      	cmp	r2, r4
 800e0b2:	d805      	bhi.n	800e0c0 <chHeapFree+0x30>
        qp->h.size += hp->h.size + sizeof(union heap_header);
        qp->h.u.next = hp->h.u.next;
      }
      break;
    }
    qp = qp->h.u.next;
 800e0b4:	681b      	ldr	r3, [r3, #0]
    if (((qp == &heapp->h_free) || (hp > qp)) &&
 800e0b6:	42ab      	cmp	r3, r5
 800e0b8:	d0f8      	beq.n	800e0ac <chHeapFree+0x1c>
 800e0ba:	42a3      	cmp	r3, r4
 800e0bc:	d2fa      	bcs.n	800e0b4 <chHeapFree+0x24>
 800e0be:	e7f5      	b.n	800e0ac <chHeapFree+0x1c>
      hp->h.u.next = qp->h.u.next;
 800e0c0:	f846 2c08 	str.w	r2, [r6, #-8]
      qp->h.u.next = hp;
 800e0c4:	601c      	str	r4, [r3, #0]
      if (LIMIT(hp) == hp->h.u.next) {
 800e0c6:	f856 2c04 	ldr.w	r2, [r6, #-4]
 800e0ca:	18b1      	adds	r1, r6, r2
 800e0cc:	f856 0c08 	ldr.w	r0, [r6, #-8]
 800e0d0:	4281      	cmp	r1, r0
 800e0d2:	d009      	beq.n	800e0e8 <chHeapFree+0x58>
      if ((LIMIT(qp) == hp)) {
 800e0d4:	6859      	ldr	r1, [r3, #4]
 800e0d6:	f101 0208 	add.w	r2, r1, #8
 800e0da:	441a      	add	r2, r3
 800e0dc:	4294      	cmp	r4, r2
 800e0de:	d00d      	beq.n	800e0fc <chHeapFree+0x6c>
  }
  H_UNLOCK(heapp);
 800e0e0:	4638      	mov	r0, r7
 800e0e2:	f7ff fddd 	bl	800dca0 <chMtxUnlock>

  return;
}
 800e0e6:	bdf8      	pop	{r3, r4, r5, r6, r7, pc}
        hp->h.size += hp->h.u.next->h.size + sizeof(union heap_header);
 800e0e8:	f102 0008 	add.w	r0, r2, #8
 800e0ec:	6849      	ldr	r1, [r1, #4]
 800e0ee:	4401      	add	r1, r0
 800e0f0:	f846 1c04 	str.w	r1, [r6, #-4]
        hp->h.u.next = hp->h.u.next->h.u.next;
 800e0f4:	58b2      	ldr	r2, [r6, r2]
 800e0f6:	f846 2c08 	str.w	r2, [r6, #-8]
 800e0fa:	e7eb      	b.n	800e0d4 <chHeapFree+0x44>
        qp->h.size += hp->h.size + sizeof(union heap_header);
 800e0fc:	f856 2c04 	ldr.w	r2, [r6, #-4]
 800e100:	3208      	adds	r2, #8
 800e102:	4411      	add	r1, r2
 800e104:	6059      	str	r1, [r3, #4]
        qp->h.u.next = hp->h.u.next;
 800e106:	f856 2c08 	ldr.w	r2, [r6, #-8]
 800e10a:	601a      	str	r2, [r3, #0]
 800e10c:	e7e8      	b.n	800e0e0 <chHeapFree+0x50>
 800e10e:	bf00      	nop

0800e110 <chHeapStatus>:
 *                      fragmented free space
 * @return              The number of fragments in the heap.
 *
 * @api
 */
size_t chHeapStatus(memory_heap_t *heapp, size_t *sizep) {
 800e110:	b570      	push	{r4, r5, r6, lr}
 800e112:	460e      	mov	r6, r1
  union heap_header *qp;
  size_t n, sz;

  if (heapp == NULL) {
 800e114:	1e04      	subs	r4, r0, #0
    heapp = &default_heap;
 800e116:	4b0e      	ldr	r3, [pc, #56]	; (800e150 <chHeapStatus+0x40>)
 800e118:	2800      	cmp	r0, #0
 800e11a:	bf08      	it	eq
 800e11c:	461c      	moveq	r4, r3
  }

  H_LOCK(heapp);
 800e11e:	f104 0510 	add.w	r5, r4, #16
 800e122:	4628      	mov	r0, r5
 800e124:	f7ff fdac 	bl	800dc80 <chMtxLock>
  sz = 0;
  n = 0;
  qp = &heapp->h_free;
  while (qp->h.u.next != NULL) {
 800e128:	68a3      	ldr	r3, [r4, #8]
 800e12a:	b173      	cbz	r3, 800e14a <chHeapStatus+0x3a>
  sz = 0;
 800e12c:	2200      	movs	r2, #0
  n = 0;
 800e12e:	4614      	mov	r4, r2
    sz += qp->h.u.next->h.size;
 800e130:	6859      	ldr	r1, [r3, #4]
 800e132:	440a      	add	r2, r1
    n++;
 800e134:	3401      	adds	r4, #1
  while (qp->h.u.next != NULL) {
 800e136:	681b      	ldr	r3, [r3, #0]
 800e138:	2b00      	cmp	r3, #0
 800e13a:	d1f9      	bne.n	800e130 <chHeapStatus+0x20>
    qp = qp->h.u.next;
  }
  if (sizep != NULL) {
 800e13c:	b106      	cbz	r6, 800e140 <chHeapStatus+0x30>
    *sizep = sz;
 800e13e:	6032      	str	r2, [r6, #0]
  }
  H_UNLOCK(heapp);
 800e140:	4628      	mov	r0, r5
 800e142:	f7ff fdad 	bl	800dca0 <chMtxUnlock>

  return n;
}
 800e146:	4620      	mov	r0, r4
 800e148:	bd70      	pop	{r4, r5, r6, pc}
  sz = 0;
 800e14a:	2200      	movs	r2, #0
  n = 0;
 800e14c:	4614      	mov	r4, r2
 800e14e:	e7f5      	b.n	800e13c <chHeapStatus+0x2c>
 800e150:	20001c50 	.word	0x20001c50
	...

0800e160 <chPoolFree>:
 800e160:	2320      	movs	r3, #32
 800e162:	f383 8811 	msr	BASEPRI, r3
  struct pool_header *php = objp;

  chDbgCheckClassI();
  chDbgCheck((mp != NULL) && (objp != NULL));

  php->ph_next = mp->mp_next;
 800e166:	6803      	ldr	r3, [r0, #0]
 800e168:	600b      	str	r3, [r1, #0]
  mp->mp_next = php;
 800e16a:	6001      	str	r1, [r0, #0]
 800e16c:	2300      	movs	r3, #0
 800e16e:	f383 8811 	msr	BASEPRI, r3
void chPoolFree(memory_pool_t *mp, void *objp) {

  chSysLock();
  chPoolFreeI(mp, objp);
  chSysUnlock();
}
 800e172:	4770      	bx	lr
	...

0800e180 <SVC_Handler>:
 * @details The SVC vector is used for exception mode re-entering after a
 *          context switch.
 * @note    The PendSV vector is only used in advanced kernel mode.
 */
/*lint -save -e9075 [8.4] All symbols are invoked from asm context.*/
void SVC_Handler(void) {
 800e180:	b480      	push	{r7}
 800e182:	af00      	add	r7, sp, #0
/*lint -restore*/
  struct port_extctx *ctxp;

#if CORTEX_USE_FPU
  /* Enforcing unstacking of the FP part of the context.*/
  FPU->FPCCR &= ~FPU_FPCCR_LSPACT_Msk;
 800e184:	4a08      	ldr	r2, [pc, #32]	; (800e1a8 <SVC_Handler+0x28>)
 800e186:	6853      	ldr	r3, [r2, #4]
 800e188:	f023 0301 	bic.w	r3, r3, #1
 800e18c:	6053      	str	r3, [r2, #4]
  __ASM volatile ("MRS %0, psp\n"  : "=r" (result) );
 800e18e:	f3ef 8309 	mrs	r3, PSP
  /* The port_extctx structure is pointed by the PSP register.*/
  ctxp = (struct port_extctx *)__get_PSP();

  /* Discarding the current exception context and positioning the stack to
     point to the real one.*/
  ctxp++;
 800e192:	3368      	adds	r3, #104	; 0x68
  __ASM volatile ("MSR psp, %0\n" : : "r" (topOfProcStack) : "sp");
 800e194:	f383 8809 	msr	PSP, r3
  __ASM volatile ("MSR basepri, %0" : : "r" (value) : "memory");
 800e198:	2300      	movs	r3, #0
 800e19a:	f383 8811 	msr	BASEPRI, r3
  /* Restoring real position of the original stack frame.*/
  __set_PSP((uint32_t)ctxp);

  /* Restoring the normal interrupts status.*/
  port_unlock_from_isr();
}
 800e19e:	46bd      	mov	sp, r7
 800e1a0:	f85d 7b04 	ldr.w	r7, [sp], #4
 800e1a4:	4770      	bx	lr
 800e1a6:	bf00      	nop
 800e1a8:	e000ef30 	.word	0xe000ef30
 800e1ac:	00000000 	.word	0x00000000

0800e1b0 <_port_irq_epilogue>:
/*===========================================================================*/

/**
 * @brief   Exception exit redirection to _port_switch_from_isr().
 */
void _port_irq_epilogue(void) {
 800e1b0:	b598      	push	{r3, r4, r7, lr}
 800e1b2:	af00      	add	r7, sp, #0
 800e1b4:	2320      	movs	r3, #32
 800e1b6:	f383 8811 	msr	BASEPRI, r3

  port_lock_from_isr();
  if ((SCB->ICSR & SCB_ICSR_RETTOBASE_Msk) != 0U) {
 800e1ba:	4b12      	ldr	r3, [pc, #72]	; (800e204 <_port_irq_epilogue+0x54>)
 800e1bc:	685b      	ldr	r3, [r3, #4]
 800e1be:	f413 6f00 	tst.w	r3, #2048	; 0x800
 800e1c2:	d103      	bne.n	800e1cc <_port_irq_epilogue+0x1c>
 800e1c4:	2300      	movs	r3, #0
 800e1c6:	f383 8811 	msr	BASEPRI, r3
    /* Note, returning without unlocking is intentional, this is done in
       order to keep the rest of the context switch atomic.*/
    return;
  }
  port_unlock_from_isr();
}
 800e1ca:	bd98      	pop	{r3, r4, r7, pc}
#if (__FPU_PRESENT == 1) && (__FPU_USED == 1)
  uint32_t result;

  /* Empty asm statement works as a scheduling barrier */
  __ASM volatile ("");
  __ASM volatile ("VMRS %0, fpscr" : "=r" (result) );
 800e1cc:	eef1 3a10 	vmrs	r3, fpscr
  __ASM volatile ("MRS %0, psp\n"  : "=r" (result) );
 800e1d0:	f3ef 8409 	mrs	r4, PSP
    ctxp->xpsr = (regarm_t)0x01000000;
 800e1d4:	f04f 7380 	mov.w	r3, #16777216	; 0x1000000
 800e1d8:	f844 3c4c 	str.w	r3, [r4, #-76]
    ctxp->fpscr = (regarm_t)FPU->FPDSCR;
 800e1dc:	4b0a      	ldr	r3, [pc, #40]	; (800e208 <_port_irq_epilogue+0x58>)
 800e1de:	68db      	ldr	r3, [r3, #12]
 800e1e0:	f844 3c08 	str.w	r3, [r4, #-8]
    ctxp--;
 800e1e4:	f1a4 0368 	sub.w	r3, r4, #104	; 0x68
  __ASM volatile ("MSR psp, %0\n" : : "r" (topOfProcStack) : "sp");
 800e1e8:	f383 8809 	msr	PSP, r3
    if (chSchIsPreemptionRequired()) {
 800e1ec:	f7ff fac8 	bl	800d780 <chSchIsPreemptionRequired>
 800e1f0:	b118      	cbz	r0, 800e1fa <_port_irq_epilogue+0x4a>
      ctxp->pc = (regarm_t)_port_switch_from_isr;
 800e1f2:	4b06      	ldr	r3, [pc, #24]	; (800e20c <_port_irq_epilogue+0x5c>)
 800e1f4:	f844 3c50 	str.w	r3, [r4, #-80]
 800e1f8:	e7e7      	b.n	800e1ca <_port_irq_epilogue+0x1a>
      ctxp->pc = (regarm_t)_port_exit_from_isr;
 800e1fa:	4b05      	ldr	r3, [pc, #20]	; (800e210 <_port_irq_epilogue+0x60>)
 800e1fc:	f844 3c50 	str.w	r3, [r4, #-80]
 800e200:	e7e3      	b.n	800e1ca <_port_irq_epilogue+0x1a>
 800e202:	bf00      	nop
 800e204:	e000ed00 	.word	0xe000ed00
 800e208:	e000ef30 	.word	0xe000ef30
 800e20c:	0800c139 	.word	0x0800c139
 800e210:	0800c13c 	.word	0x0800c13c
	...

0800e220 <halInit>:
 *          board-specific initialization is performed by invoking
 *          @p boardInit() (usually defined in @p board.c).
 *
 * @init
 */
void halInit(void) {
 800e220:	b508      	push	{r3, lr}

  /* Initializes the OS Abstraction Layer.*/
  osalInit();

  /* Platform low level initializations.*/
  hal_lld_init();
 800e222:	f001 f84d 	bl	800f2c0 <hal_lld_init>

#if (HAL_USE_PAL == TRUE) || defined(__DOXYGEN__)
  palInit(&pal_default_config);
 800e226:	480b      	ldr	r0, [pc, #44]	; (800e254 <halInit+0x34>)
 800e228:	f001 faaa 	bl	800f780 <_pal_lld_init>
#endif
#if (HAL_USE_ADC == TRUE) || defined(__DOXYGEN__)
  adcInit();
#endif
#if (HAL_USE_CAN == TRUE) || defined(__DOXYGEN__)
  canInit();
 800e22c:	f000 f820 	bl	800e270 <canInit>
#endif
#if (HAL_USE_GPT == TRUE) || defined(__DOXYGEN__)
  gptInit();
#endif
#if (HAL_USE_I2C == TRUE) || defined(__DOXYGEN__)
  i2cInit();
 800e230:	f000 f846 	bl	800e2c0 <i2cInit>
#endif
#if (HAL_USE_I2S == TRUE) || defined(__DOXYGEN__)
  i2sInit();
#endif
#if (HAL_USE_ICU == TRUE) || defined(__DOXYGEN__)
  icuInit();
 800e234:	f000 f8cc 	bl	800e3d0 <icuInit>
#endif
#if (HAL_USE_SDC == TRUE) || defined(__DOXYGEN__)
  sdcInit();
#endif
#if (HAL_USE_SPI == TRUE) || defined(__DOXYGEN__)
  spiInit();
 800e238:	f000 fab2 	bl	800e7a0 <spiInit>
#endif
#if (HAL_USE_UART == TRUE) || defined(__DOXYGEN__)
  uartInit();
 800e23c:	f000 fac8 	bl	800e7d0 <uartInit>
#endif
#if (HAL_USE_USB == TRUE) || defined(__DOXYGEN__)
  usbInit();
 800e240:	f000 fad6 	bl	800e7f0 <usbInit>
#endif
#if (HAL_USE_MMC_SPI == TRUE) || defined(__DOXYGEN__)
  mmcInit();
#endif
#if (HAL_USE_SERIAL_USB == TRUE) || defined(__DOXYGEN__)
  sduInit();
 800e244:	f000 f97c 	bl	800e540 <sduInit>
  halCommunityInit();
#endif
#endif

  /* Board specific initialization.*/
  boardInit();
 800e248:	f002 fd62 	bl	8010d10 <boardInit>
/*
 *  The ST driver is a special case, it is only initialized if the OSAL is
 *  configured to require it.
 */
#if OSAL_ST_MODE != OSAL_ST_MODE_NONE
  stInit();
 800e24c:	f000 f808 	bl	800e260 <stInit>
#endif
}
 800e250:	bd08      	pop	{r3, pc}
 800e252:	bf00      	nop
 800e254:	0802c4c0 	.word	0x0802c4c0
	...

0800e260 <stInit>:
 * @note    This function is implicitly invoked by @p halInit(), there is
 *          no need to explicitly initialize the driver.
 *
 * @init
 */
void stInit(void) {
 800e260:	b508      	push	{r3, lr}

  st_lld_init();
 800e262:	f001 f8e5 	bl	800f430 <st_lld_init>
}
 800e266:	bd08      	pop	{r3, pc}
	...

0800e270 <canInit>:
 * @note    This function is implicitly invoked by @p halInit(), there is
 *          no need to explicitly initialize the driver.
 *
 * @init
 */
void canInit(void) {
 800e270:	b508      	push	{r3, lr}

  can_lld_init();
 800e272:	f001 fa5d 	bl	800f730 <can_lld_init>
}
 800e276:	bd08      	pop	{r3, pc}
	...

0800e280 <canObjectInit>:
 *
 * @init
 */
void canObjectInit(CANDriver *canp) {

  canp->state    = CAN_STOP;
 800e280:	2301      	movs	r3, #1
 800e282:	7003      	strb	r3, [r0, #0]
  canp->config   = NULL;
 800e284:	2300      	movs	r3, #0
 800e286:	6043      	str	r3, [r0, #4]
  osalThreadQueueObjectInit(&canp->txqueue);
 800e288:	f100 0308 	add.w	r3, r0, #8
  tqp->p_next = (thread_t *)tqp;
 800e28c:	6083      	str	r3, [r0, #8]
  tqp->p_prev = (thread_t *)tqp;
 800e28e:	60c3      	str	r3, [r0, #12]
  osalThreadQueueObjectInit(&canp->rxqueue);
 800e290:	f100 0310 	add.w	r3, r0, #16
  tqp->p_next = (thread_t *)tqp;
 800e294:	6103      	str	r3, [r0, #16]
  tqp->p_prev = (thread_t *)tqp;
 800e296:	6143      	str	r3, [r0, #20]
  osalEventObjectInit(&canp->rxfull_event);
 800e298:	f100 0318 	add.w	r3, r0, #24
 *
 * @init
 */
static inline void chEvtObjectInit(event_source_t *esp) {

  esp->es_next = (event_listener_t *)esp;
 800e29c:	6183      	str	r3, [r0, #24]
  osalEventObjectInit(&canp->txempty_event);
 800e29e:	f100 031c 	add.w	r3, r0, #28
 800e2a2:	61c3      	str	r3, [r0, #28]
  osalEventObjectInit(&canp->error_event);
 800e2a4:	f100 0320 	add.w	r3, r0, #32
 800e2a8:	6203      	str	r3, [r0, #32]
#if CAN_USE_SLEEP_MODE == TRUE
  osalEventObjectInit(&canp->sleep_event);
 800e2aa:	f100 0324 	add.w	r3, r0, #36	; 0x24
 800e2ae:	6243      	str	r3, [r0, #36]	; 0x24
  osalEventObjectInit(&canp->wakeup_event);
 800e2b0:	f100 0328 	add.w	r3, r0, #40	; 0x28
 800e2b4:	6283      	str	r3, [r0, #40]	; 0x28
#endif
}
 800e2b6:	4770      	bx	lr
	...

0800e2c0 <i2cInit>:
 * @note    This function is implicitly invoked by @p halInit(), there is
 *          no need to explicitly initialize the driver.
 *
 * @init
 */
void i2cInit(void) {
 800e2c0:	b508      	push	{r3, lr}

  i2c_lld_init();
 800e2c2:	f001 fc7d 	bl	800fbc0 <i2c_lld_init>
}
 800e2c6:	bd08      	pop	{r3, pc}
	...

0800e2d0 <i2cObjectInit>:
 *
 * @param[out] i2cp     pointer to the @p I2CDriver object
 *
 * @init
 */
void i2cObjectInit(I2CDriver *i2cp) {
 800e2d0:	b508      	push	{r3, lr}

  i2cp->state  = I2C_STOP;
 800e2d2:	2301      	movs	r3, #1
 800e2d4:	7003      	strb	r3, [r0, #0]
  i2cp->config = NULL;
 800e2d6:	2300      	movs	r3, #0
 800e2d8:	6043      	str	r3, [r0, #4]
 * @init
 */
static inline void osalMutexObjectInit(mutex_t *mp) {

#if CH_CFG_USE_MUTEXES
  chMtxObjectInit(mp);
 800e2da:	300c      	adds	r0, #12
 800e2dc:	f7ff fc58 	bl	800db90 <chMtxObjectInit>
#endif

#if defined(I2C_DRIVER_EXT_INIT_HOOK)
  I2C_DRIVER_EXT_INIT_HOOK(i2cp);
#endif
}
 800e2e0:	bd08      	pop	{r3, pc}
 800e2e2:	bf00      	nop
	...

0800e2f0 <i2cStart>:
 * @param[in] i2cp      pointer to the @p I2CDriver object
 * @param[in] config    pointer to the @p I2CConfig object
 *
 * @api
 */
void i2cStart(I2CDriver *i2cp, const I2CConfig *config) {
 800e2f0:	b510      	push	{r4, lr}
 800e2f2:	4604      	mov	r4, r0
  __ASM volatile ("MSR basepri, %0" : : "r" (value) : "memory");
 800e2f4:	2320      	movs	r3, #32
 800e2f6:	f383 8811 	msr	BASEPRI, r3
  osalDbgCheck((i2cp != NULL) && (config != NULL));
  osalDbgAssert((i2cp->state == I2C_STOP) || (i2cp->state == I2C_READY) ||
                (i2cp->state == I2C_LOCKED), "invalid state");

  osalSysLock();
  i2cp->config = config;
 800e2fa:	6041      	str	r1, [r0, #4]
  i2c_lld_start(i2cp);
 800e2fc:	f001 fc78 	bl	800fbf0 <i2c_lld_start>
  i2cp->state = I2C_READY;
 800e300:	2302      	movs	r3, #2
 800e302:	7023      	strb	r3, [r4, #0]
 800e304:	2300      	movs	r3, #0
 800e306:	f383 8811 	msr	BASEPRI, r3
  osalSysUnlock();
}
 800e30a:	bd10      	pop	{r4, pc}
 800e30c:	0000      	movs	r0, r0
	...

0800e310 <i2cStop>:
 *
 * @param[in] i2cp      pointer to the @p I2CDriver object
 *
 * @api
 */
void i2cStop(I2CDriver *i2cp) {
 800e310:	b510      	push	{r4, lr}
 800e312:	4604      	mov	r4, r0
 800e314:	2320      	movs	r3, #32
 800e316:	f383 8811 	msr	BASEPRI, r3
  osalDbgCheck(i2cp != NULL);
  osalDbgAssert((i2cp->state == I2C_STOP) || (i2cp->state == I2C_READY) ||
                (i2cp->state == I2C_LOCKED), "invalid state");

  osalSysLock();
  i2c_lld_stop(i2cp);
 800e31a:	f001 fd29 	bl	800fd70 <i2c_lld_stop>
  i2cp->state = I2C_STOP;
 800e31e:	2301      	movs	r3, #1
 800e320:	7023      	strb	r3, [r4, #0]
 800e322:	2300      	movs	r3, #0
 800e324:	f383 8811 	msr	BASEPRI, r3
  osalSysUnlock();
}
 800e328:	bd10      	pop	{r4, pc}
 800e32a:	bf00      	nop
 800e32c:	0000      	movs	r0, r0
	...

0800e330 <i2cMasterTransmitTimeout>:
                               i2caddr_t addr,
                               const uint8_t *txbuf,
                               size_t txbytes,
                               uint8_t *rxbuf,
                               size_t rxbytes,
                               systime_t timeout) {
 800e330:	b530      	push	{r4, r5, lr}
 800e332:	b085      	sub	sp, #20
 800e334:	4604      	mov	r4, r0
 800e336:	2520      	movs	r5, #32
 800e338:	f385 8811 	msr	BASEPRI, r5
               (timeout != TIME_IMMEDIATE));

  osalDbgAssert(i2cp->state == I2C_READY, "not ready");

  osalSysLock();
  i2cp->errors = I2C_NO_ERROR;
 800e33c:	2500      	movs	r5, #0
 800e33e:	6085      	str	r5, [r0, #8]
  i2cp->state = I2C_ACTIVE_TX;
 800e340:	2503      	movs	r5, #3
 800e342:	7005      	strb	r5, [r0, #0]
  rdymsg = i2c_lld_master_transmit_timeout(i2cp, addr, txbuf, txbytes,
 800e344:	9d0a      	ldr	r5, [sp, #40]	; 0x28
 800e346:	9502      	str	r5, [sp, #8]
 800e348:	9d09      	ldr	r5, [sp, #36]	; 0x24
 800e34a:	9501      	str	r5, [sp, #4]
 800e34c:	9d08      	ldr	r5, [sp, #32]
 800e34e:	9500      	str	r5, [sp, #0]
 800e350:	f001 fd9e 	bl	800fe90 <i2c_lld_master_transmit_timeout>
                                           rxbuf, rxbytes, timeout);
  if (rdymsg == MSG_TIMEOUT) {
 800e354:	f1b0 3fff 	cmp.w	r0, #4294967295
    i2cp->state = I2C_LOCKED;
 800e358:	bf0c      	ite	eq
 800e35a:	2305      	moveq	r3, #5
  }
  else {
    i2cp->state = I2C_READY;
 800e35c:	2302      	movne	r3, #2
 800e35e:	7023      	strb	r3, [r4, #0]
 800e360:	2300      	movs	r3, #0
 800e362:	f383 8811 	msr	BASEPRI, r3
  }
  osalSysUnlock();
  return rdymsg;
}
 800e366:	b005      	add	sp, #20
 800e368:	bd30      	pop	{r4, r5, pc}
 800e36a:	bf00      	nop
 800e36c:	0000      	movs	r0, r0
	...

0800e370 <i2cMasterReceiveTimeout>:
 */
msg_t i2cMasterReceiveTimeout(I2CDriver *i2cp,
                              i2caddr_t addr,
                              uint8_t *rxbuf,
                              size_t rxbytes,
                              systime_t timeout){
 800e370:	b530      	push	{r4, r5, lr}
 800e372:	b083      	sub	sp, #12
 800e374:	4604      	mov	r4, r0
 800e376:	2520      	movs	r5, #32
 800e378:	f385 8811 	msr	BASEPRI, r5
               (timeout != TIME_IMMEDIATE));

  osalDbgAssert(i2cp->state == I2C_READY, "not ready");

  osalSysLock();
  i2cp->errors = I2C_NO_ERROR;
 800e37c:	2500      	movs	r5, #0
 800e37e:	6085      	str	r5, [r0, #8]
  i2cp->state = I2C_ACTIVE_RX;
 800e380:	2504      	movs	r5, #4
 800e382:	7005      	strb	r5, [r0, #0]
  rdymsg = i2c_lld_master_receive_timeout(i2cp, addr, rxbuf, rxbytes, timeout);
 800e384:	9d06      	ldr	r5, [sp, #24]
 800e386:	9500      	str	r5, [sp, #0]
 800e388:	f001 fd42 	bl	800fe10 <i2c_lld_master_receive_timeout>
  if (rdymsg == MSG_TIMEOUT) {
 800e38c:	f1b0 3fff 	cmp.w	r0, #4294967295
    i2cp->state = I2C_LOCKED;
 800e390:	bf0c      	ite	eq
 800e392:	2305      	moveq	r3, #5
  }
  else {
    i2cp->state = I2C_READY;
 800e394:	2302      	movne	r3, #2
 800e396:	7023      	strb	r3, [r4, #0]
 800e398:	2300      	movs	r3, #0
 800e39a:	f383 8811 	msr	BASEPRI, r3
  }
  osalSysUnlock();
  return rdymsg;
}
 800e39e:	b003      	add	sp, #12
 800e3a0:	bd30      	pop	{r4, r5, pc}
 800e3a2:	bf00      	nop
	...

0800e3b0 <i2cAcquireBus>:
 *
 * @param[in] i2cp      pointer to the @p I2CDriver object
 *
 * @api
 */
void i2cAcquireBus(I2CDriver *i2cp) {
 800e3b0:	b508      	push	{r3, lr}
 * @api
 */
static inline void osalMutexLock(mutex_t *mp) {

#if CH_CFG_USE_MUTEXES
  chMtxLock(mp);
 800e3b2:	300c      	adds	r0, #12
 800e3b4:	f7ff fc64 	bl	800dc80 <chMtxLock>

  osalDbgCheck(i2cp != NULL);

  osalMutexLock(&i2cp->mutex);
}
 800e3b8:	bd08      	pop	{r3, pc}
 800e3ba:	bf00      	nop
 800e3bc:	0000      	movs	r0, r0
	...

0800e3c0 <i2cReleaseBus>:
 *
 * @param[in] i2cp      pointer to the @p I2CDriver object
 *
 * @api
 */
void i2cReleaseBus(I2CDriver *i2cp) {
 800e3c0:	b508      	push	{r3, lr}
 * @api
 */
static inline void osalMutexUnlock(mutex_t *mp) {

#if CH_CFG_USE_MUTEXES
  chMtxUnlock(mp);
 800e3c2:	300c      	adds	r0, #12
 800e3c4:	f7ff fc6c 	bl	800dca0 <chMtxUnlock>

  osalDbgCheck(i2cp != NULL);

  osalMutexUnlock(&i2cp->mutex);
}
 800e3c8:	bd08      	pop	{r3, pc}
 800e3ca:	bf00      	nop
 800e3cc:	0000      	movs	r0, r0
	...

0800e3d0 <icuInit>:
 * @note    This function is implicitly invoked by @p halInit(), there is
 *          no need to explicitly initialize the driver.
 *
 * @init
 */
void icuInit(void) {
 800e3d0:	b508      	push	{r3, lr}

  icu_lld_init();
 800e3d2:	f002 fbed 	bl	8010bb0 <icu_lld_init>
}
 800e3d6:	bd08      	pop	{r3, pc}
	...

0800e3e0 <icuObjectInit>:
 *
 * @init
 */
void icuObjectInit(ICUDriver *icup) {

  icup->state  = ICU_STOP;
 800e3e0:	2301      	movs	r3, #1
 800e3e2:	7003      	strb	r3, [r0, #0]
  icup->config = NULL;
 800e3e4:	2300      	movs	r3, #0
 800e3e6:	6043      	str	r3, [r0, #4]
}
 800e3e8:	4770      	bx	lr
 800e3ea:	bf00      	nop
 800e3ec:	0000      	movs	r0, r0
	...

0800e3f0 <onotify>:
/**
 * @brief   Notification of data inserted into the output queue.
 *
 * @param[in] qp        the queue pointer.
 */
static void onotify(io_queue_t *qp) {
 800e3f0:	b510      	push	{r4, lr}
  size_t n;
  SerialUSBDriver *sdup = qGetLink(qp);
 800e3f2:	6a04      	ldr	r4, [r0, #32]

  /* If the USB driver is not in the appropriate state then transactions
     must not be started.*/
  if ((usbGetDriverStateI(sdup->config->usbp) != USB_ACTIVE) ||
 800e3f4:	f8d4 2254 	ldr.w	r2, [r4, #596]	; 0x254
 800e3f8:	6813      	ldr	r3, [r2, #0]
 800e3fa:	7819      	ldrb	r1, [r3, #0]
 800e3fc:	2904      	cmp	r1, #4
 800e3fe:	d000      	beq.n	800e402 <onotify+0x12>

      osalSysLock();
      (void) usbStartTransmitI(sdup->config->usbp, sdup->config->bulk_in);
    }
  }
}
 800e400:	bd10      	pop	{r4, pc}
  if ((usbGetDriverStateI(sdup->config->usbp) != USB_ACTIVE) ||
 800e402:	7a21      	ldrb	r1, [r4, #8]
 800e404:	2902      	cmp	r1, #2
 800e406:	d1fb      	bne.n	800e400 <onotify+0x10>
  if (!usbGetTransmitStatusI(sdup->config->usbp, sdup->config->bulk_in)) {
 800e408:	7911      	ldrb	r1, [r2, #4]
 800e40a:	2201      	movs	r2, #1
 800e40c:	408a      	lsls	r2, r1
 800e40e:	891b      	ldrh	r3, [r3, #8]
 800e410:	421a      	tst	r2, r3
 800e412:	d1f5      	bne.n	800e400 <onotify+0x10>
  return (size_t)(chQSizeX(oqp) - chQSpaceI(oqp));
 800e414:	6ba2      	ldr	r2, [r4, #56]	; 0x38
 800e416:	6c23      	ldr	r3, [r4, #64]	; 0x40
 800e418:	6be1      	ldr	r1, [r4, #60]	; 0x3c
 800e41a:	1a5b      	subs	r3, r3, r1
    if ((n = oqGetFullI(&sdup->oqueue)) > 0U) {
 800e41c:	1a9b      	subs	r3, r3, r2
 800e41e:	d0ef      	beq.n	800e400 <onotify+0x10>
 800e420:	2200      	movs	r2, #0
 800e422:	f382 8811 	msr	BASEPRI, r2
      usbPrepareQueuedTransmit(sdup->config->usbp,
 800e426:	f8d4 0254 	ldr.w	r0, [r4, #596]	; 0x254
 800e42a:	f104 0230 	add.w	r2, r4, #48	; 0x30
 800e42e:	7901      	ldrb	r1, [r0, #4]
 800e430:	6800      	ldr	r0, [r0, #0]
 800e432:	f000 fa65 	bl	800e900 <usbPrepareQueuedTransmit>
 800e436:	2320      	movs	r3, #32
 800e438:	f383 8811 	msr	BASEPRI, r3
      (void) usbStartTransmitI(sdup->config->usbp, sdup->config->bulk_in);
 800e43c:	f8d4 3254 	ldr.w	r3, [r4, #596]	; 0x254
 800e440:	7919      	ldrb	r1, [r3, #4]
 800e442:	6818      	ldr	r0, [r3, #0]
 800e444:	f000 fa7c 	bl	800e940 <usbStartTransmitI>
 800e448:	e7da      	b.n	800e400 <onotify+0x10>
 800e44a:	bf00      	nop
 800e44c:	0000      	movs	r0, r0
	...

0800e450 <inotify>:
static void inotify(io_queue_t *qp) {
 800e450:	b510      	push	{r4, lr}
  SerialUSBDriver *sdup = qGetLink(qp);
 800e452:	6a04      	ldr	r4, [r0, #32]
  if ((usbGetDriverStateI(sdup->config->usbp) != USB_ACTIVE) ||
 800e454:	f8d4 2254 	ldr.w	r2, [r4, #596]	; 0x254
 800e458:	6813      	ldr	r3, [r2, #0]
 800e45a:	7819      	ldrb	r1, [r3, #0]
 800e45c:	2904      	cmp	r1, #4
 800e45e:	d000      	beq.n	800e462 <inotify+0x12>
}
 800e460:	bd10      	pop	{r4, pc}
  if ((usbGetDriverStateI(sdup->config->usbp) != USB_ACTIVE) ||
 800e462:	7a21      	ldrb	r1, [r4, #8]
 800e464:	2902      	cmp	r1, #2
 800e466:	d1fb      	bne.n	800e460 <inotify+0x10>
  maxsize = sdup->config->usbp->epc[sdup->config->bulk_out]->out_maxsize;
 800e468:	7951      	ldrb	r1, [r2, #5]
  if (!usbGetReceiveStatusI(sdup->config->usbp, sdup->config->bulk_out)) {
 800e46a:	2201      	movs	r2, #1
 800e46c:	408a      	lsls	r2, r1
 800e46e:	8958      	ldrh	r0, [r3, #10]
 800e470:	4202      	tst	r2, r0
 800e472:	d1f5      	bne.n	800e460 <inotify+0x10>
  maxsize = sdup->config->usbp->epc[sdup->config->bulk_out]->out_maxsize;
 800e474:	eb03 0381 	add.w	r3, r3, r1, lsl #2
 800e478:	68db      	ldr	r3, [r3, #12]
 800e47a:	8a5b      	ldrh	r3, [r3, #18]
  return (size_t)(chQSizeX(iqp) - chQSpaceI(iqp));
 800e47c:	6960      	ldr	r0, [r4, #20]
 800e47e:	69e1      	ldr	r1, [r4, #28]
 800e480:	69a2      	ldr	r2, [r4, #24]
 800e482:	1a8a      	subs	r2, r1, r2
 800e484:	1a12      	subs	r2, r2, r0
    if ((n = iqGetEmptyI(&sdup->iqueue)) >= maxsize) {
 800e486:	4293      	cmp	r3, r2
 800e488:	d8ea      	bhi.n	800e460 <inotify+0x10>
 800e48a:	2100      	movs	r1, #0
 800e48c:	f381 8811 	msr	BASEPRI, r1
      usbPrepareQueuedReceive(sdup->config->usbp,
 800e490:	f8d4 0254 	ldr.w	r0, [r4, #596]	; 0x254
      n = (n / maxsize) * maxsize;
 800e494:	fbb2 f2f3 	udiv	r2, r2, r3
      usbPrepareQueuedReceive(sdup->config->usbp,
 800e498:	fb03 f302 	mul.w	r3, r3, r2
 800e49c:	f104 020c 	add.w	r2, r4, #12
 800e4a0:	7941      	ldrb	r1, [r0, #5]
 800e4a2:	6800      	ldr	r0, [r0, #0]
 800e4a4:	f000 fa1c 	bl	800e8e0 <usbPrepareQueuedReceive>
 800e4a8:	2320      	movs	r3, #32
 800e4aa:	f383 8811 	msr	BASEPRI, r3
      (void) usbStartReceiveI(sdup->config->usbp, sdup->config->bulk_out);
 800e4ae:	f8d4 3254 	ldr.w	r3, [r4, #596]	; 0x254
 800e4b2:	7959      	ldrb	r1, [r3, #5]
 800e4b4:	6818      	ldr	r0, [r3, #0]
 800e4b6:	f000 fa33 	bl	800e920 <usbStartReceiveI>
 800e4ba:	e7d1      	b.n	800e460 <inotify+0x10>
 800e4bc:	0000      	movs	r0, r0
	...

0800e4c0 <readt>:
static size_t readt(void *ip, uint8_t *bp, size_t n, systime_t timeout) {
 800e4c0:	b508      	push	{r3, lr}
  return iqReadTimeout(&((SerialUSBDriver *)ip)->iqueue, bp, n, timeout);
 800e4c2:	300c      	adds	r0, #12
 800e4c4:	f7ff fcc4 	bl	800de50 <chIQReadTimeout>
}
 800e4c8:	bd08      	pop	{r3, pc}
 800e4ca:	bf00      	nop
 800e4cc:	0000      	movs	r0, r0
	...

0800e4d0 <read>:
static size_t read(void *ip, uint8_t *bp, size_t n) {
 800e4d0:	b508      	push	{r3, lr}
  return iqReadTimeout(&((SerialUSBDriver *)ip)->iqueue, bp,
 800e4d2:	f04f 33ff 	mov.w	r3, #4294967295
 800e4d6:	300c      	adds	r0, #12
 800e4d8:	f7ff fcba 	bl	800de50 <chIQReadTimeout>
}
 800e4dc:	bd08      	pop	{r3, pc}
 800e4de:	bf00      	nop

0800e4e0 <writet>:
static size_t writet(void *ip, const uint8_t *bp, size_t n, systime_t timeout) {
 800e4e0:	b508      	push	{r3, lr}
  return oqWriteTimeout(&((SerialUSBDriver *)ip)->oqueue, bp, n, timeout);
 800e4e2:	3030      	adds	r0, #48	; 0x30
 800e4e4:	f7ff fd34 	bl	800df50 <chOQWriteTimeout>
}
 800e4e8:	bd08      	pop	{r3, pc}
 800e4ea:	bf00      	nop
 800e4ec:	0000      	movs	r0, r0
	...

0800e4f0 <write>:
static size_t write(void *ip, const uint8_t *bp, size_t n) {
 800e4f0:	b508      	push	{r3, lr}
  return oqWriteTimeout(&((SerialUSBDriver *)ip)->oqueue, bp,
 800e4f2:	f04f 33ff 	mov.w	r3, #4294967295
 800e4f6:	3030      	adds	r0, #48	; 0x30
 800e4f8:	f7ff fd2a 	bl	800df50 <chOQWriteTimeout>
}
 800e4fc:	bd08      	pop	{r3, pc}
 800e4fe:	bf00      	nop

0800e500 <gett>:
static msg_t gett(void *ip, systime_t timeout) {
 800e500:	b508      	push	{r3, lr}
  return iqGetTimeout(&((SerialUSBDriver *)ip)->iqueue, timeout);
 800e502:	300c      	adds	r0, #12
 800e504:	f7ff fc7c 	bl	800de00 <chIQGetTimeout>
}
 800e508:	bd08      	pop	{r3, pc}
 800e50a:	bf00      	nop
 800e50c:	0000      	movs	r0, r0
	...

0800e510 <get>:
static msg_t get(void *ip) {
 800e510:	b508      	push	{r3, lr}
  return iqGetTimeout(&((SerialUSBDriver *)ip)->iqueue, TIME_INFINITE);
 800e512:	f04f 31ff 	mov.w	r1, #4294967295
 800e516:	300c      	adds	r0, #12
 800e518:	f7ff fc72 	bl	800de00 <chIQGetTimeout>
}
 800e51c:	bd08      	pop	{r3, pc}
 800e51e:	bf00      	nop

0800e520 <putt>:
static msg_t putt(void *ip, uint8_t b, systime_t timeout) {
 800e520:	b508      	push	{r3, lr}
  return oqPutTimeout(&((SerialUSBDriver *)ip)->oqueue, b, timeout);
 800e522:	3030      	adds	r0, #48	; 0x30
 800e524:	f7ff fcec 	bl	800df00 <chOQPutTimeout>
}
 800e528:	bd08      	pop	{r3, pc}
 800e52a:	bf00      	nop
 800e52c:	0000      	movs	r0, r0
	...

0800e530 <put>:
static msg_t put(void *ip, uint8_t b) {
 800e530:	b508      	push	{r3, lr}
  return oqPutTimeout(&((SerialUSBDriver *)ip)->oqueue, b, TIME_INFINITE);
 800e532:	f04f 32ff 	mov.w	r2, #4294967295
 800e536:	3030      	adds	r0, #48	; 0x30
 800e538:	f7ff fce2 	bl	800df00 <chOQPutTimeout>
}
 800e53c:	bd08      	pop	{r3, pc}
 800e53e:	bf00      	nop

0800e540 <sduInit>:
 *          no need to explicitly initialize the driver.
 *
 * @init
 */
void sduInit(void) {
}
 800e540:	4770      	bx	lr
 800e542:	bf00      	nop
	...

0800e550 <sduObjectInit>:
 *
 * @param[out] sdup     pointer to a @p SerialUSBDriver structure
 *
 * @init
 */
void sduObjectInit(SerialUSBDriver *sdup) {
 800e550:	b510      	push	{r4, lr}
 800e552:	b082      	sub	sp, #8
 800e554:	4604      	mov	r4, r0

  sdup->vmt = &vmt;
 800e556:	4603      	mov	r3, r0
 800e558:	4a0d      	ldr	r2, [pc, #52]	; (800e590 <sduObjectInit+0x40>)
 800e55a:	f843 2b04 	str.w	r2, [r3], #4
 800e55e:	6043      	str	r3, [r0, #4]
  osalEventObjectInit(&sdup->event);
  sdup->state = SDU_STOP;
 800e560:	2301      	movs	r3, #1
 800e562:	7203      	strb	r3, [r0, #8]
  iqObjectInit(&sdup->iqueue, sdup->ib, SERIAL_USB_BUFFERS_SIZE, inotify, sdup);
 800e564:	9000      	str	r0, [sp, #0]
 800e566:	4b0b      	ldr	r3, [pc, #44]	; (800e594 <sduObjectInit+0x44>)
 800e568:	f44f 7280 	mov.w	r2, #256	; 0x100
 800e56c:	f100 0154 	add.w	r1, r0, #84	; 0x54
 800e570:	300c      	adds	r0, #12
 800e572:	f7ff fc25 	bl	800ddc0 <chIQObjectInit>
  oqObjectInit(&sdup->oqueue, sdup->ob, SERIAL_USB_BUFFERS_SIZE, onotify, sdup);
 800e576:	9400      	str	r4, [sp, #0]
 800e578:	4b07      	ldr	r3, [pc, #28]	; (800e598 <sduObjectInit+0x48>)
 800e57a:	f44f 7280 	mov.w	r2, #256	; 0x100
 800e57e:	f504 71aa 	add.w	r1, r4, #340	; 0x154
 800e582:	f104 0030 	add.w	r0, r4, #48	; 0x30
 800e586:	f7ff fc9b 	bl	800dec0 <chOQObjectInit>
}
 800e58a:	b002      	add	sp, #8
 800e58c:	bd10      	pop	{r4, pc}
 800e58e:	bf00      	nop
 800e590:	0802c350 	.word	0x0802c350
 800e594:	0800e451 	.word	0x0800e451
 800e598:	0800e3f1 	.word	0x0800e3f1
 800e59c:	00000000 	.word	0x00000000

0800e5a0 <sduStart>:
 * @param[in] config    the serial over USB driver configuration
 *
 * @api
 */
void sduStart(SerialUSBDriver *sdup, const SerialUSBConfig *config) {
  USBDriver *usbp = config->usbp;
 800e5a0:	680b      	ldr	r3, [r1, #0]
 800e5a2:	2220      	movs	r2, #32
 800e5a4:	f382 8811 	msr	BASEPRI, r2
  osalDbgCheck(sdup != NULL);

  osalSysLock();
  osalDbgAssert((sdup->state == SDU_STOP) || (sdup->state == SDU_READY),
                "invalid state");
  usbp->in_params[config->bulk_in - 1U]   = sdup;
 800e5a8:	790a      	ldrb	r2, [r1, #4]
 800e5aa:	eb03 0282 	add.w	r2, r3, r2, lsl #2
 800e5ae:	6190      	str	r0, [r2, #24]
  usbp->out_params[config->bulk_out - 1U] = sdup;
 800e5b0:	794a      	ldrb	r2, [r1, #5]
 800e5b2:	3209      	adds	r2, #9
 800e5b4:	f843 0022 	str.w	r0, [r3, r2, lsl #2]
  if (config->int_in > 0U) {
 800e5b8:	798a      	ldrb	r2, [r1, #6]
 800e5ba:	b112      	cbz	r2, 800e5c2 <sduStart+0x22>
    usbp->in_params[config->int_in - 1U]  = sdup;
 800e5bc:	eb03 0382 	add.w	r3, r3, r2, lsl #2
 800e5c0:	6198      	str	r0, [r3, #24]
  }
  sdup->config = config;
 800e5c2:	f8c0 1254 	str.w	r1, [r0, #596]	; 0x254
  sdup->state = SDU_READY;
 800e5c6:	2302      	movs	r3, #2
 800e5c8:	7203      	strb	r3, [r0, #8]
 800e5ca:	2300      	movs	r3, #0
 800e5cc:	f383 8811 	msr	BASEPRI, r3
  osalSysUnlock();
}
 800e5d0:	4770      	bx	lr
 800e5d2:	bf00      	nop
	...

0800e5e0 <sduConfigureHookI>:
 *
 * @param[in] sdup      pointer to a @p SerialUSBDriver object
 *
 * @iclass
 */
void sduConfigureHookI(SerialUSBDriver *sdup) {
 800e5e0:	b570      	push	{r4, r5, r6, lr}
 800e5e2:	4604      	mov	r4, r0
  USBDriver *usbp = sdup->config->usbp;
 800e5e4:	f8d0 3254 	ldr.w	r3, [r0, #596]	; 0x254
 800e5e8:	681d      	ldr	r5, [r3, #0]

  iqResetI(&sdup->iqueue);
 800e5ea:	f100 060c 	add.w	r6, r0, #12
 800e5ee:	4630      	mov	r0, r6
 800e5f0:	f7ff fbf6 	bl	800dde0 <chIQResetI>
  oqResetI(&sdup->oqueue);
 800e5f4:	f104 0030 	add.w	r0, r4, #48	; 0x30
 800e5f8:	f7ff fc72 	bl	800dee0 <chOQResetI>
  chEvtBroadcastFlagsI(esp, flags);
 800e5fc:	2101      	movs	r1, #1
 800e5fe:	1d20      	adds	r0, r4, #4
 800e600:	f7ff fb96 	bl	800dd30 <chEvtBroadcastFlagsI>
  chnAddFlagsI(sdup, CHN_CONNECTED);

  /* Starts the first OUT transaction immediately.*/
  usbPrepareQueuedReceive(usbp, sdup->config->bulk_out, &sdup->iqueue,
 800e604:	f8d4 3254 	ldr.w	r3, [r4, #596]	; 0x254
 800e608:	7959      	ldrb	r1, [r3, #5]
                          usbp->epc[sdup->config->bulk_out]->out_maxsize);
 800e60a:	eb05 0381 	add.w	r3, r5, r1, lsl #2
 800e60e:	68db      	ldr	r3, [r3, #12]
  usbPrepareQueuedReceive(usbp, sdup->config->bulk_out, &sdup->iqueue,
 800e610:	8a5b      	ldrh	r3, [r3, #18]
 800e612:	4632      	mov	r2, r6
 800e614:	4628      	mov	r0, r5
 800e616:	f000 f963 	bl	800e8e0 <usbPrepareQueuedReceive>
  (void) usbStartReceiveI(usbp, sdup->config->bulk_out);
 800e61a:	f8d4 3254 	ldr.w	r3, [r4, #596]	; 0x254
 800e61e:	7959      	ldrb	r1, [r3, #5]
 800e620:	4628      	mov	r0, r5
 800e622:	f000 f97d 	bl	800e920 <usbStartReceiveI>
}
 800e626:	bd70      	pop	{r4, r5, r6, pc}
	...

0800e630 <sduRequestsHook>:
 * @retval true         Message handled internally.
 * @retval false        Message not handled.
 */
bool sduRequestsHook(USBDriver *usbp) {

  if ((usbp->setup[0] & USB_RTYPE_TYPE_MASK) == USB_RTYPE_TYPE_CLASS) {
 800e630:	f890 3044 	ldrb.w	r3, [r0, #68]	; 0x44
 800e634:	f003 0360 	and.w	r3, r3, #96	; 0x60
 800e638:	2b20      	cmp	r3, #32
 800e63a:	d001      	beq.n	800e640 <sduRequestsHook+0x10>
      return true;
    default:
      return false;
    }
  }
  return false;
 800e63c:	2000      	movs	r0, #0
 800e63e:	4770      	bx	lr
    switch (usbp->setup[1]) {
 800e640:	f890 3045 	ldrb.w	r3, [r0, #69]	; 0x45
 800e644:	2b21      	cmp	r3, #33	; 0x21
 800e646:	d005      	beq.n	800e654 <sduRequestsHook+0x24>
 800e648:	2b22      	cmp	r3, #34	; 0x22
 800e64a:	d013      	beq.n	800e674 <sduRequestsHook+0x44>
 800e64c:	2b20      	cmp	r3, #32
 800e64e:	d009      	beq.n	800e664 <sduRequestsHook+0x34>
      return false;
 800e650:	2000      	movs	r0, #0
}
 800e652:	4770      	bx	lr
      usbSetupTransfer(usbp, (uint8_t *)&linecoding, sizeof(linecoding), NULL);
 800e654:	4b0a      	ldr	r3, [pc, #40]	; (800e680 <sduRequestsHook+0x50>)
 800e656:	6383      	str	r3, [r0, #56]	; 0x38
 800e658:	2307      	movs	r3, #7
 800e65a:	63c3      	str	r3, [r0, #60]	; 0x3c
 800e65c:	2300      	movs	r3, #0
 800e65e:	6403      	str	r3, [r0, #64]	; 0x40
      return true;
 800e660:	2001      	movs	r0, #1
 800e662:	4770      	bx	lr
      usbSetupTransfer(usbp, (uint8_t *)&linecoding, sizeof(linecoding), NULL);
 800e664:	4b06      	ldr	r3, [pc, #24]	; (800e680 <sduRequestsHook+0x50>)
 800e666:	6383      	str	r3, [r0, #56]	; 0x38
 800e668:	2307      	movs	r3, #7
 800e66a:	63c3      	str	r3, [r0, #60]	; 0x3c
 800e66c:	2300      	movs	r3, #0
 800e66e:	6403      	str	r3, [r0, #64]	; 0x40
      return true;
 800e670:	2001      	movs	r0, #1
 800e672:	4770      	bx	lr
      usbSetupTransfer(usbp, NULL, 0, NULL);
 800e674:	2300      	movs	r3, #0
 800e676:	6383      	str	r3, [r0, #56]	; 0x38
 800e678:	63c3      	str	r3, [r0, #60]	; 0x3c
 800e67a:	6403      	str	r3, [r0, #64]	; 0x40
      return true;
 800e67c:	2001      	movs	r0, #1
 800e67e:	4770      	bx	lr
 800e680:	20001000 	.word	0x20001000
	...

0800e690 <sduDataTransmitted>:
 *          data endpoint.
 *
 * @param[in] usbp      pointer to the @p USBDriver object
 * @param[in] ep        endpoint number
 */
void sduDataTransmitted(USBDriver *usbp, usbep_t ep) {
 800e690:	b570      	push	{r4, r5, r6, lr}
  size_t n;
  SerialUSBDriver *sdup = usbp->in_params[ep - 1U];
 800e692:	eb00 0381 	add.w	r3, r0, r1, lsl #2
 800e696:	699c      	ldr	r4, [r3, #24]

  if (sdup == NULL) {
 800e698:	2c00      	cmp	r4, #0
 800e69a:	d03c      	beq.n	800e716 <sduDataTransmitted+0x86>
 800e69c:	460e      	mov	r6, r1
 800e69e:	4605      	mov	r5, r0
 800e6a0:	2320      	movs	r3, #32
 800e6a2:	f383 8811 	msr	BASEPRI, r3
 800e6a6:	2108      	movs	r1, #8
 800e6a8:	1d20      	adds	r0, r4, #4
 800e6aa:	f7ff fb41 	bl	800dd30 <chEvtBroadcastFlagsI>
  return (size_t)(chQSizeX(oqp) - chQSpaceI(oqp));
 800e6ae:	6ba2      	ldr	r2, [r4, #56]	; 0x38
 800e6b0:	6c23      	ldr	r3, [r4, #64]	; 0x40
 800e6b2:	6be1      	ldr	r1, [r4, #60]	; 0x3c
 800e6b4:	1a5b      	subs	r3, r3, r1

  osalSysLockFromISR();
  chnAddFlagsI(sdup, CHN_OUTPUT_EMPTY);

  /*lint -save -e9013 [15.7] There is no else because it is not needed.*/
  if ((n = oqGetFullI(&sdup->oqueue)) > 0U) {
 800e6b6:	1a9b      	subs	r3, r3, r2
 800e6b8:	d11a      	bne.n	800e6f0 <sduDataTransmitted+0x60>
    usbPrepareQueuedTransmit(usbp, ep, &sdup->oqueue, n);

    osalSysLockFromISR();
    (void) usbStartTransmitI(usbp, ep);
  }
  else if ((usbp->epc[ep]->in_state->txsize > 0U) &&
 800e6ba:	eb05 0386 	add.w	r3, r5, r6, lsl #2
 800e6be:	68da      	ldr	r2, [r3, #12]
 800e6c0:	6953      	ldr	r3, [r2, #20]
 800e6c2:	685b      	ldr	r3, [r3, #4]
 800e6c4:	b323      	cbz	r3, 800e710 <sduDataTransmitted+0x80>
           ((usbp->epc[ep]->in_state->txsize &
            ((size_t)usbp->epc[ep]->in_maxsize - 1U)) == 0U)) {
 800e6c6:	8a12      	ldrh	r2, [r2, #16]
 800e6c8:	3a01      	subs	r2, #1
  else if ((usbp->epc[ep]->in_state->txsize > 0U) &&
 800e6ca:	421a      	tst	r2, r3
 800e6cc:	d120      	bne.n	800e710 <sduDataTransmitted+0x80>
 800e6ce:	2300      	movs	r3, #0
 800e6d0:	f383 8811 	msr	BASEPRI, r3
       size. Otherwise the recipient may expect more data coming soon and
       not return buffered data to app. See section 5.8.3 Bulk Transfer
       Packet Size Constraints of the USB Specification document.*/
    osalSysUnlockFromISR();

    usbPrepareQueuedTransmit(usbp, ep, &sdup->oqueue, 0);
 800e6d4:	f104 0230 	add.w	r2, r4, #48	; 0x30
 800e6d8:	4631      	mov	r1, r6
 800e6da:	4628      	mov	r0, r5
 800e6dc:	f000 f910 	bl	800e900 <usbPrepareQueuedTransmit>
 800e6e0:	2320      	movs	r3, #32
 800e6e2:	f383 8811 	msr	BASEPRI, r3

    osalSysLockFromISR();
    (void) usbStartTransmitI(usbp, ep);
 800e6e6:	4631      	mov	r1, r6
 800e6e8:	4628      	mov	r0, r5
 800e6ea:	f000 f929 	bl	800e940 <usbStartTransmitI>
 800e6ee:	e00f      	b.n	800e710 <sduDataTransmitted+0x80>
 800e6f0:	2200      	movs	r2, #0
 800e6f2:	f382 8811 	msr	BASEPRI, r2
    usbPrepareQueuedTransmit(usbp, ep, &sdup->oqueue, n);
 800e6f6:	f104 0230 	add.w	r2, r4, #48	; 0x30
 800e6fa:	4631      	mov	r1, r6
 800e6fc:	4628      	mov	r0, r5
 800e6fe:	f000 f8ff 	bl	800e900 <usbPrepareQueuedTransmit>
 800e702:	2320      	movs	r3, #32
 800e704:	f383 8811 	msr	BASEPRI, r3
    (void) usbStartTransmitI(usbp, ep);
 800e708:	4631      	mov	r1, r6
 800e70a:	4628      	mov	r0, r5
 800e70c:	f000 f918 	bl	800e940 <usbStartTransmitI>
 800e710:	2300      	movs	r3, #0
 800e712:	f383 8811 	msr	BASEPRI, r3
  }
  /*lint -restore*/

  osalSysUnlockFromISR();
}
 800e716:	bd70      	pop	{r4, r5, r6, pc}
	...

0800e720 <sduDataReceived>:
 *          data endpoint.
 *
 * @param[in] usbp      pointer to the @p USBDriver object
 * @param[in] ep        endpoint number
 */
void sduDataReceived(USBDriver *usbp, usbep_t ep) {
 800e720:	b5f8      	push	{r3, r4, r5, r6, r7, lr}
  size_t n, maxsize;
  SerialUSBDriver *sdup = usbp->out_params[ep - 1U];
 800e722:	f101 0309 	add.w	r3, r1, #9
 800e726:	f850 4023 	ldr.w	r4, [r0, r3, lsl #2]

  if (sdup == NULL) {
 800e72a:	b1b4      	cbz	r4, 800e75a <sduDataReceived+0x3a>
 800e72c:	460f      	mov	r7, r1
 800e72e:	4606      	mov	r6, r0
 800e730:	2320      	movs	r3, #32
 800e732:	f383 8811 	msr	BASEPRI, r3
 800e736:	2104      	movs	r1, #4
 800e738:	1860      	adds	r0, r4, r1
 800e73a:	f7ff faf9 	bl	800dd30 <chEvtBroadcastFlagsI>
  osalSysLockFromISR();
  chnAddFlagsI(sdup, CHN_INPUT_AVAILABLE);

  /* Writes to the input queue can only happen when there is enough space
     to hold at least one packet.*/
  maxsize = usbp->epc[ep]->out_maxsize;
 800e73e:	eb06 0387 	add.w	r3, r6, r7, lsl #2
 800e742:	68db      	ldr	r3, [r3, #12]
 800e744:	8a5b      	ldrh	r3, [r3, #18]
  return (size_t)(chQSizeX(iqp) - chQSpaceI(iqp));
 800e746:	6961      	ldr	r1, [r4, #20]
 800e748:	69e5      	ldr	r5, [r4, #28]
 800e74a:	69a2      	ldr	r2, [r4, #24]
 800e74c:	1aaa      	subs	r2, r5, r2
 800e74e:	1a52      	subs	r2, r2, r1
  if ((n = iqGetEmptyI(&sdup->iqueue)) >= maxsize) {
 800e750:	4293      	cmp	r3, r2
 800e752:	d903      	bls.n	800e75c <sduDataReceived+0x3c>
 800e754:	2300      	movs	r3, #0
 800e756:	f383 8811 	msr	BASEPRI, r3

    osalSysLockFromISR();
    (void) usbStartReceiveI(usbp, ep);
  }
  osalSysUnlockFromISR();
}
 800e75a:	bdf8      	pop	{r3, r4, r5, r6, r7, pc}
 800e75c:	2100      	movs	r1, #0
 800e75e:	f381 8811 	msr	BASEPRI, r1
    n = (n / maxsize) * maxsize;
 800e762:	fbb2 f2f3 	udiv	r2, r2, r3
    usbPrepareQueuedReceive(usbp, ep, &sdup->iqueue, n);
 800e766:	fb03 f302 	mul.w	r3, r3, r2
 800e76a:	f104 020c 	add.w	r2, r4, #12
 800e76e:	4639      	mov	r1, r7
 800e770:	4630      	mov	r0, r6
 800e772:	f000 f8b5 	bl	800e8e0 <usbPrepareQueuedReceive>
 800e776:	2320      	movs	r3, #32
 800e778:	f383 8811 	msr	BASEPRI, r3
    (void) usbStartReceiveI(usbp, ep);
 800e77c:	4639      	mov	r1, r7
 800e77e:	4630      	mov	r0, r6
 800e780:	f000 f8ce 	bl	800e920 <usbStartReceiveI>
 800e784:	e7e6      	b.n	800e754 <sduDataReceived+0x34>
 800e786:	bf00      	nop
	...

0800e790 <sduInterruptTransmitted>:
 */
void sduInterruptTransmitted(USBDriver *usbp, usbep_t ep) {

  (void)usbp;
  (void)ep;
}
 800e790:	4770      	bx	lr
 800e792:	bf00      	nop
	...

0800e7a0 <spiInit>:
 * @note    This function is implicitly invoked by @p halInit(), there is
 *          no need to explicitly initialize the driver.
 *
 * @init
 */
void spiInit(void) {
 800e7a0:	b508      	push	{r3, lr}

  spi_lld_init();
 800e7a2:	f002 f97d 	bl	8010aa0 <spi_lld_init>
}
 800e7a6:	bd08      	pop	{r3, pc}
	...

0800e7b0 <spiObjectInit>:
 *
 * @param[out] spip     pointer to the @p SPIDriver object
 *
 * @init
 */
void spiObjectInit(SPIDriver *spip) {
 800e7b0:	b508      	push	{r3, lr}

  spip->state = SPI_STOP;
 800e7b2:	2301      	movs	r3, #1
 800e7b4:	7003      	strb	r3, [r0, #0]
  spip->config = NULL;
 800e7b6:	2300      	movs	r3, #0
 800e7b8:	6043      	str	r3, [r0, #4]
#if SPI_USE_WAIT == TRUE
  spip->thread = NULL;
 800e7ba:	6083      	str	r3, [r0, #8]
  chMtxObjectInit(mp);
 800e7bc:	300c      	adds	r0, #12
 800e7be:	f7ff f9e7 	bl	800db90 <chMtxObjectInit>
  osalMutexObjectInit(&spip->mutex);
#endif
#if defined(SPI_DRIVER_EXT_INIT_HOOK)
  SPI_DRIVER_EXT_INIT_HOOK(spip);
#endif
}
 800e7c2:	bd08      	pop	{r3, pc}
	...

0800e7d0 <uartInit>:
 * @note    This function is implicitly invoked by @p halInit(), there is
 *          no need to explicitly initialize the driver.
 *
 * @init
 */
void uartInit(void) {
 800e7d0:	b508      	push	{r3, lr}

  uart_lld_init();
 800e7d2:	f002 fa5d 	bl	8010c90 <uart_lld_init>
}
 800e7d6:	bd08      	pop	{r3, pc}
	...

0800e7e0 <uartObjectInit>:
 *
 * @init
 */
void uartObjectInit(UARTDriver *uartp) {

  uartp->state   = UART_STOP;
 800e7e0:	2301      	movs	r3, #1
 800e7e2:	7003      	strb	r3, [r0, #0]
  uartp->txstate = UART_TX_IDLE;
 800e7e4:	2300      	movs	r3, #0
 800e7e6:	7043      	strb	r3, [r0, #1]
  uartp->rxstate = UART_RX_IDLE;
 800e7e8:	7083      	strb	r3, [r0, #2]
  uartp->config  = NULL;
 800e7ea:	6043      	str	r3, [r0, #4]
  /* Optional, user-defined initializer.*/
#if defined(UART_DRIVER_EXT_INIT_HOOK)
  UART_DRIVER_EXT_INIT_HOOK(uartp);
#endif
}
 800e7ec:	4770      	bx	lr
 800e7ee:	bf00      	nop

0800e7f0 <usbInit>:
 * @note    This function is implicitly invoked by @p halInit(), there is
 *          no need to explicitly initialize the driver.
 *
 * @init
 */
void usbInit(void) {
 800e7f0:	b508      	push	{r3, lr}

  usb_lld_init();
 800e7f2:	f001 fd95 	bl	8010320 <usb_lld_init>
}
 800e7f6:	bd08      	pop	{r3, pc}
	...

0800e800 <usbObjectInit>:
 * @init
 */
void usbObjectInit(USBDriver *usbp) {
  unsigned i;

  usbp->state        = USB_STOP;
 800e800:	2301      	movs	r3, #1
 800e802:	7003      	strb	r3, [r0, #0]
  usbp->config       = NULL;
 800e804:	2300      	movs	r3, #0
 800e806:	6043      	str	r3, [r0, #4]
  for (i = 0; i < (unsigned)USB_MAX_ENDPOINTS; i++) {
    usbp->in_params[i]  = NULL;
